{
  "contractName": "AddressSnowflakeERC721",
  "abi": [
    {
      "constant": true,
      "inputs": [
        {
          "name": "interfaceId",
          "type": "bytes4"
        }
      ],
      "name": "supportsInterface",
      "outputs": [
        {
          "name": "",
          "type": "bool"
        }
      ],
      "payable": false,
      "stateMutability": "view",
      "type": "function"
    },
    {
      "constant": true,
      "inputs": [
        {
          "name": "tokenId",
          "type": "uint256"
        }
      ],
      "name": "getApproved",
      "outputs": [
        {
          "name": "",
          "type": "uint256"
        }
      ],
      "payable": false,
      "stateMutability": "view",
      "type": "function"
    },
    {
      "constant": false,
      "inputs": [
        {
          "name": "to",
          "type": "uint256"
        },
        {
          "name": "approved",
          "type": "bool"
        }
      ],
      "name": "setApprovalForAll",
      "outputs": [],
      "payable": false,
      "stateMutability": "nonpayable",
      "type": "function"
    },
    {
      "constant": false,
      "inputs": [
        {
          "name": "from",
          "type": "uint256"
        },
        {
          "name": "to",
          "type": "uint256"
        },
        {
          "name": "tokenId",
          "type": "uint256"
        }
      ],
      "name": "transferFrom",
      "outputs": [],
      "payable": false,
      "stateMutability": "nonpayable",
      "type": "function"
    },
    {
      "constant": false,
      "inputs": [
        {
          "name": "to",
          "type": "uint256"
        },
        {
          "name": "tokenId",
          "type": "uint256"
        }
      ],
      "name": "approve",
      "outputs": [],
      "payable": false,
      "stateMutability": "nonpayable",
      "type": "function"
    },
    {
      "constant": true,
      "inputs": [
        {
          "name": "tokenId",
          "type": "uint256"
        }
      ],
      "name": "ownerOf",
      "outputs": [
        {
          "name": "",
          "type": "uint256"
        }
      ],
      "payable": false,
      "stateMutability": "view",
      "type": "function"
    },
    {
      "constant": false,
      "inputs": [
        {
          "name": "from",
          "type": "uint256"
        },
        {
          "name": "to",
          "type": "uint256"
        },
        {
          "name": "tokenId",
          "type": "uint256"
        },
        {
          "name": "_data",
          "type": "bytes"
        }
      ],
      "name": "safeTransferFrom",
      "outputs": [],
      "payable": false,
      "stateMutability": "nonpayable",
      "type": "function"
    },
    {
      "constant": true,
      "inputs": [
        {
          "name": "owner",
          "type": "uint256"
        },
        {
          "name": "operator",
          "type": "uint256"
        }
      ],
      "name": "isApprovedForAll",
      "outputs": [
        {
          "name": "",
          "type": "bool"
        }
      ],
      "payable": false,
      "stateMutability": "view",
      "type": "function"
    },
    {
      "constant": true,
      "inputs": [
        {
          "name": "owner",
          "type": "uint256"
        }
      ],
      "name": "balanceOf",
      "outputs": [
        {
          "name": "",
          "type": "uint256"
        }
      ],
      "payable": false,
      "stateMutability": "view",
      "type": "function"
    },
    {
      "constant": false,
      "inputs": [
        {
          "name": "from",
          "type": "uint256"
        },
        {
          "name": "to",
          "type": "uint256"
        },
        {
          "name": "tokenId",
          "type": "uint256"
        }
      ],
      "name": "safeTransferFrom",
      "outputs": [],
      "payable": false,
      "stateMutability": "nonpayable",
      "type": "function"
    },
    {
      "constant": true,
      "inputs": [],
      "name": "snowflakeAddress",
      "outputs": [
        {
          "name": "",
          "type": "address"
        }
      ],
      "payable": false,
      "stateMutability": "view",
      "type": "function"
    },
    {
      "anonymous": false,
      "inputs": [
        {
          "indexed": false,
          "name": "owner",
          "type": "uint256"
        },
        {
          "indexed": false,
          "name": "to",
          "type": "address"
        },
        {
          "indexed": false,
          "name": "tokenId",
          "type": "uint256"
        }
      ],
      "name": "ApprovalAddress",
      "type": "event"
    },
    {
      "anonymous": false,
      "inputs": [
        {
          "indexed": true,
          "name": "einFrom",
          "type": "uint256"
        },
        {
          "indexed": true,
          "name": "einTo",
          "type": "uint256"
        },
        {
          "indexed": true,
          "name": "tokenId",
          "type": "uint256"
        }
      ],
      "name": "Transfer",
      "type": "event"
    },
    {
      "anonymous": false,
      "inputs": [
        {
          "indexed": true,
          "name": "einOwner",
          "type": "uint256"
        },
        {
          "indexed": true,
          "name": "einApproved",
          "type": "uint256"
        },
        {
          "indexed": true,
          "name": "tokenId",
          "type": "uint256"
        }
      ],
      "name": "Approval",
      "type": "event"
    },
    {
      "anonymous": false,
      "inputs": [
        {
          "indexed": true,
          "name": "einOwner",
          "type": "uint256"
        },
        {
          "indexed": true,
          "name": "einOperator",
          "type": "uint256"
        },
        {
          "indexed": false,
          "name": "approved",
          "type": "bool"
        }
      ],
      "name": "ApprovalForAll",
      "type": "event"
    },
    {
      "constant": false,
      "inputs": [
        {
          "name": "to",
          "type": "address"
        },
        {
          "name": "tokenId",
          "type": "uint256"
        }
      ],
      "name": "approveAddress",
      "outputs": [],
      "payable": false,
      "stateMutability": "nonpayable",
      "type": "function"
    },
    {
      "constant": true,
      "inputs": [
        {
          "name": "tokenId",
          "type": "uint256"
        }
      ],
      "name": "getApprovedAddress",
      "outputs": [
        {
          "name": "",
          "type": "address"
        }
      ],
      "payable": false,
      "stateMutability": "view",
      "type": "function"
    },
    {
      "constant": false,
      "inputs": [
        {
          "name": "from",
          "type": "uint256"
        },
        {
          "name": "to",
          "type": "uint256"
        },
        {
          "name": "tokenId",
          "type": "uint256"
        }
      ],
      "name": "transferFromAddress",
      "outputs": [],
      "payable": false,
      "stateMutability": "nonpayable",
      "type": "function"
    },
    {
      "constant": false,
      "inputs": [
        {
          "name": "from",
          "type": "uint256"
        },
        {
          "name": "to",
          "type": "uint256"
        },
        {
          "name": "tokenId",
          "type": "uint256"
        }
      ],
      "name": "safeTransferFromAddress",
      "outputs": [],
      "payable": false,
      "stateMutability": "nonpayable",
      "type": "function"
    },
    {
      "constant": false,
      "inputs": [
        {
          "name": "from",
          "type": "uint256"
        },
        {
          "name": "to",
          "type": "uint256"
        },
        {
          "name": "tokenId",
          "type": "uint256"
        },
        {
          "name": "_data",
          "type": "bytes"
        }
      ],
      "name": "safeTransferFromAddress",
      "outputs": [],
      "payable": false,
      "stateMutability": "nonpayable",
      "type": "function"
    }
  ],
  "bytecode": "0x60806040526100367f01ffc9a70000000000000000000000000000000000000000000000000000000064010000000061003b810204565b6100a7565b7fffffffff00000000000000000000000000000000000000000000000000000000808216141561006a57600080fd5b7fffffffff00000000000000000000000000000000000000000000000000000000166000908152602081905260409020805460ff19166001179055565b610e1d806100b66000396000f3fe608060405234801561001057600080fd5b50600436106101045760003560e060020a9004806368d1e6411161009b5780639cc7f7081161006a5780639cc7f7081461042b578063eca4742a14610448578063f467046214610481578063f9f451b8146104aa57610104565b806368d1e641146102fa5780637f493d9c146103b35780638b9a0c89146103dc5780638d9188d51461040857610104565b8063310ed7f0116100d7578063310ed7f0146101d8578063435b153f146102015780635d35a3d9146102ba5780636352211e146102dd57610104565b806301ffc9a714610109578063081812fc146101595780630d2e347d1461018857806316b49a43146101b3575b600080fd5b6101456004803603602081101561011f57600080fd5b50357bffffffffffffffffffffffffffffffffffffffffffffffffffffffff19166104b2565b604080519115158252519081900360200190f35b6101766004803603602081101561016f57600080fd5b50356104e6565b60408051918252519081900360200190f35b6101b16004803603606081101561019e57600080fd5b508035906020810135906040013561050d565b005b6101b1600480360360408110156101c957600080fd5b5080359060200135151561052d565b6101b1600480360360608110156101ee57600080fd5b50803590602081013590604001356105a9565b6101b16004803603608081101561021757600080fd5b8135916020810135916040820135919081019060808101606082013564010000000081111561024557600080fd5b82018360208201111561025757600080fd5b8035906020019184600183028401116401000000008311171561027957600080fd5b91908080601f0160208091040260200160405190810160405280939291908181526020018383808284376000920191909152509295506105cf945050505050565b6101b1600480360360408110156102d057600080fd5b50803590602001356105f5565b610176600480360360208110156102f357600080fd5b503561067a565b6101b16004803603608081101561031057600080fd5b8135916020810135916040820135919081019060808101606082013564010000000081111561033e57600080fd5b82018360208201111561035057600080fd5b8035906020019184600183028401116401000000008311171561037257600080fd5b91908080601f016020809104026020016040519081016040528093929190818152602001838380828437600092019190915250929550610699945050505050565b6101b1600480360360608110156103c957600080fd5b50803590602081013590604001356106a4565b6101b1600480360360408110156103f257600080fd5b50600160a060020a0381351690602001356106c2565b6101456004803603604081101561041e57600080fd5b50803590602001356107c1565b6101766004803603602081101561044157600080fd5b50356107e1565b6104656004803603602081101561045e57600080fd5b5035610804565b60408051600160a060020a039092168252519081900360200190f35b6101b16004803603606081101561049757600080fd5b5080359060208101359060400135610834565b61046561084f565b7bffffffffffffffffffffffffffffffffffffffffffffffffffffffff191660009081526020819052604090205460ff1690565b60006104f18261085e565b6104fa57600080fd5b5060009081526003602052604090205490565b610528838383604051806020016040528060008152506105cf565b505050565b600061053833610872565b90508083141561054757600080fd5b6000818152600560209081526040808320868452825291829020805460ff191685151590811790915582519081529151859284927fe08356808518f185b1eebe6f778106965c2df3a69af4d7139fa9451067146eb792918290030190a3505050565b6105bb6105b533610872565b82610a78565b6105c457600080fd5b610528838383610ab3565b6105da8484846106a4565b6105e684848484610b49565b6105ef57600080fd5b50505050565b60006106008261067a565b9050600061060d33610872565b90508184141561061c57600080fd5b8181148061062f575061062f82826107c1565b61063857600080fd5b600083815260036020526040808220869055518491869185917f08aaf4f7dd1adfa5bfe7067dea5b4ebd7e119d43257438a9189f37d7044eb09a91a450505050565b6000818152600260205260408120548061069357600080fd5b92915050565b6105da8484846105a9565b6106ae3382610c8f565b6106b757600080fd5b610528838383610cb5565b60006106cd8261067a565b905060006106da33610872565b9050818114806106ef57506106ef82826107c1565b610744576040517f08c379a0000000000000000000000000000000000000000000000000000000008152600401808060200182810382526045815260200180610d856045913960600191505060405180910390fd5b6000838152600660209081526040918290208054600160a060020a03881673ffffffffffffffffffffffffffffffffffffffff19909116811790915582518581529182015280820185905290517fdd2d4479f7ebe0a20212b0ef6b723a3f0d98a4b3d64b8d9898777c769bb7a8819181900360600190a150505050565b600091825260056020908152604080842092845291905290205460ff1690565b6000816107ed57600080fd5b600082815260046020526040902061069390610cdc565b600061080f8261085e565b61081857600080fd5b50600090815260066020526040902054600160a060020a031690565b61052883838360405180602001604052806000815250610699565b600154600160a060020a031681565b600090815260026020526040902054151590565b600154604080517fa759ee6f0000000000000000000000000000000000000000000000000000000081529051600092600160a060020a0316918391839163a759ee6f91600480830192602092919082900301818787803b1580156108d557600080fd5b505af11580156108e9573d6000803e3d6000fd5b505050506040513d60208110156108ff57600080fd5b5051604080517f237f1a21000000000000000000000000000000000000000000000000000000008152600160a060020a038781166004830152915192935083929183169163237f1a2191602480820192602092909190829003018186803b15801561096957600080fd5b505afa15801561097d573d6000803e3d6000fd5b505050506040513d602081101561099357600080fd5b50516109ea576040517f08c379a0000000000000000000000000000000000000000000000000000000008152600401808060200182810382526028815260200180610dca6028913960400191505060405180910390fd5b80600160a060020a03166305c62c2f866040518263ffffffff1660e060020a0281526004018082600160a060020a0316600160a060020a0316815260200191505060206040518083038186803b158015610a4357600080fd5b505afa158015610a57573d6000803e3d6000fd5b505050506040513d6020811015610a6d57600080fd5b505195945050505050565b600080610a848361067a565b905080841480610a9b575083610a99846104e6565b145b80610aab5750610aab81856107c1565b949350505050565b82610abd8261067a565b14610ac757600080fd5b81610ad157600080fd5b610ada81610ce0565b6000838152600460205260409020610af190610d07565b6000828152600460205260409020610b0890610d1e565b600081815260026020526040808220849055518291849186917faf6151f5085accf2d57e1e7bf7601d3b3982e0de7e9a90f032f8554de9c104f691a4505050565b60008084600160a060020a031663494114c2610b6433610872565b8887876040518563ffffffff1660e060020a0281526004018085815260200184815260200183815260200180602001828103825283818151815260200191508051906020019080838360005b83811015610bc8578181015183820152602001610bb0565b50505050905090810190601f168015610bf55780820380516001836020036101000a031916815260200191505b5095505050505050602060405180830381600087803b158015610c1757600080fd5b505af1158015610c2b573d6000803e3d6000fd5b505050506040513d6020811015610c4157600080fd5b50517bffffffffffffffffffffffffffffffffffffffffffffffffffffffff19167f494114c20000000000000000000000000000000000000000000000000000000014915050949350505050565b600082600160a060020a0316610ca483610804565b600160a060020a0316149392505050565b82610cbf8261067a565b14610cc957600080fd5b81610cd357600080fd5b6105c481610d27565b5490565b60008181526003602052604090205415610d04576000818152600360205260408120555b50565b8054610d1a90600163ffffffff610d6f16565b9055565b80546001019055565b600081815260066020526040902054600160a060020a031615610d04576000908152600660205260409020805473ffffffffffffffffffffffffffffffffffffffff19169055565b600082821115610d7e57600080fd5b5090039056fe53656e646572206973206e6f74206f776e65722c206f72206661696c7320746f2070617373206973417070726f766564466f72416c6c286f776e65722c2073656e6465722941646472657373206e6f6e2d6578697374656e7420696e204964656e746974795265676973747279a165627a7a723058202394c09f64798d15f9829c51e8491139e311c7bccaa9c149ed2c0fabb28c812b0029",
  "source": "pragma solidity ^0.5.2;\n\nimport \"../SnowflakeERC721.sol\";\n\n/**\n * @title Address Snowflake ERC721; Non-Fungible Token Standard basic implementation, but with address owning\n * @dev see https://eips.ethereum.org/EIPS/eip-721\n */\ncontract AddressSnowflakeERC721 is SnowflakeERC721 {\n\n\n\n    // Mapping from token ID to approved address\n    mapping (uint256 => address) private _tokenApprovalsAddress;\n\n/*    constructor (address _snowflakeAddress) public {\n        _constructAddressSnowflakeERC721(_snowflakeAddress);\n    }\n*/\n    function _constructAddressSnowflakeERC721(address _snowflakeAddress) internal {\n        _constructSnowflakeERC721(_snowflakeAddress);\n    }\n\n\n    /**\n     * @dev Approves an address to transfer the given token ID\n     * The zero address indicates there is no approved EIN.\n     * There can only be one approved address per token at a given time.\n     * Can only be called by the token owner or an approved operator.\n     * @param to address to be approved for the given token ID\n     * @param tokenId uint256 ID of the token to be approved\n     */\n    function approveAddress(address to, uint256 tokenId) public {\n        uint256 owner = ownerOf(tokenId);\n        uint256 sender = getEIN(msg.sender);\n        //require(to != owner);  <--- We likely don't need this, let's just let any address be a potential approved one\n        require(sender == owner || isApprovedForAll(owner, sender), 'Sender is not owner, or fails to pass isApprovedForAll(owner, sender)');\n\n        _tokenApprovalsAddress[tokenId] = to;\n        emit ApprovalAddress(owner, to, tokenId);\n    }\n\n    /**\n     * @dev Gets the approved address for a token ID, or zero if no EIN set\n     * Reverts if the token ID does not exist.\n     * @param tokenId uint256 ID of the token to query the approval of\n     * @return address currently approved for the given token ID\n     */\n    function getApprovedAddress(uint256 tokenId) public view returns (address) {\n        require(_exists(tokenId));\n        return _tokenApprovalsAddress[tokenId];\n    }\n\n    /**\n     * @dev Transfers the ownership of a given token ID to another address\n     * Usage of this method is discouraged, use `safeTransferFrom` whenever possible\n     * Requires the msg.sender to be the owner, approved, or operator\n     * @param from current owner of the token\n     * @param to address to receive the ownership of the given token ID\n     * @param tokenId uint256 ID of the token to be transferred\n     */\n    function transferFromAddress(uint256 from, uint256 to, uint256 tokenId) public {\n        require(_isApprovedAddress(msg.sender, tokenId));\n\n        _transferFromAddress(from, to, tokenId);\n    }\n\n    /**\n     * @dev Safely transfers the ownership of a given token ID to another EIN\n     * If the target EIN is a contract, it must implement `onERC721Received`,\n     * which is called upon a safe transfer, and return the magic value\n     * `bytes4(keccak256(\"onERC721Received(address,address,uint256,bytes)\"))`; otherwise,\n     * the transfer is reverted.\n     * Requires the msg.sender to be the owner, approved, or operator\n     * @param from uint256 current owner of the token\n     * @param to uint256 to receive the ownership of the given token ID\n     * @param tokenId uint256 ID of the token to be transferred\n     */\n    function safeTransferFromAddress(uint256 from, uint256 to, uint256 tokenId) public {\n        safeTransferFromAddress(from, to, tokenId, \"\");\n    }\n\n    /**\n     * @dev Safely transfers the ownership of a given token ID to another EIN\n     * If the target address is a contract, it must implement `onERC721Received`,\n     * which is called upon a safe transfer, and return the magic value\n     * `bytes4(keccak256(\"onERC721Received(address,address,uint256,bytes)\"))`; otherwise,\n     * the transfer is reverted.\n     * Requires the msg.sender to be the owner, approved, or operator\n     * @param from current owner of the token\n     * @param to uint256 to receive the ownership of the given token ID\n     * @param tokenId uint256 ID of the token to be transferred\n     * @param _data bytes data to send along with a safe transfer check\n     */\n    function safeTransferFromAddress(uint256 from, uint256 to, uint256 tokenId, bytes memory _data) public {\n        transferFromAddress(from, to, tokenId);\n        require(_checkOnERC721Received(from, to, tokenId, _data));\n    }\n\n    /**\n     * @dev Returns whether the given spender can transfer a given token ID\n     * @param spender address of the spender to query\n     * @param tokenId uint256 ID of the token to be transferred\n     * @return bool whether the msg.sender is approved for the given token ID,\n     * is an operator of the owner, or is the owner of the token\n     */\n    function _isApprovedAddress(address spender, uint256 tokenId) internal view returns (bool) {\n        /*uint256 owner = ownerOf(tokenId);*/\n        return (getApprovedAddress(tokenId) == spender /*|| isApprovedForAll(owner, spender)*/);\n    }\n\n    /**\n     * @dev Internal function to burn a specific token\n     * Reverts if the token does not exist\n     * Overriding the regular _burn to also ensure to clear any addresses that happen to be approved\n     * Deprecated, use _burn(uint256) instead.\n     * @param owner owner of the token to burn\n     * @param tokenId uint256 ID of the token being burned\n     */\n    function _burnAddress(uint256 owner, uint256 tokenId) internal {\n\n        //The way this is written, this is technically done twice, not sure if this is the best design?\n        require(ownerOf(tokenId) == owner);\n\n//        _clearApproval(tokenId);\n        _clearApprovalAddress(tokenId);\n/*\n        _ownedTokensCount[owner].decrement();\n        _tokenOwner[tokenId] = 0;\n\n        emit Transfer(owner, 0, tokenId);*/\n        _burn(owner, tokenId);\n\n    }\n\n    /**\n     * @dev Internal function to burn a specific token\n     * Reverts if the token does not exist\n     * @param tokenId uint256 ID of the token being burned\n     */\n    function _burnAddress(uint256 tokenId) internal {\n        _burnAddress(ownerOf(tokenId), tokenId);\n    }\n\n    /**\n     * @dev Internal function to transfer ownership of a given token ID to another address.\n     * As opposed to transferFrom, this imposes no restrictions on msg.sender.\n     * @param from current owner of the token\n     * @param to uint256 to receive the ownership of the given token ID\n     * @param tokenId uint256 ID of the token to be transferred\n     */\n    function _transferFromAddress(uint256 from, uint256 to, uint256 tokenId) internal {\n        require(ownerOf(tokenId) == from);\n        require(to != 0);\n\n        _clearApprovalAddress(tokenId);\n/*\n        _ownedTokensCount[from].decrement();\n        _ownedTokensCount[to].increment();\n\n        _tokenOwner[tokenId] = to;\n\n        emit Transfer(from, to, tokenId);*/\n        _transferFrom(from, to, tokenId);\n\n    }\n\n    /**\n     * @dev Internal function to invoke `onERC721Received` on a target EIN\n     * The call is not executed if the target address is not a contract\n     * @param from uint256 representing the previous owner of the given token ID\n     * @param to target uint256 that will receive the tokens\n     * @param tokenId uint256 ID of the token to be transferred\n     * @param _data bytes optional data to send along with the call\n     * @return bool whether the call correctly returned the expected magic value\n     */\n/*    function _checkOnERC721Received(uint256 from, uint256 to, uint256 tokenId, bytes memory _data)\n        internal returns (bool)\n    {\n        if (!to.isContract()) {\n            return true;\n        }\n\n        bytes4 retval = SnowflakeERC721ReceiverInterface(to).onERC721Received(getEIN(msg.sender), from, tokenId, _data);\n        return (retval == _ERC721_RECEIVED);\n    }\n*/\n    /**\n     * @dev Private function to clear current approval of a given token ID\n     * @param tokenId uint256 ID of the token to be transferred\n     */\n    function _clearApprovalAddress(uint256 tokenId) private {\n        if (_tokenApprovalsAddress[tokenId] != address(0)) {\n            _tokenApprovalsAddress[tokenId] = address(0);\n        }\n    }\n\n    //Move this to an interface\n    event ApprovalAddress(uint256 owner, address to, uint256 tokenId);\n\n}\n",
  "sourcePath": "/home/luiserebii/hydrosnowflake_marketplace_coupons/contracts/ein/token/ERC721/address/AddressSnowflakeERC721.sol",
  "compiler": {
    "name": "solc",
    "version": "0.5.6+commit.b259423e.Emscripten.clang"
  },
  "schemaVersion": "3.0.6",
  "updatedAt": "2019-04-11T00:38:35.855Z",
  "devdoc": {
    "details": "see https://eips.ethereum.org/EIPS/eip-721",
    "methods": {
      "approve(uint256,uint256)": {
        "details": "Approves another EIN to transfer the given token ID The zero EIN indicates there is no approved EIN. There can only be one approved EIN per token at a given time. Can only be called by the token owner or an approved operator.",
        "params": {
          "to": "uint256 to be approved for the given token ID",
          "tokenId": "uint256 ID of the token to be approved"
        }
      },
      "approveAddress(address,uint256)": {
        "details": "Approves an address to transfer the given token ID The zero address indicates there is no approved EIN. There can only be one approved address per token at a given time. Can only be called by the token owner or an approved operator.",
        "params": {
          "to": "address to be approved for the given token ID",
          "tokenId": "uint256 ID of the token to be approved"
        }
      },
      "balanceOf(uint256)": {
        "details": "Gets the balance of the specified address",
        "params": {
          "owner": "uint256 to query the balance of"
        },
        "return": "uint256 representing the amount owned by the passed address"
      },
      "getApproved(uint256)": {
        "details": "Gets the approved EIN for a token ID, or zero if no EIN set Reverts if the token ID does not exist.",
        "params": {
          "tokenId": "uint256 ID of the token to query the approval of"
        },
        "return": "EIN currently approved for the given token ID"
      },
      "getApprovedAddress(uint256)": {
        "details": "Gets the approved address for a token ID, or zero if no EIN set Reverts if the token ID does not exist.",
        "params": {
          "tokenId": "uint256 ID of the token to query the approval of"
        },
        "return": "address currently approved for the given token ID"
      },
      "isApprovedForAll(uint256,uint256)": {
        "details": "Tells whether an operator is approved by a given owner",
        "params": {
          "operator": "operator EIN which you want to query the approval of",
          "owner": "owner EIN which you want to query the approval of"
        },
        "return": "bool whether the given operator is approved by the given owner"
      },
      "ownerOf(uint256)": {
        "details": "Gets the owner of the specified token ID",
        "params": {
          "tokenId": "uint256 ID of the token to query the owner of"
        },
        "return": "uint256 currently marked as the owner of the given token ID"
      },
      "safeTransferFrom(uint256,uint256,uint256)": {
        "details": "Safely transfers the ownership of a given token ID to another EIN If the target EIN is a contract, it must implement `onERC721Received`, which is called upon a safe transfer, and return the magic value `bytes4(keccak256(\"onERC721Received(address,address,uint256,bytes)\"))`; otherwise, the transfer is reverted. Requires the msg.sender to be the owner, approved, or operator",
        "params": {
          "from": "uint256 current owner of the token",
          "to": "uint256 to receive the ownership of the given token ID",
          "tokenId": "uint256 ID of the token to be transferred"
        }
      },
      "safeTransferFrom(uint256,uint256,uint256,bytes)": {
        "details": "Safely transfers the ownership of a given token ID to another EIN If the target EIN is a contract, it must implement `onERC721Received`, which is called upon a safe transfer, and return the magic value `bytes4(keccak256(\"onERC721Received(address,address,uint256,bytes)\"))`; otherwise, the transfer is reverted. Requires the msg.sender to be the owner, approved, or operator",
        "params": {
          "_data": "bytes data to send along with a safe transfer check",
          "from": "current owner of the token",
          "to": "uint256 to receive the ownership of the given token ID",
          "tokenId": "uint256 ID of the token to be transferred"
        }
      },
      "safeTransferFromAddress(uint256,uint256,uint256)": {
        "details": "Safely transfers the ownership of a given token ID to another EIN If the target EIN is a contract, it must implement `onERC721Received`, which is called upon a safe transfer, and return the magic value `bytes4(keccak256(\"onERC721Received(address,address,uint256,bytes)\"))`; otherwise, the transfer is reverted. Requires the msg.sender to be the owner, approved, or operator",
        "params": {
          "from": "uint256 current owner of the token",
          "to": "uint256 to receive the ownership of the given token ID",
          "tokenId": "uint256 ID of the token to be transferred"
        }
      },
      "safeTransferFromAddress(uint256,uint256,uint256,bytes)": {
        "details": "Safely transfers the ownership of a given token ID to another EIN If the target address is a contract, it must implement `onERC721Received`, which is called upon a safe transfer, and return the magic value `bytes4(keccak256(\"onERC721Received(address,address,uint256,bytes)\"))`; otherwise, the transfer is reverted. Requires the msg.sender to be the owner, approved, or operator",
        "params": {
          "_data": "bytes data to send along with a safe transfer check",
          "from": "current owner of the token",
          "to": "uint256 to receive the ownership of the given token ID",
          "tokenId": "uint256 ID of the token to be transferred"
        }
      },
      "setApprovalForAll(uint256,bool)": {
        "details": "Sets or unsets the approval of a given operator An operator is allowed to transfer all tokens of the sender on their behalf",
        "params": {
          "approved": "representing the status of the approval to be set",
          "to": "operator EIN to set the approval"
        }
      },
      "supportsInterface(bytes4)": {
        "details": "implement supportsInterface(bytes4) using a lookup table"
      },
      "transferFrom(uint256,uint256,uint256)": {
        "details": "Transfers the ownership of a given token ID to another address Usage of this method is discouraged, use `safeTransferFrom` whenever possible Requires the msg.sender to be the owner, approved, or operator",
        "params": {
          "from": "current owner of the token",
          "to": "address to receive the ownership of the given token ID",
          "tokenId": "uint256 ID of the token to be transferred"
        }
      },
      "transferFromAddress(uint256,uint256,uint256)": {
        "details": "Transfers the ownership of a given token ID to another address Usage of this method is discouraged, use `safeTransferFrom` whenever possible Requires the msg.sender to be the owner, approved, or operator",
        "params": {
          "from": "current owner of the token",
          "to": "address to receive the ownership of the given token ID",
          "tokenId": "uint256 ID of the token to be transferred"
        }
      }
    },
    "title": "Address Snowflake ERC721; Non-Fungible Token Standard basic implementation, but with address owning"
  },
  "userdoc": {
    "methods": {}
  }
}