{
  "contractName": "AddressSet",
  "abi": [
    {
      "constant": false,
      "inputs": [
        {
          "name": "self",
          "type": "AddressSet.Set storage"
        },
        {
          "name": "other",
          "type": "address"
        }
      ],
      "name": "insert",
      "outputs": [],
      "payable": false,
      "stateMutability": "nonpayable",
      "type": "function"
    },
    {
      "constant": false,
      "inputs": [
        {
          "name": "self",
          "type": "AddressSet.Set storage"
        },
        {
          "name": "other",
          "type": "address"
        }
      ],
      "name": "remove",
      "outputs": [],
      "payable": false,
      "stateMutability": "nonpayable",
      "type": "function"
    },
    {
      "constant": true,
      "inputs": [
        {
          "name": "self",
          "type": "AddressSet.Set storage"
        },
        {
          "name": "other",
          "type": "address"
        }
      ],
      "name": "contains",
      "outputs": [
        {
          "name": "",
          "type": "bool"
        }
      ],
      "payable": false,
      "stateMutability": "view",
      "type": "function"
    },
    {
      "constant": true,
      "inputs": [
        {
          "name": "self",
          "type": "AddressSet.Set storage"
        }
      ],
      "name": "length",
      "outputs": [
        {
          "name": "",
          "type": "uint256"
        }
      ],
      "payable": false,
      "stateMutability": "view",
      "type": "function"
    }
  ],
  "bytecode": "0x6103c7610030600b82828239805160001a6073146000811461002057610022565bfe5b5030600052607381538281f3fe73000000000000000000000000000000000000000030146080604052600436106100785763ffffffff7c01000000000000000000000000000000000000000000000000000000006000350416633412d5f2811461007d5780638c9d1e41146100bd578063989779e9146100f8578063c6756c7314610131575b600080fd5b6100a96004803603604081101561009357600080fd5b5080359060200135600160a060020a0316610160565b604080519115158252519081900360200190f35b8180156100c957600080fd5b506100f6600480360360408110156100e057600080fd5b5080359060200135600160a060020a03166101f5565b005b81801561010457600080fd5b506100f66004803603604081101561011b57600080fd5b5080359060200135600160a060020a0316610338565b61014e6004803603602081101561014757600080fd5b5035610397565b60408051918252519081900360200190f35b600160a060020a0381166000908152600183016020526040812054811080156101a45750600160a060020a0382166000908152600184016020526040902054835410155b80156101ee5750600160a060020a038216600081815260018501602052604090205484548591600019019081106101d757fe5b600091825260209091200154600160a060020a0316145b9392505050565b6101ff8282610160565b156103345781600161021082610397565b0381548110151561021d57fe5b6000918252602080832090910154600160a060020a0384811684526001860190925260409092205484549190921691849160001990910190811061025d57fe5b6000918252602080832091909101805473ffffffffffffffffffffffffffffffffffffffff1916600160a060020a03948516179055918316815260018401918290526040812054845490929190859060001985019081106102ba57fe5b6000918252602080832090910154600160a060020a039081168452838201949094526040928301822094909455918416825260018501909252908120558154829080151561030457fe5b6000828152602090208101600019908101805473ffffffffffffffffffffffffffffffffffffffff191690550190555b5050565b6103428282610160565b1515610334578154600180820180855560008581526020808220909401805473ffffffffffffffffffffffffffffffffffffffff1916600160a060020a03969096169586179055938452930190526040902055565b549056fea165627a7a723058208628dcadb815091f1bb2aaddf6b124b7862f4629b21ff37fb1fe8b8381ffe9a10029",
  "source": "pragma solidity ^0.5.0;\n\n/// @title An implementation of the set data structure for addresses.\n/// @author Noah Zinsmeister\n/// @dev O(1) insertion, removal, contains, and length functions.\nlibrary AddressSet {\n    struct Set {\n        address[] members;\n        mapping(address => uint) memberIndices;\n    }\n\n    /// @dev Inserts an element into a set. If the element already exists in the set, the function is a no-op.\n    /// @param self The set to insert into.\n    /// @param other The element to insert.\n    function insert(Set storage self, address other) public {\n        if (!contains(self, other)) {\n            self.memberIndices[other] = self.members.push(other);\n        }\n    }\n\n    /// @dev Removes an element from a set. If the element does not exist in the set, the function is a no-op.\n    /// @param self The set to remove from.\n    /// @param other The element to remove.\n    function remove(Set storage self, address other) public {\n        if (contains(self, other)) {\n            // replace other with the last element\n            self.members[self.memberIndices[other] - 1] = self.members[length(self) - 1];\n            // reflect this change in the indices\n            self.memberIndices[self.members[self.memberIndices[other] - 1]] = self.memberIndices[other];\n            delete self.memberIndices[other];\n            // remove the last element\n            self.members.pop();\n        }\n    }\n\n    /// @dev Checks set membership.\n    /// @param self The set to check membership in.\n    /// @param other The element to check membership of.\n    /// @return true if the element is in the set, false otherwise.\n    function contains(Set storage self, address other) public view returns (bool) {\n        return ( // solium-disable-line operator-whitespace\n            self.memberIndices[other] > 0 && \n            self.members.length >= self.memberIndices[other] && \n            self.members[self.memberIndices[other] - 1] == other\n        );\n    }\n\n    /// @dev Returns the number of elements in a set.\n    /// @param self The set to check the length of.\n    /// @return The number of elements in the set.\n    function length(Set storage self) public view returns (uint) {\n        return self.members.length;\n    }\n}\n",
  "sourcePath": "/home/luiserebii/hydro_bounty_unofficial/contracts/_testing/AddressSet/AddressSet.sol",
  "compiler": {
    "name": "solc",
    "version": "0.5.0+commit.1d4f565a.Emscripten.clang"
  },
  "schemaVersion": "3.0.0-beta.0",
  "updatedAt": "2019-03-11T23:50:45.644Z"
}