{
  "contractName": "AddressSnowflakeERC721Burnable",
  "abi": [
    {
      "constant": true,
      "inputs": [
        {
          "name": "interfaceId",
          "type": "bytes4"
        }
      ],
      "name": "supportsInterface",
      "outputs": [
        {
          "name": "",
          "type": "bool"
        }
      ],
      "payable": false,
      "stateMutability": "view",
      "type": "function"
    },
    {
      "constant": true,
      "inputs": [
        {
          "name": "tokenId",
          "type": "uint256"
        }
      ],
      "name": "getApproved",
      "outputs": [
        {
          "name": "",
          "type": "uint256"
        }
      ],
      "payable": false,
      "stateMutability": "view",
      "type": "function"
    },
    {
      "constant": false,
      "inputs": [
        {
          "name": "from",
          "type": "uint256"
        },
        {
          "name": "to",
          "type": "uint256"
        },
        {
          "name": "tokenId",
          "type": "uint256"
        }
      ],
      "name": "safeTransferFromAddress",
      "outputs": [],
      "payable": false,
      "stateMutability": "nonpayable",
      "type": "function"
    },
    {
      "constant": false,
      "inputs": [
        {
          "name": "to",
          "type": "uint256"
        },
        {
          "name": "approved",
          "type": "bool"
        }
      ],
      "name": "setApprovalForAll",
      "outputs": [],
      "payable": false,
      "stateMutability": "nonpayable",
      "type": "function"
    },
    {
      "constant": false,
      "inputs": [
        {
          "name": "from",
          "type": "uint256"
        },
        {
          "name": "to",
          "type": "uint256"
        },
        {
          "name": "tokenId",
          "type": "uint256"
        }
      ],
      "name": "transferFrom",
      "outputs": [],
      "payable": false,
      "stateMutability": "nonpayable",
      "type": "function"
    },
    {
      "constant": false,
      "inputs": [
        {
          "name": "from",
          "type": "uint256"
        },
        {
          "name": "to",
          "type": "uint256"
        },
        {
          "name": "tokenId",
          "type": "uint256"
        },
        {
          "name": "_data",
          "type": "bytes"
        }
      ],
      "name": "safeTransferFromAddress",
      "outputs": [],
      "payable": false,
      "stateMutability": "nonpayable",
      "type": "function"
    },
    {
      "constant": false,
      "inputs": [
        {
          "name": "to",
          "type": "uint256"
        },
        {
          "name": "tokenId",
          "type": "uint256"
        }
      ],
      "name": "approve",
      "outputs": [],
      "payable": false,
      "stateMutability": "nonpayable",
      "type": "function"
    },
    {
      "constant": true,
      "inputs": [
        {
          "name": "tokenId",
          "type": "uint256"
        }
      ],
      "name": "ownerOf",
      "outputs": [
        {
          "name": "",
          "type": "uint256"
        }
      ],
      "payable": false,
      "stateMutability": "view",
      "type": "function"
    },
    {
      "constant": false,
      "inputs": [
        {
          "name": "from",
          "type": "uint256"
        },
        {
          "name": "to",
          "type": "uint256"
        },
        {
          "name": "tokenId",
          "type": "uint256"
        },
        {
          "name": "_data",
          "type": "bytes"
        }
      ],
      "name": "safeTransferFrom",
      "outputs": [],
      "payable": false,
      "stateMutability": "nonpayable",
      "type": "function"
    },
    {
      "constant": false,
      "inputs": [
        {
          "name": "from",
          "type": "uint256"
        },
        {
          "name": "to",
          "type": "uint256"
        },
        {
          "name": "tokenId",
          "type": "uint256"
        }
      ],
      "name": "transferFromAddress",
      "outputs": [],
      "payable": false,
      "stateMutability": "nonpayable",
      "type": "function"
    },
    {
      "constant": false,
      "inputs": [
        {
          "name": "to",
          "type": "address"
        },
        {
          "name": "tokenId",
          "type": "uint256"
        }
      ],
      "name": "approveAddress",
      "outputs": [],
      "payable": false,
      "stateMutability": "nonpayable",
      "type": "function"
    },
    {
      "constant": true,
      "inputs": [
        {
          "name": "owner",
          "type": "uint256"
        },
        {
          "name": "operator",
          "type": "uint256"
        }
      ],
      "name": "isApprovedForAll",
      "outputs": [
        {
          "name": "",
          "type": "bool"
        }
      ],
      "payable": false,
      "stateMutability": "view",
      "type": "function"
    },
    {
      "constant": true,
      "inputs": [
        {
          "name": "owner",
          "type": "uint256"
        }
      ],
      "name": "balanceOf",
      "outputs": [
        {
          "name": "",
          "type": "uint256"
        }
      ],
      "payable": false,
      "stateMutability": "view",
      "type": "function"
    },
    {
      "constant": true,
      "inputs": [
        {
          "name": "tokenId",
          "type": "uint256"
        }
      ],
      "name": "getApprovedAddress",
      "outputs": [
        {
          "name": "",
          "type": "address"
        }
      ],
      "payable": false,
      "stateMutability": "view",
      "type": "function"
    },
    {
      "constant": false,
      "inputs": [
        {
          "name": "from",
          "type": "uint256"
        },
        {
          "name": "to",
          "type": "uint256"
        },
        {
          "name": "tokenId",
          "type": "uint256"
        }
      ],
      "name": "safeTransferFrom",
      "outputs": [],
      "payable": false,
      "stateMutability": "nonpayable",
      "type": "function"
    },
    {
      "constant": true,
      "inputs": [],
      "name": "snowflakeAddress",
      "outputs": [
        {
          "name": "",
          "type": "address"
        }
      ],
      "payable": false,
      "stateMutability": "view",
      "type": "function"
    },
    {
      "anonymous": false,
      "inputs": [
        {
          "indexed": false,
          "name": "owner",
          "type": "uint256"
        },
        {
          "indexed": false,
          "name": "to",
          "type": "address"
        },
        {
          "indexed": false,
          "name": "tokenId",
          "type": "uint256"
        }
      ],
      "name": "ApprovalAddress",
      "type": "event"
    },
    {
      "anonymous": false,
      "inputs": [
        {
          "indexed": true,
          "name": "einFrom",
          "type": "uint256"
        },
        {
          "indexed": true,
          "name": "einTo",
          "type": "uint256"
        },
        {
          "indexed": true,
          "name": "tokenId",
          "type": "uint256"
        }
      ],
      "name": "Transfer",
      "type": "event"
    },
    {
      "anonymous": false,
      "inputs": [
        {
          "indexed": true,
          "name": "einOwner",
          "type": "uint256"
        },
        {
          "indexed": true,
          "name": "einApproved",
          "type": "uint256"
        },
        {
          "indexed": true,
          "name": "tokenId",
          "type": "uint256"
        }
      ],
      "name": "Approval",
      "type": "event"
    },
    {
      "anonymous": false,
      "inputs": [
        {
          "indexed": true,
          "name": "einOwner",
          "type": "uint256"
        },
        {
          "indexed": true,
          "name": "einOperator",
          "type": "uint256"
        },
        {
          "indexed": false,
          "name": "approved",
          "type": "bool"
        }
      ],
      "name": "ApprovalForAll",
      "type": "event"
    },
    {
      "constant": false,
      "inputs": [
        {
          "name": "tokenId",
          "type": "uint256"
        }
      ],
      "name": "burnAddress",
      "outputs": [],
      "payable": false,
      "stateMutability": "nonpayable",
      "type": "function"
    }
  ],
  "bytecode": "0x60806040526100367f01ffc9a70000000000000000000000000000000000000000000000000000000064010000000061003b810204565b6100a7565b7fffffffff00000000000000000000000000000000000000000000000000000000808216141561006a57600080fd5b7fffffffff00000000000000000000000000000000000000000000000000000000166000908152602081905260409020805460ff19166001179055565b610ee9806100b66000396000f3fe608060405234801561001057600080fd5b506004361061010f5760003560e060020a900480636352211e116100a65780638d9188d5116100755780638d9188d5146104305780639cc7f70814610453578063eca4742a14610470578063f4670462146104a9578063f9f451b8146104d25761010f565b80636352211e1461030557806368d1e641146103225780637f493d9c146103db5780638b9a0c89146104045761010f565b806316b49a43116100e257806316b49a43146101db578063310ed7f014610200578063435b153f146102295780635d35a3d9146102e25761010f565b806301ffc9a714610114578063043f5cbb14610164578063081812fc146101835780630d2e347d146101b2575b600080fd5b6101506004803603602081101561012a57600080fd5b50357bffffffffffffffffffffffffffffffffffffffffffffffffffffffff19166104da565b604080519115158252519081900360200190f35b6101816004803603602081101561017a57600080fd5b503561050e565b005b6101a06004803603602081101561019957600080fd5b503561052d565b60408051918252519081900360200190f35b610181600480360360608110156101c857600080fd5b5080359060208101359060400135610554565b610181600480360360408110156101f157600080fd5b50803590602001351515610574565b6101816004803603606081101561021657600080fd5b50803590602081013590604001356105f0565b6101816004803603608081101561023f57600080fd5b8135916020810135916040820135919081019060808101606082013564010000000081111561026d57600080fd5b82018360208201111561027f57600080fd5b803590602001918460018302840111640100000000831117156102a157600080fd5b91908080601f016020809104026020016040519081016040528093929190818152602001838380828437600092019190915250929550610616945050505050565b610181600480360360408110156102f857600080fd5b508035906020013561063c565b6101a06004803603602081101561031b57600080fd5b50356106c1565b6101816004803603608081101561033857600080fd5b8135916020810135916040820135919081019060808101606082013564010000000081111561036657600080fd5b82018360208201111561037857600080fd5b8035906020019184600183028401116401000000008311171561039a57600080fd5b91908080601f0160208091040260200160405190810160405280939291908181526020018383808284376000920191909152509295506106e0945050505050565b610181600480360360608110156103f157600080fd5b50803590602081013590604001356106eb565b6101816004803603604081101561041a57600080fd5b50600160a060020a038135169060200135610709565b6101506004803603604081101561044657600080fd5b5080359060200135610808565b6101a06004803603602081101561046957600080fd5b5035610828565b61048d6004803603602081101561048657600080fd5b503561084b565b60408051600160a060020a039092168252519081900360200190f35b610181600480360360608110156104bf57600080fd5b508035906020810135906040013561087b565b61048d610896565b7bffffffffffffffffffffffffffffffffffffffffffffffffffffffff191660009081526020819052604090205460ff1690565b61051833826108a5565b61052157600080fd5b61052a816108cb565b50565b6000610538826108dd565b61054157600080fd5b5060009081526003602052604090205490565b61056f83838360405180602001604052806000815250610616565b505050565b600061057f336108f1565b90508083141561058e57600080fd5b6000818152600560209081526040808320868452825291829020805460ff191685151590811790915582519081529151859284927fe08356808518f185b1eebe6f778106965c2df3a69af4d7139fa9451067146eb792918290030190a3505050565b6106026105fc336108f1565b82610af7565b61060b57600080fd5b61056f838383610b32565b6106218484846106eb565b61062d84848484610bc8565b61063657600080fd5b50505050565b6000610647826106c1565b90506000610654336108f1565b90508184141561066357600080fd5b8181148061067657506106768282610808565b61067f57600080fd5b600083815260036020526040808220869055518491869185917f08aaf4f7dd1adfa5bfe7067dea5b4ebd7e119d43257438a9189f37d7044eb09a91a450505050565b600081815260026020526040812054806106da57600080fd5b92915050565b6106218484846105f0565b6106f533826108a5565b6106fe57600080fd5b61056f838383610d0e565b6000610714826106c1565b90506000610721336108f1565b90508181148061073657506107368282610808565b61078b576040517f08c379a0000000000000000000000000000000000000000000000000000000008152600401808060200182810382526045815260200180610e516045913960600191505060405180910390fd5b6000838152600660209081526040918290208054600160a060020a03881673ffffffffffffffffffffffffffffffffffffffff19909116811790915582518581529182015280820185905290517fdd2d4479f7ebe0a20212b0ef6b723a3f0d98a4b3d64b8d9898777c769bb7a8819181900360600190a150505050565b600091825260056020908152604080842092845291905290205460ff1690565b60008161083457600080fd5b60008281526004602052604090206106da90610d35565b6000610856826108dd565b61085f57600080fd5b50600090815260066020526040902054600160a060020a031690565b61056f838383604051806020016040528060008152506106e0565b600154600160a060020a031681565b600082600160a060020a03166108ba8361084b565b600160a060020a0316149392505050565b61052a6108d7826106c1565b82610d39565b600090815260026020526040902054151590565b600154604080517fa759ee6f0000000000000000000000000000000000000000000000000000000081529051600092600160a060020a0316918391839163a759ee6f91600480830192602092919082900301818787803b15801561095457600080fd5b505af1158015610968573d6000803e3d6000fd5b505050506040513d602081101561097e57600080fd5b5051604080517f237f1a21000000000000000000000000000000000000000000000000000000008152600160a060020a038781166004830152915192935083929183169163237f1a2191602480820192602092909190829003018186803b1580156109e857600080fd5b505afa1580156109fc573d6000803e3d6000fd5b505050506040513d6020811015610a1257600080fd5b5051610a69576040517f08c379a0000000000000000000000000000000000000000000000000000000008152600401808060200182810382526028815260200180610e966028913960400191505060405180910390fd5b80600160a060020a03166305c62c2f866040518263ffffffff1660e060020a0281526004018082600160a060020a0316600160a060020a0316815260200191505060206040518083038186803b158015610ac257600080fd5b505afa158015610ad6573d6000803e3d6000fd5b505050506040513d6020811015610aec57600080fd5b505195945050505050565b600080610b03836106c1565b905080841480610b1a575083610b188461052d565b145b80610b2a5750610b2a8185610808565b949350505050565b82610b3c826106c1565b14610b4657600080fd5b81610b5057600080fd5b610b5981610dae565b6000838152600460205260409020610b7090610dd3565b6000828152600460205260409020610b8790610dea565b600081815260026020526040808220849055518291849186917faf6151f5085accf2d57e1e7bf7601d3b3982e0de7e9a90f032f8554de9c104f691a4505050565b60008084600160a060020a031663494114c2610be3336108f1565b8887876040518563ffffffff1660e060020a0281526004018085815260200184815260200183815260200180602001828103825283818151815260200191508051906020019080838360005b83811015610c47578181015183820152602001610c2f565b50505050905090810190601f168015610c745780820380516001836020036101000a031916815260200191505b5095505050505050602060405180830381600087803b158015610c9657600080fd5b505af1158015610caa573d6000803e3d6000fd5b505050506040513d6020811015610cc057600080fd5b50517bffffffffffffffffffffffffffffffffffffffffffffffffffffffff19167f494114c20000000000000000000000000000000000000000000000000000000014915050949350505050565b82610d18826106c1565b14610d2257600080fd5b81610d2c57600080fd5b61060b81610df3565b5490565b81610d43826106c1565b14610d4d57600080fd5b610d5681610dae565b6000828152600460205260409020610d6d90610dd3565b6000818152600260205260408082208290555182919084907faf6151f5085accf2d57e1e7bf7601d3b3982e0de7e9a90f032f8554de9c104f6908390a45050565b6000818152600360205260409020541561052a57600090815260036020526040812055565b8054610de690600163ffffffff610e3b16565b9055565b80546001019055565b600081815260066020526040902054600160a060020a03161561052a576000908152600660205260409020805473ffffffffffffffffffffffffffffffffffffffff19169055565b600082821115610e4a57600080fd5b5090039056fe53656e646572206973206e6f74206f776e65722c206f72206661696c7320746f2070617373206973417070726f766564466f72416c6c286f776e65722c2073656e6465722941646472657373206e6f6e2d6578697374656e7420696e204964656e746974795265676973747279a165627a7a723058207d36f4aa36f1a7696a1905e11fc6e824c1ed30bcfd75c8259675699694e0b9d70029",
  "source": "pragma solidity ^0.5.2;\n\nimport \"./AddressSnowflakeERC721.sol\";\n\n/**\n * @title Snowflake ERC721 Burnable Token\n * @dev Snowflake ERC721 Token that can be irreversibly burned (destroyed).\n */\ncontract AddressSnowflakeERC721Burnable is AddressSnowflakeERC721 {\n\n/*    constructor(address _snowflakeAddress) public {\n        _constructAddressSnowflakeERC721Burnable(_snowflakeAddress);\n    }\n  */\n    function _constructAddressSnowflakeERC721Burnable(address _snowflakeAddress) internal {\n        _constructAddressSnowflakeERC721(_snowflakeAddress);\n    }\n\n    /**\n     * @dev Burns a specific Snowflake ERC721 token.\n     * @param tokenId uint256 id of the Snowflake ERC721 token to be burned.\n     */\n    function burnAddress(uint256 tokenId) public {\n        require(_isApprovedAddress(msg.sender, tokenId));\n        _burn(tokenId);\n    }\n}\n",
  "sourcePath": "/home/luiserebii/hydrosnowflake_marketplace_coupons/contracts/ein/token/ERC721/address/AddressSnowflakeERC721Burnable.sol",
  "compiler": {
    "name": "solc",
    "version": "0.5.6+commit.b259423e.Emscripten.clang"
  },
  "schemaVersion": "3.0.6",
  "updatedAt": "2019-04-11T00:38:35.856Z",
  "devdoc": {
    "details": "Snowflake ERC721 Token that can be irreversibly burned (destroyed).",
    "methods": {
      "approve(uint256,uint256)": {
        "details": "Approves another EIN to transfer the given token ID The zero EIN indicates there is no approved EIN. There can only be one approved EIN per token at a given time. Can only be called by the token owner or an approved operator.",
        "params": {
          "to": "uint256 to be approved for the given token ID",
          "tokenId": "uint256 ID of the token to be approved"
        }
      },
      "approveAddress(address,uint256)": {
        "details": "Approves an address to transfer the given token ID The zero address indicates there is no approved EIN. There can only be one approved address per token at a given time. Can only be called by the token owner or an approved operator.",
        "params": {
          "to": "address to be approved for the given token ID",
          "tokenId": "uint256 ID of the token to be approved"
        }
      },
      "balanceOf(uint256)": {
        "details": "Gets the balance of the specified address",
        "params": {
          "owner": "uint256 to query the balance of"
        },
        "return": "uint256 representing the amount owned by the passed address"
      },
      "burnAddress(uint256)": {
        "details": "Burns a specific Snowflake ERC721 token.",
        "params": {
          "tokenId": "uint256 id of the Snowflake ERC721 token to be burned."
        }
      },
      "getApproved(uint256)": {
        "details": "Gets the approved EIN for a token ID, or zero if no EIN set Reverts if the token ID does not exist.",
        "params": {
          "tokenId": "uint256 ID of the token to query the approval of"
        },
        "return": "EIN currently approved for the given token ID"
      },
      "getApprovedAddress(uint256)": {
        "details": "Gets the approved address for a token ID, or zero if no EIN set Reverts if the token ID does not exist.",
        "params": {
          "tokenId": "uint256 ID of the token to query the approval of"
        },
        "return": "address currently approved for the given token ID"
      },
      "isApprovedForAll(uint256,uint256)": {
        "details": "Tells whether an operator is approved by a given owner",
        "params": {
          "operator": "operator EIN which you want to query the approval of",
          "owner": "owner EIN which you want to query the approval of"
        },
        "return": "bool whether the given operator is approved by the given owner"
      },
      "ownerOf(uint256)": {
        "details": "Gets the owner of the specified token ID",
        "params": {
          "tokenId": "uint256 ID of the token to query the owner of"
        },
        "return": "uint256 currently marked as the owner of the given token ID"
      },
      "safeTransferFrom(uint256,uint256,uint256)": {
        "details": "Safely transfers the ownership of a given token ID to another EIN If the target EIN is a contract, it must implement `onERC721Received`, which is called upon a safe transfer, and return the magic value `bytes4(keccak256(\"onERC721Received(address,address,uint256,bytes)\"))`; otherwise, the transfer is reverted. Requires the msg.sender to be the owner, approved, or operator",
        "params": {
          "from": "uint256 current owner of the token",
          "to": "uint256 to receive the ownership of the given token ID",
          "tokenId": "uint256 ID of the token to be transferred"
        }
      },
      "safeTransferFrom(uint256,uint256,uint256,bytes)": {
        "details": "Safely transfers the ownership of a given token ID to another EIN If the target EIN is a contract, it must implement `onERC721Received`, which is called upon a safe transfer, and return the magic value `bytes4(keccak256(\"onERC721Received(address,address,uint256,bytes)\"))`; otherwise, the transfer is reverted. Requires the msg.sender to be the owner, approved, or operator",
        "params": {
          "_data": "bytes data to send along with a safe transfer check",
          "from": "current owner of the token",
          "to": "uint256 to receive the ownership of the given token ID",
          "tokenId": "uint256 ID of the token to be transferred"
        }
      },
      "safeTransferFromAddress(uint256,uint256,uint256)": {
        "details": "Safely transfers the ownership of a given token ID to another EIN If the target EIN is a contract, it must implement `onERC721Received`, which is called upon a safe transfer, and return the magic value `bytes4(keccak256(\"onERC721Received(address,address,uint256,bytes)\"))`; otherwise, the transfer is reverted. Requires the msg.sender to be the owner, approved, or operator",
        "params": {
          "from": "uint256 current owner of the token",
          "to": "uint256 to receive the ownership of the given token ID",
          "tokenId": "uint256 ID of the token to be transferred"
        }
      },
      "safeTransferFromAddress(uint256,uint256,uint256,bytes)": {
        "details": "Safely transfers the ownership of a given token ID to another EIN If the target address is a contract, it must implement `onERC721Received`, which is called upon a safe transfer, and return the magic value `bytes4(keccak256(\"onERC721Received(address,address,uint256,bytes)\"))`; otherwise, the transfer is reverted. Requires the msg.sender to be the owner, approved, or operator",
        "params": {
          "_data": "bytes data to send along with a safe transfer check",
          "from": "current owner of the token",
          "to": "uint256 to receive the ownership of the given token ID",
          "tokenId": "uint256 ID of the token to be transferred"
        }
      },
      "setApprovalForAll(uint256,bool)": {
        "details": "Sets or unsets the approval of a given operator An operator is allowed to transfer all tokens of the sender on their behalf",
        "params": {
          "approved": "representing the status of the approval to be set",
          "to": "operator EIN to set the approval"
        }
      },
      "supportsInterface(bytes4)": {
        "details": "implement supportsInterface(bytes4) using a lookup table"
      },
      "transferFrom(uint256,uint256,uint256)": {
        "details": "Transfers the ownership of a given token ID to another address Usage of this method is discouraged, use `safeTransferFrom` whenever possible Requires the msg.sender to be the owner, approved, or operator",
        "params": {
          "from": "current owner of the token",
          "to": "address to receive the ownership of the given token ID",
          "tokenId": "uint256 ID of the token to be transferred"
        }
      },
      "transferFromAddress(uint256,uint256,uint256)": {
        "details": "Transfers the ownership of a given token ID to another address Usage of this method is discouraged, use `safeTransferFrom` whenever possible Requires the msg.sender to be the owner, approved, or operator",
        "params": {
          "from": "current owner of the token",
          "to": "address to receive the ownership of the given token ID",
          "tokenId": "uint256 ID of the token to be transferred"
        }
      }
    },
    "title": "Snowflake ERC721 Burnable Token"
  },
  "userdoc": {
    "methods": {}
  }
}