{
  "contractName": "AddressSnowflakeERC721Mintable",
  "abi": [
    {
      "constant": true,
      "inputs": [
        {
          "name": "interfaceId",
          "type": "bytes4"
        }
      ],
      "name": "supportsInterface",
      "outputs": [
        {
          "name": "",
          "type": "bool"
        }
      ],
      "payable": false,
      "stateMutability": "view",
      "type": "function"
    },
    {
      "constant": true,
      "inputs": [
        {
          "name": "tokenId",
          "type": "uint256"
        }
      ],
      "name": "getApproved",
      "outputs": [
        {
          "name": "",
          "type": "uint256"
        }
      ],
      "payable": false,
      "stateMutability": "view",
      "type": "function"
    },
    {
      "constant": false,
      "inputs": [
        {
          "name": "from",
          "type": "uint256"
        },
        {
          "name": "to",
          "type": "uint256"
        },
        {
          "name": "tokenId",
          "type": "uint256"
        }
      ],
      "name": "safeTransferFromAddress",
      "outputs": [],
      "payable": false,
      "stateMutability": "nonpayable",
      "type": "function"
    },
    {
      "constant": false,
      "inputs": [
        {
          "name": "to",
          "type": "uint256"
        },
        {
          "name": "approved",
          "type": "bool"
        }
      ],
      "name": "setApprovalForAll",
      "outputs": [],
      "payable": false,
      "stateMutability": "nonpayable",
      "type": "function"
    },
    {
      "constant": false,
      "inputs": [
        {
          "name": "from",
          "type": "uint256"
        },
        {
          "name": "to",
          "type": "uint256"
        },
        {
          "name": "tokenId",
          "type": "uint256"
        }
      ],
      "name": "transferFrom",
      "outputs": [],
      "payable": false,
      "stateMutability": "nonpayable",
      "type": "function"
    },
    {
      "constant": false,
      "inputs": [
        {
          "name": "from",
          "type": "uint256"
        },
        {
          "name": "to",
          "type": "uint256"
        },
        {
          "name": "tokenId",
          "type": "uint256"
        },
        {
          "name": "_data",
          "type": "bytes"
        }
      ],
      "name": "safeTransferFromAddress",
      "outputs": [],
      "payable": false,
      "stateMutability": "nonpayable",
      "type": "function"
    },
    {
      "constant": false,
      "inputs": [
        {
          "name": "to",
          "type": "uint256"
        },
        {
          "name": "tokenId",
          "type": "uint256"
        }
      ],
      "name": "approve",
      "outputs": [],
      "payable": false,
      "stateMutability": "nonpayable",
      "type": "function"
    },
    {
      "constant": true,
      "inputs": [
        {
          "name": "tokenId",
          "type": "uint256"
        }
      ],
      "name": "ownerOf",
      "outputs": [
        {
          "name": "",
          "type": "uint256"
        }
      ],
      "payable": false,
      "stateMutability": "view",
      "type": "function"
    },
    {
      "constant": false,
      "inputs": [
        {
          "name": "from",
          "type": "uint256"
        },
        {
          "name": "to",
          "type": "uint256"
        },
        {
          "name": "tokenId",
          "type": "uint256"
        },
        {
          "name": "_data",
          "type": "bytes"
        }
      ],
      "name": "safeTransferFrom",
      "outputs": [],
      "payable": false,
      "stateMutability": "nonpayable",
      "type": "function"
    },
    {
      "constant": false,
      "inputs": [
        {
          "name": "from",
          "type": "uint256"
        },
        {
          "name": "to",
          "type": "uint256"
        },
        {
          "name": "tokenId",
          "type": "uint256"
        }
      ],
      "name": "transferFromAddress",
      "outputs": [],
      "payable": false,
      "stateMutability": "nonpayable",
      "type": "function"
    },
    {
      "constant": false,
      "inputs": [
        {
          "name": "to",
          "type": "address"
        },
        {
          "name": "tokenId",
          "type": "uint256"
        }
      ],
      "name": "approveAddress",
      "outputs": [],
      "payable": false,
      "stateMutability": "nonpayable",
      "type": "function"
    },
    {
      "constant": true,
      "inputs": [
        {
          "name": "owner",
          "type": "uint256"
        },
        {
          "name": "operator",
          "type": "uint256"
        }
      ],
      "name": "isApprovedForAll",
      "outputs": [
        {
          "name": "",
          "type": "bool"
        }
      ],
      "payable": false,
      "stateMutability": "view",
      "type": "function"
    },
    {
      "constant": false,
      "inputs": [
        {
          "name": "account",
          "type": "address"
        }
      ],
      "name": "addMinter",
      "outputs": [],
      "payable": false,
      "stateMutability": "nonpayable",
      "type": "function"
    },
    {
      "constant": false,
      "inputs": [],
      "name": "renounceMinter",
      "outputs": [],
      "payable": false,
      "stateMutability": "nonpayable",
      "type": "function"
    },
    {
      "constant": true,
      "inputs": [
        {
          "name": "owner",
          "type": "uint256"
        }
      ],
      "name": "balanceOf",
      "outputs": [
        {
          "name": "",
          "type": "uint256"
        }
      ],
      "payable": false,
      "stateMutability": "view",
      "type": "function"
    },
    {
      "constant": true,
      "inputs": [
        {
          "name": "account",
          "type": "address"
        }
      ],
      "name": "isMinter",
      "outputs": [
        {
          "name": "",
          "type": "bool"
        }
      ],
      "payable": false,
      "stateMutability": "view",
      "type": "function"
    },
    {
      "constant": true,
      "inputs": [
        {
          "name": "tokenId",
          "type": "uint256"
        }
      ],
      "name": "getApprovedAddress",
      "outputs": [
        {
          "name": "",
          "type": "address"
        }
      ],
      "payable": false,
      "stateMutability": "view",
      "type": "function"
    },
    {
      "constant": false,
      "inputs": [
        {
          "name": "from",
          "type": "uint256"
        },
        {
          "name": "to",
          "type": "uint256"
        },
        {
          "name": "tokenId",
          "type": "uint256"
        }
      ],
      "name": "safeTransferFrom",
      "outputs": [],
      "payable": false,
      "stateMutability": "nonpayable",
      "type": "function"
    },
    {
      "constant": true,
      "inputs": [],
      "name": "snowflakeAddress",
      "outputs": [
        {
          "name": "",
          "type": "address"
        }
      ],
      "payable": false,
      "stateMutability": "view",
      "type": "function"
    },
    {
      "anonymous": false,
      "inputs": [
        {
          "indexed": true,
          "name": "account",
          "type": "address"
        }
      ],
      "name": "MinterAdded",
      "type": "event"
    },
    {
      "anonymous": false,
      "inputs": [
        {
          "indexed": true,
          "name": "account",
          "type": "address"
        }
      ],
      "name": "MinterRemoved",
      "type": "event"
    },
    {
      "anonymous": false,
      "inputs": [
        {
          "indexed": false,
          "name": "owner",
          "type": "uint256"
        },
        {
          "indexed": false,
          "name": "to",
          "type": "address"
        },
        {
          "indexed": false,
          "name": "tokenId",
          "type": "uint256"
        }
      ],
      "name": "ApprovalAddress",
      "type": "event"
    },
    {
      "anonymous": false,
      "inputs": [
        {
          "indexed": true,
          "name": "einFrom",
          "type": "uint256"
        },
        {
          "indexed": true,
          "name": "einTo",
          "type": "uint256"
        },
        {
          "indexed": true,
          "name": "tokenId",
          "type": "uint256"
        }
      ],
      "name": "Transfer",
      "type": "event"
    },
    {
      "anonymous": false,
      "inputs": [
        {
          "indexed": true,
          "name": "einOwner",
          "type": "uint256"
        },
        {
          "indexed": true,
          "name": "einApproved",
          "type": "uint256"
        },
        {
          "indexed": true,
          "name": "tokenId",
          "type": "uint256"
        }
      ],
      "name": "Approval",
      "type": "event"
    },
    {
      "anonymous": false,
      "inputs": [
        {
          "indexed": true,
          "name": "einOwner",
          "type": "uint256"
        },
        {
          "indexed": true,
          "name": "einOperator",
          "type": "uint256"
        },
        {
          "indexed": false,
          "name": "approved",
          "type": "bool"
        }
      ],
      "name": "ApprovalForAll",
      "type": "event"
    },
    {
      "constant": false,
      "inputs": [
        {
          "name": "to",
          "type": "uint256"
        },
        {
          "name": "tokenId",
          "type": "uint256"
        }
      ],
      "name": "mintAddress",
      "outputs": [
        {
          "name": "",
          "type": "bool"
        }
      ],
      "payable": false,
      "stateMutability": "nonpayable",
      "type": "function"
    }
  ],
  "bytecode": "0x60806040526100367f01ffc9a70000000000000000000000000000000000000000000000000000000064010000000061004d810204565b610048336401000000006100b9810204565b610192565b7fffffffff00000000000000000000000000000000000000000000000000000000808216141561007c57600080fd5b7fffffffff00000000000000000000000000000000000000000000000000000000166000908152602081905260409020805460ff19166001179055565b6100d1600782640100000000610fb061010882021704565b604051600160a060020a038216907f6ae172837ea30b801fbfcdd4108aa1d5bf8ff775444fd70256b44e6bf3dfc3f690600090a250565b600160a060020a03811661011b57600080fd5b61012e828264010000000061015d810204565b1561013857600080fd5b600160a060020a0316600090815260209190915260409020805460ff19166001179055565b6000600160a060020a03821661017257600080fd5b50600160a060020a03166000908152602091909152604090205460ff1690565b6110f280620001a26000396000f3fe608060405234801561001057600080fd5b50600436106101305760003560e060020a900480638b9a0c89116100b1578063aa271e1a11610075578063aa271e1a146104a2578063b3caa247146104c8578063eca4742a146104eb578063f467046214610524578063f9f451b81461054d57610130565b80638b9a0c89146104085780638d9188d514610434578063983b2d5614610457578063986502751461047d5780639cc7f7081461048557610130565b8063435b153f116100f8578063435b153f1461022d5780635d35a3d9146102e65780636352211e1461030957806368d1e641146103265780637f493d9c146103df57610130565b806301ffc9a714610135578063081812fc146101855780630d2e347d146101b457806316b49a43146101df578063310ed7f014610204575b600080fd5b6101716004803603602081101561014b57600080fd5b50357bffffffffffffffffffffffffffffffffffffffffffffffffffffffff1916610555565b604080519115158252519081900360200190f35b6101a26004803603602081101561019b57600080fd5b5035610589565b60408051918252519081900360200190f35b6101dd600480360360608110156101ca57600080fd5b50803590602081013590604001356105b0565b005b6101dd600480360360408110156101f557600080fd5b508035906020013515156105d0565b6101dd6004803603606081101561021a57600080fd5b508035906020810135906040013561064c565b6101dd6004803603608081101561024357600080fd5b8135916020810135916040820135919081019060808101606082013564010000000081111561027157600080fd5b82018360208201111561028357600080fd5b803590602001918460018302840111640100000000831117156102a557600080fd5b91908080601f016020809104026020016040519081016040528093929190818152602001838380828437600092019190915250929550610672945050505050565b6101dd600480360360408110156102fc57600080fd5b5080359060200135610698565b6101a26004803603602081101561031f57600080fd5b503561071d565b6101dd6004803603608081101561033c57600080fd5b8135916020810135916040820135919081019060808101606082013564010000000081111561036a57600080fd5b82018360208201111561037c57600080fd5b8035906020019184600183028401116401000000008311171561039e57600080fd5b91908080601f01602080910402602001604051908101604052809392919081815260200183838082843760009201919091525092955061073c945050505050565b6101dd600480360360608110156103f557600080fd5b5080359060208101359060400135610747565b6101dd6004803603604081101561041e57600080fd5b50600160a060020a038135169060200135610765565b6101716004803603604081101561044a57600080fd5b5080359060200135610864565b6101dd6004803603602081101561046d57600080fd5b5035600160a060020a0316610884565b6101dd6108a2565b6101a26004803603602081101561049b57600080fd5b50356108ad565b610171600480360360208110156104b857600080fd5b5035600160a060020a03166108d0565b610171600480360360408110156104de57600080fd5b50803590602001356108e3565b6105086004803603602081101561050157600080fd5b503561090a565b60408051600160a060020a039092168252519081900360200190f35b6101dd6004803603606081101561053a57600080fd5b508035906020810135906040013561093a565b610508610955565b7bffffffffffffffffffffffffffffffffffffffffffffffffffffffff191660009081526020819052604090205460ff1690565b600061059482610964565b61059d57600080fd5b5060009081526003602052604090205490565b6105cb83838360405180602001604052806000815250610672565b505050565b60006105db33610978565b9050808314156105ea57600080fd5b6000818152600560209081526040808320868452825291829020805460ff191685151590811790915582519081529151859284927fe08356808518f185b1eebe6f778106965c2df3a69af4d7139fa9451067146eb792918290030190a3505050565b61065e61065833610978565b82610b7e565b61066757600080fd5b6105cb838383610bb9565b61067d848484610747565b61068984848484610c4f565b61069257600080fd5b50505050565b60006106a38261071d565b905060006106b033610978565b9050818414156106bf57600080fd5b818114806106d257506106d28282610864565b6106db57600080fd5b600083815260036020526040808220869055518491869185917f08aaf4f7dd1adfa5bfe7067dea5b4ebd7e119d43257438a9189f37d7044eb09a91a450505050565b6000818152600260205260408120548061073657600080fd5b92915050565b61067d84848461064c565b6107513382610d95565b61075a57600080fd5b6105cb838383610dbb565b60006107708261071d565b9050600061077d33610978565b90508181148061079257506107928282610864565b6107e7576040517f08c379a000000000000000000000000000000000000000000000000000000000815260040180806020018281038252604581526020018061105a6045913960600191505060405180910390fd5b6000838152600660209081526040918290208054600160a060020a03881673ffffffffffffffffffffffffffffffffffffffff19909116811790915582518581529182015280820185905290517fdd2d4479f7ebe0a20212b0ef6b723a3f0d98a4b3d64b8d9898777c769bb7a8819181900360600190a150505050565b600091825260056020908152604080842092845291905290205460ff1690565b61088d336108d0565b61089657600080fd5b61089f81610de2565b50565b6108ab33610e2a565b565b6000816108b957600080fd5b600082815260046020526040902061073690610e72565b600061073660078363ffffffff610e7616565b60006108ee336108d0565b6108f757600080fd5b6109018383610eab565b50600192915050565b600061091582610964565b61091e57600080fd5b50600090815260066020526040902054600160a060020a031690565b6105cb8383836040518060200160405280600081525061073c565b600154600160a060020a031681565b600090815260026020526040902054151590565b600154604080517fa759ee6f0000000000000000000000000000000000000000000000000000000081529051600092600160a060020a0316918391839163a759ee6f91600480830192602092919082900301818787803b1580156109db57600080fd5b505af11580156109ef573d6000803e3d6000fd5b505050506040513d6020811015610a0557600080fd5b5051604080517f237f1a21000000000000000000000000000000000000000000000000000000008152600160a060020a038781166004830152915192935083929183169163237f1a2191602480820192602092909190829003018186803b158015610a6f57600080fd5b505afa158015610a83573d6000803e3d6000fd5b505050506040513d6020811015610a9957600080fd5b5051610af0576040517f08c379a000000000000000000000000000000000000000000000000000000000815260040180806020018281038252602881526020018061109f6028913960400191505060405180910390fd5b80600160a060020a03166305c62c2f866040518263ffffffff1660e060020a0281526004018082600160a060020a0316600160a060020a0316815260200191505060206040518083038186803b158015610b4957600080fd5b505afa158015610b5d573d6000803e3d6000fd5b505050506040513d6020811015610b7357600080fd5b505195945050505050565b600080610b8a8361071d565b905080841480610ba1575083610b9f84610589565b145b80610bb15750610bb18185610864565b949350505050565b82610bc38261071d565b14610bcd57600080fd5b81610bd757600080fd5b610be081610f23565b6000838152600460205260409020610bf790610f48565b6000828152600460205260409020610c0e90610f5f565b600081815260026020526040808220849055518291849186917faf6151f5085accf2d57e1e7bf7601d3b3982e0de7e9a90f032f8554de9c104f691a4505050565b60008084600160a060020a031663494114c2610c6a33610978565b8887876040518563ffffffff1660e060020a0281526004018085815260200184815260200183815260200180602001828103825283818151815260200191508051906020019080838360005b83811015610cce578181015183820152602001610cb6565b50505050905090810190601f168015610cfb5780820380516001836020036101000a031916815260200191505b5095505050505050602060405180830381600087803b158015610d1d57600080fd5b505af1158015610d31573d6000803e3d6000fd5b505050506040513d6020811015610d4757600080fd5b50517bffffffffffffffffffffffffffffffffffffffffffffffffffffffff19167f494114c20000000000000000000000000000000000000000000000000000000014915050949350505050565b600082600160a060020a0316610daa8361090a565b600160a060020a0316149392505050565b82610dc58261071d565b14610dcf57600080fd5b81610dd957600080fd5b61066781610f68565b610df360078263ffffffff610fb016565b604051600160a060020a038216907f6ae172837ea30b801fbfcdd4108aa1d5bf8ff775444fd70256b44e6bf3dfc3f690600090a250565b610e3b60078263ffffffff610ffc16565b604051600160a060020a038216907fe94479a9f7e1952cc78f2d6baab678adc1b772d936c6583def489e524cb6669290600090a250565b5490565b6000600160a060020a038216610e8b57600080fd5b50600160a060020a03166000908152602091909152604090205460ff1690565b81610eb557600080fd5b610ebe81610964565b15610ec857600080fd5b600081815260026020908152604080832085905584835260049091529020610eef90610f5f565b808260007faf6151f5085accf2d57e1e7bf7601d3b3982e0de7e9a90f032f8554de9c104f660405160405180910390a45050565b6000818152600360205260409020541561089f57600090815260036020526040812055565b8054610f5b90600163ffffffff61104416565b9055565b80546001019055565b600081815260066020526040902054600160a060020a03161561089f576000908152600660205260409020805473ffffffffffffffffffffffffffffffffffffffff19169055565b600160a060020a038116610fc357600080fd5b610fcd8282610e76565b15610fd757600080fd5b600160a060020a0316600090815260209190915260409020805460ff19166001179055565b600160a060020a03811661100f57600080fd5b6110198282610e76565b61102257600080fd5b600160a060020a0316600090815260209190915260409020805460ff19169055565b60008282111561105357600080fd5b5090039056fe53656e646572206973206e6f74206f776e65722c206f72206661696c7320746f2070617373206973417070726f766564466f72416c6c286f776e65722c2073656e6465722941646472657373206e6f6e2d6578697374656e7420696e204964656e746974795265676973747279a165627a7a72305820397d7a6256ec13a6b935ac3ad37a12f2a87f3e77ed681607efd1a09cbbbde30d0029",
  "source": "pragma solidity ^0.5.2;\n\nimport \"./AddressSnowflakeERC721.sol\";\nimport \"../../../../zeppelin/access/roles/MinterRole.sol\";\n\n/**\n * @title SnowflakeERC721Mintable\n * @dev Snowflake ERC721 minting logic\n */\ncontract AddressSnowflakeERC721Mintable is AddressSnowflakeERC721, MinterRole {\n\n/*    constructor (address _snowflakeAddress) public {\n        _constructAddressSnowflakeERC721Mintable(_snowflakeAddress);\n    }\n*/\n    function _constructAddressSnowflakeERC721Mintable(address _snowflakeAddress) internal {\n        _constructAddressSnowflakeERC721(_snowflakeAddress);\n    }\n\n    /**\n     * @dev Function to mint tokens\n     * @param to The EIN that will receive the minted tokens.\n     * @param tokenId The token id to mint.\n     * @return A boolean that indicates if the operation was successful.\n     */\n    function mintAddress(uint256 to, uint256 tokenId) public onlyMinter returns (bool) {\n        _mint(to, tokenId);\n        return true;\n    }\n}\n",
  "sourcePath": "/home/luiserebii/hydrosnowflake_marketplace_coupons/contracts/ein/token/ERC721/address/AddressSnowflakeERC721Mintable.sol",
  "compiler": {
    "name": "solc",
    "version": "0.5.6+commit.b259423e.Emscripten.clang"
  },
  "schemaVersion": "3.0.6",
  "updatedAt": "2019-04-11T00:38:35.857Z",
  "devdoc": {
    "details": "Snowflake ERC721 minting logic",
    "methods": {
      "approve(uint256,uint256)": {
        "details": "Approves another EIN to transfer the given token ID The zero EIN indicates there is no approved EIN. There can only be one approved EIN per token at a given time. Can only be called by the token owner or an approved operator.",
        "params": {
          "to": "uint256 to be approved for the given token ID",
          "tokenId": "uint256 ID of the token to be approved"
        }
      },
      "approveAddress(address,uint256)": {
        "details": "Approves an address to transfer the given token ID The zero address indicates there is no approved EIN. There can only be one approved address per token at a given time. Can only be called by the token owner or an approved operator.",
        "params": {
          "to": "address to be approved for the given token ID",
          "tokenId": "uint256 ID of the token to be approved"
        }
      },
      "balanceOf(uint256)": {
        "details": "Gets the balance of the specified address",
        "params": {
          "owner": "uint256 to query the balance of"
        },
        "return": "uint256 representing the amount owned by the passed address"
      },
      "getApproved(uint256)": {
        "details": "Gets the approved EIN for a token ID, or zero if no EIN set Reverts if the token ID does not exist.",
        "params": {
          "tokenId": "uint256 ID of the token to query the approval of"
        },
        "return": "EIN currently approved for the given token ID"
      },
      "getApprovedAddress(uint256)": {
        "details": "Gets the approved address for a token ID, or zero if no EIN set Reverts if the token ID does not exist.",
        "params": {
          "tokenId": "uint256 ID of the token to query the approval of"
        },
        "return": "address currently approved for the given token ID"
      },
      "isApprovedForAll(uint256,uint256)": {
        "details": "Tells whether an operator is approved by a given owner",
        "params": {
          "operator": "operator EIN which you want to query the approval of",
          "owner": "owner EIN which you want to query the approval of"
        },
        "return": "bool whether the given operator is approved by the given owner"
      },
      "mintAddress(uint256,uint256)": {
        "details": "Function to mint tokens",
        "params": {
          "to": "The EIN that will receive the minted tokens.",
          "tokenId": "The token id to mint."
        },
        "return": "A boolean that indicates if the operation was successful."
      },
      "ownerOf(uint256)": {
        "details": "Gets the owner of the specified token ID",
        "params": {
          "tokenId": "uint256 ID of the token to query the owner of"
        },
        "return": "uint256 currently marked as the owner of the given token ID"
      },
      "safeTransferFrom(uint256,uint256,uint256)": {
        "details": "Safely transfers the ownership of a given token ID to another EIN If the target EIN is a contract, it must implement `onERC721Received`, which is called upon a safe transfer, and return the magic value `bytes4(keccak256(\"onERC721Received(address,address,uint256,bytes)\"))`; otherwise, the transfer is reverted. Requires the msg.sender to be the owner, approved, or operator",
        "params": {
          "from": "uint256 current owner of the token",
          "to": "uint256 to receive the ownership of the given token ID",
          "tokenId": "uint256 ID of the token to be transferred"
        }
      },
      "safeTransferFrom(uint256,uint256,uint256,bytes)": {
        "details": "Safely transfers the ownership of a given token ID to another EIN If the target EIN is a contract, it must implement `onERC721Received`, which is called upon a safe transfer, and return the magic value `bytes4(keccak256(\"onERC721Received(address,address,uint256,bytes)\"))`; otherwise, the transfer is reverted. Requires the msg.sender to be the owner, approved, or operator",
        "params": {
          "_data": "bytes data to send along with a safe transfer check",
          "from": "current owner of the token",
          "to": "uint256 to receive the ownership of the given token ID",
          "tokenId": "uint256 ID of the token to be transferred"
        }
      },
      "safeTransferFromAddress(uint256,uint256,uint256)": {
        "details": "Safely transfers the ownership of a given token ID to another EIN If the target EIN is a contract, it must implement `onERC721Received`, which is called upon a safe transfer, and return the magic value `bytes4(keccak256(\"onERC721Received(address,address,uint256,bytes)\"))`; otherwise, the transfer is reverted. Requires the msg.sender to be the owner, approved, or operator",
        "params": {
          "from": "uint256 current owner of the token",
          "to": "uint256 to receive the ownership of the given token ID",
          "tokenId": "uint256 ID of the token to be transferred"
        }
      },
      "safeTransferFromAddress(uint256,uint256,uint256,bytes)": {
        "details": "Safely transfers the ownership of a given token ID to another EIN If the target address is a contract, it must implement `onERC721Received`, which is called upon a safe transfer, and return the magic value `bytes4(keccak256(\"onERC721Received(address,address,uint256,bytes)\"))`; otherwise, the transfer is reverted. Requires the msg.sender to be the owner, approved, or operator",
        "params": {
          "_data": "bytes data to send along with a safe transfer check",
          "from": "current owner of the token",
          "to": "uint256 to receive the ownership of the given token ID",
          "tokenId": "uint256 ID of the token to be transferred"
        }
      },
      "setApprovalForAll(uint256,bool)": {
        "details": "Sets or unsets the approval of a given operator An operator is allowed to transfer all tokens of the sender on their behalf",
        "params": {
          "approved": "representing the status of the approval to be set",
          "to": "operator EIN to set the approval"
        }
      },
      "supportsInterface(bytes4)": {
        "details": "implement supportsInterface(bytes4) using a lookup table"
      },
      "transferFrom(uint256,uint256,uint256)": {
        "details": "Transfers the ownership of a given token ID to another address Usage of this method is discouraged, use `safeTransferFrom` whenever possible Requires the msg.sender to be the owner, approved, or operator",
        "params": {
          "from": "current owner of the token",
          "to": "address to receive the ownership of the given token ID",
          "tokenId": "uint256 ID of the token to be transferred"
        }
      },
      "transferFromAddress(uint256,uint256,uint256)": {
        "details": "Transfers the ownership of a given token ID to another address Usage of this method is discouraged, use `safeTransferFrom` whenever possible Requires the msg.sender to be the owner, approved, or operator",
        "params": {
          "from": "current owner of the token",
          "to": "address to receive the ownership of the given token ID",
          "tokenId": "uint256 ID of the token to be transferred"
        }
      }
    },
    "title": "SnowflakeERC721Mintable"
  },
  "userdoc": {
    "methods": {}
  }
}