{
  "contractName": "Calculator",
  "abi": [
    {
      "anonymous": false,
      "inputs": [
        {
          "indexed": false,
          "name": "_a",
          "type": "uint256"
        },
        {
          "indexed": false,
          "name": "_b",
          "type": "uint256"
        },
        {
          "indexed": false,
          "name": "_sum",
          "type": "uint256"
        }
      ],
      "name": "Addition",
      "type": "event"
    },
    {
      "anonymous": false,
      "inputs": [
        {
          "indexed": false,
          "name": "_a",
          "type": "uint256"
        },
        {
          "indexed": false,
          "name": "_b",
          "type": "uint256"
        },
        {
          "indexed": false,
          "name": "_difference",
          "type": "uint256"
        }
      ],
      "name": "Subtraction",
      "type": "event"
    },
    {
      "anonymous": false,
      "inputs": [
        {
          "indexed": false,
          "name": "_a",
          "type": "uint256"
        },
        {
          "indexed": false,
          "name": "_b",
          "type": "uint256"
        },
        {
          "indexed": false,
          "name": "_product",
          "type": "uint256"
        }
      ],
      "name": "Multiplication",
      "type": "event"
    },
    {
      "anonymous": false,
      "inputs": [
        {
          "indexed": false,
          "name": "_a",
          "type": "uint256"
        },
        {
          "indexed": false,
          "name": "_b",
          "type": "uint256"
        },
        {
          "indexed": false,
          "name": "_quotient",
          "type": "uint256"
        }
      ],
      "name": "Division",
      "type": "event"
    },
    {
      "constant": false,
      "inputs": [
        {
          "name": "a",
          "type": "uint256"
        },
        {
          "name": "b",
          "type": "uint256"
        }
      ],
      "name": "add",
      "outputs": [],
      "payable": false,
      "stateMutability": "nonpayable",
      "type": "function"
    },
    {
      "constant": false,
      "inputs": [
        {
          "name": "a",
          "type": "uint256"
        },
        {
          "name": "b",
          "type": "uint256"
        }
      ],
      "name": "sub",
      "outputs": [],
      "payable": false,
      "stateMutability": "nonpayable",
      "type": "function"
    },
    {
      "constant": false,
      "inputs": [
        {
          "name": "a",
          "type": "uint256"
        },
        {
          "name": "b",
          "type": "uint256"
        }
      ],
      "name": "mul",
      "outputs": [],
      "payable": false,
      "stateMutability": "nonpayable",
      "type": "function"
    },
    {
      "constant": false,
      "inputs": [
        {
          "name": "a",
          "type": "uint256"
        },
        {
          "name": "b",
          "type": "uint256"
        }
      ],
      "name": "div",
      "outputs": [],
      "payable": false,
      "stateMutability": "nonpayable",
      "type": "function"
    }
  ],
  "bytecode": "0x608060405234801561001057600080fd5b50610256806100206000396000f3fe608060405234801561001057600080fd5b5060043610610068577c01000000000000000000000000000000000000000000000000000000006000350463771602f7811461006d578063a391c15b14610092578063b67d77c5146100b5578063c8a4ac9c146100d8575b600080fd5b6100906004803603604081101561008357600080fd5b50803590602001356100fb565b005b610090600480360360408110156100a857600080fd5b5080359060200135610143565b610090600480360360408110156100cb57600080fd5b508035906020013561019a565b610090600480360360408110156100ee57600080fd5b50803590602001356101e2565b604080518381526020810183905283830181830181905291517f099a8fd2a0841afbe8000d711d763bf2c54b2c63bed7b7f92a244ef4f51545369181900360600190a1505050565b600081838161014e57fe5b60408051868152602081018690529290910482820181905290519092507fd8ef84f712e41d28f98fe74cd153013023d849514d0a40ee61834f3c385055ce9181900360600190a1505050565b604080518381526020810183905282840381830181905291517fcc1e4c4352d62a39790806ed8a1280fcd6798f7aeda79d070b0ddcea074ac1689181900360600190a1505050565b604080518381526020810183905283830281830181905291517f335998e93ba3244a0211e8567928b9e75100151dc4bb0c7701d715ea462b279a9181900360600190a150505056fea165627a7a72305820550d574fd3780e8f7fd7bbc447f27d3c8f853b84350b1ab622a7362e69ac289d0029",
  "source": "pragma solidity ^0.5.2;\n\ncontract Calculator {\n\n    \n    function add(uint256 a, uint256 b) public {\n        uint256 c = a + b;\n        emit Addition(a, b, c);\n    }\n\n    function sub(uint256 a, uint256 b) public {\n        uint256 c = a - b;\n        emit Subtraction(a, b, c);\n    }\n\n    function mul(uint256 a, uint256 b) public {\n        uint256 c = a * b;\n        emit Multiplication(a, b, c);\n    }\n\n    function div(uint256 a, uint256 b) public {\n        uint256 c = a / b;\n        emit Division(a, b, c);\n    }\n    \n\n    event Addition(uint256 _a, uint256 _b, uint256 _sum);\n    event Subtraction(uint256 _a, uint256 _b, uint256 _difference);\n    event Multiplication(uint256 _a, uint256 _b, uint256 _product);\n    event Division(uint256 _a, uint256 _b, uint256 _quotient);\n\n}\n",
  "sourcePath": "/home/luiserebii/github/HydroSnowflake-Marketplace-Coupons/contracts/main-contracts/Calculator.sol",
  "compiler": {
    "name": "solc",
    "version": "0.5.7+commit.6da8b019.Emscripten.clang"
  },
  "schemaVersion": "3.0.6",
  "updatedAt": "2019-06-07T02:04:39.476Z",
  "devdoc": {
    "methods": {}
  },
  "userdoc": {
    "methods": {}
  }
}