{
  "contractName": "ClientRaindrop",
  "abi": [
    {
      "constant": true,
      "inputs": [],
      "name": "hydroStakeUser",
      "outputs": [
        {
          "name": "",
          "type": "uint256"
        }
      ],
      "payable": false,
      "stateMutability": "view",
      "type": "function"
    },
    {
      "constant": true,
      "inputs": [],
      "name": "hydroStakeDelegatedUser",
      "outputs": [
        {
          "name": "",
          "type": "uint256"
        }
      ],
      "payable": false,
      "stateMutability": "view",
      "type": "function"
    },
    {
      "constant": false,
      "inputs": [],
      "name": "renounceOwnership",
      "outputs": [],
      "payable": false,
      "stateMutability": "nonpayable",
      "type": "function"
    },
    {
      "constant": true,
      "inputs": [],
      "name": "callOnAddition",
      "outputs": [
        {
          "name": "",
          "type": "bool"
        }
      ],
      "payable": false,
      "stateMutability": "view",
      "type": "function"
    },
    {
      "constant": true,
      "inputs": [],
      "name": "snowflakeDescription",
      "outputs": [
        {
          "name": "",
          "type": "string"
        }
      ],
      "payable": false,
      "stateMutability": "view",
      "type": "function"
    },
    {
      "constant": true,
      "inputs": [],
      "name": "snowflakeName",
      "outputs": [
        {
          "name": "",
          "type": "string"
        }
      ],
      "payable": false,
      "stateMutability": "view",
      "type": "function"
    },
    {
      "constant": true,
      "inputs": [],
      "name": "owner",
      "outputs": [
        {
          "name": "",
          "type": "address"
        }
      ],
      "payable": false,
      "stateMutability": "view",
      "type": "function"
    },
    {
      "constant": true,
      "inputs": [],
      "name": "callOnRemoval",
      "outputs": [
        {
          "name": "",
          "type": "bool"
        }
      ],
      "payable": false,
      "stateMutability": "view",
      "type": "function"
    },
    {
      "constant": true,
      "inputs": [],
      "name": "isOwner",
      "outputs": [
        {
          "name": "",
          "type": "bool"
        }
      ],
      "payable": false,
      "stateMutability": "view",
      "type": "function"
    },
    {
      "constant": false,
      "inputs": [
        {
          "name": "newOwner",
          "type": "address"
        }
      ],
      "name": "transferOwnership",
      "outputs": [],
      "payable": false,
      "stateMutability": "nonpayable",
      "type": "function"
    },
    {
      "constant": true,
      "inputs": [],
      "name": "snowflakeAddress",
      "outputs": [
        {
          "name": "",
          "type": "address"
        }
      ],
      "payable": false,
      "stateMutability": "view",
      "type": "function"
    },
    {
      "inputs": [
        {
          "name": "snowflakeAddress",
          "type": "address"
        },
        {
          "name": "oldClientRaindropAddress",
          "type": "address"
        },
        {
          "name": "_hydroStakeUser",
          "type": "uint256"
        },
        {
          "name": "_hydroStakeDelegatedUser",
          "type": "uint256"
        }
      ],
      "payable": false,
      "stateMutability": "nonpayable",
      "type": "constructor"
    },
    {
      "anonymous": false,
      "inputs": [
        {
          "indexed": true,
          "name": "ein",
          "type": "uint256"
        },
        {
          "indexed": false,
          "name": "hydroID",
          "type": "string"
        },
        {
          "indexed": false,
          "name": "userAddress",
          "type": "address"
        }
      ],
      "name": "HydroIDClaimed",
      "type": "event"
    },
    {
      "anonymous": false,
      "inputs": [
        {
          "indexed": true,
          "name": "ein",
          "type": "uint256"
        },
        {
          "indexed": false,
          "name": "hydroID",
          "type": "string"
        },
        {
          "indexed": false,
          "name": "userAddress",
          "type": "address"
        }
      ],
      "name": "HydroIDDestroyed",
      "type": "event"
    },
    {
      "anonymous": false,
      "inputs": [
        {
          "indexed": true,
          "name": "previousOwner",
          "type": "address"
        },
        {
          "indexed": true,
          "name": "newOwner",
          "type": "address"
        }
      ],
      "name": "OwnershipTransferred",
      "type": "event"
    },
    {
      "constant": false,
      "inputs": [
        {
          "name": "snowflakeAddress",
          "type": "address"
        }
      ],
      "name": "setSnowflakeAddress",
      "outputs": [],
      "payable": false,
      "stateMutability": "nonpayable",
      "type": "function"
    },
    {
      "constant": false,
      "inputs": [
        {
          "name": "oldClientRaindropAddress",
          "type": "address"
        }
      ],
      "name": "setOldClientRaindropAddress",
      "outputs": [],
      "payable": false,
      "stateMutability": "nonpayable",
      "type": "function"
    },
    {
      "constant": false,
      "inputs": [
        {
          "name": "_hydroStakeUser",
          "type": "uint256"
        },
        {
          "name": "_hydroStakeDelegatedUser",
          "type": "uint256"
        }
      ],
      "name": "setStakes",
      "outputs": [],
      "payable": false,
      "stateMutability": "nonpayable",
      "type": "function"
    },
    {
      "constant": false,
      "inputs": [
        {
          "name": "_address",
          "type": "address"
        },
        {
          "name": "casedHydroId",
          "type": "string"
        }
      ],
      "name": "signUp",
      "outputs": [],
      "payable": false,
      "stateMutability": "nonpayable",
      "type": "function"
    },
    {
      "constant": false,
      "inputs": [
        {
          "name": "ein",
          "type": "uint256"
        },
        {
          "name": "",
          "type": "uint256"
        },
        {
          "name": "extraData",
          "type": "bytes"
        }
      ],
      "name": "onAddition",
      "outputs": [
        {
          "name": "",
          "type": "bool"
        }
      ],
      "payable": false,
      "stateMutability": "nonpayable",
      "type": "function"
    },
    {
      "constant": true,
      "inputs": [
        {
          "name": "casedHydroID",
          "type": "string"
        },
        {
          "name": "_address",
          "type": "address"
        }
      ],
      "name": "checkForOldHydroID",
      "outputs": [],
      "payable": false,
      "stateMutability": "view",
      "type": "function"
    },
    {
      "constant": false,
      "inputs": [
        {
          "name": "ein",
          "type": "uint256"
        },
        {
          "name": "",
          "type": "bytes"
        }
      ],
      "name": "onRemoval",
      "outputs": [
        {
          "name": "",
          "type": "bool"
        }
      ],
      "payable": false,
      "stateMutability": "nonpayable",
      "type": "function"
    },
    {
      "constant": true,
      "inputs": [
        {
          "name": "uncasedHydroID",
          "type": "string"
        }
      ],
      "name": "hydroIDAvailable",
      "outputs": [
        {
          "name": "available",
          "type": "bool"
        }
      ],
      "payable": false,
      "stateMutability": "view",
      "type": "function"
    },
    {
      "constant": true,
      "inputs": [
        {
          "name": "uncasedHydroID",
          "type": "string"
        }
      ],
      "name": "hydroIDDestroyed",
      "outputs": [
        {
          "name": "destroyed",
          "type": "bool"
        }
      ],
      "payable": false,
      "stateMutability": "view",
      "type": "function"
    },
    {
      "constant": true,
      "inputs": [
        {
          "name": "uncasedHydroID",
          "type": "string"
        }
      ],
      "name": "hydroIDActive",
      "outputs": [
        {
          "name": "active",
          "type": "bool"
        }
      ],
      "payable": false,
      "stateMutability": "view",
      "type": "function"
    },
    {
      "constant": true,
      "inputs": [
        {
          "name": "ein",
          "type": "uint256"
        }
      ],
      "name": "getDetails",
      "outputs": [
        {
          "name": "_address",
          "type": "address"
        },
        {
          "name": "casedHydroID",
          "type": "string"
        }
      ],
      "payable": false,
      "stateMutability": "view",
      "type": "function"
    },
    {
      "constant": true,
      "inputs": [
        {
          "name": "_address",
          "type": "address"
        }
      ],
      "name": "getDetails",
      "outputs": [
        {
          "name": "ein",
          "type": "uint256"
        },
        {
          "name": "casedHydroID",
          "type": "string"
        }
      ],
      "payable": false,
      "stateMutability": "view",
      "type": "function"
    },
    {
      "constant": true,
      "inputs": [
        {
          "name": "uncasedHydroID",
          "type": "string"
        }
      ],
      "name": "getDetails",
      "outputs": [
        {
          "name": "ein",
          "type": "uint256"
        },
        {
          "name": "_address",
          "type": "address"
        },
        {
          "name": "casedHydroID",
          "type": "string"
        }
      ],
      "payable": false,
      "stateMutability": "view",
      "type": "function"
    }
  ],
  "bytecode": "0x60806040523480156200001157600080fd5b5060405160808062002ce5833981018060405260808110156200003357600080fd5b50805160208083015160408085015160609095015181518083018352600f81527f436c69656e74205261696e64726f700000000000000000000000000000000000818601528251608081019093526044808452959693959394919390929162002ca19083013960008054600160a060020a031916331780825560405188926001928392600160a060020a039190911691907f8be0079c531659141344cd1fd0a4f28419497f9722a3daafe3b4186f6b6457e0908290a38451620000fe90600190602088019062000587565b5083516200011490600290602087019062000587565b506200012983640100000000620001ce810204565b6003805491151575010000000000000000000000000000000000000000000260a860020a60ff0219931515740100000000000000000000000000000000000000000260a060020a60ff02199093169290921792909216179055506200019b9150859050640100000000620001ce810204565b620001af836401000000006200034f810204565b620001c482826401000000006200038e810204565b5050505062000629565b620001e164010000000062000536810204565b620001eb57600080fd5b6200020481640100000000620021a96200054882021704565b600081905080600160a060020a03166375d7e4bd6040518163ffffffff167c0100000000000000000000000000000000000000000000000000000000028152600401602060405180830381600087803b1580156200026157600080fd5b505af115801562000276573d6000803e3d6000fd5b505050506040513d60208110156200028d57600080fd5b505160048054600160a060020a031916600160a060020a03928316178155604080517fa759ee6f00000000000000000000000000000000000000000000000000000000815290519284169263a759ee6f928281019260209291908290030181600087803b158015620002fe57600080fd5b505af115801562000313573d6000803e3d6000fd5b505050506040513d60208110156200032a57600080fd5b505160058054600160a060020a031916600160a060020a039092169190911790555050565b6200036264010000000062000536810204565b6200036c57600080fd5b60068054600160a060020a031916600160a060020a0392909216919091179055565b620003a164010000000062000536810204565b620003ab57600080fd5b692f0eadc32162377800008211156200042557604080517f08c379a000000000000000000000000000000000000000000000000000000000815260206004820152601260248201527f5374616b6520697320746f6f20686967682e0000000000000000000000000000604482015290519081900360640190fd5b600781905560048054604080517f18160ddd0000000000000000000000000000000000000000000000000000000081529051606493600160a060020a03909316926318160ddd92808201926020929091829003018186803b1580156200048a57600080fd5b505afa1580156200049f573d6000803e3d6000fd5b505050506040513d6020811015620004b657600080fd5b505181620004c057fe5b048111156200053057604080517f08c379a000000000000000000000000000000000000000000000000000000000815260206004820152601260248201527f5374616b6520697320746f6f20686967682e0000000000000000000000000000604482015290519081900360640190fd5b60085550565b600054600160a060020a031633145b90565b6200055b64010000000062000536810204565b6200056557600080fd5b60038054600160a060020a031916600160a060020a0392909216919091179055565b828054600181600116156101000203166002900490600052602060002090601f016020900481019282601f10620005ca57805160ff1916838001178555620005fa565b82800160010185558215620005fa579182015b82811115620005fa578251825591602001919060010190620005dd565b50620006089291506200060c565b5090565b6200054591905b8082111562000608576000815560010162000613565b61266880620006396000396000f3fe608060405234801561001057600080fd5b506004361061015c5760003560e060020a9004806390bfaf40116100c7578063b93a89f711610080578063b93a89f71461087d578063bb3f9cdd146108e3578063c979b05a14610906578063e2a3b18b1461092c578063f2fde38b146109d2578063f9f451b8146109f85761015c565b806390bfaf401461046b5780639182621a1461051d578063996df2ad146105ca578063a76c74b21461067b578063aad9afbb14610721578063b531ff12146107c75761015c565b806376acf1b61161011957806376acf1b61461038c5780637c9348261461040957806388cdab941461042f5780638da5cb5b146104375780638f06492d1461045b5780638f32d59b146104635761015c565b80631328fd8f1461016157806330289c611461029f57806333a9711d1461034457806352b7493b1461035e578063715018a6146103665780637179025114610370575b600080fd5b6102076004803603602081101561017757600080fd5b81019060208101813564010000000081111561019257600080fd5b8201836020820111156101a457600080fd5b803590602001918460018302840111640100000000831117156101c657600080fd5b91908080601f016020809104026020016040519081016040528093929190818152602001838380828437600092019190915250929550610a00945050505050565b6040518084815260200183600160a060020a0316600160a060020a0316815260200180602001828103825283818151815260200191508051906020019080838360005b8381101561026257818101518382015260200161024a565b50505050905090810190601f16801561028f5780820380516001836020036101000a031916815260200191505b5094505050505060405180910390f35b6102c5600480360360208110156102b557600080fd5b5035600160a060020a0316610b3e565b6040518083815260200180602001828103825283818151815260200191508051906020019080838360005b838110156103085781810151838201526020016102f0565b50505050905090810190601f1680156103355780820380516001836020036101000a031916815260200191505b50935050505060405180910390f35b61034c610c07565b60408051918252519081900360200190f35b61034c610c0d565b61036e610c13565b005b610378610c6e565b604080519115158252519081900360200190f35b610394610c8f565b6040805160208082528351818301528351919283929083019185019080838360005b838110156103ce5781810151838201526020016103b6565b50505050905090810190601f1680156103fb5780820380516001836020036101000a031916815260200191505b509250505060405180910390f35b61036e6004803603602081101561041f57600080fd5b5035600160a060020a0316610d1a565b610394610d4d565b61043f610da7565b60408051600160a060020a039092168252519081900360200190f35b610378610db7565b610378610dd9565b6103786004803603606081101561048157600080fd5b8135916020810135918101906060810160408201356401000000008111156104a857600080fd5b8201836020820111156104ba57600080fd5b803590602001918460018302840111640100000000831117156104dc57600080fd5b91908080601f016020809104026020016040519081016040528093929190818152602001838380828437600092019190915250929550610dea945050505050565b6103786004803603604081101561053357600080fd5b8135919081019060408101602082013564010000000081111561055557600080fd5b82018360208201111561056757600080fd5b8035906020019184600183028401116401000000008311171561058957600080fd5b91908080601f01602080910402602001604051908101604052809392919081815260200183838082843760009201919091525092955061107c945050505050565b61036e600480360360408110156105e057600080fd5b8101906020810181356401000000008111156105fb57600080fd5b82018360208201111561060d57600080fd5b8035906020019184600183028401116401000000008311171561062f57600080fd5b91908080601f01602080910402602001604051908101604052809392919081815260200183838082843760009201919091525092955050509035600160a060020a0316915061124e9050565b6103786004803603602081101561069157600080fd5b8101906020810181356401000000008111156106ac57600080fd5b8201836020820111156106be57600080fd5b803590602001918460018302840111640100000000831117156106e057600080fd5b91908080601f0160208091040260200160405190810160405280939291908181526020018383808284376000920191909152509295506114e5945050505050565b6103786004803603602081101561073757600080fd5b81019060208101813564010000000081111561075257600080fd5b82018360208201111561076457600080fd5b8035906020019184600183028401116401000000008311171561078657600080fd5b91908080601f01602080910402602001604051908101604052809392919081815260200183838082843760009201919091525092955061156d945050505050565b61036e600480360360408110156107dd57600080fd5b600160a060020a03823516919081019060408101602082013564010000000081111561080857600080fd5b82018360208201111561081a57600080fd5b8035906020019184600183028401116401000000008311171561083c57600080fd5b91908080601f0160208091040260200160405190810160405280939291908181526020018383808284376000920191909152509295506115ed945050505050565b61089a6004803603602081101561089357600080fd5b503561175c565b60408051600160a060020a0384168152602080820183815284519383019390935283519192916060840191850190808383600083156103085781810151838201526020016102f0565b61036e600480360360408110156108f957600080fd5b50803590602001356117ef565b61036e6004803603602081101561091c57600080fd5b5035600160a060020a0316611957565b6103786004803603602081101561094257600080fd5b81019060208101813564010000000081111561095d57600080fd5b82018360208201111561096f57600080fd5b8035906020019184600183028401116401000000008311171561099157600080fd5b91908080601f016020809104026020016040519081016040528093929190818152602001838380828437600092019190915250929550611a9d945050505050565b61036e600480360360208110156109e857600080fd5b5035600160a060020a0316611b1d565b61043f611b3a565b60008060606000610a85610a1386611b49565b6040516020018082805190602001908083835b60208310610a455780518252601f199092019160209182019101610a26565b6001836020036101000a03801982511681845116808217855250505050505090500191505060405160208183030381529060405280519060200120611bc8565b80546001808301546002808501805460408051602061010097841615979097026000190190921693909304601f81018690048602820186019093528281529596509394600160a060020a039092169392839190830182828015610b295780601f10610afe57610100808354040283529160200191610b29565b820191906000526020600020905b815481529060010190602001808311610b0c57829003601f168201915b50505050509050935093509350509193909250565b600160a060020a0381166000908152600b60205260408120546060908290610b6590611bc8565b8054600280830180546040805160206001841615610100026000190190931694909404601f810183900483028501830190915280845294955092939092839190830182828015610bf65780601f10610bcb57610100808354040283529160200191610bf6565b820191906000526020600020905b815481529060010190602001808311610bd957829003601f168201915b505050505090509250925050915091565b60075481565b60085481565b610c1b610dd9565b610c2457600080fd5b60008054604051600160a060020a03909116907f8be0079c531659141344cd1fd0a4f28419497f9722a3daafe3b4186f6b6457e0908390a360008054600160a060020a0319169055565b60035474010000000000000000000000000000000000000000900460ff1681565b6002805460408051602060018416156101000260001901909316849004601f81018490048402820184019092528181529291830182828015610d125780601f10610ce757610100808354040283529160200191610d12565b820191906000526020600020905b815481529060010190602001808311610cf557829003601f168201915b505050505081565b610d22610dd9565b610d2b57600080fd5b60068054600160a060020a031916600160a060020a0392909216919091179055565b60018054604080516020600284861615610100026000190190941693909304601f81018490048402820184019092528181529291830182828015610d125780601f10610ce757610100808354040283529160200191610d12565b600054600160a060020a03165b90565b6003547501000000000000000000000000000000000000000000900460ff1681565b600054600160a060020a0316331490565b600354600090600160a060020a03163314610e395760405160e560020a62461bcd0281526004018080602001828103825260218152602001806125c66021913960400191505060405180910390fd5b60085460048054604080517f70a082310000000000000000000000000000000000000000000000000000000081523293810184905290519293928392600160a060020a0316916370a08231916024808301926020929190829003018186803b158015610ea457600080fd5b505afa158015610eb8573d6000803e3d6000fd5b505050506040513d6020811015610ece57600080fd5b50511015610f105760405160e560020a62461bcd0281526004018080602001828103825260228152602001806125e76022913960400191505060405180910390fd5b60006060858060200190516040811015610f2957600080fd5b815160208301805191939283019291640100000000811115610f4a57600080fd5b82016020810184811115610f5d57600080fd5b8151640100000000811182820187101715610f7757600080fd5b505092919050505091509150600560009054906101000a9004600160a060020a0316600160a060020a03166353a9698a89336040518363ffffffff1660e060020a0281526004018083815260200182600160a060020a0316600160a060020a031681526020019250505060206040518083038186803b158015610ff957600080fd5b505afa15801561100d573d6000803e3d6000fd5b505050506040513d602081101561102357600080fd5b50516110635760405160e560020a62461bcd02815260040180806020018281038252602f8152602001806124e5602f913960400191505060405180910390fd5b61106e888284611c39565b506001979650505050505050565b600354600090600160a060020a031633146110cb5760405160e560020a62461bcd0281526004018080602001828103825260218152602001806125c66021913960400191505060405180910390fd5b6000838152600a60205260409020546110e38161216d565b6110e957fe5b6000818152600960209081526040918290206001808201548451600160a060020a03909116938101849052848152600292830180546000199381161561010002939093019092169290920493820184905287937fdc4955845bee1c570feb327eb524548814e95acb6f1d1e6f60d55eead530339d9391929081906060820190859080156111b75780601f1061118c576101008083540402835291602001916111b7565b820191906000526020600020905b81548152906001019060200180831161119a57829003601f168201915b5050935050505060405180910390a260008181526009602081815260408084206001810154600160a060020a03168552600b8352818520859055888552600a8352908420849055848452919052611213916002909101906123f2565b600090815260096020526040902060018082018054600160a060020a03191690556003909101805461ff001916610100179055905092915050565b6006546040517fd35e656b000000000000000000000000000000000000000000000000000000008152602060048201818152855160248401528551600094600160a060020a03169363d35e656b938893928392604401918501908083838b5b838110156112c55781810151838201526020016112ad565b50505050905090810190601f1680156112f25780820380516001836020036101000a031916815260200191505b509250505060206040518083038186803b15801561130f57600080fd5b505afa158015611323573d6000803e3d6000fd5b505050506040513d602081101561133957600080fd5b5051905080156114e0576006546040517f4bff5009000000000000000000000000000000000000000000000000000000008152602060048201818152865160248401528651600094600160a060020a031693634bff5009938993928392604401918501908083838b5b838110156113ba5781810151838201526020016113a2565b50505050905090810190601f1680156113e75780820380516001836020036101000a031916815260200191505b509250505060006040518083038186803b15801561140457600080fd5b505afa158015611418573d6000803e3d6000fd5b505050506040513d6000823e601f3d908101601f19168201604090815281101561144157600080fd5b81019080805164010000000081111561145957600080fd5b8201602081018481111561146c57600080fd5b815164010000000081118282018710171561148657600080fd5b5050506020015192505050600160a060020a03838116908216146114de5760405160e560020a62461bcd0281526004018080602001828103825260348152602001806126096034913960400191505060405180910390fd5b505b505050565b60006115656114f383611b49565b6040516020018082805190602001908083835b602083106115255780518252601f199092019160209182019101611506565b6001836020036101000a0380198251168184511680821785525050505050509050019150506040516020818303038152906040528051906020012061216d565b90505b919050565b600061156561157b83611b49565b6040516020018082805190602001908083835b602083106115ad5780518252601f19909201916020918201910161158e565b6001836020036101000a03801982511681845116808217855250505050505090500191505060405160208183030381529060405280519060200120612190565b60075460048054604080517f70a082310000000000000000000000000000000000000000000000000000000081523393810184905290519293928392600160a060020a0316916370a08231916024808301926020929190829003018186803b15801561165857600080fd5b505afa15801561166c573d6000803e3d6000fd5b505050506040513d602081101561168257600080fd5b505110156116c45760405160e560020a62461bcd0281526004018080602001828103825260228152602001806125e76022913960400191505060405180910390fd5b600554604080517f05c62c2f00000000000000000000000000000000000000000000000000000000815233600482015290516114de92600160a060020a0316916305c62c2f916024808301926020929190829003018186803b15801561172957600080fd5b505afa15801561173d573d6000803e3d6000fd5b505050506040513d602081101561175357600080fd5b50518486611c39565b6000818152600a6020526040812054606090829061177990611bc8565b6001818101546002808401805460408051602061010097841615979097026000190190921693909304601f8101869004860282018601909352828152949550600160a060020a03909216939192839190830182828015610bf65780601f10610bcb57610100808354040283529160200191610bf6565b6117f7610dd9565b61180057600080fd5b692f0eadc3216237780000821115611862576040805160e560020a62461bcd02815260206004820152601260248201527f5374616b6520697320746f6f20686967682e0000000000000000000000000000604482015290519081900360640190fd5b600781905560048054604080517f18160ddd0000000000000000000000000000000000000000000000000000000081529051606493600160a060020a03909316926318160ddd92808201926020929091829003018186803b1580156118c657600080fd5b505afa1580156118da573d6000803e3d6000fd5b505050506040513d60208110156118f057600080fd5b5051816118f957fe5b04811115611951576040805160e560020a62461bcd02815260206004820152601260248201527f5374616b6520697320746f6f20686967682e0000000000000000000000000000604482015290519081900360640190fd5b60085550565b61195f610dd9565b61196857600080fd5b611971816121a9565b600081905080600160a060020a03166375d7e4bd6040518163ffffffff1660e060020a028152600401602060405180830381600087803b1580156119b457600080fd5b505af11580156119c8573d6000803e3d6000fd5b505050506040513d60208110156119de57600080fd5b505160048054600160a060020a031916600160a060020a03928316178155604080517fa759ee6f00000000000000000000000000000000000000000000000000000000815290519284169263a759ee6f928281019260209291908290030181600087803b158015611a4e57600080fd5b505af1158015611a62573d6000803e3d6000fd5b505050506040513d6020811015611a7857600080fd5b505160058054600160a060020a031916600160a060020a039092169190911790555050565b6000611565611aab83611b49565b6040516020018082805190602001908083835b60208310611add5780518252601f199092019160209182019101611abe565b6001836020036101000a038019825116818451168082178552505050505050905001915050604051602081830303815290604052805190602001206121dc565b611b25610dd9565b611b2e57600080fd5b611b37816121f9565b50565b600354600160a060020a031681565b60608160005b8151811015611bc157611b7e828281518110611b6757fe5b602001015160f860020a900460f860020a02612267565b828281518110611b8a57fe5b60200101907effffffffffffffffffffffffffffffffffffffffffffffffffffffffffffff1916908160001a905350600101611b4f565b5092915050565b6000611bd38261216d565b611c27576040805160e560020a62461bcd02815260206004820152601660248201527f487964726f4944206973206e6f74206163746976652e00000000000000000000604482015290519081900360640190fd5b50600090815260096020526040902090565b60028251118015611c4b575060218251105b611c9f576040805160e560020a62461bcd02815260206004820152601b60248201527f487964726f49442068617320696e76616c6964206c656e6774682e0000000000604482015290519081900360640190fd5b600554604080517fd4b1cdcc000000000000000000000000000000000000000000000000000000008152600481018690523060248201529051600160a060020a039092169163d4b1cdcc91604480820192602092909190829003018186803b158015611d0a57600080fd5b505afa158015611d1e573d6000803e3d6000fd5b505050506040513d6020811015611d3457600080fd5b5051611d745760405160e560020a62461bcd02815260040180806020018281038252602981526020018061259d6029913960400191505060405180910390fd5b600554604080517fa687662d00000000000000000000000000000000000000000000000000000000815260048101869052600160a060020a0384811660248301529151919092169163a687662d916044808301926020929190829003018186803b158015611de157600080fd5b505afa158015611df5573d6000803e3d6000fd5b505050506040513d6020811015611e0b57600080fd5b5051611e4b5760405160e560020a62461bcd02815260040180806020018281038252603f815260200180612514603f913960400191505060405180910390fd5b611e55828261124e565b6000611e78611e73611e6e611e698661231e565b612343565b612369565b611b49565b6040516020018082805190602001908083835b60208310611eaa5780518252601f199092019160209182019101611e8b565b6001836020036101000a038019825116818451168082178552505050505050905001915050604051602081830303815290604052805190602001209050611ef081612190565b611f44576040805160e560020a62461bcd02815260206004820152601760248201527f487964726f494420697320756e617661696c61626c652e000000000000000000604482015290519081900360640190fd5b6000848152600a602052604090205415611f925760405160e560020a62461bcd02815260040180806020018281038252602381526020018061257a6023913960400191505060405180910390fd5b600160a060020a0382166000908152600b602052604090205415611fea5760405160e560020a62461bcd0281526004018080602001828103825260278152602001806125536027913960400191505060405180910390fd5b6040805160a081018252858152600160a060020a03848116602080840191825283850188815260016060860181905260006080870181905288815260098452969096208551815592519583018054600160a060020a0319169690941695909517909255925180519293926120649260028501920190612436565b506060828101516003909201805460809094015115156101000261ff001993151560ff1990951694909417929092169290921790556000858152600a60209081526040808320859055600160a060020a038616808452600b8352818420869055815180840191909152818152875191810191909152865188947f2036b1dad46d67484fb64d7b2041768b0c1d63e534f4b59a6fb46c1b08493df49489948994938493840192918701918190849084905b8381101561212c578181015183820152602001612114565b50505050905090810190601f1680156121595780820380516001836020036101000a031916815260200191505b50935050505060405180910390a250505050565b600061217882612190565b1580156115655750612189826121dc565b1592915050565b60009081526009602052604090206003015460ff161590565b6121b1610dd9565b6121ba57600080fd5b60038054600160a060020a031916600160a060020a0392909216919091179055565b600090815260096020526040902060030154610100900460ff1690565b600160a060020a03811661220c57600080fd5b60008054604051600160a060020a03808516939216917f8be0079c531659141344cd1fd0a4f28419497f9722a3daafe3b4186f6b6457e091a360008054600160a060020a031916600160a060020a0392909216919091179055565b60007f41000000000000000000000000000000000000000000000000000000000000007fff000000000000000000000000000000000000000000000000000000000000008316108015906122fd57507f5a000000000000000000000000000000000000000000000000000000000000007fff00000000000000000000000000000000000000000000000000000000000000831611155b1561231a578160f860020a900460200160f860020a029050611568565b5090565b6123266124b0565b506040805180820190915281518152602082810190820152919050565b61234b6124b0565b50604080518082019091528151815260208083015190820152919050565b60608082600001516040519080825280601f01601f19166020018201604052801561239b576020820181803883390190505b5090506000602082019050611bc181856020015186600001515b602081106123d4578151835260209283019290910190601f19016123b5565b905182516020929092036101000a6000190180199091169116179052565b50805460018160011615610100020316600290046000825580601f106124185750611b37565b601f016020900490600052602060002090810190611b3791906124ca565b828054600181600116156101000203166002900490600052602060002090601f016020900481019282601f1061247757805160ff19168380011785556124a4565b828001600101855582156124a4579182015b828111156124a4578251825591602001919060010190612489565b5061231a9291506124ca565b604051806040016040528060008152602001600081525090565b610db491905b8082111561231a57600081556001016124d056fe536e6f77666c616b65206973206e6f7420612050726f766964657220666f7220746865207061737365642045494e2e546865207061737365642061646472657373206973206e6f74206173736f6369617465642077697468207468652063616c6c696e67204964656e746974792e4164647265737320697320616c7265616479206d617070656420746f206120487964726f49442e45494e20697320616c7265616479206d617070656420746f206120487964726f49442e546865207061737365642045494e20686173206e6f74207365742074686973207265736f6c7665722e446964206e6f74206f726967696e6174652066726f6d20536e6f77666c616b652e496e73756666696369656e74207374616b656420485944524f2062616c616e63652e5468697320487964726f20494420697320616c726561647920636c61696d656420627920616e6f7468657220616464726573732ea165627a7a723058202b36df6c1ad920a022141a25832883aa6162e583c47f0d8593a88179c145bcbb0029412072656769737472792074686174206c696e6b732045494e7320746f20487964726f49447320746f20706f77657220436c69656e74205261696e64726f70204d46412e",
  "source": "pragma solidity ^0.5.0;\n\nimport \"./StringUtils.sol\";\nimport \"./OldClientRaindropInterface.sol\";\nimport \"../../SnowflakeResolver.sol\";\nimport \"../../interfaces/IdentityRegistryInterface.sol\";\nimport \"../../interfaces/HydroInterface.sol\";\nimport \"../../interfaces/SnowflakeInterface.sol\";\n\ncontract ClientRaindrop is SnowflakeResolver {\n    // attach the StringUtils library\n    using StringUtils for string;\n    using StringUtils for StringUtils.slice;\n\n    // other SCs\n    HydroInterface private hydroToken;\n    IdentityRegistryInterface private identityRegistry;\n    OldClientRaindropInterface private oldClientRaindrop;\n\n    // staking requirements\n    uint public hydroStakeUser;\n    uint public hydroStakeDelegatedUser;\n\n    // User account template\n    struct User {\n        uint ein;\n        address _address;\n        string casedHydroID;\n        bool initialized;\n        bool destroyed;\n    }\n\n    // Mapping from uncased hydroID hashes to users\n    mapping (bytes32 => User) private userDirectory;\n    // Mapping from EIN to uncased hydroID hashes\n    mapping (uint => bytes32) private einDirectory;\n    // Mapping from address to uncased hydroID hashes\n    mapping (address => bytes32) private addressDirectory;\n\n    constructor(\n        address snowflakeAddress, address oldClientRaindropAddress, uint _hydroStakeUser, uint _hydroStakeDelegatedUser\n    )\n        SnowflakeResolver(\n            \"Client Raindrop\", \"A registry that links EINs to HydroIDs to power Client Raindrop MFA.\",\n            snowflakeAddress,\n            true, true\n        )\n        public\n    {\n        setSnowflakeAddress(snowflakeAddress);\n        setOldClientRaindropAddress(oldClientRaindropAddress);\n        setStakes(_hydroStakeUser, _hydroStakeDelegatedUser);\n    }\n\n    // Requires an address to have a minimum number of Hydro\n    modifier requireStake(address _address, uint stake) {\n        require(hydroToken.balanceOf(_address) >= stake, \"Insufficient staked HYDRO balance.\");\n        _;\n    }\n\n    // set the snowflake address, and hydro token + identity registry contract wrappers\n    function setSnowflakeAddress(address snowflakeAddress) public onlyOwner() {\n        super.setSnowflakeAddress(snowflakeAddress);\n\n        SnowflakeInterface snowflake = SnowflakeInterface(snowflakeAddress);\n        hydroToken = HydroInterface(snowflake.hydroTokenAddress());\n        identityRegistry = IdentityRegistryInterface(snowflake.identityRegistryAddress());\n    }\n\n    // set the old client raindrop address\n    function setOldClientRaindropAddress(address oldClientRaindropAddress) public onlyOwner() {\n        oldClientRaindrop = OldClientRaindropInterface(oldClientRaindropAddress);\n    }\n\n    // set minimum hydro balances required for sign ups\n    function setStakes(uint _hydroStakeUser, uint _hydroStakeDelegatedUser) public onlyOwner() {\n        // <= the airdrop amount\n        require(_hydroStakeUser <= 222222 * 10**18, \"Stake is too high.\");\n        hydroStakeUser = _hydroStakeDelegatedUser;\n\n        // <= 1% of total supply\n        require(_hydroStakeDelegatedUser <= hydroToken.totalSupply() / 100, \"Stake is too high.\");\n        hydroStakeDelegatedUser = _hydroStakeDelegatedUser;\n    }\n\n    // function for users calling signup for themselves\n    function signUp(address _address, string memory casedHydroId) public requireStake(msg.sender, hydroStakeUser) {\n        _signUp(identityRegistry.getEIN(msg.sender), casedHydroId, _address);\n    }\n\n    // function for users signing up through the snowflake provider\n    function onAddition(uint ein, uint, bytes memory extraData)\n        // solium-disable-next-line security/no-tx-origin\n        public senderIsSnowflake() requireStake(tx.origin, hydroStakeDelegatedUser) returns (bool)\n    {\n        (address _address, string memory casedHydroID) = abi.decode(extraData, (address, string));\n        require(identityRegistry.isProviderFor(ein, msg.sender), \"Snowflake is not a Provider for the passed EIN.\");\n        _signUp(ein, casedHydroID, _address);\n     \n        return true;\n    }\n\n    // Common internal logic for all user signups\n    function _signUp(uint ein, string memory casedHydroID, address _address) internal {\n        require(bytes(casedHydroID).length > 2 && bytes(casedHydroID).length < 33, \"HydroID has invalid length.\");\n        require(identityRegistry.isResolverFor(ein, address(this)), \"The passed EIN has not set this resolver.\");\n        require(\n            identityRegistry.isAssociatedAddressFor(ein, _address),\n            \"The passed address is not associated with the calling Identity.\"\n        );\n        checkForOldHydroID(casedHydroID, _address);\n\n        bytes32 uncasedHydroIDHash = keccak256(abi.encodePacked(casedHydroID.toSlice().copy().toString().lower()));\n        // check conditions specific to this resolver\n        require(hydroIDAvailable(uncasedHydroIDHash), \"HydroID is unavailable.\");\n        require(einDirectory[ein] == bytes32(0), \"EIN is already mapped to a HydroID.\");\n        require(addressDirectory[_address] == bytes32(0), \"Address is already mapped to a HydroID.\");\n\n        // update mappings\n        userDirectory[uncasedHydroIDHash] = User(ein, _address, casedHydroID, true, false);\n        einDirectory[ein] = uncasedHydroIDHash;\n        addressDirectory[_address] = uncasedHydroIDHash;\n\n        emit HydroIDClaimed(ein, casedHydroID, _address);\n    }\n\n    function checkForOldHydroID(string memory casedHydroID, address _address) public view {\n        bool usernameTaken = oldClientRaindrop.userNameTaken(casedHydroID);\n        if (usernameTaken) {\n            (, address takenAddress) = oldClientRaindrop.getUserByName(casedHydroID);\n            require(_address == takenAddress, \"This Hydro ID is already claimed by another address.\");\n        }\n    }\n\n    function onRemoval(uint ein, bytes memory) public senderIsSnowflake() returns (bool) {\n        bytes32 uncasedHydroIDHash = einDirectory[ein];\n        assert(uncasedHydroIDHashActive(uncasedHydroIDHash));\n\n        emit HydroIDDestroyed(\n            ein, userDirectory[uncasedHydroIDHash].casedHydroID, userDirectory[uncasedHydroIDHash]._address\n        );\n\n        delete addressDirectory[userDirectory[uncasedHydroIDHash]._address];\n        delete einDirectory[ein];\n        delete userDirectory[uncasedHydroIDHash].casedHydroID;\n        delete userDirectory[uncasedHydroIDHash]._address;\n        userDirectory[uncasedHydroIDHash].destroyed = true;\n\n        return true;\n    }\n\n\n    // returns whether a given hydroID is available\n    function hydroIDAvailable(string memory uncasedHydroID) public view returns (bool available) {\n        return hydroIDAvailable(keccak256(abi.encodePacked(uncasedHydroID.lower())));\n    }\n\n    // Returns a bool indicating whether a given uncasedHydroIDHash is available\n    function hydroIDAvailable(bytes32 uncasedHydroIDHash) private view returns (bool) {\n        return !userDirectory[uncasedHydroIDHash].initialized;\n    }\n\n    // returns whether a given hydroID is destroyed\n    function hydroIDDestroyed(string memory uncasedHydroID) public view returns (bool destroyed) {\n        return hydroIDDestroyed(keccak256(abi.encodePacked(uncasedHydroID.lower())));\n    }\n\n    // Returns a bool indicating whether a given hydroID is destroyed\n    function hydroIDDestroyed(bytes32 uncasedHydroIDHash) private view returns (bool) {\n        return userDirectory[uncasedHydroIDHash].destroyed;\n    }\n\n    // returns whether a given hydroID is active\n    function hydroIDActive(string memory uncasedHydroID) public view returns (bool active) {\n        return uncasedHydroIDHashActive(keccak256(abi.encodePacked(uncasedHydroID.lower())));\n    }\n\n    // Returns a bool indicating whether a given hydroID is active\n    function uncasedHydroIDHashActive(bytes32 uncasedHydroIDHash) private view returns (bool) {\n        return !hydroIDAvailable(uncasedHydroIDHash) && !hydroIDDestroyed(uncasedHydroIDHash);\n    }\n\n\n    // Returns details by uncased hydroID\n    function getDetails(string memory uncasedHydroID) public view\n        returns (uint ein, address _address, string memory casedHydroID)\n    {\n        User storage user = getDetails(keccak256(abi.encodePacked(uncasedHydroID.lower())));\n        return (user.ein, user._address, user.casedHydroID);\n    }\n\n    // Returns details by EIN\n    function getDetails(uint ein) public view returns (address _address, string memory casedHydroID) {\n        User storage user = getDetails(einDirectory[ein]);\n        return (user._address, user.casedHydroID);\n    }\n\n    // Returns details by address\n    function getDetails(address _address) public view returns (uint ein, string memory casedHydroID) {\n        User storage user = getDetails(addressDirectory[_address]);\n        return (user.ein, user.casedHydroID);\n    }\n\n    // common logic for all getDetails\n    function getDetails(bytes32 uncasedHydroIDHash) private view returns (User storage) {\n        require(uncasedHydroIDHashActive(uncasedHydroIDHash), \"HydroID is not active.\");\n        return userDirectory[uncasedHydroIDHash];\n    }\n\n    // Events for when a user signs up for Raindrop Client and when their account is deleted\n    event HydroIDClaimed(uint indexed ein, string hydroID, address userAddress);\n    event HydroIDDestroyed(uint indexed ein, string hydroID, address userAddress);\n}\n",
  "sourcePath": "/home/luiserebii/hydrosnowflake_marketplace_coupons/contracts/resolvers/ClientRaindrop/ClientRaindrop.sol",
  "compiler": {
    "name": "solc",
    "version": "0.5.6+commit.b259423e.Emscripten.clang"
  },
  "schemaVersion": "3.0.6",
  "updatedAt": "2019-04-11T00:38:36.035Z",
  "devdoc": {
    "methods": {
      "isOwner()": {
        "return": "true if `msg.sender` is the owner of the contract."
      },
      "owner()": {
        "return": "the address of the owner."
      },
      "renounceOwnership()": {
        "details": "Allows the current owner to relinquish control of the contract."
      },
      "transferOwnership(address)": {
        "details": "Allows the current owner to transfer control of the contract to a newOwner.",
        "params": {
          "newOwner": "The address to transfer ownership to."
        }
      }
    }
  },
  "userdoc": {
    "methods": {
      "renounceOwnership()": {
        "notice": "Renouncing to ownership will leave the contract without an owner. It will not be possible to call the functions with the `onlyOwner` modifier anymore."
      }
    }
  }
}