{
  "contractName": "CouponMarketplaceVia",
  "abi": [
    {
      "constant": true,
      "inputs": [],
      "name": "CouponMarketplaceResolverAddress",
      "outputs": [
        {
          "name": "",
          "type": "address"
        }
      ],
      "payable": false,
      "stateMutability": "view",
      "type": "function",
      "signature": "0x11206b0c"
    },
    {
      "constant": true,
      "inputs": [],
      "name": "ownerEIN",
      "outputs": [
        {
          "name": "",
          "type": "uint256"
        }
      ],
      "payable": false,
      "stateMutability": "view",
      "type": "function",
      "signature": "0x3e938fb7"
    },
    {
      "constant": false,
      "inputs": [],
      "name": "isEINOwner",
      "outputs": [
        {
          "name": "",
          "type": "bool"
        }
      ],
      "payable": false,
      "stateMutability": "nonpayable",
      "type": "function",
      "signature": "0x5fd5e4d0"
    },
    {
      "constant": false,
      "inputs": [],
      "name": "renounceOwnership",
      "outputs": [],
      "payable": false,
      "stateMutability": "nonpayable",
      "type": "function",
      "signature": "0x715018a6"
    },
    {
      "constant": true,
      "inputs": [],
      "name": "owner",
      "outputs": [
        {
          "name": "",
          "type": "address"
        }
      ],
      "payable": false,
      "stateMutability": "view",
      "type": "function",
      "signature": "0x8da5cb5b"
    },
    {
      "constant": true,
      "inputs": [],
      "name": "isOwner",
      "outputs": [
        {
          "name": "",
          "type": "bool"
        }
      ],
      "payable": false,
      "stateMutability": "view",
      "type": "function",
      "signature": "0x8f32d59b"
    },
    {
      "constant": false,
      "inputs": [
        {
          "name": "_snowflakeAddress",
          "type": "address"
        }
      ],
      "name": "setSnowflakeAddress",
      "outputs": [],
      "payable": false,
      "stateMutability": "nonpayable",
      "type": "function",
      "signature": "0xc979b05a"
    },
    {
      "constant": false,
      "inputs": [
        {
          "name": "newOwner",
          "type": "uint256"
        }
      ],
      "name": "transferOwnership",
      "outputs": [],
      "payable": false,
      "stateMutability": "nonpayable",
      "type": "function",
      "signature": "0xd23e8489"
    },
    {
      "constant": false,
      "inputs": [
        {
          "name": "newOwner",
          "type": "address"
        }
      ],
      "name": "transferOwnership",
      "outputs": [],
      "payable": false,
      "stateMutability": "nonpayable",
      "type": "function",
      "signature": "0xf2fde38b"
    },
    {
      "constant": true,
      "inputs": [],
      "name": "snowflakeAddress",
      "outputs": [
        {
          "name": "",
          "type": "address"
        }
      ],
      "payable": false,
      "stateMutability": "view",
      "type": "function",
      "signature": "0xf9f451b8"
    },
    {
      "inputs": [
        {
          "name": "_snowflakeAddress",
          "type": "address"
        }
      ],
      "payable": false,
      "stateMutability": "nonpayable",
      "type": "constructor",
      "signature": "constructor"
    },
    {
      "anonymous": false,
      "inputs": [
        {
          "indexed": false,
          "name": "total",
          "type": "uint256"
        },
        {
          "indexed": false,
          "name": "amountRefunded",
          "type": "uint256"
        },
        {
          "indexed": false,
          "name": "couponType",
          "type": "uint8"
        },
        {
          "indexed": false,
          "name": "amountOff",
          "type": "uint256"
        },
        {
          "indexed": false,
          "name": "expirationDate",
          "type": "uint256"
        }
      ],
      "name": "CouponProcessed",
      "type": "event",
      "signature": "0x9debd4c4b41b926400898fe31b381ff5de50b82fd249d5094146c291bce16420"
    },
    {
      "anonymous": false,
      "inputs": [
        {
          "indexed": true,
          "name": "previousOwner",
          "type": "uint256"
        },
        {
          "indexed": true,
          "name": "newOwner",
          "type": "uint256"
        }
      ],
      "name": "OwnershipTransferred",
      "type": "event",
      "signature": "0x41545563b5478d4a04f861e33b36e455316904e9fe15096d35d14a5f9885212a"
    },
    {
      "anonymous": false,
      "inputs": [
        {
          "indexed": true,
          "name": "previousOwner",
          "type": "address"
        },
        {
          "indexed": true,
          "name": "newOwner",
          "type": "address"
        }
      ],
      "name": "OwnershipTransferred",
      "type": "event",
      "signature": "0x8be0079c531659141344cd1fd0a4f28419497f9722a3daafe3b4186f6b6457e0"
    },
    {
      "constant": false,
      "inputs": [
        {
          "name": "",
          "type": "address"
        },
        {
          "name": "",
          "type": "uint256"
        },
        {
          "name": "",
          "type": "uint256"
        },
        {
          "name": "",
          "type": "uint256"
        },
        {
          "name": "snowflakeCallBytes",
          "type": "bytes"
        }
      ],
      "name": "snowflakeCall",
      "outputs": [],
      "payable": false,
      "stateMutability": "nonpayable",
      "type": "function",
      "signature": "0x1c75edfe"
    },
    {
      "constant": false,
      "inputs": [
        {
          "name": "",
          "type": "address"
        },
        {
          "name": "",
          "type": "uint256"
        },
        {
          "name": "",
          "type": "address"
        },
        {
          "name": "",
          "type": "uint256"
        },
        {
          "name": "",
          "type": "bytes"
        }
      ],
      "name": "snowflakeCall",
      "outputs": [],
      "payable": false,
      "stateMutability": "nonpayable",
      "type": "function",
      "signature": "0x3aaaa8a0"
    },
    {
      "constant": false,
      "inputs": [
        {
          "name": "",
          "type": "address"
        },
        {
          "name": "",
          "type": "uint256"
        },
        {
          "name": "",
          "type": "uint256"
        },
        {
          "name": "",
          "type": "bytes"
        }
      ],
      "name": "snowflakeCall",
      "outputs": [],
      "payable": false,
      "stateMutability": "nonpayable",
      "type": "function",
      "signature": "0x3c72e439"
    },
    {
      "constant": false,
      "inputs": [
        {
          "name": "",
          "type": "address"
        },
        {
          "name": "",
          "type": "address"
        },
        {
          "name": "",
          "type": "uint256"
        },
        {
          "name": "",
          "type": "bytes"
        }
      ],
      "name": "snowflakeCall",
      "outputs": [],
      "payable": false,
      "stateMutability": "nonpayable",
      "type": "function",
      "signature": "0xe5a13092"
    },
    {
      "constant": false,
      "inputs": [
        {
          "name": "_CouponMarketplaceResolverAddress",
          "type": "address"
        }
      ],
      "name": "setCouponMarketplaceResolverAddress",
      "outputs": [
        {
          "name": "",
          "type": "bool"
        }
      ],
      "payable": false,
      "stateMutability": "nonpayable",
      "type": "function",
      "signature": "0xe2393ba2"
    }
  ],
  "bytecode": "0x60806040523480156200001157600080fd5b50604051602080620016e2833981018060405260208110156200003357600080fd5b505160008054600160a060020a03191633178082556040518392600160a060020a039290921691907f8be0079c531659141344cd1fd0a4f28419497f9722a3daafe3b4186f6b6457e0908290a36200009481640100000000620000b0810204565b50620000a981640100000000620000ef810204565b50620003db565b620000c36401000000006200012d810204565b620000cd57600080fd5b60018054600160a060020a031916600160a060020a0392909216919091179055565b62000103816401000000006200013e810204565b6200012a6200011b3364010000000062000160810204565b6401000000006200017c810204565b50565b600054600160a060020a0316331490565b60038054600160a060020a031916600160a060020a0392909216919091179055565b60006200017682640100000000620001b1810204565b92915050565b600281905560405181906000907f41545563b5478d4a04f861e33b36e455316904e9fe15096d35d14a5f9885212a908290a350565b600354604080517fa759ee6f0000000000000000000000000000000000000000000000000000000081529051600092600160a060020a0316918391839163a759ee6f91600480830192602092919082900301818787803b1580156200021557600080fd5b505af11580156200022a573d6000803e3d6000fd5b505050506040513d60208110156200024157600080fd5b5051604080517f237f1a21000000000000000000000000000000000000000000000000000000008152600160a060020a038781166004830152915192935083929183169163237f1a2191602480820192602092909190829003018186803b158015620002ac57600080fd5b505afa158015620002c1573d6000803e3d6000fd5b505050506040513d6020811015620002d857600080fd5b505162000331576040517f08c379a0000000000000000000000000000000000000000000000000000000008152600401808060200182810382526028815260200180620016ba6028913960400191505060405180910390fd5b80600160a060020a03166305c62c2f866040518263ffffffff167c01000000000000000000000000000000000000000000000000000000000281526004018082600160a060020a0316600160a060020a0316815260200191505060206040518083038186803b158015620003a457600080fd5b505afa158015620003b9573d6000803e3d6000fd5b505050506040513d6020811015620003d057600080fd5b505195945050505050565b6112cf80620003eb6000396000f3fe608060405234801561001057600080fd5b50600436106100f95760003560e060020a900480638da5cb5b1161009b578063e2393ba21161006a578063e2393ba214610395578063e5a13092146103bb578063f2fde38b1461040c578063f9f451b814610432576100f9565b80638da5cb5b146103425780638f32d59b1461034a578063c979b05a14610352578063d23e848914610378576100f9565b80633c72e439116100d75780633c72e439146102b75780633e938fb7146103045780635fd5e4d01461031e578063715018a61461033a576100f9565b806311206b0c146100fe5780631c75edfe146101225780633aaaa8a0146101eb575b600080fd5b61010661043a565b60408051600160a060020a039092168252519081900360200190f35b6101e9600480360360a081101561013857600080fd5b600160a060020a038235169160208101359160408201359160608101359181019060a08101608082013564010000000081111561017457600080fd5b82018360208201111561018657600080fd5b803590602001918460018302840111640100000000831117156101a857600080fd5b91908080601f016020809104026020016040519081016040528093929190818152602001838380828437600092019190915250929550610449945050505050565b005b6101e9600480360360a081101561020157600080fd5b600160a060020a0382358116926020810135926040820135909216916060820135919081019060a08101608082013564010000000081111561024257600080fd5b82018360208201111561025457600080fd5b8035906020019184600183028401116401000000008311171561027657600080fd5b91908080601f0160208091040260200160405190810160405280939291908181526020018383808284376000920191909152509295506104f1945050505050565b6101e9600480360360808110156102cd57600080fd5b600160a060020a03823516916020810135916040820135919081019060808101606082013564010000000081111561024257600080fd5b61030c61058d565b60408051918252519081900360200190f35b610326610593565b604080519115158252519081900360200190f35b6101e96105a2565b6101066105e9565b6103266105f8565b6101e96004803603602081101561036857600080fd5b5035600160a060020a0316610609565b6101e96004803603602081101561038e57600080fd5b5035610649565b610326600480360360208110156103ab57600080fd5b5035600160a060020a0316610666565b6101e9600480360360808110156103d157600080fd5b600160a060020a0382358116926020810135909116916040820135919081019060808101606082013564010000000081111561024257600080fd5b6101e96004803603602081101561042257600080fd5b5035600160a060020a03166106ab565b6101066106c5565b600454600160a060020a031681565b600154600160a060020a031633146104955760405160e560020a62461bcd0281526004018080602001828103825260218152602001806112836021913960400191505060405180910390fd5b60008060008060008580602001905160a08110156104b257600080fd5b508051602082015160408301516060840151608090940151929850909650945090925090506104e485858585856106d4565b5050505050505050505050565b600154600160a060020a0316331461053d5760405160e560020a62461bcd0281526004018080602001828103825260218152602001806112836021913960400191505060405180910390fd5b6040805160e560020a62461bcd02815260206004820152601060248201527f4e6f7420496d706c656d656e7465642e00000000000000000000000000000000604482015290519081900360640190fd5b60025490565b600061059d610d1e565b905090565b6105aa610593565b6105b357600080fd5b600254604051600091907f41545563b5478d4a04f861e33b36e455316904e9fe15096d35d14a5f9885212a908390a36000600255565b600054600160a060020a031690565b600054600160a060020a0316331490565b6106116105f8565b61061a57600080fd5b6001805473ffffffffffffffffffffffffffffffffffffffff1916600160a060020a0392909216919091179055565b610651610593565b61065a57600080fd5b61066381610d37565b50565b6000610670610593565b61067957600080fd5b5060048054600160a060020a03831673ffffffffffffffffffffffffffffffffffffffff199091161790556001919050565b6106b36105f8565b6106bc57600080fd5b61066381610d75565b600354600160a060020a031681565b60048054604080517f9c5f41560000000000000000000000000000000000000000000000000000000081529051600093600160a060020a039093169284928492639c5f415692828101926020929190829003018186803b15801561073757600080fd5b505afa15801561074b573d6000803e3d6000fd5b505050506040513d602081101561076157600080fd5b5051600354909150600160a060020a0316858515610b275760008085600160a060020a03166380b212996040518163ffffffff1660e060020a02815260040160206040518083038186803b1580156107b857600080fd5b505afa1580156107cc573d6000803e3d6000fd5b505050506040513d60208110156107e257600080fd5b505190506107f1818985610df0565b809350819450505084600160a060020a0316637f493d9c8b8d8f6040518463ffffffff1660e060020a028152600401808481526020018381526020018281526020019350505050600060405180830381600087803b15801561085257600080fd5b505af1158015610866573d6000803e3d6000fd5b50505050600084600160a060020a03166375d7e4bd6040518163ffffffff1660e060020a028152600401602060405180830381600087803b1580156108aa57600080fd5b505af11580156108be573d6000803e3d6000fd5b505050506040513d60208110156108d457600080fd5b5051604080517f633423be0000000000000000000000000000000000000000000000000000000081529051919250600160a060020a038084169263a9059cbb92918b169163633423be916004808301926020929190829003018186803b15801561093d57600080fd5b505afa158015610951573d6000803e3d6000fd5b505050506040513d602081101561096757600080fd5b50516040805160e060020a63ffffffff8516028152600160a060020a039092166004830152602482018890525160448083019260209291908290030181600087803b1580156109b557600080fd5b505af11580156109c9573d6000803e3d6000fd5b505050506040513d60208110156109df57600080fd5b81019080805190602001909291905050505080600160a060020a031663cae9ca51600360009054906101000a9004600160a060020a0316858f604051602001808281526020019150506040516020818303038152906040526040518463ffffffff1660e060020a0281526004018084600160a060020a0316600160a060020a0316815260200183815260200180602001828103825283818151815260200191508051906020019080838360005b83811015610aa4578181015183820152602001610a8c565b50505050905090810190601f168015610ad15780820380516001836020036101000a031916815260200191505b50945050505050602060405180830381600087803b158015610af257600080fd5b505af1158015610b06573d6000803e3d6000fd5b505050506040513d6020811015610b1c57600080fd5b50610d119350505050565b82600160a060020a0316637f493d9c898b8d6040518463ffffffff1660e060020a028152600401808481526020018381526020018281526020019350505050600060405180830381600087803b158015610b8057600080fd5b505af1158015610b94573d6000803e3d6000fd5b50505050600082600160a060020a03166375d7e4bd6040518163ffffffff1660e060020a028152600401602060405180830381600087803b158015610bd857600080fd5b505af1158015610bec573d6000803e3d6000fd5b505050506040513d6020811015610c0257600080fd5b5051604080517f633423be0000000000000000000000000000000000000000000000000000000081529051919250600160a060020a038084169263a9059cbb929189169163633423be916004808301926020929190829003018186803b158015610c6b57600080fd5b505afa158015610c7f573d6000803e3d6000fd5b505050506040513d6020811015610c9557600080fd5b50516040805160e060020a63ffffffff8516028152600160a060020a039092166004830152602482018690525160448083019260209291908290030181600087803b158015610ce357600080fd5b505af1158015610cf7573d6000803e3d6000fd5b505050506040513d6020811015610d0d57600080fd5b5050505b5050505095945050505050565b6000610d2861058d565b610d3133610fd6565b14905090565b80610d4157600080fd5b6002546040518291907f41545563b5478d4a04f861e33b36e455316904e9fe15096d35d14a5f9885212a90600090a3600255565b600160a060020a038116610d8857600080fd5b60008054604051600160a060020a03808516939216917f8be0079c531659141344cd1fd0a4f28419497f9722a3daafe3b4186f6b6457e091a36000805473ffffffffffffffffffffffffffffffffffffffff1916600160a060020a0392909216919091179055565b600080600083905060008060008089600160a060020a031663f29724a48a6040518263ffffffff1660e060020a0281526004018082815260200191505060606040518083038186803b158015610e4557600080fd5b505afa158015610e59573d6000803e3d6000fd5b505050506040513d6060811015610e6f57600080fd5b50805160208201516040909201519094509092509050428111610edc576040805160e560020a62461bcd02815260206004820152601260248201527f436f75706f6e2069732065787069726564210000000000000000000000000000604482015290519081900360640190fd5b6000836003811115610eea57fe5b1415610f0057610efa85836111c5565b94508193505b89600160a060020a031663043f5cbb8a6040518263ffffffff1660e060020a02815260040180828152602001915050600060405180830381600087803b158015610f4957600080fd5b505af1158015610f5d573d6000803e3d6000fd5b505050507f9debd4c4b41b926400898fe31b381ff5de50b82fd249d5094146c291bce16420858585858560405180868152602001858152602001846003811115610fa357fe5b60ff1681526020018381526020018281526020019550505050505060405180910390a15092989197509095505050505050565b600354604080517fa759ee6f0000000000000000000000000000000000000000000000000000000081529051600092600160a060020a0316918391839163a759ee6f91600480830192602092919082900301818787803b15801561103957600080fd5b505af115801561104d573d6000803e3d6000fd5b505050506040513d602081101561106357600080fd5b5051604080517f237f1a21000000000000000000000000000000000000000000000000000000008152600160a060020a038781166004830152915192935083929183169163237f1a2191602480820192602092909190829003018186803b1580156110cd57600080fd5b505afa1580156110e1573d6000803e3d6000fd5b505050506040513d60208110156110f757600080fd5b50516111375760405160e560020a62461bcd02815260040180806020018281038252602881526020018061125b6028913960400191505060405180910390fd5b80600160a060020a03166305c62c2f866040518263ffffffff1660e060020a0281526004018082600160a060020a0316600160a060020a0316815260200191505060206040518083038186803b15801561119057600080fd5b505afa1580156111a4573d6000803e3d6000fd5b505050506040513d60208110156111ba57600080fd5b505195945050505050565b6000818310156112095760405160e560020a62461bcd0281526004018080602001828103825260228152602001806112396022913960400191505060405180910390fd5b600061121b848463ffffffff61122316565b949350505050565b60008282111561123257600080fd5b5090039056fe436f75706f6e20616d6f756e7420697320686967686572207468616e20746f74616c41646472657373206e6f6e2d6578697374656e7420696e204964656e746974795265676973747279446964206e6f74206f726967696e6174652066726f6d20536e6f77666c616b652ea165627a7a723058205c9f004f8a594cc7c0fd2505a0b0768c219f22cdf34fa28a2a34a3272741541d002941646472657373206e6f6e2d6578697374656e7420696e204964656e746974795265676973747279",
  "source": "pragma solidity ^0.5.0;\n\nimport \"./SnowflakeVia.sol\";\nimport \"./interfaces/SnowflakeResolverInterface.sol\";\nimport \"./zeppelin/math/SafeMath.sol\";\nimport \"./interfaces/CouponMarketplaceResolverInterface.sol\";\nimport \"./interfaces/SnowflakeInterface.sol\";\nimport \"./resolvers/CouponMarketplaceResolver.sol\";\nimport \"./ein/util/SnowflakeEINOwnable.sol\";\nimport \"./interfaces/HydroInterface.sol\";\n\nimport \"./interfaces/marketplace/CouponInterface.sol\";\nimport \"./interfaces/marketplace/ItemInterface.sol\";\n\nimport \"./marketplace/features/CouponFeature.sol\";\nimport \"./marketplace/features/ItemFeature.sol\";\n\n\ncontract CouponMarketplaceVia is SnowflakeVia, SnowflakeEINOwnable {\n\n\n    //We may need to define this in a seperate file... uncertain if this will quite work being in two different locations\n\n//   This is now defined within the CouponMarketplaceResolverInterface.sol, let's test this...\n//    enum CouponType { AMOUNT_OFF, PERCENTAGE_OFF, BUY_X_QTY_GET_Y_FREE , BUY_X_QTY_FOR_Y_AMNT }\n    \n    using SafeMath for uint256;\n\n    address public CouponMarketplaceResolverAddress;\n\n    constructor(address _snowflakeAddress) SnowflakeVia(_snowflakeAddress) public {\n        //Constructing parents\n        _constructSnowflakeEINOwnable(_snowflakeAddress);\n \n        //Regular constructor\n        //setSnowflakeAddress(_snowflakeAddress);\n        \n    }\n\n    // end recipient is an EIN\n    function snowflakeCall(\n        address /* resolver */,\n        uint /* einFrom */,\n        uint /* einTo */,\n        uint /* amount */,\n        bytes memory snowflakeCallBytes \n    ) public senderIsSnowflake {\n\n\n//        (bool success, bytes memory returnData) = address(this).call(snowflakeCallBytes);\n//        require(success, \".call() to snowflakeCallBytes failed!\");\n\n        (/*bytes4 selector, */uint itemID, uint einBuyer, uint einSeller, uint amount, uint couponID) = abi.decode(snowflakeCallBytes, (/*bytes4, */uint256, uint256, uint256, uint256, uint256));\n        processTransaction(itemID, einBuyer, einSeller, amount, couponID);\n        \n\n    }\n\n\n    //Name of this function is perhaps a little misleading, since amount has already been transferred, we're just calcing coupon here\n    //TODO: Should we have the NeoCouponMarketplaceResolverAddress exist, or just take the address resolver passed here? Completely forgot we were give this, and now this param is being unused\n    //***NOTE***: Removed modifier for testing purposes; very dangerous!!!\n    function processTransaction(/*address resolver, */uint itemID, uint einBuyer, uint einSeller, uint amount, uint couponID) internal /*senderIsSnowflake*/ returns (bool) {\n\n        //Initialize NeoCouponMarketplaceResolverAddress\n        CouponMarketplaceResolver mktResolver = CouponMarketplaceResolver(CouponMarketplaceResolverAddress);\n \n        ItemFeature itemFeature = ItemFeature(mktResolver.ItemFeatureAddress());\n \n        //Initialize Snowflake\n        SnowflakeInterface snowflake = SnowflakeInterface(snowflakeAddress);\n\n        //Declare our total\n        uint total = amount;\n \n        //Since couponID == 0 means we do not have a coupon, we check this first\n        if(couponID != 0){\n\n            uint amountRefund;\n            //TODO: Break this out into its own function thingie\n\n            //Get coupon info from our coupon feature contract\n            CouponFeature couponFeature = CouponFeature(mktResolver.CouponFeatureAddress());\n\n            (total, amountRefund) = _processCoupon(couponFeature, couponID, total);\n\n            //Send item to buyer\n            itemFeature.transferFromAddress(einSeller, einBuyer, itemID);\n\n            //Send to seller payment address\n            HydroInterface hydro = HydroInterface(snowflake.hydroTokenAddress());\n            hydro.transfer(mktResolver.paymentAddress(), total);     \n \n            //Finally, let's return their amount... (for security reasons, we follow Checks-Effect-Interaction pattern and modify state last...)\n            //This will result in a SnowflakeDeposit; see receiveApproval() of Snowflake contract\n            hydro.approveAndCall(snowflakeAddress, amountRefund, abi.encode(einBuyer));\n\n        } else {\n\n            //Send item to buyer\n            itemFeature.transferFromAddress(einSeller, einBuyer, itemID);\n\n            //Send our total charged to buyer addr via snowflake\n//            snowflake.transferSnowflakeBalance(einSeller, total);\n            \n            //We will send it to the seller payment address, actually...\n            HydroInterface hydro = HydroInterface(snowflake.hydroTokenAddress());\n            hydro.transfer(mktResolver.paymentAddress(), total);\n            \n            //Actually, I think the Resolver has HYDRO sent to address directly to this contract, so it may just be a regular send, check later\n\n        }\n    }\n\n    function _processCoupon(CouponFeature couponFeature, uint256 couponID, uint256 _total) internal returns (uint256 /*total*/, uint256 /*amountRefund*/) {\n\n        uint256 total = _total;\n        uint256 amountRefund;\n        \n        //Get coupon info from our coupon feature contract\n        //CouponFeature couponFeature = CouponFeature(mktResolver.CouponFeatureAddress());\n\n        (CouponInterface.CouponType couponType, uint256 amountOff, uint expirationDate) = couponFeature.getCouponSimple(couponID);\n\n        //Ensure coupon is not expired\n        require(now < expirationDate, \"Coupon is expired!\");\n\n        //If couponType is amountOff...\n        if(couponType == CouponInterface.CouponType.AMOUNT_OFF){\n            total = _applyCouponAmountOff(total, amountOff);\n            amountRefund = amountOff;\n        }\n\n \n        //Send coupon to burner address\n        couponFeature.burnAddress(couponID);\n\n        //NOTE: NEED TO GIVE COUPON ALLOWANCE TO VIA CONTRACT FOR THIS TO WORK\n\n        //In an event, let's push the transaction or something\n        emit CouponProcessed(total, amountRefund, couponType, amountOff, expirationDate);\n\n        return (total, amountRefund);\n    }\n\n\n    function _applyCouponAmountOff(uint256 total, uint256 amountOff) pure private returns (uint256) {\n        require(total >= amountOff, \"Coupon amount is higher than total\");\n        uint256 newTotal = total.sub(amountOff);\n        return newTotal;\n    }\n\n    // end recipient is an EIN, no from field\n    function snowflakeCall(\n        address /* resolver */,\n        uint /* einTo */,\n        uint /* amount */,\n        bytes memory /* snowflakeCallBytes */\n    ) public senderIsSnowflake {\n        revert(\"Not Implemented.\");\n    }\n\n    // end recipient is an address\n    function snowflakeCall(\n        address /* resolver */,\n        uint /* einFrom */,\n        address payable /* to */,\n        uint /* amount */,\n        bytes memory /* snowflakeCallBytes */\n    ) public senderIsSnowflake {\n        revert(\"Not Implemented.\");\n    }\n\n    // end recipient is an address, no from field\n    function snowflakeCall(\n        address /* resolver */,\n        address payable /* to */,\n        uint /* amount */,\n        bytes memory /* snowflakeCallBytes */\n    ) public senderIsSnowflake {\n        revert(\"Not Implemented.\");\n    }\n\n    function setCouponMarketplaceResolverAddress(address _CouponMarketplaceResolverAddress) public onlyEINOwner returns (bool) {\n        CouponMarketplaceResolverAddress = _CouponMarketplaceResolverAddress;\n        return true;\n}\n\n    \n    event CouponProcessed(uint total, uint amountRefunded, CouponInterface.CouponType couponType, uint256 amountOff, uint expirationDate);\n\n\n\n\n}\n\n",
  "sourcePath": "/home/luiserebii/github/HydroSnowflake-Marketplace-Coupons/contracts/CouponMarketplaceVia.sol",
  "compiler": {
    "name": "solc",
    "version": "0.5.6+commit.b259423e.Emscripten.clang"
  },
  "schemaVersion": "3.0.6",
  "updatedAt": "2019-04-12T02:45:45.198Z",
  "devdoc": {
    "methods": {
      "isEINOwner()": {
        "return": "true if address resolves to owner of the contract."
      },
      "isOwner()": {
        "return": "true if `msg.sender` is the owner of the contract."
      },
      "owner()": {
        "return": "the address of the owner."
      },
      "ownerEIN()": {
        "return": "the EIN of the owner."
      },
      "renounceOwnership()": {
        "details": "Allows the current owner to relinquish control of the contract."
      },
      "transferOwnership(address)": {
        "details": "Allows the current owner to transfer control of the contract to a newOwner.",
        "params": {
          "newOwner": "The address to transfer ownership to."
        }
      },
      "transferOwnership(uint256)": {
        "details": "Allows the current owner to transfer control of the contract to a newOwner.",
        "params": {
          "newOwner": "The address to transfer ownership to."
        }
      }
    }
  },
  "userdoc": {
    "methods": {
      "renounceOwnership()": {
        "notice": "Renouncing to ownership will leave the contract without an owner. It will not be possible to call the functions with the `onlyOwner` modifier anymore."
      }
    }
  }
}