{
  "contractName": "CouponDistribution",
  "abi": [
    {
      "constant": true,
      "inputs": [],
      "name": "SnowflakeEINMarketplaceAddress",
      "outputs": [
        {
          "name": "",
          "type": "address"
        }
      ],
      "payable": false,
      "stateMutability": "view",
      "type": "function",
      "signature": "0x32b351a0"
    },
    {
      "constant": true,
      "inputs": [],
      "name": "ownerEIN",
      "outputs": [
        {
          "name": "",
          "type": "uint256"
        }
      ],
      "payable": false,
      "stateMutability": "view",
      "type": "function",
      "signature": "0x3e938fb7"
    },
    {
      "constant": false,
      "inputs": [],
      "name": "isEINOwner",
      "outputs": [
        {
          "name": "",
          "type": "bool"
        }
      ],
      "payable": false,
      "stateMutability": "nonpayable",
      "type": "function",
      "signature": "0x5fd5e4d0"
    },
    {
      "constant": false,
      "inputs": [],
      "name": "renounceOwnership",
      "outputs": [],
      "payable": false,
      "stateMutability": "nonpayable",
      "type": "function",
      "signature": "0x715018a6"
    },
    {
      "constant": false,
      "inputs": [
        {
          "name": "newOwner",
          "type": "uint256"
        }
      ],
      "name": "transferOwnership",
      "outputs": [],
      "payable": false,
      "stateMutability": "nonpayable",
      "type": "function",
      "signature": "0xd23e8489"
    },
    {
      "constant": true,
      "inputs": [],
      "name": "snowflakeAddress",
      "outputs": [
        {
          "name": "",
          "type": "address"
        }
      ],
      "payable": false,
      "stateMutability": "view",
      "type": "function",
      "signature": "0xf9f451b8"
    },
    {
      "inputs": [
        {
          "name": "_SnowflakeEINMarketplaceAddress",
          "type": "address"
        },
        {
          "name": "_snowflakeAddress",
          "type": "address"
        }
      ],
      "payable": false,
      "stateMutability": "nonpayable",
      "type": "constructor",
      "signature": "constructor"
    },
    {
      "anonymous": false,
      "inputs": [
        {
          "indexed": true,
          "name": "previousOwner",
          "type": "uint256"
        },
        {
          "indexed": true,
          "name": "newOwner",
          "type": "uint256"
        }
      ],
      "name": "OwnershipTransferred",
      "type": "event",
      "signature": "0x41545563b5478d4a04f861e33b36e455316904e9fe15096d35d14a5f9885212a"
    },
    {
      "constant": false,
      "inputs": [
        {
          "name": "_SnowflakeEINMarketplaceAddress",
          "type": "address"
        }
      ],
      "name": "setSnowflakeEINMarketplaceAddress",
      "outputs": [
        {
          "name": "",
          "type": "bool"
        }
      ],
      "payable": false,
      "stateMutability": "nonpayable",
      "type": "function",
      "signature": "0x08fbfd2b"
    },
    {
      "constant": false,
      "inputs": [
        {
          "name": "couponID",
          "type": "uint256"
        },
        {
          "name": "data",
          "type": "bytes"
        }
      ],
      "name": "distributeCoupon",
      "outputs": [
        {
          "name": "",
          "type": "bool"
        }
      ],
      "payable": false,
      "stateMutability": "nonpayable",
      "type": "function",
      "signature": "0x45247134"
    },
    {
      "constant": false,
      "inputs": [
        {
          "name": "couponID",
          "type": "uint256"
        }
      ],
      "name": "distributeCoupon",
      "outputs": [
        {
          "name": "",
          "type": "bool"
        }
      ],
      "payable": false,
      "stateMutability": "nonpayable",
      "type": "function",
      "signature": "0x7604c500"
    }
  ],
  "bytecode": "0x608060405234801561001057600080fd5b50604051604080610bd38339810180604052604081101561003057600080fd5b50805160209091015161004c8282640100000000610054810204565b505050610353565b60006100688264010000000061008d810204565b60028054600160a060020a031916600160a060020a0394909416939093179092555090565b61009f816401000000006100c5810204565b6100c26100b4336401000000006100e7810204565b640100000000610101810204565b50565b60018054600160a060020a031916600160a060020a0392909216919091179055565b60006100fb82640100000000610134810204565b92915050565b60008181556040518291907f41545563b5478d4a04f861e33b36e455316904e9fe15096d35d14a5f9885212a908290a350565b600154604080517fa759ee6f0000000000000000000000000000000000000000000000000000000081529051600092600160a060020a0316918391839163a759ee6f91600480830192602092919082900301818787803b15801561019757600080fd5b505af11580156101ab573d6000803e3d6000fd5b505050506040513d60208110156101c157600080fd5b5051604080517f237f1a21000000000000000000000000000000000000000000000000000000008152600160a060020a038781166004830152915192935083929183169163237f1a2191602480820192602092909190829003018186803b15801561022b57600080fd5b505afa15801561023f573d6000803e3d6000fd5b505050506040513d602081101561025557600080fd5b50516102ac576040517f08c379a0000000000000000000000000000000000000000000000000000000008152600401808060200182810382526028815260200180610bab6028913960400191505060405180910390fd5b80600160a060020a03166305c62c2f866040518263ffffffff167c01000000000000000000000000000000000000000000000000000000000281526004018082600160a060020a0316600160a060020a0316815260200191505060206040518083038186803b15801561031e57600080fd5b505afa158015610332573d6000803e3d6000fd5b505050506040513d602081101561034857600080fd5b505195945050505050565b610849806103626000396000f3fe608060405234801561001057600080fd5b50600436106100975760003560e060020a900480635fd5e4d01161006a5780635fd5e4d0146101c1578063715018a6146101c95780637604c500146101d3578063d23e8489146101f0578063f9f451b81461020d57610097565b806308fbfd2b1461009c57806332b351a0146100d65780633e938fb7146100fa5780634524713414610114575b600080fd5b6100c2600480360360208110156100b257600080fd5b5035600160a060020a0316610215565b604080519115158252519081900360200190f35b6100de610259565b60408051600160a060020a039092168252519081900360200190f35b610102610268565b60408051918252519081900360200190f35b6100c26004803603604081101561012a57600080fd5b8135919081019060408101602082013564010000000081111561014c57600080fd5b82018360208201111561015e57600080fd5b8035906020019184600183028401116401000000008311171561018057600080fd5b91908080601f01602080910402602001604051908101604052809392919081815260200183838082843760009201919091525092955061026e945050505050565b6100c26102e5565b6101d16102f4565b005b6100c2600480360360208110156101e957600080fd5b5035610337565b6101d16004803603602081101561020657600080fd5b50356103ac565b6100de6103c9565b600061021f6102e5565b61022857600080fd5b6002805473ffffffffffffffffffffffffffffffffffffffff1916600160a060020a03939093169290921790915590565b600254600160a060020a031681565b60005490565b600254600090600160a060020a031633146102d4576040517f08c379a000000000000000000000000000000000000000000000000000000000815260040180806020018281038252606d815260200180610789606d913960800191505060405180910390fd5b6102de83836103d8565b9392505050565b60006102ef610482565b905090565b6102fc6102e5565b61030557600080fd5b600080546040517f41545563b5478d4a04f861e33b36e455316904e9fe15096d35d14a5f9885212a908390a360008055565b600254600090600160a060020a0316331461039d576040517f08c379a000000000000000000000000000000000000000000000000000000000815260040180806020018281038252606d815260200180610789606d913960800191505060405180910390fd5b6103a68261049b565b92915050565b6103b46102e5565b6103bd57600080fd5b6103c681610547565b50565b600154600160a060020a031681565b600254604080517ff10b5607000000000000000000000000000000000000000000000000000000008152600a60048201819052602482018690529151600093600160a060020a03169291839163f10b56079160448082019260209290919082900301818987803b15801561044b57600080fd5b505af115801561045f573d6000803e3d6000fd5b505050506040513d602081101561047557600080fd5b5060019695505050505050565b600061048c610268565b61049533610582565b14905090565b600254600090600160a060020a0316815b600581101561053d5781600160a060020a031663f10b560782600101866040518363ffffffff1660e060020a0281526004018083815260200182815260200192505050602060405180830381600087803b15801561050957600080fd5b505af115801561051d573d6000803e3d6000fd5b505050506040513d602081101561053357600080fd5b50506001016104ac565b5060019392505050565b8061055157600080fd5b6000805460405183927f41545563b5478d4a04f861e33b36e455316904e9fe15096d35d14a5f9885212a91a3600055565b600154604080517fa759ee6f0000000000000000000000000000000000000000000000000000000081529051600092600160a060020a0316918391839163a759ee6f91600480830192602092919082900301818787803b1580156105e557600080fd5b505af11580156105f9573d6000803e3d6000fd5b505050506040513d602081101561060f57600080fd5b5051604080517f237f1a21000000000000000000000000000000000000000000000000000000008152600160a060020a038781166004830152915192935083929183169163237f1a2191602480820192602092909190829003018186803b15801561067957600080fd5b505afa15801561068d573d6000803e3d6000fd5b505050506040513d60208110156106a357600080fd5b50516106fa576040517f08c379a00000000000000000000000000000000000000000000000000000000081526004018080602001828103825260288152602001806107f66028913960400191505060405180910390fd5b80600160a060020a03166305c62c2f866040518263ffffffff1660e060020a0281526004018082600160a060020a0316600160a060020a0316815260200191505060206040518083038186803b15801561075357600080fd5b505afa158015610767573d6000803e3d6000fd5b505050506040513d602081101561077d57600080fd5b50519594505050505056fe4572726f72205b436f75706f6e446973747269627574696f6e2e736f6c5d3a2053656e646572206973206e6f7420536e6f77666c616b6545494e4d61726b6574706c61636520616464726573732c20617320646566696e65642077697468696e2074686520636f6e747261637441646472657373206e6f6e2d6578697374656e7420696e204964656e746974795265676973747279a165627a7a723058207fdd81200f13c894006ed771868eb96b83add620e922bed483893748b9f6e869002941646472657373206e6f6e2d6578697374656e7420696e204964656e746974795265676973747279",
  "source": "pragma solidity ^0.5.0;\n\nimport \"../../../ein/util/SnowflakeEINOwnable.sol\";\nimport \"../../../interfaces/marketplace/features/coupon_distribution/CouponDistributionInterface.sol\";\nimport \"../CouponFeature.sol\";\nimport \"../../../interfaces/marketplace/SnowflakeEINMarketplaceInterface.sol\";\n\ncontract CouponDistribution is CouponDistributionInterface, SnowflakeEINOwnable {\n\n/*\n\nCoupon generation function should take the following parameters:\n\n    Item type - the type of item for which this coupon applies\n    Discount rate - the percentage discount the coupon offers\n    Distribution address - defines the logic for how coupons are distributed; must follow a standard interface with a function that can be called from the coupon-generation function to define the initial distribution of coupons once generated.\n    Each coupon should have a uuid\n\n    I think this contract could be call an external function like:\n    \"giveUserCoupon\" from the Marketplace\n\n*/    \n    \n    address public SnowflakeEINMarketplaceAddress;\n\n\n    constructor(address _SnowflakeEINMarketplaceAddress, address _snowflakeAddress) public {\n        _constructCouponDistribution(_SnowflakeEINMarketplaceAddress, _snowflakeAddress);\n    }\n\n    function _constructCouponDistribution(address _SnowflakeEINMarketplaceAddress, address _snowflakeAddress) internal returns (bool) {\n\n        _constructSnowflakeEINOwnable(_snowflakeAddress);\n\n        //Actual internal construction\n        SnowflakeEINMarketplaceAddress = _SnowflakeEINMarketplaceAddress;\n    }\n\n    //Function for the owner to switch the address of the CouponFeature, which is why this contract is SnowflakeEINOwnable\n    function setSnowflakeEINMarketplaceAddress(address _SnowflakeEINMarketplaceAddress) public onlyEINOwner returns (bool) {\n        SnowflakeEINMarketplaceAddress = _SnowflakeEINMarketplaceAddress;\n    }\n\n    /*==== Distribution Logic ====*/\n\n    //For manual logic here, perhaps we should add an optional bytes data parameter? \n    //This would just be ABI-encoded params\n    function distributeCoupon(uint256 couponID, bytes memory data) public onlySnowflakeEINMarketplace returns (bool) {\n        return _distributeCoupon(couponID, data);\n    }\n    \n    function _distributeCoupon(uint256 couponID, bytes memory /*/data*/) internal returns (bool) {\n        SnowflakeEINMarketplaceInterface marketplace = SnowflakeEINMarketplaceInterface(SnowflakeEINMarketplaceAddress);\n        //sample distribution of coupon to EIN 10\n        uint256 arbitraryEIN = 10;\n        marketplace.giveUserCoupon(arbitraryEIN, couponID);\n        return true; \n   }   \n\n    //Same set of functions as above, simply without data param    \n    function distributeCoupon(uint256 couponID) public onlySnowflakeEINMarketplace returns (bool) {\n        return _distributeCoupon(couponID);\n    }\n    \n    function _distributeCoupon(uint256 couponID) internal returns (bool) {\n        SnowflakeEINMarketplaceInterface marketplace = SnowflakeEINMarketplaceInterface(SnowflakeEINMarketplaceAddress);\n        //sample distribution of coupon to EINs 1-5\n        for(uint i = 0; i < 5; i++){\n            marketplace.giveUserCoupon(i+1, couponID);\n        }\n        return true; \n        \n    }   \n    \n\n\n    \n    modifier onlySnowflakeEINMarketplace() {\n        require(msg.sender == SnowflakeEINMarketplaceAddress, \"Error [CouponDistribution.sol]: Sender is not SnowflakeEINMarketplace address, as defined within the contract\");\n        _;\n    }\n    \n    \n    \n}\n",
  "sourcePath": "/home/luiserebii/github/HydroSnowflake-Marketplace-Coupons/contracts/marketplace/features/coupon_distribution/CouponDistribution.sol",
  "compiler": {
    "name": "solc",
    "version": "0.5.7+commit.6da8b019.Emscripten.clang"
  },
  "schemaVersion": "3.0.6",
  "updatedAt": "2019-04-16T02:33:05.064Z",
  "devdoc": {
    "methods": {
      "isEINOwner()": {
        "return": "true if address resolves to owner of the contract."
      },
      "ownerEIN()": {
        "return": "the EIN of the owner."
      },
      "renounceOwnership()": {
        "details": "Allows the current owner to relinquish control of the contract."
      },
      "transferOwnership(uint256)": {
        "details": "Allows the current owner to transfer control of the contract to a newOwner.",
        "params": {
          "newOwner": "The address to transfer ownership to."
        }
      }
    }
  },
  "userdoc": {
    "methods": {
      "renounceOwnership()": {
        "notice": "Renouncing to ownership will leave the contract without an owner. It will not be possible to call the functions with the `onlyOwner` modifier anymore."
      }
    }
  }
}