{
  "contractName": "Coupons",
  "abi": [
    {
      "constant": true,
      "inputs": [
        {
          "name": "interfaceId",
          "type": "bytes4"
        }
      ],
      "name": "supportsInterface",
      "outputs": [
        {
          "name": "",
          "type": "bool"
        }
      ],
      "payable": false,
      "stateMutability": "view",
      "type": "function"
    },
    {
      "constant": false,
      "inputs": [
        {
          "name": "tokenId",
          "type": "uint256"
        }
      ],
      "name": "burnAddress",
      "outputs": [],
      "payable": false,
      "stateMutability": "nonpayable",
      "type": "function"
    },
    {
      "constant": true,
      "inputs": [
        {
          "name": "tokenId",
          "type": "uint256"
        }
      ],
      "name": "getApproved",
      "outputs": [
        {
          "name": "",
          "type": "uint256"
        }
      ],
      "payable": false,
      "stateMutability": "view",
      "type": "function"
    },
    {
      "constant": false,
      "inputs": [
        {
          "name": "from",
          "type": "uint256"
        },
        {
          "name": "to",
          "type": "uint256"
        },
        {
          "name": "tokenId",
          "type": "uint256"
        }
      ],
      "name": "safeTransferFromAddress",
      "outputs": [],
      "payable": false,
      "stateMutability": "nonpayable",
      "type": "function"
    },
    {
      "constant": false,
      "inputs": [
        {
          "name": "to",
          "type": "uint256"
        },
        {
          "name": "approved",
          "type": "bool"
        }
      ],
      "name": "setApprovalForAll",
      "outputs": [],
      "payable": false,
      "stateMutability": "nonpayable",
      "type": "function"
    },
    {
      "constant": false,
      "inputs": [
        {
          "name": "to",
          "type": "uint256"
        },
        {
          "name": "tokenId",
          "type": "uint256"
        }
      ],
      "name": "mint",
      "outputs": [
        {
          "name": "",
          "type": "bool"
        }
      ],
      "payable": false,
      "stateMutability": "nonpayable",
      "type": "function"
    },
    {
      "constant": false,
      "inputs": [
        {
          "name": "from",
          "type": "uint256"
        },
        {
          "name": "to",
          "type": "uint256"
        },
        {
          "name": "tokenId",
          "type": "uint256"
        }
      ],
      "name": "transferFrom",
      "outputs": [],
      "payable": false,
      "stateMutability": "nonpayable",
      "type": "function"
    },
    {
      "constant": false,
      "inputs": [
        {
          "name": "tokenId",
          "type": "uint256"
        }
      ],
      "name": "burn",
      "outputs": [],
      "payable": false,
      "stateMutability": "nonpayable",
      "type": "function"
    },
    {
      "constant": false,
      "inputs": [
        {
          "name": "from",
          "type": "uint256"
        },
        {
          "name": "to",
          "type": "uint256"
        },
        {
          "name": "tokenId",
          "type": "uint256"
        },
        {
          "name": "_data",
          "type": "bytes"
        }
      ],
      "name": "safeTransferFromAddress",
      "outputs": [],
      "payable": false,
      "stateMutability": "nonpayable",
      "type": "function"
    },
    {
      "constant": true,
      "inputs": [
        {
          "name": "",
          "type": "uint256"
        }
      ],
      "name": "availableCoupons",
      "outputs": [
        {
          "name": "couponType",
          "type": "uint8"
        },
        {
          "name": "title",
          "type": "string"
        },
        {
          "name": "description",
          "type": "string"
        },
        {
          "name": "amountOff",
          "type": "uint256"
        },
        {
          "name": "expirationDate",
          "type": "uint256"
        },
        {
          "name": "couponDistribution",
          "type": "address"
        }
      ],
      "payable": false,
      "stateMutability": "view",
      "type": "function"
    },
    {
      "constant": false,
      "inputs": [
        {
          "name": "to",
          "type": "uint256"
        },
        {
          "name": "tokenId",
          "type": "uint256"
        }
      ],
      "name": "approve",
      "outputs": [],
      "payable": false,
      "stateMutability": "nonpayable",
      "type": "function"
    },
    {
      "constant": true,
      "inputs": [
        {
          "name": "tokenId",
          "type": "uint256"
        }
      ],
      "name": "ownerOf",
      "outputs": [
        {
          "name": "",
          "type": "uint256"
        }
      ],
      "payable": false,
      "stateMutability": "view",
      "type": "function"
    },
    {
      "constant": false,
      "inputs": [
        {
          "name": "from",
          "type": "uint256"
        },
        {
          "name": "to",
          "type": "uint256"
        },
        {
          "name": "tokenId",
          "type": "uint256"
        },
        {
          "name": "_data",
          "type": "bytes"
        }
      ],
      "name": "safeTransferFrom",
      "outputs": [],
      "payable": false,
      "stateMutability": "nonpayable",
      "type": "function"
    },
    {
      "constant": false,
      "inputs": [
        {
          "name": "from",
          "type": "uint256"
        },
        {
          "name": "to",
          "type": "uint256"
        },
        {
          "name": "tokenId",
          "type": "uint256"
        }
      ],
      "name": "transferFromAddress",
      "outputs": [],
      "payable": false,
      "stateMutability": "nonpayable",
      "type": "function"
    },
    {
      "constant": false,
      "inputs": [],
      "name": "renounceSnowflakeMinter",
      "outputs": [],
      "payable": false,
      "stateMutability": "nonpayable",
      "type": "function"
    },
    {
      "constant": false,
      "inputs": [
        {
          "name": "to",
          "type": "address"
        },
        {
          "name": "tokenId",
          "type": "uint256"
        }
      ],
      "name": "approveAddress",
      "outputs": [],
      "payable": false,
      "stateMutability": "nonpayable",
      "type": "function"
    },
    {
      "constant": true,
      "inputs": [
        {
          "name": "owner",
          "type": "uint256"
        },
        {
          "name": "operator",
          "type": "uint256"
        }
      ],
      "name": "isApprovedForAll",
      "outputs": [
        {
          "name": "",
          "type": "bool"
        }
      ],
      "payable": false,
      "stateMutability": "view",
      "type": "function"
    },
    {
      "constant": true,
      "inputs": [
        {
          "name": "account",
          "type": "uint256"
        }
      ],
      "name": "isSnowflakeMinter",
      "outputs": [
        {
          "name": "",
          "type": "bool"
        }
      ],
      "payable": false,
      "stateMutability": "view",
      "type": "function"
    },
    {
      "constant": false,
      "inputs": [
        {
          "name": "account",
          "type": "address"
        }
      ],
      "name": "addMinter",
      "outputs": [],
      "payable": false,
      "stateMutability": "nonpayable",
      "type": "function"
    },
    {
      "constant": false,
      "inputs": [],
      "name": "renounceMinter",
      "outputs": [],
      "payable": false,
      "stateMutability": "nonpayable",
      "type": "function"
    },
    {
      "constant": true,
      "inputs": [
        {
          "name": "owner",
          "type": "uint256"
        }
      ],
      "name": "balanceOf",
      "outputs": [
        {
          "name": "",
          "type": "uint256"
        }
      ],
      "payable": false,
      "stateMutability": "view",
      "type": "function"
    },
    {
      "constant": false,
      "inputs": [
        {
          "name": "account",
          "type": "uint256"
        }
      ],
      "name": "addSnowflakeMinter",
      "outputs": [],
      "payable": false,
      "stateMutability": "nonpayable",
      "type": "function"
    },
    {
      "constant": true,
      "inputs": [
        {
          "name": "account",
          "type": "address"
        }
      ],
      "name": "isMinter",
      "outputs": [
        {
          "name": "",
          "type": "bool"
        }
      ],
      "payable": false,
      "stateMutability": "view",
      "type": "function"
    },
    {
      "constant": false,
      "inputs": [
        {
          "name": "to",
          "type": "uint256"
        },
        {
          "name": "tokenId",
          "type": "uint256"
        }
      ],
      "name": "mintAddress",
      "outputs": [
        {
          "name": "",
          "type": "bool"
        }
      ],
      "payable": false,
      "stateMutability": "nonpayable",
      "type": "function"
    },
    {
      "constant": true,
      "inputs": [
        {
          "name": "tokenId",
          "type": "uint256"
        }
      ],
      "name": "getApprovedAddress",
      "outputs": [
        {
          "name": "",
          "type": "address"
        }
      ],
      "payable": false,
      "stateMutability": "view",
      "type": "function"
    },
    {
      "constant": false,
      "inputs": [
        {
          "name": "from",
          "type": "uint256"
        },
        {
          "name": "to",
          "type": "uint256"
        },
        {
          "name": "tokenId",
          "type": "uint256"
        }
      ],
      "name": "safeTransferFrom",
      "outputs": [],
      "payable": false,
      "stateMutability": "nonpayable",
      "type": "function"
    },
    {
      "constant": true,
      "inputs": [],
      "name": "snowflakeAddress",
      "outputs": [
        {
          "name": "",
          "type": "address"
        }
      ],
      "payable": false,
      "stateMutability": "view",
      "type": "function"
    },
    {
      "constant": true,
      "inputs": [],
      "name": "nextAvailableCouponsID",
      "outputs": [
        {
          "name": "",
          "type": "uint256"
        }
      ],
      "payable": false,
      "stateMutability": "view",
      "type": "function"
    },
    {
      "anonymous": false,
      "inputs": [
        {
          "indexed": true,
          "name": "account",
          "type": "address"
        }
      ],
      "name": "MinterAdded",
      "type": "event"
    },
    {
      "anonymous": false,
      "inputs": [
        {
          "indexed": true,
          "name": "account",
          "type": "address"
        }
      ],
      "name": "MinterRemoved",
      "type": "event"
    },
    {
      "anonymous": false,
      "inputs": [
        {
          "indexed": false,
          "name": "owner",
          "type": "uint256"
        },
        {
          "indexed": false,
          "name": "to",
          "type": "address"
        },
        {
          "indexed": false,
          "name": "tokenId",
          "type": "uint256"
        }
      ],
      "name": "ApprovalAddress",
      "type": "event"
    },
    {
      "anonymous": false,
      "inputs": [
        {
          "indexed": true,
          "name": "account",
          "type": "uint256"
        }
      ],
      "name": "SnowflakeMinterAdded",
      "type": "event"
    },
    {
      "anonymous": false,
      "inputs": [
        {
          "indexed": true,
          "name": "account",
          "type": "uint256"
        }
      ],
      "name": "SnowflakeMinterRemoved",
      "type": "event"
    },
    {
      "anonymous": false,
      "inputs": [
        {
          "indexed": true,
          "name": "einFrom",
          "type": "uint256"
        },
        {
          "indexed": true,
          "name": "einTo",
          "type": "uint256"
        },
        {
          "indexed": true,
          "name": "tokenId",
          "type": "uint256"
        }
      ],
      "name": "Transfer",
      "type": "event"
    },
    {
      "anonymous": false,
      "inputs": [
        {
          "indexed": true,
          "name": "einOwner",
          "type": "uint256"
        },
        {
          "indexed": true,
          "name": "einApproved",
          "type": "uint256"
        },
        {
          "indexed": true,
          "name": "tokenId",
          "type": "uint256"
        }
      ],
      "name": "Approval",
      "type": "event"
    },
    {
      "anonymous": false,
      "inputs": [
        {
          "indexed": true,
          "name": "einOwner",
          "type": "uint256"
        },
        {
          "indexed": true,
          "name": "einOperator",
          "type": "uint256"
        },
        {
          "indexed": false,
          "name": "approved",
          "type": "bool"
        }
      ],
      "name": "ApprovalForAll",
      "type": "event"
    },
    {
      "constant": true,
      "inputs": [
        {
          "name": "id",
          "type": "uint256"
        }
      ],
      "name": "getCoupon",
      "outputs": [
        {
          "name": "couponType",
          "type": "uint8"
        },
        {
          "name": "title",
          "type": "string"
        },
        {
          "name": "description",
          "type": "string"
        },
        {
          "name": "amountOff",
          "type": "uint256"
        },
        {
          "name": "expirationDate",
          "type": "uint256"
        }
      ],
      "payable": false,
      "stateMutability": "view",
      "type": "function"
    },
    {
      "constant": true,
      "inputs": [
        {
          "name": "id",
          "type": "uint256"
        }
      ],
      "name": "getCouponSimple",
      "outputs": [
        {
          "name": "couponType",
          "type": "uint8"
        },
        {
          "name": "amountOff",
          "type": "uint256"
        },
        {
          "name": "expirationDate",
          "type": "uint256"
        }
      ],
      "payable": false,
      "stateMutability": "view",
      "type": "function"
    },
    {
      "constant": true,
      "inputs": [
        {
          "name": "id",
          "type": "uint256"
        },
        {
          "name": "index",
          "type": "uint256"
        }
      ],
      "name": "getCouponItemApplicable",
      "outputs": [
        {
          "name": "",
          "type": "uint256"
        }
      ],
      "payable": false,
      "stateMutability": "view",
      "type": "function"
    },
    {
      "constant": true,
      "inputs": [
        {
          "name": "id",
          "type": "uint256"
        }
      ],
      "name": "getCouponItemsApplicableLength",
      "outputs": [
        {
          "name": "",
          "type": "uint256"
        }
      ],
      "payable": false,
      "stateMutability": "view",
      "type": "function"
    },
    {
      "constant": true,
      "inputs": [
        {
          "name": "id",
          "type": "uint256"
        }
      ],
      "name": "getCouponDistributionAddress",
      "outputs": [
        {
          "name": "",
          "type": "address"
        }
      ],
      "payable": false,
      "stateMutability": "view",
      "type": "function"
    }
  ],
  "bytecode": "0x6080604052620000387f01ffc9a70000000000000000000000000000000000000000000000000000000064010000000062000052810204565b6200004c33640100000000620000bf810204565b620001a0565b7fffffffff0000000000000000000000000000000000000000000000000000000080821614156200008257600080fd5b7fffffffff00000000000000000000000000000000000000000000000000000000166000908152602081905260409020805460ff19166001179055565b620000da60088264010000000062001c066200011182021704565b604051600160a060020a038216907f6ae172837ea30b801fbfcdd4108aa1d5bf8ff775444fd70256b44e6bf3dfc3f690600090a250565b600160a060020a0381166200012557600080fd5b6200013a82826401000000006200016a810204565b156200014557600080fd5b600160a060020a0316600090815260209190915260409020805460ff19166001179055565b6000600160a060020a0382166200018057600080fd5b50600160a060020a03166000908152602091909152604090205460ff1690565b611dc980620001b06000396000f3fe608060405234801561001057600080fd5b50600436106101ff5760003560e060020a900480638b9a0c891161011e578063aa271e1a116100b1578063eca4742a11610080578063eca4742a14610927578063f29724a414610944578063f467046214610993578063f9f451b8146109bc578063fe87fc99146109c4576101ff565b8063aa271e1a14610882578063b3caa247146108a8578063ce5f9fb5146108cb578063e4a956e9146108ee576101ff565b8063983b2d56116100ed578063983b2d561461081a57806398650275146108405780639cc7f70814610848578063a4453ffb14610865576101ff565b80638b9a0c89146106905780638d9188d5146106bc578063936e3169146106df5780639690f6d1146107fd576101ff565b8063435b153f1161019657806368d1e6411161016557806368d1e641146105895780637b7ecf98146106425780637f493d9c1461065f578063895c3e9414610688576101ff565b8063435b153f146103595780634a2fe20a146104125780635d35a3d9146105495780636352211e1461056c576101ff565b806316b49a43116101d257806316b49a43146102cb5780631b2ef1ca146102f0578063310ed7f01461031357806342966c681461033c576101ff565b806301ffc9a714610204578063043f5cbb14610254578063081812fc146102735780630d2e347d146102a2575b600080fd5b6102406004803603602081101561021a57600080fd5b50357bffffffffffffffffffffffffffffffffffffffffffffffffffffffff19166109cc565b604080519115158252519081900360200190f35b6102716004803603602081101561026a57600080fd5b5035610a00565b005b6102906004803603602081101561028957600080fd5b5035610a1f565b60408051918252519081900360200190f35b610271600480360360608110156102b857600080fd5b5080359060208101359060400135610a46565b610271600480360360408110156102e157600080fd5b50803590602001351515610a66565b6102406004803603604081101561030657600080fd5b5080359060200135610ae2565b6102716004803603606081101561032957600080fd5b5080359060208101359060400135610b11565b6102716004803603602081101561035257600080fd5b5035610b37565b6102716004803603608081101561036f57600080fd5b8135916020810135916040820135919081019060808101606082013564010000000081111561039d57600080fd5b8201836020820111156103af57600080fd5b803590602001918460018302840111640100000000831117156103d157600080fd5b91908080601f016020809104026020016040519081016040528093929190818152602001838380828437600092019190915250929550610b43945050505050565b61042f6004803603602081101561042857600080fd5b5035610b69565b6040518087600381111561043f57fe5b60ff168152602001806020018060200186815260200185815260200184600160a060020a0316600160a060020a03168152602001838103835288818151815260200191508051906020019080838360005b838110156104a8578181015183820152602001610490565b50505050905090810190601f1680156104d55780820380516001836020036101000a031916815260200191505b50838103825287518152875160209182019189019080838360005b838110156105085781810151838201526020016104f0565b50505050905090810190601f1680156105355780820380516001836020036101000a031916815260200191505b509850505050505050505060405180910390f35b6102716004803603604081101561055f57600080fd5b5080359060200135610cc6565b6102906004803603602081101561058257600080fd5b5035610d4b565b6102716004803603608081101561059f57600080fd5b813591602081013591604082013591908101906080810160608201356401000000008111156105cd57600080fd5b8201836020820111156105df57600080fd5b8035906020019184600183028401116401000000008311171561060157600080fd5b91908080601f016020809104026020016040519081016040528093929190818152602001838380828437600092019190915250929550610d6a945050505050565b6102906004803603602081101561065857600080fd5b5035610d75565b6102716004803603606081101561067557600080fd5b5080359060208101359060400135610d8a565b610271610da8565b610271600480360360408110156106a657600080fd5b50600160a060020a038135169060200135610dbb565b610240600480360360408110156106d257600080fd5b5080359060200135610eba565b6106fc600480360360208110156106f557600080fd5b5035610eda565b6040518086600381111561070c57fe5b60ff1681526020018060200180602001858152602001848152602001838103835287818151815260200191508051906020019080838360005b8381101561075d578181015183820152602001610745565b50505050905090810190601f16801561078a5780820380516001836020036101000a031916815260200191505b50838103825286518152865160209182019188019080838360005b838110156107bd5781810151838201526020016107a5565b50505050905090810190601f1680156107ea5780820380516001836020036101000a031916815260200191505b5097505050505050505060405180910390f35b6102406004803603602081101561081357600080fd5b5035611103565b6102716004803603602081101561083057600080fd5b5035600160a060020a0316611116565b610271611131565b6102906004803603602081101561085e57600080fd5b503561113a565b6102716004803603602081101561087b57600080fd5b503561115d565b6102406004803603602081101561089857600080fd5b5035600160a060020a031661117b565b610240600480360360408110156108be57600080fd5b508035906020013561118e565b610290600480360360408110156108e157600080fd5b5080359060200135611199565b61090b6004803603602081101561090457600080fd5b50356111c9565b60408051600160a060020a039092168252519081900360200190f35b61090b6004803603602081101561093d57600080fd5b50356111e7565b6109616004803603602081101561095a57600080fd5b5035611217565b6040518084600381111561097157fe5b60ff168152602001838152602001828152602001935050505060405180910390f35b610271600480360360608110156109a957600080fd5b508035906020810135906040013561142c565b61090b611447565b610290611456565b7bffffffffffffffffffffffffffffffffffffffffffffffffffffffff191660009081526020819052604090205460ff1690565b610a0a338261145c565b610a1357600080fd5b610a1c81611482565b50565b6000610a2a82611494565b610a3357600080fd5b5060009081526003602052604090205490565b610a6183838360405180602001604052806000815250610b43565b505050565b6000610a71336114a8565b905080831415610a8057600080fd5b6000818152600560209081526040808320868452825291829020805460ff191685151590811790915582519081529151859284927fe08356808518f185b1eebe6f778106965c2df3a69af4d7139fa9451067146eb792918290030190a3505050565b6000610af5610af0336114a8565b611103565b610afe57600080fd5b610b0883836116ae565b50600192915050565b610b23610b1d336114a8565b82611726565b610b2c57600080fd5b610a61838383611761565b610a0a610b1d336114a8565b610b4e848484610d8a565b610b5a848484846117f7565b610b6357600080fd5b50505050565b600a602090815260009182526040918290208054600180830180548651600261010094831615949094026000190190911692909204601f810186900486028301860190965285825260ff909216949293909290830182828015610c0d5780601f10610be257610100808354040283529160200191610c0d565b820191906000526020600020905b815481529060010190602001808311610bf057829003601f168201915b50505060028085018054604080516020601f6000196101006001871615020190941695909504928301859004850281018501909152818152959695945090925090830182828015610c9f5780601f10610c7457610100808354040283529160200191610c9f565b820191906000526020600020905b815481529060010190602001808311610c8257829003601f168201915b505050506003830154600584015460069094015492939092909150600160a060020a031686565b6000610cd182610d4b565b90506000610cde336114a8565b905081841415610ced57600080fd5b81811480610d005750610d008282610eba565b610d0957600080fd5b600083815260036020526040808220869055518491869185917f08aaf4f7dd1adfa5bfe7067dea5b4ebd7e119d43257438a9189f37d7044eb09a91a450505050565b60008181526002602052604081205480610d6457600080fd5b92915050565b610b4e848484610b11565b6000908152600a602052604090206004015490565b610d94338261145c565b610d9d57600080fd5b610a6183838361193d565b610db9610db4336114a8565b611964565b565b6000610dc682610d4b565b90506000610dd3336114a8565b905081811480610de85750610de88282610eba565b610e3d576040517f08c379a0000000000000000000000000000000000000000000000000000000008152600401808060200182810382526045815260200180611d316045913960600191505060405180910390fd5b6000838152600760209081526040918290208054600160a060020a03881673ffffffffffffffffffffffffffffffffffffffff19909116811790915582518581529182015280820185905290517fdd2d4479f7ebe0a20212b0ef6b723a3f0d98a4b3d64b8d9898777c769bb7a8819181900360600190a150505050565b600091825260056020908152604080842092845291905290205460ff1690565b6000606080600080610eea611ce9565b6000878152600a602052604090819020815160e081019092528054829060ff166003811115610f1557fe5b6003811115610f2057fe5b8152602001600182018054600181600116156101000203166002900480601f016020809104026020016040519081016040528092919081815260200182805460018160011615610100020316600290048015610fbd5780601f10610f9257610100808354040283529160200191610fbd565b820191906000526020600020905b815481529060010190602001808311610fa057829003601f168201915b5050509183525050600282810180546040805160206001841615610100026000190190931694909404601f8101839004830285018301909152808452938101939083018282801561104f5780601f106110245761010080835404028352916020019161104f565b820191906000526020600020905b81548152906001019060200180831161103257829003601f168201915b5050505050815260200160038201548152602001600482018054806020026020016040519081016040528092919081815260200182805480156110b157602002820191906000526020600020905b81548152602001906001019080831161109d575b50505091835250506005820154602080830191909152600690920154600160a060020a031660409182015282519183015190830151606084015160a090940151929b919a509850919650945092505050565b6000610d6460068363ffffffff6119a316565b61111f3361117b565b61112857600080fd5b610a1c816119c6565b610db933611a0e565b60008161114657600080fd5b6000828152600460205260409020610d6490611a56565b611169610af0336114a8565b61117257600080fd5b610a1c81611a5a565b6000610d6460088363ffffffff611a9916565b6000610af53361117b565b6000828152600a602052604081206004018054839081106111b657fe5b9060005260206000200154905092915050565b6000908152600a6020526040902060060154600160a060020a031690565b60006111f282611494565b6111fb57600080fd5b50600090815260076020526040902054600160a060020a031690565b6000806000611224611ce9565b6000858152600a602052604090819020815160e081019092528054829060ff16600381111561124f57fe5b600381111561125a57fe5b8152602001600182018054600181600116156101000203166002900480601f0160208091040260200160405190810160405280929190818152602001828054600181600116156101000203166002900480156112f75780601f106112cc576101008083540402835291602001916112f7565b820191906000526020600020905b8154815290600101906020018083116112da57829003601f168201915b5050509183525050600282810180546040805160206001841615610100026000190190931694909404601f810183900483028501830190915280845293810193908301828280156113895780601f1061135e57610100808354040283529160200191611389565b820191906000526020600020905b81548152906001019060200180831161136c57829003601f168201915b5050505050815260200160038201548152602001600482018054806020026020016040519081016040528092919081815260200182805480156113eb57602002820191906000526020600020905b8154815260200190600101908083116113d7575b505050918352505060058201546020820152600690910154600160a060020a03166040909101528051606082015160a0909201519097919650945092505050565b610a6183838360405180602001604052806000815250610d6a565b600154600160a060020a031681565b60095481565b600082600160a060020a0316611471836111e7565b600160a060020a0316149392505050565b610a1c61148e82610d4b565b82611ace565b600090815260026020526040902054151590565b600154604080517fa759ee6f0000000000000000000000000000000000000000000000000000000081529051600092600160a060020a0316918391839163a759ee6f91600480830192602092919082900301818787803b15801561150b57600080fd5b505af115801561151f573d6000803e3d6000fd5b505050506040513d602081101561153557600080fd5b5051604080517f237f1a21000000000000000000000000000000000000000000000000000000008152600160a060020a038781166004830152915192935083929183169163237f1a2191602480820192602092909190829003018186803b15801561159f57600080fd5b505afa1580156115b3573d6000803e3d6000fd5b505050506040513d60208110156115c957600080fd5b5051611620576040517f08c379a0000000000000000000000000000000000000000000000000000000008152600401808060200182810382526028815260200180611d766028913960400191505060405180910390fd5b80600160a060020a03166305c62c2f866040518263ffffffff1660e060020a0281526004018082600160a060020a0316600160a060020a0316815260200191505060206040518083038186803b15801561167957600080fd5b505afa15801561168d573d6000803e3d6000fd5b505050506040513d60208110156116a357600080fd5b505195945050505050565b816116b857600080fd5b6116c181611494565b156116cb57600080fd5b6000818152600260209081526040808320859055848352600490915290206116f290611b43565b808260007faf6151f5085accf2d57e1e7bf7601d3b3982e0de7e9a90f032f8554de9c104f660405160405180910390a45050565b60008061173283610d4b565b90508084148061174957508361174784610a1f565b145b8061175957506117598185610eba565b949350505050565b8261176b82610d4b565b1461177557600080fd5b8161177f57600080fd5b61178881611b4c565b600083815260046020526040902061179f90611b71565b60008281526004602052604090206117b690611b43565b600081815260026020526040808220849055518291849186917faf6151f5085accf2d57e1e7bf7601d3b3982e0de7e9a90f032f8554de9c104f691a4505050565b60008084600160a060020a031663494114c2611812336114a8565b8887876040518563ffffffff1660e060020a0281526004018085815260200184815260200183815260200180602001828103825283818151815260200191508051906020019080838360005b8381101561187657818101518382015260200161185e565b50505050905090810190601f1680156118a35780820380516001836020036101000a031916815260200191505b5095505050505050602060405180830381600087803b1580156118c557600080fd5b505af11580156118d9573d6000803e3d6000fd5b505050506040513d60208110156118ef57600080fd5b50517bffffffffffffffffffffffffffffffffffffffffffffffffffffffff19167f494114c20000000000000000000000000000000000000000000000000000000014915050949350505050565b8261194782610d4b565b1461195157600080fd5b8161195b57600080fd5b610b2c81611b88565b61197560068263ffffffff611bd016565b60405181907f34803f71b3ce19f83d2efe8fd85a68795e6ca17a2139def6f374f7cec617366c90600090a250565b6000816119af57600080fd5b506000908152602091909152604090205460ff1690565b6119d760088263ffffffff611c0616565b604051600160a060020a038216907f6ae172837ea30b801fbfcdd4108aa1d5bf8ff775444fd70256b44e6bf3dfc3f690600090a250565b611a1f60088263ffffffff611c5216565b604051600160a060020a038216907fe94479a9f7e1952cc78f2d6baab678adc1b772d936c6583def489e524cb6669290600090a250565b5490565b611a6b60068263ffffffff611c9a16565b60405181907fc96fabf52983c486b9ee7f26fa97994b2199bd98cf74f02ef6aa1e1d87cbb48290600090a250565b6000600160a060020a038216611aae57600080fd5b50600160a060020a03166000908152602091909152604090205460ff1690565b81611ad882610d4b565b14611ae257600080fd5b611aeb81611b4c565b6000828152600460205260409020611b0290611b71565b6000818152600260205260408082208290555182919084907faf6151f5085accf2d57e1e7bf7601d3b3982e0de7e9a90f032f8554de9c104f6908390a45050565b80546001019055565b60008181526003602052604090205415610a1c57600090815260036020526040812055565b8054611b8490600163ffffffff611cd416565b9055565b600081815260076020526040902054600160a060020a031615610a1c576000908152600760205260409020805473ffffffffffffffffffffffffffffffffffffffff19169055565b80611bda57600080fd5b611be482826119a3565b611bed57600080fd5b600090815260209190915260409020805460ff19169055565b600160a060020a038116611c1957600080fd5b611c238282611a99565b15611c2d57600080fd5b600160a060020a0316600090815260209190915260409020805460ff19166001179055565b600160a060020a038116611c6557600080fd5b611c6f8282611a99565b611c7857600080fd5b600160a060020a0316600090815260209190915260409020805460ff19169055565b80611ca457600080fd5b611cae82826119a3565b15611cb857600080fd5b600090815260209190915260409020805460ff19166001179055565b600082821115611ce357600080fd5b50900390565b6040805160e08101909152806000815260200160608152602001606081526020016000815260200160608152602001600081526020016000600160a060020a03168152509056fe53656e646572206973206e6f74206f776e65722c206f72206661696c7320746f2070617373206973417070726f766564466f72416c6c286f776e65722c2073656e6465722941646472657373206e6f6e2d6578697374656e7420696e204964656e746974795265676973747279a165627a7a72305820af3e69d979efd646e0ae108fafb74a80b4840721e8bf8e44375dadf75e8a2b510029",
  "source": "pragma solidity ^0.5.0;\n\nimport '../../ein/token/ERC721/SnowflakeERC721.sol';\nimport '../../ein/token/ERC721/SnowflakeERC721Burnable.sol';\nimport '../../ein/token/ERC721/SnowflakeERC721Mintable.sol';\n\nimport '../../ein/token/ERC721/address/AddressSnowflakeERC721.sol';\nimport '../../ein/token/ERC721/address/AddressSnowflakeERC721Burnable.sol';\nimport '../../ein/token/ERC721/address/AddressSnowflakeERC721Mintable.sol';\n\n\nimport '../../interfaces/marketplace/CouponInterface.sol';\n\n/*\n\nERC 721 ---> Coupon Interface ---> Coupon contract (w/ data + function implementations)\n        ---> Item Interface ---> Item contract (w/data + function implementations)\n\n\n//Use addresses to represent other ownership states; unlimited/claimable once\n\n\n\n    Coupons that correspond to a given marketplace are denominated by a coupon-generation function.\n    The marketplace admin can generate coupons at-will.\n    Coupon generation function should take the following parameters:\n\n        Item type - the type of item for which this coupon applies\n        Discount rate - the percentage discount the coupon offers\n        Distribution address - defines the logic for how coupons are distributed; must follow a standard interface with a function that can be called from the coupon-generation function to define the initial distribution of coupons once generated.\n        Each coupon should have a uuid\n\n\n*/\n\n\ncontract Coupons is SnowflakeERC721Burnable, SnowflakeERC721Mintable, AddressSnowflakeERC721Burnable, AddressSnowflakeERC721Mintable, CouponInterface {\n\n    //ID, starting at 1, connecting the mappings\n    uint public nextAvailableCouponsID;\n\n    //Mapping connecting ERC721 coupons to actual struct objects\n    mapping(uint => Coupon) public availableCoupons;\n/*\n    constructor(address _snowflakeAddress) public {\n        _constructCoupons(_snowflakeAddress);\n    }\n*/\n    function _constructCoupons(address _snowflakeAddress) internal {\n        //Constructor functions of inherited contracts\n        _constructSnowflakeERC721Burnable(_snowflakeAddress);\n        _constructSnowflakeERC721Mintable(_snowflakeAddress);\n        _constructAddressSnowflakeERC721Burnable(_snowflakeAddress);\n\n        //Actual constructor logic\n        nextAvailableCouponsID = 1;\n\n    }\n\n\n    struct Coupon {\n        CouponType couponType;\n        string title;\n        string description;\n        uint256 amountOff;\n        uint[] itemsApplicable;\n        uint expirationDate;\n        address couponDistribution;\n    }\n    \n\n    function getCoupon(uint id) public view returns (CouponType couponType, string memory title, string memory description, uint256 amountOff, uint expirationDate){\n\n        Coupon memory c = availableCoupons[id];\n        return (c.couponType, c.title, c.description, c.amountOff, c.expirationDate);\n    }\n\n    function getCouponSimple(uint id) public view returns (CouponType couponType, uint256 amountOff, uint expirationDate){\n\n        Coupon memory c = availableCoupons[id];\n        return (c.couponType, c.amountOff, c.expirationDate);\n    }\n\n\n    function getCouponItemApplicable(uint id, uint index) public view returns (uint) { \n        return availableCoupons[id].itemsApplicable[index]; \n    }\n\n    function getCouponItemsApplicableLength(uint id) public view returns (uint) {\n        return availableCoupons[id].itemsApplicable.length;\n    }\n\n\n    function getCouponDistributionAddress(uint id) public view returns (address) {\n        return availableCoupons[id].couponDistribution;\n    }\n\n\n\n/*\n===================================\nAvailableCoupons add/update/delete\n===================================\n*/\n\n    function _addAvailableCoupon(\n        uint256 ein,\n        CouponType couponType,\n        string memory title,\n        string memory description,\n        uint256 amountOff,\n        uint[] memory itemsApplicable,\n        uint expirationDate,\n        address couponDistribution\n\n    ) internal returns (bool) {\n\n        //Mint it as an ERC721 owned by the creator\n        _mint(ein, nextAvailableCouponsID);\n\n        //Add to avaliableCoupons\n        availableCoupons[nextAvailableCouponsID] = Coupon(couponType, title, description, amountOff, itemsApplicable, expirationDate, couponDistribution);\n        //Advance nextAvailableCouponID by 1\n        nextAvailableCouponsID++;\n\n        return true;\n    }\n\n    function _updateAvailableCoupon(\n        uint id,\n        CouponType couponType,\n        string memory title,\n        string memory description,\n        uint256 amountOff,\n        uint[] memory itemsApplicable,\n        uint expirationDate,\n        address couponDistribution\n\n    ) internal returns (bool) {\n        //Add to avaliableCoupons\n        availableCoupons[id] = Coupon(couponType, title, description, amountOff, itemsApplicable, expirationDate, couponDistribution);\n\n        return true;\n    }\n\n\n    function _deleteAvailableCoupon(uint id) internal returns (bool) {\n\n        //Delete availableCoupon by ID\n        delete availableCoupons[id];\n\n        //Finally, burn it\n        _burn(id); \n\n        return true;\n\n    }\n\n\n\n\n\n\n\n\n}\n\n\n\n\n\n",
  "sourcePath": "/home/luiserebii/github/HydroSnowflake-Marketplace-Coupons/contracts/marketplace/features/Coupons.sol",
  "compiler": {
    "name": "solc",
    "version": "0.5.6+commit.b259423e.Emscripten.clang"
  },
  "schemaVersion": "3.0.6",
  "updatedAt": "2019-04-12T01:36:38.165Z",
  "devdoc": {
    "methods": {
      "approve(uint256,uint256)": {
        "details": "Approves another EIN to transfer the given token ID The zero EIN indicates there is no approved EIN. There can only be one approved EIN per token at a given time. Can only be called by the token owner or an approved operator.",
        "params": {
          "to": "uint256 to be approved for the given token ID",
          "tokenId": "uint256 ID of the token to be approved"
        }
      },
      "approveAddress(address,uint256)": {
        "details": "Approves an address to transfer the given token ID The zero address indicates there is no approved EIN. There can only be one approved address per token at a given time. Can only be called by the token owner or an approved operator.",
        "params": {
          "to": "address to be approved for the given token ID",
          "tokenId": "uint256 ID of the token to be approved"
        }
      },
      "balanceOf(uint256)": {
        "details": "Gets the balance of the specified address",
        "params": {
          "owner": "uint256 to query the balance of"
        },
        "return": "uint256 representing the amount owned by the passed address"
      },
      "burn(uint256)": {
        "details": "Burns a specific Snowflake ERC721 token.",
        "params": {
          "tokenId": "uint256 id of the Snowflake ERC721 token to be burned."
        }
      },
      "burnAddress(uint256)": {
        "details": "Burns a specific Snowflake ERC721 token.",
        "params": {
          "tokenId": "uint256 id of the Snowflake ERC721 token to be burned."
        }
      },
      "getApproved(uint256)": {
        "details": "Gets the approved EIN for a token ID, or zero if no EIN set Reverts if the token ID does not exist.",
        "params": {
          "tokenId": "uint256 ID of the token to query the approval of"
        },
        "return": "EIN currently approved for the given token ID"
      },
      "getApprovedAddress(uint256)": {
        "details": "Gets the approved address for a token ID, or zero if no EIN set Reverts if the token ID does not exist.",
        "params": {
          "tokenId": "uint256 ID of the token to query the approval of"
        },
        "return": "address currently approved for the given token ID"
      },
      "isApprovedForAll(uint256,uint256)": {
        "details": "Tells whether an operator is approved by a given owner",
        "params": {
          "operator": "operator EIN which you want to query the approval of",
          "owner": "owner EIN which you want to query the approval of"
        },
        "return": "bool whether the given operator is approved by the given owner"
      },
      "mint(uint256,uint256)": {
        "details": "Function to mint tokens",
        "params": {
          "to": "The EIN that will receive the minted tokens.",
          "tokenId": "The token id to mint."
        },
        "return": "A boolean that indicates if the operation was successful."
      },
      "mintAddress(uint256,uint256)": {
        "details": "Function to mint tokens",
        "params": {
          "to": "The EIN that will receive the minted tokens.",
          "tokenId": "The token id to mint."
        },
        "return": "A boolean that indicates if the operation was successful."
      },
      "ownerOf(uint256)": {
        "details": "Gets the owner of the specified token ID",
        "params": {
          "tokenId": "uint256 ID of the token to query the owner of"
        },
        "return": "uint256 currently marked as the owner of the given token ID"
      },
      "safeTransferFrom(uint256,uint256,uint256)": {
        "details": "Safely transfers the ownership of a given token ID to another EIN If the target EIN is a contract, it must implement `onERC721Received`, which is called upon a safe transfer, and return the magic value `bytes4(keccak256(\"onERC721Received(address,address,uint256,bytes)\"))`; otherwise, the transfer is reverted. Requires the msg.sender to be the owner, approved, or operator",
        "params": {
          "from": "uint256 current owner of the token",
          "to": "uint256 to receive the ownership of the given token ID",
          "tokenId": "uint256 ID of the token to be transferred"
        }
      },
      "safeTransferFrom(uint256,uint256,uint256,bytes)": {
        "details": "Safely transfers the ownership of a given token ID to another EIN If the target EIN is a contract, it must implement `onERC721Received`, which is called upon a safe transfer, and return the magic value `bytes4(keccak256(\"onERC721Received(address,address,uint256,bytes)\"))`; otherwise, the transfer is reverted. Requires the msg.sender to be the owner, approved, or operator",
        "params": {
          "_data": "bytes data to send along with a safe transfer check",
          "from": "current owner of the token",
          "to": "uint256 to receive the ownership of the given token ID",
          "tokenId": "uint256 ID of the token to be transferred"
        }
      },
      "safeTransferFromAddress(uint256,uint256,uint256)": {
        "details": "Safely transfers the ownership of a given token ID to another EIN If the target EIN is a contract, it must implement `onERC721Received`, which is called upon a safe transfer, and return the magic value `bytes4(keccak256(\"onERC721Received(address,address,uint256,bytes)\"))`; otherwise, the transfer is reverted. Requires the msg.sender to be the owner, approved, or operator",
        "params": {
          "from": "uint256 current owner of the token",
          "to": "uint256 to receive the ownership of the given token ID",
          "tokenId": "uint256 ID of the token to be transferred"
        }
      },
      "safeTransferFromAddress(uint256,uint256,uint256,bytes)": {
        "details": "Safely transfers the ownership of a given token ID to another EIN If the target address is a contract, it must implement `onERC721Received`, which is called upon a safe transfer, and return the magic value `bytes4(keccak256(\"onERC721Received(address,address,uint256,bytes)\"))`; otherwise, the transfer is reverted. Requires the msg.sender to be the owner, approved, or operator",
        "params": {
          "_data": "bytes data to send along with a safe transfer check",
          "from": "current owner of the token",
          "to": "uint256 to receive the ownership of the given token ID",
          "tokenId": "uint256 ID of the token to be transferred"
        }
      },
      "setApprovalForAll(uint256,bool)": {
        "details": "Sets or unsets the approval of a given operator An operator is allowed to transfer all tokens of the sender on their behalf",
        "params": {
          "approved": "representing the status of the approval to be set",
          "to": "operator EIN to set the approval"
        }
      },
      "supportsInterface(bytes4)": {
        "details": "implement supportsInterface(bytes4) using a lookup table"
      },
      "transferFrom(uint256,uint256,uint256)": {
        "details": "Transfers the ownership of a given token ID to another address Usage of this method is discouraged, use `safeTransferFrom` whenever possible Requires the msg.sender to be the owner, approved, or operator",
        "params": {
          "from": "current owner of the token",
          "to": "address to receive the ownership of the given token ID",
          "tokenId": "uint256 ID of the token to be transferred"
        }
      },
      "transferFromAddress(uint256,uint256,uint256)": {
        "details": "Transfers the ownership of a given token ID to another address Usage of this method is discouraged, use `safeTransferFrom` whenever possible Requires the msg.sender to be the owner, approved, or operator",
        "params": {
          "from": "current owner of the token",
          "to": "address to receive the ownership of the given token ID",
          "tokenId": "uint256 ID of the token to be transferred"
        }
      }
    }
  },
  "userdoc": {
    "methods": {}
  }
}