{
  "contractName": "CouponMarketplaceResolver",
  "abi": [
    {
      "constant": false,
      "inputs": [
        {
          "name": "id",
          "type": "uint256"
        },
        {
          "name": "itemTag",
          "type": "string"
        }
      ],
      "name": "updateItemTag",
      "outputs": [
        {
          "name": "",
          "type": "bool"
        }
      ],
      "payable": false,
      "stateMutability": "nonpayable",
      "type": "function"
    },
    {
      "constant": false,
      "inputs": [
        {
          "name": "id",
          "type": "uint256"
        },
        {
          "name": "deliveryMethod",
          "type": "string"
        }
      ],
      "name": "updateDeliveryMethod",
      "outputs": [
        {
          "name": "",
          "type": "bool"
        }
      ],
      "payable": false,
      "stateMutability": "nonpayable",
      "type": "function"
    },
    {
      "constant": true,
      "inputs": [],
      "name": "CouponDistributionAddress",
      "outputs": [
        {
          "name": "",
          "type": "address"
        }
      ],
      "payable": false,
      "stateMutability": "view",
      "type": "function"
    },
    {
      "constant": true,
      "inputs": [],
      "name": "ownerEIN",
      "outputs": [
        {
          "name": "",
          "type": "uint256"
        }
      ],
      "payable": false,
      "stateMutability": "view",
      "type": "function"
    },
    {
      "constant": false,
      "inputs": [
        {
          "name": "returnsAccepted",
          "type": "bool"
        },
        {
          "name": "timeLimit",
          "type": "uint256"
        }
      ],
      "name": "addReturnPolicy",
      "outputs": [
        {
          "name": "",
          "type": "bool"
        }
      ],
      "payable": false,
      "stateMutability": "nonpayable",
      "type": "function"
    },
    {
      "constant": true,
      "inputs": [
        {
          "name": "",
          "type": "uint256"
        }
      ],
      "name": "itemTags",
      "outputs": [
        {
          "name": "",
          "type": "string"
        }
      ],
      "payable": false,
      "stateMutability": "view",
      "type": "function"
    },
    {
      "constant": false,
      "inputs": [
        {
          "name": "paymentAddress",
          "type": "address"
        }
      ],
      "name": "setPaymentAddress",
      "outputs": [
        {
          "name": "",
          "type": "bool"
        }
      ],
      "payable": false,
      "stateMutability": "nonpayable",
      "type": "function"
    },
    {
      "constant": false,
      "inputs": [
        {
          "name": "id",
          "type": "uint256"
        },
        {
          "name": "returnsAccepted",
          "type": "bool"
        },
        {
          "name": "timeLimit",
          "type": "uint256"
        }
      ],
      "name": "updateReturnPolicy",
      "outputs": [
        {
          "name": "",
          "type": "bool"
        }
      ],
      "payable": false,
      "stateMutability": "nonpayable",
      "type": "function"
    },
    {
      "constant": false,
      "inputs": [],
      "name": "isEINOwner",
      "outputs": [
        {
          "name": "",
          "type": "bool"
        }
      ],
      "payable": false,
      "stateMutability": "nonpayable",
      "type": "function"
    },
    {
      "constant": true,
      "inputs": [],
      "name": "paymentAddress",
      "outputs": [
        {
          "name": "",
          "type": "address"
        }
      ],
      "payable": false,
      "stateMutability": "view",
      "type": "function"
    },
    {
      "constant": true,
      "inputs": [],
      "name": "nextItemTagsID",
      "outputs": [
        {
          "name": "",
          "type": "uint256"
        }
      ],
      "payable": false,
      "stateMutability": "view",
      "type": "function"
    },
    {
      "constant": false,
      "inputs": [],
      "name": "renounceOwnership",
      "outputs": [],
      "payable": false,
      "stateMutability": "nonpayable",
      "type": "function"
    },
    {
      "constant": true,
      "inputs": [],
      "name": "callOnAddition",
      "outputs": [
        {
          "name": "",
          "type": "bool"
        }
      ],
      "payable": false,
      "stateMutability": "view",
      "type": "function"
    },
    {
      "constant": false,
      "inputs": [
        {
          "name": "_ItemFeatureAddress",
          "type": "address"
        }
      ],
      "name": "setItemFeatureAddress",
      "outputs": [
        {
          "name": "",
          "type": "bool"
        }
      ],
      "payable": false,
      "stateMutability": "nonpayable",
      "type": "function"
    },
    {
      "constant": false,
      "inputs": [
        {
          "name": "id",
          "type": "uint256"
        }
      ],
      "name": "distributeCoupon",
      "outputs": [
        {
          "name": "",
          "type": "bool"
        }
      ],
      "payable": false,
      "stateMutability": "nonpayable",
      "type": "function"
    },
    {
      "constant": true,
      "inputs": [],
      "name": "snowflakeDescription",
      "outputs": [
        {
          "name": "",
          "type": "string"
        }
      ],
      "payable": false,
      "stateMutability": "view",
      "type": "function"
    },
    {
      "constant": true,
      "inputs": [
        {
          "name": "",
          "type": "uint256"
        }
      ],
      "name": "returnPolicies",
      "outputs": [
        {
          "name": "returnsAccepted",
          "type": "bool"
        },
        {
          "name": "timeLimit",
          "type": "uint256"
        }
      ],
      "payable": false,
      "stateMutability": "view",
      "type": "function"
    },
    {
      "constant": true,
      "inputs": [],
      "name": "nextReturnPoliciesID",
      "outputs": [
        {
          "name": "",
          "type": "uint256"
        }
      ],
      "payable": false,
      "stateMutability": "view",
      "type": "function"
    },
    {
      "constant": true,
      "inputs": [],
      "name": "CouponFeatureAddress",
      "outputs": [
        {
          "name": "",
          "type": "address"
        }
      ],
      "payable": false,
      "stateMutability": "view",
      "type": "function"
    },
    {
      "constant": false,
      "inputs": [
        {
          "name": "id",
          "type": "uint256"
        }
      ],
      "name": "deleteReturnPolicy",
      "outputs": [
        {
          "name": "",
          "type": "bool"
        }
      ],
      "payable": false,
      "stateMutability": "nonpayable",
      "type": "function"
    },
    {
      "constant": true,
      "inputs": [],
      "name": "snowflakeName",
      "outputs": [
        {
          "name": "",
          "type": "string"
        }
      ],
      "payable": false,
      "stateMutability": "view",
      "type": "function"
    },
    {
      "constant": true,
      "inputs": [
        {
          "name": "",
          "type": "uint256"
        }
      ],
      "name": "deliveryMethods",
      "outputs": [
        {
          "name": "",
          "type": "string"
        }
      ],
      "payable": false,
      "stateMutability": "view",
      "type": "function"
    },
    {
      "constant": true,
      "inputs": [],
      "name": "owner",
      "outputs": [
        {
          "name": "",
          "type": "address"
        }
      ],
      "payable": false,
      "stateMutability": "view",
      "type": "function"
    },
    {
      "constant": true,
      "inputs": [],
      "name": "callOnRemoval",
      "outputs": [
        {
          "name": "",
          "type": "bool"
        }
      ],
      "payable": false,
      "stateMutability": "view",
      "type": "function"
    },
    {
      "constant": true,
      "inputs": [],
      "name": "isOwner",
      "outputs": [
        {
          "name": "",
          "type": "bool"
        }
      ],
      "payable": false,
      "stateMutability": "view",
      "type": "function"
    },
    {
      "constant": true,
      "inputs": [],
      "name": "ItemFeatureAddress",
      "outputs": [
        {
          "name": "",
          "type": "address"
        }
      ],
      "payable": false,
      "stateMutability": "view",
      "type": "function"
    },
    {
      "constant": false,
      "inputs": [
        {
          "name": "deliveryMethod",
          "type": "string"
        }
      ],
      "name": "addDeliveryMethod",
      "outputs": [
        {
          "name": "",
          "type": "bool"
        }
      ],
      "payable": false,
      "stateMutability": "nonpayable",
      "type": "function"
    },
    {
      "constant": false,
      "inputs": [
        {
          "name": "_CouponDistributionAddress",
          "type": "address"
        }
      ],
      "name": "setCouponDistributionAddress",
      "outputs": [
        {
          "name": "",
          "type": "bool"
        }
      ],
      "payable": false,
      "stateMutability": "nonpayable",
      "type": "function"
    },
    {
      "constant": false,
      "inputs": [
        {
          "name": "id",
          "type": "uint256"
        }
      ],
      "name": "deleteDeliveryMethod",
      "outputs": [
        {
          "name": "",
          "type": "bool"
        }
      ],
      "payable": false,
      "stateMutability": "nonpayable",
      "type": "function"
    },
    {
      "constant": false,
      "inputs": [
        {
          "name": "itemTag",
          "type": "string"
        }
      ],
      "name": "addItemTag",
      "outputs": [
        {
          "name": "",
          "type": "bool"
        }
      ],
      "payable": false,
      "stateMutability": "nonpayable",
      "type": "function"
    },
    {
      "constant": false,
      "inputs": [
        {
          "name": "_snowflakeAddress",
          "type": "address"
        }
      ],
      "name": "setSnowflakeAddress",
      "outputs": [],
      "payable": false,
      "stateMutability": "nonpayable",
      "type": "function"
    },
    {
      "constant": false,
      "inputs": [
        {
          "name": "_CouponFeatureAddress",
          "type": "address"
        }
      ],
      "name": "setCouponFeatureAddress",
      "outputs": [
        {
          "name": "",
          "type": "bool"
        }
      ],
      "payable": false,
      "stateMutability": "nonpayable",
      "type": "function"
    },
    {
      "constant": false,
      "inputs": [
        {
          "name": "newOwner",
          "type": "uint256"
        }
      ],
      "name": "transferOwnership",
      "outputs": [],
      "payable": false,
      "stateMutability": "nonpayable",
      "type": "function"
    },
    {
      "constant": true,
      "inputs": [
        {
          "name": "ein",
          "type": "uint256"
        },
        {
          "name": "couponID",
          "type": "uint256"
        }
      ],
      "name": "isUserCouponOwner",
      "outputs": [
        {
          "name": "isValid",
          "type": "bool"
        }
      ],
      "payable": false,
      "stateMutability": "view",
      "type": "function"
    },
    {
      "constant": true,
      "inputs": [
        {
          "name": "",
          "type": "uint256"
        },
        {
          "name": "",
          "type": "uint256"
        }
      ],
      "name": "userCoupons",
      "outputs": [
        {
          "name": "",
          "type": "bool"
        }
      ],
      "payable": false,
      "stateMutability": "view",
      "type": "function"
    },
    {
      "constant": true,
      "inputs": [],
      "name": "nextDeliveryMethodsID",
      "outputs": [
        {
          "name": "",
          "type": "uint256"
        }
      ],
      "payable": false,
      "stateMutability": "view",
      "type": "function"
    },
    {
      "constant": true,
      "inputs": [
        {
          "name": "id",
          "type": "uint256"
        }
      ],
      "name": "getDeliveryMethod",
      "outputs": [
        {
          "name": "method",
          "type": "string"
        }
      ],
      "payable": false,
      "stateMutability": "view",
      "type": "function"
    },
    {
      "constant": false,
      "inputs": [
        {
          "name": "ein",
          "type": "uint256"
        },
        {
          "name": "couponID",
          "type": "uint256"
        }
      ],
      "name": "giveUserCoupon",
      "outputs": [
        {
          "name": "",
          "type": "bool"
        }
      ],
      "payable": false,
      "stateMutability": "nonpayable",
      "type": "function"
    },
    {
      "constant": false,
      "inputs": [
        {
          "name": "newOwner",
          "type": "address"
        }
      ],
      "name": "transferOwnership",
      "outputs": [],
      "payable": false,
      "stateMutability": "nonpayable",
      "type": "function"
    },
    {
      "constant": false,
      "inputs": [
        {
          "name": "id",
          "type": "uint256"
        }
      ],
      "name": "deleteItemTag",
      "outputs": [
        {
          "name": "",
          "type": "bool"
        }
      ],
      "payable": false,
      "stateMutability": "nonpayable",
      "type": "function"
    },
    {
      "constant": true,
      "inputs": [],
      "name": "snowflakeAddress",
      "outputs": [
        {
          "name": "",
          "type": "address"
        }
      ],
      "payable": false,
      "stateMutability": "view",
      "type": "function"
    },
    {
      "constant": true,
      "inputs": [
        {
          "name": "id",
          "type": "uint256"
        }
      ],
      "name": "getReturnPolicy",
      "outputs": [
        {
          "name": "returnsAccepted",
          "type": "bool"
        },
        {
          "name": "timeLimit",
          "type": "uint256"
        }
      ],
      "payable": false,
      "stateMutability": "view",
      "type": "function"
    },
    {
      "inputs": [
        {
          "name": "_snowflakeName",
          "type": "string"
        },
        {
          "name": "_snowflakeDescription",
          "type": "string"
        },
        {
          "name": "_snowflakeAddress",
          "type": "address"
        },
        {
          "name": "_callOnAddition",
          "type": "bool"
        },
        {
          "name": "_callOnRemoval",
          "type": "bool"
        },
        {
          "name": "paymentAddress",
          "type": "address"
        },
        {
          "name": "CouponMarketplaceViaAddress",
          "type": "address"
        },
        {
          "name": "_CouponFeatureAddress",
          "type": "address"
        },
        {
          "name": "_ItemFeatureAddress",
          "type": "address"
        }
      ],
      "payable": false,
      "stateMutability": "nonpayable",
      "type": "constructor"
    },
    {
      "anonymous": false,
      "inputs": [
        {
          "indexed": true,
          "name": "previousOwner",
          "type": "uint256"
        },
        {
          "indexed": true,
          "name": "newOwner",
          "type": "uint256"
        }
      ],
      "name": "OwnershipTransferred",
      "type": "event"
    },
    {
      "anonymous": false,
      "inputs": [
        {
          "indexed": true,
          "name": "previousOwner",
          "type": "address"
        },
        {
          "indexed": true,
          "name": "newOwner",
          "type": "address"
        }
      ],
      "name": "OwnershipTransferred",
      "type": "event"
    },
    {
      "constant": true,
      "inputs": [],
      "name": "CouponMarketplaceViaAddress",
      "outputs": [
        {
          "name": "",
          "type": "address"
        }
      ],
      "payable": false,
      "stateMutability": "view",
      "type": "function"
    },
    {
      "constant": false,
      "inputs": [
        {
          "name": "",
          "type": "uint256"
        },
        {
          "name": "",
          "type": "uint256"
        },
        {
          "name": "",
          "type": "bytes"
        }
      ],
      "name": "onAddition",
      "outputs": [
        {
          "name": "",
          "type": "bool"
        }
      ],
      "payable": false,
      "stateMutability": "nonpayable",
      "type": "function"
    },
    {
      "constant": false,
      "inputs": [
        {
          "name": "",
          "type": "uint256"
        },
        {
          "name": "",
          "type": "bytes"
        }
      ],
      "name": "onRemoval",
      "outputs": [
        {
          "name": "",
          "type": "bool"
        }
      ],
      "payable": false,
      "stateMutability": "nonpayable",
      "type": "function"
    },
    {
      "constant": false,
      "inputs": [
        {
          "name": "id",
          "type": "uint256"
        },
        {
          "name": "approvingAddress",
          "type": "address"
        },
        {
          "name": "couponID",
          "type": "uint256"
        }
      ],
      "name": "purchaseItem",
      "outputs": [
        {
          "name": "",
          "type": "bool"
        }
      ],
      "payable": false,
      "stateMutability": "nonpayable",
      "type": "function"
    }
  ],
  "bytecode": "0x60806040523480156200001157600080fd5b50604051620023193803806200231983398101806040526101208110156200003857600080fd5b8101908080516401000000008111156200005157600080fd5b820160208101848111156200006557600080fd5b81516401000000008111828201871017156200008057600080fd5b505092919060200180516401000000008111156200009d57600080fd5b82016020810184811115620000b157600080fd5b8151640100000000811182820187101715620000cc57600080fd5b505060208201516040808401516060850151608086015160a087015160c088015160e09098015160008054600160a060020a03191633178082559651989b5096995093979296919590949293928b928b928b928b928b92600160a060020a039290921691907f8be0079c531659141344cd1fd0a4f28419497f9722a3daafe3b4186f6b6457e0908290a384516200016b90600190602088019062000623565b5083516200018190600290602087019062000623565b5062000196836401000000006200023a810204565b6003805491151575010000000000000000000000000000000000000000000260a860020a60ff0219931515740100000000000000000000000000000000000000000260a060020a60ff02199093169290921792909216179055506200020b915085905083838a64010000000062000279810204565b505060118054600160a060020a031916600160a060020a039290921691909117905550620006c5945050505050565b6200024d640100000000620002a9810204565b6200025757600080fd5b60038054600160a060020a031916600160a060020a0392909216919091179055565b6200028f848484640100000000620002bb810204565b620002a38164010000000062000333810204565b50505050565b600054600160a060020a031633145b90565b620002ce64010000000062000371810204565b620002e164010000000062000378810204565b620002f46401000000006200037f810204565b600a8054600160a060020a03948516600160a060020a031991821617909155600b805493851693821693909317909255600c8054919093169116179055565b620003478164010000000062000386810204565b6200036e6200035f33640100000000620003a8810204565b640100000000620003c4810204565b50565b6001600455565b6001600655565b6001600855565b60108054600160a060020a031916600160a060020a0392909216919091179055565b6000620003be82640100000000620003f9810204565b92915050565b600f81905560405181906000907f41545563b5478d4a04f861e33b36e455316904e9fe15096d35d14a5f9885212a908290a350565b601054604080517fa759ee6f0000000000000000000000000000000000000000000000000000000081529051600092600160a060020a0316918391839163a759ee6f91600480830192602092919082900301818787803b1580156200045d57600080fd5b505af115801562000472573d6000803e3d6000fd5b505050506040513d60208110156200048957600080fd5b5051604080517f237f1a21000000000000000000000000000000000000000000000000000000008152600160a060020a038781166004830152915192935083929183169163237f1a2191602480820192602092909190829003018186803b158015620004f457600080fd5b505afa15801562000509573d6000803e3d6000fd5b505050506040513d60208110156200052057600080fd5b505162000579576040517f08c379a0000000000000000000000000000000000000000000000000000000008152600401808060200182810382526028815260200180620022f16028913960400191505060405180910390fd5b80600160a060020a03166305c62c2f866040518263ffffffff167c01000000000000000000000000000000000000000000000000000000000281526004018082600160a060020a0316600160a060020a0316815260200191505060206040518083038186803b158015620005ec57600080fd5b505afa15801562000601573d6000803e3d6000fd5b505050506040513d60208110156200061857600080fd5b505195945050505050565b828054600181600116156101000203166002900490600052602060002090601f016020900481019282601f106200066657805160ff191683800117855562000696565b8280016001018555821562000696579182015b828111156200069657825182559160200191906001019062000679565b50620006a4929150620006a8565b5090565b620002b891905b80821115620006a45760008155600101620006af565b611c1c80620006d56000396000f3fe608060405234801561001057600080fd5b506004361061028e5760003560e060020a900480638900011b11610160578063c979b05a116100d2578063f0acf6aa1161008b578063f0acf6aa14610a45578063f10b560714610a62578063f2fde38b14610a85578063f658ae0414610aab578063f9f451b814610ac8578063fd4230e614610ad05761028e565b8063c979b05a1461098e578063d137484c146109b4578063d23e8489146109da578063d58f19c3146109f7578063e018290814610a1a578063e4aab40014610a3d5761028e565b80639182621a116101245780639182621a1461074a5780639c5f4156146107f75780639fc94c2f146107ff578063b26cc3e5146108a5578063b465eccb146108cb578063b54a9c55146108e85761028e565b80638900011b146106635780638da5cb5b146106805780638f06492d146106885780638f32d59b1461069057806390bfaf40146106985761028e565b80636731644711610204578063798f1be1116101bd578063798f1be1146105c457806380168e81146105fc57806380b2129914610604578063823c5fcb1461060c578063874e0a1d1461063e57806388cdab941461065b5761028e565b8063673164471461055f578063715018a6146105675780637179025114610571578063737b35ec146105795780637604c5001461059f57806376acf1b6146105bc5761028e565b8063494632581161025657806349463258146104645780634f22b7561461046c5780635e1e1004146104fe5780635fc31cf1146105245780635fd5e4d01461054f578063633423be146105575761028e565b8063031d5f8c1461029357806327fe91ad14610354578063341f6e90146104015780633e938fb714610425578063424fe96a1461043f575b600080fd5b610340600480360360408110156102a957600080fd5b813591908101906040810160208201356401000000008111156102cb57600080fd5b8201836020820111156102dd57600080fd5b803590602001918460018302840111640100000000831117156102ff57600080fd5b91908080601f016020809104026020016040519081016040528093929190818152602001838380828437600092019190915250929550610aed945050505050565b604080519115158252519081900360200190f35b6103406004803603604081101561036a57600080fd5b8135919081019060408101602082013564010000000081111561038c57600080fd5b82018360208201111561039e57600080fd5b803590602001918460018302840111640100000000831117156103c057600080fd5b91908080601f016020809104026020016040519081016040528093929190818152602001838380828437600092019190915250929550610b11945050505050565b610409610b2e565b60408051600160a060020a039092168252519081900360200190f35b61042d610b3d565b60408051918252519081900360200190f35b6103406004803603604081101561045557600080fd5b50803515159060200135610b44565b610409610b61565b6104896004803603602081101561048257600080fd5b5035610b70565b6040805160208082528351818301528351919283929083019185019080838360005b838110156104c35781810151838201526020016104ab565b50505050905090810190601f1680156104f05780820380516001836020036101000a031916815260200191505b509250505060405180910390f35b6103406004803603602081101561051457600080fd5b5035600160a060020a0316610c0b565b6103406004803603606081101561053a57600080fd5b50803590602081013515159060400135610c2d565b610340610c53565b610409610c62565b61042d610c71565b61056f610c77565b005b610340610cbe565b6103406004803603602081101561058f57600080fd5b5035600160a060020a0316610cdf565b610340600480360360208110156105b557600080fd5b5035610cfb565b610489610e40565b6105e1600480360360208110156105da57600080fd5b5035610e98565b60408051921515835260208301919091528051918290030190f35b61042d610eb7565b610409610ebd565b6103406004803603606081101561062257600080fd5b50803590600160a060020a036020820135169060400135610ecc565b6103406004803603602081101561065457600080fd5b503561114d565b610489611169565b6104896004803603602081101561067957600080fd5b50356111c3565b61040961122b565b61034061123a565b61034061125c565b610340600480360360608110156106ae57600080fd5b8135916020810135918101906060810160408201356401000000008111156106d557600080fd5b8201836020820111156106e757600080fd5b8035906020019184600183028401116401000000008311171561070957600080fd5b91908080601f01602080910402602001604051908101604052809392919081815260200183838082843760009201919091525092955061126d945050505050565b6103406004803603604081101561076057600080fd5b8135919081019060408101602082013564010000000081111561078257600080fd5b82018360208201111561079457600080fd5b803590602001918460018302840111640100000000831117156107b657600080fd5b91908080601f016020809104026020016040519081016040528093929190818152602001838380828437600092019190915250929550611276945050505050565b61040961127e565b6103406004803603602081101561081557600080fd5b81019060208101813564010000000081111561083057600080fd5b82018360208201111561084257600080fd5b8035906020019184600183028401116401000000008311171561086457600080fd5b91908080601f01602080910402602001604051908101604052809392919081815260200183838082843760009201919091525092955061128d945050505050565b610340600480360360208110156108bb57600080fd5b5035600160a060020a03166112a9565b610340600480360360208110156108e157600080fd5b50356112c5565b610340600480360360208110156108fe57600080fd5b81019060208101813564010000000081111561091957600080fd5b82018360208201111561092b57600080fd5b8035906020019184600183028401116401000000008311171561094d57600080fd5b91908080601f0160208091040260200160405190810160405280939291908181526020018383808284376000920191909152509295506112e1945050505050565b61056f600480360360208110156109a457600080fd5b5035600160a060020a03166112fd565b610340600480360360208110156109ca57600080fd5b5035600160a060020a031661133d565b61056f600480360360208110156109f057600080fd5b5035611359565b61034060048036036040811015610a0d57600080fd5b5080359060200135611376565b61034060048036036040811015610a3057600080fd5b5080359060200135611396565b61042d6113b6565b61048960048036036020811015610a5b57600080fd5b50356113bc565b61034060048036036040811015610a7857600080fd5b508035906020013561145d565b61056f60048036036020811015610a9b57600080fd5b5035600160a060020a0316611481565b61034060048036036020811015610ac157600080fd5b503561149b565b6104096114b7565b6105e160048036036020811015610ae657600080fd5b50356114c6565b6000610af7610c53565b610b0057600080fd5b610b0a8383611508565b9392505050565b6000610b1b610c53565b610b2457600080fd5b610b0a8383611530565b600d54600160a060020a031681565b600f545b90565b6000610b4e610c53565b610b5757600080fd5b610b0a838361154e565b601154600160a060020a031690565b60056020908152600091825260409182902080548351601f600260001961010060018616150201909316929092049182018490048402810184019094528084529091830182828015610c035780601f10610bd857610100808354040283529160200191610c03565b820191906000526020600020905b815481529060010190602001808311610be657829003601f168201915b505050505081565b6000610c15610c53565b610c1e57600080fd5b610c2782611594565b92915050565b6000610c37610c53565b610c4057600080fd5b610c4b8484846115c5565b949350505050565b6000610c5d611600565b905090565b600a54600160a060020a031690565b60045481565b610c7f610c53565b610c8857600080fd5b600f54604051600091907f41545563b5478d4a04f861e33b36e455316904e9fe15096d35d14a5f9885212a908390a36000600f55565b60035474010000000000000000000000000000000000000000900460ff1681565b6000610ce9610c53565b610cf257600080fd5b610c2782611619565b6000610d05610c53565b610d0e57600080fd5b600b54604080517fe4a956e9000000000000000000000000000000000000000000000000000000008152600481018590529051600160a060020a0390921691600091839163e4a956e991602480820192602092909190829003018186803b158015610d7857600080fd5b505afa158015610d8c573d6000803e3d6000fd5b505050506040513d6020811015610da257600080fd5b5051604080517f7604c5000000000000000000000000000000000000000000000000000000000081526004810187905290519192508291600160a060020a03831691637604c5009160248083019260209291908290030181600087803b158015610e0b57600080fd5b505af1158015610e1f573d6000803e3d6000fd5b505050506040513d6020811015610e3557600080fd5b509395945050505050565b6002805460408051602060018416156101000260001901909316849004601f81018490048402820184019092528181529291830182828015610c035780601f10610bd857610100808354040283529160200191610c03565b6009602052600090815260409020805460019091015460ff9091169082565b60085481565b600b54600160a060020a031681565b600c54604080517f4c4df870000000000000000000000000000000000000000000000000000000008152600481018690529051600092600160a060020a03169183918391634c4df870916024808301926020929190829003018186803b158015610f3557600080fd5b505afa158015610f49573d6000803e3d6000fd5b505050506040513d6020811015610f5f57600080fd5b5051905080610fb9576040517f08c379a0000000000000000000000000000000000000000000000000000000008152600401808060200182810382526047815260200180611b826047913960600191505060405180910390fd5b601054604080516060818101909252603b808252600160a060020a0390931692829190611b476020830139905088610ff08961164a565b610ff8610b3d565b6040805160208101949094528381019290925260608301526080820186905260a08083018a90528151808403909101815260c090920190529150600160a060020a038316639cd5421061104a8a61164a565b601154600160a060020a031661105e610b3d565b88876040518663ffffffff1660e060020a0281526004018086815260200185600160a060020a0316600160a060020a0316815260200184815260200183815260200180602001828103825283818151815260200191508051906020019080838360005b838110156110d95781810151838201526020016110c1565b50505050905090810190601f1680156111065780820380516001836020036101000a031916815260200191505b509650505050505050600060405180830381600087803b15801561112957600080fd5b505af115801561113d573d6000803e3d6000fd5b5050505050505050509392505050565b6000611157610c53565b61116057600080fd5b610c2782611850565b60018054604080516020600284861615610100026000190190941693909304601f81018490048402820184019092528181529291830182828015610c035780601f10610bd857610100808354040283529160200191610c03565b60076020908152600091825260409182902080548351601f600260001961010060018616150201909316929092049182018490048402810184019094528084529091830182828015610c035780601f10610bd857610100808354040283529160200191610c03565b600054600160a060020a031690565b6003547501000000000000000000000000000000000000000000900460ff1681565b600054600160a060020a0316331490565b60019392505050565b600192915050565b600c54600160a060020a031681565b6000611297610c53565b6112a057600080fd5b610c2782611872565b60006112b3610c53565b6112bc57600080fd5b610c27826118a6565b60006112cf610c53565b6112d857600080fd5b610c27826118d7565b60006112eb610c53565b6112f457600080fd5b610c27826118f7565b61130561125c565b61130e57600080fd5b6003805473ffffffffffffffffffffffffffffffffffffffff1916600160a060020a0392909216919091179055565b6000611347610c53565b61135057600080fd5b610c278261192b565b611361610c53565b61136a57600080fd5b6113738161195c565b50565b6000918252600e6020908152604080842092845291905290205460ff1690565b600e60209081526000928352604080842090915290825290205460ff1681565b60065481565b60008181526007602090815260409182902080548351601f60026000196101006001861615020190931692909204918201849004840281018401909452808452606093928301828280156114515780601f1061142657610100808354040283529160200191611451565b820191906000526020600020905b81548152906001019060200180831161143457829003601f168201915b50505050509050919050565b600d54600090600160a060020a0316331461147757600080fd5b610b0a838361199a565b61148961125c565b61149257600080fd5b611373816119c4565b60006114a5610c53565b6114ae57600080fd5b610c2782611a3f565b601054600160a060020a031681565b6000806114d1611a57565b5050506000908152600960209081526040918290208251808401909352805460ff1615158084526001909101549290910182905291565b60008281526005602090815260408220835161152692850190611a6e565b5060019392505050565b60008281526007602090815260408220835161152692850190611a6e565b6040805180820182529215158352602080840192835260088054600090815260099092529190209251835460ff1916901515178355905160019283015580548201905590565b600a8054600160a060020a03831673ffffffffffffffffffffffffffffffffffffffff199091161790556001919050565b604080518082018252921515835260208084019283526000948552600990529092209051815460ff1916901515178155905160019182015590565b600061160a610b3d565b6116133361164a565b14905090565b600c8054600160a060020a03831673ffffffffffffffffffffffffffffffffffffffff199091161790556001919050565b601054604080517fa759ee6f0000000000000000000000000000000000000000000000000000000081529051600092600160a060020a0316918391839163a759ee6f91600480830192602092919082900301818787803b1580156116ad57600080fd5b505af11580156116c1573d6000803e3d6000fd5b505050506040513d60208110156116d757600080fd5b5051604080517f237f1a21000000000000000000000000000000000000000000000000000000008152600160a060020a038781166004830152915192935083929183169163237f1a2191602480820192602092909190829003018186803b15801561174157600080fd5b505afa158015611755573d6000803e3d6000fd5b505050506040513d602081101561176b57600080fd5b50516117c2576040517f08c379a0000000000000000000000000000000000000000000000000000000008152600401808060200182810382526028815260200180611bc96028913960400191505060405180910390fd5b80600160a060020a03166305c62c2f866040518263ffffffff1660e060020a0281526004018082600160a060020a0316600160a060020a0316815260200191505060206040518083038186803b15801561181b57600080fd5b505afa15801561182f573d6000803e3d6000fd5b505050506040513d602081101561184557600080fd5b505195945050505050565b6000908152600960205260408120805460ff1916815560019081019190915590565b60065460009081526007602090815260408220835161189392850190611a6e565b5050600680546001908101909155919050565b600d8054600160a060020a03831673ffffffffffffffffffffffffffffffffffffffff199091161790556001919050565b60008181526007602052604081206118ef9082611aec565b506001919050565b60045460009081526005602090815260408220835161191892850190611a6e565b5050600480546001908101909155919050565b600b8054600160a060020a03831673ffffffffffffffffffffffffffffffffffffffff199091161790556001919050565b8061196657600080fd5b600f546040518291907f41545563b5478d4a04f861e33b36e455316904e9fe15096d35d14a5f9885212a90600090a3600f55565b6000918252600e602090815260408084209284529190529020805460ff1916600190811790915590565b600160a060020a0381166119d757600080fd5b60008054604051600160a060020a03808516939216917f8be0079c531659141344cd1fd0a4f28419497f9722a3daafe3b4186f6b6457e091a36000805473ffffffffffffffffffffffffffffffffffffffff1916600160a060020a0392909216919091179055565b60008181526005602052604081206118ef9082611aec565b604080518082019091526000808252602082015290565b828054600181600116156101000203166002900490600052602060002090601f016020900481019282601f10611aaf57805160ff1916838001178555611adc565b82800160010185558215611adc579182015b82811115611adc578251825591602001919060010190611ac1565b50611ae8929150611b2c565b5090565b50805460018160011615610100020316600290046000825580601f10611b125750611373565b601f01602090049060005260206000209081019061137391905b610b4191905b80821115611ae85760008155600101611b3256fe70726f636573735472616e73616374696f6e2875696e743235362c75696e743235362c75696e743235362c75696e743235362c75696e74323536296974656d20646f6573206e6f742065786973742c206f722068617320612070726963652062656c6f7720302e2054686520707269636520696e207175657374696f6e2069733a2041646472657373206e6f6e2d6578697374656e7420696e204964656e746974795265676973747279a165627a7a723058200d00eed41da8cb49f9261a04a48c84a9e233f54ff9c1777e1518da78f36cc275002941646472657373206e6f6e2d6578697374656e7420696e204964656e746974795265676973747279",
  "source": "pragma solidity ^0.5.0;\n\nimport \"../marketplace/SnowflakeEINMarketplace.sol\";\nimport \"../SnowflakeResolver.sol\";\nimport \"../ein/util/SnowflakeEINOwnable.sol\";\nimport \"../interfaces/IdentityRegistryInterface.sol\";\nimport \"../interfaces/SnowflakeInterface.sol\";\nimport \"../interfaces/SnowflakeViaInterface.sol\";\nimport \"../interfaces/NeoCouponMarketplaceResolverInterface.sol\";\nimport \"../interfaces/marketplace/ItemInterface.sol\";\n\nimport \"../marketplace/features/CouponFeature.sol\";\nimport \"../marketplace/features/ItemFeature.sol\";\n\n\ncontract CouponMarketplaceResolver is SnowflakeResolver, SnowflakeEINMarketplace, NeoCouponMarketplaceResolverInterface {\n\n/*\n\nSimple Marketplace\n-------------------\n\n-Contract owner = seller\n-Contract owner = EIN\n-Items\n-Coupons\n  -[uint ---> Coupon]\n     -Coupon = [Amount off, items applied to]\n\nItem Status:\n-------------\n-For Sale/Active\n-Purchased - Awaiting payment (Maybe not needed)\n-Complete\n\n\nFunctions:\n-----------\n-List items\n-Remove item listing\n-Update item listing\n-Read item listing\n\n\n-Pay for thing\n   -Look for EIN in Identity Registry, I suppose?\n   -TransferHydroBalanceTo(EIN owner)\n\n-----------------------------------------------------------------\n\nIndex:\n--------\n\n   -Struct/Mapping defnitions and declarations\n   -Constructor\n   -Inheritance function overrides\n   -Public getter functions\n   -Add/Update/Delete functions\n\n\n*/\n\n    address private _CouponMarketplaceViaAddress;\n\n\n    /*\n     * =============\n     * Constructor:\n     * =============\n     *\n     * Initialize EIN of owner and SnowflakeResolver vars\n     *\n     *\n     */\n    constructor(\n        string memory _snowflakeName, string memory _snowflakeDescription,\n        address _snowflakeAddress,\n        bool _callOnAddition, bool _callOnRemoval,\n        address paymentAddress,\n        address CouponMarketplaceViaAddress,\n        address _CouponFeatureAddress, address _ItemFeatureAddress\n    ) SnowflakeResolver (\n        _snowflakeName, _snowflakeDescription,\n        _snowflakeAddress,\n        _callOnAddition, _callOnRemoval\n    ) public {\n\n        //Parent constructing\n        _constructSnowflakeEINMarketplace(paymentAddress, _CouponFeatureAddress, _ItemFeatureAddress, _snowflakeAddress);\n\n        //Set contract-specific private/internal vars\n        _CouponMarketplaceViaAddress = CouponMarketplaceViaAddress;\n\n    }\n\n\n\n    function CouponMarketplaceViaAddress() public view returns (address) {\n        return _CouponMarketplaceViaAddress;\n    }\n\n\n/* ======================================\n    Functions overridden via inheritance  \n   ======================================\n*/\n\n\n    // if callOnAddition is true, onAddition is called every time a user adds the contract as a resolver\n    // this implementation **must** use the senderIsSnowflake modifier\n    // returning false will disallow users from adding the contract as a resolver\n    function onAddition(uint /* ein */, uint /* allowance */, bytes memory /* extraData */) public returns (bool) {\n        return true;\n    }\n\n    // if callOnRemoval is true, onRemoval is called every time a user removes the contract as a resolver\n    // this function **must** use the senderIsSnowflake modifier\n    // returning false soft prevents users from removing the contract as a resolver\n    // however, note that they can force remove the resolver, bypassing onRemoval\n    function onRemoval(uint /* ein */, bytes memory /* extraData*/) public returns (bool){\n       return true;\n    }\n\n\n/*\n\n-Pay for thing\n   -Look for EIN in Identity Registry, I suppose?\n   -TransferHydroBalanceTo(EIN owner)\n\n\n\nBuyers can purchase listed items at-price by by sending a transaction that:\n\n    Calls allow-and-call for the user on Snowflake\n        Sets an allowance equal to the price\n        Draws the corresponding allowance from the user\n        Transfers ownership of the item to the buyer\n    Transactions should be facilitated through a via contract which must be written as part of this task (instructions below); in most instances, the via will do nothing; however, if the user has a coupon, the via will apply the coupon as part of the transaction. Coupons work as follows:\n\n\nVia contract to use coupons:\n\n    When a buyer is buying an item, the transfer function call on Snowflake should include the address of the via contract, and an extraData bytes parameter that will encode a function call. This bytes parameter should include the uuid of the user-owned coupon. The logic of the via contract will draw the apply the discount rate of the coupon to the item, and then transfer the coupon to a burner address. The users discount will be refunded to them while the seller receives the rest of the value of the transaction. Finally, ownership of the purchased item should be transferred to the user. All this should be achievable in one synchronous function-call. If a user passes 0 as the uuid for the coupon, the via should just conduct a transfer as normal as if no coupon were present.\n    The via contract will need to check to enforce that the user actually has the coupon they are trying to pass.\n\n\n\n\n\n*/\n\n\n\n    function purchaseItem(uint id, /*bytes memory data,*/ address approvingAddress, uint couponID) public returns (bool) {\n\n        //Initialize itemFeature here (as is necessary to check the require as early as possible)   \n        ItemFeature itemFeature = ItemFeature(ItemFeatureAddress);\n        //CouponFeature couponFeature = CouponFeature(CouponFeatureAddress);\n\n        uint256 price = itemFeature.getItemPrice(id);\n\n        //Ensure the item exists, and that there is a price\n        require(price > 0, \"item does not exist, or has a price below 0. The price in question is: \");\n\n        //Initialize Snowflake\n        SnowflakeInterface snowflake = SnowflakeInterface(snowflakeAddress);\n\n\n    /* Take an EIN (from), an address (via), an EIN (to), an amount, and data\n\n          -handleAllowance() and pass the EIN (from), and an amount\n          -_withdraw() and pass the EIN (from), the address (via), and amount\n          -Call snowflakeCall() from the via contract through the SnowflakeViaInterface, passing msg.sender, the EIN (from), the EIN (to), amount, and data\n*/\n\n        //Get EIN of user\n        //Logic is einFrom, since this is the buyer from which funds will head to our via contract\n            //uint einFrom = identityRegistry.getEIN(approvingAddress);\n            //uint einTo = ownerEIN(); //The seller\n\n\n        //bytes data; set snowflakeCall stuff\n        bytes memory snowflakeCallData;\n        string memory functionSignature = \"processTransaction(uint256,uint256,uint256,uint256,uint256)\";\n//        snowflakeCallData = abi.encodeWithSelector(bytes4(keccak256(bytes(functionSignature))), id, getEIN(approvingAddress), ownerEIN(), price, couponID);\n        snowflakeCallData = abi.encode(id, getEIN(approvingAddress), ownerEIN(), price, couponID);\n\n        //Allowance for item to CouponMarketplaceVia MUST BE DONE FROM FRONT-END\n        //Allowance for coupon to CouponMarketplaceVia MUST BE DONE FROM FRONT-END\n\n        //If there is a coupon,\n        //   Grant allowance to Via\n        //if(couponID != 0){\n            //Ensure coupon is owned\n            //(!!!IMPORTANT!!! Ohhh, you know, I don't this is quite possible like this... ownerOf makes it unclear as to which (Coupon, or Item) it'll return, I think... hmmm, darn. Seperate contract? Perhaps create on deployment?)\n       //     require(couponFeature.ownerOf(id) == getEIN(approvingAddress), \"Approving address is not the owner of this coupon\");\n            \n            \n       // }\n\n\n\n        // \n        //  function transferSnowflakeBalanceFromVia(uint einFrom, address via, uint einTo, uint amount, bytes memory _bytes)\n        //\n\n\n        snowflake.transferSnowflakeBalanceFromVia(getEIN(approvingAddress), _CouponMarketplaceViaAddress, ownerEIN(), price, snowflakeCallData);\n\n        //Transfers ownership of the item to the buyer (!)\n\n    }\n\n\n\n}\n\n \n\n",
  "sourcePath": "/home/luiserebii/hydrosnowflake_marketplace_coupons/contracts/resolvers/CouponMarketplaceResolver.sol",
  "compiler": {
    "name": "solc",
    "version": "0.5.6+commit.b259423e.Emscripten.clang"
  },
  "schemaVersion": "3.0.6",
  "updatedAt": "2019-04-11T00:38:35.870Z",
  "devdoc": {
    "methods": {
      "isEINOwner()": {
        "return": "true if address resolves to owner of the contract."
      },
      "isOwner()": {
        "return": "true if `msg.sender` is the owner of the contract."
      },
      "owner()": {
        "return": "the address of the owner."
      },
      "ownerEIN()": {
        "return": "the EIN of the owner."
      },
      "renounceOwnership()": {
        "details": "Allows the current owner to relinquish control of the contract."
      },
      "transferOwnership(address)": {
        "details": "Allows the current owner to transfer control of the contract to a newOwner.",
        "params": {
          "newOwner": "The address to transfer ownership to."
        }
      },
      "transferOwnership(uint256)": {
        "details": "Allows the current owner to transfer control of the contract to a newOwner.",
        "params": {
          "newOwner": "The address to transfer ownership to."
        }
      }
    }
  },
  "userdoc": {
    "methods": {
      "renounceOwnership()": {
        "notice": "Renouncing to ownership will leave the contract without an owner. It will not be possible to call the functions with the `onlyOwner` modifier anymore."
      }
    }
  }
}