{
  "contractName": "CouponFeature",
  "abi": [
    {
      "constant": true,
      "inputs": [
        {
          "name": "interfaceId",
          "type": "bytes4"
        }
      ],
      "name": "supportsInterface",
      "outputs": [
        {
          "name": "",
          "type": "bool"
        }
      ],
      "payable": false,
      "stateMutability": "view",
      "type": "function",
      "signature": "0x01ffc9a7"
    },
    {
      "constant": false,
      "inputs": [
        {
          "name": "tokenId",
          "type": "uint256"
        }
      ],
      "name": "burnAddress",
      "outputs": [],
      "payable": false,
      "stateMutability": "nonpayable",
      "type": "function",
      "signature": "0x043f5cbb"
    },
    {
      "constant": true,
      "inputs": [
        {
          "name": "tokenId",
          "type": "uint256"
        }
      ],
      "name": "getApproved",
      "outputs": [
        {
          "name": "",
          "type": "uint256"
        }
      ],
      "payable": false,
      "stateMutability": "view",
      "type": "function",
      "signature": "0x081812fc"
    },
    {
      "constant": false,
      "inputs": [
        {
          "name": "from",
          "type": "uint256"
        },
        {
          "name": "to",
          "type": "uint256"
        },
        {
          "name": "tokenId",
          "type": "uint256"
        }
      ],
      "name": "safeTransferFromAddress",
      "outputs": [],
      "payable": false,
      "stateMutability": "nonpayable",
      "type": "function",
      "signature": "0x0d2e347d"
    },
    {
      "constant": false,
      "inputs": [
        {
          "name": "to",
          "type": "uint256"
        },
        {
          "name": "approved",
          "type": "bool"
        }
      ],
      "name": "setApprovalForAll",
      "outputs": [],
      "payable": false,
      "stateMutability": "nonpayable",
      "type": "function",
      "signature": "0x16b49a43"
    },
    {
      "constant": false,
      "inputs": [
        {
          "name": "to",
          "type": "uint256"
        },
        {
          "name": "tokenId",
          "type": "uint256"
        }
      ],
      "name": "mint",
      "outputs": [
        {
          "name": "",
          "type": "bool"
        }
      ],
      "payable": false,
      "stateMutability": "nonpayable",
      "type": "function",
      "signature": "0x1b2ef1ca"
    },
    {
      "constant": false,
      "inputs": [
        {
          "name": "from",
          "type": "uint256"
        },
        {
          "name": "to",
          "type": "uint256"
        },
        {
          "name": "tokenId",
          "type": "uint256"
        }
      ],
      "name": "transferFrom",
      "outputs": [],
      "payable": false,
      "stateMutability": "nonpayable",
      "type": "function",
      "signature": "0x310ed7f0"
    },
    {
      "constant": true,
      "inputs": [],
      "name": "ownerEIN",
      "outputs": [
        {
          "name": "",
          "type": "uint256"
        }
      ],
      "payable": false,
      "stateMutability": "view",
      "type": "function",
      "signature": "0x3e938fb7"
    },
    {
      "constant": false,
      "inputs": [
        {
          "name": "tokenId",
          "type": "uint256"
        }
      ],
      "name": "burn",
      "outputs": [],
      "payable": false,
      "stateMutability": "nonpayable",
      "type": "function",
      "signature": "0x42966c68"
    },
    {
      "constant": false,
      "inputs": [
        {
          "name": "from",
          "type": "uint256"
        },
        {
          "name": "to",
          "type": "uint256"
        },
        {
          "name": "tokenId",
          "type": "uint256"
        },
        {
          "name": "_data",
          "type": "bytes"
        }
      ],
      "name": "safeTransferFromAddress",
      "outputs": [],
      "payable": false,
      "stateMutability": "nonpayable",
      "type": "function",
      "signature": "0x435b153f"
    },
    {
      "constant": true,
      "inputs": [
        {
          "name": "",
          "type": "uint256"
        }
      ],
      "name": "availableCoupons",
      "outputs": [
        {
          "name": "couponType",
          "type": "uint8"
        },
        {
          "name": "title",
          "type": "string"
        },
        {
          "name": "description",
          "type": "string"
        },
        {
          "name": "amountOff",
          "type": "uint256"
        },
        {
          "name": "expirationDate",
          "type": "uint256"
        },
        {
          "name": "couponDistribution",
          "type": "address"
        }
      ],
      "payable": false,
      "stateMutability": "view",
      "type": "function",
      "signature": "0x4a2fe20a"
    },
    {
      "constant": false,
      "inputs": [
        {
          "name": "to",
          "type": "uint256"
        },
        {
          "name": "tokenId",
          "type": "uint256"
        }
      ],
      "name": "approve",
      "outputs": [],
      "payable": false,
      "stateMutability": "nonpayable",
      "type": "function",
      "signature": "0x5d35a3d9"
    },
    {
      "constant": false,
      "inputs": [],
      "name": "isEINOwner",
      "outputs": [
        {
          "name": "",
          "type": "bool"
        }
      ],
      "payable": false,
      "stateMutability": "nonpayable",
      "type": "function",
      "signature": "0x5fd5e4d0"
    },
    {
      "constant": true,
      "inputs": [
        {
          "name": "tokenId",
          "type": "uint256"
        }
      ],
      "name": "ownerOf",
      "outputs": [
        {
          "name": "",
          "type": "uint256"
        }
      ],
      "payable": false,
      "stateMutability": "view",
      "type": "function",
      "signature": "0x6352211e"
    },
    {
      "constant": false,
      "inputs": [
        {
          "name": "from",
          "type": "uint256"
        },
        {
          "name": "to",
          "type": "uint256"
        },
        {
          "name": "tokenId",
          "type": "uint256"
        },
        {
          "name": "_data",
          "type": "bytes"
        }
      ],
      "name": "safeTransferFrom",
      "outputs": [],
      "payable": false,
      "stateMutability": "nonpayable",
      "type": "function",
      "signature": "0x68d1e641"
    },
    {
      "constant": false,
      "inputs": [],
      "name": "renounceOwnership",
      "outputs": [],
      "payable": false,
      "stateMutability": "nonpayable",
      "type": "function",
      "signature": "0x715018a6"
    },
    {
      "constant": true,
      "inputs": [
        {
          "name": "id",
          "type": "uint256"
        }
      ],
      "name": "getCouponItemsApplicableLength",
      "outputs": [
        {
          "name": "",
          "type": "uint256"
        }
      ],
      "payable": false,
      "stateMutability": "view",
      "type": "function",
      "signature": "0x7b7ecf98"
    },
    {
      "constant": false,
      "inputs": [
        {
          "name": "from",
          "type": "uint256"
        },
        {
          "name": "to",
          "type": "uint256"
        },
        {
          "name": "tokenId",
          "type": "uint256"
        }
      ],
      "name": "transferFromAddress",
      "outputs": [],
      "payable": false,
      "stateMutability": "nonpayable",
      "type": "function",
      "signature": "0x7f493d9c"
    },
    {
      "constant": false,
      "inputs": [],
      "name": "renounceSnowflakeMinter",
      "outputs": [],
      "payable": false,
      "stateMutability": "nonpayable",
      "type": "function",
      "signature": "0x895c3e94"
    },
    {
      "constant": false,
      "inputs": [
        {
          "name": "to",
          "type": "address"
        },
        {
          "name": "tokenId",
          "type": "uint256"
        }
      ],
      "name": "approveAddress",
      "outputs": [],
      "payable": false,
      "stateMutability": "nonpayable",
      "type": "function",
      "signature": "0x8b9a0c89"
    },
    {
      "constant": true,
      "inputs": [
        {
          "name": "owner",
          "type": "uint256"
        },
        {
          "name": "operator",
          "type": "uint256"
        }
      ],
      "name": "isApprovedForAll",
      "outputs": [
        {
          "name": "",
          "type": "bool"
        }
      ],
      "payable": false,
      "stateMutability": "view",
      "type": "function",
      "signature": "0x8d9188d5"
    },
    {
      "constant": true,
      "inputs": [
        {
          "name": "id",
          "type": "uint256"
        }
      ],
      "name": "getCoupon",
      "outputs": [
        {
          "name": "couponType",
          "type": "uint8"
        },
        {
          "name": "title",
          "type": "string"
        },
        {
          "name": "description",
          "type": "string"
        },
        {
          "name": "amountOff",
          "type": "uint256"
        },
        {
          "name": "expirationDate",
          "type": "uint256"
        }
      ],
      "payable": false,
      "stateMutability": "view",
      "type": "function",
      "signature": "0x936e3169"
    },
    {
      "constant": true,
      "inputs": [
        {
          "name": "account",
          "type": "uint256"
        }
      ],
      "name": "isSnowflakeMinter",
      "outputs": [
        {
          "name": "",
          "type": "bool"
        }
      ],
      "payable": false,
      "stateMutability": "view",
      "type": "function",
      "signature": "0x9690f6d1"
    },
    {
      "constant": false,
      "inputs": [
        {
          "name": "account",
          "type": "address"
        }
      ],
      "name": "addMinter",
      "outputs": [],
      "payable": false,
      "stateMutability": "nonpayable",
      "type": "function",
      "signature": "0x983b2d56"
    },
    {
      "constant": false,
      "inputs": [],
      "name": "renounceMinter",
      "outputs": [],
      "payable": false,
      "stateMutability": "nonpayable",
      "type": "function",
      "signature": "0x98650275"
    },
    {
      "constant": true,
      "inputs": [
        {
          "name": "owner",
          "type": "uint256"
        }
      ],
      "name": "balanceOf",
      "outputs": [
        {
          "name": "",
          "type": "uint256"
        }
      ],
      "payable": false,
      "stateMutability": "view",
      "type": "function",
      "signature": "0x9cc7f708"
    },
    {
      "constant": false,
      "inputs": [
        {
          "name": "account",
          "type": "uint256"
        }
      ],
      "name": "addSnowflakeMinter",
      "outputs": [],
      "payable": false,
      "stateMutability": "nonpayable",
      "type": "function",
      "signature": "0xa4453ffb"
    },
    {
      "constant": true,
      "inputs": [
        {
          "name": "account",
          "type": "address"
        }
      ],
      "name": "isMinter",
      "outputs": [
        {
          "name": "",
          "type": "bool"
        }
      ],
      "payable": false,
      "stateMutability": "view",
      "type": "function",
      "signature": "0xaa271e1a"
    },
    {
      "constant": false,
      "inputs": [
        {
          "name": "to",
          "type": "uint256"
        },
        {
          "name": "tokenId",
          "type": "uint256"
        }
      ],
      "name": "mintAddress",
      "outputs": [
        {
          "name": "",
          "type": "bool"
        }
      ],
      "payable": false,
      "stateMutability": "nonpayable",
      "type": "function",
      "signature": "0xb3caa247"
    },
    {
      "constant": true,
      "inputs": [
        {
          "name": "id",
          "type": "uint256"
        },
        {
          "name": "index",
          "type": "uint256"
        }
      ],
      "name": "getCouponItemApplicable",
      "outputs": [
        {
          "name": "",
          "type": "uint256"
        }
      ],
      "payable": false,
      "stateMutability": "view",
      "type": "function",
      "signature": "0xce5f9fb5"
    },
    {
      "constant": false,
      "inputs": [
        {
          "name": "newOwner",
          "type": "uint256"
        }
      ],
      "name": "transferOwnership",
      "outputs": [],
      "payable": false,
      "stateMutability": "nonpayable",
      "type": "function",
      "signature": "0xd23e8489"
    },
    {
      "constant": true,
      "inputs": [
        {
          "name": "id",
          "type": "uint256"
        }
      ],
      "name": "getCouponDistributionAddress",
      "outputs": [
        {
          "name": "",
          "type": "address"
        }
      ],
      "payable": false,
      "stateMutability": "view",
      "type": "function",
      "signature": "0xe4a956e9"
    },
    {
      "constant": true,
      "inputs": [
        {
          "name": "tokenId",
          "type": "uint256"
        }
      ],
      "name": "getApprovedAddress",
      "outputs": [
        {
          "name": "",
          "type": "address"
        }
      ],
      "payable": false,
      "stateMutability": "view",
      "type": "function",
      "signature": "0xeca4742a"
    },
    {
      "constant": true,
      "inputs": [
        {
          "name": "id",
          "type": "uint256"
        }
      ],
      "name": "getCouponSimple",
      "outputs": [
        {
          "name": "couponType",
          "type": "uint8"
        },
        {
          "name": "amountOff",
          "type": "uint256"
        },
        {
          "name": "expirationDate",
          "type": "uint256"
        }
      ],
      "payable": false,
      "stateMutability": "view",
      "type": "function",
      "signature": "0xf29724a4"
    },
    {
      "constant": false,
      "inputs": [
        {
          "name": "from",
          "type": "uint256"
        },
        {
          "name": "to",
          "type": "uint256"
        },
        {
          "name": "tokenId",
          "type": "uint256"
        }
      ],
      "name": "safeTransferFrom",
      "outputs": [],
      "payable": false,
      "stateMutability": "nonpayable",
      "type": "function",
      "signature": "0xf4670462"
    },
    {
      "constant": true,
      "inputs": [],
      "name": "snowflakeAddress",
      "outputs": [
        {
          "name": "",
          "type": "address"
        }
      ],
      "payable": false,
      "stateMutability": "view",
      "type": "function",
      "signature": "0xf9f451b8"
    },
    {
      "constant": true,
      "inputs": [],
      "name": "nextAvailableCouponsID",
      "outputs": [
        {
          "name": "",
          "type": "uint256"
        }
      ],
      "payable": false,
      "stateMutability": "view",
      "type": "function",
      "signature": "0xfe87fc99"
    },
    {
      "inputs": [
        {
          "name": "_snowflakeAddress",
          "type": "address"
        }
      ],
      "payable": false,
      "stateMutability": "nonpayable",
      "type": "constructor",
      "signature": "constructor"
    },
    {
      "anonymous": false,
      "inputs": [
        {
          "indexed": true,
          "name": "account",
          "type": "address"
        }
      ],
      "name": "MinterAdded",
      "type": "event",
      "signature": "0x6ae172837ea30b801fbfcdd4108aa1d5bf8ff775444fd70256b44e6bf3dfc3f6"
    },
    {
      "anonymous": false,
      "inputs": [
        {
          "indexed": true,
          "name": "account",
          "type": "address"
        }
      ],
      "name": "MinterRemoved",
      "type": "event",
      "signature": "0xe94479a9f7e1952cc78f2d6baab678adc1b772d936c6583def489e524cb66692"
    },
    {
      "anonymous": false,
      "inputs": [
        {
          "indexed": false,
          "name": "owner",
          "type": "uint256"
        },
        {
          "indexed": false,
          "name": "to",
          "type": "address"
        },
        {
          "indexed": false,
          "name": "tokenId",
          "type": "uint256"
        }
      ],
      "name": "ApprovalAddress",
      "type": "event",
      "signature": "0xdd2d4479f7ebe0a20212b0ef6b723a3f0d98a4b3d64b8d9898777c769bb7a881"
    },
    {
      "anonymous": false,
      "inputs": [
        {
          "indexed": true,
          "name": "account",
          "type": "uint256"
        }
      ],
      "name": "SnowflakeMinterAdded",
      "type": "event",
      "signature": "0xc96fabf52983c486b9ee7f26fa97994b2199bd98cf74f02ef6aa1e1d87cbb482"
    },
    {
      "anonymous": false,
      "inputs": [
        {
          "indexed": true,
          "name": "account",
          "type": "uint256"
        }
      ],
      "name": "SnowflakeMinterRemoved",
      "type": "event",
      "signature": "0x34803f71b3ce19f83d2efe8fd85a68795e6ca17a2139def6f374f7cec617366c"
    },
    {
      "anonymous": false,
      "inputs": [
        {
          "indexed": true,
          "name": "previousOwner",
          "type": "uint256"
        },
        {
          "indexed": true,
          "name": "newOwner",
          "type": "uint256"
        }
      ],
      "name": "OwnershipTransferred",
      "type": "event",
      "signature": "0x41545563b5478d4a04f861e33b36e455316904e9fe15096d35d14a5f9885212a"
    },
    {
      "anonymous": false,
      "inputs": [
        {
          "indexed": true,
          "name": "einFrom",
          "type": "uint256"
        },
        {
          "indexed": true,
          "name": "einTo",
          "type": "uint256"
        },
        {
          "indexed": true,
          "name": "tokenId",
          "type": "uint256"
        }
      ],
      "name": "Transfer",
      "type": "event",
      "signature": "0xaf6151f5085accf2d57e1e7bf7601d3b3982e0de7e9a90f032f8554de9c104f6"
    },
    {
      "anonymous": false,
      "inputs": [
        {
          "indexed": true,
          "name": "einOwner",
          "type": "uint256"
        },
        {
          "indexed": true,
          "name": "einApproved",
          "type": "uint256"
        },
        {
          "indexed": true,
          "name": "tokenId",
          "type": "uint256"
        }
      ],
      "name": "Approval",
      "type": "event",
      "signature": "0x08aaf4f7dd1adfa5bfe7067dea5b4ebd7e119d43257438a9189f37d7044eb09a"
    },
    {
      "anonymous": false,
      "inputs": [
        {
          "indexed": true,
          "name": "einOwner",
          "type": "uint256"
        },
        {
          "indexed": true,
          "name": "einOperator",
          "type": "uint256"
        },
        {
          "indexed": false,
          "name": "approved",
          "type": "bool"
        }
      ],
      "name": "ApprovalForAll",
      "type": "event",
      "signature": "0xe08356808518f185b1eebe6f778106965c2df3a69af4d7139fa9451067146eb7"
    },
    {
      "constant": false,
      "inputs": [
        {
          "name": "ein",
          "type": "uint256"
        },
        {
          "name": "couponType",
          "type": "uint8"
        },
        {
          "name": "title",
          "type": "string"
        },
        {
          "name": "description",
          "type": "string"
        },
        {
          "name": "amountOff",
          "type": "uint256"
        },
        {
          "name": "itemsApplicable",
          "type": "uint256[]"
        },
        {
          "name": "expirationDate",
          "type": "uint256"
        },
        {
          "name": "couponDistribution",
          "type": "address"
        }
      ],
      "name": "addAvailableCoupon",
      "outputs": [
        {
          "name": "",
          "type": "bool"
        }
      ],
      "payable": false,
      "stateMutability": "nonpayable",
      "type": "function",
      "signature": "0x1384b6ef"
    },
    {
      "constant": false,
      "inputs": [
        {
          "name": "id",
          "type": "uint256"
        },
        {
          "name": "couponType",
          "type": "uint8"
        },
        {
          "name": "title",
          "type": "string"
        },
        {
          "name": "description",
          "type": "string"
        },
        {
          "name": "amountOff",
          "type": "uint256"
        },
        {
          "name": "itemsApplicable",
          "type": "uint256[]"
        },
        {
          "name": "expirationDate",
          "type": "uint256"
        },
        {
          "name": "couponDistribution",
          "type": "address"
        }
      ],
      "name": "updateAvailableCoupon",
      "outputs": [
        {
          "name": "",
          "type": "bool"
        }
      ],
      "payable": false,
      "stateMutability": "nonpayable",
      "type": "function",
      "signature": "0xb79220f9"
    },
    {
      "constant": false,
      "inputs": [
        {
          "name": "id",
          "type": "uint256"
        }
      ],
      "name": "deleteAvailableCoupon",
      "outputs": [
        {
          "name": "",
          "type": "bool"
        }
      ],
      "payable": false,
      "stateMutability": "nonpayable",
      "type": "function",
      "signature": "0x91646963"
    }
  ],
  "bytecode": "0x60806040523480156200001157600080fd5b5060405160208062002e51833981018060405260208110156200003357600080fd5b5051620000697f01ffc9a70000000000000000000000000000000000000000000000000000000064010000000062000098810204565b6200007d3364010000000062000105810204565b620000918164010000000062000157810204565b50620006b4565b7fffffffff000000000000000000000000000000000000000000000000000000008082161415620000c857600080fd5b7fffffffff00000000000000000000000000000000000000000000000000000000166000908152602081905260409020805460ff19166001179055565b62000120600982640100000000620024726200018282021704565b604051600160a060020a038216907f6ae172837ea30b801fbfcdd4108aa1d5bf8ff775444fd70256b44e6bf3dfc3f690600090a250565b6200016b81640100000000620001db810204565b6200017f816401000000006200021f810204565b50565b600160a060020a0381166200019657600080fd5b620001ab82826401000000006200025a810204565b15620001b657600080fd5b600160a060020a0316600090815260209190915260409020805460ff19166001179055565b620001ef8164010000000062000290810204565b6200020381640100000000620002a4810204565b6200021781640100000000620002cc810204565b506001600a55565b6200023381640100000000620002e0810204565b6200017f6200024b3364010000000062000302810204565b6401000000006200031e810204565b6000600160a060020a0382166200027057600080fd5b50600160a060020a03166000908152602091909152604090205460ff1690565b6200017f8164010000000062000353810204565b620002b88164010000000062000353810204565b6200017f816401000000006200039b810204565b6200017f8164010000000062000290810204565b60028054600160a060020a031916600160a060020a0392909216919091179055565b60006200031882640100000000620003d6810204565b92915050565b600181905560405181906000907f41545563b5478d4a04f861e33b36e455316904e9fe15096d35d14a5f9885212a908290a350565b6200036781640100000000620002e0810204565b6200017f7f4872420e0000000000000000000000000000000000000000000000000000000064010000000062000098810204565b620003af81640100000000620002e0810204565b6200017f620003c733640100000000620003d6810204565b64010000000062000600810204565b600254604080517fa759ee6f0000000000000000000000000000000000000000000000000000000081529051600092600160a060020a0316918391839163a759ee6f91600480830192602092919082900301818787803b1580156200043a57600080fd5b505af11580156200044f573d6000803e3d6000fd5b505050506040513d60208110156200046657600080fd5b5051604080517f237f1a21000000000000000000000000000000000000000000000000000000008152600160a060020a038781166004830152915192935083929183169163237f1a2191602480820192602092909190829003018186803b158015620004d157600080fd5b505afa158015620004e6573d6000803e3d6000fd5b505050506040513d6020811015620004fd57600080fd5b505162000556576040517f08c379a000000000000000000000000000000000000000000000000000000000815260040180806020018281038252602881526020018062002e296028913960400191505060405180910390fd5b80600160a060020a03166305c62c2f866040518263ffffffff167c01000000000000000000000000000000000000000000000000000000000281526004018082600160a060020a0316600160a060020a0316815260200191505060206040518083038186803b158015620005c957600080fd5b505afa158015620005de573d6000803e3d6000fd5b505050506040513d6020811015620005f557600080fd5b505195945050505050565b6200061b600782640100000000620025066200064982021704565b60405181907fc96fabf52983c486b9ee7f26fa97994b2199bd98cf74f02ef6aa1e1d87cbb48290600090a250565b806200065457600080fd5b62000669828264010000000062000690810204565b156200067457600080fd5b600090815260209190915260409020805460ff19166001179055565b6000816200069d57600080fd5b506000908152602091909152604090205460ff1690565b61276580620006c46000396000f3fe608060405234801561001057600080fd5b506004361061024c5760003560e060020a900480638b9a0c891161013f578063b3caa247116100bc578063eca4742a11610080578063eca4742a14610d74578063f29724a414610d91578063f467046214610de0578063f9f451b814610e09578063fe87fc9914610e115761024c565b8063b3caa24714610b01578063b79220f914610b24578063ce5f9fb514610cfb578063d23e848914610d1e578063e4a956e914610d3b5761024c565b8063983b2d5611610103578063983b2d5614610a735780639865027514610a995780639cc7f70814610aa1578063a4453ffb14610abe578063aa271e1a14610adb5761024c565b80638b9a0c89146108cc5780638d9188d5146108f8578063916469631461091b578063936e3169146109385780639690f6d114610a565761024c565b8063435b153f116101cd57806368d1e6411161019157806368d1e641146107bd578063715018a6146108765780637b7ecf981461087e5780637f493d9c1461089b578063895c3e94146108c45761024c565b8063435b153f146105855780634a2fe20a1461063e5780635d35a3d9146107755780635fd5e4d0146107985780636352211e146107a05761024c565b806316b49a431161021457806316b49a43146104ef5780631b2ef1ca14610514578063310ed7f0146105375780633e938fb71461056057806342966c68146105685761024c565b806301ffc9a714610251578063043f5cbb146102a1578063081812fc146102c05780630d2e347d146102ef5780631384b6ef14610318575b600080fd5b61028d6004803603602081101561026757600080fd5b50357bffffffffffffffffffffffffffffffffffffffffffffffffffffffff1916610e19565b604080519115158252519081900360200190f35b6102be600480360360208110156102b757600080fd5b5035610e4d565b005b6102dd600480360360208110156102d657600080fd5b5035610e6c565b60408051918252519081900360200190f35b6102be6004803603606081101561030557600080fd5b5080359060208101359060400135610e93565b61028d600480360361010081101561032f57600080fd5b81359160ff6020820135169181019060608101604082013564010000000081111561035957600080fd5b82018360208201111561036b57600080fd5b8035906020019184600183028401116401000000008311171561038d57600080fd5b91908080601f01602080910402602001604051908101604052809392919081815260200183838082843760009201919091525092959493602081019350359150506401000000008111156103e057600080fd5b8201836020820111156103f257600080fd5b8035906020019184600183028401116401000000008311171561041457600080fd5b91908080601f0160208091040260200160405190810160405280939291908181526020018383808284376000920191909152509295843595909490935060408101925060200135905064010000000081111561046f57600080fd5b82018360208201111561048157600080fd5b803590602001918460208302840111640100000000831117156104a357600080fd5b9190808060200260200160405190810160405280939291908181526020018383602002808284376000920191909152509295505082359350505060200135600160a060020a0316610eb3565b6102be6004803603604081101561050557600080fd5b50803590602001351515610ee3565b61028d6004803603604081101561052a57600080fd5b5080359060200135610f5f565b6102be6004803603606081101561054d57600080fd5b5080359060208101359060400135610f8e565b6102dd610fb4565b6102be6004803603602081101561057e57600080fd5b5035610fbb565b6102be6004803603608081101561059b57600080fd5b813591602081013591604082013591908101906080810160608201356401000000008111156105c957600080fd5b8201836020820111156105db57600080fd5b803590602001918460018302840111640100000000831117156105fd57600080fd5b91908080601f016020809104026020016040519081016040528093929190818152602001838380828437600092019190915250929550610fc7945050505050565b61065b6004803603602081101561065457600080fd5b5035610fed565b6040518087600381111561066b57fe5b60ff168152602001806020018060200186815260200185815260200184600160a060020a0316600160a060020a03168152602001838103835288818151815260200191508051906020019080838360005b838110156106d45781810151838201526020016106bc565b50505050905090810190601f1680156107015780820380516001836020036101000a031916815260200191505b50838103825287518152875160209182019189019080838360005b8381101561073457818101518382015260200161071c565b50505050905090810190601f1680156107615780820380516001836020036101000a031916815260200191505b509850505050505050505060405180910390f35b6102be6004803603604081101561078b57600080fd5b508035906020013561114a565b61028d6111cf565b6102dd600480360360208110156107b657600080fd5b50356111de565b6102be600480360360808110156107d357600080fd5b8135916020810135916040820135919081019060808101606082013564010000000081111561080157600080fd5b82018360208201111561081357600080fd5b8035906020019184600183028401116401000000008311171561083557600080fd5b91908080601f0160208091040260200160405190810160405280939291908181526020018383808284376000920191909152509295506111fd945050505050565b6102be611208565b6102dd6004803603602081101561089457600080fd5b503561124f565b6102be600480360360608110156108b157600080fd5b5080359060208101359060400135611264565b6102be611282565b6102be600480360360408110156108e257600080fd5b50600160a060020a038135169060200135611295565b61028d6004803603604081101561090e57600080fd5b5080359060200135611394565b61028d6004803603602081101561093157600080fd5b50356113b4565b6109556004803603602081101561094e57600080fd5b50356113d0565b6040518086600381111561096557fe5b60ff1681526020018060200180602001858152602001848152602001838103835287818151815260200191508051906020019080838360005b838110156109b657818101518382015260200161099e565b50505050905090810190601f1680156109e35780820380516001836020036101000a031916815260200191505b50838103825286518152865160209182019188019080838360005b83811015610a165781810151838201526020016109fe565b50505050905090810190601f168015610a435780820380516001836020036101000a031916815260200191505b5097505050505050505060405180910390f35b61028d60048036036020811015610a6c57600080fd5b50356115f9565b6102be60048036036020811015610a8957600080fd5b5035600160a060020a031661160c565b6102be611627565b6102dd60048036036020811015610ab757600080fd5b5035611630565b6102be60048036036020811015610ad457600080fd5b5035611653565b61028d60048036036020811015610af157600080fd5b5035600160a060020a0316611671565b61028d60048036036040811015610b1757600080fd5b5080359060200135611684565b61028d6004803603610100811015610b3b57600080fd5b81359160ff60208201351691810190606081016040820135640100000000811115610b6557600080fd5b820183602082011115610b7757600080fd5b80359060200191846001830284011164010000000083111715610b9957600080fd5b91908080601f0160208091040260200160405190810160405280939291908181526020018383808284376000920191909152509295949360208101935035915050640100000000811115610bec57600080fd5b820183602082011115610bfe57600080fd5b80359060200191846001830284011164010000000083111715610c2057600080fd5b91908080601f01602080910402602001604051908101604052809392919081815260200183838082843760009201919091525092958435959094909350604081019250602001359050640100000000811115610c7b57600080fd5b820183602082011115610c8d57600080fd5b80359060200191846020830284011164010000000083111715610caf57600080fd5b9190808060200260200160405190810160405280939291908181526020018383602002808284376000920191909152509295505082359350505060200135600160a060020a031661168f565b6102dd60048036036040811015610d1157600080fd5b50803590602001356116b2565b6102be60048036036020811015610d3457600080fd5b50356116e2565b610d5860048036036020811015610d5157600080fd5b50356116fc565b60408051600160a060020a039092168252519081900360200190f35b610d5860048036036020811015610d8a57600080fd5b503561171a565b610dae60048036036020811015610da757600080fd5b503561174a565b60405180846003811115610dbe57fe5b60ff168152602001838152602001828152602001935050505060405180910390f35b6102be60048036036060811015610df657600080fd5b508035906020810135906040013561195f565b610d5861197a565b6102dd611989565b7bffffffffffffffffffffffffffffffffffffffffffffffffffffffff191660009081526020819052604090205460ff1690565b610e57338261198f565b610e6057600080fd5b610e69816119b5565b50565b6000610e77826119c7565b610e8057600080fd5b5060009081526004602052604090205490565b610eae83838360405180602001604052806000815250610fc7565b505050565b6000610ebd6111cf565b610ec657600080fd5b610ed689898989898989896119db565b9998505050505050505050565b6000610eee33611b18565b905080831415610efd57600080fd5b6000818152600660209081526040808320868452825291829020805460ff191685151590811790915582519081529151859284927fe08356808518f185b1eebe6f778106965c2df3a69af4d7139fa9451067146eb792918290030190a3505050565b6000610f72610f6d33611b18565b6115f9565b610f7b57600080fd5b610f858383611d1e565b50600192915050565b610fa0610f9a33611b18565b82611d96565b610fa957600080fd5b610eae838383611dd1565b6001545b90565b610e57610f9a33611b18565b610fd2848484611264565b610fde84848484611e67565b610fe757600080fd5b50505050565b600b602090815260009182526040918290208054600180830180548651600261010094831615949094026000190190911692909204601f810186900486028301860190965285825260ff9092169492939092908301828280156110915780601f1061106657610100808354040283529160200191611091565b820191906000526020600020905b81548152906001019060200180831161107457829003601f168201915b50505060028085018054604080516020601f60001961010060018716150201909416959095049283018590048502810185019091528181529596959450909250908301828280156111235780601f106110f857610100808354040283529160200191611123565b820191906000526020600020905b81548152906001019060200180831161110657829003601f168201915b505050506003830154600584015460069094015492939092909150600160a060020a031686565b6000611155826111de565b9050600061116233611b18565b90508184141561117157600080fd5b8181148061118457506111848282611394565b61118d57600080fd5b600083815260046020526040808220869055518491869185917f08aaf4f7dd1adfa5bfe7067dea5b4ebd7e119d43257438a9189f37d7044eb09a91a450505050565b60006111d9611fad565b905090565b600081815260036020526040812054806111f757600080fd5b92915050565b610fd2848484610f8e565b6112106111cf565b61121957600080fd5b600154604051600091907f41545563b5478d4a04f861e33b36e455316904e9fe15096d35d14a5f9885212a908390a36000600155565b6000908152600b602052604090206004015490565b61126e338261198f565b61127757600080fd5b610eae838383611fc6565b61129361128e33611b18565b611fed565b565b60006112a0826111de565b905060006112ad33611b18565b9050818114806112c257506112c28282611394565b611317576040517f08c379a00000000000000000000000000000000000000000000000000000000081526004018080602001828103825260458152602001806126cd6045913960600191505060405180910390fd5b6000838152600860209081526040918290208054600160a060020a03881673ffffffffffffffffffffffffffffffffffffffff19909116811790915582518581529182015280820185905290517fdd2d4479f7ebe0a20212b0ef6b723a3f0d98a4b3d64b8d9898777c769bb7a8819181900360600190a150505050565b600091825260066020908152604080842092845291905290205460ff1690565b60006113be6111cf565b6113c757600080fd5b6111f78261202c565b60006060806000806113e0612555565b6000878152600b602052604090819020815160e081019092528054829060ff16600381111561140b57fe5b600381111561141657fe5b8152602001600182018054600181600116156101000203166002900480601f0160208091040260200160405190810160405280929190818152602001828054600181600116156101000203166002900480156114b35780601f10611488576101008083540402835291602001916114b3565b820191906000526020600020905b81548152906001019060200180831161149657829003601f168201915b5050509183525050600282810180546040805160206001841615610100026000190190931694909404601f810183900483028501830190915280845293810193908301828280156115455780601f1061151a57610100808354040283529160200191611545565b820191906000526020600020905b81548152906001019060200180831161152857829003601f168201915b5050505050815260200160038201548152602001600482018054806020026020016040519081016040528092919081815260200182805480156115a757602002820191906000526020600020905b815481526020019060010190808311611593575b50505091835250506005820154602080830191909152600690920154600160a060020a031660409182015282519183015190830151606084015160a090940151929b919a509850919650945092505050565b60006111f760078363ffffffff6120ad16565b61161533611671565b61161e57600080fd5b610e69816120d0565b61129333612118565b60008161163c57600080fd5b60008281526005602052604090206111f790612160565b61165f610f6d33611b18565b61166857600080fd5b610e6981612164565b60006111f760098363ffffffff6121a316565b6000610f7233611671565b60006116996111cf565b6116a257600080fd5b610ed689898989898989896121d8565b6000828152600b602052604081206004018054839081106116cf57fe5b9060005260206000200154905092915050565b6116ea6111cf565b6116f357600080fd5b610e69816122fc565b6000908152600b6020526040902060060154600160a060020a031690565b6000611725826119c7565b61172e57600080fd5b50600090815260086020526040902054600160a060020a031690565b6000806000611757612555565b6000858152600b602052604090819020815160e081019092528054829060ff16600381111561178257fe5b600381111561178d57fe5b8152602001600182018054600181600116156101000203166002900480601f01602080910402602001604051908101604052809291908181526020018280546001816001161561010002031660029004801561182a5780601f106117ff5761010080835404028352916020019161182a565b820191906000526020600020905b81548152906001019060200180831161180d57829003601f168201915b5050509183525050600282810180546040805160206001841615610100026000190190931694909404601f810183900483028501830190915280845293810193908301828280156118bc5780601f10611891576101008083540402835291602001916118bc565b820191906000526020600020905b81548152906001019060200180831161189f57829003601f168201915b50505050508152602001600382015481526020016004820180548060200260200160405190810160405280929190818152602001828054801561191e57602002820191906000526020600020905b81548152602001906001019080831161190a575b505050918352505060058201546020820152600690910154600160a060020a03166040909101528051606082015160a0909201519097919650945092505050565b610eae838383604051806020016040528060008152506111fd565b600254600160a060020a031681565b600a5481565b600082600160a060020a03166119a48361171a565b600160a060020a0316149392505050565b610e696119c1826111de565b8261233a565b600090815260036020526040902054151590565b60006119e989600a54611d1e565b6040518060e00160405280896003811115611a0057fe5b815260208082018a905260408083018a9052606083018990526080830188905260a08301879052600160a060020a03861660c090930192909252600a546000908152600b9091522081518154829060ff19166001836003811115611a6057fe5b02179055506020828101518051611a7d926001850192019061259c565b5060408201518051611a9991600284019160209091019061259c565b506060820151600382015560808201518051611abf91600484019160209091019061261a565b5060a0820151600582015560c0909101516006909101805473ffffffffffffffffffffffffffffffffffffffff1916600160a060020a039092169190911790555050600a80546001908101909155979650505050505050565b600254604080517fa759ee6f0000000000000000000000000000000000000000000000000000000081529051600092600160a060020a0316918391839163a759ee6f91600480830192602092919082900301818787803b158015611b7b57600080fd5b505af1158015611b8f573d6000803e3d6000fd5b505050506040513d6020811015611ba557600080fd5b5051604080517f237f1a21000000000000000000000000000000000000000000000000000000008152600160a060020a038781166004830152915192935083929183169163237f1a2191602480820192602092909190829003018186803b158015611c0f57600080fd5b505afa158015611c23573d6000803e3d6000fd5b505050506040513d6020811015611c3957600080fd5b5051611c90576040517f08c379a00000000000000000000000000000000000000000000000000000000081526004018080602001828103825260288152602001806127126028913960400191505060405180910390fd5b80600160a060020a03166305c62c2f866040518263ffffffff1660e060020a0281526004018082600160a060020a0316600160a060020a0316815260200191505060206040518083038186803b158015611ce957600080fd5b505afa158015611cfd573d6000803e3d6000fd5b505050506040513d6020811015611d1357600080fd5b505195945050505050565b81611d2857600080fd5b611d31816119c7565b15611d3b57600080fd5b600081815260036020908152604080832085905584835260059091529020611d62906123af565b808260007faf6151f5085accf2d57e1e7bf7601d3b3982e0de7e9a90f032f8554de9c104f660405160405180910390a45050565b600080611da2836111de565b905080841480611db9575083611db784610e6c565b145b80611dc95750611dc98185611394565b949350505050565b82611ddb826111de565b14611de557600080fd5b81611def57600080fd5b611df8816123b8565b6000838152600560205260409020611e0f906123dd565b6000828152600560205260409020611e26906123af565b600081815260036020526040808220849055518291849186917faf6151f5085accf2d57e1e7bf7601d3b3982e0de7e9a90f032f8554de9c104f691a4505050565b60008084600160a060020a031663494114c2611e8233611b18565b8887876040518563ffffffff1660e060020a0281526004018085815260200184815260200183815260200180602001828103825283818151815260200191508051906020019080838360005b83811015611ee6578181015183820152602001611ece565b50505050905090810190601f168015611f135780820380516001836020036101000a031916815260200191505b5095505050505050602060405180830381600087803b158015611f3557600080fd5b505af1158015611f49573d6000803e3d6000fd5b505050506040513d6020811015611f5f57600080fd5b50517bffffffffffffffffffffffffffffffffffffffffffffffffffffffff19167f494114c20000000000000000000000000000000000000000000000000000000014915050949350505050565b6000611fb7610fb4565b611fc033611b18565b14905090565b82611fd0826111de565b14611fda57600080fd5b81611fe457600080fd5b610fa9816123f4565b611ffe60078263ffffffff61243c16565b60405181907f34803f71b3ce19f83d2efe8fd85a68795e6ca17a2139def6f374f7cec617366c90600090a250565b6000818152600b60205260408120805460ff19168155816120506001830182612654565b61205e600283016000612654565b60038201600090556004820160006120769190612698565b5060006005820155600601805473ffffffffffffffffffffffffffffffffffffffff191690556120a5826119b5565b506001919050565b6000816120b957600080fd5b506000908152602091909152604090205460ff1690565b6120e160098263ffffffff61247216565b604051600160a060020a038216907f6ae172837ea30b801fbfcdd4108aa1d5bf8ff775444fd70256b44e6bf3dfc3f690600090a250565b61212960098263ffffffff6124be16565b604051600160a060020a038216907fe94479a9f7e1952cc78f2d6baab678adc1b772d936c6583def489e524cb6669290600090a250565b5490565b61217560078263ffffffff61250616565b60405181907fc96fabf52983c486b9ee7f26fa97994b2199bd98cf74f02ef6aa1e1d87cbb48290600090a250565b6000600160a060020a0382166121b857600080fd5b50600160a060020a03166000908152602091909152604090205460ff1690565b60006040518060e001604052808960038111156121f157fe5b815260208082018a905260408083018a9052606083018990526080830188905260a08301879052600160a060020a03861660c09093019290925260008c8152600b9091522081518154829060ff1916600183600381111561224e57fe5b0217905550602082810151805161226b926001850192019061259c565b506040820151805161228791600284019160209091019061259c565b5060608201516003820155608082015180516122ad91600484019160209091019061261a565b5060a0820151600582015560c0909101516006909101805473ffffffffffffffffffffffffffffffffffffffff1916600160a060020a0390921691909117905550600198975050505050505050565b8061230657600080fd5b6001546040518291907f41545563b5478d4a04f861e33b36e455316904e9fe15096d35d14a5f9885212a90600090a3600155565b81612344826111de565b1461234e57600080fd5b612357816123b8565b600082815260056020526040902061236e906123dd565b6000818152600360205260408082208290555182919084907faf6151f5085accf2d57e1e7bf7601d3b3982e0de7e9a90f032f8554de9c104f6908390a45050565b80546001019055565b60008181526004602052604090205415610e6957600090815260046020526040812055565b80546123f090600163ffffffff61254016565b9055565b600081815260086020526040902054600160a060020a031615610e69576000908152600860205260409020805473ffffffffffffffffffffffffffffffffffffffff19169055565b8061244657600080fd5b61245082826120ad565b61245957600080fd5b600090815260209190915260409020805460ff19169055565b600160a060020a03811661248557600080fd5b61248f82826121a3565b1561249957600080fd5b600160a060020a0316600090815260209190915260409020805460ff19166001179055565b600160a060020a0381166124d157600080fd5b6124db82826121a3565b6124e457600080fd5b600160a060020a0316600090815260209190915260409020805460ff19169055565b8061251057600080fd5b61251a82826120ad565b1561252457600080fd5b600090815260209190915260409020805460ff19166001179055565b60008282111561254f57600080fd5b50900390565b6040805160e08101909152806000815260200160608152602001606081526020016000815260200160608152602001600081526020016000600160a060020a031681525090565b828054600181600116156101000203166002900490600052602060002090601f016020900481019282601f106125dd57805160ff191683800117855561260a565b8280016001018555821561260a579182015b8281111561260a5782518255916020019190600101906125ef565b506126169291506126b2565b5090565b82805482825590600052602060002090810192821561260a579160200282018281111561260a5782518255916020019190600101906125ef565b50805460018160011615610100020316600290046000825580601f1061267a5750610e69565b601f016020900490600052602060002090810190610e6991906126b2565b5080546000825590600052602060002090810190610e6991905b610fb891905b8082111561261657600081556001016126b856fe53656e646572206973206e6f74206f776e65722c206f72206661696c7320746f2070617373206973417070726f766564466f72416c6c286f776e65722c2073656e6465722941646472657373206e6f6e2d6578697374656e7420696e204964656e746974795265676973747279a165627a7a7230582034cc79cebfd8e8878f37852a1b0f79c7c9d3b43a930d741325b8116366455c19002941646472657373206e6f6e2d6578697374656e7420696e204964656e746974795265676973747279",
  "source": "pragma solidity ^0.5.0;\n\nimport \"../../ein/util/SnowflakeEINOwnable.sol\";\nimport \"./Coupons.sol\";\n\n\ncontract CouponFeature is Coupons, SnowflakeEINOwnable {\n\n\n    constructor(address _snowflakeAddress) public {\n        _constructCouponFeature(_snowflakeAddress);\n    \n    }    \n\n    function _constructCouponFeature(address _snowflakeAddress) internal {\n        _constructCoupons(_snowflakeAddress);\n        _constructSnowflakeEINOwnable(_snowflakeAddress);\n    }\n\n/*\n===================================\nAvailableCoupons add/update/delete\n===================================\n*/\n\n\n\n   function addAvailableCoupon(\n        uint256 ein,\n        CouponType couponType,\n        string memory title,\n        string memory description,\n        uint256 amountOff,\n        uint[] memory itemsApplicable,\n        uint expirationDate,\n        address couponDistribution\n\n    ) public onlyEINOwner returns (bool) {\n        return _addAvailableCoupon(ein, couponType, title, description, amountOff, itemsApplicable, expirationDate, couponDistribution);\n    }\n\n\n    function updateAvailableCoupon(\n        uint id,\n        CouponType couponType,\n        string memory title,\n        string memory description,\n        uint256 amountOff,\n        uint[] memory itemsApplicable,\n        uint expirationDate,\n        address couponDistribution\n\n    ) public onlyEINOwner returns (bool) {\n        return _updateAvailableCoupon(id, couponType, title, description, amountOff, itemsApplicable, expirationDate, couponDistribution);\n    }\n\n\n    function deleteAvailableCoupon(uint id) public onlyEINOwner returns (bool) {\n       return _deleteAvailableCoupon(id);\n    }\n\n\n/* ====================================================\n\n       END OF ADD/UPDATE/DELETE FUNCTIONS\n\n   ====================================================\n*/\n\n\n\n\n\n\n\n\n\n\n}\n",
  "sourcePath": "/home/luiserebii/github/HydroSnowflake-Marketplace-Coupons/contracts/marketplace/features/CouponFeature.sol",
  "compiler": {
    "name": "solc",
    "version": "0.5.7+commit.6da8b019.Emscripten.clang"
  },
  "schemaVersion": "3.0.6",
  "updatedAt": "2019-04-16T02:44:05.077Z",
  "devdoc": {
    "methods": {
      "approve(uint256,uint256)": {
        "details": "Approves another EIN to transfer the given token ID The zero EIN indicates there is no approved EIN. There can only be one approved EIN per token at a given time. Can only be called by the token owner or an approved operator.",
        "params": {
          "to": "uint256 to be approved for the given token ID",
          "tokenId": "uint256 ID of the token to be approved"
        }
      },
      "approveAddress(address,uint256)": {
        "details": "Approves an address to transfer the given token ID The zero address indicates there is no approved EIN. There can only be one approved address per token at a given time. Can only be called by the token owner or an approved operator.",
        "params": {
          "to": "address to be approved for the given token ID",
          "tokenId": "uint256 ID of the token to be approved"
        }
      },
      "balanceOf(uint256)": {
        "details": "Gets the balance of the specified address",
        "params": {
          "owner": "uint256 to query the balance of"
        },
        "return": "uint256 representing the amount owned by the passed address"
      },
      "burn(uint256)": {
        "details": "Burns a specific Snowflake ERC721 token.",
        "params": {
          "tokenId": "uint256 id of the Snowflake ERC721 token to be burned."
        }
      },
      "burnAddress(uint256)": {
        "details": "Burns a specific Snowflake ERC721 token.",
        "params": {
          "tokenId": "uint256 id of the Snowflake ERC721 token to be burned."
        }
      },
      "getApproved(uint256)": {
        "details": "Gets the approved EIN for a token ID, or zero if no EIN set Reverts if the token ID does not exist.",
        "params": {
          "tokenId": "uint256 ID of the token to query the approval of"
        },
        "return": "EIN currently approved for the given token ID"
      },
      "getApprovedAddress(uint256)": {
        "details": "Gets the approved address for a token ID, or zero if no EIN set Reverts if the token ID does not exist.",
        "params": {
          "tokenId": "uint256 ID of the token to query the approval of"
        },
        "return": "address currently approved for the given token ID"
      },
      "isApprovedForAll(uint256,uint256)": {
        "details": "Tells whether an operator is approved by a given owner",
        "params": {
          "operator": "operator EIN which you want to query the approval of",
          "owner": "owner EIN which you want to query the approval of"
        },
        "return": "bool whether the given operator is approved by the given owner"
      },
      "isEINOwner()": {
        "return": "true if address resolves to owner of the contract."
      },
      "mint(uint256,uint256)": {
        "details": "Function to mint tokens",
        "params": {
          "to": "The EIN that will receive the minted tokens.",
          "tokenId": "The token id to mint."
        },
        "return": "A boolean that indicates if the operation was successful."
      },
      "mintAddress(uint256,uint256)": {
        "details": "Function to mint tokens",
        "params": {
          "to": "The EIN that will receive the minted tokens.",
          "tokenId": "The token id to mint."
        },
        "return": "A boolean that indicates if the operation was successful."
      },
      "ownerEIN()": {
        "return": "the EIN of the owner."
      },
      "ownerOf(uint256)": {
        "details": "Gets the owner of the specified token ID",
        "params": {
          "tokenId": "uint256 ID of the token to query the owner of"
        },
        "return": "uint256 currently marked as the owner of the given token ID"
      },
      "renounceOwnership()": {
        "details": "Allows the current owner to relinquish control of the contract."
      },
      "safeTransferFrom(uint256,uint256,uint256)": {
        "details": "Safely transfers the ownership of a given token ID to another EIN If the target EIN is a contract, it must implement `onERC721Received`, which is called upon a safe transfer, and return the magic value `bytes4(keccak256(\"onERC721Received(address,address,uint256,bytes)\"))`; otherwise, the transfer is reverted. Requires the msg.sender to be the owner, approved, or operator",
        "params": {
          "from": "uint256 current owner of the token",
          "to": "uint256 to receive the ownership of the given token ID",
          "tokenId": "uint256 ID of the token to be transferred"
        }
      },
      "safeTransferFrom(uint256,uint256,uint256,bytes)": {
        "details": "Safely transfers the ownership of a given token ID to another EIN If the target EIN is a contract, it must implement `onERC721Received`, which is called upon a safe transfer, and return the magic value `bytes4(keccak256(\"onERC721Received(address,address,uint256,bytes)\"))`; otherwise, the transfer is reverted. Requires the msg.sender to be the owner, approved, or operator",
        "params": {
          "_data": "bytes data to send along with a safe transfer check",
          "from": "current owner of the token",
          "to": "uint256 to receive the ownership of the given token ID",
          "tokenId": "uint256 ID of the token to be transferred"
        }
      },
      "safeTransferFromAddress(uint256,uint256,uint256)": {
        "details": "Safely transfers the ownership of a given token ID to another EIN If the target EIN is a contract, it must implement `onERC721Received`, which is called upon a safe transfer, and return the magic value `bytes4(keccak256(\"onERC721Received(address,address,uint256,bytes)\"))`; otherwise, the transfer is reverted. Requires the msg.sender to be the owner, approved, or operator",
        "params": {
          "from": "uint256 current owner of the token",
          "to": "uint256 to receive the ownership of the given token ID",
          "tokenId": "uint256 ID of the token to be transferred"
        }
      },
      "safeTransferFromAddress(uint256,uint256,uint256,bytes)": {
        "details": "Safely transfers the ownership of a given token ID to another EIN If the target address is a contract, it must implement `onERC721Received`, which is called upon a safe transfer, and return the magic value `bytes4(keccak256(\"onERC721Received(address,address,uint256,bytes)\"))`; otherwise, the transfer is reverted. Requires the msg.sender to be the owner, approved, or operator",
        "params": {
          "_data": "bytes data to send along with a safe transfer check",
          "from": "current owner of the token",
          "to": "uint256 to receive the ownership of the given token ID",
          "tokenId": "uint256 ID of the token to be transferred"
        }
      },
      "setApprovalForAll(uint256,bool)": {
        "details": "Sets or unsets the approval of a given operator An operator is allowed to transfer all tokens of the sender on their behalf",
        "params": {
          "approved": "representing the status of the approval to be set",
          "to": "operator EIN to set the approval"
        }
      },
      "supportsInterface(bytes4)": {
        "details": "implement supportsInterface(bytes4) using a lookup table"
      },
      "transferFrom(uint256,uint256,uint256)": {
        "details": "Transfers the ownership of a given token ID to another address Usage of this method is discouraged, use `safeTransferFrom` whenever possible Requires the msg.sender to be the owner, approved, or operator",
        "params": {
          "from": "current owner of the token",
          "to": "address to receive the ownership of the given token ID",
          "tokenId": "uint256 ID of the token to be transferred"
        }
      },
      "transferFromAddress(uint256,uint256,uint256)": {
        "details": "Transfers the ownership of a given token ID to another address Usage of this method is discouraged, use `safeTransferFrom` whenever possible Requires the msg.sender to be the owner, approved, or operator",
        "params": {
          "from": "current owner of the token",
          "to": "address to receive the ownership of the given token ID",
          "tokenId": "uint256 ID of the token to be transferred"
        }
      },
      "transferOwnership(uint256)": {
        "details": "Allows the current owner to transfer control of the contract to a newOwner.",
        "params": {
          "newOwner": "The address to transfer ownership to."
        }
      }
    }
  },
  "userdoc": {
    "methods": {
      "renounceOwnership()": {
        "notice": "Renouncing to ownership will leave the contract without an owner. It will not be possible to call the functions with the `onlyOwner` modifier anymore."
      }
    }
  }
}