{
  "contractName": "Delivery",
  "abi": [
    {
      "constant": true,
      "inputs": [
        {
          "name": "",
          "type": "uint256"
        }
      ],
      "name": "deliveryMethods",
      "outputs": [
        {
          "name": "",
          "type": "string"
        }
      ],
      "payable": false,
      "stateMutability": "view",
      "type": "function"
    },
    {
      "constant": true,
      "inputs": [],
      "name": "nextDeliveryMethodsID",
      "outputs": [
        {
          "name": "",
          "type": "uint256"
        }
      ],
      "payable": false,
      "stateMutability": "view",
      "type": "function"
    },
    {
      "constant": true,
      "inputs": [
        {
          "name": "id",
          "type": "uint256"
        }
      ],
      "name": "getDeliveryMethod",
      "outputs": [
        {
          "name": "method",
          "type": "string"
        }
      ],
      "payable": false,
      "stateMutability": "view",
      "type": "function"
    }
  ],
  "bytecode": "0x608060405234801561001057600080fd5b50610297806100206000396000f3fe608060405234801561001057600080fd5b506004361061005d577c010000000000000000000000000000000000000000000000000000000060003504638900011b8114610062578063e4aab400146100f4578063f0acf6aa1461010e575b600080fd5b61007f6004803603602081101561007857600080fd5b503561012b565b6040805160208082528351818301528351919283929083019185019080838360005b838110156100b95781810151838201526020016100a1565b50505050905090810190601f1680156100e65780820380516001836020036101000a031916815260200191505b509250505060405180910390f35b6100fc6101c5565b60408051918252519081900360200190f35b61007f6004803603602081101561012457600080fd5b50356101cb565b60016020818152600092835260409283902080548451600294821615610100026000190190911693909304601f81018390048302840183019094528383529192908301828280156101bd5780601f10610192576101008083540402835291602001916101bd565b820191906000526020600020905b8154815290600101906020018083116101a057829003601f168201915b505050505081565b60005481565b60008181526001602081815260409283902080548451600294821615610100026000190190911693909304601f8101839004830284018301909452838352606093909183018282801561025f5780601f106102345761010080835404028352916020019161025f565b820191906000526020600020905b81548152906001019060200180831161024257829003601f168201915b5050505050905091905056fea165627a7a7230582057a57bb07a019725d106cca7eeb69ce3d8ba406b6b734a52df9bbf1f7590fae90029",
  "source": "pragma solidity ^0.5.0;\n\n\ncontract Delivery {\n\n\n    //ID    \n    uint public nextDeliveryMethodsID;\n\n    //Struct\n    mapping(uint => string) public deliveryMethods;\n/*\n    constructor() public {\n        _constructDelivery();\n    }\n*/\n    function _constructDelivery() internal {\n        nextDeliveryMethodsID = 1;\n    }\n\n    function getDeliveryMethod(uint id) public view returns (string memory method){\n        return (deliveryMethods[id]);\n    }\n\n\n/*\n==================================\nDeliveryMethods add/update/delete\n==================================\n*/\n\n    function _addDeliveryMethod(string memory deliveryMethod) internal returns (bool) {\n        //Add to deliveryMethods\n        deliveryMethods[nextDeliveryMethodsID] = deliveryMethod;\n        //Advance delivery method by one\n        nextDeliveryMethodsID++;\n\n        return true;\n    }\n\n    function _updateDeliveryMethod(uint id, string memory deliveryMethod) internal returns (bool) {\n        //Update deliveryMethods by ID\n        deliveryMethods[id] = deliveryMethod;\n        return true;\n    }\n\n    function _deleteDeliveryMethod(uint id) internal returns (bool) {\n\n        //Delete itemListing identified by ID\n        delete deliveryMethods[id];\n        return true;\n    }\n\n\n}\n",
  "sourcePath": "/home/luiserebii/hydrosnowflake_marketplace_coupons/contracts/marketplace/features/Delivery.sol",
  "compiler": {
    "name": "solc",
    "version": "0.5.6+commit.b259423e.Emscripten.clang"
  },
  "schemaVersion": "3.0.6",
  "updatedAt": "2019-04-11T00:38:35.866Z",
  "devdoc": {
    "methods": {}
  },
  "userdoc": {
    "methods": {}
  }
}