{
  "contractName": "ERC721Mintable",
  "abi": [
    {
      "constant": true,
      "inputs": [
        {
          "name": "interfaceId",
          "type": "bytes4"
        }
      ],
      "name": "supportsInterface",
      "outputs": [
        {
          "name": "",
          "type": "bool"
        }
      ],
      "payable": false,
      "stateMutability": "view",
      "type": "function"
    },
    {
      "constant": true,
      "inputs": [
        {
          "name": "tokenId",
          "type": "uint256"
        }
      ],
      "name": "getApproved",
      "outputs": [
        {
          "name": "",
          "type": "address"
        }
      ],
      "payable": false,
      "stateMutability": "view",
      "type": "function"
    },
    {
      "constant": false,
      "inputs": [
        {
          "name": "to",
          "type": "address"
        },
        {
          "name": "tokenId",
          "type": "uint256"
        }
      ],
      "name": "approve",
      "outputs": [],
      "payable": false,
      "stateMutability": "nonpayable",
      "type": "function"
    },
    {
      "constant": false,
      "inputs": [
        {
          "name": "from",
          "type": "address"
        },
        {
          "name": "to",
          "type": "address"
        },
        {
          "name": "tokenId",
          "type": "uint256"
        }
      ],
      "name": "transferFrom",
      "outputs": [],
      "payable": false,
      "stateMutability": "nonpayable",
      "type": "function"
    },
    {
      "constant": false,
      "inputs": [
        {
          "name": "from",
          "type": "address"
        },
        {
          "name": "to",
          "type": "address"
        },
        {
          "name": "tokenId",
          "type": "uint256"
        }
      ],
      "name": "safeTransferFrom",
      "outputs": [],
      "payable": false,
      "stateMutability": "nonpayable",
      "type": "function"
    },
    {
      "constant": true,
      "inputs": [
        {
          "name": "tokenId",
          "type": "uint256"
        }
      ],
      "name": "ownerOf",
      "outputs": [
        {
          "name": "",
          "type": "address"
        }
      ],
      "payable": false,
      "stateMutability": "view",
      "type": "function"
    },
    {
      "constant": true,
      "inputs": [
        {
          "name": "owner",
          "type": "address"
        }
      ],
      "name": "balanceOf",
      "outputs": [
        {
          "name": "",
          "type": "uint256"
        }
      ],
      "payable": false,
      "stateMutability": "view",
      "type": "function"
    },
    {
      "constant": false,
      "inputs": [
        {
          "name": "account",
          "type": "address"
        }
      ],
      "name": "addMinter",
      "outputs": [],
      "payable": false,
      "stateMutability": "nonpayable",
      "type": "function"
    },
    {
      "constant": false,
      "inputs": [],
      "name": "renounceMinter",
      "outputs": [],
      "payable": false,
      "stateMutability": "nonpayable",
      "type": "function"
    },
    {
      "constant": false,
      "inputs": [
        {
          "name": "to",
          "type": "address"
        },
        {
          "name": "approved",
          "type": "bool"
        }
      ],
      "name": "setApprovalForAll",
      "outputs": [],
      "payable": false,
      "stateMutability": "nonpayable",
      "type": "function"
    },
    {
      "constant": true,
      "inputs": [
        {
          "name": "account",
          "type": "address"
        }
      ],
      "name": "isMinter",
      "outputs": [
        {
          "name": "",
          "type": "bool"
        }
      ],
      "payable": false,
      "stateMutability": "view",
      "type": "function"
    },
    {
      "constant": false,
      "inputs": [
        {
          "name": "from",
          "type": "address"
        },
        {
          "name": "to",
          "type": "address"
        },
        {
          "name": "tokenId",
          "type": "uint256"
        },
        {
          "name": "_data",
          "type": "bytes"
        }
      ],
      "name": "safeTransferFrom",
      "outputs": [],
      "payable": false,
      "stateMutability": "nonpayable",
      "type": "function"
    },
    {
      "constant": true,
      "inputs": [
        {
          "name": "owner",
          "type": "address"
        },
        {
          "name": "operator",
          "type": "address"
        }
      ],
      "name": "isApprovedForAll",
      "outputs": [
        {
          "name": "",
          "type": "bool"
        }
      ],
      "payable": false,
      "stateMutability": "view",
      "type": "function"
    },
    {
      "anonymous": false,
      "inputs": [
        {
          "indexed": true,
          "name": "account",
          "type": "address"
        }
      ],
      "name": "MinterAdded",
      "type": "event"
    },
    {
      "anonymous": false,
      "inputs": [
        {
          "indexed": true,
          "name": "account",
          "type": "address"
        }
      ],
      "name": "MinterRemoved",
      "type": "event"
    },
    {
      "anonymous": false,
      "inputs": [
        {
          "indexed": true,
          "name": "from",
          "type": "address"
        },
        {
          "indexed": true,
          "name": "to",
          "type": "address"
        },
        {
          "indexed": true,
          "name": "tokenId",
          "type": "uint256"
        }
      ],
      "name": "Transfer",
      "type": "event"
    },
    {
      "anonymous": false,
      "inputs": [
        {
          "indexed": true,
          "name": "owner",
          "type": "address"
        },
        {
          "indexed": true,
          "name": "approved",
          "type": "address"
        },
        {
          "indexed": true,
          "name": "tokenId",
          "type": "uint256"
        }
      ],
      "name": "Approval",
      "type": "event"
    },
    {
      "anonymous": false,
      "inputs": [
        {
          "indexed": true,
          "name": "owner",
          "type": "address"
        },
        {
          "indexed": true,
          "name": "operator",
          "type": "address"
        },
        {
          "indexed": false,
          "name": "approved",
          "type": "bool"
        }
      ],
      "name": "ApprovalForAll",
      "type": "event"
    },
    {
      "constant": false,
      "inputs": [
        {
          "name": "to",
          "type": "address"
        },
        {
          "name": "tokenId",
          "type": "uint256"
        }
      ],
      "name": "mint",
      "outputs": [
        {
          "name": "",
          "type": "bool"
        }
      ],
      "payable": false,
      "stateMutability": "nonpayable",
      "type": "function"
    }
  ],
  "bytecode": "0x60806040526100367f01ffc9a70000000000000000000000000000000000000000000000000000000064010000000061007f810204565b6100687f80ac58cd0000000000000000000000000000000000000000000000000000000064010000000061007f810204565b61007a336401000000006100eb810204565b6101c4565b7fffffffff0000000000000000000000000000000000000000000000000000000080821614156100ae57600080fd5b7fffffffff00000000000000000000000000000000000000000000000000000000166000908152602081905260409020805460ff19166001179055565b610103600582640100000000610bdd61013a82021704565b604051600160a060020a038216907f6ae172837ea30b801fbfcdd4108aa1d5bf8ff775444fd70256b44e6bf3dfc3f690600090a250565b600160a060020a03811661014d57600080fd5b610160828264010000000061018f810204565b1561016a57600080fd5b600160a060020a0316600090815260209190915260409020805460ff19166001179055565b6000600160a060020a0382166101a457600080fd5b50600160a060020a03166000908152602091909152604090205460ff1690565b610cb8806101d36000396000f3fe608060405234801561001057600080fd5b5060043610610107576000357c01000000000000000000000000000000000000000000000000000000009004806370a08231116100a9578063a22cb46511610083578063a22cb465146102de578063aa271e1a1461030c578063b88d4fde14610332578063e985e9c5146103f857610107565b806370a0823114610278578063983b2d56146102b057806398650275146102d657610107565b806323b872dd116100e557806323b872dd146101c357806340c10f19146101f957806342842e0e146102255780636352211e1461025b57610107565b806301ffc9a71461010c578063081812fc1461015c578063095ea7b314610195575b600080fd5b6101486004803603602081101561012257600080fd5b50357bffffffffffffffffffffffffffffffffffffffffffffffffffffffff1916610426565b604080519115158252519081900360200190f35b6101796004803603602081101561017257600080fd5b503561045a565b60408051600160a060020a039092168252519081900360200190f35b6101c1600480360360408110156101ab57600080fd5b50600160a060020a03813516906020013561048a565b005b6101c1600480360360608110156101d957600080fd5b50600160a060020a03813581169160208101359091169060400135610544565b6101486004803603604081101561020f57600080fd5b50600160a060020a038135169060200135610567565b6101c16004803603606081101561023b57600080fd5b50600160a060020a0381358116916020810135909116906040013561058e565b6101796004803603602081101561027157600080fd5b50356105a9565b61029e6004803603602081101561028e57600080fd5b5035600160a060020a03166105d1565b60408051918252519081900360200190f35b6101c1600480360360208110156102c657600080fd5b5035600160a060020a0316610607565b6101c1610625565b6101c1600480360360408110156102f457600080fd5b50600160a060020a0381351690602001351515610630565b6101486004803603602081101561032257600080fd5b5035600160a060020a03166106b4565b6101c16004803603608081101561034857600080fd5b600160a060020a0382358116926020810135909116916040820135919081019060808101606082013564010000000081111561038357600080fd5b82018360208201111561039557600080fd5b803590602001918460018302840111640100000000831117156103b757600080fd5b91908080601f0160208091040260200160405190810160405280939291908181526020018383808284376000920191909152509295506106c7945050505050565b6101486004803603604081101561040e57600080fd5b50600160a060020a03813581169160200135166106ed565b7bffffffffffffffffffffffffffffffffffffffffffffffffffffffff191660009081526020819052604090205460ff1690565b60006104658261071b565b61046e57600080fd5b50600090815260026020526040902054600160a060020a031690565b6000610495826105a9565b905080600160a060020a031683600160a060020a031614156104b657600080fd5b33600160a060020a03821614806104d257506104d281336106ed565b6104db57600080fd5b600082815260026020526040808220805473ffffffffffffffffffffffffffffffffffffffff1916600160a060020a0387811691821790925591518593918516917f8c5be1e5ebec7d5bd14f71427d1e84f3dd0314c0f7b2291e5b200ac8c7c3b92591a4505050565b61054e3382610738565b61055757600080fd5b610562838383610797565b505050565b6000610572336106b4565b61057b57600080fd5b6105858383610884565b50600192915050565b610562838383604051806020016040528060008152506106c7565b600081815260016020526040812054600160a060020a0316806105cb57600080fd5b92915050565b6000600160a060020a0382166105e657600080fd5b600160a060020a03821660009081526003602052604090206105cb90610932565b610610336106b4565b61061957600080fd5b61062281610936565b50565b61062e3361097e565b565b600160a060020a03821633141561064657600080fd5b336000818152600460209081526040808320600160a060020a03871680855290835292819020805460ff1916861515908117909155815190815290519293927f17307eab39ab6107e8899845ad3d59bd9653f200f220920489ca2b5937696c31929181900390910190a35050565b60006105cb60058363ffffffff6109c616565b6106d2848484610544565b6106de848484846109fb565b6106e757600080fd5b50505050565b600160a060020a03918216600090815260046020908152604080832093909416825291909152205460ff1690565b600090815260016020526040902054600160a060020a0316151590565b600080610744836105a9565b905080600160a060020a031684600160a060020a0316148061077f575083600160a060020a03166107748461045a565b600160a060020a0316145b8061078f575061078f81856106ed565b949350505050565b82600160a060020a03166107aa826105a9565b600160a060020a0316146107bd57600080fd5b600160a060020a0382166107d057600080fd5b6107d981610b75565b600160a060020a03831660009081526003602052604090206107fa90610bbd565b600160a060020a038216600090815260036020526040902061081b90610bd4565b600081815260016020526040808220805473ffffffffffffffffffffffffffffffffffffffff1916600160a060020a0386811691821790925591518493918716917fddf252ad1be2c89b69c2b068fc378daa952ba7f163c4a11628f55a4df523b3ef91a4505050565b600160a060020a03821661089757600080fd5b6108a08161071b565b156108aa57600080fd5b6000818152600160209081526040808320805473ffffffffffffffffffffffffffffffffffffffff1916600160a060020a0387169081179091558352600390915290206108f690610bd4565b6040518190600160a060020a038416906000907fddf252ad1be2c89b69c2b068fc378daa952ba7f163c4a11628f55a4df523b3ef908290a45050565b5490565b61094760058263ffffffff610bdd16565b604051600160a060020a038216907f6ae172837ea30b801fbfcdd4108aa1d5bf8ff775444fd70256b44e6bf3dfc3f690600090a250565b61098f60058263ffffffff610c2916565b604051600160a060020a038216907fe94479a9f7e1952cc78f2d6baab678adc1b772d936c6583def489e524cb6669290600090a250565b6000600160a060020a0382166109db57600080fd5b50600160a060020a03166000908152602091909152604090205460ff1690565b6000610a0f84600160a060020a0316610c71565b610a1b5750600161078f565b6040517f150b7a020000000000000000000000000000000000000000000000000000000081523360048201818152600160a060020a03888116602485015260448401879052608060648501908152865160848601528651600095928a169463150b7a029490938c938b938b939260a4019060208501908083838e5b83811015610aae578181015183820152602001610a96565b50505050905090810190601f168015610adb5780820380516001836020036101000a031916815260200191505b5095505050505050602060405180830381600087803b158015610afd57600080fd5b505af1158015610b11573d6000803e3d6000fd5b505050506040513d6020811015610b2757600080fd5b50517bffffffffffffffffffffffffffffffffffffffffffffffffffffffff19167f150b7a020000000000000000000000000000000000000000000000000000000014915050949350505050565b600081815260026020526040902054600160a060020a031615610622576000908152600260205260409020805473ffffffffffffffffffffffffffffffffffffffff19169055565b8054610bd090600163ffffffff610c7716565b9055565b80546001019055565b600160a060020a038116610bf057600080fd5b610bfa82826109c6565b15610c0457600080fd5b600160a060020a0316600090815260209190915260409020805460ff19166001179055565b600160a060020a038116610c3c57600080fd5b610c4682826109c6565b610c4f57600080fd5b600160a060020a0316600090815260209190915260409020805460ff19169055565b3b151590565b600082821115610c8657600080fd5b5090039056fea165627a7a723058202df2a01ae11c7a704f565daa2467d9eeceb8410ba8e3d049dad86c71b025df4e0029",
  "source": "pragma solidity ^0.5.2;\n\nimport \"./ERC721.sol\";\nimport \"../../access/roles/MinterRole.sol\";\n\n/**\n * @title ERC721Mintable\n * @dev ERC721 minting logic\n */\ncontract ERC721Mintable is ERC721, MinterRole {\n    /**\n     * @dev Function to mint tokens\n     * @param to The address that will receive the minted tokens.\n     * @param tokenId The token id to mint.\n     * @return A boolean that indicates if the operation was successful.\n     */\n    function mint(address to, uint256 tokenId) public onlyMinter returns (bool) {\n        _mint(to, tokenId);\n        return true;\n    }\n}\n",
  "sourcePath": "/home/luiserebii/github/HydroSnowflake-Marketplace-Coupons/contracts/zeppelin/token/ERC721/ERC721Mintable.sol",
  "compiler": {
    "name": "solc",
    "version": "0.5.6+commit.b259423e.Emscripten.clang"
  },
  "schemaVersion": "3.0.6",
  "updatedAt": "2019-04-12T01:36:38.050Z",
  "devdoc": {
    "details": "ERC721 minting logic",
    "methods": {
      "approve(address,uint256)": {
        "details": "Approves another address to transfer the given token ID The zero address indicates there is no approved address. There can only be one approved address per token at a given time. Can only be called by the token owner or an approved operator.",
        "params": {
          "to": "address to be approved for the given token ID",
          "tokenId": "uint256 ID of the token to be approved"
        }
      },
      "balanceOf(address)": {
        "details": "Gets the balance of the specified address",
        "params": {
          "owner": "address to query the balance of"
        },
        "return": "uint256 representing the amount owned by the passed address"
      },
      "getApproved(uint256)": {
        "details": "Gets the approved address for a token ID, or zero if no address set Reverts if the token ID does not exist.",
        "params": {
          "tokenId": "uint256 ID of the token to query the approval of"
        },
        "return": "address currently approved for the given token ID"
      },
      "isApprovedForAll(address,address)": {
        "details": "Tells whether an operator is approved by a given owner",
        "params": {
          "operator": "operator address which you want to query the approval of",
          "owner": "owner address which you want to query the approval of"
        },
        "return": "bool whether the given operator is approved by the given owner"
      },
      "mint(address,uint256)": {
        "details": "Function to mint tokens",
        "params": {
          "to": "The address that will receive the minted tokens.",
          "tokenId": "The token id to mint."
        },
        "return": "A boolean that indicates if the operation was successful."
      },
      "ownerOf(uint256)": {
        "details": "Gets the owner of the specified token ID",
        "params": {
          "tokenId": "uint256 ID of the token to query the owner of"
        },
        "return": "address currently marked as the owner of the given token ID"
      },
      "safeTransferFrom(address,address,uint256)": {
        "details": "Safely transfers the ownership of a given token ID to another address If the target address is a contract, it must implement `onERC721Received`, which is called upon a safe transfer, and return the magic value `bytes4(keccak256(\"onERC721Received(address,address,uint256,bytes)\"))`; otherwise, the transfer is reverted. Requires the msg.sender to be the owner, approved, or operator",
        "params": {
          "from": "current owner of the token",
          "to": "address to receive the ownership of the given token ID",
          "tokenId": "uint256 ID of the token to be transferred"
        }
      },
      "safeTransferFrom(address,address,uint256,bytes)": {
        "details": "Safely transfers the ownership of a given token ID to another address If the target address is a contract, it must implement `onERC721Received`, which is called upon a safe transfer, and return the magic value `bytes4(keccak256(\"onERC721Received(address,address,uint256,bytes)\"))`; otherwise, the transfer is reverted. Requires the msg.sender to be the owner, approved, or operator",
        "params": {
          "_data": "bytes data to send along with a safe transfer check",
          "from": "current owner of the token",
          "to": "address to receive the ownership of the given token ID",
          "tokenId": "uint256 ID of the token to be transferred"
        }
      },
      "setApprovalForAll(address,bool)": {
        "details": "Sets or unsets the approval of a given operator An operator is allowed to transfer all tokens of the sender on their behalf",
        "params": {
          "approved": "representing the status of the approval to be set",
          "to": "operator address to set the approval"
        }
      },
      "supportsInterface(bytes4)": {
        "details": "implement supportsInterface(bytes4) using a lookup table"
      },
      "transferFrom(address,address,uint256)": {
        "details": "Transfers the ownership of a given token ID to another address Usage of this method is discouraged, use `safeTransferFrom` whenever possible Requires the msg.sender to be the owner, approved, or operator",
        "params": {
          "from": "current owner of the token",
          "to": "address to receive the ownership of the given token ID",
          "tokenId": "uint256 ID of the token to be transferred"
        }
      }
    },
    "title": "ERC721Mintable"
  },
  "userdoc": {
    "methods": {}
  }
}