{
  "contractName": "ERC721Pausable",
  "abi": [
    {
      "constant": true,
      "inputs": [
        {
          "name": "interfaceId",
          "type": "bytes4"
        }
      ],
      "name": "supportsInterface",
      "outputs": [
        {
          "name": "",
          "type": "bool"
        }
      ],
      "payable": false,
      "stateMutability": "view",
      "type": "function"
    },
    {
      "constant": true,
      "inputs": [
        {
          "name": "tokenId",
          "type": "uint256"
        }
      ],
      "name": "getApproved",
      "outputs": [
        {
          "name": "",
          "type": "address"
        }
      ],
      "payable": false,
      "stateMutability": "view",
      "type": "function"
    },
    {
      "constant": false,
      "inputs": [],
      "name": "unpause",
      "outputs": [],
      "payable": false,
      "stateMutability": "nonpayable",
      "type": "function"
    },
    {
      "constant": false,
      "inputs": [
        {
          "name": "from",
          "type": "address"
        },
        {
          "name": "to",
          "type": "address"
        },
        {
          "name": "tokenId",
          "type": "uint256"
        }
      ],
      "name": "safeTransferFrom",
      "outputs": [],
      "payable": false,
      "stateMutability": "nonpayable",
      "type": "function"
    },
    {
      "constant": true,
      "inputs": [
        {
          "name": "account",
          "type": "address"
        }
      ],
      "name": "isPauser",
      "outputs": [
        {
          "name": "",
          "type": "bool"
        }
      ],
      "payable": false,
      "stateMutability": "view",
      "type": "function"
    },
    {
      "constant": true,
      "inputs": [],
      "name": "paused",
      "outputs": [
        {
          "name": "",
          "type": "bool"
        }
      ],
      "payable": false,
      "stateMutability": "view",
      "type": "function"
    },
    {
      "constant": true,
      "inputs": [
        {
          "name": "tokenId",
          "type": "uint256"
        }
      ],
      "name": "ownerOf",
      "outputs": [
        {
          "name": "",
          "type": "address"
        }
      ],
      "payable": false,
      "stateMutability": "view",
      "type": "function"
    },
    {
      "constant": false,
      "inputs": [],
      "name": "renouncePauser",
      "outputs": [],
      "payable": false,
      "stateMutability": "nonpayable",
      "type": "function"
    },
    {
      "constant": true,
      "inputs": [
        {
          "name": "owner",
          "type": "address"
        }
      ],
      "name": "balanceOf",
      "outputs": [
        {
          "name": "",
          "type": "uint256"
        }
      ],
      "payable": false,
      "stateMutability": "view",
      "type": "function"
    },
    {
      "constant": false,
      "inputs": [
        {
          "name": "account",
          "type": "address"
        }
      ],
      "name": "addPauser",
      "outputs": [],
      "payable": false,
      "stateMutability": "nonpayable",
      "type": "function"
    },
    {
      "constant": false,
      "inputs": [],
      "name": "pause",
      "outputs": [],
      "payable": false,
      "stateMutability": "nonpayable",
      "type": "function"
    },
    {
      "constant": false,
      "inputs": [
        {
          "name": "from",
          "type": "address"
        },
        {
          "name": "to",
          "type": "address"
        },
        {
          "name": "tokenId",
          "type": "uint256"
        },
        {
          "name": "_data",
          "type": "bytes"
        }
      ],
      "name": "safeTransferFrom",
      "outputs": [],
      "payable": false,
      "stateMutability": "nonpayable",
      "type": "function"
    },
    {
      "constant": true,
      "inputs": [
        {
          "name": "owner",
          "type": "address"
        },
        {
          "name": "operator",
          "type": "address"
        }
      ],
      "name": "isApprovedForAll",
      "outputs": [
        {
          "name": "",
          "type": "bool"
        }
      ],
      "payable": false,
      "stateMutability": "view",
      "type": "function"
    },
    {
      "anonymous": false,
      "inputs": [
        {
          "indexed": false,
          "name": "account",
          "type": "address"
        }
      ],
      "name": "Paused",
      "type": "event"
    },
    {
      "anonymous": false,
      "inputs": [
        {
          "indexed": false,
          "name": "account",
          "type": "address"
        }
      ],
      "name": "Unpaused",
      "type": "event"
    },
    {
      "anonymous": false,
      "inputs": [
        {
          "indexed": true,
          "name": "account",
          "type": "address"
        }
      ],
      "name": "PauserAdded",
      "type": "event"
    },
    {
      "anonymous": false,
      "inputs": [
        {
          "indexed": true,
          "name": "account",
          "type": "address"
        }
      ],
      "name": "PauserRemoved",
      "type": "event"
    },
    {
      "anonymous": false,
      "inputs": [
        {
          "indexed": true,
          "name": "from",
          "type": "address"
        },
        {
          "indexed": true,
          "name": "to",
          "type": "address"
        },
        {
          "indexed": true,
          "name": "tokenId",
          "type": "uint256"
        }
      ],
      "name": "Transfer",
      "type": "event"
    },
    {
      "anonymous": false,
      "inputs": [
        {
          "indexed": true,
          "name": "owner",
          "type": "address"
        },
        {
          "indexed": true,
          "name": "approved",
          "type": "address"
        },
        {
          "indexed": true,
          "name": "tokenId",
          "type": "uint256"
        }
      ],
      "name": "Approval",
      "type": "event"
    },
    {
      "anonymous": false,
      "inputs": [
        {
          "indexed": true,
          "name": "owner",
          "type": "address"
        },
        {
          "indexed": true,
          "name": "operator",
          "type": "address"
        },
        {
          "indexed": false,
          "name": "approved",
          "type": "bool"
        }
      ],
      "name": "ApprovalForAll",
      "type": "event"
    },
    {
      "constant": false,
      "inputs": [
        {
          "name": "to",
          "type": "address"
        },
        {
          "name": "tokenId",
          "type": "uint256"
        }
      ],
      "name": "approve",
      "outputs": [],
      "payable": false,
      "stateMutability": "nonpayable",
      "type": "function"
    },
    {
      "constant": false,
      "inputs": [
        {
          "name": "to",
          "type": "address"
        },
        {
          "name": "approved",
          "type": "bool"
        }
      ],
      "name": "setApprovalForAll",
      "outputs": [],
      "payable": false,
      "stateMutability": "nonpayable",
      "type": "function"
    },
    {
      "constant": false,
      "inputs": [
        {
          "name": "from",
          "type": "address"
        },
        {
          "name": "to",
          "type": "address"
        },
        {
          "name": "tokenId",
          "type": "uint256"
        }
      ],
      "name": "transferFrom",
      "outputs": [],
      "payable": false,
      "stateMutability": "nonpayable",
      "type": "function"
    }
  ],
  "bytecode": "0x60806040526100367f01ffc9a700000000000000000000000000000000000000000000000000000000640100000000610089810204565b6100687f80ac58cd00000000000000000000000000000000000000000000000000000000640100000000610089810204565b61007a336401000000006100f5810204565b6006805460ff191690556101ce565b7fffffffff0000000000000000000000000000000000000000000000000000000080821614156100b857600080fd5b7fffffffff00000000000000000000000000000000000000000000000000000000166000908152602081905260409020805460ff19166001179055565b61010d600582640100000000610c0361014482021704565b604051600160a060020a038216907f6719d08c1888103bea251a4ed56406bd0c3e69723c8a1686e017e7bbe159b6f890600090a250565b600160a060020a03811661015757600080fd5b61016a8282640100000000610199810204565b1561017457600080fd5b600160a060020a0316600090815260209190915260409020805460ff19166001179055565b6000600160a060020a0382166101ae57600080fd5b50600160a060020a03166000908152602091909152604090205460ff1690565b610cfe806101dd6000396000f3fe608060405234801561001057600080fd5b506004361061011d576000357c0100000000000000000000000000000000000000000000000000000000900480636352211e116100b45780638456cb59116100835780638456cb59146102fe578063a22cb46514610306578063b88d4fde14610334578063e985e9c5146103fa5761011d565b80636352211e1461027b5780636ef8d66d1461029857806370a08231146102a057806382dc1ec4146102d85761011d565b80633f4ba83a116100f05780633f4ba83a1461020f57806342842e0e1461021757806346fbf68e1461024d5780635c975abb146102735761011d565b806301ffc9a714610122578063081812fc14610172578063095ea7b3146101ab57806323b872dd146101d9575b600080fd5b61015e6004803603602081101561013857600080fd5b50357bffffffffffffffffffffffffffffffffffffffffffffffffffffffff1916610428565b604080519115158252519081900360200190f35b61018f6004803603602081101561018857600080fd5b503561045c565b60408051600160a060020a039092168252519081900360200190f35b6101d7600480360360408110156101c157600080fd5b50600160a060020a03813516906020013561048c565b005b6101d7600480360360608110156101ef57600080fd5b50600160a060020a038135811691602081013590911690604001356104aa565b6101d76104ca565b6101d76004803603606081101561022d57600080fd5b50600160a060020a0381358116916020810135909116906040013561052a565b61015e6004803603602081101561026357600080fd5b5035600160a060020a0316610545565b61015e61055e565b61018f6004803603602081101561029157600080fd5b5035610567565b6101d7610589565b6102c6600480360360208110156102b657600080fd5b5035600160a060020a0316610594565b60408051918252519081900360200190f35b6101d7600480360360208110156102ee57600080fd5b5035600160a060020a03166105ca565b6101d76105e8565b6101d76004803603604081101561031c57600080fd5b50600160a060020a038135169060200135151561064c565b6101d76004803603608081101561034a57600080fd5b600160a060020a0382358116926020810135909116916040820135919081019060808101606082013564010000000081111561038557600080fd5b82018360208201111561039757600080fd5b803590602001918460018302840111640100000000831117156103b957600080fd5b91908080601f016020809104026020016040519081016040528093929190818152602001838380828437600092019190915250929550610666945050505050565b61015e6004803603604081101561041057600080fd5b50600160a060020a038135811691602001351661068c565b7bffffffffffffffffffffffffffffffffffffffffffffffffffffffff191660009081526020819052604090205460ff1690565b6000610467826106ba565b61047057600080fd5b50600090815260026020526040902054600160a060020a031690565b60065460ff161561049c57600080fd5b6104a682826106d7565b5050565b60065460ff16156104ba57600080fd5b6104c5838383610791565b505050565b6104d333610545565b6104dc57600080fd5b60065460ff166104eb57600080fd5b6006805460ff191690556040805133815290517f5db9ee0a495bf2e6ff9c91a7834c1ba4fdd244a5e8aa4e537bd38aeae4b073aa9181900360200190a1565b6104c583838360405180602001604052806000815250610666565b600061055860058363ffffffff6107af16565b92915050565b60065460ff1690565b600081815260016020526040812054600160a060020a03168061055857600080fd5b610592336107e4565b565b6000600160a060020a0382166105a957600080fd5b600160a060020a03821660009081526003602052604090206105589061082c565b6105d333610545565b6105dc57600080fd5b6105e581610830565b50565b6105f133610545565b6105fa57600080fd5b60065460ff161561060a57600080fd5b6006805460ff191660011790556040805133815290517f62e78cea01bee320cd4e420270b5ea74000d11b0c9f74754ebdbfc544b05a2589181900360200190a1565b60065460ff161561065c57600080fd5b6104a68282610878565b6106718484846104aa565b61067d848484846108fc565b61068657600080fd5b50505050565b600160a060020a03918216600090815260046020908152604080832093909416825291909152205460ff1690565b600090815260016020526040902054600160a060020a0316151590565b60006106e282610567565b905080600160a060020a031683600160a060020a0316141561070357600080fd5b33600160a060020a038216148061071f575061071f813361068c565b61072857600080fd5b600082815260026020526040808220805473ffffffffffffffffffffffffffffffffffffffff1916600160a060020a0387811691821790925591518593918516917f8c5be1e5ebec7d5bd14f71427d1e84f3dd0314c0f7b2291e5b200ac8c7c3b92591a4505050565b61079b3382610a77565b6107a457600080fd5b6104c5838383610ace565b6000600160a060020a0382166107c457600080fd5b50600160a060020a03166000908152602091909152604090205460ff1690565b6107f560058263ffffffff610bbb16565b604051600160a060020a038216907fcd265ebaf09df2871cc7bd4133404a235ba12eff2041bb89d9c714a2621c7c7e90600090a250565b5490565b61084160058263ffffffff610c0316565b604051600160a060020a038216907f6719d08c1888103bea251a4ed56406bd0c3e69723c8a1686e017e7bbe159b6f890600090a250565b600160a060020a03821633141561088e57600080fd5b336000818152600460209081526040808320600160a060020a03871680855290835292819020805460ff1916861515908117909155815190815290519293927f17307eab39ab6107e8899845ad3d59bd9653f200f220920489ca2b5937696c31929181900390910190a35050565b600061091084600160a060020a0316610c4f565b61091c57506001610a6f565b6040517f150b7a020000000000000000000000000000000000000000000000000000000081523360048201818152600160a060020a03888116602485015260448401879052608060648501908152865160848601528651600095928a169463150b7a029490938c938b938b939260a4019060208501908083838e5b838110156109af578181015183820152602001610997565b50505050905090810190601f1680156109dc5780820380516001836020036101000a031916815260200191505b5095505050505050602060405180830381600087803b1580156109fe57600080fd5b505af1158015610a12573d6000803e3d6000fd5b505050506040513d6020811015610a2857600080fd5b50517bffffffffffffffffffffffffffffffffffffffffffffffffffffffff19167f150b7a0200000000000000000000000000000000000000000000000000000000149150505b949350505050565b600080610a8383610567565b905080600160a060020a031684600160a060020a03161480610abe575083600160a060020a0316610ab38461045c565b600160a060020a0316145b80610a6f5750610a6f818561068c565b82600160a060020a0316610ae182610567565b600160a060020a031614610af457600080fd5b600160a060020a038216610b0757600080fd5b610b1081610c55565b600160a060020a0383166000908152600360205260409020610b3190610c9d565b600160a060020a0382166000908152600360205260409020610b5290610cb4565b600081815260016020526040808220805473ffffffffffffffffffffffffffffffffffffffff1916600160a060020a0386811691821790925591518493918716917fddf252ad1be2c89b69c2b068fc378daa952ba7f163c4a11628f55a4df523b3ef91a4505050565b600160a060020a038116610bce57600080fd5b610bd882826107af565b610be157600080fd5b600160a060020a0316600090815260209190915260409020805460ff19169055565b600160a060020a038116610c1657600080fd5b610c2082826107af565b15610c2a57600080fd5b600160a060020a0316600090815260209190915260409020805460ff19166001179055565b3b151590565b600081815260026020526040902054600160a060020a0316156105e5576000908152600260205260409020805473ffffffffffffffffffffffffffffffffffffffff19169055565b8054610cb090600163ffffffff610cbd16565b9055565b80546001019055565b600082821115610ccc57600080fd5b5090039056fea165627a7a72305820025409116c2c333fd1734cba9c9abcbf596a9cd1f11bb77d2eec8b0dbb4544940029",
  "source": "pragma solidity ^0.5.2;\n\nimport \"./ERC721.sol\";\nimport \"../../lifecycle/Pausable.sol\";\n\n/**\n * @title ERC721 Non-Fungible Pausable token\n * @dev ERC721 modified with pausable transfers.\n */\ncontract ERC721Pausable is ERC721, Pausable {\n    function approve(address to, uint256 tokenId) public whenNotPaused {\n        super.approve(to, tokenId);\n    }\n\n    function setApprovalForAll(address to, bool approved) public whenNotPaused {\n        super.setApprovalForAll(to, approved);\n    }\n\n    function transferFrom(address from, address to, uint256 tokenId) public whenNotPaused {\n        super.transferFrom(from, to, tokenId);\n    }\n}\n",
  "sourcePath": "/home/luiserebii/hydrosnowflake_marketplace_coupons/contracts/zeppelin/token/ERC721/ERC721Pausable.sol",
  "compiler": {
    "name": "solc",
    "version": "0.5.6+commit.b259423e.Emscripten.clang"
  },
  "schemaVersion": "3.0.6",
  "updatedAt": "2019-04-11T00:38:35.884Z",
  "devdoc": {
    "details": "ERC721 modified with pausable transfers.",
    "methods": {
      "balanceOf(address)": {
        "details": "Gets the balance of the specified address",
        "params": {
          "owner": "address to query the balance of"
        },
        "return": "uint256 representing the amount owned by the passed address"
      },
      "getApproved(uint256)": {
        "details": "Gets the approved address for a token ID, or zero if no address set Reverts if the token ID does not exist.",
        "params": {
          "tokenId": "uint256 ID of the token to query the approval of"
        },
        "return": "address currently approved for the given token ID"
      },
      "isApprovedForAll(address,address)": {
        "details": "Tells whether an operator is approved by a given owner",
        "params": {
          "operator": "operator address which you want to query the approval of",
          "owner": "owner address which you want to query the approval of"
        },
        "return": "bool whether the given operator is approved by the given owner"
      },
      "ownerOf(uint256)": {
        "details": "Gets the owner of the specified token ID",
        "params": {
          "tokenId": "uint256 ID of the token to query the owner of"
        },
        "return": "address currently marked as the owner of the given token ID"
      },
      "pause()": {
        "details": "called by the owner to pause, triggers stopped state"
      },
      "paused()": {
        "return": "true if the contract is paused, false otherwise."
      },
      "safeTransferFrom(address,address,uint256)": {
        "details": "Safely transfers the ownership of a given token ID to another address If the target address is a contract, it must implement `onERC721Received`, which is called upon a safe transfer, and return the magic value `bytes4(keccak256(\"onERC721Received(address,address,uint256,bytes)\"))`; otherwise, the transfer is reverted. Requires the msg.sender to be the owner, approved, or operator",
        "params": {
          "from": "current owner of the token",
          "to": "address to receive the ownership of the given token ID",
          "tokenId": "uint256 ID of the token to be transferred"
        }
      },
      "safeTransferFrom(address,address,uint256,bytes)": {
        "details": "Safely transfers the ownership of a given token ID to another address If the target address is a contract, it must implement `onERC721Received`, which is called upon a safe transfer, and return the magic value `bytes4(keccak256(\"onERC721Received(address,address,uint256,bytes)\"))`; otherwise, the transfer is reverted. Requires the msg.sender to be the owner, approved, or operator",
        "params": {
          "_data": "bytes data to send along with a safe transfer check",
          "from": "current owner of the token",
          "to": "address to receive the ownership of the given token ID",
          "tokenId": "uint256 ID of the token to be transferred"
        }
      },
      "supportsInterface(bytes4)": {
        "details": "implement supportsInterface(bytes4) using a lookup table"
      },
      "unpause()": {
        "details": "called by the owner to unpause, returns to normal state"
      }
    },
    "title": "ERC721 Non-Fungible Pausable token"
  },
  "userdoc": {
    "methods": {}
  }
}