{
  "contractName": "HydroToken",
  "abi": [
    {
      "constant": true,
      "inputs": [],
      "name": "raindropAddress",
      "outputs": [
        {
          "name": "",
          "type": "address"
        }
      ],
      "payable": false,
      "stateMutability": "view",
      "type": "function"
    },
    {
      "constant": true,
      "inputs": [],
      "name": "name",
      "outputs": [
        {
          "name": "",
          "type": "string"
        }
      ],
      "payable": false,
      "stateMutability": "view",
      "type": "function"
    },
    {
      "constant": true,
      "inputs": [],
      "name": "totalSupply",
      "outputs": [
        {
          "name": "",
          "type": "uint256"
        }
      ],
      "payable": false,
      "stateMutability": "view",
      "type": "function"
    },
    {
      "constant": true,
      "inputs": [
        {
          "name": "",
          "type": "address"
        }
      ],
      "name": "balances",
      "outputs": [
        {
          "name": "",
          "type": "uint256"
        }
      ],
      "payable": false,
      "stateMutability": "view",
      "type": "function"
    },
    {
      "constant": true,
      "inputs": [],
      "name": "decimals",
      "outputs": [
        {
          "name": "",
          "type": "uint8"
        }
      ],
      "payable": false,
      "stateMutability": "view",
      "type": "function"
    },
    {
      "constant": true,
      "inputs": [
        {
          "name": "",
          "type": "address"
        },
        {
          "name": "",
          "type": "address"
        }
      ],
      "name": "allowed",
      "outputs": [
        {
          "name": "",
          "type": "uint256"
        }
      ],
      "payable": false,
      "stateMutability": "view",
      "type": "function"
    },
    {
      "constant": false,
      "inputs": [],
      "name": "renounceOwnership",
      "outputs": [],
      "payable": false,
      "stateMutability": "nonpayable",
      "type": "function"
    },
    {
      "constant": true,
      "inputs": [],
      "name": "owner",
      "outputs": [
        {
          "name": "",
          "type": "address"
        }
      ],
      "payable": false,
      "stateMutability": "view",
      "type": "function"
    },
    {
      "constant": true,
      "inputs": [],
      "name": "isOwner",
      "outputs": [
        {
          "name": "",
          "type": "bool"
        }
      ],
      "payable": false,
      "stateMutability": "view",
      "type": "function"
    },
    {
      "constant": true,
      "inputs": [],
      "name": "symbol",
      "outputs": [
        {
          "name": "",
          "type": "string"
        }
      ],
      "payable": false,
      "stateMutability": "view",
      "type": "function"
    },
    {
      "constant": false,
      "inputs": [
        {
          "name": "newOwner",
          "type": "address"
        }
      ],
      "name": "transferOwnership",
      "outputs": [],
      "payable": false,
      "stateMutability": "nonpayable",
      "type": "function"
    },
    {
      "inputs": [],
      "payable": false,
      "stateMutability": "nonpayable",
      "type": "constructor"
    },
    {
      "anonymous": false,
      "inputs": [
        {
          "indexed": true,
          "name": "_from",
          "type": "address"
        },
        {
          "indexed": true,
          "name": "_to",
          "type": "address"
        },
        {
          "indexed": false,
          "name": "_amount",
          "type": "uint256"
        }
      ],
      "name": "Transfer",
      "type": "event"
    },
    {
      "anonymous": false,
      "inputs": [
        {
          "indexed": true,
          "name": "_owner",
          "type": "address"
        },
        {
          "indexed": true,
          "name": "_spender",
          "type": "address"
        },
        {
          "indexed": false,
          "name": "_amount",
          "type": "uint256"
        }
      ],
      "name": "Approval",
      "type": "event"
    },
    {
      "anonymous": false,
      "inputs": [
        {
          "indexed": true,
          "name": "_burner",
          "type": "address"
        },
        {
          "indexed": false,
          "name": "_amount",
          "type": "uint256"
        }
      ],
      "name": "Burn",
      "type": "event"
    },
    {
      "anonymous": false,
      "inputs": [
        {
          "indexed": true,
          "name": "previousOwner",
          "type": "address"
        },
        {
          "indexed": true,
          "name": "newOwner",
          "type": "address"
        }
      ],
      "name": "OwnershipTransferred",
      "type": "event"
    },
    {
      "constant": false,
      "inputs": [
        {
          "name": "_to",
          "type": "address"
        },
        {
          "name": "_amount",
          "type": "uint256"
        }
      ],
      "name": "transfer",
      "outputs": [
        {
          "name": "success",
          "type": "bool"
        }
      ],
      "payable": false,
      "stateMutability": "nonpayable",
      "type": "function"
    },
    {
      "constant": false,
      "inputs": [
        {
          "name": "_from",
          "type": "address"
        },
        {
          "name": "_to",
          "type": "address"
        },
        {
          "name": "_amount",
          "type": "uint256"
        }
      ],
      "name": "transferFrom",
      "outputs": [
        {
          "name": "success",
          "type": "bool"
        }
      ],
      "payable": false,
      "stateMutability": "nonpayable",
      "type": "function"
    },
    {
      "constant": true,
      "inputs": [
        {
          "name": "_owner",
          "type": "address"
        }
      ],
      "name": "balanceOf",
      "outputs": [
        {
          "name": "balance",
          "type": "uint256"
        }
      ],
      "payable": false,
      "stateMutability": "view",
      "type": "function"
    },
    {
      "constant": false,
      "inputs": [
        {
          "name": "_spender",
          "type": "address"
        },
        {
          "name": "_amount",
          "type": "uint256"
        }
      ],
      "name": "approve",
      "outputs": [
        {
          "name": "success",
          "type": "bool"
        }
      ],
      "payable": false,
      "stateMutability": "nonpayable",
      "type": "function"
    },
    {
      "constant": false,
      "inputs": [
        {
          "name": "_spender",
          "type": "address"
        },
        {
          "name": "_value",
          "type": "uint256"
        },
        {
          "name": "_extraData",
          "type": "bytes"
        }
      ],
      "name": "approveAndCall",
      "outputs": [
        {
          "name": "success",
          "type": "bool"
        }
      ],
      "payable": false,
      "stateMutability": "nonpayable",
      "type": "function"
    },
    {
      "constant": false,
      "inputs": [
        {
          "name": "_value",
          "type": "uint256"
        }
      ],
      "name": "burn",
      "outputs": [],
      "payable": false,
      "stateMutability": "nonpayable",
      "type": "function"
    },
    {
      "constant": true,
      "inputs": [
        {
          "name": "_owner",
          "type": "address"
        },
        {
          "name": "_spender",
          "type": "address"
        }
      ],
      "name": "allowance",
      "outputs": [
        {
          "name": "remaining",
          "type": "uint256"
        }
      ],
      "payable": false,
      "stateMutability": "view",
      "type": "function"
    },
    {
      "constant": false,
      "inputs": [
        {
          "name": "_raindrop",
          "type": "address"
        }
      ],
      "name": "setRaindropAddress",
      "outputs": [],
      "payable": false,
      "stateMutability": "nonpayable",
      "type": "function"
    },
    {
      "constant": false,
      "inputs": [
        {
          "name": "_value",
          "type": "uint256"
        },
        {
          "name": "_challenge",
          "type": "uint256"
        },
        {
          "name": "_partnerId",
          "type": "uint256"
        }
      ],
      "name": "authenticate",
      "outputs": [],
      "payable": false,
      "stateMutability": "nonpayable",
      "type": "function"
    },
    {
      "constant": false,
      "inputs": [
        {
          "name": "_addressList",
          "type": "address[]"
        },
        {
          "name": "_amounts",
          "type": "uint256[]"
        }
      ],
      "name": "setBalances",
      "outputs": [],
      "payable": false,
      "stateMutability": "nonpayable",
      "type": "function"
    }
  ],
  "bytecode": "0x60c0604052600560808190527f487964726f00000000000000000000000000000000000000000000000000000060a090815262000040916001919062000124565b506002805460ff191660121790556040805180820190915260058082527f485944524f0000000000000000000000000000000000000000000000000000006020909201918252620000949160039162000124565b5060058054600160a060020a0319169055348015620000b257600080fd5b5060008054600160a060020a0319163317808255604051600160a060020a039190911691907f8be0079c531659141344cd1fd0a4f28419497f9722a3daafe3b4186f6b6457e0908290a36b23e6e54c4381ee57e2bc0000600481905533600090815260066020526040902055620001c9565b828054600181600116156101000203166002900490600052602060002090601f016020900481019282601f106200016757805160ff191683800117855562000197565b8280016001018555821562000197579182015b82811115620001975782518255916020019190600101906200017a565b50620001a5929150620001a9565b5090565b620001c691905b80821115620001a55760008155600101620001b0565b90565b610f7d80620001d96000396000f3fe60806040526004361061011c5763ffffffff7c0100000000000000000000000000000000000000000000000000000000600035041663039606318114610121578063053011b71461015257806306fdde031461018a578063095ea7b31461021457806318160ddd1461026157806323b872dd1461028857806327e235e3146102cb578063313ce567146102fe57806342966c68146103295780635c6581651461035357806370a082311461038e578063715018a6146103c15780638da5cb5b146103d65780638f32d59b146103eb57806395d89b4114610400578063a9059cbb14610415578063b302ea1e1461044e578063b7e39b4f14610481578063cae9ca51146105b5578063dd62ed3e1461067d578063f2fde38b146106b8575b600080fd5b34801561012d57600080fd5b506101366106eb565b60408051600160a060020a039092168252519081900360200190f35b34801561015e57600080fd5b506101886004803603606081101561017557600080fd5b50803590602081013590604001356106fa565b005b34801561019657600080fd5b5061019f6107a5565b6040805160208082528351818301528351919283929083019185019080838360005b838110156101d95781810151838201526020016101c1565b50505050905090810190601f1680156102065780820380516001836020036101000a031916815260200191505b509250505060405180910390f35b34801561022057600080fd5b5061024d6004803603604081101561023757600080fd5b50600160a060020a038135169060200135610832565b604080519115158252519081900360200190f35b34801561026d57600080fd5b506102766108d4565b60408051918252519081900360200190f35b34801561029457600080fd5b5061024d600480360360608110156102ab57600080fd5b50600160a060020a038135811691602081013590911690604001356108da565b3480156102d757600080fd5b50610276600480360360208110156102ee57600080fd5b5035600160a060020a031661094a565b34801561030a57600080fd5b5061031361095c565b6040805160ff9092168252519081900360200190f35b34801561033557600080fd5b506101886004803603602081101561034c57600080fd5b5035610965565b34801561035f57600080fd5b506102766004803603604081101561037657600080fd5b50600160a060020a0381358116916020013516610a13565b34801561039a57600080fd5b50610276600480360360208110156103b157600080fd5b5035600160a060020a0316610a30565b3480156103cd57600080fd5b50610188610a4b565b3480156103e257600080fd5b50610136610ab5565b3480156103f757600080fd5b5061024d610ac4565b34801561040c57600080fd5b5061019f610ad5565b34801561042157600080fd5b5061024d6004803603604081101561043857600080fd5b50600160a060020a038135169060200135610b30565b34801561045a57600080fd5b506101886004803603602081101561047157600080fd5b5035600160a060020a0316610b46565b34801561048d57600080fd5b50610188600480360360408110156104a457600080fd5b8101906020810181356401000000008111156104bf57600080fd5b8201836020820111156104d157600080fd5b803590602001918460208302840111640100000000831117156104f357600080fd5b919080806020026020016040519081016040528093929190818152602001838360200280828437600092019190915250929594936020810193503591505064010000000081111561054357600080fd5b82018360208201111561055557600080fd5b8035906020019184602083028401116401000000008311171561057757600080fd5b919080806020026020016040519081016040528093929190818152602001838360200280828437600092019190915250929550610b88945050505050565b3480156105c157600080fd5b5061024d600480360360608110156105d857600080fd5b600160a060020a038235169160208101359181019060608101604082013564010000000081111561060857600080fd5b82018360208201111561061a57600080fd5b8035906020019184600183028401116401000000008311171561063c57600080fd5b91908080601f016020809104026020016040519081016040528093929190818152602001838380828437600092019190915250929550610c3a945050505050565b34801561068957600080fd5b50610276600480360360408110156106a057600080fd5b50600160a060020a0381358116916020013516610d58565b3480156106c457600080fd5b50610188600480360360208110156106db57600080fd5b5035600160a060020a0316610d83565b600554600160a060020a031681565b600554604080517fc68ae6170000000000000000000000000000000000000000000000000000000081523360048201526024810186905260448101859052606481018490529051600160a060020a0390921691829163c68ae61791608480830192600092919082900301818387803b15801561077557600080fd5b505af1158015610789573d6000803e3d6000fd5b5050505061079f33610799610ab5565b86610da2565b50505050565b60018054604080516020600284861615610100026000190190941693909304601f8101849004840282018401909252818152929183018282801561082a5780601f106107ff5761010080835404028352916020019161082a565b820191906000526020600020905b81548152906001019060200180831161080d57829003601f168201915b505050505081565b60008115806108625750336000908152600760209081526040808320600160a060020a0387168452909152902054155b151561086d57600080fd5b336000818152600760209081526040808320600160a060020a03881680855290835292819020869055805186815290519293927f8c5be1e5ebec7d5bd14f71427d1e84f3dd0314c0f7b2291e5b200ac8c7c3b925929181900390910190a350600192915050565b60045481565b600160a060020a038316600090815260076020908152604080832033845290915281205482111561090a57600080fd5b600160a060020a038416600090815260076020908152604080832033845290915290208054839003905561093f848484610da2565b5060015b9392505050565b60066020526000908152604090205481565b60025460ff1681565b61096d610ac4565b151561097857600080fd5b3360009081526006602052604090205481111561099457600080fd5b336000908152600660205260409020546109b4908263ffffffff610ead16565b336000908152600660205260409020556004546109d7908263ffffffff610ead16565b60045560408051828152905133917fcc16f5dbb4873280815c1ee09dbd06736cffcc184412cf7a71a0fdb75d397ca5919081900360200190a250565b600760209081526000928352604080842090915290825290205481565b600160a060020a031660009081526006602052604090205490565b610a53610ac4565b1515610a5e57600080fd5b60008054604051600160a060020a03909116907f8be0079c531659141344cd1fd0a4f28419497f9722a3daafe3b4186f6b6457e0908390a36000805473ffffffffffffffffffffffffffffffffffffffff19169055565b600054600160a060020a031690565b600054600160a060020a0316331490565b6003805460408051602060026001851615610100026000190190941693909304601f8101849004840282018401909252818152929183018282801561082a5780601f106107ff5761010080835404028352916020019161082a565b6000610b3d338484610da2565b50600192915050565b610b4e610ac4565b1515610b5957600080fd5b6005805473ffffffffffffffffffffffffffffffffffffffff1916600160a060020a0392909216919091179055565b610b90610ac4565b1515610b9b57600080fd5b8051825114610ba957600080fd5b60005b8251811015610c3557600660008483815181101515610bc757fe5b6020908102909101810151600160a060020a031682528101919091526040016000205415610bf457600080fd5b610c2c8382815181101515610c0557fe5b906020019060200201518383815181101515610c1d57fe5b90602001906020020151610b30565b50600101610bac565b505050565b600083610c478185610832565b15610d50576040517f8f4ffcb10000000000000000000000000000000000000000000000000000000081523360048201818152602483018790523060448401819052608060648501908152875160848601528751600160a060020a03871695638f4ffcb195948b94938b939192909160a490910190602085019080838360005b83811015610cdf578181015183820152602001610cc7565b50505050905090810190601f168015610d0c5780820380516001836020036101000a031916815260200191505b5095505050505050600060405180830381600087803b158015610d2e57600080fd5b505af1158015610d42573d6000803e3d6000fd5b505050506001915050610943565b509392505050565b600160a060020a03918216600090815260076020908152604080832093909416825291909152205490565b610d8b610ac4565b1515610d9657600080fd5b610d9f81610ec2565b50565b600160a060020a03821615801590610dc35750600160a060020a0382163014155b1515610dce57600080fd5b600160a060020a038316600090815260066020526040902054811115610df357600080fd5b600160a060020a038316600090815260066020526040902054610e1c908263ffffffff610ead16565b600160a060020a038085166000908152600660205260408082209390935590841681522054610e51908263ffffffff610f3f16565b600160a060020a0380841660008181526006602090815260409182902094909455805185815290519193928716927fddf252ad1be2c89b69c2b068fc378daa952ba7f163c4a11628f55a4df523b3ef92918290030190a3505050565b600082821115610ebc57600080fd5b50900390565b600160a060020a0381161515610ed757600080fd5b60008054604051600160a060020a03808516939216917f8be0079c531659141344cd1fd0a4f28419497f9722a3daafe3b4186f6b6457e091a36000805473ffffffffffffffffffffffffffffffffffffffff1916600160a060020a0392909216919091179055565b60008282018381101561094357600080fdfea165627a7a72305820d3c9466dcd0d0fd3542d28a41045cfc325f95cecdd1cf6f3f5ad33698d429b0a0029",
  "source": "pragma solidity ^0.5.0;\n\nimport \"../zeppelin/ownership/Ownable.sol\";\nimport \"../zeppelin/math/SafeMath.sol\";\n\ninterface Raindrop {\n    function authenticate(address _sender, uint _value, uint _challenge, uint _partnerId) external;\n}\n\ninterface tokenRecipient {\n    function receiveApproval(address _from, uint256 _value, address _token, bytes calldata _extraData) external;\n}\n\ncontract HydroToken is Ownable {\n    using SafeMath for uint256;\n\n    string public name = \"Hydro\";          // The token's name\n    uint8 public decimals = 18;            // Number of decimals of the smallest unit\n    string public symbol = \"HYDRO\";        // An identifier\n    uint public totalSupply;\n    address public raindropAddress = address(0);\n\n    mapping (address => uint256) public balances;\n    // `allowed` tracks any extra transfer rights as in all ERC20 tokens\n    mapping (address => mapping (address => uint256)) public allowed;\n\n    ////////////////\n    // Constructor\n    ////////////////\n\n    /// @notice Constructor to create a HydroToken\n    constructor() public {\n        totalSupply = 11111111111 * 10**18;\n        // Give the creator all initial tokens\n        balances[msg.sender] = totalSupply;\n    }\n\n\n    ///////////////////\n    // ERC20 Methods\n    ///////////////////\n\n    /// @notice Send `_amount` tokens to `_to` from `msg.sender`\n    /// @param _to The address of the recipient\n    /// @param _amount The amount of tokens to be transferred\n    /// @return Whether the transfer was successful or not\n    function transfer(address _to, uint256 _amount) public returns (bool success) {\n        doTransfer(msg.sender, _to, _amount);\n        return true;\n    }\n\n    /// @notice Send `_amount` tokens to `_to` from `_from` on the condition it\n    ///  is approved by `_from`\n    /// @param _from The address holding the tokens being transferred\n    /// @param _to The address of the recipient\n    /// @param _amount The amount of tokens to be transferred\n    /// @return True if the transfer was successful\n    function transferFrom(address _from, address _to, uint256 _amount) public returns (bool success) {\n        // The standard ERC 20 transferFrom functionality\n        require(allowed[_from][msg.sender] >= _amount);\n        allowed[_from][msg.sender] -= _amount;\n        doTransfer(_from, _to, _amount);\n        return true;\n    }\n\n    /// @dev This is the actual transfer function in the token contract, it can\n    ///  only be called by other functions in this contract.\n    /// @param _from The address holding the tokens being transferred\n    /// @param _to The address of the recipient\n    /// @param _amount The amount of tokens to be transferred\n    /// @return True if the transfer was successful\n    function doTransfer(address _from, address _to, uint _amount\n    ) internal {\n        // Do not allow transfer to 0x0 or the token contract itself\n        require((_to != address(0)) && (_to != address(this)));\n        require(_amount <= balances[_from]);\n        balances[_from] = balances[_from].sub(_amount);\n        balances[_to] = balances[_to].add(_amount);\n        emit Transfer(_from, _to, _amount);\n    }\n\n    /// @return The balance of `_owner`\n    function balanceOf(address _owner) public view returns (uint256 balance) {\n        return balances[_owner];\n    }\n\n    /// @notice `msg.sender` approves `_spender` to spend `_amount` tokens on\n    ///  its behalf. This is a modified version of the ERC20 approve function\n    ///  to be a little bit safer\n    /// @param _spender The address of the account able to transfer the tokens\n    /// @param _amount The amount of tokens to be approved for transfer\n    /// @return True if the approval was successful\n    function approve(address _spender, uint256 _amount) public returns (bool success) {\n        // To change the approve amount you first have to reduce the addresses`\n        //  allowance to zero by calling `approve(_spender,0)` if it is not\n        //  already 0 to mitigate the race condition described here:\n        //  https://github.com/ethereum/EIPs/issues/20#issuecomment-263524729\n        require((_amount == 0) || (allowed[msg.sender][_spender] == 0));\n\n        allowed[msg.sender][_spender] = _amount;\n        emit Approval(msg.sender, _spender, _amount);\n        return true;\n    }\n\n    function approveAndCall(address _spender, uint256 _value, bytes memory _extraData) public returns (bool success) {\n        tokenRecipient spender = tokenRecipient(_spender);\n        if (approve(_spender, _value)) {\n            spender.receiveApproval(msg.sender, _value, address(this), _extraData);\n            return true;\n        }\n    }\n\n    function burn(uint256 _value) public onlyOwner {\n        require(balances[msg.sender] >= _value);\n        balances[msg.sender] = balances[msg.sender].sub(_value);\n        totalSupply = totalSupply.sub(_value);\n        emit Burn(msg.sender, _value);\n    }\n\n    /// @dev This function makes it easy to read the `allowed[]` map\n    /// @param _owner The address of the account that owns the token\n    /// @param _spender The address of the account able to transfer the tokens\n    /// @return Amount of remaining tokens of _owner that _spender is allowed\n    ///  to spend\n    function allowance(address _owner, address _spender\n    ) public view returns (uint256 remaining) {\n        return allowed[_owner][_spender];\n    }\n\n    function setRaindropAddress(address _raindrop) public onlyOwner {\n        raindropAddress = _raindrop;\n    }\n\n    function authenticate(uint _value, uint _challenge, uint _partnerId) public {\n        Raindrop raindrop = Raindrop(raindropAddress);\n        raindrop.authenticate(msg.sender, _value, _challenge, _partnerId);\n        doTransfer(msg.sender, owner(), _value);\n    }\n\n    function setBalances(address[] memory _addressList, uint[] memory _amounts) public onlyOwner {\n        require(_addressList.length == _amounts.length);\n        for (uint i = 0; i < _addressList.length; i++) {\n            require(balances[_addressList[i]] == 0);\n            transfer(_addressList[i], _amounts[i]);\n        }\n    }\n\n    event Transfer(\n        address indexed _from,\n        address indexed _to,\n        uint256 _amount\n    );\n\n    event Approval(\n        address indexed _owner,\n        address indexed _spender,\n        uint256 _amount\n    );\n\n    event Burn(\n        address indexed _burner,\n        uint256 _amount\n    );\n\n}\n",
  "sourcePath": "/home/luiserebii/hydro_bounty_unofficial/contracts/_testing/HydroToken.sol",
  "compiler": {
    "name": "solc",
    "version": "0.5.0+commit.1d4f565a.Emscripten.clang"
  },
  "schemaVersion": "3.0.0-beta.0",
  "updatedAt": "2019-03-11T23:50:45.644Z"
}