{
  "contractName": "HydrogenKYC",
  "abi": [
    {
      "constant": false,
      "inputs": [],
      "name": "renounceOwnership",
      "outputs": [],
      "payable": false,
      "stateMutability": "nonpayable",
      "type": "function"
    },
    {
      "constant": true,
      "inputs": [],
      "name": "callOnAddition",
      "outputs": [
        {
          "name": "",
          "type": "bool"
        }
      ],
      "payable": false,
      "stateMutability": "view",
      "type": "function"
    },
    {
      "constant": true,
      "inputs": [],
      "name": "snowflakeDescription",
      "outputs": [
        {
          "name": "",
          "type": "string"
        }
      ],
      "payable": false,
      "stateMutability": "view",
      "type": "function"
    },
    {
      "constant": true,
      "inputs": [],
      "name": "snowflakeName",
      "outputs": [
        {
          "name": "",
          "type": "string"
        }
      ],
      "payable": false,
      "stateMutability": "view",
      "type": "function"
    },
    {
      "constant": true,
      "inputs": [],
      "name": "owner",
      "outputs": [
        {
          "name": "",
          "type": "address"
        }
      ],
      "payable": false,
      "stateMutability": "view",
      "type": "function"
    },
    {
      "constant": true,
      "inputs": [],
      "name": "callOnRemoval",
      "outputs": [
        {
          "name": "",
          "type": "bool"
        }
      ],
      "payable": false,
      "stateMutability": "view",
      "type": "function"
    },
    {
      "constant": true,
      "inputs": [],
      "name": "isOwner",
      "outputs": [
        {
          "name": "",
          "type": "bool"
        }
      ],
      "payable": false,
      "stateMutability": "view",
      "type": "function"
    },
    {
      "constant": false,
      "inputs": [
        {
          "name": "newOwner",
          "type": "address"
        }
      ],
      "name": "transferOwnership",
      "outputs": [],
      "payable": false,
      "stateMutability": "nonpayable",
      "type": "function"
    },
    {
      "constant": true,
      "inputs": [],
      "name": "snowflakeAddress",
      "outputs": [
        {
          "name": "",
          "type": "address"
        }
      ],
      "payable": false,
      "stateMutability": "view",
      "type": "function"
    },
    {
      "inputs": [
        {
          "name": "snowflakeAddress",
          "type": "address"
        }
      ],
      "payable": false,
      "stateMutability": "nonpayable",
      "type": "constructor"
    },
    {
      "anonymous": false,
      "inputs": [
        {
          "indexed": true,
          "name": "identityNode",
          "type": "bytes32"
        },
        {
          "indexed": false,
          "name": "identityNodeAddress",
          "type": "address"
        },
        {
          "indexed": false,
          "name": "identityNodePlaintext",
          "type": "string"
        },
        {
          "indexed": false,
          "name": "extraData",
          "type": "bytes"
        }
      ],
      "name": "HydrogenKYCNewIdentityNode",
      "type": "event"
    },
    {
      "anonymous": false,
      "inputs": [
        {
          "indexed": true,
          "name": "identityNode",
          "type": "bytes32"
        },
        {
          "indexed": false,
          "name": "extraData",
          "type": "bytes"
        }
      ],
      "name": "HydrogenKYCUpdateIdentityNode",
      "type": "event"
    },
    {
      "anonymous": false,
      "inputs": [
        {
          "indexed": false,
          "name": "ein",
          "type": "uint256"
        }
      ],
      "name": "HydrogenKYCSignUp",
      "type": "event"
    },
    {
      "anonymous": false,
      "inputs": [
        {
          "indexed": true,
          "name": "ein",
          "type": "uint256"
        },
        {
          "indexed": true,
          "name": "identityNode",
          "type": "bytes32"
        }
      ],
      "name": "HydrogenKYCIdentityNodeAdded",
      "type": "event"
    },
    {
      "anonymous": false,
      "inputs": [
        {
          "indexed": true,
          "name": "ein",
          "type": "uint256"
        },
        {
          "indexed": true,
          "name": "identityNode",
          "type": "bytes32"
        }
      ],
      "name": "HydrogenKYCIdentityNodeRevoked",
      "type": "event"
    },
    {
      "anonymous": false,
      "inputs": [
        {
          "indexed": false,
          "name": "ein",
          "type": "uint256"
        }
      ],
      "name": "HydrogenKYCRemoval",
      "type": "event"
    },
    {
      "anonymous": false,
      "inputs": [
        {
          "indexed": true,
          "name": "previousOwner",
          "type": "address"
        },
        {
          "indexed": true,
          "name": "newOwner",
          "type": "address"
        }
      ],
      "name": "OwnershipTransferred",
      "type": "event"
    },
    {
      "constant": false,
      "inputs": [
        {
          "name": "snowflakeAddress",
          "type": "address"
        }
      ],
      "name": "setSnowflakeAddress",
      "outputs": [],
      "payable": false,
      "stateMutability": "nonpayable",
      "type": "function"
    },
    {
      "constant": false,
      "inputs": [
        {
          "name": "identityNodePlaintext",
          "type": "string"
        },
        {
          "name": "extraData",
          "type": "bytes"
        }
      ],
      "name": "newIdentityNode",
      "outputs": [],
      "payable": false,
      "stateMutability": "nonpayable",
      "type": "function"
    },
    {
      "constant": false,
      "inputs": [
        {
          "name": "identityNodePlaintext",
          "type": "string"
        },
        {
          "name": "extraData",
          "type": "bytes"
        }
      ],
      "name": "updateIdentityNode",
      "outputs": [],
      "payable": false,
      "stateMutability": "nonpayable",
      "type": "function"
    },
    {
      "constant": false,
      "inputs": [
        {
          "name": "ein",
          "type": "uint256"
        },
        {
          "name": "",
          "type": "uint256"
        },
        {
          "name": "extraData",
          "type": "bytes"
        }
      ],
      "name": "onAddition",
      "outputs": [
        {
          "name": "",
          "type": "bool"
        }
      ],
      "payable": false,
      "stateMutability": "nonpayable",
      "type": "function"
    },
    {
      "constant": false,
      "inputs": [
        {
          "name": "identityNode",
          "type": "bytes32"
        }
      ],
      "name": "addIdentityNode",
      "outputs": [],
      "payable": false,
      "stateMutability": "nonpayable",
      "type": "function"
    },
    {
      "constant": false,
      "inputs": [
        {
          "name": "ein",
          "type": "uint256"
        },
        {
          "name": "identityNode",
          "type": "bytes32"
        }
      ],
      "name": "addIdentityNode",
      "outputs": [],
      "payable": false,
      "stateMutability": "nonpayable",
      "type": "function"
    },
    {
      "constant": false,
      "inputs": [
        {
          "name": "identityNode",
          "type": "bytes32"
        }
      ],
      "name": "revokeIdentityNode",
      "outputs": [],
      "payable": false,
      "stateMutability": "nonpayable",
      "type": "function"
    },
    {
      "constant": false,
      "inputs": [
        {
          "name": "ein",
          "type": "uint256"
        },
        {
          "name": "identityNode",
          "type": "bytes32"
        }
      ],
      "name": "revokeIdentityNode",
      "outputs": [],
      "payable": false,
      "stateMutability": "nonpayable",
      "type": "function"
    },
    {
      "constant": false,
      "inputs": [
        {
          "name": "ein",
          "type": "uint256"
        },
        {
          "name": "",
          "type": "bytes"
        }
      ],
      "name": "onRemoval",
      "outputs": [
        {
          "name": "",
          "type": "bool"
        }
      ],
      "payable": false,
      "stateMutability": "nonpayable",
      "type": "function"
    }
  ],
  "bytecode": "0x60806040523480156200001157600080fd5b5060405160208062001928833981018060405260208110156200003357600080fd5b5051604080518082018252600c81527f487964726f67656e204b5943000000000000000000000000000000000000000060208281019190915282518084018452601d81527f506572666f726d204b5943207468726f75676820487964726f67656e2e0000009181019190915260008054600160a060020a031916331780825593519293919285926001928392600160a060020a0392909216917f8be0079c531659141344cd1fd0a4f28419497f9722a3daafe3b4186f6b6457e0908290a3845162000106906001906020880190620002e3565b5083516200011c906002906020870190620002e3565b506200013183640100000000620001aa810204565b6003805491151575010000000000000000000000000000000000000000000260a860020a60ff0219931515740100000000000000000000000000000000000000000260a060020a60ff0219909316929092179290921617905550620001a39150829050640100000000620001aa810204565b5062000385565b620001bd64010000000062000290810204565b1515620001c957600080fd5b620001e28164010000000062001366620002a282021704565b600081905080600160a060020a031663a759ee6f6040518163ffffffff167c0100000000000000000000000000000000000000000000000000000000028152600401602060405180830381600087803b1580156200023f57600080fd5b505af115801562000254573d6000803e3d6000fd5b505050506040513d60208110156200026b57600080fd5b505160048054600160a060020a031916600160a060020a039092169190911790555050565b600054600160a060020a031633145b90565b620002b564010000000062000290810204565b1515620002c157600080fd5b60038054600160a060020a031916600160a060020a0392909216919091179055565b828054600181600116156101000203166002900490600052602060002090601f016020900481019282601f106200032657805160ff191683800117855562000356565b8280016001018555821562000356579182015b828111156200035657825182559160200191906001019062000339565b506200036492915062000368565b5090565b6200029f91905b808211156200036457600081556001016200036f565b61159380620003956000396000f3fe6080604052600436106100fb5763ffffffff7c01000000000000000000000000000000000000000000000000000000006000350416632324e329811461010057806345e72bc21461012c578063715018a614610266578063717902511461027b57806376acf1b6146102a457806388cdab941461032e5780638da5cb5b146103435780638f06492d146103745780638f32d59b1461038957806390bfaf401461039e5780639182621a1461045d578063a6822fe014610517578063c979b05a14610547578063dc31679c1461057a578063ea561748146105a4578063f2fde38b146105d4578063f9f451b814610607578063fb4d9c411461061c575b600080fd5b34801561010c57600080fd5b5061012a6004803603602081101561012357600080fd5b5035610756565b005b34801561013857600080fd5b5061012a6004803603604081101561014f57600080fd5b81019060208101813564010000000081111561016a57600080fd5b82018360208201111561017c57600080fd5b8035906020019184600183028401116401000000008311171561019e57600080fd5b91908080601f01602080910402602001604051908101604052809392919081815260200183838082843760009201919091525092959493602081019350359150506401000000008111156101f157600080fd5b82018360208201111561020357600080fd5b8035906020019184600183028401116401000000008311171561022557600080fd5b91908080601f0160208091040260200160405190810160405280939291908181526020018383808284376000920191909152509295506107f4945050505050565b34801561027257600080fd5b5061012a6109af565b34801561028757600080fd5b50610290610a19565b604080519115158252519081900360200190f35b3480156102b057600080fd5b506102b9610a3a565b6040805160208082528351818301528351919283929083019185019080838360005b838110156102f35781810151838201526020016102db565b50505050905090810190601f1680156103205780820380516001836020036101000a031916815260200191505b509250505060405180910390f35b34801561033a57600080fd5b506102b9610ac5565b34801561034f57600080fd5b50610358610b1f565b60408051600160a060020a039092168252519081900360200190f35b34801561038057600080fd5b50610290610b2e565b34801561039557600080fd5b50610290610b50565b3480156103aa57600080fd5b50610290600480360360608110156103c157600080fd5b8135916020810135918101906060810160408201356401000000008111156103e857600080fd5b8201836020820111156103fa57600080fd5b8035906020019184600183028401116401000000008311171561041c57600080fd5b91908080601f016020809104026020016040519081016040528093929190818152602001838380828437600092019190915250929550610b61945050505050565b34801561046957600080fd5b506102906004803603604081101561048057600080fd5b813591908101906040810160208201356401000000008111156104a257600080fd5b8201836020820111156104b457600080fd5b803590602001918460018302840111640100000000831117156104d657600080fd5b91908080601f016020809104026020016040519081016040528093929190818152602001838380828437600092019190915250929550610c4f945050505050565b34801561052357600080fd5b5061012a6004803603604081101561053a57600080fd5b5080359060200135610d16565b34801561055357600080fd5b5061012a6004803603602081101561056a57600080fd5b5035600160a060020a0316610e35565b34801561058657600080fd5b5061012a6004803603602081101561059d57600080fd5b5035610f09565b3480156105b057600080fd5b5061012a600480360360408110156105c757600080fd5b5080359060200135610fa4565b3480156105e057600080fd5b5061012a600480360360208110156105f757600080fd5b5035600160a060020a03166110bf565b34801561061357600080fd5b506103586110db565b34801561062857600080fd5b5061012a6004803603604081101561063f57600080fd5b81019060208101813564010000000081111561065a57600080fd5b82018360208201111561066c57600080fd5b8035906020019184600183028401116401000000008311171561068e57600080fd5b91908080601f01602080910402602001604051908101604052809392919081815260200183838082843760009201919091525092959493602081019350359150506401000000008111156106e157600080fd5b8201836020820111156106f357600080fd5b8035906020019184600183028401116401000000008311171561071557600080fd5b91908080601f0160208091040260200160405190810160405280939291908181526020018383808284376000920191909152509295506110ea945050505050565b60048054604080517f05c62c2f0000000000000000000000000000000000000000000000000000000081523393810193909352516107f192600160a060020a03909216916305c62c2f916024808301926020929190829003018186803b1580156107bf57600080fd5b505afa1580156107d3573d6000803e3d6000fd5b505050506040513d60208110156107e957600080fd5b505182611224565b50565b600033836040516020018083600160a060020a0316600160a060020a03166c0100000000000000000000000002815260140182805190602001908083835b602083106108515780518252601f199092019160209182019101610832565b6001836020036101000a03801982511681845116808217855250505050505090500192505050604051602081830303815290604052805190602001209050807f8fac23f4b75ad025cb8e4cdd8ee8a861606af00a7025e8f89d491967cc26c8e23385856040518084600160a060020a0316600160a060020a031681526020018060200180602001838103835285818151815260200191508051906020019080838360005b8381101561090d5781810151838201526020016108f5565b50505050905090810190601f16801561093a5780820380516001836020036101000a031916815260200191505b50838103825284518152845160209182019186019080838360005b8381101561096d578181015183820152602001610955565b50505050905090810190601f16801561099a5780820380516001836020036101000a031916815260200191505b509550505050505060405180910390a2505050565b6109b7610b50565b15156109c257600080fd5b60008054604051600160a060020a03909116907f8be0079c531659141344cd1fd0a4f28419497f9722a3daafe3b4186f6b6457e0908390a36000805473ffffffffffffffffffffffffffffffffffffffff19169055565b60035474010000000000000000000000000000000000000000900460ff1681565b6002805460408051602060018416156101000260001901909316849004601f81018490048402820184019092528181529291830182828015610abd5780601f10610a9257610100808354040283529160200191610abd565b820191906000526020600020905b815481529060010190602001808311610aa057829003601f168201915b505050505081565b60018054604080516020600284861615610100026000190190941693909304601f81018490048402820184019092528181529291830182828015610abd5780601f10610a9257610100808354040283529160200191610abd565b600054600160a060020a031690565b6003547501000000000000000000000000000000000000000000900460ff1681565b600054600160a060020a0316331490565b600354600090600160a060020a03163314610bec576040805160e560020a62461bcd02815260206004820152602160248201527f446964206e6f74206f726967696e6174652066726f6d20536e6f77666c616b6560448201527f2e00000000000000000000000000000000000000000000000000000000000000606482015290519081900360840190fd5b6040805185815290517f212541345a26e06faa443c5dc197a6a0e201382821833dec69fa0900b37fda6b9181900360200190a16000828060200190516020811015610c3657600080fd5b50519050610c448582610d16565b506001949350505050565b600354600090600160a060020a03163314610cda576040805160e560020a62461bcd02815260206004820152602160248201527f446964206e6f74206f726967696e6174652066726f6d20536e6f77666c616b6560448201527f2e00000000000000000000000000000000000000000000000000000000000000606482015290519081900360840190fd5b6040805184815290517f886e58a9b32e978a5a5d0ea164d618d65040a20efcda65dce63fc4128db87f159181900360200190a150600192915050565b60048054604080517f53a9698a00000000000000000000000000000000000000000000000000000000815292830185905233602484015251600160a060020a03909116916353a9698a916044808301926020929190829003018186803b158015610d7f57600080fd5b505afa158015610d93573d6000803e3d6000fd5b505050506040513d6020811015610da957600080fd5b50511515610e27576040805160e560020a62461bcd02815260206004820152602f60248201527f536e6f77666c616b65206973206e6f7420612050726f766964657220666f722060448201527f746865207061737365642045494e2e0000000000000000000000000000000000606482015290519081900360840190fd5b610e318282611224565b5050565b610e3d610b50565b1515610e4857600080fd5b610e5181611366565b600081905080600160a060020a031663a759ee6f6040518163ffffffff167c0100000000000000000000000000000000000000000000000000000000028152600401602060405180830381600087803b158015610ead57600080fd5b505af1158015610ec1573d6000803e3d6000fd5b505050506040513d6020811015610ed757600080fd5b50516004805473ffffffffffffffffffffffffffffffffffffffff1916600160a060020a039092169190911790555050565b60048054604080517f05c62c2f0000000000000000000000000000000000000000000000000000000081523393810193909352516107f192600160a060020a03909216916305c62c2f916024808301926020929190829003018186803b158015610f7257600080fd5b505afa158015610f86573d6000803e3d6000fd5b505050506040513d6020811015610f9c57600080fd5b5051826113a8565b60048054604080517f53a9698a00000000000000000000000000000000000000000000000000000000815292830185905233602484015251600160a060020a03909116916353a9698a916044808301926020929190829003018186803b15801561100d57600080fd5b505afa158015611021573d6000803e3d6000fd5b505050506040513d602081101561103757600080fd5b505115156110b5576040805160e560020a62461bcd02815260206004820152602f60248201527f536e6f77666c616b65206973206e6f7420612050726f766964657220666f722060448201527f746865207061737365642045494e2e0000000000000000000000000000000000606482015290519081900360840190fd5b610e3182826113a8565b6110c7610b50565b15156110d257600080fd5b6107f1816114ea565b600354600160a060020a031681565b600033836040516020018083600160a060020a0316600160a060020a03166c0100000000000000000000000002815260140182805190602001908083835b602083106111475780518252601f199092019160209182019101611128565b6001836020036101000a03801982511681845116808217855250505050505090500192505050604051602081830303815290604052805190602001209050807f19ba6871c2c861afd727b9b1bd273006ef58743d38a4eb17aeb94052a3496006836040518080602001828103825283818151815260200191508051906020019080838360005b838110156111e55781810151838201526020016111cd565b50505050905090810190601f1680156112125780820380516001836020036101000a031916815260200191505b509250505060405180910390a2505050565b60048054604080517fd4b1cdcc00000000000000000000000000000000000000000000000000000000815292830185905230602484015251600160a060020a039091169163d4b1cdcc916044808301926020929190829003018186803b15801561128d57600080fd5b505afa1580156112a1573d6000803e3d6000fd5b505050506040513d60208110156112b757600080fd5b50511515611335576040805160e560020a62461bcd02815260206004820152602260248201527f5468652045494e20686173206e6f74207365742074686973207265736f6c766560448201527f722e000000000000000000000000000000000000000000000000000000000000606482015290519081900360840190fd5b604051819083907fa776ccdbd0bf64abef3bb3a9fad4e73034d9bd67b0887b8df63e79e0a1e0894190600090a35050565b61136e610b50565b151561137957600080fd5b6003805473ffffffffffffffffffffffffffffffffffffffff1916600160a060020a0392909216919091179055565b60048054604080517fd4b1cdcc00000000000000000000000000000000000000000000000000000000815292830185905230602484015251600160a060020a039091169163d4b1cdcc916044808301926020929190829003018186803b15801561141157600080fd5b505afa158015611425573d6000803e3d6000fd5b505050506040513d602081101561143b57600080fd5b505115156114b9576040805160e560020a62461bcd02815260206004820152602260248201527f5468652045494e20686173206e6f74207365742074686973207265736f6c766560448201527f722e000000000000000000000000000000000000000000000000000000000000606482015290519081900360840190fd5b604051819083907f4fc9ffd8fd98153d94381025720ba2a255576a9feee0e2b208e2ae2c387a705390600090a35050565b600160a060020a03811615156114ff57600080fd5b60008054604051600160a060020a03808516939216917f8be0079c531659141344cd1fd0a4f28419497f9722a3daafe3b4186f6b6457e091a36000805473ffffffffffffffffffffffffffffffffffffffff1916600160a060020a039290921691909117905556fea165627a7a723058209dd9377953e6c9dff86b3fcd3a66bc5010fea62c384004b50ce1142252cd8e760029",
  "source": "pragma solidity ^0.5.0;\n\nimport \"../SnowflakeResolver.sol\";\nimport \"../interfaces/IdentityRegistryInterface.sol\";\nimport \"../interfaces/SnowflakeInterface.sol\";\n\ncontract HydrogenKYC is SnowflakeResolver {\n    IdentityRegistryInterface identityRegistry;\n\n    constructor (address snowflakeAddress)\n        SnowflakeResolver(\"Hydrogen KYC\", \"Perform KYC through Hydrogen.\", snowflakeAddress, true, true) public\n    {\n        setSnowflakeAddress(snowflakeAddress);\n    }\n\n    // set the snowflake address and identity registry contract wrappers\n    function setSnowflakeAddress(address snowflakeAddress) public onlyOwner() {\n        super.setSnowflakeAddress(snowflakeAddress);\n\n        SnowflakeInterface snowflake = SnowflakeInterface(snowflakeAddress);\n        identityRegistry = IdentityRegistryInterface(snowflake.identityRegistryAddress());\n    }\n\n    // allows identity nodes to declare themselves\n    function newIdentityNode (string memory identityNodePlaintext, bytes memory extraData) public {\n        bytes32 identityNode = keccak256(abi.encodePacked(msg.sender, identityNodePlaintext));\n        emit HydrogenKYCNewIdentityNode(identityNode, msg.sender, identityNodePlaintext, extraData);\n    }\n\n    // allows identity nodes to update their extraData\n    function updateIdentityNode (string memory identityNodePlaintext, bytes memory extraData) public {\n        bytes32 identityNode = keccak256(abi.encodePacked(msg.sender, identityNodePlaintext));\n        emit HydrogenKYCUpdateIdentityNode(identityNode, extraData);\n    }\n\n    // implement addition function\n    function onAddition(uint ein, uint, bytes memory extraData) public senderIsSnowflake() returns (bool) {\n        emit HydrogenKYCSignUp(ein);\n        (bytes32 identityNode) = abi.decode(extraData, (bytes32));\n        addIdentityNode(ein, identityNode);\n        return true;\n    }\n\n    // declares an identity node for the sender's EIN\n    function addIdentityNode(bytes32 identityNode) public {\n        _addIdentityNode(identityRegistry.getEIN(msg.sender), identityNode);\n    }\n\n    // allows providers to declare an identity node for the sender's EIN\n    function addIdentityNode(uint ein, bytes32 identityNode) public {\n        require(identityRegistry.isProviderFor(ein, msg.sender), \"Snowflake is not a Provider for the passed EIN.\");\n        _addIdentityNode(ein, identityNode);\n    }\n\n    function _addIdentityNode (uint ein, bytes32 identityNode) private {\n        require(identityRegistry.isResolverFor(ein, address(this)), \"The EIN has not set this resolver.\");\n        emit HydrogenKYCIdentityNodeAdded(ein, identityNode);\n    }\n\n    // revokes an identity node for the sender's EIN\n    function revokeIdentityNode(bytes32 identityNode) public {\n        _revokeIdentityNode(identityRegistry.getEIN(msg.sender), identityNode);\n    }\n\n    // allows providers to revoke an identity node for the sender's EIN\n    function revokeIdentityNode(uint ein, bytes32 identityNode) public {\n        require(identityRegistry.isProviderFor(ein, msg.sender), \"Snowflake is not a Provider for the passed EIN.\");\n        _revokeIdentityNode(ein, identityNode);\n    }\n\n    function _revokeIdentityNode (uint ein, bytes32 identityNode) private {\n        require(identityRegistry.isResolverFor(ein, address(this)), \"The EIN has not set this resolver.\");\n        emit HydrogenKYCIdentityNodeRevoked(ein, identityNode);\n    }\n\n    // implement removal function\n    function onRemoval(uint ein, bytes memory) public senderIsSnowflake() returns (bool) {\n        emit HydrogenKYCRemoval(ein);\n        return true;\n    }\n\n    event HydrogenKYCNewIdentityNode(\n        bytes32 indexed identityNode, address identityNodeAddress, string identityNodePlaintext, bytes extraData\n    );\n    event HydrogenKYCUpdateIdentityNode(bytes32 indexed identityNode, bytes extraData);\n\n    event HydrogenKYCSignUp(uint ein);\n    event HydrogenKYCIdentityNodeAdded(uint indexed ein, bytes32 indexed identityNode);\n    event HydrogenKYCIdentityNodeRevoked(uint indexed ein, bytes32 indexed identityNode);\n    event HydrogenKYCRemoval(uint ein);\n}\n",
  "sourcePath": "/home/luiserebii/hydro_bounty_unofficial/contracts/resolvers/HydrogenKYC.sol",
  "compiler": {
    "name": "solc",
    "version": "0.5.0+commit.1d4f565a.Emscripten.clang"
  },
  "schemaVersion": "3.0.0-beta.0",
  "updatedAt": "2019-03-11T23:50:45.678Z"
}