{
  "contractName": "HydroToken",
  "abi": [
    {
      "constant": true,
      "inputs": [],
      "name": "raindropAddress",
      "outputs": [
        {
          "name": "",
          "type": "address"
        }
      ],
      "payable": false,
      "stateMutability": "view",
      "type": "function"
    },
    {
      "constant": true,
      "inputs": [],
      "name": "name",
      "outputs": [
        {
          "name": "",
          "type": "string"
        }
      ],
      "payable": false,
      "stateMutability": "view",
      "type": "function"
    },
    {
      "constant": true,
      "inputs": [],
      "name": "totalSupply",
      "outputs": [
        {
          "name": "",
          "type": "uint256"
        }
      ],
      "payable": false,
      "stateMutability": "view",
      "type": "function"
    },
    {
      "constant": true,
      "inputs": [
        {
          "name": "",
          "type": "address"
        }
      ],
      "name": "balances",
      "outputs": [
        {
          "name": "",
          "type": "uint256"
        }
      ],
      "payable": false,
      "stateMutability": "view",
      "type": "function"
    },
    {
      "constant": true,
      "inputs": [],
      "name": "decimals",
      "outputs": [
        {
          "name": "",
          "type": "uint8"
        }
      ],
      "payable": false,
      "stateMutability": "view",
      "type": "function"
    },
    {
      "constant": true,
      "inputs": [
        {
          "name": "",
          "type": "address"
        },
        {
          "name": "",
          "type": "address"
        }
      ],
      "name": "allowed",
      "outputs": [
        {
          "name": "",
          "type": "uint256"
        }
      ],
      "payable": false,
      "stateMutability": "view",
      "type": "function"
    },
    {
      "constant": false,
      "inputs": [],
      "name": "renounceOwnership",
      "outputs": [],
      "payable": false,
      "stateMutability": "nonpayable",
      "type": "function"
    },
    {
      "constant": true,
      "inputs": [],
      "name": "owner",
      "outputs": [
        {
          "name": "",
          "type": "address"
        }
      ],
      "payable": false,
      "stateMutability": "view",
      "type": "function"
    },
    {
      "constant": true,
      "inputs": [],
      "name": "isOwner",
      "outputs": [
        {
          "name": "",
          "type": "bool"
        }
      ],
      "payable": false,
      "stateMutability": "view",
      "type": "function"
    },
    {
      "constant": true,
      "inputs": [],
      "name": "symbol",
      "outputs": [
        {
          "name": "",
          "type": "string"
        }
      ],
      "payable": false,
      "stateMutability": "view",
      "type": "function"
    },
    {
      "constant": false,
      "inputs": [
        {
          "name": "newOwner",
          "type": "address"
        }
      ],
      "name": "transferOwnership",
      "outputs": [],
      "payable": false,
      "stateMutability": "nonpayable",
      "type": "function"
    },
    {
      "inputs": [],
      "payable": false,
      "stateMutability": "nonpayable",
      "type": "constructor"
    },
    {
      "anonymous": false,
      "inputs": [
        {
          "indexed": true,
          "name": "_from",
          "type": "address"
        },
        {
          "indexed": true,
          "name": "_to",
          "type": "address"
        },
        {
          "indexed": false,
          "name": "_amount",
          "type": "uint256"
        }
      ],
      "name": "Transfer",
      "type": "event"
    },
    {
      "anonymous": false,
      "inputs": [
        {
          "indexed": true,
          "name": "_owner",
          "type": "address"
        },
        {
          "indexed": true,
          "name": "_spender",
          "type": "address"
        },
        {
          "indexed": false,
          "name": "_amount",
          "type": "uint256"
        }
      ],
      "name": "Approval",
      "type": "event"
    },
    {
      "anonymous": false,
      "inputs": [
        {
          "indexed": true,
          "name": "_burner",
          "type": "address"
        },
        {
          "indexed": false,
          "name": "_amount",
          "type": "uint256"
        }
      ],
      "name": "Burn",
      "type": "event"
    },
    {
      "anonymous": false,
      "inputs": [
        {
          "indexed": true,
          "name": "previousOwner",
          "type": "address"
        },
        {
          "indexed": true,
          "name": "newOwner",
          "type": "address"
        }
      ],
      "name": "OwnershipTransferred",
      "type": "event"
    },
    {
      "constant": false,
      "inputs": [
        {
          "name": "_to",
          "type": "address"
        },
        {
          "name": "_amount",
          "type": "uint256"
        }
      ],
      "name": "transfer",
      "outputs": [
        {
          "name": "success",
          "type": "bool"
        }
      ],
      "payable": false,
      "stateMutability": "nonpayable",
      "type": "function"
    },
    {
      "constant": false,
      "inputs": [
        {
          "name": "_from",
          "type": "address"
        },
        {
          "name": "_to",
          "type": "address"
        },
        {
          "name": "_amount",
          "type": "uint256"
        }
      ],
      "name": "transferFrom",
      "outputs": [
        {
          "name": "success",
          "type": "bool"
        }
      ],
      "payable": false,
      "stateMutability": "nonpayable",
      "type": "function"
    },
    {
      "constant": true,
      "inputs": [
        {
          "name": "_owner",
          "type": "address"
        }
      ],
      "name": "balanceOf",
      "outputs": [
        {
          "name": "balance",
          "type": "uint256"
        }
      ],
      "payable": false,
      "stateMutability": "view",
      "type": "function"
    },
    {
      "constant": false,
      "inputs": [
        {
          "name": "_spender",
          "type": "address"
        },
        {
          "name": "_amount",
          "type": "uint256"
        }
      ],
      "name": "approve",
      "outputs": [
        {
          "name": "success",
          "type": "bool"
        }
      ],
      "payable": false,
      "stateMutability": "nonpayable",
      "type": "function"
    },
    {
      "constant": false,
      "inputs": [
        {
          "name": "_spender",
          "type": "address"
        },
        {
          "name": "_value",
          "type": "uint256"
        },
        {
          "name": "_extraData",
          "type": "bytes"
        }
      ],
      "name": "approveAndCall",
      "outputs": [
        {
          "name": "success",
          "type": "bool"
        }
      ],
      "payable": false,
      "stateMutability": "nonpayable",
      "type": "function"
    },
    {
      "constant": false,
      "inputs": [
        {
          "name": "_value",
          "type": "uint256"
        }
      ],
      "name": "burn",
      "outputs": [],
      "payable": false,
      "stateMutability": "nonpayable",
      "type": "function"
    },
    {
      "constant": true,
      "inputs": [
        {
          "name": "_owner",
          "type": "address"
        },
        {
          "name": "_spender",
          "type": "address"
        }
      ],
      "name": "allowance",
      "outputs": [
        {
          "name": "remaining",
          "type": "uint256"
        }
      ],
      "payable": false,
      "stateMutability": "view",
      "type": "function"
    },
    {
      "constant": false,
      "inputs": [
        {
          "name": "_raindrop",
          "type": "address"
        }
      ],
      "name": "setRaindropAddress",
      "outputs": [],
      "payable": false,
      "stateMutability": "nonpayable",
      "type": "function"
    },
    {
      "constant": false,
      "inputs": [
        {
          "name": "_value",
          "type": "uint256"
        },
        {
          "name": "_challenge",
          "type": "uint256"
        },
        {
          "name": "_partnerId",
          "type": "uint256"
        }
      ],
      "name": "authenticate",
      "outputs": [],
      "payable": false,
      "stateMutability": "nonpayable",
      "type": "function"
    },
    {
      "constant": false,
      "inputs": [
        {
          "name": "_addressList",
          "type": "address[]"
        },
        {
          "name": "_amounts",
          "type": "uint256[]"
        }
      ],
      "name": "setBalances",
      "outputs": [],
      "payable": false,
      "stateMutability": "nonpayable",
      "type": "function"
    }
  ],
  "bytecode": "0x60c0604052600560808190527f487964726f00000000000000000000000000000000000000000000000000000060a090815261003e916001919061011e565b506002805460ff191660121790556040805180820190915260058082527f485944524f00000000000000000000000000000000000000000000000000000060209092019182526100909160039161011e565b5060058054600160a060020a03191690553480156100ad57600080fd5b5060008054600160a060020a0319163317808255604051600160a060020a039190911691907f8be0079c531659141344cd1fd0a4f28419497f9722a3daafe3b4186f6b6457e0908290a36b23e6e54c4381ee57e2bc00006004819055336000908152600660205260409020556101b9565b828054600181600116156101000203166002900490600052602060002090601f016020900481019282601f1061015f57805160ff191683800117855561018c565b8280016001018555821561018c579182015b8281111561018c578251825591602001919060010190610171565b5061019892915061019c565b5090565b6101b691905b8082111561019857600081556001016101a2565b90565b610e9280620001c96000396000f3fe608060405234801561001057600080fd5b5060043610610154576000357c01000000000000000000000000000000000000000000000000000000009004806370a08231116100d5578063a9059cbb11610099578063a9059cbb1461038a578063b302ea1e146103b6578063b7e39b4f146103dc578063cae9ca5114610503578063dd62ed3e146105be578063f2fde38b146105ec57610154565b806370a0823114610344578063715018a61461036a5780638da5cb5b146103725780638f32d59b1461037a57806395d89b411461038257610154565b806323b872dd1161011c57806323b872dd1461027f57806327e235e3146102b5578063313ce567146102db57806342966c68146102f95780635c6581651461031657610154565b80630396063114610159578063053011b71461017d57806306fdde03146101a8578063095ea7b31461022557806318160ddd14610265575b600080fd5b610161610612565b60408051600160a060020a039092168252519081900360200190f35b6101a66004803603606081101561019357600080fd5b5080359060208101359060400135610621565b005b6101b06106cc565b6040805160208082528351818301528351919283929083019185019080838360005b838110156101ea5781810151838201526020016101d2565b50505050905090810190601f1680156102175780820380516001836020036101000a031916815260200191505b509250505060405180910390f35b6102516004803603604081101561023b57600080fd5b50600160a060020a038135169060200135610759565b604080519115158252519081900360200190f35b61026d6107f9565b60408051918252519081900360200190f35b6102516004803603606081101561029557600080fd5b50600160a060020a038135811691602081013590911690604001356107ff565b61026d600480360360208110156102cb57600080fd5b5035600160a060020a031661086f565b6102e3610881565b6040805160ff9092168252519081900360200190f35b6101a66004803603602081101561030f57600080fd5b503561088a565b61026d6004803603604081101561032c57600080fd5b50600160a060020a0381358116916020013516610936565b61026d6004803603602081101561035a57600080fd5b5035600160a060020a0316610953565b6101a661096e565b6101616109d6565b6102516109e5565b6101b06109f6565b610251600480360360408110156103a057600080fd5b50600160a060020a038135169060200135610a51565b6101a6600480360360208110156103cc57600080fd5b5035600160a060020a0316610a67565b6101a6600480360360408110156103f257600080fd5b81019060208101813564010000000081111561040d57600080fd5b82018360208201111561041f57600080fd5b8035906020019184602083028401116401000000008311171561044157600080fd5b919080806020026020016040519081016040528093929190818152602001838360200280828437600092019190915250929594936020810193503591505064010000000081111561049157600080fd5b8201836020820111156104a357600080fd5b803590602001918460208302840111640100000000831117156104c557600080fd5b919080806020026020016040519081016040528093929190818152602001838360200280828437600092019190915250929550610aa7945050505050565b6102516004803603606081101561051957600080fd5b600160a060020a038235169160208101359181019060608101604082013564010000000081111561054957600080fd5b82018360208201111561055b57600080fd5b8035906020019184600183028401116401000000008311171561057d57600080fd5b91908080601f016020809104026020016040519081016040528093929190818152602001838380828437600092019190915250929550610b55945050505050565b61026d600480360360408110156105d457600080fd5b50600160a060020a0381358116916020013516610c73565b6101a66004803603602081101561060257600080fd5b5035600160a060020a0316610c9e565b600554600160a060020a031681565b600554604080517fc68ae6170000000000000000000000000000000000000000000000000000000081523360048201526024810186905260448101859052606481018490529051600160a060020a0390921691829163c68ae61791608480830192600092919082900301818387803b15801561069c57600080fd5b505af11580156106b0573d6000803e3d6000fd5b505050506106c6336106c06109d6565b86610cbb565b50505050565b60018054604080516020600284861615610100026000190190941693909304601f810184900484028201840190925281815292918301828280156107515780601f1061072657610100808354040283529160200191610751565b820191906000526020600020905b81548152906001019060200180831161073457829003601f168201915b505050505081565b60008115806107895750336000908152600760209081526040808320600160a060020a0387168452909152902054155b61079257600080fd5b336000818152600760209081526040808320600160a060020a03881680855290835292819020869055805186815290519293927f8c5be1e5ebec7d5bd14f71427d1e84f3dd0314c0f7b2291e5b200ac8c7c3b925929181900390910190a350600192915050565b60045481565b600160a060020a038316600090815260076020908152604080832033845290915281205482111561082f57600080fd5b600160a060020a0384166000908152600760209081526040808320338452909152902080548390039055610864848484610cbb565b5060015b9392505050565b60066020526000908152604090205481565b60025460ff1681565b6108926109e5565b61089b57600080fd5b336000908152600660205260409020548111156108b757600080fd5b336000908152600660205260409020546108d7908263ffffffff610dc416565b336000908152600660205260409020556004546108fa908263ffffffff610dc416565b60045560408051828152905133917fcc16f5dbb4873280815c1ee09dbd06736cffcc184412cf7a71a0fdb75d397ca5919081900360200190a250565b600760209081526000928352604080842090915290825290205481565b600160a060020a031660009081526006602052604090205490565b6109766109e5565b61097f57600080fd5b60008054604051600160a060020a03909116907f8be0079c531659141344cd1fd0a4f28419497f9722a3daafe3b4186f6b6457e0908390a36000805473ffffffffffffffffffffffffffffffffffffffff19169055565b600054600160a060020a031690565b600054600160a060020a0316331490565b6003805460408051602060026001851615610100026000190190941693909304601f810184900484028201840190925281815292918301828280156107515780601f1061072657610100808354040283529160200191610751565b6000610a5e338484610cbb565b50600192915050565b610a6f6109e5565b610a7857600080fd5b6005805473ffffffffffffffffffffffffffffffffffffffff1916600160a060020a0392909216919091179055565b610aaf6109e5565b610ab857600080fd5b8051825114610ac657600080fd5b60005b8251811015610b505760066000848381518110610ae257fe5b6020026020010151600160a060020a0316600160a060020a0316815260200190815260200160002054600014610b1757600080fd5b610b47838281518110610b2657fe5b6020026020010151838381518110610b3a57fe5b6020026020010151610a51565b50600101610ac9565b505050565b600083610b628185610759565b15610c6b576040517f8f4ffcb10000000000000000000000000000000000000000000000000000000081523360048201818152602483018790523060448401819052608060648501908152875160848601528751600160a060020a03871695638f4ffcb195948b94938b939192909160a490910190602085019080838360005b83811015610bfa578181015183820152602001610be2565b50505050905090810190601f168015610c275780820380516001836020036101000a031916815260200191505b5095505050505050600060405180830381600087803b158015610c4957600080fd5b505af1158015610c5d573d6000803e3d6000fd5b505050506001915050610868565b509392505050565b600160a060020a03918216600090815260076020908152604080832093909416825291909152205490565b610ca66109e5565b610caf57600080fd5b610cb881610dd9565b50565b600160a060020a03821615801590610cdc5750600160a060020a0382163014155b610ce557600080fd5b600160a060020a038316600090815260066020526040902054811115610d0a57600080fd5b600160a060020a038316600090815260066020526040902054610d33908263ffffffff610dc416565b600160a060020a038085166000908152600660205260408082209390935590841681522054610d68908263ffffffff610e5416565b600160a060020a0380841660008181526006602090815260409182902094909455805185815290519193928716927fddf252ad1be2c89b69c2b068fc378daa952ba7f163c4a11628f55a4df523b3ef92918290030190a3505050565b600082821115610dd357600080fd5b50900390565b600160a060020a038116610dec57600080fd5b60008054604051600160a060020a03808516939216917f8be0079c531659141344cd1fd0a4f28419497f9722a3daafe3b4186f6b6457e091a36000805473ffffffffffffffffffffffffffffffffffffffff1916600160a060020a0392909216919091179055565b60008282018381101561086857600080fdfea165627a7a72305820b929ebe696886fde3d28819deb044939f46747a56b005616a6fd2a0a34e2752e0029",
  "source": "pragma solidity ^0.5.0;\n\nimport \"../zeppelin/ownership/Ownable.sol\";\nimport \"../zeppelin/math/SafeMath.sol\";\n\ninterface Raindrop {\n    function authenticate(address _sender, uint _value, uint _challenge, uint _partnerId) external;\n}\n\ninterface tokenRecipient {\n    function receiveApproval(address _from, uint256 _value, address _token, bytes calldata _extraData) external;\n}\n\ncontract HydroToken is Ownable {\n    using SafeMath for uint256;\n\n    string public name = \"Hydro\";          // The token's name\n    uint8 public decimals = 18;            // Number of decimals of the smallest unit\n    string public symbol = \"HYDRO\";        // An identifier\n    uint public totalSupply;\n    address public raindropAddress = address(0);\n\n    mapping (address => uint256) public balances;\n    // `allowed` tracks any extra transfer rights as in all ERC20 tokens\n    mapping (address => mapping (address => uint256)) public allowed;\n\n    ////////////////\n    // Constructor\n    ////////////////\n\n    /// @notice Constructor to create a HydroToken\n    constructor() public {\n        totalSupply = 11111111111 * 10**18;\n        // Give the creator all initial tokens\n        balances[msg.sender] = totalSupply;\n    }\n\n\n    ///////////////////\n    // ERC20 Methods\n    ///////////////////\n\n    /// @notice Send `_amount` tokens to `_to` from `msg.sender`\n    /// @param _to The address of the recipient\n    /// @param _amount The amount of tokens to be transferred\n    /// @return Whether the transfer was successful or not\n    function transfer(address _to, uint256 _amount) public returns (bool success) {\n        doTransfer(msg.sender, _to, _amount);\n        return true;\n    }\n\n    /// @notice Send `_amount` tokens to `_to` from `_from` on the condition it\n    ///  is approved by `_from`\n    /// @param _from The address holding the tokens being transferred\n    /// @param _to The address of the recipient\n    /// @param _amount The amount of tokens to be transferred\n    /// @return True if the transfer was successful\n    function transferFrom(address _from, address _to, uint256 _amount) public returns (bool success) {\n        // The standard ERC 20 transferFrom functionality\n        require(allowed[_from][msg.sender] >= _amount);\n        allowed[_from][msg.sender] -= _amount;\n        doTransfer(_from, _to, _amount);\n        return true;\n    }\n\n    /// @dev This is the actual transfer function in the token contract, it can\n    ///  only be called by other functions in this contract.\n    /// @param _from The address holding the tokens being transferred\n    /// @param _to The address of the recipient\n    /// @param _amount The amount of tokens to be transferred\n    /// @return True if the transfer was successful\n    function doTransfer(address _from, address _to, uint _amount\n    ) internal {\n        // Do not allow transfer to 0x0 or the token contract itself\n        require((_to != address(0)) && (_to != address(this)));\n        require(_amount <= balances[_from]);\n        balances[_from] = balances[_from].sub(_amount);\n        balances[_to] = balances[_to].add(_amount);\n        emit Transfer(_from, _to, _amount);\n    }\n\n    /// @return The balance of `_owner`\n    function balanceOf(address _owner) public view returns (uint256 balance) {\n        return balances[_owner];\n    }\n\n    /// @notice `msg.sender` approves `_spender` to spend `_amount` tokens on\n    ///  its behalf. This is a modified version of the ERC20 approve function\n    ///  to be a little bit safer\n    /// @param _spender The address of the account able to transfer the tokens\n    /// @param _amount The amount of tokens to be approved for transfer\n    /// @return True if the approval was successful\n    function approve(address _spender, uint256 _amount) public returns (bool success) {\n        // To change the approve amount you first have to reduce the addresses`\n        //  allowance to zero by calling `approve(_spender,0)` if it is not\n        //  already 0 to mitigate the race condition described here:\n        //  https://github.com/ethereum/EIPs/issues/20#issuecomment-263524729\n        require((_amount == 0) || (allowed[msg.sender][_spender] == 0));\n\n        allowed[msg.sender][_spender] = _amount;\n        emit Approval(msg.sender, _spender, _amount);\n        return true;\n    }\n\n    function approveAndCall(address _spender, uint256 _value, bytes memory _extraData) public returns (bool success) {\n        tokenRecipient spender = tokenRecipient(_spender);\n        if (approve(_spender, _value)) {\n            spender.receiveApproval(msg.sender, _value, address(this), _extraData);\n            return true;\n        }\n    }\n\n    function burn(uint256 _value) public onlyOwner {\n        require(balances[msg.sender] >= _value);\n        balances[msg.sender] = balances[msg.sender].sub(_value);\n        totalSupply = totalSupply.sub(_value);\n        emit Burn(msg.sender, _value);\n    }\n\n    /// @dev This function makes it easy to read the `allowed[]` map\n    /// @param _owner The address of the account that owns the token\n    /// @param _spender The address of the account able to transfer the tokens\n    /// @return Amount of remaining tokens of _owner that _spender is allowed\n    ///  to spend\n    function allowance(address _owner, address _spender\n    ) public view returns (uint256 remaining) {\n        return allowed[_owner][_spender];\n    }\n\n    function setRaindropAddress(address _raindrop) public onlyOwner {\n        raindropAddress = _raindrop;\n    }\n\n    function authenticate(uint _value, uint _challenge, uint _partnerId) public {\n        Raindrop raindrop = Raindrop(raindropAddress);\n        raindrop.authenticate(msg.sender, _value, _challenge, _partnerId);\n        doTransfer(msg.sender, owner(), _value);\n    }\n\n    function setBalances(address[] memory _addressList, uint[] memory _amounts) public onlyOwner {\n        require(_addressList.length == _amounts.length);\n        for (uint i = 0; i < _addressList.length; i++) {\n            require(balances[_addressList[i]] == 0);\n            transfer(_addressList[i], _amounts[i]);\n        }\n    }\n\n    event Transfer(\n        address indexed _from,\n        address indexed _to,\n        uint256 _amount\n    );\n\n    event Approval(\n        address indexed _owner,\n        address indexed _spender,\n        uint256 _amount\n    );\n\n    event Burn(\n        address indexed _burner,\n        uint256 _amount\n    );\n\n}\n",
  "sourcePath": "/home/luiserebii/github/HydroSnowflake-Marketplace-Coupons/contracts/_testing/HydroToken.sol",
  "compiler": {
    "name": "solc",
    "version": "0.5.7+commit.6da8b019.Emscripten.clang"
  },
  "schemaVersion": "3.0.6",
  "updatedAt": "2019-04-16T02:29:42.123Z",
  "devdoc": {
    "methods": {
      "allowance(address,address)": {
        "details": "This function makes it easy to read the `allowed[]` map",
        "params": {
          "_owner": "The address of the account that owns the token",
          "_spender": "The address of the account able to transfer the tokens"
        },
        "return": "Amount of remaining tokens of _owner that _spender is allowed  to spend"
      },
      "approve(address,uint256)": {
        "params": {
          "_amount": "The amount of tokens to be approved for transfer",
          "_spender": "The address of the account able to transfer the tokens"
        },
        "return": "True if the approval was successful"
      },
      "balanceOf(address)": {
        "return": "The balance of `_owner`"
      },
      "isOwner()": {
        "return": "true if `msg.sender` is the owner of the contract."
      },
      "owner()": {
        "return": "the address of the owner."
      },
      "renounceOwnership()": {
        "details": "Allows the current owner to relinquish control of the contract."
      },
      "transfer(address,uint256)": {
        "params": {
          "_amount": "The amount of tokens to be transferred",
          "_to": "The address of the recipient"
        },
        "return": "Whether the transfer was successful or not"
      },
      "transferFrom(address,address,uint256)": {
        "params": {
          "_amount": "The amount of tokens to be transferred",
          "_from": "The address holding the tokens being transferred",
          "_to": "The address of the recipient"
        },
        "return": "True if the transfer was successful"
      },
      "transferOwnership(address)": {
        "details": "Allows the current owner to transfer control of the contract to a newOwner.",
        "params": {
          "newOwner": "The address to transfer ownership to."
        }
      }
    }
  },
  "userdoc": {
    "methods": {
      "approve(address,uint256)": {
        "notice": "`msg.sender` approves `_spender` to spend `_amount` tokens on  its behalf. This is a modified version of the ERC20 approve function  to be a little bit safer"
      },
      "constructor": "/////////////Constructor to create a HydroToken",
      "renounceOwnership()": {
        "notice": "Renouncing to ownership will leave the contract without an owner. It will not be possible to call the functions with the `onlyOwner` modifier anymore."
      },
      "transfer(address,uint256)": {
        "notice": "////////////////Send `_amount` tokens to `_to` from `msg.sender`"
      },
      "transferFrom(address,address,uint256)": {
        "notice": "Send `_amount` tokens to `_to` from `_from` on the condition it  is approved by `_from`"
      }
    }
  }
}