{
  "contractName": "IdentityRegistry",
  "abi": [
    {
      "constant": true,
      "inputs": [],
      "name": "recoveryTimeout",
      "outputs": [
        {
          "name": "",
          "type": "uint256"
        }
      ],
      "payable": false,
      "stateMutability": "view",
      "type": "function",
      "signature": "0x14d8b821"
    },
    {
      "constant": true,
      "inputs": [],
      "name": "signatureTimeout",
      "outputs": [
        {
          "name": "",
          "type": "uint256"
        }
      ],
      "payable": false,
      "stateMutability": "view",
      "type": "function",
      "signature": "0x5437b67c"
    },
    {
      "constant": true,
      "inputs": [
        {
          "name": "_address",
          "type": "address"
        },
        {
          "name": "messageHash",
          "type": "bytes32"
        },
        {
          "name": "v",
          "type": "uint8"
        },
        {
          "name": "r",
          "type": "bytes32"
        },
        {
          "name": "s",
          "type": "bytes32"
        }
      ],
      "name": "isSigned",
      "outputs": [
        {
          "name": "",
          "type": "bool"
        }
      ],
      "payable": false,
      "stateMutability": "pure",
      "type": "function",
      "signature": "0x8677ebe8"
    },
    {
      "constant": true,
      "inputs": [],
      "name": "nextEIN",
      "outputs": [
        {
          "name": "",
          "type": "uint256"
        }
      ],
      "payable": false,
      "stateMutability": "view",
      "type": "function",
      "signature": "0xa1707e7b"
    },
    {
      "constant": true,
      "inputs": [],
      "name": "maxAssociatedAddresses",
      "outputs": [
        {
          "name": "",
          "type": "uint256"
        }
      ],
      "payable": false,
      "stateMutability": "view",
      "type": "function",
      "signature": "0xab9a8538"
    },
    {
      "anonymous": false,
      "inputs": [
        {
          "indexed": true,
          "name": "initiator",
          "type": "address"
        },
        {
          "indexed": true,
          "name": "ein",
          "type": "uint256"
        },
        {
          "indexed": false,
          "name": "recoveryAddress",
          "type": "address"
        },
        {
          "indexed": false,
          "name": "associatedAddress",
          "type": "address"
        },
        {
          "indexed": false,
          "name": "providers",
          "type": "address[]"
        },
        {
          "indexed": false,
          "name": "resolvers",
          "type": "address[]"
        },
        {
          "indexed": false,
          "name": "delegated",
          "type": "bool"
        }
      ],
      "name": "IdentityCreated",
      "type": "event",
      "signature": "0xe541733a4670852051762d3cdb7d9123bea21d01e252aa39ca403c8d0f5ab66c"
    },
    {
      "anonymous": false,
      "inputs": [
        {
          "indexed": true,
          "name": "initiator",
          "type": "address"
        },
        {
          "indexed": true,
          "name": "ein",
          "type": "uint256"
        },
        {
          "indexed": false,
          "name": "approvingAddress",
          "type": "address"
        },
        {
          "indexed": false,
          "name": "addedAddress",
          "type": "address"
        },
        {
          "indexed": false,
          "name": "delegated",
          "type": "bool"
        }
      ],
      "name": "AssociatedAddressAdded",
      "type": "event",
      "signature": "0x1e0c87f4d9edce88868577315152d327d02ff25d2cb9384cd6ee609a9f56b64e"
    },
    {
      "anonymous": false,
      "inputs": [
        {
          "indexed": true,
          "name": "initiator",
          "type": "address"
        },
        {
          "indexed": true,
          "name": "ein",
          "type": "uint256"
        },
        {
          "indexed": false,
          "name": "removedAddress",
          "type": "address"
        },
        {
          "indexed": false,
          "name": "delegated",
          "type": "bool"
        }
      ],
      "name": "AssociatedAddressRemoved",
      "type": "event",
      "signature": "0x04095b6a64a9a32bafa887e731a82f91cdec3bf819389deea6aa34a488034f7d"
    },
    {
      "anonymous": false,
      "inputs": [
        {
          "indexed": true,
          "name": "initiator",
          "type": "address"
        },
        {
          "indexed": true,
          "name": "ein",
          "type": "uint256"
        },
        {
          "indexed": false,
          "name": "provider",
          "type": "address"
        },
        {
          "indexed": false,
          "name": "delegated",
          "type": "bool"
        }
      ],
      "name": "ProviderAdded",
      "type": "event",
      "signature": "0xd2af86288d6ec28d93c5459bdc5a21da89b340c28ad430327e40139c1178986f"
    },
    {
      "anonymous": false,
      "inputs": [
        {
          "indexed": true,
          "name": "initiator",
          "type": "address"
        },
        {
          "indexed": true,
          "name": "ein",
          "type": "uint256"
        },
        {
          "indexed": false,
          "name": "provider",
          "type": "address"
        },
        {
          "indexed": false,
          "name": "delegated",
          "type": "bool"
        }
      ],
      "name": "ProviderRemoved",
      "type": "event",
      "signature": "0xe41b11c1b8e658dea501b4a432bd3f7b3e6db83ef57ac16c52e5f288edeffec4"
    },
    {
      "anonymous": false,
      "inputs": [
        {
          "indexed": true,
          "name": "initiator",
          "type": "address"
        },
        {
          "indexed": true,
          "name": "ein",
          "type": "uint256"
        },
        {
          "indexed": false,
          "name": "resolvers",
          "type": "address"
        },
        {
          "indexed": false,
          "name": "delegated",
          "type": "bool"
        }
      ],
      "name": "ResolverAdded",
      "type": "event",
      "signature": "0x8d2c0379f93ea94639b25aaf145689b0db73ba107f5b9972bbd6238d7b0440ac"
    },
    {
      "anonymous": false,
      "inputs": [
        {
          "indexed": true,
          "name": "initiator",
          "type": "address"
        },
        {
          "indexed": true,
          "name": "ein",
          "type": "uint256"
        },
        {
          "indexed": false,
          "name": "resolvers",
          "type": "address"
        },
        {
          "indexed": false,
          "name": "delegated",
          "type": "bool"
        }
      ],
      "name": "ResolverRemoved",
      "type": "event",
      "signature": "0x35f17668a4aadc48b2952cd27f0c5017b357497a1f20cedf4713d91d019a63a8"
    },
    {
      "anonymous": false,
      "inputs": [
        {
          "indexed": true,
          "name": "initiator",
          "type": "address"
        },
        {
          "indexed": true,
          "name": "ein",
          "type": "uint256"
        },
        {
          "indexed": false,
          "name": "oldRecoveryAddress",
          "type": "address"
        },
        {
          "indexed": false,
          "name": "newRecoveryAddress",
          "type": "address"
        },
        {
          "indexed": false,
          "name": "delegated",
          "type": "bool"
        }
      ],
      "name": "RecoveryAddressChangeTriggered",
      "type": "event",
      "signature": "0xd9d54f9caf1bb2f4f815d22df297e7b73291ee08a95df2d47b0b03378ebe7c5d"
    },
    {
      "anonymous": false,
      "inputs": [
        {
          "indexed": true,
          "name": "initiator",
          "type": "address"
        },
        {
          "indexed": true,
          "name": "ein",
          "type": "uint256"
        },
        {
          "indexed": false,
          "name": "oldAssociatedAddresses",
          "type": "address[]"
        },
        {
          "indexed": false,
          "name": "newAssociatedAddress",
          "type": "address"
        }
      ],
      "name": "RecoveryTriggered",
      "type": "event",
      "signature": "0x2fe95fbd211d0471c596b1f81d913d1389d5d1ddeb2bdd96143acc651aa3b02e"
    },
    {
      "anonymous": false,
      "inputs": [
        {
          "indexed": true,
          "name": "initiator",
          "type": "address"
        },
        {
          "indexed": true,
          "name": "ein",
          "type": "uint256"
        },
        {
          "indexed": false,
          "name": "recoveryAddress",
          "type": "address"
        },
        {
          "indexed": false,
          "name": "resolversReset",
          "type": "bool"
        }
      ],
      "name": "IdentityDestroyed",
      "type": "event",
      "signature": "0x1807cc67f627d55c0a797a6c603fa124978caf5bb45c1748329489fd0185b9ef"
    },
    {
      "constant": true,
      "inputs": [
        {
          "name": "ein",
          "type": "uint256"
        }
      ],
      "name": "identityExists",
      "outputs": [
        {
          "name": "",
          "type": "bool"
        }
      ],
      "payable": false,
      "stateMutability": "view",
      "type": "function",
      "signature": "0x5b5aed3a"
    },
    {
      "constant": true,
      "inputs": [
        {
          "name": "_address",
          "type": "address"
        }
      ],
      "name": "hasIdentity",
      "outputs": [
        {
          "name": "",
          "type": "bool"
        }
      ],
      "payable": false,
      "stateMutability": "view",
      "type": "function",
      "signature": "0x237f1a21"
    },
    {
      "constant": true,
      "inputs": [
        {
          "name": "_address",
          "type": "address"
        }
      ],
      "name": "getEIN",
      "outputs": [
        {
          "name": "ein",
          "type": "uint256"
        }
      ],
      "payable": false,
      "stateMutability": "view",
      "type": "function",
      "signature": "0x05c62c2f"
    },
    {
      "constant": true,
      "inputs": [
        {
          "name": "ein",
          "type": "uint256"
        },
        {
          "name": "_address",
          "type": "address"
        }
      ],
      "name": "isAssociatedAddressFor",
      "outputs": [
        {
          "name": "",
          "type": "bool"
        }
      ],
      "payable": false,
      "stateMutability": "view",
      "type": "function",
      "signature": "0xa687662d"
    },
    {
      "constant": true,
      "inputs": [
        {
          "name": "ein",
          "type": "uint256"
        },
        {
          "name": "provider",
          "type": "address"
        }
      ],
      "name": "isProviderFor",
      "outputs": [
        {
          "name": "",
          "type": "bool"
        }
      ],
      "payable": false,
      "stateMutability": "view",
      "type": "function",
      "signature": "0x53a9698a"
    },
    {
      "constant": true,
      "inputs": [
        {
          "name": "ein",
          "type": "uint256"
        },
        {
          "name": "resolver",
          "type": "address"
        }
      ],
      "name": "isResolverFor",
      "outputs": [
        {
          "name": "",
          "type": "bool"
        }
      ],
      "payable": false,
      "stateMutability": "view",
      "type": "function",
      "signature": "0xd4b1cdcc"
    },
    {
      "constant": true,
      "inputs": [
        {
          "name": "ein",
          "type": "uint256"
        }
      ],
      "name": "getIdentity",
      "outputs": [
        {
          "name": "recoveryAddress",
          "type": "address"
        },
        {
          "name": "associatedAddresses",
          "type": "address[]"
        },
        {
          "name": "providers",
          "type": "address[]"
        },
        {
          "name": "resolvers",
          "type": "address[]"
        }
      ],
      "payable": false,
      "stateMutability": "view",
      "type": "function",
      "signature": "0x85e3f058"
    },
    {
      "constant": false,
      "inputs": [
        {
          "name": "recoveryAddress",
          "type": "address"
        },
        {
          "name": "associatedAddress",
          "type": "address"
        },
        {
          "name": "providers",
          "type": "address[]"
        },
        {
          "name": "resolvers",
          "type": "address[]"
        },
        {
          "name": "v",
          "type": "uint8"
        },
        {
          "name": "r",
          "type": "bytes32"
        },
        {
          "name": "s",
          "type": "bytes32"
        },
        {
          "name": "timestamp",
          "type": "uint256"
        }
      ],
      "name": "createIdentityDelegated",
      "outputs": [
        {
          "name": "ein",
          "type": "uint256"
        }
      ],
      "payable": false,
      "stateMutability": "nonpayable",
      "type": "function",
      "signature": "0x14fb5646"
    },
    {
      "constant": false,
      "inputs": [
        {
          "name": "recoveryAddress",
          "type": "address"
        },
        {
          "name": "providers",
          "type": "address[]"
        },
        {
          "name": "resolvers",
          "type": "address[]"
        }
      ],
      "name": "createIdentity",
      "outputs": [
        {
          "name": "ein",
          "type": "uint256"
        }
      ],
      "payable": false,
      "stateMutability": "nonpayable",
      "type": "function",
      "signature": "0x268e8970"
    },
    {
      "constant": false,
      "inputs": [
        {
          "name": "approvingAddress",
          "type": "address"
        },
        {
          "name": "addressToAdd",
          "type": "address"
        },
        {
          "name": "v",
          "type": "uint8[2]"
        },
        {
          "name": "r",
          "type": "bytes32[2]"
        },
        {
          "name": "s",
          "type": "bytes32[2]"
        },
        {
          "name": "timestamp",
          "type": "uint256[2]"
        }
      ],
      "name": "addAssociatedAddressDelegated",
      "outputs": [],
      "payable": false,
      "stateMutability": "nonpayable",
      "type": "function",
      "signature": "0xab5f6781"
    },
    {
      "constant": false,
      "inputs": [
        {
          "name": "approvingAddress",
          "type": "address"
        },
        {
          "name": "addressToAdd",
          "type": "address"
        },
        {
          "name": "v",
          "type": "uint8"
        },
        {
          "name": "r",
          "type": "bytes32"
        },
        {
          "name": "s",
          "type": "bytes32"
        },
        {
          "name": "timestamp",
          "type": "uint256"
        }
      ],
      "name": "addAssociatedAddress",
      "outputs": [],
      "payable": false,
      "stateMutability": "nonpayable",
      "type": "function",
      "signature": "0x3aedf3c9"
    },
    {
      "constant": false,
      "inputs": [
        {
          "name": "addressToRemove",
          "type": "address"
        },
        {
          "name": "v",
          "type": "uint8"
        },
        {
          "name": "r",
          "type": "bytes32"
        },
        {
          "name": "s",
          "type": "bytes32"
        },
        {
          "name": "timestamp",
          "type": "uint256"
        }
      ],
      "name": "removeAssociatedAddressDelegated",
      "outputs": [],
      "payable": false,
      "stateMutability": "nonpayable",
      "type": "function",
      "signature": "0xdd9ad9ed"
    },
    {
      "constant": false,
      "inputs": [],
      "name": "removeAssociatedAddress",
      "outputs": [],
      "payable": false,
      "stateMutability": "nonpayable",
      "type": "function",
      "signature": "0x3b4656a1"
    },
    {
      "constant": false,
      "inputs": [
        {
          "name": "ein",
          "type": "uint256"
        },
        {
          "name": "providers",
          "type": "address[]"
        }
      ],
      "name": "addProvidersFor",
      "outputs": [],
      "payable": false,
      "stateMutability": "nonpayable",
      "type": "function",
      "signature": "0x960b11f5"
    },
    {
      "constant": false,
      "inputs": [
        {
          "name": "providers",
          "type": "address[]"
        }
      ],
      "name": "addProviders",
      "outputs": [],
      "payable": false,
      "stateMutability": "nonpayable",
      "type": "function",
      "signature": "0x7d079951"
    },
    {
      "constant": false,
      "inputs": [
        {
          "name": "ein",
          "type": "uint256"
        },
        {
          "name": "providers",
          "type": "address[]"
        }
      ],
      "name": "removeProvidersFor",
      "outputs": [],
      "payable": false,
      "stateMutability": "nonpayable",
      "type": "function",
      "signature": "0x06c93c36"
    },
    {
      "constant": false,
      "inputs": [
        {
          "name": "providers",
          "type": "address[]"
        }
      ],
      "name": "removeProviders",
      "outputs": [],
      "payable": false,
      "stateMutability": "nonpayable",
      "type": "function",
      "signature": "0x232e7d83"
    },
    {
      "constant": false,
      "inputs": [
        {
          "name": "ein",
          "type": "uint256"
        },
        {
          "name": "resolvers",
          "type": "address[]"
        }
      ],
      "name": "addResolversFor",
      "outputs": [],
      "payable": false,
      "stateMutability": "nonpayable",
      "type": "function",
      "signature": "0x010887dc"
    },
    {
      "constant": false,
      "inputs": [
        {
          "name": "resolvers",
          "type": "address[]"
        }
      ],
      "name": "addResolvers",
      "outputs": [],
      "payable": false,
      "stateMutability": "nonpayable",
      "type": "function",
      "signature": "0xe846fd91"
    },
    {
      "constant": false,
      "inputs": [
        {
          "name": "ein",
          "type": "uint256"
        },
        {
          "name": "resolvers",
          "type": "address[]"
        }
      ],
      "name": "removeResolversFor",
      "outputs": [],
      "payable": false,
      "stateMutability": "nonpayable",
      "type": "function",
      "signature": "0x5726f660"
    },
    {
      "constant": false,
      "inputs": [
        {
          "name": "resolvers",
          "type": "address[]"
        }
      ],
      "name": "removeResolvers",
      "outputs": [],
      "payable": false,
      "stateMutability": "nonpayable",
      "type": "function",
      "signature": "0xb8a5c2a6"
    },
    {
      "constant": false,
      "inputs": [
        {
          "name": "ein",
          "type": "uint256"
        },
        {
          "name": "newRecoveryAddress",
          "type": "address"
        }
      ],
      "name": "triggerRecoveryAddressChangeFor",
      "outputs": [],
      "payable": false,
      "stateMutability": "nonpayable",
      "type": "function",
      "signature": "0x2501faa5"
    },
    {
      "constant": false,
      "inputs": [
        {
          "name": "newRecoveryAddress",
          "type": "address"
        }
      ],
      "name": "triggerRecoveryAddressChange",
      "outputs": [],
      "payable": false,
      "stateMutability": "nonpayable",
      "type": "function",
      "signature": "0x1bfe3508"
    },
    {
      "constant": false,
      "inputs": [
        {
          "name": "ein",
          "type": "uint256"
        },
        {
          "name": "newAssociatedAddress",
          "type": "address"
        },
        {
          "name": "v",
          "type": "uint8"
        },
        {
          "name": "r",
          "type": "bytes32"
        },
        {
          "name": "s",
          "type": "bytes32"
        },
        {
          "name": "timestamp",
          "type": "uint256"
        }
      ],
      "name": "triggerRecovery",
      "outputs": [],
      "payable": false,
      "stateMutability": "nonpayable",
      "type": "function",
      "signature": "0x8e1bb633"
    },
    {
      "constant": false,
      "inputs": [
        {
          "name": "ein",
          "type": "uint256"
        },
        {
          "name": "firstChunk",
          "type": "address[]"
        },
        {
          "name": "lastChunk",
          "type": "address[]"
        },
        {
          "name": "resetResolvers",
          "type": "bool"
        }
      ],
      "name": "triggerDestruction",
      "outputs": [],
      "payable": false,
      "stateMutability": "nonpayable",
      "type": "function",
      "signature": "0xfa57b576"
    }
  ],
  "bytecode": "0x608060405260016002556032600355620151806004556212750060075534801561002857600080fd5b506138c2806100386000396000f3fe608060405234801561001057600080fd5b50600436106101de5760003560e060020a900480635b5aed3a11610108578063a687662d116100a6578063d4b1cdcc11610075578063d4b1cdcc14610d2a578063dd9ad9ed14610d56578063e846fd9114610d97578063fa57b57614610e3a576101de565b8063a687662d14610b73578063ab5f678114610b9f578063ab9a853814610c7f578063b8a5c2a614610c87576101de565b80638677ebe8116100e25780638677ebe814610a395780638e1bb63314610a7a578063960b11f514610ac1578063a1707e7b14610b6b576101de565b80635b5aed3a146108655780637d0799511461088257806385e3f05814610925576101de565b8063237f1a21116101805780633b4656a11161014f5780633b4656a11461077f57806353a9698a146107875780635437b67c146107b35780635726f660146107bb576101de565b8063237f1a21146105975780632501faa5146105d1578063268e8970146105fd5780633aedf3c914610734576101de565b806314d8b821116101bc57806314d8b8211461037157806314fb5646146103795780631bfe3508146104ce578063232e7d83146104f4576101de565b8063010887dc146101e357806305c62c2f1461028f57806306c93c36146102c7575b600080fd5b61028d600480360360408110156101f957600080fd5b8135919081019060408101602082013564010000000081111561021b57600080fd5b82018360208201111561022d57600080fd5b8035906020019184602083028401116401000000008311171561024f57600080fd5b919080806020026020016040519081016040528093929190818152602001838360200280828437600092019190915250929550610f6a945050505050565b005b6102b5600480360360208110156102a557600080fd5b5035600160a060020a0316610fc4565b60408051918252519081900360200190f35b61028d600480360360408110156102dd57600080fd5b813591908101906040810160208201356401000000008111156102ff57600080fd5b82018360208201111561031157600080fd5b8035906020019184602083028401116401000000008311171561033357600080fd5b9190808060200260200160405190810160405280939291908181526020018383602002808284376000920191909152509295506110be945050505050565b6102b5611113565b6102b5600480360361010081101561039057600080fd5b600160a060020a0382358116926020810135909116918101906060810160408201356401000000008111156103c457600080fd5b8201836020820111156103d657600080fd5b803590602001918460208302840111640100000000831117156103f857600080fd5b919080806020026020016040519081016040528093929190818152602001838360200280828437600092019190915250929594936020810193503591505064010000000081111561044857600080fd5b82018360208201111561045a57600080fd5b8035906020019184602083028401116401000000008311171561047c57600080fd5b9190808060200260200160405190810160405280939291908181526020018383602002808284376000920191909152509295505060ff8335169350505060208101359060408101359060600135611119565b61028d600480360360208110156104e457600080fd5b5035600160a060020a03166112fb565b61028d6004803603602081101561050a57600080fd5b81019060208101813564010000000081111561052557600080fd5b82018360208201111561053757600080fd5b8035906020019184602083028401116401000000008311171561055957600080fd5b919080806020026020016040519081016040528093929190818152602001838360200280828437600092019190915250929550611312945050505050565b6105bd600480360360208110156105ad57600080fd5b5035600160a060020a0316611326565b604080519115158252519081900360200190f35b61028d600480360360408110156105e757600080fd5b5080359060200135600160a060020a031661134e565b6102b56004803603606081101561061357600080fd5b600160a060020a03823516919081019060408101602082013564010000000081111561063e57600080fd5b82018360208201111561065057600080fd5b8035906020019184602083028401116401000000008311171561067257600080fd5b91908080602002602001604051908101604052809392919081815260200183836020028082843760009201919091525092959493602081019350359150506401000000008111156106c257600080fd5b8201836020820111156106d457600080fd5b803590602001918460208302840111640100000000831117156106f657600080fd5b9190808060200260200160405190810160405280939291908181526020018383602002808284376000920191909152509295506113a3945050505050565b61028d600480360360c081101561074a57600080fd5b50600160a060020a03813581169160208101359091169060ff6040820135169060608101359060808101359060a001356113bb565b61028d611673565b6105bd6004803603604081101561079d57600080fd5b5080359060200135600160a060020a03166116cb565b6102b5611784565b61028d600480360360408110156107d157600080fd5b813591908101906040810160208201356401000000008111156107f357600080fd5b82018360208201111561080557600080fd5b8035906020019184602083028401116401000000008311171561082757600080fd5b91908080602002602001604051908101604052809392919081815260200183836020028082843760009201919091525092955061178a945050505050565b6105bd6004803603602081101561087b57600080fd5b50356117df565b61028d6004803603602081101561089857600080fd5b8101906020810181356401000000008111156108b357600080fd5b8201836020820111156108c557600080fd5b803590602001918460208302840111640100000000831117156108e757600080fd5b9190808060200260200160405190810160405280939291908181526020018383602002808284376000920191909152509295506117f3945050505050565b6109426004803603602081101561093b57600080fd5b5035611807565b6040518085600160a060020a0316600160a060020a03168152602001806020018060200180602001848103845287818151815260200191508051906020019060200280838360005b838110156109a257818101518382015260200161098a565b50505050905001848103835286818151815260200191508051906020019060200280838360005b838110156109e15781810151838201526020016109c9565b50505050905001848103825285818151815260200191508051906020019060200280838360005b83811015610a20578181015183820152602001610a08565b5050505090500197505050505050505060405180910390f35b6105bd600480360360a0811015610a4f57600080fd5b50600160a060020a038135169060208101359060ff60408201351690606081013590608001356119ba565b61028d600480360360c0811015610a9057600080fd5b50803590600160a060020a036020820135169060ff6040820135169060608101359060808101359060a001356119e6565b61028d60048036036040811015610ad757600080fd5b81359190810190604081016020820135640100000000811115610af957600080fd5b820183602082011115610b0b57600080fd5b80359060200191846020830284011164010000000083111715610b2d57600080fd5b919080806020026020016040519081016040528093929190818152602001838360200280828437600092019190915250929550611ed5945050505050565b6102b5611f2a565b6105bd60048036036040811015610b8957600080fd5b5080359060200135600160a060020a0316611f30565b61028d6004803603610140811015610bb657600080fd5b604080518082018252600160a060020a03843581169460208101359091169381019290916080830191808401906002908390839080828437600092019190915250506040805180820182529295949381810193925090600290839083908082843760009201919091525050604080518082018252929594938181019392509060029083908390808284376000920191909152505060408051808201825292959493818101939250906002908390839080828437600092019190915250919450611fb69350505050565b6102b56122e8565b61028d60048036036020811015610c9d57600080fd5b810190602081018135640100000000811115610cb857600080fd5b820183602082011115610cca57600080fd5b80359060200191846020830284011164010000000083111715610cec57600080fd5b9190808060200260200160405190810160405280939291908181526020018383602002808284376000920191909152509295506122ee945050505050565b6105bd60048036036040811015610d4057600080fd5b5080359060200135600160a060020a0316612302565b61028d600480360360a0811015610d6c57600080fd5b50600160a060020a038135169060ff6020820135169060408101359060608101359060800135612388565b61028d60048036036020811015610dad57600080fd5b810190602081018135640100000000811115610dc857600080fd5b820183602082011115610dda57600080fd5b80359060200191846020830284011164010000000083111715610dfc57600080fd5b91908080602002602001604051908101604052809392919081815260200183836020028082843760009201919091525092955061251f945050505050565b61028d60048036036080811015610e5057600080fd5b81359190810190604081016020820135640100000000811115610e7257600080fd5b820183602082011115610e8457600080fd5b80359060200191846020830284011164010000000083111715610ea657600080fd5b9190808060200260200160405190810160405280939291908181526020018383602002808284376000920191909152509295949360208101935035915050640100000000811115610ef657600080fd5b820183602082011115610f0857600080fd5b80359060200191846020830284011164010000000083111715610f2a57600080fd5b9190808060200260200160405190810160405280939291908181526020018383602002808284376000920191909152509295505050503515159050612533565b81610f7581336116cb565b610fb35760405160e560020a62461bcd02815260040180806020018281038252602d815260200180613669602d913960400191505060405180910390fd5b610fbf83836001612777565b505050565b600081600180610fd383611326565b15151481610ff9576040518060600160405280603281526020016137d260329139611013565b604051806060016040528060388152602001613804603891395b9061109f5760405160e560020a62461bcd0281526004018080602001828103825283818151815260200191508051906020019080838360005b8381101561106457818101518382015260200161104c565b50505050905090810190601f1680156110915780820380516001836020036101000a031916815260200191505b509250505060405180910390fd5b50505050600160a060020a031660009081526001602052604090205490565b816110c981336116cb565b6111075760405160e560020a62461bcd02815260040180806020018281038252602d815260200180613669602d913960400191505060405180910390fd5b610fbf838360016128ae565b60075481565b60008180421015801561112f5750600454810142105b611171576040805160e560020a62461bcd02815260206004820152601760248201526000805160206136cc833981519152604482015290519081900360640190fd5b61129d89601960f860020a02600060f860020a02308e8e8e8e8b6040516020018089600160f860020a031916600160f860020a031916815260010188600160f860020a031916600160f860020a031916815260010187600160a060020a0316600160a060020a0316606060020a028152601401806136ec60359139606060020a600160a060020a038089168202603584015287160260498201528451605d909101906020808701910280838360005b83811015611238578181015183820152602001611220565b50505050905001838051906020019060200280838360005b83811015611268578181015183820152602001611250565b5050505090500182815260200198505050505050505050604051602081830303815290604052805190602001208888886119ba565b6112df576040805160e560020a62461bcd02815260206004820152601260248201526000805160206135f0833981519152604482015290519081900360640190fd5b6112ed8a8a8a8a60016129de565b9a9950505050505050505050565b61130f61130733610fc4565b826000612bee565b50565b61130f61131e33610fc4565b8260006128ae565b600160a060020a038116600090815260016020526040812054611348906117df565b92915050565b8161135981336116cb565b6113975760405160e560020a62461bcd02815260040180806020018281038252602d815260200180613669602d913960400191505060405180910390fd5b610fbf83836001612bee565b60006113b38433858560006129de565b949350505050565b808042101580156113cf5750600454810142105b611411576040805160e560020a62461bcd02815260206004820152601760248201526000805160206136cc833981519152604482015290519081900360640190fd5b33600160a060020a038816148080611431575033600160a060020a038816145b61146f5760405160e560020a62461bcd0281526004018080602001828103825260328152602001806138656032913960400191505060405180910390fd5b600061147a89610fc4565b90506115ce8261148a578961148c565b885b60f860020a601902600030866114ba576040518060600160405280602f815260200161354a602f91396114d4565b60405180606001604052806029815260200161383c602991395b868e8b6040516020018088600160f860020a031916600160f860020a031916815260010187600160f860020a031916600160f860020a031916815260010186600160a060020a0316600160a060020a0316606060020a02815260140185805190602001908083835b6020831061155b5780518252601f19909201916020918201910161153c565b6001836020036101000a03801982511681845116808217855250505050505090500184815260200183600160a060020a0316600160a060020a0316606060020a028152601401828152602001975050505050505050604051602081830303815290604052805190602001208989896119ba565b611610576040805160e560020a62461bcd02815260206004820152601260248201526000805160206135f0833981519152604482015290519081900360640190fd5b61161a8189612d19565b60408051600160a060020a038b811682528a1660208201526000818301529051829133917f1e0c87f4d9edce88868577315152d327d02ff25d2cb9384cd6ee609a9f56b64e9181900360600190a3505050505050505050565b600061167e33610fc4565b905061168a8133612f72565b6040805133808252600060208301528251849391927f04095b6a64a9a32bafa887e731a82f91cdec3bf819389deea6aa34a488034f7d92908290030190a350565b60008281526020818152604080832081517f3412d5f200000000000000000000000000000000000000000000000000000000815260039091016004820152600160a060020a0385166024820152905173__AddressSet____________________________92633412d5f29260448082019391829003018186803b15801561175157600080fd5b505af4158015611765573d6000803e3d6000fd5b505050506040513d602081101561177b57600080fd5b50519392505050565b60045481565b8161179581336116cb565b6117d35760405160e560020a62461bcd02815260040180806020018281038252602d815260200180613669602d913960400191505060405180910390fd5b610fbf8383600161302b565b600060025482108015611348575050151590565b61130f6117ff33610fc4565b82600061315b565b6000606080606084611818816117df565b61186c576040805160e560020a62461bcd02815260206004820152601c60248201527f546865206964656e7469747920646f6573206e6f742065786973742e00000000604482015290519081900360640190fd5b6000868152602081815260409182902080546001820180548551818602810186019096528086529294600160a060020a0390921693909260038601926005870192909185918301828280156118ea57602002820191906000526020600020905b8154600160a060020a031681526001909101906020018083116118cc575b505050505092508180548060200260200160405190810160405280929190818152602001828054801561194657602002820191906000526020600020905b8154600160a060020a03168152600190910190602001808311611928575b50505050509150808054806020026020016040519081016040528092919081815260200182805480156119a257602002820191906000526020600020905b8154600160a060020a03168152600190910190602001808311611984575b50505050509050955095509550955050509193509193565b60006119c9868686868661328b565b806119dc57506119dc8686868686613313565b9695505050505050565b856119f0816117df565b611a44576040805160e560020a62461bcd02815260206004820152601c60248201527f546865206964656e7469747920646f6573206e6f742065786973742e00000000604482015290519081900360640190fd5b85600080611a5183611326565b15151481611a77576040518060600160405280603281526020016137d260329139611a91565b604051806060016040528060388152602001613804603891395b90611ae05760405160e560020a62461bcd02815260206004820181815283516024840152835190928392604490910191908501908083836000831561106457818101518382015260200161104c565b5083804210158015611af55750600454810142105b611b37576040805160e560020a62461bcd02815260206004820152601760248201526000805160206136cc833981519152604482015290519081900360640190fd5b611b408a6133d4565b611b94576040805160e560020a62461bcd02815260206004820152601c60248201527f43616e6e6f742074726967676572207265636f76657279207965742e00000000604482015290519081900360640190fd5b60008a8152602081905260409020611bab8b6133ed565b15611c00578054600160a060020a03163314611bfb5760405160e560020a62461bcd0281526004018080602001828103825260378152602001806135796037913960400191505060405180910390fd5b611c5b565b60008b815260056020526040902060010154600160a060020a03163314611c5b5760405160e560020a62461bcd0281526004018080602001828103825260408152602001806135b06040913960400191505060405180910390fd5b611d278a601960f860020a02600060f860020a02308f8f8c6040516020018087600160f860020a031916600160f860020a031916815260010186600160f860020a031916600160f860020a031916815260010185600160a060020a0316600160a060020a0316606060020a028152601401806136966036913960360184815260200183600160a060020a0316600160a060020a0316606060020a0281526014018281526020019650505050505050604051602081830303815290604052805190602001208b8b8b6119ba565b611d69576040805160e560020a62461bcd02815260206004820152601260248201526000805160206135f0833981519152604482015290519081900360640190fd5b604051806040016040528042815260200182600101600001604051602001808280548015611dc057602002820191906000526020600020905b8154600160a060020a03168152600190910190602001808311611da2575b505091505060405160208183030381529060405280519060200120815250600660008d815260200190815260200160002060008201518160000155602082015181600101559050508a33600160a060020a03167f2fe95fbd211d0471c596b1f81d913d1389d5d1ddeb2bdd96143acc651aa3b02e836001016000018d604051808060200183600160a060020a0316600160a060020a031681526020018281038252848181548152602001915080548015611ea357602002820191906000526020600020905b8154600160a060020a03168152600190910190602001808311611e85575b5050935050505060405180910390a3611ebe81336000613406565b611ec88b8b612d19565b5050505050505050505050565b81611ee081336116cb565b611f1e5760405160e560020a62461bcd02815260040180806020018281038252602d815260200180613669602d913960400191505060405180910390fd5b610fbf8383600161315b565b60025481565b60008281526020818152604080832081517f3412d5f200000000000000000000000000000000000000000000000000000000815260019091016004820152600160a060020a0385166024820152905173__AddressSet____________________________92633412d5f29260448082019391829003018186803b15801561175157600080fd5b8051428111801590611fcb5750600454810142105b61200d576040805160e560020a62461bcd02815260206004820152601760248201526000805160206136cc833981519152604482015290519081900360640190fd5b60208201514281118015906120255750600454810142105b612067576040805160e560020a62461bcd02815260206004820152601760248201526000805160206136cc833981519152604482015290519081900360640190fd5b600061207289610fc4565b90506121548960f860020a601902600030858d8a84602090810291909101516040517fff0000000000000000000000000000000000000000000000000000000000000080891693820193845287166021820152606060020a600160a060020a038716026022820152909190603601602f61354a8239602f0184815260200183600160a060020a0316600160a060020a0316606060020a0281526014018281526020019650505050505050604051602081830303815290604052805190602001208960006002811061213f57fe5b602002015189518960005b60200201516119ba565b6121925760405160e560020a62461bcd0281526004018080602001828103825260298152602001806137216029913960400191505060405180910390fd5b60208481015160405160f860020a60190292810183815260006021830181905230606060020a81026022850152612247958e959094929391928892879291603601602961383c823960290184815260200183600160a060020a0316600160a060020a0316606060020a0281526014018281526020019650505050505050604051602081830303815290604052805190602001208960016002811061223257fe5b6020020151896001602002015189600161214a565b6122855760405160e560020a62461bcd0281526004018080602001828103825260268152602001806136106026913960400191505060405180910390fd5b61228f8189612d19565b60408051600160a060020a038b811682528a1660208201526001818301529051829133917f1e0c87f4d9edce88868577315152d327d02ff25d2cb9384cd6ee609a9f56b64e9181900360600190a3505050505050505050565b60035481565b61130f6122fa33610fc4565b82600161302b565b60008281526020818152604080832081517f3412d5f200000000000000000000000000000000000000000000000000000000815260059091016004820152600160a060020a0385166024820152905173__AddressSet____________________________92633412d5f29260448082019391829003018186803b15801561175157600080fd5b8080421015801561239c5750600454810142105b6123de576040805160e560020a62461bcd02815260206004820152601760248201526000805160206136cc833981519152604482015290519081900360640190fd5b60006123e987610fc4565b60405160f860020a6019026020820181815260006021840181905230606060020a81026022860152949550612482948c9491929091879186918b91906036016033613636823960330184815260200183600160a060020a0316600160a060020a0316606060020a0281526014018281526020019650505050505050604051602081830303815290604052805190602001208888886119ba565b6124c4576040805160e560020a62461bcd02815260206004820152601260248201526000805160206135f0833981519152604482015290519081900360640190fd5b6124ce8188612f72565b60408051600160a060020a0389168152600160208201528151839233927f04095b6a64a9a32bafa887e731a82f91cdec3bf819389deea6aa34a488034f7d929081900390910190a350505050505050565b61130f61252b33610fc4565b826000612777565b8361253d816117df565b612591576040805160e560020a62461bcd02815260206004820152601c60248201527f546865206964656e7469747920646f6573206e6f742065786973742e00000000604482015290519081900360640190fd5b61259a856133d4565b156125d95760405160e560020a62461bcd02815260040180806020018281038252602981526020018061374a6029913960400191505060405180910390fd5b60008581526020819052604090206125ef6134c1565b604051806020016040528033600160a060020a0316600160a060020a03168152509050600660008881526020019081526020016000206001015486828760405160200180848051906020019060200280838360005b8381101561265c578181015183820152602001612644565b5050505090500183600160200280838360005b8381101561268757818101518382015260200161266f565b50505050905001828051906020019060200280838360005b838110156126b757818101518382015260200161269f565b50505050905001935050505060405160208183030381529060405280519060200120146127185760405160e560020a62461bcd02815260040180806020018281038252605f815260200180613773605f913960600191505060405180910390fd5b815460408051600160a060020a03909216825285151560208301528051899233927f1807cc67f627d55c0a797a6c603fa124978caf5bb45c1748329489fd0185b9ef92918290030190a361276e82600086613406565b50505050505050565b6000838152602081905260408120905b83518110156128a7578160050173__AddressSet____________________________63989779e990918684815181106127bc57fe5b60200260200101516040518363ffffffff1660e060020a0281526004018083815260200182600160a060020a0316600160a060020a031681526020019250505060006040518083038186803b15801561281457600080fd5b505af4158015612828573d6000803e3d6000fd5b505050508433600160a060020a03167f8d2c0379f93ea94639b25aaf145689b0db73ba107f5b9972bbd6238d7b0440ac86848151811061286457fe5b6020026020010151866040518083600160a060020a0316600160a060020a03168152602001821515151581526020019250505060405180910390a3600101612787565b5050505050565b6000838152602081905260408120905b83518110156128a7578160030173__AddressSet____________________________638c9d1e4190918684815181106128f357fe5b60200260200101516040518363ffffffff1660e060020a0281526004018083815260200182600160a060020a0316600160a060020a031681526020019250505060006040518083038186803b15801561294b57600080fd5b505af415801561295f573d6000803e3d6000fd5b505050508433600160a060020a03167fe41b11c1b8e658dea501b4a432bd3f7b3e6db83ef57ac16c52e5f288edeffec486848151811061299b57fe5b6020026020010151866040518083600160a060020a0316600160a060020a03168152602001821515151581526020019250505060405180910390a36001016128be565b60008481806129ec83611326565b15151481612a12576040518060600160405280603281526020016137d260329139612a2c565b604051806060016040528060388152602001613804603891395b90612a7b5760405160e560020a62461bcd02815260206004820181815283516024840152835190928392604490910191908501908083836000831561106457818101518382015260200161104c565b5060028054600181019091556000818152602081905260409020805473ffffffffffffffffffffffffffffffffffffffff1916600160a060020a038b16178155612ac5828a612d19565b612ad082898861315b565b612adb828888612777565b8133600160a060020a03167fe541733a4670852051762d3cdb7d9123bea21d01e252aa39ca403c8d0f5ab66c8c8c8c8c8c6040518086600160a060020a0316600160a060020a0316815260200185600160a060020a0316600160a060020a03168152602001806020018060200184151515158152602001838103835286818151815260200191508051906020019060200280838360005b83811015612b8a578181015183820152602001612b72565b50505050905001838103825285818151815260200191508051906020019060200280838360005b83811015612bc9578181015183820152602001612bb1565b5050505090500197505050505050505060405180910390a35098975050505050505050565b6000838152602081905260409020612c05846133ed565b612c435760405160e560020a62461bcd02815260040180806020018281038252603081526020018061351a6030913960400191505060405180910390fd5b6040805180820182524281528254600160a060020a0390811660208084019182526000898152600582528590209351845590516001909301805473ffffffffffffffffffffffffffffffffffffffff19169383169390931790925583548351908216815290861691810191909152831515818301529051859133917fd9d54f9caf1bb2f4f815d22df297e7b73291ee08a95df2d47b0b03378ebe7c5d916060908290030190a3805473ffffffffffffffffffffffffffffffffffffffff1916600160a060020a0393909316929092179091555050565b80600080612d2683611326565b15151481612d4c576040518060600160405280603281526020016137d260329139612d66565b604051806060016040528060388152602001613804603891395b90612db55760405160e560020a62461bcd02815260206004820181815283516024840152835190928392604490910191908501908083836000831561106457818101518382015260200161104c565b506003546000858152602081815260409182902082517fc6756c7300000000000000000000000000000000000000000000000000000000815260019091016004820152915173__AddressSet____________________________9263c6756c73926024808301939192829003018186803b158015612e3257600080fd5b505af4158015612e46573d6000803e3d6000fd5b505050506040513d6020811015612e5c57600080fd5b505110612eb3576040805160e560020a62461bcd02815260206004820152601360248201527f546f6f206d616e79206164647265737365732e00000000000000000000000000604482015290519081900360640190fd5b60008481526020819052604080822081517f989779e900000000000000000000000000000000000000000000000000000000815260019091016004820152600160a060020a0386166024820152905173__AddressSet____________________________9263989779e99260448082019391829003018186803b158015612f3957600080fd5b505af4158015612f4d573d6000803e3d6000fd5b505050600160a060020a03909316600090815260016020526040902093909355505050565b60008281526020819052604080822081517f8c9d1e4100000000000000000000000000000000000000000000000000000000815260019091016004820152600160a060020a0384166024820152905173__AddressSet____________________________92638c9d1e419260448082019391829003018186803b158015612ff857600080fd5b505af415801561300c573d6000803e3d6000fd5b50505050600160a060020a031660009081526001602052604081205550565b6000838152602081905260408120905b83518110156128a7578160050173__AddressSet____________________________638c9d1e41909186848151811061307057fe5b60200260200101516040518363ffffffff1660e060020a0281526004018083815260200182600160a060020a0316600160a060020a031681526020019250505060006040518083038186803b1580156130c857600080fd5b505af41580156130dc573d6000803e3d6000fd5b505050508433600160a060020a03167f35f17668a4aadc48b2952cd27f0c5017b357497a1f20cedf4713d91d019a63a886848151811061311857fe5b6020026020010151866040518083600160a060020a0316600160a060020a03168152602001821515151581526020019250505060405180910390a360010161303b565b6000838152602081905260408120905b83518110156128a7578160030173__AddressSet____________________________63989779e990918684815181106131a057fe5b60200260200101516040518363ffffffff1660e060020a0281526004018083815260200182600160a060020a0316600160a060020a031681526020019250505060006040518083038186803b1580156131f857600080fd5b505af415801561320c573d6000803e3d6000fd5b505050508433600160a060020a03167fd2af86288d6ec28d93c5459bdc5a21da89b340c28ad430327e40139c1178986f86848151811061324857fe5b6020026020010151866040518083600160a060020a0316600160a060020a03168152602001821515151581526020019250505060405180910390a360010161316b565b600085600160a060020a031660018686868660405160008152602001604052604051808581526020018460ff1660ff1681526020018381526020018281526020019450505050506020604051602081039080840390855afa1580156132f4573d6000803e3d6000fd5b50505060206040510351600160a060020a031614905095945050505050565b600060606040518060400160405280601c81526020017f19457468657265756d205369676e6564204d6573736167653a0a33320000000081525090506133c98782886040516020018083805190602001908083835b602083106133875780518252601f199092019160209182019101613368565b51815160209384036101000a6000190180199092169116179052920193845250604080518085038152938201905282519201919091209150889050878761328b565b979650505050505050565b6007546000918252600660205260409091205401421190565b6007546000918252600560205260409091205401421190565b60005b6001840154811015613458576001600085600101600001838154811061342b57fe5b6000918252602080832090910154600160a060020a03168352820192909252604001812055600101613409565b5060018301600061346982826134df565b505060038301600061347b82826134df565b505080156134965760058301600061349382826134df565b50505b50815473ffffffffffffffffffffffffffffffffffffffff1916600160a060020a0391909116179055565b60405180602001604052806001906020820280388339509192915050565b508054600082559060005260206000209081019061130f919061351691905b8082111561351257600081556001016134fe565b5090565b9056fe43616e6e6f7420747269676765722061206368616e676520696e207265636f766572792061646472657373207965742e4920617574686f72697a6520616464696e672074686973206164647265737320746f206d79204964656e746974792e4f6e6c79207468652063757272656e74207265636f7665727920616464726573732063616e2074726967676572207265636f766572792e4f6e6c792074686520726563656e746c792072656d6f766564207265636f7665727920616464726573732063616e2074726967676572207265636f766572792e5065726d697373696f6e2064656e6965642e00000000000000000000000000005065726d697373696f6e2064656e6965642066726f6d206164647265737320746f206164642e4920617574686f72697a652072656d6f76696e67207468697320616464726573732066726f6d206d79204964656e746974792e546865206964656e7469747920686173206e6f742073657420746865207061737365642070726f76696465722e4920617574686f72697a65206265696e6720616464656420746f2074686973204964656e7469747920766961207265636f766572792e54696d657374616d70206973206e6f742076616c69642e0000000000000000004920617574686f72697a6520746865206372656174696f6e206f6620616e204964656e74697479206f6e206d7920626568616c662e5065726d697373696f6e2064656e6965642066726f6d20617070726f76696e6720616464726573732e5265636f7665727920686173206e6f7420726563656e746c79206265656e207472696767657265642e43616e6e6f742064657374726f7920616e2045494e2066726f6d20616e2061646472657373207468617420776173206e6f7420726563656e746c792072656d6f7665642066726f6d20736169642045494e20766961207265636f766572792e5468652070617373656420616464726573732068617320616e206964656e74697479206275742073686f756c64206e6f742e54686520706173736564206164647265737320646f6573206e6f74206861766520616e206964656e74697479206275742073686f756c642e4920617574686f72697a65206265696e6720616464656420746f2074686973204964656e746974792e4f6e65206f7220626f7468206f6620746865207061737365642061646472657373657320617265206d616c666f726d65642ea165627a7a72305820c0249c46509c2282de32fddbc58c3e1d6f885b4da701da71b422e0626c0e5f310029",
  "source": "pragma solidity ^0.5.0;\n\nimport \"./SignatureVerifier.sol\";\nimport \"./AddressSet/AddressSet.sol\";\n\n/// @title The ERC-1484 Identity Registry.\n/// @author Noah Zinsmeister\n/// @author Andy Chorlian\ncontract IdentityRegistry is SignatureVerifier {\n    using AddressSet for AddressSet.Set;\n\n\n    // Identity Data Structure and Parameters //////////////////////////////////////////////////////////////////////////\n\n    struct Identity {\n        address recoveryAddress;\n        AddressSet.Set associatedAddresses;\n        AddressSet.Set providers;\n        AddressSet.Set resolvers;\n    }\n\n    mapping (uint => Identity) private identityDirectory;\n    mapping (address => uint) private associatedAddressDirectory;\n\n    uint public nextEIN = 1;\n    uint public maxAssociatedAddresses = 50;\n\n\n    // Signature Timeout ///////////////////////////////////////////////////////////////////////////////////////////////\n\n    uint public signatureTimeout = 1 days;\n\n    /// @dev Enforces that the passed timestamp is within signatureTimeout seconds of now.\n    /// @param timestamp The timestamp to check the validity of.\n    modifier ensureSignatureTimeValid(uint timestamp) {\n        require(\n            // solium-disable-next-line security/no-block-members\n            block.timestamp >= timestamp && block.timestamp < timestamp + signatureTimeout, \"Timestamp is not valid.\"\n        );\n        _;\n    }\n\n\n    // Recovery Address Change Logging /////////////////////////////////////////////////////////////////////////////////\n\n    struct RecoveryAddressChange {\n        uint timestamp;\n        address oldRecoveryAddress;\n    }\n\n    mapping (uint => RecoveryAddressChange) private recoveryAddressChangeLogs;\n\n\n    // Recovery Logging ////////////////////////////////////////////////////////////////////////////////////////////////\n\n    struct Recovery {\n        uint timestamp;\n        bytes32 hashedOldAssociatedAddresses;\n    }\n\n    mapping (uint => Recovery) private recoveryLogs;\n\n\n    // Recovery Timeout ////////////////////////////////////////////////////////////////////////////////////////////////\n\n    uint public recoveryTimeout = 2 weeks;\n\n    /// @dev Checks if the passed EIN has changed their recovery address within recoveryTimeout seconds of now.\n    function canChangeRecoveryAddress(uint ein) private view returns (bool) {\n        // solium-disable-next-line security/no-block-members\n        return block.timestamp > recoveryAddressChangeLogs[ein].timestamp + recoveryTimeout;\n    }\n\n    /// @dev Checks if the passed EIN has recovered within recoveryTimeout seconds of now.\n    function canRecover(uint ein) private view returns (bool) {\n        // solium-disable-next-line security/no-block-members\n        return block.timestamp > recoveryLogs[ein].timestamp + recoveryTimeout;\n    }\n\n\n    // Identity View Functions /////////////////////////////////////////////////////////////////////////////////////////\n\n    /// @notice Checks if the passed EIN exists.\n    /// @dev Does not throw.\n    /// @param ein The EIN to check the existence of.\n    /// @return true if the passed EIN exists, false otherwise.\n    function identityExists(uint ein) public view returns (bool) {\n        return ein < nextEIN && ein > 0;\n    }\n\n    /// @dev Ensures that the passed EIN exists.\n    /// @param ein The EIN to check the existence of.\n    modifier _identityExists(uint ein) {\n        require(identityExists(ein), \"The identity does not exist.\");\n        _;\n    }\n\n    /// @notice Checks if the passed address is associated with an Identity.\n    /// @dev Does not throw.\n    /// @param _address The address to check.\n    /// @return true if the passed address is associated with an Identity, false otherwise.\n    function hasIdentity(address _address) public view returns (bool) {\n        return identityExists(associatedAddressDirectory[_address]);\n    }\n\n    /// @dev Ensures that the passed address is or is not associated with an Identity.\n    /// @param _address The address to check.\n    /// @param check If true, ensures that the address has an Identity, if false, vice versa.\n    /// @return true if the associated status is equal to check, false otherwise.\n    modifier _hasIdentity(address _address, bool check) {\n        require(\n            hasIdentity(_address) == check,\n            check ?\n                \"The passed address does not have an identity but should.\" :\n                \"The passed address has an identity but should not.\"\n        );\n        _;\n    }\n\n    /// @notice Gets the EIN associated with the passed address.\n    /// @dev Throws if the address is not associated with an Identity.\n    /// @param _address The address to check.\n    /// @return The associated EIN.\n    function getEIN(address _address) public view _hasIdentity(_address, true) returns (uint ein) {\n        return associatedAddressDirectory[_address];\n    }\n\n    /// @notice Checks whether the passed EIN is associated with the passed address.\n    /// @dev Does not throw.\n    /// @param ein The EIN to check.\n    /// @param _address The address to check.\n    /// @return true if the passed address is associated with the passed EIN, false otherwise.\n    function isAssociatedAddressFor(uint ein, address _address) public view returns (bool) {\n        return identityDirectory[ein].associatedAddresses.contains(_address);\n    }\n\n    /// @notice Checks whether the passed provider is set for the passed EIN.\n    /// @dev Does not throw.\n    /// @param ein The EIN to check.\n    /// @param provider The provider to check.\n    /// @return true if the provider is set for the passed EIN, false otherwise.\n    function isProviderFor(uint ein, address provider) public view returns (bool) {\n        return identityDirectory[ein].providers.contains(provider);\n    }\n\n    /// @dev Ensures that the msg.sender is a provider for the passed EIN.\n    /// @param ein The EIN to check.\n    modifier _isProviderFor(uint ein) {\n        require(isProviderFor(ein, msg.sender), \"The identity has not set the passed provider.\");\n        _;\n    }\n\n    /// @notice Checks whether the passed resolver is set for the passed EIN.\n    /// @dev Does not throw.\n    /// @param ein The EIN to check.\n    /// @param resolver The resolver to check.\n    /// @return true if the resolver is set for the passed EIN, false otherwise.\n    function isResolverFor(uint ein, address resolver) public view returns (bool) {\n        return identityDirectory[ein].resolvers.contains(resolver);\n    }\n\n    /// @notice Gets all identity-related information for the passed EIN.\n    /// @dev Throws if the passed EIN does not exist.\n    /// @param ein The EIN to get information for.\n    /// @return All the information for the Identity denominated by the passed EIN.\n    function getIdentity(uint ein) public view _identityExists(ein)\n        returns (\n            address recoveryAddress,\n            address[] memory associatedAddresses, address[] memory providers, address[] memory resolvers\n        )\n    {\n        Identity storage _identity = identityDirectory[ein];\n\n        return (\n            _identity.recoveryAddress,\n            _identity.associatedAddresses.members,\n            _identity.providers.members,\n            _identity.resolvers.members\n        );\n    }\n\n\n    // Identity Management Functions ///////////////////////////////////////////////////////////////////////////////////\n\n    /// @notice Create an new Identity for the transaction sender.\n    /// @dev Sets the msg.sender as the only associatedAddress.\n    /// @param recoveryAddress A recovery address to set for the new Identity.\n    /// @param providers A list of providers to set for the new Identity.\n    /// @param resolvers A list of resolvers to set for the new Identity.\n    /// @return The EIN of the new Identity.\n    function createIdentity(address recoveryAddress, address[] memory providers, address[] memory resolvers)\n        public returns (uint ein)\n    {\n        return createIdentity(recoveryAddress, msg.sender, providers, resolvers, false);\n    }\n\n    /// @notice Allows creation of a new Identity for the passed associatedAddress.\n    /// @param recoveryAddress A recovery address to set for the new Identity.\n    /// @param associatedAddress An associated address to set for the new Identity (must have produced the signature).\n    /// @param providers A list of providers to set for the new Identity.\n    /// @param resolvers A list of resolvers to set for the new Identity.\n    /// @param v The v component of the signature.\n    /// @param r The r component of the signature.\n    /// @param s The s component of the signature.\n    /// @param timestamp The timestamp of the signature.\n    /// @return The EIN of the new Identity.\n    function createIdentityDelegated(\n        address recoveryAddress, address associatedAddress, address[] memory providers, address[] memory resolvers,\n        uint8 v, bytes32 r, bytes32 s, uint timestamp\n    )\n        public ensureSignatureTimeValid(timestamp) returns (uint ein)\n    {\n        require(\n            isSigned(\n                associatedAddress,\n                keccak256(\n                    abi.encodePacked(\n                        byte(0x19), byte(0), address(this),\n                        \"I authorize the creation of an Identity on my behalf.\",\n                        recoveryAddress, associatedAddress, providers, resolvers, timestamp\n                    )\n                ),\n                v, r, s\n            ),\n            \"Permission denied.\"\n        );\n\n        return createIdentity(recoveryAddress, associatedAddress, providers, resolvers, true);\n    }\n\n    /// @dev Common logic for all identity creation.\n    function createIdentity(\n        address recoveryAddress,\n        address associatedAddress, address[] memory providers, address[] memory resolvers, bool delegated\n    )\n        private _hasIdentity(associatedAddress, false) returns (uint)\n    {\n        uint ein = nextEIN++;\n        Identity storage _identity = identityDirectory[ein];\n\n        _identity.recoveryAddress = recoveryAddress;\n        addAssociatedAddress(ein, associatedAddress);\n        addProviders(ein, providers, delegated);\n        addResolvers(ein, resolvers, delegated);\n\n        emit IdentityCreated(msg.sender, ein, recoveryAddress, associatedAddress, providers, resolvers, delegated);\n\n        return ein;\n    }\n\n\n    /// @notice Allows an associated address to add another associated address to its Identity.\n    /// @param approvingAddress An associated address for an Identity.\n    /// @param addressToAdd A new address to set for the Identity of the sender.\n    /// @param v The v component of the signature.\n    /// @param r The r component of the signature.\n    /// @param s The s component of the signature.\n    /// @param timestamp The timestamp of the signature.\n    function addAssociatedAddress(\n        address approvingAddress, address addressToAdd, uint8 v, bytes32 r, bytes32 s, uint timestamp\n    )\n        public ensureSignatureTimeValid(timestamp)\n    {\n        bool fromApprovingAddress = msg.sender == approvingAddress;\n        require(\n            fromApprovingAddress || msg.sender == addressToAdd, \"One or both of the passed addresses are malformed.\"\n        );\n\n        uint ein = getEIN(approvingAddress);\n\n        require(\n            isSigned(\n                fromApprovingAddress ? addressToAdd : approvingAddress,\n                keccak256(\n                    abi.encodePacked(\n                        byte(0x19), byte(0), address(this),\n                        fromApprovingAddress ?\n                            \"I authorize being added to this Identity.\" :\n                            \"I authorize adding this address to my Identity.\",\n                        ein, addressToAdd, timestamp\n                    )\n                ),\n                v, r, s\n            ),\n            \"Permission denied.\"\n        );\n\n        addAssociatedAddress(ein, addressToAdd);\n\n        emit AssociatedAddressAdded(msg.sender, ein, approvingAddress, addressToAdd, false);\n    }\n\n    /// @notice Allows addition of an associated address to an Identity.\n    /// @dev The first signature must be that of the approvingAddress.\n    /// @param approvingAddress An associated address for an Identity.\n    /// @param addressToAdd A new address to set for the Identity of approvingAddress.\n    /// @param v The v component of the signatures.\n    /// @param r The r component of the signatures.\n    /// @param s The s component of the signatures.\n    /// @param timestamp The timestamp of the signatures.\n    function addAssociatedAddressDelegated(\n        address approvingAddress, address addressToAdd,\n        uint8[2] memory v, bytes32[2] memory r, bytes32[2] memory s, uint[2] memory timestamp\n    )\n        public ensureSignatureTimeValid(timestamp[0]) ensureSignatureTimeValid(timestamp[1])\n    {\n        uint ein = getEIN(approvingAddress);\n\n        require(\n            isSigned(\n                approvingAddress,\n                keccak256(\n                    abi.encodePacked(\n                        byte(0x19), byte(0), address(this),\n                        \"I authorize adding this address to my Identity.\",\n                        ein, addressToAdd, timestamp[0]\n                    )\n                ),\n                v[0], r[0], s[0]\n            ),\n            \"Permission denied from approving address.\"\n        );\n        require(\n            isSigned(\n                addressToAdd,\n                keccak256(\n                    abi.encodePacked(\n                        byte(0x19), byte(0), address(this),\n                        \"I authorize being added to this Identity.\",\n                        ein, addressToAdd, timestamp[1]\n                    )\n                ),\n                v[1], r[1], s[1]\n            ),\n            \"Permission denied from address to add.\"\n        );\n\n        addAssociatedAddress(ein, addressToAdd);\n\n        emit AssociatedAddressAdded(msg.sender, ein, approvingAddress, addressToAdd, true);\n    }\n\n    /// @dev Common logic for all address addition.\n    function addAssociatedAddress(uint ein, address addressToAdd) private _hasIdentity(addressToAdd, false) {\n        require(\n            identityDirectory[ein].associatedAddresses.length() < maxAssociatedAddresses, \"Too many addresses.\"\n        );\n\n        identityDirectory[ein].associatedAddresses.insert(addressToAdd);\n        associatedAddressDirectory[addressToAdd] = ein;\n    }\n\n    /// @notice Allows an associated address to remove itself from its Identity.\n    function removeAssociatedAddress() public {\n        uint ein = getEIN(msg.sender);\n\n        removeAssociatedAddress(ein, msg.sender);\n\n        emit AssociatedAddressRemoved(msg.sender, ein, msg.sender, false);\n    }\n\n    /// @notice Allows removal of an associated address from an Identity.\n    /// @param addressToRemove An associated address to remove from its Identity.\n    /// @param v The v component of the signature.\n    /// @param r The r component of the signature.\n    /// @param s The s component of the signature.\n    /// @param timestamp The timestamp of the signature.\n    function removeAssociatedAddressDelegated(address addressToRemove, uint8 v, bytes32 r, bytes32 s, uint timestamp)\n        public ensureSignatureTimeValid(timestamp)\n    {\n        uint ein = getEIN(addressToRemove);\n\n        require(\n            isSigned(\n                addressToRemove,\n                keccak256(\n                    abi.encodePacked(\n                        byte(0x19), byte(0), address(this),\n                        \"I authorize removing this address from my Identity.\",\n                        ein, addressToRemove, timestamp\n                    )\n                ),\n                v, r, s\n            ),\n            \"Permission denied.\"\n        );\n\n        removeAssociatedAddress(ein, addressToRemove);\n\n        emit AssociatedAddressRemoved(msg.sender, ein, addressToRemove, true);\n    }\n\n    /// @dev Common logic for all address removal.\n    function removeAssociatedAddress(uint ein, address addressToRemove) private {\n        identityDirectory[ein].associatedAddresses.remove(addressToRemove);\n        delete associatedAddressDirectory[addressToRemove];\n    }\n\n\n    /// @notice Allows an associated address to add providers to its Identity.\n    /// @param providers A list of providers.\n    function addProviders(address[] memory providers) public {\n        addProviders(getEIN(msg.sender), providers, false);\n    }\n\n    /// @notice Allows providers to add providers to an Identity.\n    /// @param ein The EIN to add providers to.\n    /// @param providers A list of providers.\n    function addProvidersFor(uint ein, address[] memory providers) public _isProviderFor(ein) {\n        addProviders(ein, providers, true);\n    }\n\n    /// @dev Common logic for all provider adding.\n    function addProviders(uint ein, address[] memory providers, bool delegated) private {\n        Identity storage _identity = identityDirectory[ein];\n        for (uint i; i < providers.length; i++) {\n            _identity.providers.insert(providers[i]);\n            emit ProviderAdded(msg.sender, ein, providers[i], delegated);\n        }\n    }\n\n    /// @notice Allows an associated address to remove providers from its Identity.\n    /// @param providers A list of providers.\n    function removeProviders(address[] memory providers) public {\n        removeProviders(getEIN(msg.sender), providers, false);\n    }\n\n    /// @notice Allows providers to remove providers to an Identity.\n    /// @param ein The EIN to remove providers from.\n    /// @param providers A list of providers.\n    function removeProvidersFor(uint ein, address[] memory providers) public _isProviderFor(ein) {\n        removeProviders(ein, providers, true);\n    }\n\n    /// @dev Common logic for all provider removal.\n    function removeProviders(uint ein, address[] memory providers, bool delegated) private {\n        Identity storage _identity = identityDirectory[ein];\n        for (uint i; i < providers.length; i++) {\n            _identity.providers.remove(providers[i]);\n            emit ProviderRemoved(msg.sender, ein, providers[i], delegated);\n        }\n    }\n\n    /// @notice Allows an associated address to add resolvers to its Identity.\n    /// @param resolvers A list of resolvers.\n    function addResolvers(address[] memory resolvers) public {\n        addResolvers(getEIN(msg.sender), resolvers, false);\n    }\n\n    /// @notice Allows providers to add resolvers to an Identity.\n    /// @param ein The EIN to add resolvers to.\n    /// @param resolvers A list of resolvers.\n    function addResolversFor(uint ein, address[] memory resolvers) public _isProviderFor(ein) {\n        addResolvers(ein, resolvers, true);\n    }\n\n    /// @dev Common logic for all resolver adding.\n    function addResolvers(uint ein, address[] memory resolvers, bool delegated) private {\n        Identity storage _identity = identityDirectory[ein];\n        for (uint i; i < resolvers.length; i++) {\n            _identity.resolvers.insert(resolvers[i]);\n            emit ResolverAdded(msg.sender, ein, resolvers[i], delegated);\n        }\n    }\n\n    /// @notice Allows an associated address to remove resolvers from its Identity.\n    /// @param resolvers A list of resolvers.\n    function removeResolvers(address[] memory resolvers) public {\n        removeResolvers(getEIN(msg.sender), resolvers, true);\n    }\n\n    /// @notice Allows providers to remove resolvers from an Identity.\n    /// @param ein The EIN to remove resolvers from.\n    /// @param resolvers A list of resolvers.\n    function removeResolversFor(uint ein, address[] memory resolvers) public _isProviderFor(ein) {\n        removeResolvers(ein, resolvers, true);\n    }\n\n    /// @dev Common logic for all resolver removal.\n    function removeResolvers(uint ein, address[] memory resolvers, bool delegated) private {\n        Identity storage _identity = identityDirectory[ein];\n        for (uint i; i < resolvers.length; i++) {\n            _identity.resolvers.remove(resolvers[i]);\n            emit ResolverRemoved(msg.sender, ein, resolvers[i], delegated);\n        }\n    }\n\n\n    // Recovery Management Functions ///////////////////////////////////////////////////////////////////////////////////\n\n    /// @notice Allows an associated address to change the recovery address for its Identity.\n    /// @dev Recovery addresses can be changed at most once every recoveryTimeout seconds.\n    /// @param newRecoveryAddress A recovery address to set for the sender's EIN.\n    function triggerRecoveryAddressChange(address newRecoveryAddress) public {\n        triggerRecoveryAddressChange(getEIN(msg.sender), newRecoveryAddress, false);\n    }\n\n    /// @notice Allows providers to change the recovery address for an Identity.\n    /// @dev Recovery addresses can be changed at most once every recoveryTimeout seconds.\n    /// @param ein The EIN to set the recovery address of.\n    /// @param newRecoveryAddress A recovery address to set for the passed EIN.\n    function triggerRecoveryAddressChangeFor(uint ein, address newRecoveryAddress) public _isProviderFor(ein) {\n        triggerRecoveryAddressChange(ein, newRecoveryAddress, true);\n    }\n\n    /// @dev Common logic for all recovery address changes.\n    function triggerRecoveryAddressChange(uint ein, address newRecoveryAddress, bool delegated) private {\n        Identity storage _identity = identityDirectory[ein];\n\n        require(canChangeRecoveryAddress(ein), \"Cannot trigger a change in recovery address yet.\");\n\n         // solium-disable-next-line security/no-block-members\n        recoveryAddressChangeLogs[ein] = RecoveryAddressChange(block.timestamp, _identity.recoveryAddress);\n\n        emit RecoveryAddressChangeTriggered(msg.sender, ein, _identity.recoveryAddress, newRecoveryAddress, delegated);\n\n        _identity.recoveryAddress = newRecoveryAddress;\n    }\n\n    /// @notice Allows recovery addresses to trigger the recovery process for an Identity.\n    /// @dev msg.sender must be current recovery address, or the old one if it was changed recently.\n    /// @param ein The EIN to trigger recovery for.\n    /// @param newAssociatedAddress A recovery address to set for the passed EIN.\n    /// @param v The v component of the signature.\n    /// @param r The r component of the signature.\n    /// @param s The s component of the signature.\n    /// @param timestamp The timestamp of the signature.\n    function triggerRecovery(uint ein, address newAssociatedAddress, uint8 v, bytes32 r, bytes32 s, uint timestamp)\n        public _identityExists(ein) _hasIdentity(newAssociatedAddress, false) ensureSignatureTimeValid(timestamp)\n    {\n        require(canRecover(ein), \"Cannot trigger recovery yet.\");\n        Identity storage _identity = identityDirectory[ein];\n\n        // ensure the sender is the recovery address/old recovery address if there's been a recent change\n        if (canChangeRecoveryAddress(ein)) {\n            require(\n                msg.sender == _identity.recoveryAddress, \"Only the current recovery address can trigger recovery.\"\n            );\n        } else {\n            require(\n                msg.sender == recoveryAddressChangeLogs[ein].oldRecoveryAddress,\n                \"Only the recently removed recovery address can trigger recovery.\"\n            );\n        }\n\n        require(\n            isSigned(\n                newAssociatedAddress,\n                keccak256(\n                    abi.encodePacked(\n                        byte(0x19), byte(0), address(this),\n                        \"I authorize being added to this Identity via recovery.\",\n                        ein, newAssociatedAddress, timestamp\n                    )\n                ),\n                v, r, s\n            ),\n            \"Permission denied.\"\n        );\n\n        // log the old associated addresses to facilitate destruction if necessary\n        recoveryLogs[ein] = Recovery(\n            block.timestamp, // solium-disable-line security/no-block-members\n            keccak256(abi.encodePacked(_identity.associatedAddresses.members))\n        );\n\n        emit RecoveryTriggered(msg.sender, ein, _identity.associatedAddresses.members, newAssociatedAddress);\n\n        // remove identity data, and add the new address as the sole associated address\n        resetIdentityData(_identity, msg.sender, false);\n        addAssociatedAddress(ein, newAssociatedAddress);\n    }\n\n    /// @notice Allows associated addresses recently removed via recovery to permanently disable their old Identity.\n    /// @param ein The EIN to trigger destruction of.\n    /// @param firstChunk The array of addresses before the msg.sender in the pre-recovery associated addresses array.\n    /// @param lastChunk The array of addresses after the msg.sender in the pre-recovery associated addresses array.\n    /// @param resetResolvers true if the destroyer wants resolvers to be removed, false otherwise.\n    function triggerDestruction(uint ein, address[] memory firstChunk, address[] memory lastChunk, bool resetResolvers)\n        public _identityExists(ein)\n    {\n        require(!canRecover(ein), \"Recovery has not recently been triggered.\");\n        Identity storage _identity = identityDirectory[ein];\n\n        // ensure that the msg.sender was an old associated address for the referenced identity\n        address payable[1] memory middleChunk = [msg.sender];\n        require(\n            keccak256(\n                abi.encodePacked(firstChunk, middleChunk, lastChunk)\n            ) == recoveryLogs[ein].hashedOldAssociatedAddresses,\n            \"Cannot destroy an EIN from an address that was not recently removed from said EIN via recovery.\"\n        );\n\n        emit IdentityDestroyed(msg.sender, ein, _identity.recoveryAddress, resetResolvers);\n\n        resetIdentityData(_identity, address(0), resetResolvers);\n    }\n\n    /// @dev Common logic for clearing the data of an Identity.\n    function resetIdentityData(Identity storage identity, address newRecoveryAddress, bool resetResolvers) private {\n        for (uint i; i < identity.associatedAddresses.members.length; i++) {\n            delete associatedAddressDirectory[identity.associatedAddresses.members[i]];\n        }\n        delete identity.associatedAddresses;\n        delete identity.providers;\n        if (resetResolvers) delete identity.resolvers;\n        identity.recoveryAddress = newRecoveryAddress;\n    }\n\n\n    // Events //////////////////////////////////////////////////////////////////////////////////////////////////////////\n\n    event IdentityCreated(\n        address indexed initiator, uint indexed ein,\n        address recoveryAddress, address associatedAddress, address[] providers, address[] resolvers, bool delegated\n    );\n    event AssociatedAddressAdded(\n        address indexed initiator, uint indexed ein, address approvingAddress, address addedAddress, bool delegated\n    );\n    event AssociatedAddressRemoved(address indexed initiator, uint indexed ein, address removedAddress, bool delegated);\n    event ProviderAdded(address indexed initiator, uint indexed ein, address provider, bool delegated);\n    event ProviderRemoved(address indexed initiator, uint indexed ein, address provider, bool delegated);\n    event ResolverAdded(address indexed initiator, uint indexed ein, address resolvers, bool delegated);\n    event ResolverRemoved(address indexed initiator, uint indexed ein, address resolvers, bool delegated);\n    event RecoveryAddressChangeTriggered(\n        address indexed initiator, uint indexed ein,\n        address oldRecoveryAddress, address newRecoveryAddress, bool delegated\n    );\n    event RecoveryTriggered(\n        address indexed initiator, uint indexed ein, address[] oldAssociatedAddresses, address newAssociatedAddress\n    );\n    event IdentityDestroyed(address indexed initiator, uint indexed ein, address recoveryAddress, bool resolversReset);\n}\n",
  "sourcePath": "/home/luiserebii/github/HydroSnowflake-Marketplace-Coupons/contracts/_testing/IdentityRegistry.sol",
  "compiler": {
    "name": "solc",
    "version": "0.5.7+commit.6da8b019.Emscripten.clang"
  },
  "schemaVersion": "3.0.6",
  "updatedAt": "2019-04-16T02:44:05.122Z",
  "devdoc": {
    "author": "Noah ZinsmeisterAndy Chorlian",
    "methods": {
      "addAssociatedAddress(address,address,uint8,bytes32,bytes32,uint256)": {
        "params": {
          "addressToAdd": "A new address to set for the Identity of the sender.",
          "approvingAddress": "An associated address for an Identity.",
          "r": "The r component of the signature.",
          "s": "The s component of the signature.",
          "timestamp": "The timestamp of the signature.",
          "v": "The v component of the signature."
        }
      },
      "addAssociatedAddressDelegated(address,address,uint8[2],bytes32[2],bytes32[2],uint256[2])": {
        "details": "The first signature must be that of the approvingAddress.",
        "params": {
          "addressToAdd": "A new address to set for the Identity of approvingAddress.",
          "approvingAddress": "An associated address for an Identity.",
          "r": "The r component of the signatures.",
          "s": "The s component of the signatures.",
          "timestamp": "The timestamp of the signatures.",
          "v": "The v component of the signatures."
        }
      },
      "addProviders(address[])": {
        "params": {
          "providers": "A list of providers."
        }
      },
      "addProvidersFor(uint256,address[])": {
        "params": {
          "ein": "The EIN to add providers to.",
          "providers": "A list of providers."
        }
      },
      "addResolvers(address[])": {
        "params": {
          "resolvers": "A list of resolvers."
        }
      },
      "addResolversFor(uint256,address[])": {
        "params": {
          "ein": "The EIN to add resolvers to.",
          "resolvers": "A list of resolvers."
        }
      },
      "createIdentity(address,address[],address[])": {
        "details": "Sets the msg.sender as the only associatedAddress.",
        "params": {
          "providers": "A list of providers to set for the new Identity.",
          "recoveryAddress": "A recovery address to set for the new Identity.",
          "resolvers": "A list of resolvers to set for the new Identity."
        },
        "return": "The EIN of the new Identity."
      },
      "createIdentityDelegated(address,address,address[],address[],uint8,bytes32,bytes32,uint256)": {
        "params": {
          "associatedAddress": "An associated address to set for the new Identity (must have produced the signature).",
          "providers": "A list of providers to set for the new Identity.",
          "r": "The r component of the signature.",
          "recoveryAddress": "A recovery address to set for the new Identity.",
          "resolvers": "A list of resolvers to set for the new Identity.",
          "s": "The s component of the signature.",
          "timestamp": "The timestamp of the signature.",
          "v": "The v component of the signature."
        },
        "return": "The EIN of the new Identity."
      },
      "getEIN(address)": {
        "details": "Throws if the address is not associated with an Identity.",
        "params": {
          "_address": "The address to check."
        },
        "return": "The associated EIN."
      },
      "getIdentity(uint256)": {
        "details": "Throws if the passed EIN does not exist.",
        "params": {
          "ein": "The EIN to get information for."
        },
        "return": "All the information for the Identity denominated by the passed EIN."
      },
      "hasIdentity(address)": {
        "details": "Does not throw.",
        "params": {
          "_address": "The address to check."
        },
        "return": "true if the passed address is associated with an Identity, false otherwise."
      },
      "identityExists(uint256)": {
        "details": "Does not throw.",
        "params": {
          "ein": "The EIN to check the existence of."
        },
        "return": "true if the passed EIN exists, false otherwise."
      },
      "isAssociatedAddressFor(uint256,address)": {
        "details": "Does not throw.",
        "params": {
          "_address": "The address to check.",
          "ein": "The EIN to check."
        },
        "return": "true if the passed address is associated with the passed EIN, false otherwise."
      },
      "isProviderFor(uint256,address)": {
        "details": "Does not throw.",
        "params": {
          "ein": "The EIN to check.",
          "provider": "The provider to check."
        },
        "return": "true if the provider is set for the passed EIN, false otherwise."
      },
      "isResolverFor(uint256,address)": {
        "details": "Does not throw.",
        "params": {
          "ein": "The EIN to check.",
          "resolver": "The resolver to check."
        },
        "return": "true if the resolver is set for the passed EIN, false otherwise."
      },
      "isSigned(address,bytes32,uint8,bytes32,bytes32)": {
        "params": {
          "_address": "The address that may or may not have signed the passed messageHash.",
          "messageHash": "The messageHash that may or may not have been signed.",
          "r": "The r component of the signature.",
          "s": "The s component of the signature.",
          "v": "The v component of the signature."
        },
        "return": "true if the signature can be verified, false otherwise."
      },
      "removeAssociatedAddressDelegated(address,uint8,bytes32,bytes32,uint256)": {
        "params": {
          "addressToRemove": "An associated address to remove from its Identity.",
          "r": "The r component of the signature.",
          "s": "The s component of the signature.",
          "timestamp": "The timestamp of the signature.",
          "v": "The v component of the signature."
        }
      },
      "removeProviders(address[])": {
        "params": {
          "providers": "A list of providers."
        }
      },
      "removeProvidersFor(uint256,address[])": {
        "params": {
          "ein": "The EIN to remove providers from.",
          "providers": "A list of providers."
        }
      },
      "removeResolvers(address[])": {
        "params": {
          "resolvers": "A list of resolvers."
        }
      },
      "removeResolversFor(uint256,address[])": {
        "params": {
          "ein": "The EIN to remove resolvers from.",
          "resolvers": "A list of resolvers."
        }
      },
      "triggerDestruction(uint256,address[],address[],bool)": {
        "params": {
          "ein": "The EIN to trigger destruction of.",
          "firstChunk": "The array of addresses before the msg.sender in the pre-recovery associated addresses array.",
          "lastChunk": "The array of addresses after the msg.sender in the pre-recovery associated addresses array.",
          "resetResolvers": "true if the destroyer wants resolvers to be removed, false otherwise."
        }
      },
      "triggerRecovery(uint256,address,uint8,bytes32,bytes32,uint256)": {
        "details": "msg.sender must be current recovery address, or the old one if it was changed recently.",
        "params": {
          "ein": "The EIN to trigger recovery for.",
          "newAssociatedAddress": "A recovery address to set for the passed EIN.",
          "r": "The r component of the signature.",
          "s": "The s component of the signature.",
          "timestamp": "The timestamp of the signature.",
          "v": "The v component of the signature."
        }
      },
      "triggerRecoveryAddressChange(address)": {
        "details": "Recovery addresses can be changed at most once every recoveryTimeout seconds.",
        "params": {
          "newRecoveryAddress": "A recovery address to set for the sender's EIN."
        }
      },
      "triggerRecoveryAddressChangeFor(uint256,address)": {
        "details": "Recovery addresses can be changed at most once every recoveryTimeout seconds.",
        "params": {
          "ein": "The EIN to set the recovery address of.",
          "newRecoveryAddress": "A recovery address to set for the passed EIN."
        }
      }
    },
    "title": "The ERC-1484 Identity Registry."
  },
  "userdoc": {
    "methods": {
      "addAssociatedAddress(address,address,uint8,bytes32,bytes32,uint256)": {
        "notice": "Allows an associated address to add another associated address to its Identity."
      },
      "addAssociatedAddressDelegated(address,address,uint8[2],bytes32[2],bytes32[2],uint256[2])": {
        "notice": "Allows addition of an associated address to an Identity."
      },
      "addProviders(address[])": {
        "notice": "Allows an associated address to add providers to its Identity."
      },
      "addProvidersFor(uint256,address[])": {
        "notice": "Allows providers to add providers to an Identity."
      },
      "addResolvers(address[])": {
        "notice": "Allows an associated address to add resolvers to its Identity."
      },
      "addResolversFor(uint256,address[])": {
        "notice": "Allows providers to add resolvers to an Identity."
      },
      "createIdentity(address,address[],address[])": {
        "notice": "Create an new Identity for the transaction sender."
      },
      "createIdentityDelegated(address,address,address[],address[],uint8,bytes32,bytes32,uint256)": {
        "notice": "Allows creation of a new Identity for the passed associatedAddress."
      },
      "getEIN(address)": {
        "notice": "Gets the EIN associated with the passed address."
      },
      "getIdentity(uint256)": {
        "notice": "Gets all identity-related information for the passed EIN."
      },
      "hasIdentity(address)": {
        "notice": "Checks if the passed address is associated with an Identity."
      },
      "identityExists(uint256)": {
        "notice": "Checks if the passed EIN exists."
      },
      "isAssociatedAddressFor(uint256,address)": {
        "notice": "Checks whether the passed EIN is associated with the passed address."
      },
      "isProviderFor(uint256,address)": {
        "notice": "Checks whether the passed provider is set for the passed EIN."
      },
      "isResolverFor(uint256,address)": {
        "notice": "Checks whether the passed resolver is set for the passed EIN."
      },
      "isSigned(address,bytes32,uint8,bytes32,bytes32)": {
        "notice": "Determines whether the passed signature of `messageHash` was made by the private key of `_address`."
      },
      "removeAssociatedAddress()": {
        "notice": "Allows an associated address to remove itself from its Identity."
      },
      "removeAssociatedAddressDelegated(address,uint8,bytes32,bytes32,uint256)": {
        "notice": "Allows removal of an associated address from an Identity."
      },
      "removeProviders(address[])": {
        "notice": "Allows an associated address to remove providers from its Identity."
      },
      "removeProvidersFor(uint256,address[])": {
        "notice": "Allows providers to remove providers to an Identity."
      },
      "removeResolvers(address[])": {
        "notice": "Allows an associated address to remove resolvers from its Identity."
      },
      "removeResolversFor(uint256,address[])": {
        "notice": "Allows providers to remove resolvers from an Identity."
      },
      "triggerDestruction(uint256,address[],address[],bool)": {
        "notice": "Allows associated addresses recently removed via recovery to permanently disable their old Identity."
      },
      "triggerRecovery(uint256,address,uint8,bytes32,bytes32,uint256)": {
        "notice": "Allows recovery addresses to trigger the recovery process for an Identity."
      },
      "triggerRecoveryAddressChange(address)": {
        "notice": "Allows an associated address to change the recovery address for its Identity."
      },
      "triggerRecoveryAddressChangeFor(uint256,address)": {
        "notice": "Allows providers to change the recovery address for an Identity."
      }
    }
  }
}