{
  "contractName": "IdentityRegistry",
  "abi": [
    {
      "constant": true,
      "inputs": [],
      "name": "recoveryTimeout",
      "outputs": [
        {
          "name": "",
          "type": "uint256"
        }
      ],
      "payable": false,
      "stateMutability": "view",
      "type": "function"
    },
    {
      "constant": true,
      "inputs": [],
      "name": "signatureTimeout",
      "outputs": [
        {
          "name": "",
          "type": "uint256"
        }
      ],
      "payable": false,
      "stateMutability": "view",
      "type": "function"
    },
    {
      "constant": true,
      "inputs": [
        {
          "name": "_address",
          "type": "address"
        },
        {
          "name": "messageHash",
          "type": "bytes32"
        },
        {
          "name": "v",
          "type": "uint8"
        },
        {
          "name": "r",
          "type": "bytes32"
        },
        {
          "name": "s",
          "type": "bytes32"
        }
      ],
      "name": "isSigned",
      "outputs": [
        {
          "name": "",
          "type": "bool"
        }
      ],
      "payable": false,
      "stateMutability": "pure",
      "type": "function"
    },
    {
      "constant": true,
      "inputs": [],
      "name": "nextEIN",
      "outputs": [
        {
          "name": "",
          "type": "uint256"
        }
      ],
      "payable": false,
      "stateMutability": "view",
      "type": "function"
    },
    {
      "constant": true,
      "inputs": [],
      "name": "maxAssociatedAddresses",
      "outputs": [
        {
          "name": "",
          "type": "uint256"
        }
      ],
      "payable": false,
      "stateMutability": "view",
      "type": "function"
    },
    {
      "anonymous": false,
      "inputs": [
        {
          "indexed": true,
          "name": "initiator",
          "type": "address"
        },
        {
          "indexed": true,
          "name": "ein",
          "type": "uint256"
        },
        {
          "indexed": false,
          "name": "recoveryAddress",
          "type": "address"
        },
        {
          "indexed": false,
          "name": "associatedAddress",
          "type": "address"
        },
        {
          "indexed": false,
          "name": "providers",
          "type": "address[]"
        },
        {
          "indexed": false,
          "name": "resolvers",
          "type": "address[]"
        },
        {
          "indexed": false,
          "name": "delegated",
          "type": "bool"
        }
      ],
      "name": "IdentityCreated",
      "type": "event"
    },
    {
      "anonymous": false,
      "inputs": [
        {
          "indexed": true,
          "name": "initiator",
          "type": "address"
        },
        {
          "indexed": true,
          "name": "ein",
          "type": "uint256"
        },
        {
          "indexed": false,
          "name": "approvingAddress",
          "type": "address"
        },
        {
          "indexed": false,
          "name": "addedAddress",
          "type": "address"
        },
        {
          "indexed": false,
          "name": "delegated",
          "type": "bool"
        }
      ],
      "name": "AssociatedAddressAdded",
      "type": "event"
    },
    {
      "anonymous": false,
      "inputs": [
        {
          "indexed": true,
          "name": "initiator",
          "type": "address"
        },
        {
          "indexed": true,
          "name": "ein",
          "type": "uint256"
        },
        {
          "indexed": false,
          "name": "removedAddress",
          "type": "address"
        },
        {
          "indexed": false,
          "name": "delegated",
          "type": "bool"
        }
      ],
      "name": "AssociatedAddressRemoved",
      "type": "event"
    },
    {
      "anonymous": false,
      "inputs": [
        {
          "indexed": true,
          "name": "initiator",
          "type": "address"
        },
        {
          "indexed": true,
          "name": "ein",
          "type": "uint256"
        },
        {
          "indexed": false,
          "name": "provider",
          "type": "address"
        },
        {
          "indexed": false,
          "name": "delegated",
          "type": "bool"
        }
      ],
      "name": "ProviderAdded",
      "type": "event"
    },
    {
      "anonymous": false,
      "inputs": [
        {
          "indexed": true,
          "name": "initiator",
          "type": "address"
        },
        {
          "indexed": true,
          "name": "ein",
          "type": "uint256"
        },
        {
          "indexed": false,
          "name": "provider",
          "type": "address"
        },
        {
          "indexed": false,
          "name": "delegated",
          "type": "bool"
        }
      ],
      "name": "ProviderRemoved",
      "type": "event"
    },
    {
      "anonymous": false,
      "inputs": [
        {
          "indexed": true,
          "name": "initiator",
          "type": "address"
        },
        {
          "indexed": true,
          "name": "ein",
          "type": "uint256"
        },
        {
          "indexed": false,
          "name": "resolvers",
          "type": "address"
        },
        {
          "indexed": false,
          "name": "delegated",
          "type": "bool"
        }
      ],
      "name": "ResolverAdded",
      "type": "event"
    },
    {
      "anonymous": false,
      "inputs": [
        {
          "indexed": true,
          "name": "initiator",
          "type": "address"
        },
        {
          "indexed": true,
          "name": "ein",
          "type": "uint256"
        },
        {
          "indexed": false,
          "name": "resolvers",
          "type": "address"
        },
        {
          "indexed": false,
          "name": "delegated",
          "type": "bool"
        }
      ],
      "name": "ResolverRemoved",
      "type": "event"
    },
    {
      "anonymous": false,
      "inputs": [
        {
          "indexed": true,
          "name": "initiator",
          "type": "address"
        },
        {
          "indexed": true,
          "name": "ein",
          "type": "uint256"
        },
        {
          "indexed": false,
          "name": "oldRecoveryAddress",
          "type": "address"
        },
        {
          "indexed": false,
          "name": "newRecoveryAddress",
          "type": "address"
        },
        {
          "indexed": false,
          "name": "delegated",
          "type": "bool"
        }
      ],
      "name": "RecoveryAddressChangeTriggered",
      "type": "event"
    },
    {
      "anonymous": false,
      "inputs": [
        {
          "indexed": true,
          "name": "initiator",
          "type": "address"
        },
        {
          "indexed": true,
          "name": "ein",
          "type": "uint256"
        },
        {
          "indexed": false,
          "name": "oldAssociatedAddresses",
          "type": "address[]"
        },
        {
          "indexed": false,
          "name": "newAssociatedAddress",
          "type": "address"
        }
      ],
      "name": "RecoveryTriggered",
      "type": "event"
    },
    {
      "anonymous": false,
      "inputs": [
        {
          "indexed": true,
          "name": "initiator",
          "type": "address"
        },
        {
          "indexed": true,
          "name": "ein",
          "type": "uint256"
        },
        {
          "indexed": false,
          "name": "recoveryAddress",
          "type": "address"
        },
        {
          "indexed": false,
          "name": "resolversReset",
          "type": "bool"
        }
      ],
      "name": "IdentityDestroyed",
      "type": "event"
    },
    {
      "constant": true,
      "inputs": [
        {
          "name": "ein",
          "type": "uint256"
        }
      ],
      "name": "identityExists",
      "outputs": [
        {
          "name": "",
          "type": "bool"
        }
      ],
      "payable": false,
      "stateMutability": "view",
      "type": "function"
    },
    {
      "constant": true,
      "inputs": [
        {
          "name": "_address",
          "type": "address"
        }
      ],
      "name": "hasIdentity",
      "outputs": [
        {
          "name": "",
          "type": "bool"
        }
      ],
      "payable": false,
      "stateMutability": "view",
      "type": "function"
    },
    {
      "constant": true,
      "inputs": [
        {
          "name": "_address",
          "type": "address"
        }
      ],
      "name": "getEIN",
      "outputs": [
        {
          "name": "ein",
          "type": "uint256"
        }
      ],
      "payable": false,
      "stateMutability": "view",
      "type": "function"
    },
    {
      "constant": true,
      "inputs": [
        {
          "name": "ein",
          "type": "uint256"
        },
        {
          "name": "_address",
          "type": "address"
        }
      ],
      "name": "isAssociatedAddressFor",
      "outputs": [
        {
          "name": "",
          "type": "bool"
        }
      ],
      "payable": false,
      "stateMutability": "view",
      "type": "function"
    },
    {
      "constant": true,
      "inputs": [
        {
          "name": "ein",
          "type": "uint256"
        },
        {
          "name": "provider",
          "type": "address"
        }
      ],
      "name": "isProviderFor",
      "outputs": [
        {
          "name": "",
          "type": "bool"
        }
      ],
      "payable": false,
      "stateMutability": "view",
      "type": "function"
    },
    {
      "constant": true,
      "inputs": [
        {
          "name": "ein",
          "type": "uint256"
        },
        {
          "name": "resolver",
          "type": "address"
        }
      ],
      "name": "isResolverFor",
      "outputs": [
        {
          "name": "",
          "type": "bool"
        }
      ],
      "payable": false,
      "stateMutability": "view",
      "type": "function"
    },
    {
      "constant": true,
      "inputs": [
        {
          "name": "ein",
          "type": "uint256"
        }
      ],
      "name": "getIdentity",
      "outputs": [
        {
          "name": "recoveryAddress",
          "type": "address"
        },
        {
          "name": "associatedAddresses",
          "type": "address[]"
        },
        {
          "name": "providers",
          "type": "address[]"
        },
        {
          "name": "resolvers",
          "type": "address[]"
        }
      ],
      "payable": false,
      "stateMutability": "view",
      "type": "function"
    },
    {
      "constant": false,
      "inputs": [
        {
          "name": "recoveryAddress",
          "type": "address"
        },
        {
          "name": "associatedAddress",
          "type": "address"
        },
        {
          "name": "providers",
          "type": "address[]"
        },
        {
          "name": "resolvers",
          "type": "address[]"
        },
        {
          "name": "v",
          "type": "uint8"
        },
        {
          "name": "r",
          "type": "bytes32"
        },
        {
          "name": "s",
          "type": "bytes32"
        },
        {
          "name": "timestamp",
          "type": "uint256"
        }
      ],
      "name": "createIdentityDelegated",
      "outputs": [
        {
          "name": "ein",
          "type": "uint256"
        }
      ],
      "payable": false,
      "stateMutability": "nonpayable",
      "type": "function"
    },
    {
      "constant": false,
      "inputs": [
        {
          "name": "recoveryAddress",
          "type": "address"
        },
        {
          "name": "providers",
          "type": "address[]"
        },
        {
          "name": "resolvers",
          "type": "address[]"
        }
      ],
      "name": "createIdentity",
      "outputs": [
        {
          "name": "ein",
          "type": "uint256"
        }
      ],
      "payable": false,
      "stateMutability": "nonpayable",
      "type": "function"
    },
    {
      "constant": false,
      "inputs": [
        {
          "name": "approvingAddress",
          "type": "address"
        },
        {
          "name": "addressToAdd",
          "type": "address"
        },
        {
          "name": "v",
          "type": "uint8[2]"
        },
        {
          "name": "r",
          "type": "bytes32[2]"
        },
        {
          "name": "s",
          "type": "bytes32[2]"
        },
        {
          "name": "timestamp",
          "type": "uint256[2]"
        }
      ],
      "name": "addAssociatedAddressDelegated",
      "outputs": [],
      "payable": false,
      "stateMutability": "nonpayable",
      "type": "function"
    },
    {
      "constant": false,
      "inputs": [
        {
          "name": "approvingAddress",
          "type": "address"
        },
        {
          "name": "addressToAdd",
          "type": "address"
        },
        {
          "name": "v",
          "type": "uint8"
        },
        {
          "name": "r",
          "type": "bytes32"
        },
        {
          "name": "s",
          "type": "bytes32"
        },
        {
          "name": "timestamp",
          "type": "uint256"
        }
      ],
      "name": "addAssociatedAddress",
      "outputs": [],
      "payable": false,
      "stateMutability": "nonpayable",
      "type": "function"
    },
    {
      "constant": false,
      "inputs": [
        {
          "name": "addressToRemove",
          "type": "address"
        },
        {
          "name": "v",
          "type": "uint8"
        },
        {
          "name": "r",
          "type": "bytes32"
        },
        {
          "name": "s",
          "type": "bytes32"
        },
        {
          "name": "timestamp",
          "type": "uint256"
        }
      ],
      "name": "removeAssociatedAddressDelegated",
      "outputs": [],
      "payable": false,
      "stateMutability": "nonpayable",
      "type": "function"
    },
    {
      "constant": false,
      "inputs": [],
      "name": "removeAssociatedAddress",
      "outputs": [],
      "payable": false,
      "stateMutability": "nonpayable",
      "type": "function"
    },
    {
      "constant": false,
      "inputs": [
        {
          "name": "ein",
          "type": "uint256"
        },
        {
          "name": "providers",
          "type": "address[]"
        }
      ],
      "name": "addProvidersFor",
      "outputs": [],
      "payable": false,
      "stateMutability": "nonpayable",
      "type": "function"
    },
    {
      "constant": false,
      "inputs": [
        {
          "name": "providers",
          "type": "address[]"
        }
      ],
      "name": "addProviders",
      "outputs": [],
      "payable": false,
      "stateMutability": "nonpayable",
      "type": "function"
    },
    {
      "constant": false,
      "inputs": [
        {
          "name": "ein",
          "type": "uint256"
        },
        {
          "name": "providers",
          "type": "address[]"
        }
      ],
      "name": "removeProvidersFor",
      "outputs": [],
      "payable": false,
      "stateMutability": "nonpayable",
      "type": "function"
    },
    {
      "constant": false,
      "inputs": [
        {
          "name": "providers",
          "type": "address[]"
        }
      ],
      "name": "removeProviders",
      "outputs": [],
      "payable": false,
      "stateMutability": "nonpayable",
      "type": "function"
    },
    {
      "constant": false,
      "inputs": [
        {
          "name": "ein",
          "type": "uint256"
        },
        {
          "name": "resolvers",
          "type": "address[]"
        }
      ],
      "name": "addResolversFor",
      "outputs": [],
      "payable": false,
      "stateMutability": "nonpayable",
      "type": "function"
    },
    {
      "constant": false,
      "inputs": [
        {
          "name": "resolvers",
          "type": "address[]"
        }
      ],
      "name": "addResolvers",
      "outputs": [],
      "payable": false,
      "stateMutability": "nonpayable",
      "type": "function"
    },
    {
      "constant": false,
      "inputs": [
        {
          "name": "ein",
          "type": "uint256"
        },
        {
          "name": "resolvers",
          "type": "address[]"
        }
      ],
      "name": "removeResolversFor",
      "outputs": [],
      "payable": false,
      "stateMutability": "nonpayable",
      "type": "function"
    },
    {
      "constant": false,
      "inputs": [
        {
          "name": "resolvers",
          "type": "address[]"
        }
      ],
      "name": "removeResolvers",
      "outputs": [],
      "payable": false,
      "stateMutability": "nonpayable",
      "type": "function"
    },
    {
      "constant": false,
      "inputs": [
        {
          "name": "ein",
          "type": "uint256"
        },
        {
          "name": "newRecoveryAddress",
          "type": "address"
        }
      ],
      "name": "triggerRecoveryAddressChangeFor",
      "outputs": [],
      "payable": false,
      "stateMutability": "nonpayable",
      "type": "function"
    },
    {
      "constant": false,
      "inputs": [
        {
          "name": "newRecoveryAddress",
          "type": "address"
        }
      ],
      "name": "triggerRecoveryAddressChange",
      "outputs": [],
      "payable": false,
      "stateMutability": "nonpayable",
      "type": "function"
    },
    {
      "constant": false,
      "inputs": [
        {
          "name": "ein",
          "type": "uint256"
        },
        {
          "name": "newAssociatedAddress",
          "type": "address"
        },
        {
          "name": "v",
          "type": "uint8"
        },
        {
          "name": "r",
          "type": "bytes32"
        },
        {
          "name": "s",
          "type": "bytes32"
        },
        {
          "name": "timestamp",
          "type": "uint256"
        }
      ],
      "name": "triggerRecovery",
      "outputs": [],
      "payable": false,
      "stateMutability": "nonpayable",
      "type": "function"
    },
    {
      "constant": false,
      "inputs": [
        {
          "name": "ein",
          "type": "uint256"
        },
        {
          "name": "firstChunk",
          "type": "address[]"
        },
        {
          "name": "lastChunk",
          "type": "address[]"
        },
        {
          "name": "resetResolvers",
          "type": "bool"
        }
      ],
      "name": "triggerDestruction",
      "outputs": [],
      "payable": false,
      "stateMutability": "nonpayable",
      "type": "function"
    }
  ],
  "bytecode": "0x608060405260016002556032600355620151806004556212750060075534801561002857600080fd5b50613c21806100386000396000f3fe6080604052600436106101665763ffffffff60e060020a600035041663010887dc811461016b57806305c62c2f1461022457806306c93c361461026957806314d8b8211461032057806314fb5646146103355780631bfe350814610497578063232e7d83146104ca578063237f1a211461057a5780632501faa5146105c1578063268e8970146105fa5780633aedf3c91461073e5780633b4656a11461079657806353a9698a146107ab5780635437b67c146107e45780635726f660146107f95780635b5aed3a146108b05780637d079951146108da57806385e3f0581461098a5780638677ebe814610aab5780638e1bb63314610af9578063960b11f514610b4d578063a1707e7b14610c04578063a687662d14610c19578063ab5f678114610c52578063ab9a853814610d3f578063b8a5c2a614610d54578063d4b1cdcc14610e04578063dd9ad9ed14610e3d578063e846fd9114610e8b578063fa57b57614610f3b575b600080fd5b34801561017757600080fd5b506102226004803603604081101561018e57600080fd5b813591908101906040810160208201356401000000008111156101b057600080fd5b8201836020820111156101c257600080fd5b803590602001918460208302840111640100000000831117156101e457600080fd5b919080806020026020016040519081016040528093929190818152602001838360200280828437600092019190915250929550611078945050505050565b005b34801561023057600080fd5b506102576004803603602081101561024757600080fd5b5035600160a060020a03166110ec565b60408051918252519081900360200190f35b34801561027557600080fd5b506102226004803603604081101561028c57600080fd5b813591908101906040810160208201356401000000008111156102ae57600080fd5b8201836020820111156102c057600080fd5b803590602001918460208302840111640100000000831117156102e257600080fd5b919080806020026020016040519081016040528093929190818152602001838360200280828437600092019190915250929550611228945050505050565b34801561032c57600080fd5b50610257611297565b34801561034157600080fd5b50610257600480360361010081101561035957600080fd5b600160a060020a03823581169260208101359091169181019060608101604082013564010000000081111561038d57600080fd5b82018360208201111561039f57600080fd5b803590602001918460208302840111640100000000831117156103c157600080fd5b919080806020026020016040519081016040528093929190818152602001838360200280828437600092019190915250929594936020810193503591505064010000000081111561041157600080fd5b82018360208201111561042357600080fd5b8035906020019184602083028401116401000000008311171561044557600080fd5b9190808060200260200160405190810160405280939291908181526020018383602002808284376000920191909152509295505060ff833516935050506020810135906040810135906060013561129d565b3480156104a357600080fd5b50610222600480360360208110156104ba57600080fd5b5035600160a060020a031661151a565b3480156104d657600080fd5b50610222600480360360208110156104ed57600080fd5b81019060208101813564010000000081111561050857600080fd5b82018360208201111561051a57600080fd5b8035906020019184602083028401116401000000008311171561053c57600080fd5b919080806020026020016040519081016040528093929190818152602001838360200280828437600092019190915250929550611531945050505050565b34801561058657600080fd5b506105ad6004803603602081101561059d57600080fd5b5035600160a060020a0316611545565b604080519115158252519081900360200190f35b3480156105cd57600080fd5b50610222600480360360408110156105e457600080fd5b5080359060200135600160a060020a031661156d565b34801561060657600080fd5b506102576004803603606081101561061d57600080fd5b600160a060020a03823516919081019060408101602082013564010000000081111561064857600080fd5b82018360208201111561065a57600080fd5b8035906020019184602083028401116401000000008311171561067c57600080fd5b91908080602002602001604051908101604052809392919081815260200183836020028082843760009201919091525092959493602081019350359150506401000000008111156106cc57600080fd5b8201836020820111156106de57600080fd5b8035906020019184602083028401116401000000008311171561070057600080fd5b9190808060200260200160405190810160405280939291908181526020018383602002808284376000920191909152509295506115dc945050505050565b34801561074a57600080fd5b50610222600480360360c081101561076157600080fd5b50600160a060020a03813581169160208101359091169060ff6040820135169060608101359060808101359060a001356115f4565b3480156107a257600080fd5b50610222611976565b3480156107b757600080fd5b506105ad600480360360408110156107ce57600080fd5b5080359060200135600160a060020a03166119ce565b3480156107f057600080fd5b50610257611a87565b34801561080557600080fd5b506102226004803603604081101561081c57600080fd5b8135919081019060408101602082013564010000000081111561083e57600080fd5b82018360208201111561085057600080fd5b8035906020019184602083028401116401000000008311171561087257600080fd5b919080806020026020016040519081016040528093929190818152602001838360200280828437600092019190915250929550611a8d945050505050565b3480156108bc57600080fd5b506105ad600480360360208110156108d357600080fd5b5035611afc565b3480156108e657600080fd5b50610222600480360360208110156108fd57600080fd5b81019060208101813564010000000081111561091857600080fd5b82018360208201111561092a57600080fd5b8035906020019184602083028401116401000000008311171561094c57600080fd5b919080806020026020016040519081016040528093929190818152602001838360200280828437600092019190915250929550611b11945050505050565b34801561099657600080fd5b506109b4600480360360208110156109ad57600080fd5b5035611b25565b6040518085600160a060020a0316600160a060020a03168152602001806020018060200180602001848103845287818151815260200191508051906020019060200280838360005b83811015610a145781810151838201526020016109fc565b50505050905001848103835286818151815260200191508051906020019060200280838360005b83811015610a53578181015183820152602001610a3b565b50505050905001848103825285818151815260200191508051906020019060200280838360005b83811015610a92578181015183820152602001610a7a565b5050505090500197505050505050505060405180910390f35b348015610ab757600080fd5b506105ad600480360360a0811015610ace57600080fd5b50600160a060020a038135169060208101359060ff6040820135169060608101359060800135611cda565b348015610b0557600080fd5b50610222600480360360c0811015610b1c57600080fd5b50803590600160a060020a036020820135169060ff6040820135169060608101359060808101359060a00135611d06565b348015610b5957600080fd5b5061022260048036036040811015610b7057600080fd5b81359190810190604081016020820135640100000000811115610b9257600080fd5b820183602082011115610ba457600080fd5b80359060200191846020830284011164010000000083111715610bc657600080fd5b9190808060200260200160405190810160405280939291908181526020018383602002808284376000920191909152509295506122a5945050505050565b348015610c1057600080fd5b50610257612314565b348015610c2557600080fd5b506105ad60048036036040811015610c3c57600080fd5b5080359060200135600160a060020a031661231a565b348015610c5e57600080fd5b506102226004803603610140811015610c7657600080fd5b604080518082018252600160a060020a038435811694602081013590911693810192909160808301918084019060029083908390808284376000920191909152505060408051808201825292959493818101939250906002908390839080828437600092019190915250506040805180820182529295949381810193925090600290839083908082843760009201919091525050604080518082018252929594938181019392509060029083908390808284376000920191909152509194506123a09350505050565b348015610d4b57600080fd5b5061025761274c565b348015610d6057600080fd5b5061022260048036036020811015610d7757600080fd5b810190602081018135640100000000811115610d9257600080fd5b820183602082011115610da457600080fd5b80359060200191846020830284011164010000000083111715610dc657600080fd5b919080806020026020016040519081016040528093929190818152602001838360200280828437600092019190915250929550612752945050505050565b348015610e1057600080fd5b506105ad60048036036040811015610e2757600080fd5b5080359060200135600160a060020a0316612766565b348015610e4957600080fd5b50610222600480360360a0811015610e6057600080fd5b50600160a060020a038135169060ff60208201351690604081013590606081013590608001356127ec565b348015610e9757600080fd5b5061022260048036036020811015610eae57600080fd5b810190602081018135640100000000811115610ec957600080fd5b820183602082011115610edb57600080fd5b80359060200191846020830284011164010000000083111715610efd57600080fd5b9190808060200260200160405190810160405280939291908181526020018383602002808284376000920191909152509295506129aa945050505050565b348015610f4757600080fd5b5061022260048036036080811015610f5e57600080fd5b81359190810190604081016020820135640100000000811115610f8057600080fd5b820183602082011115610f9257600080fd5b80359060200191846020830284011164010000000083111715610fb457600080fd5b919080806020026020016040519081016040528093929190818152602001838360200280828437600092019190915250929594936020810193503591505064010000000081111561100457600080fd5b82018360208201111561101657600080fd5b8035906020019184602083028401116401000000008311171561103857600080fd5b91908080602002602001604051908101604052809392919081815260200183836020028082843760009201919091525092955050505035151590506129be565b8161108381336119ce565b15156110db576040805160e560020a62461bcd02815260206004820152602d6024820152600080516020613b968339815191526044820152600080516020613bb6833981519152606482015290519081900360840190fd5b6110e783836001612ca5565b505050565b6000816001806110fb83611545565b151514816111415760606040519081016040528060328152602001600080516020613b368339815191528152602001600080516020613bd683398151915281525061117b565b60606040519081016040528060388152602001600080516020613b768339815191528152602001600080516020613b168339815191528152505b9015156112095760405160e560020a62461bcd0281526004018080602001828103825283818151815260200191508051906020019080838360005b838110156111ce5781810151838201526020016111b6565b50505050905090810190601f1680156111fb5780820380516001836020036101000a031916815260200191505b509250505060405180910390fd5b50505050600160a060020a031660009081526001602052604090205490565b8161123381336119ce565b151561128b576040805160e560020a62461bcd02815260206004820152602d6024820152600080516020613b968339815191526044820152600080516020613bb6833981519152606482015290519081900360840190fd5b6110e783836001612dd8565b60075481565b6000818042101580156112b35750600454810142105b15156112f7576040805160e560020a62461bcd0281526020600482015260176024820152600080516020613b56833981519152604482015290519081900360640190fd5b6114ba8960197f01000000000000000000000000000000000000000000000000000000000000000260007f010000000000000000000000000000000000000000000000000000000000000002308e8e8e8e8b6040516020018089600160f860020a031916600160f860020a031916815260010188600160f860020a031916600160f860020a031916815260010187600160a060020a0316600160a060020a0316606060020a028152601401807f4920617574686f72697a6520746865206372656174696f6e206f6620616e204981526020017f64656e74697479206f6e206d7920626568616c662e000000000000000000000081525060350186600160a060020a0316600160a060020a0316606060020a02815260140185600160a060020a0316600160a060020a0316606060020a028152601401848051906020019060200280838360005b8381101561145557818101518382015260200161143d565b50505050905001838051906020019060200280838360005b8381101561148557818101518382015260200161146d565b505050509050018281526020019850505050505050505060405160208183030381529060405280519060200120888888611cda565b15156114fe576040805160e560020a62461bcd0281526020600482015260126024820152600080516020613af6833981519152604482015290519081900360640190fd5b61150c8a8a8a8a6001612f04565b9a9950505050505050505050565b61152e611526336110ec565b826000613157565b50565b61152e61153d336110ec565b826000612dd8565b600160a060020a03811660009081526001602052604081205461156790611afc565b92915050565b8161157881336119ce565b15156115d0576040805160e560020a62461bcd02815260206004820152602d6024820152600080516020613b968339815191526044820152600080516020613bb6833981519152606482015290519081900360840190fd5b6110e783836001613157565b60006115ec843385856000612f04565b949350505050565b808042101580156116085750600454810142105b151561164c576040805160e560020a62461bcd0281526020600482015260176024820152600080516020613b56833981519152604482015290519081900360640190fd5b33600160a060020a03881614808061166c575033600160a060020a038816145b15156116e8576040805160e560020a62461bcd02815260206004820152603260248201527f4f6e65206f7220626f7468206f6620746865207061737365642061646472657360448201527f73657320617265206d616c666f726d65642e0000000000000000000000000000606482015290519081900360840190fd5b60006116f3896110ec565b90506118cf826117035789611705565b885b60f860020a6019026000308661177757606060405190810160405280602f81526020017f4920617574686f72697a6520616464696e67207468697320616464726573732081526020017f746f206d79204964656e746974792e00000000000000000000000000000000008152506117d5565b606060405190810160405280602981526020017f4920617574686f72697a65206265696e6720616464656420746f20746869732081526020017f4964656e746974792e00000000000000000000000000000000000000000000008152505b868e8b6040516020018088600160f860020a031916600160f860020a031916815260010187600160f860020a031916600160f860020a031916815260010186600160a060020a0316600160a060020a0316606060020a02815260140185805190602001908083835b6020831061185c5780518252601f19909201916020918201910161183d565b6001836020036101000a03801982511681845116808217855250505050505090500184815260200183600160a060020a0316600160a060020a0316606060020a02815260140182815260200197505050505050505060405160208183030381529060405280519060200120898989611cda565b1515611913576040805160e560020a62461bcd0281526020600482015260126024820152600080516020613af6833981519152604482015290519081900360640190fd5b61191d81896132c0565b60408051600160a060020a038b811682528a1660208201526000818301529051829133917f1e0c87f4d9edce88868577315152d327d02ff25d2cb9384cd6ee609a9f56b64e9181900360600190a3505050505050505050565b6000611981336110ec565b905061198d813361355c565b6040805133808252600060208301528251849391927f04095b6a64a9a32bafa887e731a82f91cdec3bf819389deea6aa34a488034f7d92908290030190a350565b60008281526020818152604080832081517f3412d5f200000000000000000000000000000000000000000000000000000000815260039091016004820152600160a060020a0385166024820152905173__AddressSet____________________________92633412d5f29260448082019391829003018186803b158015611a5457600080fd5b505af4158015611a68573d6000803e3d6000fd5b505050506040513d6020811015611a7e57600080fd5b50519392505050565b60045481565b81611a9881336119ce565b1515611af0576040805160e560020a62461bcd02815260206004820152602d6024820152600080516020613b968339815191526044820152600080516020613bb6833981519152606482015290519081900360840190fd5b6110e783836001613615565b60006002548210801561156757505060001090565b61152e611b1d336110ec565b826000613741565b6000606080606084611b3681611afc565b1515611b8c576040805160e560020a62461bcd02815260206004820152601c60248201527f546865206964656e7469747920646f6573206e6f742065786973742e00000000604482015290519081900360640190fd5b6000868152602081815260409182902080546001820180548551818602810186019096528086529294600160a060020a039092169390926003860192600587019290918591830182828015611c0a57602002820191906000526020600020905b8154600160a060020a03168152600190910190602001808311611bec575b5050505050925081805480602002602001604051908101604052809291908181526020018280548015611c6657602002820191906000526020600020905b8154600160a060020a03168152600190910190602001808311611c48575b5050505050915080805480602002602001604051908101604052809291908181526020018280548015611cc257602002820191906000526020600020905b8154600160a060020a03168152600190910190602001808311611ca4575b50505050509050955095509550955050509193509193565b6000611ce9868686868661386d565b80611cfc5750611cfc86868686866138f5565b9695505050505050565b85611d1081611afc565b1515611d66576040805160e560020a62461bcd02815260206004820152601c60248201527f546865206964656e7469747920646f6573206e6f742065786973742e00000000604482015290519081900360640190fd5b85600080611d7383611545565b15151481611db95760606040519081016040528060328152602001600080516020613b368339815191528152602001600080516020613bd6833981519152815250611df3565b60606040519081016040528060388152602001600080516020613b768339815191528152602001600080516020613b168339815191528152505b901515611e455760405160e560020a62461bcd028152600401808060200182810382528381815181526020019150805190602001908083836000838110156111ce5781810151838201526020016111b6565b5083804210158015611e5a5750600454810142105b1515611e9e576040805160e560020a62461bcd0281526020600482015260176024820152600080516020613b56833981519152604482015290519081900360640190fd5b611ea78a6139b0565b1515611efd576040805160e560020a62461bcd02815260206004820152601c60248201527f43616e6e6f742074726967676572207265636f76657279207965742e00000000604482015290519081900360640190fd5b60008a8152602081905260409020611f148b6139c9565b15611fa5578054600160a060020a03163314611fa0576040805160e560020a62461bcd02815260206004820152603760248201527f4f6e6c79207468652063757272656e74207265636f766572792061646472657360448201527f732063616e2074726967676572207265636f766572792e000000000000000000606482015290519081900360840190fd5b61203c565b60008b815260056020526040902060010154600160a060020a0316331461203c576040805160e560020a62461bcd02815260206004820152602481018290527f4f6e6c792074686520726563656e746c792072656d6f766564207265636f766560448201527f727920616464726573732063616e2074726967676572207265636f766572792e606482015290519081900360840190fd5b6040805160f860020a60190260208083019190915260006021830152606060020a30810260228401527f4920617574686f72697a65206265696e6720616464656420746f20746869732060368401527f4964656e7469747920766961207265636f766572792e000000000000000000006056840152606c83018f9052600160a060020a038e1602608c83015260a08083018a90528351808403909101815260c090920190925280519101206120f5908b908b8b8b611cda565b1515612139576040805160e560020a62461bcd0281526020600482015260126024820152600080516020613af6833981519152604482015290519081900360640190fd5b60408051908101604052804281526020018260010160000160405160200180828054801561219057602002820191906000526020600020905b8154600160a060020a03168152600190910190602001808311612172575b505091505060405160208183030381529060405280519060200120815250600660008d815260200190815260200160002060008201518160000155602082015181600101559050508a33600160a060020a03167f2fe95fbd211d0471c596b1f81d913d1389d5d1ddeb2bdd96143acc651aa3b02e836001016000018d604051808060200183600160a060020a0316600160a060020a03168152602001828103825284818154815260200191508054801561227357602002820191906000526020600020905b8154600160a060020a03168152600190910190602001808311612255575b5050935050505060405180910390a361228e813360006139e2565b6122988b8b6132c0565b5050505050505050505050565b816122b081336119ce565b1515612308576040805160e560020a62461bcd02815260206004820152602d6024820152600080516020613b968339815191526044820152600080516020613bb6833981519152606482015290519081900360840190fd5b6110e783836001613741565b60025481565b60008281526020818152604080832081517f3412d5f200000000000000000000000000000000000000000000000000000000815260019091016004820152600160a060020a0385166024820152905173__AddressSet____________________________92633412d5f29260448082019391829003018186803b158015611a5457600080fd5b80514281118015906123b55750600454810142105b15156123f9576040805160e560020a62461bcd0281526020600482015260176024820152600080516020613b56833981519152604482015290519081900360640190fd5b60208201514281118015906124115750600454810142105b1515612455576040805160e560020a62461bcd0281526020600482015260176024820152600080516020613b56833981519152604482015290519081900360640190fd5b6000612460896110ec565b84516040805160f860020a601902602082810191909152600060218301819052606060020a30810260228501527f4920617574686f72697a6520616464696e67207468697320616464726573732060368501527f746f206d79204964656e746974792e0000000000000000000000000000000000605685015260658401879052600160a060020a038f160260858401526099808401959095528351808403909501855260b9909201909252825192909101919091208951895193945061252f938d938a905b6020020151611cda565b15156125ab576040805160e560020a62461bcd02815260206004820152602960248201527f5065726d697373696f6e2064656e6965642066726f6d20617070726f76696e6760448201527f20616464726573732e0000000000000000000000000000000000000000000000606482015290519081900360840190fd5b6020808501516040805160f860020a6019028185015260006021820152606060020a30810260228301527f4920617574686f72697a65206265696e6720616464656420746f20746869732060368301527f4964656e746974792e00000000000000000000000000000000000000000000006056830152605f8201869052600160a060020a038d1602607f8201526093808201939093528151808203909301835260b3019052805190820120888201519188015161266d928b9291896001612525565b15156126e9576040805160e560020a62461bcd02815260206004820152602660248201527f5065726d697373696f6e2064656e6965642066726f6d2061646472657373207460448201527f6f206164642e0000000000000000000000000000000000000000000000000000606482015290519081900360840190fd5b6126f381896132c0565b60408051600160a060020a038b811682528a1660208201526001818301529051829133917f1e0c87f4d9edce88868577315152d327d02ff25d2cb9384cd6ee609a9f56b64e9181900360600190a3505050505050505050565b60035481565b61152e61275e336110ec565b826001613615565b60008281526020818152604080832081517f3412d5f200000000000000000000000000000000000000000000000000000000815260059091016004820152600160a060020a0385166024820152905173__AddressSet____________________________92633412d5f29260448082019391829003018186803b158015611a5457600080fd5b808042101580156128005750600454810142105b1515612844576040805160e560020a62461bcd0281526020600482015260176024820152600080516020613b56833981519152604482015290519081900360640190fd5b600061284f876110ec565b6040805160f860020a60190260208083019190915260006021830152606060020a30810260228401527f4920617574686f72697a652072656d6f76696e6720746869732061646472657360368401527f732066726f6d206d79204964656e746974792e00000000000000000000000000605684015260698301859052600160a060020a038c16026089830152609d8083018890528351808403909101815260bd909201909252805191012090915061290b908890888888611cda565b151561294f576040805160e560020a62461bcd0281526020600482015260126024820152600080516020613af6833981519152604482015290519081900360640190fd5b612959818861355c565b60408051600160a060020a0389168152600160208201528151839233927f04095b6a64a9a32bafa887e731a82f91cdec3bf819389deea6aa34a488034f7d929081900390910190a350505050505050565b61152e6129b6336110ec565b826000612ca5565b836129c881611afc565b1515612a1e576040805160e560020a62461bcd02815260206004820152601c60248201527f546865206964656e7469747920646f6573206e6f742065786973742e00000000604482015290519081900360640190fd5b612a27856139b0565b15612aa2576040805160e560020a62461bcd02815260206004820152602960248201527f5265636f7665727920686173206e6f7420726563656e746c79206265656e207460448201527f72696767657265642e0000000000000000000000000000000000000000000000606482015290519081900360840190fd5b6000858152602081905260409020612ab8613a9c565b60206040519081016040528033600160a060020a0316600160a060020a03168152509050600660008881526020019081526020016000206001015486828760405160200180848051906020019060200280838360005b83811015612b26578181015183820152602001612b0e565b5050505090500183600160200280838360005b83811015612b51578181015183820152602001612b39565b50505050905001828051906020019060200280838360005b83811015612b81578181015183820152602001612b69565b50505050905001935050505060405160208183030381529060405280519060200120141515612c46576040805160e560020a62461bcd02815260206004820152605f60248201527f43616e6e6f742064657374726f7920616e2045494e2066726f6d20616e20616460448201527f6472657373207468617420776173206e6f7420726563656e746c792072656d6f60648201527f7665642066726f6d20736169642045494e20766961207265636f766572792e00608482015290519081900360a40190fd5b815460408051600160a060020a03909216825285151560208301528051899233927f1807cc67f627d55c0a797a6c603fa124978caf5bb45c1748329489fd0185b9ef92918290030190a3612c9c826000866139e2565b50505050505050565b6000838152602081905260408120905b8351811015612dd1578160050173__AddressSet____________________________63989779e990918684815181101515612cec57fe5b906020019060200201516040518363ffffffff1660e060020a0281526004018083815260200182600160a060020a0316600160a060020a031681526020019250505060006040518083038186803b158015612d4657600080fd5b505af4158015612d5a573d6000803e3d6000fd5b505050508433600160a060020a03167f8d2c0379f93ea94639b25aaf145689b0db73ba107f5b9972bbd6238d7b0440ac8684815181101515612d9857fe5b602090810290910181015160408051600160a060020a0390921682528815159282019290925281519081900390910190a3600101612cb5565b5050505050565b6000838152602081905260408120905b8351811015612dd1578160030173__AddressSet____________________________638c9d1e4190918684815181101515612e1f57fe5b906020019060200201516040518363ffffffff1660e060020a0281526004018083815260200182600160a060020a0316600160a060020a031681526020019250505060006040518083038186803b158015612e7957600080fd5b505af4158015612e8d573d6000803e3d6000fd5b505050508433600160a060020a03167fe41b11c1b8e658dea501b4a432bd3f7b3e6db83ef57ac16c52e5f288edeffec48684815181101515612ecb57fe5b602090810290910181015160408051600160a060020a0390921682528815159282019290925281519081900390910190a3600101612de8565b6000848180612f1283611545565b15151481612f585760606040519081016040528060328152602001600080516020613b368339815191528152602001600080516020613bd6833981519152815250612f92565b60606040519081016040528060388152602001600080516020613b768339815191528152602001600080516020613b168339815191528152505b901515612fe45760405160e560020a62461bcd028152600401808060200182810382528381815181526020019150805190602001908083836000838110156111ce5781810151838201526020016111b6565b5060028054600181019091556000818152602081905260409020805473ffffffffffffffffffffffffffffffffffffffff1916600160a060020a038b1617815561302e828a6132c0565b613039828988613741565b613044828888612ca5565b8133600160a060020a03167fe541733a4670852051762d3cdb7d9123bea21d01e252aa39ca403c8d0f5ab66c8c8c8c8c8c6040518086600160a060020a0316600160a060020a0316815260200185600160a060020a0316600160a060020a03168152602001806020018060200184151515158152602001838103835286818151815260200191508051906020019060200280838360005b838110156130f35781810151838201526020016130db565b50505050905001838103825285818151815260200191508051906020019060200280838360005b8381101561313257818101518382015260200161311a565b5050505090500197505050505050505060405180910390a35098975050505050505050565b600083815260208190526040902061316e846139c9565b15156131ea576040805160e560020a62461bcd02815260206004820152603060248201527f43616e6e6f7420747269676765722061206368616e676520696e207265636f7660448201527f6572792061646472657373207965742e00000000000000000000000000000000606482015290519081900360840190fd5b6040805180820182524281528254600160a060020a0390811660208084019182526000898152600582528590209351845590516001909301805473ffffffffffffffffffffffffffffffffffffffff19169383169390931790925583548351908216815290861691810191909152831515818301529051859133917fd9d54f9caf1bb2f4f815d22df297e7b73291ee08a95df2d47b0b03378ebe7c5d916060908290030190a3805473ffffffffffffffffffffffffffffffffffffffff1916600160a060020a0393909316929092179091555050565b806000806132cd83611545565b151514816133135760606040519081016040528060328152602001600080516020613b368339815191528152602001600080516020613bd683398151915281525061334d565b60606040519081016040528060388152602001600080516020613b768339815191528152602001600080516020613b168339815191528152505b90151561339f5760405160e560020a62461bcd028152600401808060200182810382528381815181526020019150805190602001908083836000838110156111ce5781810151838201526020016111b6565b506003546000858152602081815260409182902082517fc6756c7300000000000000000000000000000000000000000000000000000000815260019091016004820152915173__AddressSet____________________________9263c6756c73926024808301939192829003018186803b15801561341c57600080fd5b505af4158015613430573d6000803e3d6000fd5b505050506040513d602081101561344657600080fd5b50511061349d576040805160e560020a62461bcd02815260206004820152601360248201527f546f6f206d616e79206164647265737365732e00000000000000000000000000604482015290519081900360640190fd5b60008481526020819052604080822081517f989779e900000000000000000000000000000000000000000000000000000000815260019091016004820152600160a060020a0386166024820152905173__AddressSet____________________________9263989779e99260448082019391829003018186803b15801561352357600080fd5b505af4158015613537573d6000803e3d6000fd5b505050600160a060020a03909316600090815260016020526040902093909355505050565b60008281526020819052604080822081517f8c9d1e4100000000000000000000000000000000000000000000000000000000815260019091016004820152600160a060020a0384166024820152905173__AddressSet____________________________92638c9d1e419260448082019391829003018186803b1580156135e257600080fd5b505af41580156135f6573d6000803e3d6000fd5b50505050600160a060020a031660009081526001602052604081205550565b6000838152602081905260408120905b8351811015612dd1578160050173__AddressSet____________________________638c9d1e419091868481518110151561365c57fe5b906020019060200201516040518363ffffffff1660e060020a0281526004018083815260200182600160a060020a0316600160a060020a031681526020019250505060006040518083038186803b1580156136b657600080fd5b505af41580156136ca573d6000803e3d6000fd5b505050508433600160a060020a03167f35f17668a4aadc48b2952cd27f0c5017b357497a1f20cedf4713d91d019a63a8868481518110151561370857fe5b602090810290910181015160408051600160a060020a0390921682528815159282019290925281519081900390910190a3600101613625565b6000838152602081905260408120905b8351811015612dd1578160030173__AddressSet____________________________63989779e99091868481518110151561378857fe5b906020019060200201516040518363ffffffff1660e060020a0281526004018083815260200182600160a060020a0316600160a060020a031681526020019250505060006040518083038186803b1580156137e257600080fd5b505af41580156137f6573d6000803e3d6000fd5b505050508433600160a060020a03167fd2af86288d6ec28d93c5459bdc5a21da89b340c28ad430327e40139c1178986f868481518110151561383457fe5b602090810290910181015160408051600160a060020a0390921682528815159282019290925281519081900390910190a3600101613751565b600085600160a060020a031660018686868660405160008152602001604052604051808581526020018460ff1660ff1681526020018381526020018281526020019450505050506020604051602081039080840390855afa1580156138d6573d6000803e3d6000fd5b50505060206040510351600160a060020a031614905095945050505050565b604080518082018252601c8082527f19457468657265756d205369676e6564204d6573736167653a0a333200000000602080840191825293516000946139a5938b9386938c9301918291908083835b602083106139635780518252601f199092019160209182019101613944565b51815160209384036101000a6000190180199092169116179052920193845250604080518085038152938201905282519201919091209150889050878761386d565b979650505050505050565b6007546000918252600660205260409091205401421190565b6007546000918252600560205260409091205401421190565b60005b6001840154811015613a3357600184810180546000919084908110613a0657fe5b6000918252602080832090910154600160a060020a031683528201929092526040018120556001016139e5565b50600183016000613a448282613abb565b5050600383016000613a568282613abb565b50508015613a7157600583016000613a6e8282613abb565b50505b50815473ffffffffffffffffffffffffffffffffffffffff1916600160a060020a0391909116179055565b6020604051908101604052806001906020820280388339509192915050565b508054600082559060005260206000209081019061152e9190613af291905b80821115613aee5760008155600101613ada565b5090565b9056fe5065726d697373696f6e2064656e6965642e000000000000000000000000000020616e206964656e74697479206275742073686f756c642e00000000000000005468652070617373656420616464726573732068617320616e206964656e746954696d657374616d70206973206e6f742076616c69642e00000000000000000054686520706173736564206164647265737320646f6573206e6f742068617665546865206964656e7469747920686173206e6f742073657420746865207061737365642070726f76696465722e000000000000000000000000000000000000007479206275742073686f756c64206e6f742e0000000000000000000000000000a165627a7a72305820406aaa7dcd05c96d49b9377896620be0eb9ecf85b8c97de21aa6938e337c386e0029",
  "source": "pragma solidity ^0.5.0;\n\nimport \"./SignatureVerifier.sol\";\nimport \"./AddressSet/AddressSet.sol\";\n\n/// @title The ERC-1484 Identity Registry.\n/// @author Noah Zinsmeister\n/// @author Andy Chorlian\ncontract IdentityRegistry is SignatureVerifier {\n    using AddressSet for AddressSet.Set;\n\n\n    // Identity Data Structure and Parameters //////////////////////////////////////////////////////////////////////////\n\n    struct Identity {\n        address recoveryAddress;\n        AddressSet.Set associatedAddresses;\n        AddressSet.Set providers;\n        AddressSet.Set resolvers;\n    }\n\n    mapping (uint => Identity) private identityDirectory;\n    mapping (address => uint) private associatedAddressDirectory;\n\n    uint public nextEIN = 1;\n    uint public maxAssociatedAddresses = 50;\n\n\n    // Signature Timeout ///////////////////////////////////////////////////////////////////////////////////////////////\n\n    uint public signatureTimeout = 1 days;\n\n    /// @dev Enforces that the passed timestamp is within signatureTimeout seconds of now.\n    /// @param timestamp The timestamp to check the validity of.\n    modifier ensureSignatureTimeValid(uint timestamp) {\n        require(\n            // solium-disable-next-line security/no-block-members\n            block.timestamp >= timestamp && block.timestamp < timestamp + signatureTimeout, \"Timestamp is not valid.\"\n        );\n        _;\n    }\n\n\n    // Recovery Address Change Logging /////////////////////////////////////////////////////////////////////////////////\n\n    struct RecoveryAddressChange {\n        uint timestamp;\n        address oldRecoveryAddress;\n    }\n\n    mapping (uint => RecoveryAddressChange) private recoveryAddressChangeLogs;\n\n\n    // Recovery Logging ////////////////////////////////////////////////////////////////////////////////////////////////\n\n    struct Recovery {\n        uint timestamp;\n        bytes32 hashedOldAssociatedAddresses;\n    }\n\n    mapping (uint => Recovery) private recoveryLogs;\n\n\n    // Recovery Timeout ////////////////////////////////////////////////////////////////////////////////////////////////\n\n    uint public recoveryTimeout = 2 weeks;\n\n    /// @dev Checks if the passed EIN has changed their recovery address within recoveryTimeout seconds of now.\n    function canChangeRecoveryAddress(uint ein) private view returns (bool) {\n        // solium-disable-next-line security/no-block-members\n        return block.timestamp > recoveryAddressChangeLogs[ein].timestamp + recoveryTimeout;\n    }\n\n    /// @dev Checks if the passed EIN has recovered within recoveryTimeout seconds of now.\n    function canRecover(uint ein) private view returns (bool) {\n        // solium-disable-next-line security/no-block-members\n        return block.timestamp > recoveryLogs[ein].timestamp + recoveryTimeout;\n    }\n\n\n    // Identity View Functions /////////////////////////////////////////////////////////////////////////////////////////\n\n    /// @notice Checks if the passed EIN exists.\n    /// @dev Does not throw.\n    /// @param ein The EIN to check the existence of.\n    /// @return true if the passed EIN exists, false otherwise.\n    function identityExists(uint ein) public view returns (bool) {\n        return ein < nextEIN && ein > 0;\n    }\n\n    /// @dev Ensures that the passed EIN exists.\n    /// @param ein The EIN to check the existence of.\n    modifier _identityExists(uint ein) {\n        require(identityExists(ein), \"The identity does not exist.\");\n        _;\n    }\n\n    /// @notice Checks if the passed address is associated with an Identity.\n    /// @dev Does not throw.\n    /// @param _address The address to check.\n    /// @return true if the passed address is associated with an Identity, false otherwise.\n    function hasIdentity(address _address) public view returns (bool) {\n        return identityExists(associatedAddressDirectory[_address]);\n    }\n\n    /// @dev Ensures that the passed address is or is not associated with an Identity.\n    /// @param _address The address to check.\n    /// @param check If true, ensures that the address has an Identity, if false, vice versa.\n    /// @return true if the associated status is equal to check, false otherwise.\n    modifier _hasIdentity(address _address, bool check) {\n        require(\n            hasIdentity(_address) == check,\n            check ?\n                \"The passed address does not have an identity but should.\" :\n                \"The passed address has an identity but should not.\"\n        );\n        _;\n    }\n\n    /// @notice Gets the EIN associated with the passed address.\n    /// @dev Throws if the address is not associated with an Identity.\n    /// @param _address The address to check.\n    /// @return The associated EIN.\n    function getEIN(address _address) public view _hasIdentity(_address, true) returns (uint ein) {\n        return associatedAddressDirectory[_address];\n    }\n\n    /// @notice Checks whether the passed EIN is associated with the passed address.\n    /// @dev Does not throw.\n    /// @param ein The EIN to check.\n    /// @param _address The address to check.\n    /// @return true if the passed address is associated with the passed EIN, false otherwise.\n    function isAssociatedAddressFor(uint ein, address _address) public view returns (bool) {\n        return identityDirectory[ein].associatedAddresses.contains(_address);\n    }\n\n    /// @notice Checks whether the passed provider is set for the passed EIN.\n    /// @dev Does not throw.\n    /// @param ein The EIN to check.\n    /// @param provider The provider to check.\n    /// @return true if the provider is set for the passed EIN, false otherwise.\n    function isProviderFor(uint ein, address provider) public view returns (bool) {\n        return identityDirectory[ein].providers.contains(provider);\n    }\n\n    /// @dev Ensures that the msg.sender is a provider for the passed EIN.\n    /// @param ein The EIN to check.\n    modifier _isProviderFor(uint ein) {\n        require(isProviderFor(ein, msg.sender), \"The identity has not set the passed provider.\");\n        _;\n    }\n\n    /// @notice Checks whether the passed resolver is set for the passed EIN.\n    /// @dev Does not throw.\n    /// @param ein The EIN to check.\n    /// @param resolver The resolver to check.\n    /// @return true if the resolver is set for the passed EIN, false otherwise.\n    function isResolverFor(uint ein, address resolver) public view returns (bool) {\n        return identityDirectory[ein].resolvers.contains(resolver);\n    }\n\n    /// @notice Gets all identity-related information for the passed EIN.\n    /// @dev Throws if the passed EIN does not exist.\n    /// @param ein The EIN to get information for.\n    /// @return All the information for the Identity denominated by the passed EIN.\n    function getIdentity(uint ein) public view _identityExists(ein)\n        returns (\n            address recoveryAddress,\n            address[] memory associatedAddresses, address[] memory providers, address[] memory resolvers\n        )\n    {\n        Identity storage _identity = identityDirectory[ein];\n\n        return (\n            _identity.recoveryAddress,\n            _identity.associatedAddresses.members,\n            _identity.providers.members,\n            _identity.resolvers.members\n        );\n    }\n\n\n    // Identity Management Functions ///////////////////////////////////////////////////////////////////////////////////\n\n    /// @notice Create an new Identity for the transaction sender.\n    /// @dev Sets the msg.sender as the only associatedAddress.\n    /// @param recoveryAddress A recovery address to set for the new Identity.\n    /// @param providers A list of providers to set for the new Identity.\n    /// @param resolvers A list of resolvers to set for the new Identity.\n    /// @return The EIN of the new Identity.\n    function createIdentity(address recoveryAddress, address[] memory providers, address[] memory resolvers)\n        public returns (uint ein)\n    {\n        return createIdentity(recoveryAddress, msg.sender, providers, resolvers, false);\n    }\n\n    /// @notice Allows creation of a new Identity for the passed associatedAddress.\n    /// @param recoveryAddress A recovery address to set for the new Identity.\n    /// @param associatedAddress An associated address to set for the new Identity (must have produced the signature).\n    /// @param providers A list of providers to set for the new Identity.\n    /// @param resolvers A list of resolvers to set for the new Identity.\n    /// @param v The v component of the signature.\n    /// @param r The r component of the signature.\n    /// @param s The s component of the signature.\n    /// @param timestamp The timestamp of the signature.\n    /// @return The EIN of the new Identity.\n    function createIdentityDelegated(\n        address recoveryAddress, address associatedAddress, address[] memory providers, address[] memory resolvers,\n        uint8 v, bytes32 r, bytes32 s, uint timestamp\n    )\n        public ensureSignatureTimeValid(timestamp) returns (uint ein)\n    {\n        require(\n            isSigned(\n                associatedAddress,\n                keccak256(\n                    abi.encodePacked(\n                        byte(0x19), byte(0), address(this),\n                        \"I authorize the creation of an Identity on my behalf.\",\n                        recoveryAddress, associatedAddress, providers, resolvers, timestamp\n                    )\n                ),\n                v, r, s\n            ),\n            \"Permission denied.\"\n        );\n\n        return createIdentity(recoveryAddress, associatedAddress, providers, resolvers, true);\n    }\n\n    /// @dev Common logic for all identity creation.\n    function createIdentity(\n        address recoveryAddress,\n        address associatedAddress, address[] memory providers, address[] memory resolvers, bool delegated\n    )\n        private _hasIdentity(associatedAddress, false) returns (uint)\n    {\n        uint ein = nextEIN++;\n        Identity storage _identity = identityDirectory[ein];\n\n        _identity.recoveryAddress = recoveryAddress;\n        addAssociatedAddress(ein, associatedAddress);\n        addProviders(ein, providers, delegated);\n        addResolvers(ein, resolvers, delegated);\n\n        emit IdentityCreated(msg.sender, ein, recoveryAddress, associatedAddress, providers, resolvers, delegated);\n\n        return ein;\n    }\n\n\n    /// @notice Allows an associated address to add another associated address to its Identity.\n    /// @param approvingAddress An associated address for an Identity.\n    /// @param addressToAdd A new address to set for the Identity of the sender.\n    /// @param v The v component of the signature.\n    /// @param r The r component of the signature.\n    /// @param s The s component of the signature.\n    /// @param timestamp The timestamp of the signature.\n    function addAssociatedAddress(\n        address approvingAddress, address addressToAdd, uint8 v, bytes32 r, bytes32 s, uint timestamp\n    )\n        public ensureSignatureTimeValid(timestamp)\n    {\n        bool fromApprovingAddress = msg.sender == approvingAddress;\n        require(\n            fromApprovingAddress || msg.sender == addressToAdd, \"One or both of the passed addresses are malformed.\"\n        );\n\n        uint ein = getEIN(approvingAddress);\n\n        require(\n            isSigned(\n                fromApprovingAddress ? addressToAdd : approvingAddress,\n                keccak256(\n                    abi.encodePacked(\n                        byte(0x19), byte(0), address(this),\n                        fromApprovingAddress ?\n                            \"I authorize being added to this Identity.\" :\n                            \"I authorize adding this address to my Identity.\",\n                        ein, addressToAdd, timestamp\n                    )\n                ),\n                v, r, s\n            ),\n            \"Permission denied.\"\n        );\n\n        addAssociatedAddress(ein, addressToAdd);\n\n        emit AssociatedAddressAdded(msg.sender, ein, approvingAddress, addressToAdd, false);\n    }\n\n    /// @notice Allows addition of an associated address to an Identity.\n    /// @dev The first signature must be that of the approvingAddress.\n    /// @param approvingAddress An associated address for an Identity.\n    /// @param addressToAdd A new address to set for the Identity of approvingAddress.\n    /// @param v The v component of the signatures.\n    /// @param r The r component of the signatures.\n    /// @param s The s component of the signatures.\n    /// @param timestamp The timestamp of the signatures.\n    function addAssociatedAddressDelegated(\n        address approvingAddress, address addressToAdd,\n        uint8[2] memory v, bytes32[2] memory r, bytes32[2] memory s, uint[2] memory timestamp\n    )\n        public ensureSignatureTimeValid(timestamp[0]) ensureSignatureTimeValid(timestamp[1])\n    {\n        uint ein = getEIN(approvingAddress);\n\n        require(\n            isSigned(\n                approvingAddress,\n                keccak256(\n                    abi.encodePacked(\n                        byte(0x19), byte(0), address(this),\n                        \"I authorize adding this address to my Identity.\",\n                        ein, addressToAdd, timestamp[0]\n                    )\n                ),\n                v[0], r[0], s[0]\n            ),\n            \"Permission denied from approving address.\"\n        );\n        require(\n            isSigned(\n                addressToAdd,\n                keccak256(\n                    abi.encodePacked(\n                        byte(0x19), byte(0), address(this),\n                        \"I authorize being added to this Identity.\",\n                        ein, addressToAdd, timestamp[1]\n                    )\n                ),\n                v[1], r[1], s[1]\n            ),\n            \"Permission denied from address to add.\"\n        );\n\n        addAssociatedAddress(ein, addressToAdd);\n\n        emit AssociatedAddressAdded(msg.sender, ein, approvingAddress, addressToAdd, true);\n    }\n\n    /// @dev Common logic for all address addition.\n    function addAssociatedAddress(uint ein, address addressToAdd) private _hasIdentity(addressToAdd, false) {\n        require(\n            identityDirectory[ein].associatedAddresses.length() < maxAssociatedAddresses, \"Too many addresses.\"\n        );\n\n        identityDirectory[ein].associatedAddresses.insert(addressToAdd);\n        associatedAddressDirectory[addressToAdd] = ein;\n    }\n\n    /// @notice Allows an associated address to remove itself from its Identity.\n    function removeAssociatedAddress() public {\n        uint ein = getEIN(msg.sender);\n\n        removeAssociatedAddress(ein, msg.sender);\n\n        emit AssociatedAddressRemoved(msg.sender, ein, msg.sender, false);\n    }\n\n    /// @notice Allows removal of an associated address from an Identity.\n    /// @param addressToRemove An associated address to remove from its Identity.\n    /// @param v The v component of the signature.\n    /// @param r The r component of the signature.\n    /// @param s The s component of the signature.\n    /// @param timestamp The timestamp of the signature.\n    function removeAssociatedAddressDelegated(address addressToRemove, uint8 v, bytes32 r, bytes32 s, uint timestamp)\n        public ensureSignatureTimeValid(timestamp)\n    {\n        uint ein = getEIN(addressToRemove);\n\n        require(\n            isSigned(\n                addressToRemove,\n                keccak256(\n                    abi.encodePacked(\n                        byte(0x19), byte(0), address(this),\n                        \"I authorize removing this address from my Identity.\",\n                        ein, addressToRemove, timestamp\n                    )\n                ),\n                v, r, s\n            ),\n            \"Permission denied.\"\n        );\n\n        removeAssociatedAddress(ein, addressToRemove);\n\n        emit AssociatedAddressRemoved(msg.sender, ein, addressToRemove, true);\n    }\n\n    /// @dev Common logic for all address removal.\n    function removeAssociatedAddress(uint ein, address addressToRemove) private {\n        identityDirectory[ein].associatedAddresses.remove(addressToRemove);\n        delete associatedAddressDirectory[addressToRemove];\n    }\n\n\n    /// @notice Allows an associated address to add providers to its Identity.\n    /// @param providers A list of providers.\n    function addProviders(address[] memory providers) public {\n        addProviders(getEIN(msg.sender), providers, false);\n    }\n\n    /// @notice Allows providers to add providers to an Identity.\n    /// @param ein The EIN to add providers to.\n    /// @param providers A list of providers.\n    function addProvidersFor(uint ein, address[] memory providers) public _isProviderFor(ein) {\n        addProviders(ein, providers, true);\n    }\n\n    /// @dev Common logic for all provider adding.\n    function addProviders(uint ein, address[] memory providers, bool delegated) private {\n        Identity storage _identity = identityDirectory[ein];\n        for (uint i; i < providers.length; i++) {\n            _identity.providers.insert(providers[i]);\n            emit ProviderAdded(msg.sender, ein, providers[i], delegated);\n        }\n    }\n\n    /// @notice Allows an associated address to remove providers from its Identity.\n    /// @param providers A list of providers.\n    function removeProviders(address[] memory providers) public {\n        removeProviders(getEIN(msg.sender), providers, false);\n    }\n\n    /// @notice Allows providers to remove providers to an Identity.\n    /// @param ein The EIN to remove providers from.\n    /// @param providers A list of providers.\n    function removeProvidersFor(uint ein, address[] memory providers) public _isProviderFor(ein) {\n        removeProviders(ein, providers, true);\n    }\n\n    /// @dev Common logic for all provider removal.\n    function removeProviders(uint ein, address[] memory providers, bool delegated) private {\n        Identity storage _identity = identityDirectory[ein];\n        for (uint i; i < providers.length; i++) {\n            _identity.providers.remove(providers[i]);\n            emit ProviderRemoved(msg.sender, ein, providers[i], delegated);\n        }\n    }\n\n    /// @notice Allows an associated address to add resolvers to its Identity.\n    /// @param resolvers A list of resolvers.\n    function addResolvers(address[] memory resolvers) public {\n        addResolvers(getEIN(msg.sender), resolvers, false);\n    }\n\n    /// @notice Allows providers to add resolvers to an Identity.\n    /// @param ein The EIN to add resolvers to.\n    /// @param resolvers A list of resolvers.\n    function addResolversFor(uint ein, address[] memory resolvers) public _isProviderFor(ein) {\n        addResolvers(ein, resolvers, true);\n    }\n\n    /// @dev Common logic for all resolver adding.\n    function addResolvers(uint ein, address[] memory resolvers, bool delegated) private {\n        Identity storage _identity = identityDirectory[ein];\n        for (uint i; i < resolvers.length; i++) {\n            _identity.resolvers.insert(resolvers[i]);\n            emit ResolverAdded(msg.sender, ein, resolvers[i], delegated);\n        }\n    }\n\n    /// @notice Allows an associated address to remove resolvers from its Identity.\n    /// @param resolvers A list of resolvers.\n    function removeResolvers(address[] memory resolvers) public {\n        removeResolvers(getEIN(msg.sender), resolvers, true);\n    }\n\n    /// @notice Allows providers to remove resolvers from an Identity.\n    /// @param ein The EIN to remove resolvers from.\n    /// @param resolvers A list of resolvers.\n    function removeResolversFor(uint ein, address[] memory resolvers) public _isProviderFor(ein) {\n        removeResolvers(ein, resolvers, true);\n    }\n\n    /// @dev Common logic for all resolver removal.\n    function removeResolvers(uint ein, address[] memory resolvers, bool delegated) private {\n        Identity storage _identity = identityDirectory[ein];\n        for (uint i; i < resolvers.length; i++) {\n            _identity.resolvers.remove(resolvers[i]);\n            emit ResolverRemoved(msg.sender, ein, resolvers[i], delegated);\n        }\n    }\n\n\n    // Recovery Management Functions ///////////////////////////////////////////////////////////////////////////////////\n\n    /// @notice Allows an associated address to change the recovery address for its Identity.\n    /// @dev Recovery addresses can be changed at most once every recoveryTimeout seconds.\n    /// @param newRecoveryAddress A recovery address to set for the sender's EIN.\n    function triggerRecoveryAddressChange(address newRecoveryAddress) public {\n        triggerRecoveryAddressChange(getEIN(msg.sender), newRecoveryAddress, false);\n    }\n\n    /// @notice Allows providers to change the recovery address for an Identity.\n    /// @dev Recovery addresses can be changed at most once every recoveryTimeout seconds.\n    /// @param ein The EIN to set the recovery address of.\n    /// @param newRecoveryAddress A recovery address to set for the passed EIN.\n    function triggerRecoveryAddressChangeFor(uint ein, address newRecoveryAddress) public _isProviderFor(ein) {\n        triggerRecoveryAddressChange(ein, newRecoveryAddress, true);\n    }\n\n    /// @dev Common logic for all recovery address changes.\n    function triggerRecoveryAddressChange(uint ein, address newRecoveryAddress, bool delegated) private {\n        Identity storage _identity = identityDirectory[ein];\n\n        require(canChangeRecoveryAddress(ein), \"Cannot trigger a change in recovery address yet.\");\n\n         // solium-disable-next-line security/no-block-members\n        recoveryAddressChangeLogs[ein] = RecoveryAddressChange(block.timestamp, _identity.recoveryAddress);\n\n        emit RecoveryAddressChangeTriggered(msg.sender, ein, _identity.recoveryAddress, newRecoveryAddress, delegated);\n\n        _identity.recoveryAddress = newRecoveryAddress;\n    }\n\n    /// @notice Allows recovery addresses to trigger the recovery process for an Identity.\n    /// @dev msg.sender must be current recovery address, or the old one if it was changed recently.\n    /// @param ein The EIN to trigger recovery for.\n    /// @param newAssociatedAddress A recovery address to set for the passed EIN.\n    /// @param v The v component of the signature.\n    /// @param r The r component of the signature.\n    /// @param s The s component of the signature.\n    /// @param timestamp The timestamp of the signature.\n    function triggerRecovery(uint ein, address newAssociatedAddress, uint8 v, bytes32 r, bytes32 s, uint timestamp)\n        public _identityExists(ein) _hasIdentity(newAssociatedAddress, false) ensureSignatureTimeValid(timestamp)\n    {\n        require(canRecover(ein), \"Cannot trigger recovery yet.\");\n        Identity storage _identity = identityDirectory[ein];\n\n        // ensure the sender is the recovery address/old recovery address if there's been a recent change\n        if (canChangeRecoveryAddress(ein)) {\n            require(\n                msg.sender == _identity.recoveryAddress, \"Only the current recovery address can trigger recovery.\"\n            );\n        } else {\n            require(\n                msg.sender == recoveryAddressChangeLogs[ein].oldRecoveryAddress,\n                \"Only the recently removed recovery address can trigger recovery.\"\n            );\n        }\n\n        require(\n            isSigned(\n                newAssociatedAddress,\n                keccak256(\n                    abi.encodePacked(\n                        byte(0x19), byte(0), address(this),\n                        \"I authorize being added to this Identity via recovery.\",\n                        ein, newAssociatedAddress, timestamp\n                    )\n                ),\n                v, r, s\n            ),\n            \"Permission denied.\"\n        );\n\n        // log the old associated addresses to facilitate destruction if necessary\n        recoveryLogs[ein] = Recovery(\n            block.timestamp, // solium-disable-line security/no-block-members\n            keccak256(abi.encodePacked(_identity.associatedAddresses.members))\n        );\n\n        emit RecoveryTriggered(msg.sender, ein, _identity.associatedAddresses.members, newAssociatedAddress);\n\n        // remove identity data, and add the new address as the sole associated address\n        resetIdentityData(_identity, msg.sender, false);\n        addAssociatedAddress(ein, newAssociatedAddress);\n    }\n\n    /// @notice Allows associated addresses recently removed via recovery to permanently disable their old Identity.\n    /// @param ein The EIN to trigger destruction of.\n    /// @param firstChunk The array of addresses before the msg.sender in the pre-recovery associated addresses array.\n    /// @param lastChunk The array of addresses after the msg.sender in the pre-recovery associated addresses array.\n    /// @param resetResolvers true if the destroyer wants resolvers to be removed, false otherwise.\n    function triggerDestruction(uint ein, address[] memory firstChunk, address[] memory lastChunk, bool resetResolvers)\n        public _identityExists(ein)\n    {\n        require(!canRecover(ein), \"Recovery has not recently been triggered.\");\n        Identity storage _identity = identityDirectory[ein];\n\n        // ensure that the msg.sender was an old associated address for the referenced identity\n        address payable[1] memory middleChunk = [msg.sender];\n        require(\n            keccak256(\n                abi.encodePacked(firstChunk, middleChunk, lastChunk)\n            ) == recoveryLogs[ein].hashedOldAssociatedAddresses,\n            \"Cannot destroy an EIN from an address that was not recently removed from said EIN via recovery.\"\n        );\n\n        emit IdentityDestroyed(msg.sender, ein, _identity.recoveryAddress, resetResolvers);\n\n        resetIdentityData(_identity, address(0), resetResolvers);\n    }\n\n    /// @dev Common logic for clearing the data of an Identity.\n    function resetIdentityData(Identity storage identity, address newRecoveryAddress, bool resetResolvers) private {\n        for (uint i; i < identity.associatedAddresses.members.length; i++) {\n            delete associatedAddressDirectory[identity.associatedAddresses.members[i]];\n        }\n        delete identity.associatedAddresses;\n        delete identity.providers;\n        if (resetResolvers) delete identity.resolvers;\n        identity.recoveryAddress = newRecoveryAddress;\n    }\n\n\n    // Events //////////////////////////////////////////////////////////////////////////////////////////////////////////\n\n    event IdentityCreated(\n        address indexed initiator, uint indexed ein,\n        address recoveryAddress, address associatedAddress, address[] providers, address[] resolvers, bool delegated\n    );\n    event AssociatedAddressAdded(\n        address indexed initiator, uint indexed ein, address approvingAddress, address addedAddress, bool delegated\n    );\n    event AssociatedAddressRemoved(address indexed initiator, uint indexed ein, address removedAddress, bool delegated);\n    event ProviderAdded(address indexed initiator, uint indexed ein, address provider, bool delegated);\n    event ProviderRemoved(address indexed initiator, uint indexed ein, address provider, bool delegated);\n    event ResolverAdded(address indexed initiator, uint indexed ein, address resolvers, bool delegated);\n    event ResolverRemoved(address indexed initiator, uint indexed ein, address resolvers, bool delegated);\n    event RecoveryAddressChangeTriggered(\n        address indexed initiator, uint indexed ein,\n        address oldRecoveryAddress, address newRecoveryAddress, bool delegated\n    );\n    event RecoveryTriggered(\n        address indexed initiator, uint indexed ein, address[] oldAssociatedAddresses, address newAssociatedAddress\n    );\n    event IdentityDestroyed(address indexed initiator, uint indexed ein, address recoveryAddress, bool resolversReset);\n}\n",
  "sourcePath": "/home/luiserebii/hydro_bounty_unofficial/contracts/_testing/IdentityRegistry.sol",
  "compiler": {
    "name": "solc",
    "version": "0.5.0+commit.1d4f565a.Emscripten.clang"
  },
  "schemaVersion": "3.0.0-beta.0",
  "updatedAt": "2019-03-11T23:50:45.650Z"
}