{
  "contractName": "Items",
  "abi": [
    {
      "constant": true,
      "inputs": [
        {
          "name": "interfaceId",
          "type": "bytes4"
        }
      ],
      "name": "supportsInterface",
      "outputs": [
        {
          "name": "",
          "type": "bool"
        }
      ],
      "payable": false,
      "stateMutability": "view",
      "type": "function"
    },
    {
      "constant": true,
      "inputs": [
        {
          "name": "tokenId",
          "type": "uint256"
        }
      ],
      "name": "getApproved",
      "outputs": [
        {
          "name": "",
          "type": "uint256"
        }
      ],
      "payable": false,
      "stateMutability": "view",
      "type": "function"
    },
    {
      "constant": false,
      "inputs": [
        {
          "name": "from",
          "type": "uint256"
        },
        {
          "name": "to",
          "type": "uint256"
        },
        {
          "name": "tokenId",
          "type": "uint256"
        }
      ],
      "name": "safeTransferFromAddress",
      "outputs": [],
      "payable": false,
      "stateMutability": "nonpayable",
      "type": "function"
    },
    {
      "constant": false,
      "inputs": [
        {
          "name": "to",
          "type": "uint256"
        },
        {
          "name": "approved",
          "type": "bool"
        }
      ],
      "name": "setApprovalForAll",
      "outputs": [],
      "payable": false,
      "stateMutability": "nonpayable",
      "type": "function"
    },
    {
      "constant": true,
      "inputs": [
        {
          "name": "",
          "type": "uint256"
        }
      ],
      "name": "itemListings",
      "outputs": [
        {
          "name": "uuid",
          "type": "uint256"
        },
        {
          "name": "quantity",
          "type": "uint256"
        },
        {
          "name": "itemType",
          "type": "uint8"
        },
        {
          "name": "status",
          "type": "uint8"
        },
        {
          "name": "condition",
          "type": "uint8"
        },
        {
          "name": "title",
          "type": "string"
        },
        {
          "name": "description",
          "type": "string"
        },
        {
          "name": "price",
          "type": "uint256"
        },
        {
          "name": "returnPolicy",
          "type": "uint256"
        }
      ],
      "payable": false,
      "stateMutability": "view",
      "type": "function"
    },
    {
      "constant": false,
      "inputs": [
        {
          "name": "to",
          "type": "uint256"
        },
        {
          "name": "tokenId",
          "type": "uint256"
        }
      ],
      "name": "mint",
      "outputs": [
        {
          "name": "",
          "type": "bool"
        }
      ],
      "payable": false,
      "stateMutability": "nonpayable",
      "type": "function"
    },
    {
      "constant": false,
      "inputs": [
        {
          "name": "from",
          "type": "uint256"
        },
        {
          "name": "to",
          "type": "uint256"
        },
        {
          "name": "tokenId",
          "type": "uint256"
        }
      ],
      "name": "transferFrom",
      "outputs": [],
      "payable": false,
      "stateMutability": "nonpayable",
      "type": "function"
    },
    {
      "constant": false,
      "inputs": [
        {
          "name": "tokenId",
          "type": "uint256"
        }
      ],
      "name": "burn",
      "outputs": [],
      "payable": false,
      "stateMutability": "nonpayable",
      "type": "function"
    },
    {
      "constant": false,
      "inputs": [
        {
          "name": "from",
          "type": "uint256"
        },
        {
          "name": "to",
          "type": "uint256"
        },
        {
          "name": "tokenId",
          "type": "uint256"
        },
        {
          "name": "_data",
          "type": "bytes"
        }
      ],
      "name": "safeTransferFromAddress",
      "outputs": [],
      "payable": false,
      "stateMutability": "nonpayable",
      "type": "function"
    },
    {
      "constant": false,
      "inputs": [
        {
          "name": "to",
          "type": "uint256"
        },
        {
          "name": "tokenId",
          "type": "uint256"
        }
      ],
      "name": "approve",
      "outputs": [],
      "payable": false,
      "stateMutability": "nonpayable",
      "type": "function"
    },
    {
      "constant": true,
      "inputs": [
        {
          "name": "tokenId",
          "type": "uint256"
        }
      ],
      "name": "ownerOf",
      "outputs": [
        {
          "name": "",
          "type": "uint256"
        }
      ],
      "payable": false,
      "stateMutability": "view",
      "type": "function"
    },
    {
      "constant": false,
      "inputs": [
        {
          "name": "from",
          "type": "uint256"
        },
        {
          "name": "to",
          "type": "uint256"
        },
        {
          "name": "tokenId",
          "type": "uint256"
        },
        {
          "name": "_data",
          "type": "bytes"
        }
      ],
      "name": "safeTransferFrom",
      "outputs": [],
      "payable": false,
      "stateMutability": "nonpayable",
      "type": "function"
    },
    {
      "constant": false,
      "inputs": [
        {
          "name": "from",
          "type": "uint256"
        },
        {
          "name": "to",
          "type": "uint256"
        },
        {
          "name": "tokenId",
          "type": "uint256"
        }
      ],
      "name": "transferFromAddress",
      "outputs": [],
      "payable": false,
      "stateMutability": "nonpayable",
      "type": "function"
    },
    {
      "constant": false,
      "inputs": [],
      "name": "renounceSnowflakeMinter",
      "outputs": [],
      "payable": false,
      "stateMutability": "nonpayable",
      "type": "function"
    },
    {
      "constant": false,
      "inputs": [
        {
          "name": "to",
          "type": "address"
        },
        {
          "name": "tokenId",
          "type": "uint256"
        }
      ],
      "name": "approveAddress",
      "outputs": [],
      "payable": false,
      "stateMutability": "nonpayable",
      "type": "function"
    },
    {
      "constant": true,
      "inputs": [
        {
          "name": "owner",
          "type": "uint256"
        },
        {
          "name": "operator",
          "type": "uint256"
        }
      ],
      "name": "isApprovedForAll",
      "outputs": [
        {
          "name": "",
          "type": "bool"
        }
      ],
      "payable": false,
      "stateMutability": "view",
      "type": "function"
    },
    {
      "constant": true,
      "inputs": [
        {
          "name": "account",
          "type": "uint256"
        }
      ],
      "name": "isSnowflakeMinter",
      "outputs": [
        {
          "name": "",
          "type": "bool"
        }
      ],
      "payable": false,
      "stateMutability": "view",
      "type": "function"
    },
    {
      "constant": true,
      "inputs": [
        {
          "name": "owner",
          "type": "uint256"
        }
      ],
      "name": "balanceOf",
      "outputs": [
        {
          "name": "",
          "type": "uint256"
        }
      ],
      "payable": false,
      "stateMutability": "view",
      "type": "function"
    },
    {
      "constant": false,
      "inputs": [
        {
          "name": "account",
          "type": "uint256"
        }
      ],
      "name": "addSnowflakeMinter",
      "outputs": [],
      "payable": false,
      "stateMutability": "nonpayable",
      "type": "function"
    },
    {
      "constant": true,
      "inputs": [],
      "name": "nextItemListingsID",
      "outputs": [
        {
          "name": "",
          "type": "uint256"
        }
      ],
      "payable": false,
      "stateMutability": "view",
      "type": "function"
    },
    {
      "constant": true,
      "inputs": [
        {
          "name": "tokenId",
          "type": "uint256"
        }
      ],
      "name": "getApprovedAddress",
      "outputs": [
        {
          "name": "",
          "type": "address"
        }
      ],
      "payable": false,
      "stateMutability": "view",
      "type": "function"
    },
    {
      "constant": false,
      "inputs": [
        {
          "name": "from",
          "type": "uint256"
        },
        {
          "name": "to",
          "type": "uint256"
        },
        {
          "name": "tokenId",
          "type": "uint256"
        }
      ],
      "name": "safeTransferFrom",
      "outputs": [],
      "payable": false,
      "stateMutability": "nonpayable",
      "type": "function"
    },
    {
      "constant": true,
      "inputs": [],
      "name": "snowflakeAddress",
      "outputs": [
        {
          "name": "",
          "type": "address"
        }
      ],
      "payable": false,
      "stateMutability": "view",
      "type": "function"
    },
    {
      "anonymous": false,
      "inputs": [
        {
          "indexed": false,
          "name": "owner",
          "type": "uint256"
        },
        {
          "indexed": false,
          "name": "to",
          "type": "address"
        },
        {
          "indexed": false,
          "name": "tokenId",
          "type": "uint256"
        }
      ],
      "name": "ApprovalAddress",
      "type": "event"
    },
    {
      "anonymous": false,
      "inputs": [
        {
          "indexed": true,
          "name": "account",
          "type": "uint256"
        }
      ],
      "name": "SnowflakeMinterAdded",
      "type": "event"
    },
    {
      "anonymous": false,
      "inputs": [
        {
          "indexed": true,
          "name": "account",
          "type": "uint256"
        }
      ],
      "name": "SnowflakeMinterRemoved",
      "type": "event"
    },
    {
      "anonymous": false,
      "inputs": [
        {
          "indexed": true,
          "name": "einFrom",
          "type": "uint256"
        },
        {
          "indexed": true,
          "name": "einTo",
          "type": "uint256"
        },
        {
          "indexed": true,
          "name": "tokenId",
          "type": "uint256"
        }
      ],
      "name": "Transfer",
      "type": "event"
    },
    {
      "anonymous": false,
      "inputs": [
        {
          "indexed": true,
          "name": "einOwner",
          "type": "uint256"
        },
        {
          "indexed": true,
          "name": "einApproved",
          "type": "uint256"
        },
        {
          "indexed": true,
          "name": "tokenId",
          "type": "uint256"
        }
      ],
      "name": "Approval",
      "type": "event"
    },
    {
      "anonymous": false,
      "inputs": [
        {
          "indexed": true,
          "name": "einOwner",
          "type": "uint256"
        },
        {
          "indexed": true,
          "name": "einOperator",
          "type": "uint256"
        },
        {
          "indexed": false,
          "name": "approved",
          "type": "bool"
        }
      ],
      "name": "ApprovalForAll",
      "type": "event"
    },
    {
      "constant": true,
      "inputs": [
        {
          "name": "id",
          "type": "uint256"
        }
      ],
      "name": "getItem",
      "outputs": [
        {
          "name": "uuid",
          "type": "uint256"
        },
        {
          "name": "quantity",
          "type": "uint256"
        },
        {
          "name": "itemType",
          "type": "uint8"
        },
        {
          "name": "status",
          "type": "uint8"
        },
        {
          "name": "condition",
          "type": "uint8"
        },
        {
          "name": "title",
          "type": "string"
        },
        {
          "name": "description",
          "type": "string"
        },
        {
          "name": "price",
          "type": "uint256"
        },
        {
          "name": "returnPolicy",
          "type": "uint256"
        }
      ],
      "payable": false,
      "stateMutability": "view",
      "type": "function"
    },
    {
      "constant": true,
      "inputs": [
        {
          "name": "id",
          "type": "uint256"
        }
      ],
      "name": "getItemPrice",
      "outputs": [
        {
          "name": "",
          "type": "uint256"
        }
      ],
      "payable": false,
      "stateMutability": "view",
      "type": "function"
    },
    {
      "constant": true,
      "inputs": [
        {
          "name": "id",
          "type": "uint256"
        },
        {
          "name": "index",
          "type": "uint256"
        }
      ],
      "name": "getItemDelivery",
      "outputs": [
        {
          "name": "",
          "type": "uint256"
        }
      ],
      "payable": false,
      "stateMutability": "view",
      "type": "function"
    },
    {
      "constant": true,
      "inputs": [
        {
          "name": "id",
          "type": "uint256"
        },
        {
          "name": "index",
          "type": "uint256"
        }
      ],
      "name": "getItemTag",
      "outputs": [
        {
          "name": "",
          "type": "uint256"
        }
      ],
      "payable": false,
      "stateMutability": "view",
      "type": "function"
    },
    {
      "constant": true,
      "inputs": [
        {
          "name": "id",
          "type": "uint256"
        }
      ],
      "name": "getItemDeliveryLength",
      "outputs": [
        {
          "name": "",
          "type": "uint256"
        }
      ],
      "payable": false,
      "stateMutability": "view",
      "type": "function"
    },
    {
      "constant": true,
      "inputs": [
        {
          "name": "id",
          "type": "uint256"
        }
      ],
      "name": "getItemTagsLength",
      "outputs": [
        {
          "name": "",
          "type": "uint256"
        }
      ],
      "payable": false,
      "stateMutability": "view",
      "type": "function"
    }
  ],
  "bytecode": "0x60806040526100367f01ffc9a70000000000000000000000000000000000000000000000000000000064010000000061003b810204565b6100a7565b7fffffffff00000000000000000000000000000000000000000000000000000000808216141561006a57600080fd5b7fffffffff00000000000000000000000000000000000000000000000000000000166000908152602081905260409020805460ff19166001179055565b611991806100b66000396000f3fe608060405234801561001057600080fd5b50600436106101d35760003560e060020a900480635fe0d82f116101085780638d9188d5116100a6578063af05cbdf11610075578063af05cbdf146107a9578063eca4742a146107b1578063f4670462146107ea578063f9f451b814610813576101d3565b80638d9188d51461072f5780639690f6d1146107525780639cc7f7081461076f578063a4453ffb1461078c576101d3565b806368d1e641116100e257806368d1e641146106195780637f493d9c146106d2578063895c3e94146106fb5780638b9a0c8914610703576101d3565b80635fe0d82f146105c25780636352211e146105df57806364433bb2146105fc576101d3565b80631b2ef1ca1161017557806342966c681161014f57806342966c68146104ac578063435b153f146104c95780634c4df870146105825780635d35a3d91461059f576101d3565b80631b2ef1ca14610443578063310ed7f0146104665780633129e7731461048f576101d3565b80630d2e347d116101b15780630d2e347d1461027a57806313ca683a146102a557806316b49a43146102c8578063172e8e4c146102ed576101d3565b806301ffc9a7146101d857806302569d5b14610228578063081812fc1461025d575b600080fd5b610214600480360360208110156101ee57600080fd5b50357bffffffffffffffffffffffffffffffffffffffffffffffffffffffff191661081b565b604080519115158252519081900360200190f35b61024b6004803603604081101561023e57600080fd5b508035906020013561084f565b60408051918252519081900360200190f35b61024b6004803603602081101561027357600080fd5b503561087f565b6102a36004803603606081101561029057600080fd5b50803590602081013590604001356108a6565b005b61024b600480360360408110156102bb57600080fd5b50803590602001356108c6565b6102a3600480360360408110156102de57600080fd5b508035906020013515156108e3565b61030a6004803603602081101561030357600080fd5b503561095f565b604051808a815260200189815260200188600181111561032657fe5b60ff16815260200187600181111561033a57fe5b60ff16815260200186600481111561034e57fe5b60ff1681526020018060200180602001858152602001848152602001838103835287818151815260200191508051906020019080838360005b8381101561039f578181015183820152602001610387565b50505050905090810190601f1680156103cc5780820380516001836020036101000a031916815260200191505b50838103825286518152865160209182019188019080838360005b838110156103ff5781810151838201526020016103e7565b50505050905090810190601f16801561042c5780820380516001836020036101000a031916815260200191505b509b50505050505050505050505060405180910390f35b6102146004803603604081101561045957600080fd5b5080359060200135610ac0565b6102a36004803603606081101561047c57600080fd5b5080359060208101359060400135610aef565b61030a600480360360208110156104a557600080fd5b5035610b15565b6102a3600480360360208110156104c257600080fd5b5035610e26565b6102a3600480360360808110156104df57600080fd5b8135916020810135916040820135919081019060808101606082013564010000000081111561050d57600080fd5b82018360208201111561051f57600080fd5b8035906020019184600183028401116401000000008311171561054157600080fd5b91908080601f016020809104026020016040519081016040528093929190818152602001838380828437600092019190915250929550610e47945050505050565b61024b6004803603602081101561059857600080fd5b5035610e6d565b6102a3600480360360408110156105b557600080fd5b5080359060200135610e82565b61024b600480360360208110156105d857600080fd5b5035610f07565b61024b600480360360208110156105f557600080fd5b5035610f1c565b61024b6004803603602081101561061257600080fd5b5035610f3b565b6102a36004803603608081101561062f57600080fd5b8135916020810135916040820135919081019060808101606082013564010000000081111561065d57600080fd5b82018360208201111561066f57600080fd5b8035906020019184600183028401116401000000008311171561069157600080fd5b91908080601f016020809104026020016040519081016040528093929190818152602001838380828437600092019190915250929550610f50945050505050565b6102a3600480360360608110156106e857600080fd5b5080359060208101359060400135610f5b565b6102a3610f79565b6102a36004803603604081101561071957600080fd5b50600160a060020a038135169060200135610f8c565b6102146004803603604081101561074557600080fd5b508035906020013561108b565b6102146004803603602081101561076857600080fd5b50356110ab565b61024b6004803603602081101561078557600080fd5b50356110be565b6102a3600480360360208110156107a257600080fd5b50356110e1565b61024b6110ff565b6107ce600480360360208110156107c757600080fd5b5035611105565b60408051600160a060020a039092168252519081900360200190f35b6102a36004803603606081101561080057600080fd5b5080359060208101359060400135611135565b6107ce611150565b7bffffffffffffffffffffffffffffffffffffffffffffffffffffffff191660009081526020819052604090205460ff1690565b600082815260096020526040812060070180548390811061086c57fe5b9060005260206000200154905092915050565b600061088a8261115f565b61089357600080fd5b5060009081526003602052604090205490565b6108c183838360405180602001604052806000815250610e47565b505050565b600082815260096020526040812060060180548390811061086c57fe5b60006108ee33611173565b9050808314156108fd57600080fd5b6000818152600560209081526040808320868452825291829020805460ff191685151590811790915582519081529151859284927fe08356808518f185b1eebe6f778106965c2df3a69af4d7139fa9451067146eb792918290030190a3505050565b600960209081526000918252604091829020805460018083015460028085015460038601805489516101009682161587026000190190911693909304601f81018990048902840189019099528883529497929660ff808316979583048116966201000090930416949390830182828015610a1a5780601f106109ef57610100808354040283529160200191610a1a565b820191906000526020600020905b8154815290600101906020018083116109fd57829003601f168201915b5050505060048301805460408051602060026001851615610100026000190190941693909304601f8101849004840282018401909252818152949594935090830182828015610aaa5780601f10610a7f57610100808354040283529160200191610aaa565b820191906000526020600020905b815481529060010190602001808311610a8d57829003601f168201915b5050505050908060050154908060080154905089565b6000610ad3610ace33611173565b6110ab565b610adc57600080fd5b610ae68383611379565b50600192915050565b610b01610afb33611173565b826113f1565b610b0a57600080fd5b6108c183838361142c565b6000806000806000606080600080610b2b611893565b600960008c81526020019081526020016000206040518061016001604052908160008201548152602001600182015481526020016002820160009054906101000a900460ff166001811115610b7c57fe5b6001811115610b8757fe5b81526020016002820160019054906101000a900460ff166001811115610ba957fe5b6001811115610bb457fe5b81526020016002820160029054906101000a900460ff166004811115610bd657fe5b6004811115610be157fe5b815260038201805460408051602060026001851615610100026000190190941693909304601f8101849004840282018401909252818152938201939291830182828015610c6f5780601f10610c4457610100808354040283529160200191610c6f565b820191906000526020600020905b815481529060010190602001808311610c5257829003601f168201915b505050918352505060048201805460408051602060026001851615610100026000190190941693909304601f8101849004840282018401909252818152938201939291830182828015610d035780601f10610cd857610100808354040283529160200191610d03565b820191906000526020600020905b815481529060010190602001808311610ce657829003601f168201915b505050505081526020016005820154815260200160068201805480602002602001604051908101604052809291908181526020018280548015610d6557602002820191906000526020600020905b815481526020019060010190808311610d51575b5050505050815260200160078201805480602002602001604051908101604052809291908181526020018280548015610dbd57602002820191906000526020600020905b815481526020019060010190808311610da9575b505050505081526020016008820154815250509050806000015181602001518260400151836060015184608001518560a001518660c001518760e00151886101400151839350829250995099509950995099509950995099509950509193959799909294969850565b610e32610afb33611173565b610e3b57600080fd5b610e44816114c2565b50565b610e52848484610f5b565b610e5e848484846114d4565b610e6757600080fd5b50505050565b60009081526009602052604090206005015490565b6000610e8d82610f1c565b90506000610e9a33611173565b905081841415610ea957600080fd5b81811480610ebc5750610ebc828261108b565b610ec557600080fd5b600083815260036020526040808220869055518491869185917f08aaf4f7dd1adfa5bfe7067dea5b4ebd7e119d43257438a9189f37d7044eb09a91a450505050565b60009081526009602052604090206006015490565b60008181526002602052604081205480610f3557600080fd5b92915050565b60009081526009602052604090206007015490565b610e52848484610aef565b610f65338261161a565b610f6e57600080fd5b6108c1838383611640565b610f8a610f8533611173565b611667565b565b6000610f9782610f1c565b90506000610fa433611173565b905081811480610fb95750610fb9828261108b565b61100e576040517f08c379a00000000000000000000000000000000000000000000000000000000081526004018080602001828103825260458152602001806118f96045913960600191505060405180910390fd5b6000838152600760209081526040918290208054600160a060020a03881673ffffffffffffffffffffffffffffffffffffffff19909116811790915582518581529182015280820185905290517fdd2d4479f7ebe0a20212b0ef6b723a3f0d98a4b3d64b8d9898777c769bb7a8819181900360600190a150505050565b600091825260056020908152604080842092845291905290205460ff1690565b6000610f3560068363ffffffff6116a616565b6000816110ca57600080fd5b6000828152600460205260409020610f35906116c9565b6110ed610ace33611173565b6110f657600080fd5b610e44816116cd565b60085481565b60006111108261115f565b61111957600080fd5b50600090815260076020526040902054600160a060020a031690565b6108c183838360405180602001604052806000815250610f50565b600154600160a060020a031681565b600090815260026020526040902054151590565b600154604080517fa759ee6f0000000000000000000000000000000000000000000000000000000081529051600092600160a060020a0316918391839163a759ee6f91600480830192602092919082900301818787803b1580156111d657600080fd5b505af11580156111ea573d6000803e3d6000fd5b505050506040513d602081101561120057600080fd5b5051604080517f237f1a21000000000000000000000000000000000000000000000000000000008152600160a060020a038781166004830152915192935083929183169163237f1a2191602480820192602092909190829003018186803b15801561126a57600080fd5b505afa15801561127e573d6000803e3d6000fd5b505050506040513d602081101561129457600080fd5b50516112eb576040517f08c379a000000000000000000000000000000000000000000000000000000000815260040180806020018281038252602881526020018061193e6028913960400191505060405180910390fd5b80600160a060020a03166305c62c2f866040518263ffffffff1660e060020a0281526004018082600160a060020a0316600160a060020a0316815260200191505060206040518083038186803b15801561134457600080fd5b505afa158015611358573d6000803e3d6000fd5b505050506040513d602081101561136e57600080fd5b505195945050505050565b8161138357600080fd5b61138c8161115f565b1561139657600080fd5b6000818152600260209081526040808320859055848352600490915290206113bd9061170c565b808260007faf6151f5085accf2d57e1e7bf7601d3b3982e0de7e9a90f032f8554de9c104f660405160405180910390a45050565b6000806113fd83610f1c565b9050808414806114145750836114128461087f565b145b806114245750611424818561108b565b949350505050565b8261143682610f1c565b1461144057600080fd5b8161144a57600080fd5b61145381611715565b600083815260046020526040902061146a9061173a565b60008281526004602052604090206114819061170c565b600081815260026020526040808220849055518291849186917faf6151f5085accf2d57e1e7bf7601d3b3982e0de7e9a90f032f8554de9c104f691a4505050565b610e446114ce82610f1c565b82611751565b60008084600160a060020a031663494114c26114ef33611173565b8887876040518563ffffffff1660e060020a0281526004018085815260200184815260200183815260200180602001828103825283818151815260200191508051906020019080838360005b8381101561155357818101518382015260200161153b565b50505050905090810190601f1680156115805780820380516001836020036101000a031916815260200191505b5095505050505050602060405180830381600087803b1580156115a257600080fd5b505af11580156115b6573d6000803e3d6000fd5b505050506040513d60208110156115cc57600080fd5b50517bffffffffffffffffffffffffffffffffffffffffffffffffffffffff19167f494114c20000000000000000000000000000000000000000000000000000000014915050949350505050565b600082600160a060020a031661162f83611105565b600160a060020a0316149392505050565b8261164a82610f1c565b1461165457600080fd5b8161165e57600080fd5b610b0a816117c6565b61167860068263ffffffff61180e16565b60405181907f34803f71b3ce19f83d2efe8fd85a68795e6ca17a2139def6f374f7cec617366c90600090a250565b6000816116b257600080fd5b506000908152602091909152604090205460ff1690565b5490565b6116de60068263ffffffff61184416565b60405181907fc96fabf52983c486b9ee7f26fa97994b2199bd98cf74f02ef6aa1e1d87cbb48290600090a250565b80546001019055565b60008181526003602052604090205415610e4457600090815260036020526040812055565b805461174d90600163ffffffff61187e16565b9055565b8161175b82610f1c565b1461176557600080fd5b61176e81611715565b60008281526004602052604090206117859061173a565b6000818152600260205260408082208290555182919084907faf6151f5085accf2d57e1e7bf7601d3b3982e0de7e9a90f032f8554de9c104f6908390a45050565b600081815260076020526040902054600160a060020a031615610e44576000908152600760205260409020805473ffffffffffffffffffffffffffffffffffffffff19169055565b8061181857600080fd5b61182282826116a6565b61182b57600080fd5b600090815260209190915260409020805460ff19169055565b8061184e57600080fd5b61185882826116a6565b1561186257600080fd5b600090815260209190915260409020805460ff19166001179055565b60008282111561188d57600080fd5b50900390565b6040518061016001604052806000815260200160008152602001600060018111156118ba57fe5b81526020016000815260200160008152602001606081526020016060815260200160008152602001606081526020016060815260200160008152509056fe53656e646572206973206e6f74206f776e65722c206f72206661696c7320746f2070617373206973417070726f766564466f72416c6c286f776e65722c2073656e6465722941646472657373206e6f6e2d6578697374656e7420696e204964656e746974795265676973747279a165627a7a7230582052fc2113d0928b09bac76f5f1d545821ca182715ecff25f9373abea418331e010029",
  "source": "pragma solidity ^0.5.0;\n\nimport '../../ein/token/ERC721/SnowflakeERC721.sol';\nimport '../../ein/token/ERC721/SnowflakeERC721Burnable.sol';\nimport '../../ein/token/ERC721/SnowflakeERC721Mintable.sol';\nimport '../../ein/token/ERC721/address/AddressSnowflakeERC721.sol';\nimport '../../interfaces/marketplace/ItemInterface.sol';\n\n/*\n\nERC 721 ---> Coupon Interface ---> Coupon contract (w/ data + function implementations)\n        ---> Item Interface ---> Item contract (w/data + function implementations)\n\n\n//Use addresses to represent other ownership states; unlimited/claimable once\n\n*/\n\n\ncontract Items is SnowflakeERC721, SnowflakeERC721Burnable, SnowflakeERC721Mintable, AddressSnowflakeERC721, ItemInterface {\n\n    //ID, starting at 1\n    uint public nextItemListingsID;\n\n    //Mapping connecting ERC721 items to actual struct objects\n    mapping(uint => Item) public itemListings;\n/*\n    constructor(address _snowflakeAddress) public {\n        _constructItems(_snowflakeAddress);\n    }\n*/\n    function _constructItems(address _snowflakeAddress) internal {\n\n        _constructSnowflakeERC721(_snowflakeAddress);\n        _constructSnowflakeERC721Burnable(_snowflakeAddress);\n        _constructSnowflakeERC721Mintable(_snowflakeAddress);\n        _constructAddressSnowflakeERC721(_snowflakeAddress);\n\n        //Actual Item constructing\n        nextItemListingsID = 1;\n    }\n\n    struct Item {\n        uint uuid;\n        uint quantity;\n        ItemType itemType;\n        ItemStatus status;\n        ItemCondition condition;\n        string title;\n        string description;\n        uint256 price;\n        uint[] delivery; //Simply holds the ID for the delivery method, done for saving space\n        uint[] tags;\n        uint returnPolicy;\n\n    }\n\n    function getItem(uint id) public view returns (\n        uint uuid,\n        uint quantity,\n        ItemType itemType,\n        ItemStatus status,\n        ItemCondition condition,\n        string memory title,\n        string memory description,\n        uint256 price,\n        uint returnPolicy\n    ){\n\n        Item memory item = itemListings[id];\n        return (item.uuid, item.quantity, item.itemType, item.status, item.condition, item.title, item.description, item.price, item.returnPolicy);\n    }\n\n    //This is simply more for convenience than not\n    function getItemPrice(uint id) public view returns (uint256) {\n        return itemListings[id].price;\n    }\n\n    //Arguably, these functions below could be refactored via enums, but probably overkill\n\n    function getItemDelivery(uint id, uint index) public view returns (uint) { \n        return itemListings[id].delivery[index]; \n    }\n\n    function getItemTag(uint id, uint index) public view returns (uint) {\n        return itemListings[id].tags[index];\n    }\n\n    function getItemDeliveryLength(uint id) public view returns (uint) {\n        return itemListings[id].delivery.length;\n    }\n\n    function getItemTagsLength(uint id) public view returns (uint) {\n        return itemListings[id].tags.length;\n    }\n\n\n\n/*\n==============================\nItemListing add/update/delete\n==============================\n*/\n\n\n    function _addItemListing (\n        uint256 ein,\n        uint uuid,\n        uint quantity,\n        ItemType itemType,\n        ItemStatus status,\n        ItemCondition condition,\n        string memory title,\n        string memory description,\n        uint256 price,\n        uint[] memory delivery,\n        uint[] memory tags,\n        uint returnPolicy\n    ) internal returns (bool) {\n\n        //Mint it as an ERC721 owned by the creator\n        _mint(ein, nextItemListingsID);\n\n        //Add to itemListings\n        itemListings[nextItemListingsID] = Item(uuid, quantity, itemType, status, condition, title, description, price, delivery, tags, returnPolicy);\n        //advance item by one\n        nextItemListingsID++;\n\n        return true;\n    }\n\n\n    //NOTE: This can be changed in a way that does not re-create an entirely new item on every call, but more complex that perhaps needed\n\n    function _updateItemListing (\n        uint id,\n        uint uuid,\n        uint quantity,\n        ItemType itemType,\n        ItemStatus status,\n        ItemCondition condition,\n        string memory title,\n        string memory description,\n        uint256 price,\n        uint[] memory delivery,\n        uint[] memory tags,\n        uint returnPolicy\n    ) internal returns (bool) {\n\n        //Update itemListing identified by ID\n        itemListings[id] = Item(uuid, quantity, itemType, status, condition, title, description, price, delivery, tags, returnPolicy);\n        return true;\n    }\n\n\n    function _deleteItemListing(uint id) internal returns (bool) {\n        //Delete itemListing identified by ID\n        delete itemListings[id];\n\n        //Finally, burn it\n        _burn(id);\n\n        return true;\n    }\n\n\n\n\n}\n\n\n\n",
  "sourcePath": "/home/luiserebii/hydrosnowflake_marketplace_coupons/contracts/marketplace/features/Items.sol",
  "compiler": {
    "name": "solc",
    "version": "0.5.6+commit.b259423e.Emscripten.clang"
  },
  "schemaVersion": "3.0.6",
  "updatedAt": "2019-04-11T00:38:35.867Z",
  "devdoc": {
    "methods": {
      "approve(uint256,uint256)": {
        "details": "Approves another EIN to transfer the given token ID The zero EIN indicates there is no approved EIN. There can only be one approved EIN per token at a given time. Can only be called by the token owner or an approved operator.",
        "params": {
          "to": "uint256 to be approved for the given token ID",
          "tokenId": "uint256 ID of the token to be approved"
        }
      },
      "approveAddress(address,uint256)": {
        "details": "Approves an address to transfer the given token ID The zero address indicates there is no approved EIN. There can only be one approved address per token at a given time. Can only be called by the token owner or an approved operator.",
        "params": {
          "to": "address to be approved for the given token ID",
          "tokenId": "uint256 ID of the token to be approved"
        }
      },
      "balanceOf(uint256)": {
        "details": "Gets the balance of the specified address",
        "params": {
          "owner": "uint256 to query the balance of"
        },
        "return": "uint256 representing the amount owned by the passed address"
      },
      "burn(uint256)": {
        "details": "Burns a specific Snowflake ERC721 token.",
        "params": {
          "tokenId": "uint256 id of the Snowflake ERC721 token to be burned."
        }
      },
      "getApproved(uint256)": {
        "details": "Gets the approved EIN for a token ID, or zero if no EIN set Reverts if the token ID does not exist.",
        "params": {
          "tokenId": "uint256 ID of the token to query the approval of"
        },
        "return": "EIN currently approved for the given token ID"
      },
      "getApprovedAddress(uint256)": {
        "details": "Gets the approved address for a token ID, or zero if no EIN set Reverts if the token ID does not exist.",
        "params": {
          "tokenId": "uint256 ID of the token to query the approval of"
        },
        "return": "address currently approved for the given token ID"
      },
      "isApprovedForAll(uint256,uint256)": {
        "details": "Tells whether an operator is approved by a given owner",
        "params": {
          "operator": "operator EIN which you want to query the approval of",
          "owner": "owner EIN which you want to query the approval of"
        },
        "return": "bool whether the given operator is approved by the given owner"
      },
      "mint(uint256,uint256)": {
        "details": "Function to mint tokens",
        "params": {
          "to": "The EIN that will receive the minted tokens.",
          "tokenId": "The token id to mint."
        },
        "return": "A boolean that indicates if the operation was successful."
      },
      "ownerOf(uint256)": {
        "details": "Gets the owner of the specified token ID",
        "params": {
          "tokenId": "uint256 ID of the token to query the owner of"
        },
        "return": "uint256 currently marked as the owner of the given token ID"
      },
      "safeTransferFrom(uint256,uint256,uint256)": {
        "details": "Safely transfers the ownership of a given token ID to another EIN If the target EIN is a contract, it must implement `onERC721Received`, which is called upon a safe transfer, and return the magic value `bytes4(keccak256(\"onERC721Received(address,address,uint256,bytes)\"))`; otherwise, the transfer is reverted. Requires the msg.sender to be the owner, approved, or operator",
        "params": {
          "from": "uint256 current owner of the token",
          "to": "uint256 to receive the ownership of the given token ID",
          "tokenId": "uint256 ID of the token to be transferred"
        }
      },
      "safeTransferFrom(uint256,uint256,uint256,bytes)": {
        "details": "Safely transfers the ownership of a given token ID to another EIN If the target EIN is a contract, it must implement `onERC721Received`, which is called upon a safe transfer, and return the magic value `bytes4(keccak256(\"onERC721Received(address,address,uint256,bytes)\"))`; otherwise, the transfer is reverted. Requires the msg.sender to be the owner, approved, or operator",
        "params": {
          "_data": "bytes data to send along with a safe transfer check",
          "from": "current owner of the token",
          "to": "uint256 to receive the ownership of the given token ID",
          "tokenId": "uint256 ID of the token to be transferred"
        }
      },
      "safeTransferFromAddress(uint256,uint256,uint256)": {
        "details": "Safely transfers the ownership of a given token ID to another EIN If the target EIN is a contract, it must implement `onERC721Received`, which is called upon a safe transfer, and return the magic value `bytes4(keccak256(\"onERC721Received(address,address,uint256,bytes)\"))`; otherwise, the transfer is reverted. Requires the msg.sender to be the owner, approved, or operator",
        "params": {
          "from": "uint256 current owner of the token",
          "to": "uint256 to receive the ownership of the given token ID",
          "tokenId": "uint256 ID of the token to be transferred"
        }
      },
      "safeTransferFromAddress(uint256,uint256,uint256,bytes)": {
        "details": "Safely transfers the ownership of a given token ID to another EIN If the target address is a contract, it must implement `onERC721Received`, which is called upon a safe transfer, and return the magic value `bytes4(keccak256(\"onERC721Received(address,address,uint256,bytes)\"))`; otherwise, the transfer is reverted. Requires the msg.sender to be the owner, approved, or operator",
        "params": {
          "_data": "bytes data to send along with a safe transfer check",
          "from": "current owner of the token",
          "to": "uint256 to receive the ownership of the given token ID",
          "tokenId": "uint256 ID of the token to be transferred"
        }
      },
      "setApprovalForAll(uint256,bool)": {
        "details": "Sets or unsets the approval of a given operator An operator is allowed to transfer all tokens of the sender on their behalf",
        "params": {
          "approved": "representing the status of the approval to be set",
          "to": "operator EIN to set the approval"
        }
      },
      "supportsInterface(bytes4)": {
        "details": "implement supportsInterface(bytes4) using a lookup table"
      },
      "transferFrom(uint256,uint256,uint256)": {
        "details": "Transfers the ownership of a given token ID to another address Usage of this method is discouraged, use `safeTransferFrom` whenever possible Requires the msg.sender to be the owner, approved, or operator",
        "params": {
          "from": "current owner of the token",
          "to": "address to receive the ownership of the given token ID",
          "tokenId": "uint256 ID of the token to be transferred"
        }
      },
      "transferFromAddress(uint256,uint256,uint256)": {
        "details": "Transfers the ownership of a given token ID to another address Usage of this method is discouraged, use `safeTransferFrom` whenever possible Requires the msg.sender to be the owner, approved, or operator",
        "params": {
          "from": "current owner of the token",
          "to": "address to receive the ownership of the given token ID",
          "tokenId": "uint256 ID of the token to be transferred"
        }
      }
    }
  },
  "userdoc": {
    "methods": {}
  }
}