{
  "contractName": "ItemFeature",
  "abi": [
    {
      "constant": true,
      "inputs": [
        {
          "name": "interfaceId",
          "type": "bytes4"
        }
      ],
      "name": "supportsInterface",
      "outputs": [
        {
          "name": "",
          "type": "bool"
        }
      ],
      "payable": false,
      "stateMutability": "view",
      "type": "function"
    },
    {
      "constant": true,
      "inputs": [
        {
          "name": "id",
          "type": "uint256"
        },
        {
          "name": "index",
          "type": "uint256"
        }
      ],
      "name": "getItemTag",
      "outputs": [
        {
          "name": "",
          "type": "uint256"
        }
      ],
      "payable": false,
      "stateMutability": "view",
      "type": "function"
    },
    {
      "constant": true,
      "inputs": [
        {
          "name": "tokenId",
          "type": "uint256"
        }
      ],
      "name": "getApproved",
      "outputs": [
        {
          "name": "",
          "type": "uint256"
        }
      ],
      "payable": false,
      "stateMutability": "view",
      "type": "function"
    },
    {
      "constant": false,
      "inputs": [
        {
          "name": "from",
          "type": "uint256"
        },
        {
          "name": "to",
          "type": "uint256"
        },
        {
          "name": "tokenId",
          "type": "uint256"
        }
      ],
      "name": "safeTransferFromAddress",
      "outputs": [],
      "payable": false,
      "stateMutability": "nonpayable",
      "type": "function"
    },
    {
      "constant": true,
      "inputs": [
        {
          "name": "id",
          "type": "uint256"
        },
        {
          "name": "index",
          "type": "uint256"
        }
      ],
      "name": "getItemDelivery",
      "outputs": [
        {
          "name": "",
          "type": "uint256"
        }
      ],
      "payable": false,
      "stateMutability": "view",
      "type": "function"
    },
    {
      "constant": false,
      "inputs": [
        {
          "name": "to",
          "type": "uint256"
        },
        {
          "name": "approved",
          "type": "bool"
        }
      ],
      "name": "setApprovalForAll",
      "outputs": [],
      "payable": false,
      "stateMutability": "nonpayable",
      "type": "function"
    },
    {
      "constant": true,
      "inputs": [
        {
          "name": "",
          "type": "uint256"
        }
      ],
      "name": "itemListings",
      "outputs": [
        {
          "name": "uuid",
          "type": "uint256"
        },
        {
          "name": "quantity",
          "type": "uint256"
        },
        {
          "name": "itemType",
          "type": "uint8"
        },
        {
          "name": "status",
          "type": "uint8"
        },
        {
          "name": "condition",
          "type": "uint8"
        },
        {
          "name": "title",
          "type": "string"
        },
        {
          "name": "description",
          "type": "string"
        },
        {
          "name": "price",
          "type": "uint256"
        },
        {
          "name": "returnPolicy",
          "type": "uint256"
        }
      ],
      "payable": false,
      "stateMutability": "view",
      "type": "function"
    },
    {
      "constant": false,
      "inputs": [
        {
          "name": "to",
          "type": "uint256"
        },
        {
          "name": "tokenId",
          "type": "uint256"
        }
      ],
      "name": "mint",
      "outputs": [
        {
          "name": "",
          "type": "bool"
        }
      ],
      "payable": false,
      "stateMutability": "nonpayable",
      "type": "function"
    },
    {
      "constant": false,
      "inputs": [
        {
          "name": "from",
          "type": "uint256"
        },
        {
          "name": "to",
          "type": "uint256"
        },
        {
          "name": "tokenId",
          "type": "uint256"
        }
      ],
      "name": "transferFrom",
      "outputs": [],
      "payable": false,
      "stateMutability": "nonpayable",
      "type": "function"
    },
    {
      "constant": true,
      "inputs": [
        {
          "name": "id",
          "type": "uint256"
        }
      ],
      "name": "getItem",
      "outputs": [
        {
          "name": "uuid",
          "type": "uint256"
        },
        {
          "name": "quantity",
          "type": "uint256"
        },
        {
          "name": "itemType",
          "type": "uint8"
        },
        {
          "name": "status",
          "type": "uint8"
        },
        {
          "name": "condition",
          "type": "uint8"
        },
        {
          "name": "title",
          "type": "string"
        },
        {
          "name": "description",
          "type": "string"
        },
        {
          "name": "price",
          "type": "uint256"
        },
        {
          "name": "returnPolicy",
          "type": "uint256"
        }
      ],
      "payable": false,
      "stateMutability": "view",
      "type": "function"
    },
    {
      "constant": true,
      "inputs": [],
      "name": "ownerEIN",
      "outputs": [
        {
          "name": "",
          "type": "uint256"
        }
      ],
      "payable": false,
      "stateMutability": "view",
      "type": "function"
    },
    {
      "constant": false,
      "inputs": [
        {
          "name": "tokenId",
          "type": "uint256"
        }
      ],
      "name": "burn",
      "outputs": [],
      "payable": false,
      "stateMutability": "nonpayable",
      "type": "function"
    },
    {
      "constant": false,
      "inputs": [
        {
          "name": "from",
          "type": "uint256"
        },
        {
          "name": "to",
          "type": "uint256"
        },
        {
          "name": "tokenId",
          "type": "uint256"
        },
        {
          "name": "_data",
          "type": "bytes"
        }
      ],
      "name": "safeTransferFromAddress",
      "outputs": [],
      "payable": false,
      "stateMutability": "nonpayable",
      "type": "function"
    },
    {
      "constant": true,
      "inputs": [
        {
          "name": "id",
          "type": "uint256"
        }
      ],
      "name": "getItemPrice",
      "outputs": [
        {
          "name": "",
          "type": "uint256"
        }
      ],
      "payable": false,
      "stateMutability": "view",
      "type": "function"
    },
    {
      "constant": false,
      "inputs": [
        {
          "name": "to",
          "type": "uint256"
        },
        {
          "name": "tokenId",
          "type": "uint256"
        }
      ],
      "name": "approve",
      "outputs": [],
      "payable": false,
      "stateMutability": "nonpayable",
      "type": "function"
    },
    {
      "constant": false,
      "inputs": [],
      "name": "isEINOwner",
      "outputs": [
        {
          "name": "",
          "type": "bool"
        }
      ],
      "payable": false,
      "stateMutability": "nonpayable",
      "type": "function"
    },
    {
      "constant": true,
      "inputs": [
        {
          "name": "id",
          "type": "uint256"
        }
      ],
      "name": "getItemDeliveryLength",
      "outputs": [
        {
          "name": "",
          "type": "uint256"
        }
      ],
      "payable": false,
      "stateMutability": "view",
      "type": "function"
    },
    {
      "constant": true,
      "inputs": [
        {
          "name": "tokenId",
          "type": "uint256"
        }
      ],
      "name": "ownerOf",
      "outputs": [
        {
          "name": "",
          "type": "uint256"
        }
      ],
      "payable": false,
      "stateMutability": "view",
      "type": "function"
    },
    {
      "constant": true,
      "inputs": [
        {
          "name": "id",
          "type": "uint256"
        }
      ],
      "name": "getItemTagsLength",
      "outputs": [
        {
          "name": "",
          "type": "uint256"
        }
      ],
      "payable": false,
      "stateMutability": "view",
      "type": "function"
    },
    {
      "constant": false,
      "inputs": [
        {
          "name": "from",
          "type": "uint256"
        },
        {
          "name": "to",
          "type": "uint256"
        },
        {
          "name": "tokenId",
          "type": "uint256"
        },
        {
          "name": "_data",
          "type": "bytes"
        }
      ],
      "name": "safeTransferFrom",
      "outputs": [],
      "payable": false,
      "stateMutability": "nonpayable",
      "type": "function"
    },
    {
      "constant": false,
      "inputs": [],
      "name": "renounceOwnership",
      "outputs": [],
      "payable": false,
      "stateMutability": "nonpayable",
      "type": "function"
    },
    {
      "constant": false,
      "inputs": [
        {
          "name": "from",
          "type": "uint256"
        },
        {
          "name": "to",
          "type": "uint256"
        },
        {
          "name": "tokenId",
          "type": "uint256"
        }
      ],
      "name": "transferFromAddress",
      "outputs": [],
      "payable": false,
      "stateMutability": "nonpayable",
      "type": "function"
    },
    {
      "constant": false,
      "inputs": [],
      "name": "renounceSnowflakeMinter",
      "outputs": [],
      "payable": false,
      "stateMutability": "nonpayable",
      "type": "function"
    },
    {
      "constant": false,
      "inputs": [
        {
          "name": "to",
          "type": "address"
        },
        {
          "name": "tokenId",
          "type": "uint256"
        }
      ],
      "name": "approveAddress",
      "outputs": [],
      "payable": false,
      "stateMutability": "nonpayable",
      "type": "function"
    },
    {
      "constant": true,
      "inputs": [
        {
          "name": "owner",
          "type": "uint256"
        },
        {
          "name": "operator",
          "type": "uint256"
        }
      ],
      "name": "isApprovedForAll",
      "outputs": [
        {
          "name": "",
          "type": "bool"
        }
      ],
      "payable": false,
      "stateMutability": "view",
      "type": "function"
    },
    {
      "constant": true,
      "inputs": [
        {
          "name": "account",
          "type": "uint256"
        }
      ],
      "name": "isSnowflakeMinter",
      "outputs": [
        {
          "name": "",
          "type": "bool"
        }
      ],
      "payable": false,
      "stateMutability": "view",
      "type": "function"
    },
    {
      "constant": true,
      "inputs": [
        {
          "name": "owner",
          "type": "uint256"
        }
      ],
      "name": "balanceOf",
      "outputs": [
        {
          "name": "",
          "type": "uint256"
        }
      ],
      "payable": false,
      "stateMutability": "view",
      "type": "function"
    },
    {
      "constant": false,
      "inputs": [
        {
          "name": "account",
          "type": "uint256"
        }
      ],
      "name": "addSnowflakeMinter",
      "outputs": [],
      "payable": false,
      "stateMutability": "nonpayable",
      "type": "function"
    },
    {
      "constant": true,
      "inputs": [],
      "name": "nextItemListingsID",
      "outputs": [
        {
          "name": "",
          "type": "uint256"
        }
      ],
      "payable": false,
      "stateMutability": "view",
      "type": "function"
    },
    {
      "constant": false,
      "inputs": [
        {
          "name": "newOwner",
          "type": "uint256"
        }
      ],
      "name": "transferOwnership",
      "outputs": [],
      "payable": false,
      "stateMutability": "nonpayable",
      "type": "function"
    },
    {
      "constant": true,
      "inputs": [
        {
          "name": "tokenId",
          "type": "uint256"
        }
      ],
      "name": "getApprovedAddress",
      "outputs": [
        {
          "name": "",
          "type": "address"
        }
      ],
      "payable": false,
      "stateMutability": "view",
      "type": "function"
    },
    {
      "constant": false,
      "inputs": [
        {
          "name": "from",
          "type": "uint256"
        },
        {
          "name": "to",
          "type": "uint256"
        },
        {
          "name": "tokenId",
          "type": "uint256"
        }
      ],
      "name": "safeTransferFrom",
      "outputs": [],
      "payable": false,
      "stateMutability": "nonpayable",
      "type": "function"
    },
    {
      "constant": true,
      "inputs": [],
      "name": "snowflakeAddress",
      "outputs": [
        {
          "name": "",
          "type": "address"
        }
      ],
      "payable": false,
      "stateMutability": "view",
      "type": "function"
    },
    {
      "inputs": [
        {
          "name": "_snowflakeAddress",
          "type": "address"
        }
      ],
      "payable": false,
      "stateMutability": "nonpayable",
      "type": "constructor"
    },
    {
      "anonymous": false,
      "inputs": [
        {
          "indexed": false,
          "name": "owner",
          "type": "uint256"
        },
        {
          "indexed": false,
          "name": "to",
          "type": "address"
        },
        {
          "indexed": false,
          "name": "tokenId",
          "type": "uint256"
        }
      ],
      "name": "ApprovalAddress",
      "type": "event"
    },
    {
      "anonymous": false,
      "inputs": [
        {
          "indexed": true,
          "name": "account",
          "type": "uint256"
        }
      ],
      "name": "SnowflakeMinterAdded",
      "type": "event"
    },
    {
      "anonymous": false,
      "inputs": [
        {
          "indexed": true,
          "name": "account",
          "type": "uint256"
        }
      ],
      "name": "SnowflakeMinterRemoved",
      "type": "event"
    },
    {
      "anonymous": false,
      "inputs": [
        {
          "indexed": true,
          "name": "previousOwner",
          "type": "uint256"
        },
        {
          "indexed": true,
          "name": "newOwner",
          "type": "uint256"
        }
      ],
      "name": "OwnershipTransferred",
      "type": "event"
    },
    {
      "anonymous": false,
      "inputs": [
        {
          "indexed": true,
          "name": "einFrom",
          "type": "uint256"
        },
        {
          "indexed": true,
          "name": "einTo",
          "type": "uint256"
        },
        {
          "indexed": true,
          "name": "tokenId",
          "type": "uint256"
        }
      ],
      "name": "Transfer",
      "type": "event"
    },
    {
      "anonymous": false,
      "inputs": [
        {
          "indexed": true,
          "name": "einOwner",
          "type": "uint256"
        },
        {
          "indexed": true,
          "name": "einApproved",
          "type": "uint256"
        },
        {
          "indexed": true,
          "name": "tokenId",
          "type": "uint256"
        }
      ],
      "name": "Approval",
      "type": "event"
    },
    {
      "anonymous": false,
      "inputs": [
        {
          "indexed": true,
          "name": "einOwner",
          "type": "uint256"
        },
        {
          "indexed": true,
          "name": "einOperator",
          "type": "uint256"
        },
        {
          "indexed": false,
          "name": "approved",
          "type": "bool"
        }
      ],
      "name": "ApprovalForAll",
      "type": "event"
    },
    {
      "constant": false,
      "inputs": [
        {
          "name": "ein",
          "type": "uint256"
        },
        {
          "name": "uuid",
          "type": "uint256"
        },
        {
          "name": "quantity",
          "type": "uint256"
        },
        {
          "name": "itemType",
          "type": "uint8"
        },
        {
          "name": "status",
          "type": "uint8"
        },
        {
          "name": "condition",
          "type": "uint8"
        },
        {
          "name": "title",
          "type": "string"
        },
        {
          "name": "description",
          "type": "string"
        },
        {
          "name": "price",
          "type": "uint256"
        },
        {
          "name": "delivery",
          "type": "uint256[]"
        },
        {
          "name": "tags",
          "type": "uint256[]"
        },
        {
          "name": "returnPolicy",
          "type": "uint256"
        }
      ],
      "name": "addItemListing",
      "outputs": [
        {
          "name": "",
          "type": "bool"
        }
      ],
      "payable": false,
      "stateMutability": "nonpayable",
      "type": "function"
    },
    {
      "constant": false,
      "inputs": [
        {
          "name": "id",
          "type": "uint256"
        },
        {
          "name": "uuid",
          "type": "uint256"
        },
        {
          "name": "quantity",
          "type": "uint256"
        },
        {
          "name": "itemType",
          "type": "uint8"
        },
        {
          "name": "status",
          "type": "uint8"
        },
        {
          "name": "condition",
          "type": "uint8"
        },
        {
          "name": "title",
          "type": "string"
        },
        {
          "name": "description",
          "type": "string"
        },
        {
          "name": "price",
          "type": "uint256"
        },
        {
          "name": "delivery",
          "type": "uint256[]"
        },
        {
          "name": "tags",
          "type": "uint256[]"
        },
        {
          "name": "returnPolicy",
          "type": "uint256"
        }
      ],
      "name": "updateItemListing",
      "outputs": [
        {
          "name": "",
          "type": "bool"
        }
      ],
      "payable": false,
      "stateMutability": "nonpayable",
      "type": "function"
    },
    {
      "constant": false,
      "inputs": [
        {
          "name": "id",
          "type": "uint256"
        }
      ],
      "name": "deleteItemListing",
      "outputs": [
        {
          "name": "",
          "type": "bool"
        }
      ],
      "payable": false,
      "stateMutability": "nonpayable",
      "type": "function"
    }
  ],
  "bytecode": "0x60806040523480156200001157600080fd5b5060405160208062002b63833981018060405260208110156200003357600080fd5b5051620000697f01ffc9a70000000000000000000000000000000000000000000000000000000064010000000062000084810204565b6200007d81640100000000620000f1810204565b50620005bf565b7fffffffff000000000000000000000000000000000000000000000000000000008082161415620000b457600080fd5b7fffffffff00000000000000000000000000000000000000000000000000000000166000908152602081905260409020805460ff19166001179055565b62000105816401000000006200011c810204565b620001198164010000000062000174810204565b50565b6200013081640100000000620001af810204565b6200014481640100000000620001f7810204565b62000158816401000000006200020b810204565b6200016c81640100000000620001f7810204565b506001600955565b620001888164010000000062000233810204565b62000119620001a03364010000000062000255810204565b64010000000062000271810204565b620001c38164010000000062000233810204565b620001197f4872420e0000000000000000000000000000000000000000000000000000000064010000000062000084810204565b6200011981640100000000620001af810204565b6200021f81640100000000620001af810204565b6200011981640100000000620002a6810204565b60028054600160a060020a031916600160a060020a0392909216919091179055565b60006200026b82640100000000620002e1810204565b92915050565b600181905560405181906000907f41545563b5478d4a04f861e33b36e455316904e9fe15096d35d14a5f9885212a908290a350565b620002ba8164010000000062000233810204565b62000119620002d233640100000000620002e1810204565b6401000000006200050b810204565b600254604080517fa759ee6f0000000000000000000000000000000000000000000000000000000081529051600092600160a060020a0316918391839163a759ee6f91600480830192602092919082900301818787803b1580156200034557600080fd5b505af11580156200035a573d6000803e3d6000fd5b505050506040513d60208110156200037157600080fd5b5051604080517f237f1a21000000000000000000000000000000000000000000000000000000008152600160a060020a038781166004830152915192935083929183169163237f1a2191602480820192602092909190829003018186803b158015620003dc57600080fd5b505afa158015620003f1573d6000803e3d6000fd5b505050506040513d60208110156200040857600080fd5b505162000461576040517f08c379a000000000000000000000000000000000000000000000000000000000815260040180806020018281038252602881526020018062002b3b6028913960400191505060405180910390fd5b80600160a060020a03166305c62c2f866040518263ffffffff167c01000000000000000000000000000000000000000000000000000000000281526004018082600160a060020a0316600160a060020a0316815260200191505060206040518083038186803b158015620004d457600080fd5b505afa158015620004e9573d6000803e3d6000fd5b505050506040513d60208110156200050057600080fd5b505195945050505050565b62000526600782640100000000620022ef6200055482021704565b60405181907fc96fabf52983c486b9ee7f26fa97994b2199bd98cf74f02ef6aa1e1d87cbb48290600090a250565b806200055f57600080fd5b6200057482826401000000006200059b810204565b156200057f57600080fd5b600090815260209190915260409020805460ff19166001179055565b600081620005a857600080fd5b506000908152602091909152604090205460ff1690565b61256c80620005cf6000396000f3fe608060405234801561001057600080fd5b50600436106102205760003560e060020a900480636352211e116101295780638d9188d5116100b1578063af05cbdf11610080578063af05cbdf14610d07578063d23e848914610d0f578063eca4742a14610d2c578063f467046214610d65578063f9f451b814610d8e57610220565b80638d9188d514610c8d5780639690f6d114610cb05780639cc7f70814610ccd578063a4453ffb14610cea57610220565b806377dfe7c8116100f857806377dfe7c8146109a55780637c35d69214610c135780637f493d9c14610c30578063895c3e9414610c595780638b9a0c8914610c6157610220565b80636352211e146108aa57806364433bb2146108c757806368d1e641146108e4578063715018a61461099d57610220565b8063310ed7f0116101ac578063435b153f1161017b578063435b153f1461078c5780634c4df870146108455780635d35a3d9146108625780635fd5e4d0146108855780635fe0d82f1461088d57610220565b8063310ed7f0146107215780633129e7731461074a5780633e938fb71461076757806342966c681461076f57610220565b80631240aa40116101f35780631240aa40146102f257806313ca683a1461056057806316b49a4314610583578063172e8e4c146105a85780631b2ef1ca146106fe57610220565b806301ffc9a71461022557806302569d5b14610275578063081812fc146102aa5780630d2e347d146102c7575b600080fd5b6102616004803603602081101561023b57600080fd5b50357bffffffffffffffffffffffffffffffffffffffffffffffffffffffff1916610d96565b604080519115158252519081900360200190f35b6102986004803603604081101561028b57600080fd5b5080359060200135610dca565b60408051918252519081900360200190f35b610298600480360360208110156102c057600080fd5b5035610dfa565b6102f0600480360360608110156102dd57600080fd5b5080359060208101359060400135610e21565b005b610261600480360361018081101561030957600080fd5b81359160208101359160408201359160ff6060820135811692608083013582169260a0810135909216919081019060e0810160c082013564010000000081111561035257600080fd5b82018360208201111561036457600080fd5b8035906020019184600183028401116401000000008311171561038657600080fd5b91908080601f01602080910402602001604051908101604052809392919081815260200183838082843760009201919091525092959493602081019350359150506401000000008111156103d957600080fd5b8201836020820111156103eb57600080fd5b8035906020019184600183028401116401000000008311171561040d57600080fd5b91908080601f0160208091040260200160405190810160405280939291908181526020018383808284376000920191909152509295843595909490935060408101925060200135905064010000000081111561046857600080fd5b82018360208201111561047a57600080fd5b8035906020019184602083028401116401000000008311171561049c57600080fd5b91908080602002602001604051908101604052809392919081815260200183836020028082843760009201919091525092959493602081019350359150506401000000008111156104ec57600080fd5b8201836020820111156104fe57600080fd5b8035906020019184602083028401116401000000008311171561052057600080fd5b9190808060200260200160405190810160405280939291908181526020018383602002808284376000920191909152509295505091359250610e41915050565b6102986004803603604081101561057657600080fd5b5080359060200135610e79565b6102f06004803603604081101561059957600080fd5b50803590602001351515610e96565b6105c5600480360360208110156105be57600080fd5b5035610f12565b604051808a81526020018981526020018860018111156105e157fe5b60ff1681526020018760018111156105f557fe5b60ff16815260200186600481111561060957fe5b60ff1681526020018060200180602001858152602001848152602001838103835287818151815260200191508051906020019080838360005b8381101561065a578181015183820152602001610642565b50505050905090810190601f1680156106875780820380516001836020036101000a031916815260200191505b50838103825286518152865160209182019188019080838360005b838110156106ba5781810151838201526020016106a2565b50505050905090810190601f1680156106e75780820380516001836020036101000a031916815260200191505b509b50505050505050505050505060405180910390f35b6102616004803603604081101561071457600080fd5b5080359060200135611073565b6102f06004803603606081101561073757600080fd5b50803590602081013590604001356110a2565b6105c56004803603602081101561076057600080fd5b50356110c8565b6102986113d9565b6102f06004803603602081101561078557600080fd5b50356113e0565b6102f0600480360360808110156107a257600080fd5b813591602081013591604082013591908101906080810160608201356401000000008111156107d057600080fd5b8201836020820111156107e257600080fd5b8035906020019184600183028401116401000000008311171561080457600080fd5b91908080601f016020809104026020016040519081016040528093929190818152602001838380828437600092019190915250929550611401945050505050565b6102986004803603602081101561085b57600080fd5b5035611427565b6102f06004803603604081101561087857600080fd5b508035906020013561143c565b6102616114c1565b610298600480360360208110156108a357600080fd5b50356114d0565b610298600480360360208110156108c057600080fd5b50356114e5565b610298600480360360208110156108dd57600080fd5b5035611504565b6102f0600480360360808110156108fa57600080fd5b8135916020810135916040820135919081019060808101606082013564010000000081111561092857600080fd5b82018360208201111561093a57600080fd5b8035906020019184600183028401116401000000008311171561095c57600080fd5b91908080601f016020809104026020016040519081016040528093929190818152602001838380828437600092019190915250929550611519945050505050565b6102f0611524565b61026160048036036101808110156109bc57600080fd5b81359160208101359160408201359160ff6060820135811692608083013582169260a0810135909216919081019060e0810160c0820135640100000000811115610a0557600080fd5b820183602082011115610a1757600080fd5b80359060200191846001830284011164010000000083111715610a3957600080fd5b91908080601f0160208091040260200160405190810160405280939291908181526020018383808284376000920191909152509295949360208101935035915050640100000000811115610a8c57600080fd5b820183602082011115610a9e57600080fd5b80359060200191846001830284011164010000000083111715610ac057600080fd5b91908080601f01602080910402602001604051908101604052809392919081815260200183838082843760009201919091525092958435959094909350604081019250602001359050640100000000811115610b1b57600080fd5b820183602082011115610b2d57600080fd5b80359060200191846020830284011164010000000083111715610b4f57600080fd5b9190808060200260200160405190810160405280939291908181526020018383602002808284376000920191909152509295949360208101935035915050640100000000811115610b9f57600080fd5b820183602082011115610bb157600080fd5b80359060200191846020830284011164010000000083111715610bd357600080fd5b919080806020026020016040519081016040528093929190818152602001838360200280828437600092019190915250929550509135925061156b915050565b61026160048036036020811015610c2957600080fd5b5035611592565b6102f060048036036060811015610c4657600080fd5b50803590602081013590604001356115ae565b6102f06115cc565b6102f060048036036040811015610c7757600080fd5b50600160a060020a0381351690602001356115df565b61026160048036036040811015610ca357600080fd5b50803590602001356116de565b61026160048036036020811015610cc657600080fd5b50356116fe565b61029860048036036020811015610ce357600080fd5b5035611711565b6102f060048036036020811015610d0057600080fd5b5035611734565b610298611752565b6102f060048036036020811015610d2557600080fd5b5035611758565b610d4960048036036020811015610d4257600080fd5b5035611772565b60408051600160a060020a039092168252519081900360200190f35b6102f060048036036060811015610d7b57600080fd5b50803590602081013590604001356117a2565b610d496117bd565b7bffffffffffffffffffffffffffffffffffffffffffffffffffffffff191660009081526020819052604090205460ff1690565b6000828152600a60205260408120600701805483908110610de757fe5b9060005260206000200154905092915050565b6000610e05826117cc565b610e0e57600080fd5b5060009081526004602052604090205490565b610e3c83838360405180602001604052806000815250611401565b505050565b6000610e4b6114c1565b610e5457600080fd5b610e688d8d8d8d8d8d8d8d8d8d8d8d6117e0565b9d9c50505050505050505050505050565b6000828152600a60205260408120600601805483908110610de757fe5b6000610ea13361199e565b905080831415610eb057600080fd5b6000818152600660209081526040808320868452825291829020805460ff191685151590811790915582519081529151859284927fe08356808518f185b1eebe6f778106965c2df3a69af4d7139fa9451067146eb792918290030190a3505050565b600a60209081526000918252604091829020805460018083015460028085015460038601805489516101009682161587026000190190911693909304601f81018990048902840189019099528883529497929660ff808316979583048116966201000090930416949390830182828015610fcd5780601f10610fa257610100808354040283529160200191610fcd565b820191906000526020600020905b815481529060010190602001808311610fb057829003601f168201915b5050505060048301805460408051602060026001851615610100026000190190941693909304601f810184900484028201840190925281815294959493509083018282801561105d5780601f106110325761010080835404028352916020019161105d565b820191906000526020600020905b81548152906001019060200180831161104057829003601f168201915b5050505050908060050154908060080154905089565b60006110866110813361199e565b6116fe565b61108f57600080fd5b6110998383611ba4565b50600192915050565b6110b46110ae3361199e565b82611c1c565b6110bd57600080fd5b610e3c838383611c57565b60008060008060006060806000806110de61233e565b600a60008c81526020019081526020016000206040518061016001604052908160008201548152602001600182015481526020016002820160009054906101000a900460ff16600181111561112f57fe5b600181111561113a57fe5b81526020016002820160019054906101000a900460ff16600181111561115c57fe5b600181111561116757fe5b81526020016002820160029054906101000a900460ff16600481111561118957fe5b600481111561119457fe5b815260038201805460408051602060026001851615610100026000190190941693909304601f81018490048402820184019092528181529382019392918301828280156112225780601f106111f757610100808354040283529160200191611222565b820191906000526020600020905b81548152906001019060200180831161120557829003601f168201915b505050918352505060048201805460408051602060026001851615610100026000190190941693909304601f81018490048402820184019092528181529382019392918301828280156112b65780601f1061128b576101008083540402835291602001916112b6565b820191906000526020600020905b81548152906001019060200180831161129957829003601f168201915b50505050508152602001600582015481526020016006820180548060200260200160405190810160405280929190818152602001828054801561131857602002820191906000526020600020905b815481526020019060010190808311611304575b505050505081526020016007820180548060200260200160405190810160405280929190818152602001828054801561137057602002820191906000526020600020905b81548152602001906001019080831161135c575b505050505081526020016008820154815250509050806000015181602001518260400151836060015184608001518560a001518660c001518760e00151886101400151839350829250995099509950995099509950995099509950509193959799909294969850565b6001545b90565b6113ec6110ae3361199e565b6113f557600080fd5b6113fe81611ced565b50565b61140c8484846115ae565b61141884848484611cff565b61142157600080fd5b50505050565b6000908152600a602052604090206005015490565b6000611447826114e5565b905060006114543361199e565b90508184141561146357600080fd5b81811480611476575061147682826116de565b61147f57600080fd5b600083815260046020526040808220869055518491869185917f08aaf4f7dd1adfa5bfe7067dea5b4ebd7e119d43257438a9189f37d7044eb09a91a450505050565b60006114cb611e45565b905090565b6000908152600a602052604090206006015490565b600081815260036020526040812054806114fe57600080fd5b92915050565b6000908152600a602052604090206007015490565b61140c8484846110a2565b61152c6114c1565b61153557600080fd5b600154604051600091907f41545563b5478d4a04f861e33b36e455316904e9fe15096d35d14a5f9885212a908390a36000600155565b60006115756114c1565b61157e57600080fd5b610e688d8d8d8d8d8d8d8d8d8d8d8d611e5e565b600061159c6114c1565b6115a557600080fd5b6114fe82612004565b6115b83382612087565b6115c157600080fd5b610e3c8383836120ad565b6115dd6115d83361199e565b6120d4565b565b60006115ea826114e5565b905060006115f73361199e565b90508181148061160c575061160c82826116de565b611661576040517f08c379a00000000000000000000000000000000000000000000000000000000081526004018080602001828103825260458152602001806124d46045913960600191505060405180910390fd5b6000838152600860209081526040918290208054600160a060020a03881673ffffffffffffffffffffffffffffffffffffffff19909116811790915582518581529182015280820185905290517fdd2d4479f7ebe0a20212b0ef6b723a3f0d98a4b3d64b8d9898777c769bb7a8819181900360600190a150505050565b600091825260066020908152604080842092845291905290205460ff1690565b60006114fe60078363ffffffff61211316565b60008161171d57600080fd5b60008281526005602052604090206114fe90612136565b6117406110813361199e565b61174957600080fd5b6113fe8161213a565b60095481565b6117606114c1565b61176957600080fd5b6113fe81612179565b600061177d826117cc565b61178657600080fd5b50600090815260086020526040902054600160a060020a031690565b610e3c83838360405180602001604052806000815250611519565b600254600160a060020a031681565b600090815260036020526040902054151590565b60006117ee8d600954611ba4565b6040518061016001604052808d81526020018c81526020018b600181111561181257fe5b81526020018a600181111561182357fe5b815260200189600481111561183457fe5b815260200188815260200187815260200186815260200185815260200184815260200183815250600a60006009548152602001908152602001600020600082015181600001556020820151816001015560408201518160020160006101000a81548160ff021916908360018111156118a857fe5b0217905550606082015160028201805461ff0019166101008360018111156118cc57fe5b0217905550608082015160028201805462ff00001916620100008360048111156118f257fe5b021790555060a082015180516119129160038401916020909101906123a3565b5060c0820151805161192e9160048401916020909101906123a3565b5060e082015160058201556101008201518051611955916006840191602090910190612421565b506101208201518051611972916007840191602090910190612421565b506101409190910151600890910155506009805460019081019091559c9b505050505050505050505050565b600254604080517fa759ee6f0000000000000000000000000000000000000000000000000000000081529051600092600160a060020a0316918391839163a759ee6f91600480830192602092919082900301818787803b158015611a0157600080fd5b505af1158015611a15573d6000803e3d6000fd5b505050506040513d6020811015611a2b57600080fd5b5051604080517f237f1a21000000000000000000000000000000000000000000000000000000008152600160a060020a038781166004830152915192935083929183169163237f1a2191602480820192602092909190829003018186803b158015611a9557600080fd5b505afa158015611aa9573d6000803e3d6000fd5b505050506040513d6020811015611abf57600080fd5b5051611b16576040517f08c379a00000000000000000000000000000000000000000000000000000000081526004018080602001828103825260288152602001806125196028913960400191505060405180910390fd5b80600160a060020a03166305c62c2f866040518263ffffffff1660e060020a0281526004018082600160a060020a0316600160a060020a0316815260200191505060206040518083038186803b158015611b6f57600080fd5b505afa158015611b83573d6000803e3d6000fd5b505050506040513d6020811015611b9957600080fd5b505195945050505050565b81611bae57600080fd5b611bb7816117cc565b15611bc157600080fd5b600081815260036020908152604080832085905584835260059091529020611be8906121b7565b808260007faf6151f5085accf2d57e1e7bf7601d3b3982e0de7e9a90f032f8554de9c104f660405160405180910390a45050565b600080611c28836114e5565b905080841480611c3f575083611c3d84610dfa565b145b80611c4f5750611c4f81856116de565b949350505050565b82611c61826114e5565b14611c6b57600080fd5b81611c7557600080fd5b611c7e816121c0565b6000838152600560205260409020611c95906121e5565b6000828152600560205260409020611cac906121b7565b600081815260036020526040808220849055518291849186917faf6151f5085accf2d57e1e7bf7601d3b3982e0de7e9a90f032f8554de9c104f691a4505050565b6113fe611cf9826114e5565b826121fc565b60008084600160a060020a031663494114c2611d1a3361199e565b8887876040518563ffffffff1660e060020a0281526004018085815260200184815260200183815260200180602001828103825283818151815260200191508051906020019080838360005b83811015611d7e578181015183820152602001611d66565b50505050905090810190601f168015611dab5780820380516001836020036101000a031916815260200191505b5095505050505050602060405180830381600087803b158015611dcd57600080fd5b505af1158015611de1573d6000803e3d6000fd5b505050506040513d6020811015611df757600080fd5b50517bffffffffffffffffffffffffffffffffffffffffffffffffffffffff19167f494114c20000000000000000000000000000000000000000000000000000000014915050949350505050565b6000611e4f6113d9565b611e583361199e565b14905090565b60006040518061016001604052808d81526020018c81526020018b6001811115611e8457fe5b81526020018a6001811115611e9557fe5b8152602001896004811115611ea657fe5b815260200188815260200187815260200186815260200185815260200184815260200183815250600a60008f8152602001908152602001600020600082015181600001556020820151816001015560408201518160020160006101000a81548160ff02191690836001811115611f1857fe5b0217905550606082015160028201805461ff001916610100836001811115611f3c57fe5b0217905550608082015160028201805462ff0000191662010000836004811115611f6257fe5b021790555060a08201518051611f829160038401916020909101906123a3565b5060c08201518051611f9e9160048401916020909101906123a3565b5060e082015160058201556101008201518051611fc5916006840191602090910190612421565b506101208201518051611fe2916007840191602090910190612421565b5061014091909101516008909101555060019c9b505050505050505050505050565b6000818152600a602052604081208181556001810182905560028101805462ffffff1916905581612038600383018261245b565b61204660048301600061245b565b600582016000905560068201600061205e919061249f565b61206c60078301600061249f565b6008820160009055505061207f82611ced565b506001919050565b600082600160a060020a031661209c83611772565b600160a060020a0316149392505050565b826120b7826114e5565b146120c157600080fd5b816120cb57600080fd5b6110bd81612271565b6120e560078263ffffffff6122b916565b60405181907f34803f71b3ce19f83d2efe8fd85a68795e6ca17a2139def6f374f7cec617366c90600090a250565b60008161211f57600080fd5b506000908152602091909152604090205460ff1690565b5490565b61214b60078263ffffffff6122ef16565b60405181907fc96fabf52983c486b9ee7f26fa97994b2199bd98cf74f02ef6aa1e1d87cbb48290600090a250565b8061218357600080fd5b6001546040518291907f41545563b5478d4a04f861e33b36e455316904e9fe15096d35d14a5f9885212a90600090a3600155565b80546001019055565b600081815260046020526040902054156113fe57600090815260046020526040812055565b80546121f890600163ffffffff61232916565b9055565b81612206826114e5565b1461221057600080fd5b612219816121c0565b6000828152600560205260409020612230906121e5565b6000818152600360205260408082208290555182919084907faf6151f5085accf2d57e1e7bf7601d3b3982e0de7e9a90f032f8554de9c104f6908390a45050565b600081815260086020526040902054600160a060020a0316156113fe576000908152600860205260409020805473ffffffffffffffffffffffffffffffffffffffff19169055565b806122c357600080fd5b6122cd8282612113565b6122d657600080fd5b600090815260209190915260409020805460ff19169055565b806122f957600080fd5b6123038282612113565b1561230d57600080fd5b600090815260209190915260409020805460ff19166001179055565b60008282111561233857600080fd5b50900390565b60405180610160016040528060008152602001600081526020016000600181111561236557fe5b815260200160008152602001600081526020016060815260200160608152602001600081526020016060815260200160608152602001600081525090565b828054600181600116156101000203166002900490600052602060002090601f016020900481019282601f106123e457805160ff1916838001178555612411565b82800160010185558215612411579182015b828111156124115782518255916020019190600101906123f6565b5061241d9291506124b9565b5090565b82805482825590600052602060002090810192821561241157916020028201828111156124115782518255916020019190600101906123f6565b50805460018160011615610100020316600290046000825580601f1061248157506113fe565b601f0160209004906000526020600020908101906113fe91906124b9565b50805460008255906000526020600020908101906113fe91905b6113dd91905b8082111561241d57600081556001016124bf56fe53656e646572206973206e6f74206f776e65722c206f72206661696c7320746f2070617373206973417070726f766564466f72416c6c286f776e65722c2073656e6465722941646472657373206e6f6e2d6578697374656e7420696e204964656e746974795265676973747279a165627a7a7230582073c581cefde7bf72e0bd447007c9667c79e113f79528f221f902974af9e76acf002941646472657373206e6f6e2d6578697374656e7420696e204964656e746974795265676973747279",
  "source": "pragma solidity ^0.5.0;\n\nimport \"../../ein/util/SnowflakeEINOwnable.sol\";\nimport \"./Items.sol\";\n\n\ncontract ItemFeature is Items, SnowflakeEINOwnable {\n\n\n    constructor(address _snowflakeAddress) public {\n        _constructItemFeature(_snowflakeAddress);\n    \n    }    \n\n    function _constructItemFeature(address _snowflakeAddress) internal {\n        _constructItems(_snowflakeAddress);\n        _constructSnowflakeEINOwnable(_snowflakeAddress);\n    }\n\n/*\n==============================\nItemListing add/update/delete\n==============================\n*/\n\n\n    function addItemListing (\n        uint256 ein, //The EIN to mint to (ERC721 mint(to, ___))\n        uint uuid,\n        uint quantity,\n        ItemType itemType,\n        ItemStatus status,\n        ItemCondition condition,\n        string memory title,\n        string memory description,\n        uint256 price,\n        uint[] memory delivery,\n        uint[] memory tags,\n        uint returnPolicy\n    ) public onlyEINOwner returns (bool) {\n       return _addItemListing(ein, uuid, quantity, itemType, status, condition, title, description, price, delivery, tags, returnPolicy);\n    }\n\n\n    function updateItemListing (\n        uint id,\n        uint uuid,\n        uint quantity,\n        ItemType itemType,\n        ItemStatus status,\n        ItemCondition condition,\n        string memory title,\n        string memory description,\n        uint256 price,\n        uint[] memory delivery,\n        uint[] memory tags,\n        uint returnPolicy\n    ) public onlyEINOwner returns (bool) {\n       return _updateItemListing(id, uuid, quantity, itemType, status, condition, title, description, price, delivery, tags, returnPolicy);\n    }\n\n    function deleteItemListing(uint id) public onlyEINOwner returns (bool) {\n        return _deleteItemListing(id);\n    }\n\n\n\n/* ====================================================\n\n       END OF ADD/UPDATE/DELETE FUNCTIONS\n\n   ====================================================\n*/\n\n\n\n\n\n\n\n\n\n\n\n}\n",
  "sourcePath": "/home/luiserebii/github/HydroSnowflake-Marketplace-Coupons/contracts/marketplace/features/ItemFeature.sol",
  "compiler": {
    "name": "solc",
    "version": "0.5.6+commit.b259423e.Emscripten.clang"
  },
  "schemaVersion": "3.0.6",
  "updatedAt": "2019-04-12T01:36:38.129Z",
  "devdoc": {
    "methods": {
      "approve(uint256,uint256)": {
        "details": "Approves another EIN to transfer the given token ID The zero EIN indicates there is no approved EIN. There can only be one approved EIN per token at a given time. Can only be called by the token owner or an approved operator.",
        "params": {
          "to": "uint256 to be approved for the given token ID",
          "tokenId": "uint256 ID of the token to be approved"
        }
      },
      "approveAddress(address,uint256)": {
        "details": "Approves an address to transfer the given token ID The zero address indicates there is no approved EIN. There can only be one approved address per token at a given time. Can only be called by the token owner or an approved operator.",
        "params": {
          "to": "address to be approved for the given token ID",
          "tokenId": "uint256 ID of the token to be approved"
        }
      },
      "balanceOf(uint256)": {
        "details": "Gets the balance of the specified address",
        "params": {
          "owner": "uint256 to query the balance of"
        },
        "return": "uint256 representing the amount owned by the passed address"
      },
      "burn(uint256)": {
        "details": "Burns a specific Snowflake ERC721 token.",
        "params": {
          "tokenId": "uint256 id of the Snowflake ERC721 token to be burned."
        }
      },
      "getApproved(uint256)": {
        "details": "Gets the approved EIN for a token ID, or zero if no EIN set Reverts if the token ID does not exist.",
        "params": {
          "tokenId": "uint256 ID of the token to query the approval of"
        },
        "return": "EIN currently approved for the given token ID"
      },
      "getApprovedAddress(uint256)": {
        "details": "Gets the approved address for a token ID, or zero if no EIN set Reverts if the token ID does not exist.",
        "params": {
          "tokenId": "uint256 ID of the token to query the approval of"
        },
        "return": "address currently approved for the given token ID"
      },
      "isApprovedForAll(uint256,uint256)": {
        "details": "Tells whether an operator is approved by a given owner",
        "params": {
          "operator": "operator EIN which you want to query the approval of",
          "owner": "owner EIN which you want to query the approval of"
        },
        "return": "bool whether the given operator is approved by the given owner"
      },
      "isEINOwner()": {
        "return": "true if address resolves to owner of the contract."
      },
      "mint(uint256,uint256)": {
        "details": "Function to mint tokens",
        "params": {
          "to": "The EIN that will receive the minted tokens.",
          "tokenId": "The token id to mint."
        },
        "return": "A boolean that indicates if the operation was successful."
      },
      "ownerEIN()": {
        "return": "the EIN of the owner."
      },
      "ownerOf(uint256)": {
        "details": "Gets the owner of the specified token ID",
        "params": {
          "tokenId": "uint256 ID of the token to query the owner of"
        },
        "return": "uint256 currently marked as the owner of the given token ID"
      },
      "renounceOwnership()": {
        "details": "Allows the current owner to relinquish control of the contract."
      },
      "safeTransferFrom(uint256,uint256,uint256)": {
        "details": "Safely transfers the ownership of a given token ID to another EIN If the target EIN is a contract, it must implement `onERC721Received`, which is called upon a safe transfer, and return the magic value `bytes4(keccak256(\"onERC721Received(address,address,uint256,bytes)\"))`; otherwise, the transfer is reverted. Requires the msg.sender to be the owner, approved, or operator",
        "params": {
          "from": "uint256 current owner of the token",
          "to": "uint256 to receive the ownership of the given token ID",
          "tokenId": "uint256 ID of the token to be transferred"
        }
      },
      "safeTransferFrom(uint256,uint256,uint256,bytes)": {
        "details": "Safely transfers the ownership of a given token ID to another EIN If the target EIN is a contract, it must implement `onERC721Received`, which is called upon a safe transfer, and return the magic value `bytes4(keccak256(\"onERC721Received(address,address,uint256,bytes)\"))`; otherwise, the transfer is reverted. Requires the msg.sender to be the owner, approved, or operator",
        "params": {
          "_data": "bytes data to send along with a safe transfer check",
          "from": "current owner of the token",
          "to": "uint256 to receive the ownership of the given token ID",
          "tokenId": "uint256 ID of the token to be transferred"
        }
      },
      "safeTransferFromAddress(uint256,uint256,uint256)": {
        "details": "Safely transfers the ownership of a given token ID to another EIN If the target EIN is a contract, it must implement `onERC721Received`, which is called upon a safe transfer, and return the magic value `bytes4(keccak256(\"onERC721Received(address,address,uint256,bytes)\"))`; otherwise, the transfer is reverted. Requires the msg.sender to be the owner, approved, or operator",
        "params": {
          "from": "uint256 current owner of the token",
          "to": "uint256 to receive the ownership of the given token ID",
          "tokenId": "uint256 ID of the token to be transferred"
        }
      },
      "safeTransferFromAddress(uint256,uint256,uint256,bytes)": {
        "details": "Safely transfers the ownership of a given token ID to another EIN If the target address is a contract, it must implement `onERC721Received`, which is called upon a safe transfer, and return the magic value `bytes4(keccak256(\"onERC721Received(address,address,uint256,bytes)\"))`; otherwise, the transfer is reverted. Requires the msg.sender to be the owner, approved, or operator",
        "params": {
          "_data": "bytes data to send along with a safe transfer check",
          "from": "current owner of the token",
          "to": "uint256 to receive the ownership of the given token ID",
          "tokenId": "uint256 ID of the token to be transferred"
        }
      },
      "setApprovalForAll(uint256,bool)": {
        "details": "Sets or unsets the approval of a given operator An operator is allowed to transfer all tokens of the sender on their behalf",
        "params": {
          "approved": "representing the status of the approval to be set",
          "to": "operator EIN to set the approval"
        }
      },
      "supportsInterface(bytes4)": {
        "details": "implement supportsInterface(bytes4) using a lookup table"
      },
      "transferFrom(uint256,uint256,uint256)": {
        "details": "Transfers the ownership of a given token ID to another address Usage of this method is discouraged, use `safeTransferFrom` whenever possible Requires the msg.sender to be the owner, approved, or operator",
        "params": {
          "from": "current owner of the token",
          "to": "address to receive the ownership of the given token ID",
          "tokenId": "uint256 ID of the token to be transferred"
        }
      },
      "transferFromAddress(uint256,uint256,uint256)": {
        "details": "Transfers the ownership of a given token ID to another address Usage of this method is discouraged, use `safeTransferFrom` whenever possible Requires the msg.sender to be the owner, approved, or operator",
        "params": {
          "from": "current owner of the token",
          "to": "address to receive the ownership of the given token ID",
          "tokenId": "uint256 ID of the token to be transferred"
        }
      },
      "transferOwnership(uint256)": {
        "details": "Allows the current owner to transfer control of the contract to a newOwner.",
        "params": {
          "newOwner": "The address to transfer ownership to."
        }
      }
    }
  },
  "userdoc": {
    "methods": {
      "renounceOwnership()": {
        "notice": "Renouncing to ownership will leave the contract without an owner. It will not be possible to call the functions with the `onlyOwner` modifier anymore."
      }
    }
  }
}