{
  "contractName": "ItemTags",
  "abi": [
    {
      "constant": true,
      "inputs": [
        {
          "name": "",
          "type": "uint256"
        }
      ],
      "name": "itemTags",
      "outputs": [
        {
          "name": "",
          "type": "string"
        }
      ],
      "payable": false,
      "stateMutability": "view",
      "type": "function"
    },
    {
      "constant": true,
      "inputs": [],
      "name": "nextItemTagsID",
      "outputs": [
        {
          "name": "",
          "type": "uint256"
        }
      ],
      "payable": false,
      "stateMutability": "view",
      "type": "function"
    }
  ],
  "bytecode": "0x608060405234801561001057600080fd5b506101cf806100206000396000f3fe608060405234801561001057600080fd5b5060043610610052577c010000000000000000000000000000000000000000000000000000000060003504634f22b756811461005757806367316447146100e9575b600080fd5b6100746004803603602081101561006d57600080fd5b5035610103565b6040805160208082528351818301528351919283929083019185019080838360005b838110156100ae578181015183820152602001610096565b50505050905090810190601f1680156100db5780820380516001836020036101000a031916815260200191505b509250505060405180910390f35b6100f161019d565b60408051918252519081900360200190f35b60016020818152600092835260409283902080548451600294821615610100026000190190911693909304601f81018390048302840183019094528383529192908301828280156101955780601f1061016a57610100808354040283529160200191610195565b820191906000526020600020905b81548152906001019060200180831161017857829003601f168201915b505050505081565b6000548156fea165627a7a72305820747b375c84ed9fe0cca0fa98cd9939c5d6d5dd9d122b5417e6bf27c4fee3ace20029",
  "source": "pragma solidity ^0.5.0;\n\n\ncontract ItemTags {\n\n\n    //ID    \n    uint public nextItemTagsID;\n\n    //Struct\n    mapping(uint => string) public itemTags;\n\n/*    \n    constructor() public {\n        _constructItemTags();\n    }\n*/\n    function _constructItemTags() internal {\n        nextItemTagsID = 1;\n    }\n\n\n/*\n==============================\nItemTags add/update/delete\n==============================\n*/\n\n    function _addItemTag(string memory itemTag) internal returns (bool) {\n        //Add to deliveryMethods\n        itemTags[nextItemTagsID] = itemTag;\n        //Advance delivery method by one\n        nextItemTagsID++;\n\n        return true;\n    }\n\n    function _updateItemTag(uint id, string memory itemTag) internal returns (bool) {\n        //Update deliveryMethods by ID\n        itemTags[id] = itemTag;\n        return true;\n    }\n\n    function _deleteItemTag(uint id) internal returns (bool) {\n\n        //Delete itemListing identified by ID\n        delete itemTags[id];\n        return true;\n    }\n\n\n\n\n}\n",
  "sourcePath": "/home/luiserebii/github/HydroSnowflake-Marketplace-Coupons/contracts/marketplace/features/ItemTags.sol",
  "compiler": {
    "name": "solc",
    "version": "0.5.6+commit.b259423e.Emscripten.clang"
  },
  "schemaVersion": "3.0.6",
  "updatedAt": "2019-04-12T01:36:38.042Z",
  "devdoc": {
    "methods": {}
  },
  "userdoc": {
    "methods": {}
  }
}