{
  "contractName": "ItemFeature",
  "abi": [
    {
      "constant": true,
      "inputs": [
        {
          "name": "interfaceId",
          "type": "bytes4"
        }
      ],
      "name": "supportsInterface",
      "outputs": [
        {
          "name": "",
          "type": "bool"
        }
      ],
      "payable": false,
      "stateMutability": "view",
      "type": "function"
    },
    {
      "constant": true,
      "inputs": [
        {
          "name": "id",
          "type": "uint256"
        },
        {
          "name": "index",
          "type": "uint256"
        }
      ],
      "name": "getItemTag",
      "outputs": [
        {
          "name": "",
          "type": "uint256"
        }
      ],
      "payable": false,
      "stateMutability": "view",
      "type": "function"
    },
    {
      "constant": true,
      "inputs": [
        {
          "name": "tokenId",
          "type": "uint256"
        }
      ],
      "name": "getApproved",
      "outputs": [
        {
          "name": "",
          "type": "uint256"
        }
      ],
      "payable": false,
      "stateMutability": "view",
      "type": "function"
    },
    {
      "constant": false,
      "inputs": [
        {
          "name": "from",
          "type": "uint256"
        },
        {
          "name": "to",
          "type": "uint256"
        },
        {
          "name": "tokenId",
          "type": "uint256"
        }
      ],
      "name": "safeTransferFromAddress",
      "outputs": [],
      "payable": false,
      "stateMutability": "nonpayable",
      "type": "function"
    },
    {
      "constant": true,
      "inputs": [
        {
          "name": "id",
          "type": "uint256"
        },
        {
          "name": "index",
          "type": "uint256"
        }
      ],
      "name": "getItemDelivery",
      "outputs": [
        {
          "name": "",
          "type": "uint256"
        }
      ],
      "payable": false,
      "stateMutability": "view",
      "type": "function"
    },
    {
      "constant": false,
      "inputs": [
        {
          "name": "to",
          "type": "uint256"
        },
        {
          "name": "approved",
          "type": "bool"
        }
      ],
      "name": "setApprovalForAll",
      "outputs": [],
      "payable": false,
      "stateMutability": "nonpayable",
      "type": "function"
    },
    {
      "constant": true,
      "inputs": [
        {
          "name": "",
          "type": "uint256"
        }
      ],
      "name": "itemListings",
      "outputs": [
        {
          "name": "uuid",
          "type": "uint256"
        },
        {
          "name": "quantity",
          "type": "uint256"
        },
        {
          "name": "itemType",
          "type": "uint8"
        },
        {
          "name": "status",
          "type": "uint8"
        },
        {
          "name": "condition",
          "type": "uint8"
        },
        {
          "name": "title",
          "type": "string"
        },
        {
          "name": "description",
          "type": "string"
        },
        {
          "name": "price",
          "type": "uint256"
        },
        {
          "name": "returnPolicy",
          "type": "uint256"
        }
      ],
      "payable": false,
      "stateMutability": "view",
      "type": "function"
    },
    {
      "constant": false,
      "inputs": [
        {
          "name": "to",
          "type": "uint256"
        },
        {
          "name": "tokenId",
          "type": "uint256"
        }
      ],
      "name": "mint",
      "outputs": [
        {
          "name": "",
          "type": "bool"
        }
      ],
      "payable": false,
      "stateMutability": "nonpayable",
      "type": "function"
    },
    {
      "constant": false,
      "inputs": [
        {
          "name": "from",
          "type": "uint256"
        },
        {
          "name": "to",
          "type": "uint256"
        },
        {
          "name": "tokenId",
          "type": "uint256"
        }
      ],
      "name": "transferFrom",
      "outputs": [],
      "payable": false,
      "stateMutability": "nonpayable",
      "type": "function"
    },
    {
      "constant": true,
      "inputs": [
        {
          "name": "id",
          "type": "uint256"
        }
      ],
      "name": "getItem",
      "outputs": [
        {
          "name": "uuid",
          "type": "uint256"
        },
        {
          "name": "quantity",
          "type": "uint256"
        },
        {
          "name": "itemType",
          "type": "uint8"
        },
        {
          "name": "status",
          "type": "uint8"
        },
        {
          "name": "condition",
          "type": "uint8"
        },
        {
          "name": "title",
          "type": "string"
        },
        {
          "name": "description",
          "type": "string"
        },
        {
          "name": "price",
          "type": "uint256"
        },
        {
          "name": "returnPolicy",
          "type": "uint256"
        }
      ],
      "payable": false,
      "stateMutability": "view",
      "type": "function"
    },
    {
      "constant": true,
      "inputs": [],
      "name": "ownerEIN",
      "outputs": [
        {
          "name": "",
          "type": "uint256"
        }
      ],
      "payable": false,
      "stateMutability": "view",
      "type": "function"
    },
    {
      "constant": false,
      "inputs": [
        {
          "name": "tokenId",
          "type": "uint256"
        }
      ],
      "name": "burn",
      "outputs": [],
      "payable": false,
      "stateMutability": "nonpayable",
      "type": "function"
    },
    {
      "constant": false,
      "inputs": [
        {
          "name": "from",
          "type": "uint256"
        },
        {
          "name": "to",
          "type": "uint256"
        },
        {
          "name": "tokenId",
          "type": "uint256"
        },
        {
          "name": "_data",
          "type": "bytes"
        }
      ],
      "name": "safeTransferFromAddress",
      "outputs": [],
      "payable": false,
      "stateMutability": "nonpayable",
      "type": "function"
    },
    {
      "constant": true,
      "inputs": [
        {
          "name": "id",
          "type": "uint256"
        }
      ],
      "name": "getItemPrice",
      "outputs": [
        {
          "name": "",
          "type": "uint256"
        }
      ],
      "payable": false,
      "stateMutability": "view",
      "type": "function"
    },
    {
      "constant": false,
      "inputs": [
        {
          "name": "to",
          "type": "uint256"
        },
        {
          "name": "tokenId",
          "type": "uint256"
        }
      ],
      "name": "approve",
      "outputs": [],
      "payable": false,
      "stateMutability": "nonpayable",
      "type": "function"
    },
    {
      "constant": false,
      "inputs": [],
      "name": "isEINOwner",
      "outputs": [
        {
          "name": "",
          "type": "bool"
        }
      ],
      "payable": false,
      "stateMutability": "nonpayable",
      "type": "function"
    },
    {
      "constant": true,
      "inputs": [
        {
          "name": "id",
          "type": "uint256"
        }
      ],
      "name": "getItemDeliveryLength",
      "outputs": [
        {
          "name": "",
          "type": "uint256"
        }
      ],
      "payable": false,
      "stateMutability": "view",
      "type": "function"
    },
    {
      "constant": true,
      "inputs": [
        {
          "name": "tokenId",
          "type": "uint256"
        }
      ],
      "name": "ownerOf",
      "outputs": [
        {
          "name": "",
          "type": "uint256"
        }
      ],
      "payable": false,
      "stateMutability": "view",
      "type": "function"
    },
    {
      "constant": true,
      "inputs": [
        {
          "name": "id",
          "type": "uint256"
        }
      ],
      "name": "getItemTagsLength",
      "outputs": [
        {
          "name": "",
          "type": "uint256"
        }
      ],
      "payable": false,
      "stateMutability": "view",
      "type": "function"
    },
    {
      "constant": false,
      "inputs": [
        {
          "name": "from",
          "type": "uint256"
        },
        {
          "name": "to",
          "type": "uint256"
        },
        {
          "name": "tokenId",
          "type": "uint256"
        },
        {
          "name": "_data",
          "type": "bytes"
        }
      ],
      "name": "safeTransferFrom",
      "outputs": [],
      "payable": false,
      "stateMutability": "nonpayable",
      "type": "function"
    },
    {
      "constant": false,
      "inputs": [],
      "name": "renounceOwnership",
      "outputs": [],
      "payable": false,
      "stateMutability": "nonpayable",
      "type": "function"
    },
    {
      "constant": false,
      "inputs": [
        {
          "name": "from",
          "type": "uint256"
        },
        {
          "name": "to",
          "type": "uint256"
        },
        {
          "name": "tokenId",
          "type": "uint256"
        }
      ],
      "name": "transferFromAddress",
      "outputs": [],
      "payable": false,
      "stateMutability": "nonpayable",
      "type": "function"
    },
    {
      "constant": false,
      "inputs": [],
      "name": "renounceSnowflakeMinter",
      "outputs": [],
      "payable": false,
      "stateMutability": "nonpayable",
      "type": "function"
    },
    {
      "constant": false,
      "inputs": [
        {
          "name": "to",
          "type": "address"
        },
        {
          "name": "tokenId",
          "type": "uint256"
        }
      ],
      "name": "approveAddress",
      "outputs": [],
      "payable": false,
      "stateMutability": "nonpayable",
      "type": "function"
    },
    {
      "constant": true,
      "inputs": [
        {
          "name": "owner",
          "type": "uint256"
        },
        {
          "name": "operator",
          "type": "uint256"
        }
      ],
      "name": "isApprovedForAll",
      "outputs": [
        {
          "name": "",
          "type": "bool"
        }
      ],
      "payable": false,
      "stateMutability": "view",
      "type": "function"
    },
    {
      "constant": true,
      "inputs": [
        {
          "name": "account",
          "type": "uint256"
        }
      ],
      "name": "isSnowflakeMinter",
      "outputs": [
        {
          "name": "",
          "type": "bool"
        }
      ],
      "payable": false,
      "stateMutability": "view",
      "type": "function"
    },
    {
      "constant": true,
      "inputs": [
        {
          "name": "owner",
          "type": "uint256"
        }
      ],
      "name": "balanceOf",
      "outputs": [
        {
          "name": "",
          "type": "uint256"
        }
      ],
      "payable": false,
      "stateMutability": "view",
      "type": "function"
    },
    {
      "constant": false,
      "inputs": [
        {
          "name": "account",
          "type": "uint256"
        }
      ],
      "name": "addSnowflakeMinter",
      "outputs": [],
      "payable": false,
      "stateMutability": "nonpayable",
      "type": "function"
    },
    {
      "constant": true,
      "inputs": [],
      "name": "nextItemListingsID",
      "outputs": [
        {
          "name": "",
          "type": "uint256"
        }
      ],
      "payable": false,
      "stateMutability": "view",
      "type": "function"
    },
    {
      "constant": false,
      "inputs": [
        {
          "name": "newOwner",
          "type": "uint256"
        }
      ],
      "name": "transferOwnership",
      "outputs": [],
      "payable": false,
      "stateMutability": "nonpayable",
      "type": "function"
    },
    {
      "constant": true,
      "inputs": [
        {
          "name": "id",
          "type": "uint256"
        }
      ],
      "name": "getItemTagsNeo",
      "outputs": [
        {
          "name": "",
          "type": "uint256[]"
        }
      ],
      "payable": false,
      "stateMutability": "view",
      "type": "function"
    },
    {
      "constant": true,
      "inputs": [
        {
          "name": "id",
          "type": "uint256"
        }
      ],
      "name": "getItemDeliveryNeo",
      "outputs": [
        {
          "name": "",
          "type": "uint256[]"
        }
      ],
      "payable": false,
      "stateMutability": "view",
      "type": "function"
    },
    {
      "constant": true,
      "inputs": [
        {
          "name": "tokenId",
          "type": "uint256"
        }
      ],
      "name": "getApprovedAddress",
      "outputs": [
        {
          "name": "",
          "type": "address"
        }
      ],
      "payable": false,
      "stateMutability": "view",
      "type": "function"
    },
    {
      "constant": false,
      "inputs": [
        {
          "name": "from",
          "type": "uint256"
        },
        {
          "name": "to",
          "type": "uint256"
        },
        {
          "name": "tokenId",
          "type": "uint256"
        }
      ],
      "name": "safeTransferFrom",
      "outputs": [],
      "payable": false,
      "stateMutability": "nonpayable",
      "type": "function"
    },
    {
      "constant": true,
      "inputs": [],
      "name": "snowflakeAddress",
      "outputs": [
        {
          "name": "",
          "type": "address"
        }
      ],
      "payable": false,
      "stateMutability": "view",
      "type": "function"
    },
    {
      "inputs": [
        {
          "name": "_snowflakeAddress",
          "type": "address"
        }
      ],
      "payable": false,
      "stateMutability": "nonpayable",
      "type": "constructor"
    },
    {
      "anonymous": false,
      "inputs": [
        {
          "indexed": false,
          "name": "owner",
          "type": "uint256"
        },
        {
          "indexed": false,
          "name": "to",
          "type": "address"
        },
        {
          "indexed": false,
          "name": "tokenId",
          "type": "uint256"
        }
      ],
      "name": "ApprovalAddress",
      "type": "event"
    },
    {
      "anonymous": false,
      "inputs": [
        {
          "indexed": true,
          "name": "account",
          "type": "uint256"
        }
      ],
      "name": "SnowflakeMinterAdded",
      "type": "event"
    },
    {
      "anonymous": false,
      "inputs": [
        {
          "indexed": true,
          "name": "account",
          "type": "uint256"
        }
      ],
      "name": "SnowflakeMinterRemoved",
      "type": "event"
    },
    {
      "anonymous": false,
      "inputs": [
        {
          "indexed": true,
          "name": "previousOwner",
          "type": "uint256"
        },
        {
          "indexed": true,
          "name": "newOwner",
          "type": "uint256"
        }
      ],
      "name": "OwnershipTransferred",
      "type": "event"
    },
    {
      "anonymous": false,
      "inputs": [
        {
          "indexed": true,
          "name": "einFrom",
          "type": "uint256"
        },
        {
          "indexed": true,
          "name": "einTo",
          "type": "uint256"
        },
        {
          "indexed": true,
          "name": "tokenId",
          "type": "uint256"
        }
      ],
      "name": "Transfer",
      "type": "event"
    },
    {
      "anonymous": false,
      "inputs": [
        {
          "indexed": true,
          "name": "einOwner",
          "type": "uint256"
        },
        {
          "indexed": true,
          "name": "einApproved",
          "type": "uint256"
        },
        {
          "indexed": true,
          "name": "tokenId",
          "type": "uint256"
        }
      ],
      "name": "Approval",
      "type": "event"
    },
    {
      "anonymous": false,
      "inputs": [
        {
          "indexed": true,
          "name": "einOwner",
          "type": "uint256"
        },
        {
          "indexed": true,
          "name": "einOperator",
          "type": "uint256"
        },
        {
          "indexed": false,
          "name": "approved",
          "type": "bool"
        }
      ],
      "name": "ApprovalForAll",
      "type": "event"
    },
    {
      "constant": false,
      "inputs": [
        {
          "name": "ein",
          "type": "uint256"
        },
        {
          "name": "uuid",
          "type": "uint256"
        },
        {
          "name": "quantity",
          "type": "uint256"
        },
        {
          "name": "itemType",
          "type": "uint8"
        },
        {
          "name": "status",
          "type": "uint8"
        },
        {
          "name": "condition",
          "type": "uint8"
        },
        {
          "name": "title",
          "type": "string"
        },
        {
          "name": "description",
          "type": "string"
        },
        {
          "name": "price",
          "type": "uint256"
        },
        {
          "name": "delivery",
          "type": "uint256[]"
        },
        {
          "name": "tags",
          "type": "uint256[]"
        },
        {
          "name": "returnPolicy",
          "type": "uint256"
        }
      ],
      "name": "addItemListing",
      "outputs": [
        {
          "name": "",
          "type": "bool"
        }
      ],
      "payable": false,
      "stateMutability": "nonpayable",
      "type": "function"
    },
    {
      "constant": false,
      "inputs": [
        {
          "name": "id",
          "type": "uint256"
        },
        {
          "name": "uuid",
          "type": "uint256"
        },
        {
          "name": "quantity",
          "type": "uint256"
        },
        {
          "name": "itemType",
          "type": "uint8"
        },
        {
          "name": "status",
          "type": "uint8"
        },
        {
          "name": "condition",
          "type": "uint8"
        },
        {
          "name": "title",
          "type": "string"
        },
        {
          "name": "description",
          "type": "string"
        },
        {
          "name": "price",
          "type": "uint256"
        },
        {
          "name": "delivery",
          "type": "uint256[]"
        },
        {
          "name": "tags",
          "type": "uint256[]"
        },
        {
          "name": "returnPolicy",
          "type": "uint256"
        }
      ],
      "name": "updateItemListing",
      "outputs": [
        {
          "name": "",
          "type": "bool"
        }
      ],
      "payable": false,
      "stateMutability": "nonpayable",
      "type": "function"
    },
    {
      "constant": false,
      "inputs": [
        {
          "name": "id",
          "type": "uint256"
        }
      ],
      "name": "deleteItemListing",
      "outputs": [
        {
          "name": "",
          "type": "bool"
        }
      ],
      "payable": false,
      "stateMutability": "nonpayable",
      "type": "function"
    }
  ],
  "bytecode": "0x60806040523480156200001157600080fd5b5060405160208062002cba833981018060405260208110156200003357600080fd5b5051620000697f01ffc9a70000000000000000000000000000000000000000000000000000000064010000000062000084810204565b6200007d81640100000000620000f1810204565b50620005bf565b7fffffffff000000000000000000000000000000000000000000000000000000008082161415620000b457600080fd5b7fffffffff00000000000000000000000000000000000000000000000000000000166000908152602081905260409020805460ff19166001179055565b62000105816401000000006200011c810204565b620001198164010000000062000174810204565b50565b6200013081640100000000620001af810204565b6200014481640100000000620001f7810204565b62000158816401000000006200020b810204565b6200016c81640100000000620001f7810204565b506001600955565b620001888164010000000062000233810204565b62000119620001a03364010000000062000255810204565b64010000000062000271810204565b620001c38164010000000062000233810204565b620001197f4872420e0000000000000000000000000000000000000000000000000000000064010000000062000084810204565b6200011981640100000000620001af810204565b6200021f81640100000000620001af810204565b6200011981640100000000620002a6810204565b60028054600160a060020a031916600160a060020a0392909216919091179055565b60006200026b82640100000000620002e1810204565b92915050565b600181905560405181906000907f41545563b5478d4a04f861e33b36e455316904e9fe15096d35d14a5f9885212a908290a350565b620002ba8164010000000062000233810204565b62000119620002d233640100000000620002e1810204565b6401000000006200050b810204565b600254604080517fa759ee6f0000000000000000000000000000000000000000000000000000000081529051600092600160a060020a0316918391839163a759ee6f91600480830192602092919082900301818787803b1580156200034557600080fd5b505af11580156200035a573d6000803e3d6000fd5b505050506040513d60208110156200037157600080fd5b5051604080517f237f1a21000000000000000000000000000000000000000000000000000000008152600160a060020a038781166004830152915192935083929183169163237f1a2191602480820192602092909190829003018186803b158015620003dc57600080fd5b505afa158015620003f1573d6000803e3d6000fd5b505050506040513d60208110156200040857600080fd5b505162000461576040517f08c379a000000000000000000000000000000000000000000000000000000000815260040180806020018281038252602881526020018062002c926028913960400191505060405180910390fd5b80600160a060020a03166305c62c2f866040518263ffffffff167c01000000000000000000000000000000000000000000000000000000000281526004018082600160a060020a0316600160a060020a0316815260200191505060206040518083038186803b158015620004d457600080fd5b505afa158015620004e9573d6000803e3d6000fd5b505050506040513d60208110156200050057600080fd5b505195945050505050565b62000526600782640100000000620024466200055482021704565b60405181907fc96fabf52983c486b9ee7f26fa97994b2199bd98cf74f02ef6aa1e1d87cbb48290600090a250565b806200055f57600080fd5b6200057482826401000000006200059b810204565b156200057f57600080fd5b600090815260209190915260409020805460ff19166001179055565b600081620005a857600080fd5b506000908152602091909152604090205460ff1690565b6126c380620005cf6000396000f3fe608060405234801561001057600080fd5b50600436106102365760003560e060020a9004806364433bb2116101345780639690f6d1116100bc578063d64fec1511610080578063d64fec1514610d42578063e6b04c0114610daf578063eca4742a14610dcc578063f467046214610e05578063f9f451b814610e2e57610236565b80639690f6d114610cc65780639cc7f70814610ce3578063a4453ffb14610d00578063af05cbdf14610d1d578063d23e848914610d2557610236565b80637c35d692116101035780637c35d69214610c295780637f493d9c14610c46578063895c3e9414610c6f5780638b9a0c8914610c775780638d9188d514610ca357610236565b806364433bb2146108dd57806368d1e641146108fa578063715018a6146109b357806377dfe7c8146109bb57610236565b8063310ed7f0116101c25780634c4df870116101865780634c4df8701461085b5780635d35a3d9146108785780635fd5e4d01461089b5780635fe0d82f146108a35780636352211e146108c057610236565b8063310ed7f0146107375780633129e773146107605780633e938fb71461077d57806342966c6814610785578063435b153f146107a257610236565b80631240aa40116102095780631240aa401461030857806313ca683a1461057657806316b49a4314610599578063172e8e4c146105be5780631b2ef1ca1461071457610236565b806301ffc9a71461023b57806302569d5b1461028b578063081812fc146102c05780630d2e347d146102dd575b600080fd5b6102776004803603602081101561025157600080fd5b50357bffffffffffffffffffffffffffffffffffffffffffffffffffffffff1916610e36565b604080519115158252519081900360200190f35b6102ae600480360360408110156102a157600080fd5b5080359060200135610e6a565b60408051918252519081900360200190f35b6102ae600480360360208110156102d657600080fd5b5035610e9a565b610306600480360360608110156102f357600080fd5b5080359060208101359060400135610ec1565b005b610277600480360361018081101561031f57600080fd5b81359160208101359160408201359160ff6060820135811692608083013582169260a0810135909216919081019060e0810160c082013564010000000081111561036857600080fd5b82018360208201111561037a57600080fd5b8035906020019184600183028401116401000000008311171561039c57600080fd5b91908080601f01602080910402602001604051908101604052809392919081815260200183838082843760009201919091525092959493602081019350359150506401000000008111156103ef57600080fd5b82018360208201111561040157600080fd5b8035906020019184600183028401116401000000008311171561042357600080fd5b91908080601f0160208091040260200160405190810160405280939291908181526020018383808284376000920191909152509295843595909490935060408101925060200135905064010000000081111561047e57600080fd5b82018360208201111561049057600080fd5b803590602001918460208302840111640100000000831117156104b257600080fd5b919080806020026020016040519081016040528093929190818152602001838360200280828437600092019190915250929594936020810193503591505064010000000081111561050257600080fd5b82018360208201111561051457600080fd5b8035906020019184602083028401116401000000008311171561053657600080fd5b9190808060200260200160405190810160405280939291908181526020018383602002808284376000920191909152509295505091359250610ee1915050565b6102ae6004803603604081101561058c57600080fd5b5080359060200135610f19565b610306600480360360408110156105af57600080fd5b50803590602001351515610f36565b6105db600480360360208110156105d457600080fd5b5035610fb2565b604051808a81526020018981526020018860018111156105f757fe5b60ff16815260200187600181111561060b57fe5b60ff16815260200186600481111561061f57fe5b60ff1681526020018060200180602001858152602001848152602001838103835287818151815260200191508051906020019080838360005b83811015610670578181015183820152602001610658565b50505050905090810190601f16801561069d5780820380516001836020036101000a031916815260200191505b50838103825286518152865160209182019188019080838360005b838110156106d05781810151838201526020016106b8565b50505050905090810190601f1680156106fd5780820380516001836020036101000a031916815260200191505b509b50505050505050505050505060405180910390f35b6102776004803603604081101561072a57600080fd5b5080359060200135611113565b6103066004803603606081101561074d57600080fd5b5080359060208101359060400135611142565b6105db6004803603602081101561077657600080fd5b5035611168565b6102ae611479565b6103066004803603602081101561079b57600080fd5b5035611480565b610306600480360360808110156107b857600080fd5b813591602081013591604082013591908101906080810160608201356401000000008111156107e657600080fd5b8201836020820111156107f857600080fd5b8035906020019184600183028401116401000000008311171561081a57600080fd5b91908080601f0160208091040260200160405190810160405280939291908181526020018383808284376000920191909152509295506114a1945050505050565b6102ae6004803603602081101561087157600080fd5b50356114c7565b6103066004803603604081101561088e57600080fd5b50803590602001356114dc565b610277611561565b6102ae600480360360208110156108b957600080fd5b5035611570565b6102ae600480360360208110156108d657600080fd5b5035611585565b6102ae600480360360208110156108f357600080fd5b50356115a4565b6103066004803603608081101561091057600080fd5b8135916020810135916040820135919081019060808101606082013564010000000081111561093e57600080fd5b82018360208201111561095057600080fd5b8035906020019184600183028401116401000000008311171561097257600080fd5b91908080601f0160208091040260200160405190810160405280939291908181526020018383808284376000920191909152509295506115b9945050505050565b6103066115c4565b61027760048036036101808110156109d257600080fd5b81359160208101359160408201359160ff6060820135811692608083013582169260a0810135909216919081019060e0810160c0820135640100000000811115610a1b57600080fd5b820183602082011115610a2d57600080fd5b80359060200191846001830284011164010000000083111715610a4f57600080fd5b91908080601f0160208091040260200160405190810160405280939291908181526020018383808284376000920191909152509295949360208101935035915050640100000000811115610aa257600080fd5b820183602082011115610ab457600080fd5b80359060200191846001830284011164010000000083111715610ad657600080fd5b91908080601f01602080910402602001604051908101604052809392919081815260200183838082843760009201919091525092958435959094909350604081019250602001359050640100000000811115610b3157600080fd5b820183602082011115610b4357600080fd5b80359060200191846020830284011164010000000083111715610b6557600080fd5b9190808060200260200160405190810160405280939291908181526020018383602002808284376000920191909152509295949360208101935035915050640100000000811115610bb557600080fd5b820183602082011115610bc757600080fd5b80359060200191846020830284011164010000000083111715610be957600080fd5b919080806020026020016040519081016040528093929190818152602001838360200280828437600092019190915250929550509135925061160b915050565b61027760048036036020811015610c3f57600080fd5b5035611632565b61030660048036036060811015610c5c57600080fd5b508035906020810135906040013561164e565b61030661166c565b61030660048036036040811015610c8d57600080fd5b50600160a060020a03813516906020013561167f565b61027760048036036040811015610cb957600080fd5b508035906020013561177e565b61027760048036036020811015610cdc57600080fd5b503561179e565b6102ae60048036036020811015610cf957600080fd5b50356117b1565b61030660048036036020811015610d1657600080fd5b50356117d4565b6102ae6117f2565b61030660048036036020811015610d3b57600080fd5b50356117f8565b610d5f60048036036020811015610d5857600080fd5b5035611812565b60408051602080825283518183015283519192839290830191858101910280838360005b83811015610d9b578181015183820152602001610d83565b505050509050019250505060405180910390f35b610d5f60048036036020811015610dc557600080fd5b503561182f565b610de960048036036020811015610de257600080fd5b503561184c565b60408051600160a060020a039092168252519081900360200190f35b61030660048036036060811015610e1b57600080fd5b508035906020810135906040013561187c565b610de9611897565b7bffffffffffffffffffffffffffffffffffffffffffffffffffffffff191660009081526020819052604090205460ff1690565b6000828152600a60205260408120600701805483908110610e8757fe5b9060005260206000200154905092915050565b6000610ea5826118a6565b610eae57600080fd5b5060009081526004602052604090205490565b610edc838383604051806020016040528060008152506114a1565b505050565b6000610eeb611561565b610ef457600080fd5b610f088d8d8d8d8d8d8d8d8d8d8d8d6118ba565b9d9c50505050505050505050505050565b6000828152600a60205260408120600601805483908110610e8757fe5b6000610f4133611a78565b905080831415610f5057600080fd5b6000818152600660209081526040808320868452825291829020805460ff191685151590811790915582519081529151859284927fe08356808518f185b1eebe6f778106965c2df3a69af4d7139fa9451067146eb792918290030190a3505050565b600a60209081526000918252604091829020805460018083015460028085015460038601805489516101009682161587026000190190911693909304601f81018990048902840189019099528883529497929660ff80831697958304811696620100009093041694939083018282801561106d5780601f106110425761010080835404028352916020019161106d565b820191906000526020600020905b81548152906001019060200180831161105057829003601f168201915b5050505060048301805460408051602060026001851615610100026000190190941693909304601f81018490048402820184019092528181529495949350908301828280156110fd5780601f106110d2576101008083540402835291602001916110fd565b820191906000526020600020905b8154815290600101906020018083116110e057829003601f168201915b5050505050908060050154908060080154905089565b600061112661112133611a78565b61179e565b61112f57600080fd5b6111398383611c7e565b50600192915050565b61115461114e33611a78565b82611cf6565b61115d57600080fd5b610edc838383611d31565b600080600080600060608060008061117e612495565b600a60008c81526020019081526020016000206040518061016001604052908160008201548152602001600182015481526020016002820160009054906101000a900460ff1660018111156111cf57fe5b60018111156111da57fe5b81526020016002820160019054906101000a900460ff1660018111156111fc57fe5b600181111561120757fe5b81526020016002820160029054906101000a900460ff16600481111561122957fe5b600481111561123457fe5b815260038201805460408051602060026001851615610100026000190190941693909304601f81018490048402820184019092528181529382019392918301828280156112c25780601f10611297576101008083540402835291602001916112c2565b820191906000526020600020905b8154815290600101906020018083116112a557829003601f168201915b505050918352505060048201805460408051602060026001851615610100026000190190941693909304601f81018490048402820184019092528181529382019392918301828280156113565780601f1061132b57610100808354040283529160200191611356565b820191906000526020600020905b81548152906001019060200180831161133957829003601f168201915b5050505050815260200160058201548152602001600682018054806020026020016040519081016040528092919081815260200182805480156113b857602002820191906000526020600020905b8154815260200190600101908083116113a4575b505050505081526020016007820180548060200260200160405190810160405280929190818152602001828054801561141057602002820191906000526020600020905b8154815260200190600101908083116113fc575b505050505081526020016008820154815250509050806000015181602001518260400151836060015184608001518560a001518660c001518760e00151886101400151839350829250995099509950995099509950995099509950509193959799909294969850565b6001545b90565b61148c61114e33611a78565b61149557600080fd5b61149e81611dc7565b50565b6114ac84848461164e565b6114b884848484611dd9565b6114c157600080fd5b50505050565b6000908152600a602052604090206005015490565b60006114e782611585565b905060006114f433611a78565b90508184141561150357600080fd5b818114806115165750611516828261177e565b61151f57600080fd5b600083815260046020526040808220869055518491869185917f08aaf4f7dd1adfa5bfe7067dea5b4ebd7e119d43257438a9189f37d7044eb09a91a450505050565b600061156b611f1f565b905090565b6000908152600a602052604090206006015490565b6000818152600360205260408120548061159e57600080fd5b92915050565b6000908152600a602052604090206007015490565b6114ac848484611142565b6115cc611561565b6115d557600080fd5b600154604051600091907f41545563b5478d4a04f861e33b36e455316904e9fe15096d35d14a5f9885212a908390a36000600155565b6000611615611561565b61161e57600080fd5b610f088d8d8d8d8d8d8d8d8d8d8d8d611f38565b600061163c611561565b61164557600080fd5b61159e826120de565b6116583382612161565b61166157600080fd5b610edc838383612187565b61167d61167833611a78565b6121ae565b565b600061168a82611585565b9050600061169733611a78565b9050818114806116ac57506116ac828261177e565b611701576040517f08c379a000000000000000000000000000000000000000000000000000000000815260040180806020018281038252604581526020018061262b6045913960600191505060405180910390fd5b6000838152600860209081526040918290208054600160a060020a03881673ffffffffffffffffffffffffffffffffffffffff19909116811790915582518581529182015280820185905290517fdd2d4479f7ebe0a20212b0ef6b723a3f0d98a4b3d64b8d9898777c769bb7a8819181900360600190a150505050565b600091825260066020908152604080842092845291905290205460ff1690565b600061159e60078363ffffffff6121ed16565b6000816117bd57600080fd5b600082815260056020526040902061159e90612210565b6117e061112133611a78565b6117e957600080fd5b61149e81612214565b60095481565b611800611561565b61180957600080fd5b61149e81612253565b6000818152600a6020526040902060609061159e90600701612291565b6000818152600a6020526040902060609061159e90600601612291565b6000611857826118a6565b61186057600080fd5b50600090815260086020526040902054600160a060020a031690565b610edc838383604051806020016040528060008152506115b9565b600254600160a060020a031681565b600090815260036020526040902054151590565b60006118c88d600954611c7e565b6040518061016001604052808d81526020018c81526020018b60018111156118ec57fe5b81526020018a60018111156118fd57fe5b815260200189600481111561190e57fe5b815260200188815260200187815260200186815260200185815260200184815260200183815250600a60006009548152602001908152602001600020600082015181600001556020820151816001015560408201518160020160006101000a81548160ff0219169083600181111561198257fe5b0217905550606082015160028201805461ff0019166101008360018111156119a657fe5b0217905550608082015160028201805462ff00001916620100008360048111156119cc57fe5b021790555060a082015180516119ec9160038401916020909101906124fa565b5060c08201518051611a089160048401916020909101906124fa565b5060e082015160058201556101008201518051611a2f916006840191602090910190612578565b506101208201518051611a4c916007840191602090910190612578565b506101409190910151600890910155506009805460019081019091559c9b505050505050505050505050565b600254604080517fa759ee6f0000000000000000000000000000000000000000000000000000000081529051600092600160a060020a0316918391839163a759ee6f91600480830192602092919082900301818787803b158015611adb57600080fd5b505af1158015611aef573d6000803e3d6000fd5b505050506040513d6020811015611b0557600080fd5b5051604080517f237f1a21000000000000000000000000000000000000000000000000000000008152600160a060020a038781166004830152915192935083929183169163237f1a2191602480820192602092909190829003018186803b158015611b6f57600080fd5b505afa158015611b83573d6000803e3d6000fd5b505050506040513d6020811015611b9957600080fd5b5051611bf0576040517f08c379a00000000000000000000000000000000000000000000000000000000081526004018080602001828103825260288152602001806126706028913960400191505060405180910390fd5b80600160a060020a03166305c62c2f866040518263ffffffff1660e060020a0281526004018082600160a060020a0316600160a060020a0316815260200191505060206040518083038186803b158015611c4957600080fd5b505afa158015611c5d573d6000803e3d6000fd5b505050506040513d6020811015611c7357600080fd5b505195945050505050565b81611c8857600080fd5b611c91816118a6565b15611c9b57600080fd5b600081815260036020908152604080832085905584835260059091529020611cc29061230e565b808260007faf6151f5085accf2d57e1e7bf7601d3b3982e0de7e9a90f032f8554de9c104f660405160405180910390a45050565b600080611d0283611585565b905080841480611d19575083611d1784610e9a565b145b80611d295750611d29818561177e565b949350505050565b82611d3b82611585565b14611d4557600080fd5b81611d4f57600080fd5b611d5881612317565b6000838152600560205260409020611d6f9061233c565b6000828152600560205260409020611d869061230e565b600081815260036020526040808220849055518291849186917faf6151f5085accf2d57e1e7bf7601d3b3982e0de7e9a90f032f8554de9c104f691a4505050565b61149e611dd382611585565b82612353565b60008084600160a060020a031663494114c2611df433611a78565b8887876040518563ffffffff1660e060020a0281526004018085815260200184815260200183815260200180602001828103825283818151815260200191508051906020019080838360005b83811015611e58578181015183820152602001611e40565b50505050905090810190601f168015611e855780820380516001836020036101000a031916815260200191505b5095505050505050602060405180830381600087803b158015611ea757600080fd5b505af1158015611ebb573d6000803e3d6000fd5b505050506040513d6020811015611ed157600080fd5b50517bffffffffffffffffffffffffffffffffffffffffffffffffffffffff19167f494114c20000000000000000000000000000000000000000000000000000000014915050949350505050565b6000611f29611479565b611f3233611a78565b14905090565b60006040518061016001604052808d81526020018c81526020018b6001811115611f5e57fe5b81526020018a6001811115611f6f57fe5b8152602001896004811115611f8057fe5b815260200188815260200187815260200186815260200185815260200184815260200183815250600a60008f8152602001908152602001600020600082015181600001556020820151816001015560408201518160020160006101000a81548160ff02191690836001811115611ff257fe5b0217905550606082015160028201805461ff00191661010083600181111561201657fe5b0217905550608082015160028201805462ff000019166201000083600481111561203c57fe5b021790555060a0820151805161205c9160038401916020909101906124fa565b5060c082015180516120789160048401916020909101906124fa565b5060e08201516005820155610100820151805161209f916006840191602090910190612578565b5061012082015180516120bc916007840191602090910190612578565b5061014091909101516008909101555060019c9b505050505050505050505050565b6000818152600a602052604081208181556001810182905560028101805462ffffff191690558161211260038301826125b2565b6121206004830160006125b2565b600582016000905560068201600061213891906125f6565b6121466007830160006125f6565b6008820160009055505061215982611dc7565b506001919050565b600082600160a060020a03166121768361184c565b600160a060020a0316149392505050565b8261219182611585565b1461219b57600080fd5b816121a557600080fd5b61115d816123c8565b6121bf60078263ffffffff61241016565b60405181907f34803f71b3ce19f83d2efe8fd85a68795e6ca17a2139def6f374f7cec617366c90600090a250565b6000816121f957600080fd5b506000908152602091909152604090205460ff1690565b5490565b61222560078263ffffffff61244616565b60405181907fc96fabf52983c486b9ee7f26fa97994b2199bd98cf74f02ef6aa1e1d87cbb48290600090a250565b8061225d57600080fd5b6001546040518291907f41545563b5478d4a04f861e33b36e455316904e9fe15096d35d14a5f9885212a90600090a3600155565b60608082805490506040519080825280602002602001820160405280156122c2578160200160208202803883390190505b50905060005b8354811015612307578381815481106122dd57fe5b90600052602060002001548282815181106122f457fe5b60209081029190910101526001016122c8565b5092915050565b80546001019055565b6000818152600460205260409020541561149e57600090815260046020526040812055565b805461234f90600163ffffffff61248016565b9055565b8161235d82611585565b1461236757600080fd5b61237081612317565b60008281526005602052604090206123879061233c565b6000818152600360205260408082208290555182919084907faf6151f5085accf2d57e1e7bf7601d3b3982e0de7e9a90f032f8554de9c104f6908390a45050565b600081815260086020526040902054600160a060020a03161561149e576000908152600860205260409020805473ffffffffffffffffffffffffffffffffffffffff19169055565b8061241a57600080fd5b61242482826121ed565b61242d57600080fd5b600090815260209190915260409020805460ff19169055565b8061245057600080fd5b61245a82826121ed565b1561246457600080fd5b600090815260209190915260409020805460ff19166001179055565b60008282111561248f57600080fd5b50900390565b6040518061016001604052806000815260200160008152602001600060018111156124bc57fe5b815260200160008152602001600081526020016060815260200160608152602001600081526020016060815260200160608152602001600081525090565b828054600181600116156101000203166002900490600052602060002090601f016020900481019282601f1061253b57805160ff1916838001178555612568565b82800160010185558215612568579182015b8281111561256857825182559160200191906001019061254d565b50612574929150612610565b5090565b828054828255906000526020600020908101928215612568579160200282018281111561256857825182559160200191906001019061254d565b50805460018160011615610100020316600290046000825580601f106125d8575061149e565b601f01602090049060005260206000209081019061149e9190612610565b508054600082559060005260206000209081019061149e91905b61147d91905b80821115612574576000815560010161261656fe53656e646572206973206e6f74206f776e65722c206f72206661696c7320746f2070617373206973417070726f766564466f72416c6c286f776e65722c2073656e6465722941646472657373206e6f6e2d6578697374656e7420696e204964656e746974795265676973747279a165627a7a72305820d35bd80e0c5c194ba8d36f4cb72ddacb108180a4587fa974020f7fff90232cb6002941646472657373206e6f6e2d6578697374656e7420696e204964656e746974795265676973747279",
  "source": "pragma solidity ^0.5.0;\n\nimport \"../../ein/util/SnowflakeEINOwnable.sol\";\nimport \"./Items.sol\";\n\n\ncontract ItemFeature is Items, SnowflakeEINOwnable {\n\n\n    constructor(address _snowflakeAddress) public {\n        _constructItemFeature(_snowflakeAddress);\n    \n    }    \n\n    function _constructItemFeature(address _snowflakeAddress) internal {\n        _constructItems(_snowflakeAddress);\n        _constructSnowflakeEINOwnable(_snowflakeAddress);\n    }\n\n/*\n==============================\nItemListing add/update/delete\n==============================\n*/\n\n\n    function addItemListing (\n        uint256 ein, //The EIN to mint to (ERC721 mint(to, ___))\n        uint uuid,\n        uint quantity,\n        ItemType itemType,\n        ItemStatus status,\n        ItemCondition condition,\n        string memory title,\n        string memory description,\n        uint256 price,\n        uint[] memory delivery,\n        uint[] memory tags,\n        uint returnPolicy\n    ) public onlyEINOwner returns (bool) {\n       return _addItemListing(ein, uuid, quantity, itemType, status, condition, title, description, price, delivery, tags, returnPolicy);\n    }\n\n\n    function updateItemListing (\n        uint id,\n        uint uuid,\n        uint quantity,\n        ItemType itemType,\n        ItemStatus status,\n        ItemCondition condition,\n        string memory title,\n        string memory description,\n        uint256 price,\n        uint[] memory delivery,\n        uint[] memory tags,\n        uint returnPolicy\n    ) public onlyEINOwner returns (bool) {\n       return _updateItemListing(id, uuid, quantity, itemType, status, condition, title, description, price, delivery, tags, returnPolicy);\n    }\n\n    function deleteItemListing(uint id) public onlyEINOwner returns (bool) {\n        return _deleteItemListing(id);\n    }\n\n\n\n/* ====================================================\n\n       END OF ADD/UPDATE/DELETE FUNCTIONS\n\n   ====================================================\n*/\n\n\n\n\n\n\n\n\n\n\n\n}\n",
  "sourcePath": "/home/luiserebii/github/HydroSnowflake-Marketplace-Coupons/contracts/marketplace/features/ItemFeature.sol",
  "compiler": {
    "name": "solc",
    "version": "0.5.7+commit.6da8b019.Emscripten.clang"
  },
  "schemaVersion": "3.0.6",
  "updatedAt": "2019-06-07T02:04:39.484Z",
  "devdoc": {
    "methods": {
      "approve(uint256,uint256)": {
        "details": "Approves another EIN to transfer the given token ID The zero EIN indicates there is no approved EIN. There can only be one approved EIN per token at a given time. Can only be called by the token owner or an approved operator.",
        "params": {
          "to": "uint256 to be approved for the given token ID",
          "tokenId": "uint256 ID of the token to be approved"
        }
      },
      "approveAddress(address,uint256)": {
        "details": "Approves an address to transfer the given token ID The zero address indicates there is no approved EIN. There can only be one approved address per token at a given time. Can only be called by the token owner or an approved operator.",
        "params": {
          "to": "address to be approved for the given token ID",
          "tokenId": "uint256 ID of the token to be approved"
        }
      },
      "balanceOf(uint256)": {
        "details": "Gets the balance of the specified address",
        "params": {
          "owner": "uint256 to query the balance of"
        },
        "return": "uint256 representing the amount owned by the passed address"
      },
      "burn(uint256)": {
        "details": "Burns a specific Snowflake ERC721 token.",
        "params": {
          "tokenId": "uint256 id of the Snowflake ERC721 token to be burned."
        }
      },
      "getApproved(uint256)": {
        "details": "Gets the approved EIN for a token ID, or zero if no EIN set Reverts if the token ID does not exist.",
        "params": {
          "tokenId": "uint256 ID of the token to query the approval of"
        },
        "return": "EIN currently approved for the given token ID"
      },
      "getApprovedAddress(uint256)": {
        "details": "Gets the approved address for a token ID, or zero if no EIN set Reverts if the token ID does not exist.",
        "params": {
          "tokenId": "uint256 ID of the token to query the approval of"
        },
        "return": "address currently approved for the given token ID"
      },
      "isApprovedForAll(uint256,uint256)": {
        "details": "Tells whether an operator is approved by a given owner",
        "params": {
          "operator": "operator EIN which you want to query the approval of",
          "owner": "owner EIN which you want to query the approval of"
        },
        "return": "bool whether the given operator is approved by the given owner"
      },
      "isEINOwner()": {
        "return": "true if address resolves to owner of the contract."
      },
      "mint(uint256,uint256)": {
        "details": "Function to mint tokens",
        "params": {
          "to": "The EIN that will receive the minted tokens.",
          "tokenId": "The token id to mint."
        },
        "return": "A boolean that indicates if the operation was successful."
      },
      "ownerEIN()": {
        "return": "the EIN of the owner."
      },
      "ownerOf(uint256)": {
        "details": "Gets the owner of the specified token ID",
        "params": {
          "tokenId": "uint256 ID of the token to query the owner of"
        },
        "return": "uint256 currently marked as the owner of the given token ID"
      },
      "renounceOwnership()": {
        "details": "Allows the current owner to relinquish control of the contract."
      },
      "safeTransferFrom(uint256,uint256,uint256)": {
        "details": "Safely transfers the ownership of a given token ID to another EIN If the target EIN is a contract, it must implement `onERC721Received`, which is called upon a safe transfer, and return the magic value `bytes4(keccak256(\"onERC721Received(address,address,uint256,bytes)\"))`; otherwise, the transfer is reverted. Requires the msg.sender to be the owner, approved, or operator",
        "params": {
          "from": "uint256 current owner of the token",
          "to": "uint256 to receive the ownership of the given token ID",
          "tokenId": "uint256 ID of the token to be transferred"
        }
      },
      "safeTransferFrom(uint256,uint256,uint256,bytes)": {
        "details": "Safely transfers the ownership of a given token ID to another EIN If the target EIN is a contract, it must implement `onERC721Received`, which is called upon a safe transfer, and return the magic value `bytes4(keccak256(\"onERC721Received(address,address,uint256,bytes)\"))`; otherwise, the transfer is reverted. Requires the msg.sender to be the owner, approved, or operator",
        "params": {
          "_data": "bytes data to send along with a safe transfer check",
          "from": "current owner of the token",
          "to": "uint256 to receive the ownership of the given token ID",
          "tokenId": "uint256 ID of the token to be transferred"
        }
      },
      "safeTransferFromAddress(uint256,uint256,uint256)": {
        "details": "Safely transfers the ownership of a given token ID to another EIN If the target EIN is a contract, it must implement `onERC721Received`, which is called upon a safe transfer, and return the magic value `bytes4(keccak256(\"onERC721Received(address,address,uint256,bytes)\"))`; otherwise, the transfer is reverted. Requires the msg.sender to be the owner, approved, or operator",
        "params": {
          "from": "uint256 current owner of the token",
          "to": "uint256 to receive the ownership of the given token ID",
          "tokenId": "uint256 ID of the token to be transferred"
        }
      },
      "safeTransferFromAddress(uint256,uint256,uint256,bytes)": {
        "details": "Safely transfers the ownership of a given token ID to another EIN If the target address is a contract, it must implement `onERC721Received`, which is called upon a safe transfer, and return the magic value `bytes4(keccak256(\"onERC721Received(address,address,uint256,bytes)\"))`; otherwise, the transfer is reverted. Requires the msg.sender to be the owner, approved, or operator",
        "params": {
          "_data": "bytes data to send along with a safe transfer check",
          "from": "current owner of the token",
          "to": "uint256 to receive the ownership of the given token ID",
          "tokenId": "uint256 ID of the token to be transferred"
        }
      },
      "setApprovalForAll(uint256,bool)": {
        "details": "Sets or unsets the approval of a given operator An operator is allowed to transfer all tokens of the sender on their behalf",
        "params": {
          "approved": "representing the status of the approval to be set",
          "to": "operator EIN to set the approval"
        }
      },
      "supportsInterface(bytes4)": {
        "details": "implement supportsInterface(bytes4) using a lookup table"
      },
      "transferFrom(uint256,uint256,uint256)": {
        "details": "Transfers the ownership of a given token ID to another address Usage of this method is discouraged, use `safeTransferFrom` whenever possible Requires the msg.sender to be the owner, approved, or operator",
        "params": {
          "from": "current owner of the token",
          "to": "address to receive the ownership of the given token ID",
          "tokenId": "uint256 ID of the token to be transferred"
        }
      },
      "transferFromAddress(uint256,uint256,uint256)": {
        "details": "Transfers the ownership of a given token ID to another address Usage of this method is discouraged, use `safeTransferFrom` whenever possible Requires the msg.sender to be the owner, approved, or operator",
        "params": {
          "from": "current owner of the token",
          "to": "address to receive the ownership of the given token ID",
          "tokenId": "uint256 ID of the token to be transferred"
        }
      },
      "transferOwnership(uint256)": {
        "details": "Allows the current owner to transfer control of the contract to a newOwner.",
        "params": {
          "newOwner": "The address to transfer ownership to."
        }
      }
    }
  },
  "userdoc": {
    "methods": {
      "renounceOwnership()": {
        "notice": "Renouncing to ownership will leave the contract without an owner. It will not be possible to call the functions with the `onlyOwner` modifier anymore."
      }
    }
  }
}