{
  "contractName": "Items",
  "abi": [
    {
      "constant": true,
      "inputs": [
        {
          "name": "interfaceId",
          "type": "bytes4"
        }
      ],
      "name": "supportsInterface",
      "outputs": [
        {
          "name": "",
          "type": "bool"
        }
      ],
      "payable": false,
      "stateMutability": "view",
      "type": "function"
    },
    {
      "constant": true,
      "inputs": [
        {
          "name": "tokenId",
          "type": "uint256"
        }
      ],
      "name": "getApproved",
      "outputs": [
        {
          "name": "",
          "type": "uint256"
        }
      ],
      "payable": false,
      "stateMutability": "view",
      "type": "function"
    },
    {
      "constant": false,
      "inputs": [
        {
          "name": "from",
          "type": "uint256"
        },
        {
          "name": "to",
          "type": "uint256"
        },
        {
          "name": "tokenId",
          "type": "uint256"
        }
      ],
      "name": "safeTransferFromAddress",
      "outputs": [],
      "payable": false,
      "stateMutability": "nonpayable",
      "type": "function"
    },
    {
      "constant": false,
      "inputs": [
        {
          "name": "to",
          "type": "uint256"
        },
        {
          "name": "approved",
          "type": "bool"
        }
      ],
      "name": "setApprovalForAll",
      "outputs": [],
      "payable": false,
      "stateMutability": "nonpayable",
      "type": "function"
    },
    {
      "constant": true,
      "inputs": [
        {
          "name": "",
          "type": "uint256"
        }
      ],
      "name": "itemListings",
      "outputs": [
        {
          "name": "uuid",
          "type": "uint256"
        },
        {
          "name": "quantity",
          "type": "uint256"
        },
        {
          "name": "itemType",
          "type": "uint8"
        },
        {
          "name": "status",
          "type": "uint8"
        },
        {
          "name": "condition",
          "type": "uint8"
        },
        {
          "name": "title",
          "type": "string"
        },
        {
          "name": "description",
          "type": "string"
        },
        {
          "name": "price",
          "type": "uint256"
        },
        {
          "name": "returnPolicy",
          "type": "uint256"
        }
      ],
      "payable": false,
      "stateMutability": "view",
      "type": "function"
    },
    {
      "constant": false,
      "inputs": [
        {
          "name": "to",
          "type": "uint256"
        },
        {
          "name": "tokenId",
          "type": "uint256"
        }
      ],
      "name": "mint",
      "outputs": [
        {
          "name": "",
          "type": "bool"
        }
      ],
      "payable": false,
      "stateMutability": "nonpayable",
      "type": "function"
    },
    {
      "constant": false,
      "inputs": [
        {
          "name": "from",
          "type": "uint256"
        },
        {
          "name": "to",
          "type": "uint256"
        },
        {
          "name": "tokenId",
          "type": "uint256"
        }
      ],
      "name": "transferFrom",
      "outputs": [],
      "payable": false,
      "stateMutability": "nonpayable",
      "type": "function"
    },
    {
      "constant": false,
      "inputs": [
        {
          "name": "tokenId",
          "type": "uint256"
        }
      ],
      "name": "burn",
      "outputs": [],
      "payable": false,
      "stateMutability": "nonpayable",
      "type": "function"
    },
    {
      "constant": false,
      "inputs": [
        {
          "name": "from",
          "type": "uint256"
        },
        {
          "name": "to",
          "type": "uint256"
        },
        {
          "name": "tokenId",
          "type": "uint256"
        },
        {
          "name": "_data",
          "type": "bytes"
        }
      ],
      "name": "safeTransferFromAddress",
      "outputs": [],
      "payable": false,
      "stateMutability": "nonpayable",
      "type": "function"
    },
    {
      "constant": false,
      "inputs": [
        {
          "name": "to",
          "type": "uint256"
        },
        {
          "name": "tokenId",
          "type": "uint256"
        }
      ],
      "name": "approve",
      "outputs": [],
      "payable": false,
      "stateMutability": "nonpayable",
      "type": "function"
    },
    {
      "constant": true,
      "inputs": [
        {
          "name": "tokenId",
          "type": "uint256"
        }
      ],
      "name": "ownerOf",
      "outputs": [
        {
          "name": "",
          "type": "uint256"
        }
      ],
      "payable": false,
      "stateMutability": "view",
      "type": "function"
    },
    {
      "constant": false,
      "inputs": [
        {
          "name": "from",
          "type": "uint256"
        },
        {
          "name": "to",
          "type": "uint256"
        },
        {
          "name": "tokenId",
          "type": "uint256"
        },
        {
          "name": "_data",
          "type": "bytes"
        }
      ],
      "name": "safeTransferFrom",
      "outputs": [],
      "payable": false,
      "stateMutability": "nonpayable",
      "type": "function"
    },
    {
      "constant": false,
      "inputs": [
        {
          "name": "from",
          "type": "uint256"
        },
        {
          "name": "to",
          "type": "uint256"
        },
        {
          "name": "tokenId",
          "type": "uint256"
        }
      ],
      "name": "transferFromAddress",
      "outputs": [],
      "payable": false,
      "stateMutability": "nonpayable",
      "type": "function"
    },
    {
      "constant": false,
      "inputs": [],
      "name": "renounceSnowflakeMinter",
      "outputs": [],
      "payable": false,
      "stateMutability": "nonpayable",
      "type": "function"
    },
    {
      "constant": false,
      "inputs": [
        {
          "name": "to",
          "type": "address"
        },
        {
          "name": "tokenId",
          "type": "uint256"
        }
      ],
      "name": "approveAddress",
      "outputs": [],
      "payable": false,
      "stateMutability": "nonpayable",
      "type": "function"
    },
    {
      "constant": true,
      "inputs": [
        {
          "name": "owner",
          "type": "uint256"
        },
        {
          "name": "operator",
          "type": "uint256"
        }
      ],
      "name": "isApprovedForAll",
      "outputs": [
        {
          "name": "",
          "type": "bool"
        }
      ],
      "payable": false,
      "stateMutability": "view",
      "type": "function"
    },
    {
      "constant": true,
      "inputs": [
        {
          "name": "account",
          "type": "uint256"
        }
      ],
      "name": "isSnowflakeMinter",
      "outputs": [
        {
          "name": "",
          "type": "bool"
        }
      ],
      "payable": false,
      "stateMutability": "view",
      "type": "function"
    },
    {
      "constant": true,
      "inputs": [
        {
          "name": "owner",
          "type": "uint256"
        }
      ],
      "name": "balanceOf",
      "outputs": [
        {
          "name": "",
          "type": "uint256"
        }
      ],
      "payable": false,
      "stateMutability": "view",
      "type": "function"
    },
    {
      "constant": false,
      "inputs": [
        {
          "name": "account",
          "type": "uint256"
        }
      ],
      "name": "addSnowflakeMinter",
      "outputs": [],
      "payable": false,
      "stateMutability": "nonpayable",
      "type": "function"
    },
    {
      "constant": true,
      "inputs": [],
      "name": "nextItemListingsID",
      "outputs": [
        {
          "name": "",
          "type": "uint256"
        }
      ],
      "payable": false,
      "stateMutability": "view",
      "type": "function"
    },
    {
      "constant": true,
      "inputs": [
        {
          "name": "tokenId",
          "type": "uint256"
        }
      ],
      "name": "getApprovedAddress",
      "outputs": [
        {
          "name": "",
          "type": "address"
        }
      ],
      "payable": false,
      "stateMutability": "view",
      "type": "function"
    },
    {
      "constant": false,
      "inputs": [
        {
          "name": "from",
          "type": "uint256"
        },
        {
          "name": "to",
          "type": "uint256"
        },
        {
          "name": "tokenId",
          "type": "uint256"
        }
      ],
      "name": "safeTransferFrom",
      "outputs": [],
      "payable": false,
      "stateMutability": "nonpayable",
      "type": "function"
    },
    {
      "constant": true,
      "inputs": [],
      "name": "snowflakeAddress",
      "outputs": [
        {
          "name": "",
          "type": "address"
        }
      ],
      "payable": false,
      "stateMutability": "view",
      "type": "function"
    },
    {
      "anonymous": false,
      "inputs": [
        {
          "indexed": false,
          "name": "owner",
          "type": "uint256"
        },
        {
          "indexed": false,
          "name": "to",
          "type": "address"
        },
        {
          "indexed": false,
          "name": "tokenId",
          "type": "uint256"
        }
      ],
      "name": "ApprovalAddress",
      "type": "event"
    },
    {
      "anonymous": false,
      "inputs": [
        {
          "indexed": true,
          "name": "account",
          "type": "uint256"
        }
      ],
      "name": "SnowflakeMinterAdded",
      "type": "event"
    },
    {
      "anonymous": false,
      "inputs": [
        {
          "indexed": true,
          "name": "account",
          "type": "uint256"
        }
      ],
      "name": "SnowflakeMinterRemoved",
      "type": "event"
    },
    {
      "anonymous": false,
      "inputs": [
        {
          "indexed": true,
          "name": "einFrom",
          "type": "uint256"
        },
        {
          "indexed": true,
          "name": "einTo",
          "type": "uint256"
        },
        {
          "indexed": true,
          "name": "tokenId",
          "type": "uint256"
        }
      ],
      "name": "Transfer",
      "type": "event"
    },
    {
      "anonymous": false,
      "inputs": [
        {
          "indexed": true,
          "name": "einOwner",
          "type": "uint256"
        },
        {
          "indexed": true,
          "name": "einApproved",
          "type": "uint256"
        },
        {
          "indexed": true,
          "name": "tokenId",
          "type": "uint256"
        }
      ],
      "name": "Approval",
      "type": "event"
    },
    {
      "anonymous": false,
      "inputs": [
        {
          "indexed": true,
          "name": "einOwner",
          "type": "uint256"
        },
        {
          "indexed": true,
          "name": "einOperator",
          "type": "uint256"
        },
        {
          "indexed": false,
          "name": "approved",
          "type": "bool"
        }
      ],
      "name": "ApprovalForAll",
      "type": "event"
    },
    {
      "constant": true,
      "inputs": [
        {
          "name": "id",
          "type": "uint256"
        }
      ],
      "name": "getItem",
      "outputs": [
        {
          "name": "uuid",
          "type": "uint256"
        },
        {
          "name": "quantity",
          "type": "uint256"
        },
        {
          "name": "itemType",
          "type": "uint8"
        },
        {
          "name": "status",
          "type": "uint8"
        },
        {
          "name": "condition",
          "type": "uint8"
        },
        {
          "name": "title",
          "type": "string"
        },
        {
          "name": "description",
          "type": "string"
        },
        {
          "name": "price",
          "type": "uint256"
        },
        {
          "name": "returnPolicy",
          "type": "uint256"
        }
      ],
      "payable": false,
      "stateMutability": "view",
      "type": "function"
    },
    {
      "constant": true,
      "inputs": [
        {
          "name": "id",
          "type": "uint256"
        }
      ],
      "name": "getItemPrice",
      "outputs": [
        {
          "name": "",
          "type": "uint256"
        }
      ],
      "payable": false,
      "stateMutability": "view",
      "type": "function"
    },
    {
      "constant": true,
      "inputs": [
        {
          "name": "id",
          "type": "uint256"
        }
      ],
      "name": "getItemDeliveryNeo",
      "outputs": [
        {
          "name": "",
          "type": "uint256[]"
        }
      ],
      "payable": false,
      "stateMutability": "view",
      "type": "function"
    },
    {
      "constant": true,
      "inputs": [
        {
          "name": "id",
          "type": "uint256"
        }
      ],
      "name": "getItemTagsNeo",
      "outputs": [
        {
          "name": "",
          "type": "uint256[]"
        }
      ],
      "payable": false,
      "stateMutability": "view",
      "type": "function"
    },
    {
      "constant": true,
      "inputs": [
        {
          "name": "id",
          "type": "uint256"
        },
        {
          "name": "index",
          "type": "uint256"
        }
      ],
      "name": "getItemDelivery",
      "outputs": [
        {
          "name": "",
          "type": "uint256"
        }
      ],
      "payable": false,
      "stateMutability": "view",
      "type": "function"
    },
    {
      "constant": true,
      "inputs": [
        {
          "name": "id",
          "type": "uint256"
        },
        {
          "name": "index",
          "type": "uint256"
        }
      ],
      "name": "getItemTag",
      "outputs": [
        {
          "name": "",
          "type": "uint256"
        }
      ],
      "payable": false,
      "stateMutability": "view",
      "type": "function"
    },
    {
      "constant": true,
      "inputs": [
        {
          "name": "id",
          "type": "uint256"
        }
      ],
      "name": "getItemDeliveryLength",
      "outputs": [
        {
          "name": "",
          "type": "uint256"
        }
      ],
      "payable": false,
      "stateMutability": "view",
      "type": "function"
    },
    {
      "constant": true,
      "inputs": [
        {
          "name": "id",
          "type": "uint256"
        }
      ],
      "name": "getItemTagsLength",
      "outputs": [
        {
          "name": "",
          "type": "uint256"
        }
      ],
      "payable": false,
      "stateMutability": "view",
      "type": "function"
    }
  ],
  "bytecode": "0x60806040526100367f01ffc9a70000000000000000000000000000000000000000000000000000000064010000000061003b810204565b6100a7565b7fffffffff00000000000000000000000000000000000000000000000000000000808216141561006a57600080fd5b7fffffffff00000000000000000000000000000000000000000000000000000000166000908152602081905260409020805460ff19166001179055565b611ae8806100b66000396000f3fe608060405234801561001057600080fd5b50600436106101e95760003560e060020a900480636352211e116101135780639cc7f708116100a6578063e6b04c0111610075578063e6b04c0114610834578063eca4742a14610851578063f46704621461088a578063f9f451b8146108b3576101e9565b80639cc7f70814610785578063a4453ffb146107a2578063af05cbdf146107bf578063d64fec15146107c7576101e9565b8063895c3e94116100e2578063895c3e94146107115780638b9a0c89146107195780638d9188d5146107455780639690f6d114610768576101e9565b80636352211e146105f557806364433bb21461061257806368d1e6411461062f5780637f493d9c146106e8576101e9565b80631b2ef1ca1161018b578063435b153f1161015a578063435b153f146104df5780634c4df870146105985780635d35a3d9146105b55780635fe0d82f146105d8576101e9565b80631b2ef1ca14610459578063310ed7f01461047c5780633129e773146104a557806342966c68146104c2576101e9565b80630d2e347d116101c75780630d2e347d1461029057806313ca683a146102bb57806316b49a43146102de578063172e8e4c14610303576101e9565b806301ffc9a7146101ee57806302569d5b1461023e578063081812fc14610273575b600080fd5b61022a6004803603602081101561020457600080fd5b50357bffffffffffffffffffffffffffffffffffffffffffffffffffffffff19166108bb565b604080519115158252519081900360200190f35b6102616004803603604081101561025457600080fd5b50803590602001356108ef565b60408051918252519081900360200190f35b6102616004803603602081101561028957600080fd5b503561091f565b6102b9600480360360608110156102a657600080fd5b5080359060208101359060400135610946565b005b610261600480360360408110156102d157600080fd5b5080359060200135610966565b6102b9600480360360408110156102f457600080fd5b50803590602001351515610983565b6103206004803603602081101561031957600080fd5b50356109ff565b604051808a815260200189815260200188600181111561033c57fe5b60ff16815260200187600181111561035057fe5b60ff16815260200186600481111561036457fe5b60ff1681526020018060200180602001858152602001848152602001838103835287818151815260200191508051906020019080838360005b838110156103b557818101518382015260200161039d565b50505050905090810190601f1680156103e25780820380516001836020036101000a031916815260200191505b50838103825286518152865160209182019188019080838360005b838110156104155781810151838201526020016103fd565b50505050905090810190601f1680156104425780820380516001836020036101000a031916815260200191505b509b50505050505050505050505060405180910390f35b61022a6004803603604081101561046f57600080fd5b5080359060200135610b60565b6102b96004803603606081101561049257600080fd5b5080359060208101359060400135610b8f565b610320600480360360208110156104bb57600080fd5b5035610bb5565b6102b9600480360360208110156104d857600080fd5b5035610ec6565b6102b9600480360360808110156104f557600080fd5b8135916020810135916040820135919081019060808101606082013564010000000081111561052357600080fd5b82018360208201111561053557600080fd5b8035906020019184600183028401116401000000008311171561055757600080fd5b91908080601f016020809104026020016040519081016040528093929190818152602001838380828437600092019190915250929550610ee7945050505050565b610261600480360360208110156105ae57600080fd5b5035610f0d565b6102b9600480360360408110156105cb57600080fd5b5080359060200135610f22565b610261600480360360208110156105ee57600080fd5b5035610fa7565b6102616004803603602081101561060b57600080fd5b5035610fbc565b6102616004803603602081101561062857600080fd5b5035610fdb565b6102b96004803603608081101561064557600080fd5b8135916020810135916040820135919081019060808101606082013564010000000081111561067357600080fd5b82018360208201111561068557600080fd5b803590602001918460018302840111640100000000831117156106a757600080fd5b91908080601f016020809104026020016040519081016040528093929190818152602001838380828437600092019190915250929550610ff0945050505050565b6102b9600480360360608110156106fe57600080fd5b5080359060208101359060400135610ffb565b6102b9611019565b6102b96004803603604081101561072f57600080fd5b50600160a060020a03813516906020013561102c565b61022a6004803603604081101561075b57600080fd5b508035906020013561112b565b61022a6004803603602081101561077e57600080fd5b503561114b565b6102616004803603602081101561079b57600080fd5b503561115e565b6102b9600480360360208110156107b857600080fd5b5035611181565b61026161119f565b6107e4600480360360208110156107dd57600080fd5b50356111a5565b60408051602080825283518183015283519192839290830191858101910280838360005b83811015610820578181015183820152602001610808565b505050509050019250505060405180910390f35b6107e46004803603602081101561084a57600080fd5b50356111c2565b61086e6004803603602081101561086757600080fd5b50356111df565b60408051600160a060020a039092168252519081900360200190f35b6102b9600480360360608110156108a057600080fd5b508035906020810135906040013561120f565b61086e61122a565b7bffffffffffffffffffffffffffffffffffffffffffffffffffffffff191660009081526020819052604090205460ff1690565b600082815260096020526040812060070180548390811061090c57fe5b9060005260206000200154905092915050565b600061092a82611239565b61093357600080fd5b5060009081526003602052604090205490565b61096183838360405180602001604052806000815250610ee7565b505050565b600082815260096020526040812060060180548390811061090c57fe5b600061098e3361124d565b90508083141561099d57600080fd5b6000818152600560209081526040808320868452825291829020805460ff191685151590811790915582519081529151859284927fe08356808518f185b1eebe6f778106965c2df3a69af4d7139fa9451067146eb792918290030190a3505050565b600960209081526000918252604091829020805460018083015460028085015460038601805489516101009682161587026000190190911693909304601f81018990048902840189019099528883529497929660ff808316979583048116966201000090930416949390830182828015610aba5780601f10610a8f57610100808354040283529160200191610aba565b820191906000526020600020905b815481529060010190602001808311610a9d57829003601f168201915b5050505060048301805460408051602060026001851615610100026000190190941693909304601f8101849004840282018401909252818152949594935090830182828015610b4a5780601f10610b1f57610100808354040283529160200191610b4a565b820191906000526020600020905b815481529060010190602001808311610b2d57829003601f168201915b5050505050908060050154908060080154905089565b6000610b73610b6e3361124d565b61114b565b610b7c57600080fd5b610b868383611453565b50600192915050565b610ba1610b9b3361124d565b826114cb565b610baa57600080fd5b610961838383611506565b6000806000806000606080600080610bcb6119ea565b600960008c81526020019081526020016000206040518061016001604052908160008201548152602001600182015481526020016002820160009054906101000a900460ff166001811115610c1c57fe5b6001811115610c2757fe5b81526020016002820160019054906101000a900460ff166001811115610c4957fe5b6001811115610c5457fe5b81526020016002820160029054906101000a900460ff166004811115610c7657fe5b6004811115610c8157fe5b815260038201805460408051602060026001851615610100026000190190941693909304601f8101849004840282018401909252818152938201939291830182828015610d0f5780601f10610ce457610100808354040283529160200191610d0f565b820191906000526020600020905b815481529060010190602001808311610cf257829003601f168201915b505050918352505060048201805460408051602060026001851615610100026000190190941693909304601f8101849004840282018401909252818152938201939291830182828015610da35780601f10610d7857610100808354040283529160200191610da3565b820191906000526020600020905b815481529060010190602001808311610d8657829003601f168201915b505050505081526020016005820154815260200160068201805480602002602001604051908101604052809291908181526020018280548015610e0557602002820191906000526020600020905b815481526020019060010190808311610df1575b5050505050815260200160078201805480602002602001604051908101604052809291908181526020018280548015610e5d57602002820191906000526020600020905b815481526020019060010190808311610e49575b505050505081526020016008820154815250509050806000015181602001518260400151836060015184608001518560a001518660c001518760e00151886101400151839350829250995099509950995099509950995099509950509193959799909294969850565b610ed2610b9b3361124d565b610edb57600080fd5b610ee48161159c565b50565b610ef2848484610ffb565b610efe848484846115ae565b610f0757600080fd5b50505050565b60009081526009602052604090206005015490565b6000610f2d82610fbc565b90506000610f3a3361124d565b905081841415610f4957600080fd5b81811480610f5c5750610f5c828261112b565b610f6557600080fd5b600083815260036020526040808220869055518491869185917f08aaf4f7dd1adfa5bfe7067dea5b4ebd7e119d43257438a9189f37d7044eb09a91a450505050565b60009081526009602052604090206006015490565b60008181526002602052604081205480610fd557600080fd5b92915050565b60009081526009602052604090206007015490565b610ef2848484610b8f565b61100533826116f4565b61100e57600080fd5b61096183838361171a565b61102a6110253361124d565b611741565b565b600061103782610fbc565b905060006110443361124d565b9050818114806110595750611059828261112b565b6110ae576040517f08c379a0000000000000000000000000000000000000000000000000000000008152600401808060200182810382526045815260200180611a506045913960600191505060405180910390fd5b6000838152600760209081526040918290208054600160a060020a03881673ffffffffffffffffffffffffffffffffffffffff19909116811790915582518581529182015280820185905290517fdd2d4479f7ebe0a20212b0ef6b723a3f0d98a4b3d64b8d9898777c769bb7a8819181900360600190a150505050565b600091825260056020908152604080842092845291905290205460ff1690565b6000610fd560068363ffffffff61178016565b60008161116a57600080fd5b6000828152600460205260409020610fd5906117a3565b61118d610b6e3361124d565b61119657600080fd5b610ee4816117a7565b60085481565b6000818152600960205260409020606090610fd5906007016117e6565b6000818152600960205260409020606090610fd5906006016117e6565b60006111ea82611239565b6111f357600080fd5b50600090815260076020526040902054600160a060020a031690565b61096183838360405180602001604052806000815250610ff0565b600154600160a060020a031681565b600090815260026020526040902054151590565b600154604080517fa759ee6f0000000000000000000000000000000000000000000000000000000081529051600092600160a060020a0316918391839163a759ee6f91600480830192602092919082900301818787803b1580156112b057600080fd5b505af11580156112c4573d6000803e3d6000fd5b505050506040513d60208110156112da57600080fd5b5051604080517f237f1a21000000000000000000000000000000000000000000000000000000008152600160a060020a038781166004830152915192935083929183169163237f1a2191602480820192602092909190829003018186803b15801561134457600080fd5b505afa158015611358573d6000803e3d6000fd5b505050506040513d602081101561136e57600080fd5b50516113c5576040517f08c379a0000000000000000000000000000000000000000000000000000000008152600401808060200182810382526028815260200180611a956028913960400191505060405180910390fd5b80600160a060020a03166305c62c2f866040518263ffffffff1660e060020a0281526004018082600160a060020a0316600160a060020a0316815260200191505060206040518083038186803b15801561141e57600080fd5b505afa158015611432573d6000803e3d6000fd5b505050506040513d602081101561144857600080fd5b505195945050505050565b8161145d57600080fd5b61146681611239565b1561147057600080fd5b60008181526002602090815260408083208590558483526004909152902061149790611863565b808260007faf6151f5085accf2d57e1e7bf7601d3b3982e0de7e9a90f032f8554de9c104f660405160405180910390a45050565b6000806114d783610fbc565b9050808414806114ee5750836114ec8461091f565b145b806114fe57506114fe818561112b565b949350505050565b8261151082610fbc565b1461151a57600080fd5b8161152457600080fd5b61152d8161186c565b600083815260046020526040902061154490611891565b600082815260046020526040902061155b90611863565b600081815260026020526040808220849055518291849186917faf6151f5085accf2d57e1e7bf7601d3b3982e0de7e9a90f032f8554de9c104f691a4505050565b610ee46115a882610fbc565b826118a8565b60008084600160a060020a031663494114c26115c93361124d565b8887876040518563ffffffff1660e060020a0281526004018085815260200184815260200183815260200180602001828103825283818151815260200191508051906020019080838360005b8381101561162d578181015183820152602001611615565b50505050905090810190601f16801561165a5780820380516001836020036101000a031916815260200191505b5095505050505050602060405180830381600087803b15801561167c57600080fd5b505af1158015611690573d6000803e3d6000fd5b505050506040513d60208110156116a657600080fd5b50517bffffffffffffffffffffffffffffffffffffffffffffffffffffffff19167f494114c20000000000000000000000000000000000000000000000000000000014915050949350505050565b600082600160a060020a0316611709836111df565b600160a060020a0316149392505050565b8261172482610fbc565b1461172e57600080fd5b8161173857600080fd5b610baa8161191d565b61175260068263ffffffff61196516565b60405181907f34803f71b3ce19f83d2efe8fd85a68795e6ca17a2139def6f374f7cec617366c90600090a250565b60008161178c57600080fd5b506000908152602091909152604090205460ff1690565b5490565b6117b860068263ffffffff61199b16565b60405181907fc96fabf52983c486b9ee7f26fa97994b2199bd98cf74f02ef6aa1e1d87cbb48290600090a250565b6060808280549050604051908082528060200260200182016040528015611817578160200160208202803883390190505b50905060005b835481101561185c5783818154811061183257fe5b906000526020600020015482828151811061184957fe5b602090810291909101015260010161181d565b5092915050565b80546001019055565b60008181526003602052604090205415610ee457600090815260036020526040812055565b80546118a490600163ffffffff6119d516565b9055565b816118b282610fbc565b146118bc57600080fd5b6118c58161186c565b60008281526004602052604090206118dc90611891565b6000818152600260205260408082208290555182919084907faf6151f5085accf2d57e1e7bf7601d3b3982e0de7e9a90f032f8554de9c104f6908390a45050565b600081815260076020526040902054600160a060020a031615610ee4576000908152600760205260409020805473ffffffffffffffffffffffffffffffffffffffff19169055565b8061196f57600080fd5b6119798282611780565b61198257600080fd5b600090815260209190915260409020805460ff19169055565b806119a557600080fd5b6119af8282611780565b156119b957600080fd5b600090815260209190915260409020805460ff19166001179055565b6000828211156119e457600080fd5b50900390565b604051806101600160405280600081526020016000815260200160006001811115611a1157fe5b81526020016000815260200160008152602001606081526020016060815260200160008152602001606081526020016060815260200160008152509056fe53656e646572206973206e6f74206f776e65722c206f72206661696c7320746f2070617373206973417070726f766564466f72416c6c286f776e65722c2073656e6465722941646472657373206e6f6e2d6578697374656e7420696e204964656e746974795265676973747279a165627a7a723058209f04fd4ce7c5c06ff20f95f49ce244708f2f831e58549e5c2fcbeaf218240e500029",
  "source": "pragma solidity ^0.5.0;\n\nimport '../../ein/token/ERC721/SnowflakeERC721.sol';\nimport '../../ein/token/ERC721/SnowflakeERC721Burnable.sol';\nimport '../../ein/token/ERC721/SnowflakeERC721Mintable.sol';\nimport '../../ein/token/ERC721/address/AddressSnowflakeERC721.sol';\nimport '../../interfaces/marketplace/ItemInterface.sol';\n\n/*\n\nERC 721 ---> Coupon Interface ---> Coupon contract (w/ data + function implementations)\n        ---> Item Interface ---> Item contract (w/data + function implementations)\n\n\n//Use addresses to represent other ownership states; unlimited/claimable once\n\n*/\n\n\ncontract Items is SnowflakeERC721, SnowflakeERC721Burnable, SnowflakeERC721Mintable, AddressSnowflakeERC721, ItemInterface {\n\n    //ID, starting at 1\n    uint public nextItemListingsID;\n\n    //Mapping connecting ERC721 items to actual struct objects\n    mapping(uint => Item) public itemListings;\n/*\n    constructor(address _snowflakeAddress) public {\n        _constructItems(_snowflakeAddress);\n    }\n*/\n    function _constructItems(address _snowflakeAddress) internal {\n\n        _constructSnowflakeERC721(_snowflakeAddress);\n        _constructSnowflakeERC721Burnable(_snowflakeAddress);\n        _constructSnowflakeERC721Mintable(_snowflakeAddress);\n        _constructAddressSnowflakeERC721(_snowflakeAddress);\n\n        //Actual Item constructing\n        nextItemListingsID = 1;\n    }\n\n    struct Item {\n        uint uuid;\n        uint quantity;\n        ItemType itemType;\n        ItemStatus status;\n        ItemCondition condition;\n        string title;\n        string description;\n        uint256 price;\n        uint[] delivery; //Simply holds the ID for the delivery method, done for saving space\n        uint[] tags;\n        uint returnPolicy;\n\n    }\n\n    function getItem(uint id) public view returns (\n        uint uuid,\n        uint quantity,\n        ItemType itemType,\n        ItemStatus status,\n        ItemCondition condition,\n        string memory title,\n        string memory description,\n        uint256 price,\n        uint returnPolicy\n    ){\n\n        Item memory item = itemListings[id];\n        return (item.uuid, item.quantity, item.itemType, item.status, item.condition, item.title, item.description, item.price, item.returnPolicy);\n    }\n\n    //This is simply more for convenience than not\n    function getItemPrice(uint id) public view returns (uint256) {\n        return itemListings[id].price;\n    }\n\n    function getItemDeliveryNeo(uint id) public view returns (uint[] memory) {\n        return storageUintArrToMemory(itemListings[id].delivery);\n    }\n \n    function getItemTagsNeo(uint id) public view returns (uint[] memory) {\n        return storageUintArrToMemory(itemListings[id].tags);\n    }\n\n    //Refactor this down the line\n    /**\n     *====================\n     * GENERIC FUNCTION\n     *====================\n     * \n     * PLEASE REFACTOR!!!!!!!!!!!!\n     */\n    function storageUintArrToMemory(uint[] storage arr) internal view returns (uint[] memory) {\n        uint[] memory memArr = new uint[](arr.length);\n        for(uint i = 0; i < arr.length; i++){\n            memArr[i] = arr[i];\n        }\n        return memArr;\n    }\n\n\n\n    //Arguably, these functions below could be refactored via enums, but probably overkill\n    function getItemDelivery(uint id, uint index) public view returns (uint) { \n        return itemListings[id].delivery[index]; \n    }\n\n    function getItemTag(uint id, uint index) public view returns (uint) {\n        return itemListings[id].tags[index];\n    }\n\n    function getItemDeliveryLength(uint id) public view returns (uint) {\n        return itemListings[id].delivery.length;\n    }\n\n    function getItemTagsLength(uint id) public view returns (uint) {\n        return itemListings[id].tags.length;\n    }\n\n\n\n/*\n==============================\nItemListing add/update/delete\n==============================\n*/\n\n\n    function _addItemListing (\n        uint256 ein,\n        uint uuid,\n        uint quantity,\n        ItemType itemType,\n        ItemStatus status,\n        ItemCondition condition,\n        string memory title,\n        string memory description,\n        uint256 price,\n        uint[] memory delivery,\n        uint[] memory tags,\n        uint returnPolicy\n    ) internal returns (bool) {\n\n        //Mint it as an ERC721 owned by the creator\n        _mint(ein, nextItemListingsID);\n\n        //Add to itemListings\n        itemListings[nextItemListingsID] = Item(uuid, quantity, itemType, status, condition, title, description, price, delivery, tags, returnPolicy);\n        //advance item by one\n        nextItemListingsID++;\n\n        return true;\n    }\n\n\n    //NOTE: This can be changed in a way that does not re-create an entirely new item on every call, but more complex that perhaps needed\n\n    function _updateItemListing (\n        uint id,\n        uint uuid,\n        uint quantity,\n        ItemType itemType,\n        ItemStatus status,\n        ItemCondition condition,\n        string memory title,\n        string memory description,\n        uint256 price,\n        uint[] memory delivery,\n        uint[] memory tags,\n        uint returnPolicy\n    ) internal returns (bool) {\n\n        //Update itemListing identified by ID\n        itemListings[id] = Item(uuid, quantity, itemType, status, condition, title, description, price, delivery, tags, returnPolicy);\n        return true;\n    }\n\n\n    function _deleteItemListing(uint id) internal returns (bool) {\n        //Delete itemListing identified by ID\n        delete itemListings[id];\n\n        //Finally, burn it\n        _burn(id);\n\n        return true;\n    }\n\n\n\n\n}\n\n\n\n",
  "sourcePath": "/home/luiserebii/github/HydroSnowflake-Marketplace-Coupons/contracts/marketplace/features/Items.sol",
  "compiler": {
    "name": "solc",
    "version": "0.5.7+commit.6da8b019.Emscripten.clang"
  },
  "schemaVersion": "3.0.6",
  "updatedAt": "2019-06-07T02:04:39.498Z",
  "devdoc": {
    "methods": {
      "approve(uint256,uint256)": {
        "details": "Approves another EIN to transfer the given token ID The zero EIN indicates there is no approved EIN. There can only be one approved EIN per token at a given time. Can only be called by the token owner or an approved operator.",
        "params": {
          "to": "uint256 to be approved for the given token ID",
          "tokenId": "uint256 ID of the token to be approved"
        }
      },
      "approveAddress(address,uint256)": {
        "details": "Approves an address to transfer the given token ID The zero address indicates there is no approved EIN. There can only be one approved address per token at a given time. Can only be called by the token owner or an approved operator.",
        "params": {
          "to": "address to be approved for the given token ID",
          "tokenId": "uint256 ID of the token to be approved"
        }
      },
      "balanceOf(uint256)": {
        "details": "Gets the balance of the specified address",
        "params": {
          "owner": "uint256 to query the balance of"
        },
        "return": "uint256 representing the amount owned by the passed address"
      },
      "burn(uint256)": {
        "details": "Burns a specific Snowflake ERC721 token.",
        "params": {
          "tokenId": "uint256 id of the Snowflake ERC721 token to be burned."
        }
      },
      "getApproved(uint256)": {
        "details": "Gets the approved EIN for a token ID, or zero if no EIN set Reverts if the token ID does not exist.",
        "params": {
          "tokenId": "uint256 ID of the token to query the approval of"
        },
        "return": "EIN currently approved for the given token ID"
      },
      "getApprovedAddress(uint256)": {
        "details": "Gets the approved address for a token ID, or zero if no EIN set Reverts if the token ID does not exist.",
        "params": {
          "tokenId": "uint256 ID of the token to query the approval of"
        },
        "return": "address currently approved for the given token ID"
      },
      "isApprovedForAll(uint256,uint256)": {
        "details": "Tells whether an operator is approved by a given owner",
        "params": {
          "operator": "operator EIN which you want to query the approval of",
          "owner": "owner EIN which you want to query the approval of"
        },
        "return": "bool whether the given operator is approved by the given owner"
      },
      "mint(uint256,uint256)": {
        "details": "Function to mint tokens",
        "params": {
          "to": "The EIN that will receive the minted tokens.",
          "tokenId": "The token id to mint."
        },
        "return": "A boolean that indicates if the operation was successful."
      },
      "ownerOf(uint256)": {
        "details": "Gets the owner of the specified token ID",
        "params": {
          "tokenId": "uint256 ID of the token to query the owner of"
        },
        "return": "uint256 currently marked as the owner of the given token ID"
      },
      "safeTransferFrom(uint256,uint256,uint256)": {
        "details": "Safely transfers the ownership of a given token ID to another EIN If the target EIN is a contract, it must implement `onERC721Received`, which is called upon a safe transfer, and return the magic value `bytes4(keccak256(\"onERC721Received(address,address,uint256,bytes)\"))`; otherwise, the transfer is reverted. Requires the msg.sender to be the owner, approved, or operator",
        "params": {
          "from": "uint256 current owner of the token",
          "to": "uint256 to receive the ownership of the given token ID",
          "tokenId": "uint256 ID of the token to be transferred"
        }
      },
      "safeTransferFrom(uint256,uint256,uint256,bytes)": {
        "details": "Safely transfers the ownership of a given token ID to another EIN If the target EIN is a contract, it must implement `onERC721Received`, which is called upon a safe transfer, and return the magic value `bytes4(keccak256(\"onERC721Received(address,address,uint256,bytes)\"))`; otherwise, the transfer is reverted. Requires the msg.sender to be the owner, approved, or operator",
        "params": {
          "_data": "bytes data to send along with a safe transfer check",
          "from": "current owner of the token",
          "to": "uint256 to receive the ownership of the given token ID",
          "tokenId": "uint256 ID of the token to be transferred"
        }
      },
      "safeTransferFromAddress(uint256,uint256,uint256)": {
        "details": "Safely transfers the ownership of a given token ID to another EIN If the target EIN is a contract, it must implement `onERC721Received`, which is called upon a safe transfer, and return the magic value `bytes4(keccak256(\"onERC721Received(address,address,uint256,bytes)\"))`; otherwise, the transfer is reverted. Requires the msg.sender to be the owner, approved, or operator",
        "params": {
          "from": "uint256 current owner of the token",
          "to": "uint256 to receive the ownership of the given token ID",
          "tokenId": "uint256 ID of the token to be transferred"
        }
      },
      "safeTransferFromAddress(uint256,uint256,uint256,bytes)": {
        "details": "Safely transfers the ownership of a given token ID to another EIN If the target address is a contract, it must implement `onERC721Received`, which is called upon a safe transfer, and return the magic value `bytes4(keccak256(\"onERC721Received(address,address,uint256,bytes)\"))`; otherwise, the transfer is reverted. Requires the msg.sender to be the owner, approved, or operator",
        "params": {
          "_data": "bytes data to send along with a safe transfer check",
          "from": "current owner of the token",
          "to": "uint256 to receive the ownership of the given token ID",
          "tokenId": "uint256 ID of the token to be transferred"
        }
      },
      "setApprovalForAll(uint256,bool)": {
        "details": "Sets or unsets the approval of a given operator An operator is allowed to transfer all tokens of the sender on their behalf",
        "params": {
          "approved": "representing the status of the approval to be set",
          "to": "operator EIN to set the approval"
        }
      },
      "supportsInterface(bytes4)": {
        "details": "implement supportsInterface(bytes4) using a lookup table"
      },
      "transferFrom(uint256,uint256,uint256)": {
        "details": "Transfers the ownership of a given token ID to another address Usage of this method is discouraged, use `safeTransferFrom` whenever possible Requires the msg.sender to be the owner, approved, or operator",
        "params": {
          "from": "current owner of the token",
          "to": "address to receive the ownership of the given token ID",
          "tokenId": "uint256 ID of the token to be transferred"
        }
      },
      "transferFromAddress(uint256,uint256,uint256)": {
        "details": "Transfers the ownership of a given token ID to another address Usage of this method is discouraged, use `safeTransferFrom` whenever possible Requires the msg.sender to be the owner, approved, or operator",
        "params": {
          "from": "current owner of the token",
          "to": "address to receive the ownership of the given token ID",
          "tokenId": "uint256 ID of the token to be transferred"
        }
      }
    }
  },
  "userdoc": {
    "methods": {}
  }
}