{
  "contractName": "Marketplace",
  "abi": [
    {
      "constant": true,
      "inputs": [],
      "name": "CouponDistributionAddress",
      "outputs": [
        {
          "name": "",
          "type": "address"
        }
      ],
      "payable": false,
      "stateMutability": "view",
      "type": "function"
    },
    {
      "constant": true,
      "inputs": [
        {
          "name": "",
          "type": "uint256"
        }
      ],
      "name": "itemTags",
      "outputs": [
        {
          "name": "",
          "type": "string"
        }
      ],
      "payable": false,
      "stateMutability": "view",
      "type": "function"
    },
    {
      "constant": true,
      "inputs": [],
      "name": "nextItemTagsID",
      "outputs": [
        {
          "name": "",
          "type": "uint256"
        }
      ],
      "payable": false,
      "stateMutability": "view",
      "type": "function"
    },
    {
      "constant": true,
      "inputs": [
        {
          "name": "",
          "type": "uint256"
        }
      ],
      "name": "returnPolicies",
      "outputs": [
        {
          "name": "returnsAccepted",
          "type": "bool"
        },
        {
          "name": "timeLimit",
          "type": "uint256"
        }
      ],
      "payable": false,
      "stateMutability": "view",
      "type": "function"
    },
    {
      "constant": true,
      "inputs": [],
      "name": "nextReturnPoliciesID",
      "outputs": [
        {
          "name": "",
          "type": "uint256"
        }
      ],
      "payable": false,
      "stateMutability": "view",
      "type": "function"
    },
    {
      "constant": true,
      "inputs": [],
      "name": "CouponFeatureAddress",
      "outputs": [
        {
          "name": "",
          "type": "address"
        }
      ],
      "payable": false,
      "stateMutability": "view",
      "type": "function"
    },
    {
      "constant": true,
      "inputs": [
        {
          "name": "",
          "type": "uint256"
        }
      ],
      "name": "deliveryMethods",
      "outputs": [
        {
          "name": "",
          "type": "string"
        }
      ],
      "payable": false,
      "stateMutability": "view",
      "type": "function"
    },
    {
      "constant": true,
      "inputs": [],
      "name": "ItemFeatureAddress",
      "outputs": [
        {
          "name": "",
          "type": "address"
        }
      ],
      "payable": false,
      "stateMutability": "view",
      "type": "function"
    },
    {
      "constant": true,
      "inputs": [
        {
          "name": "",
          "type": "uint256"
        },
        {
          "name": "",
          "type": "uint256"
        }
      ],
      "name": "userCoupons",
      "outputs": [
        {
          "name": "",
          "type": "bool"
        }
      ],
      "payable": false,
      "stateMutability": "view",
      "type": "function"
    },
    {
      "constant": true,
      "inputs": [],
      "name": "nextDeliveryMethodsID",
      "outputs": [
        {
          "name": "",
          "type": "uint256"
        }
      ],
      "payable": false,
      "stateMutability": "view",
      "type": "function"
    },
    {
      "constant": true,
      "inputs": [
        {
          "name": "id",
          "type": "uint256"
        }
      ],
      "name": "getDeliveryMethod",
      "outputs": [
        {
          "name": "method",
          "type": "string"
        }
      ],
      "payable": false,
      "stateMutability": "view",
      "type": "function"
    },
    {
      "constant": true,
      "inputs": [
        {
          "name": "id",
          "type": "uint256"
        }
      ],
      "name": "getReturnPolicy",
      "outputs": [
        {
          "name": "returnsAccepted",
          "type": "bool"
        },
        {
          "name": "timeLimit",
          "type": "uint256"
        }
      ],
      "payable": false,
      "stateMutability": "view",
      "type": "function"
    },
    {
      "constant": true,
      "inputs": [],
      "name": "paymentAddress",
      "outputs": [
        {
          "name": "",
          "type": "address"
        }
      ],
      "payable": false,
      "stateMutability": "view",
      "type": "function"
    },
    {
      "constant": true,
      "inputs": [
        {
          "name": "ein",
          "type": "uint256"
        },
        {
          "name": "couponID",
          "type": "uint256"
        }
      ],
      "name": "isUserCouponOwner",
      "outputs": [
        {
          "name": "isValid",
          "type": "bool"
        }
      ],
      "payable": false,
      "stateMutability": "view",
      "type": "function"
    }
  ],
  "bytecode": "0x608060405234801561001057600080fd5b50610603806100206000396000f3fe608060405234801561001057600080fd5b5060043610610107576000357c0100000000000000000000000000000000000000000000000000000000900480638900011b116100a9578063e018290811610083578063e018290814610295578063e4aab400146102b8578063f0acf6aa146102c0578063fd4230e6146102dd57610107565b80638900011b146102395780639c5f415614610256578063d58f19c31461025e57610107565b806367316447116100e557806367316447146101d7578063798f1be1146101f157806380168e811461022957806380b212991461023157610107565b8063341f6e901461010c5780634f22b7561461013d578063633423be146101cf575b600080fd5b6101146102fa565b6040805173ffffffffffffffffffffffffffffffffffffffff9092168252519081900360200190f35b61015a6004803603602081101561015357600080fd5b5035610316565b6040805160208082528351818301528351919283929083019185019080838360005b8381101561019457818101518382015260200161017c565b50505050905090810190601f1680156101c15780820380516001836020036101000a031916815260200191505b509250505060405180910390f35b6101146103b0565b6101df6103cc565b60408051918252519081900360200190f35b61020e6004803603602081101561020757600080fd5b50356103d2565b60408051921515835260208301919091528051918290030190f35b6101df6103f1565b6101146103f7565b61015a6004803603602081101561024f57600080fd5b5035610413565b61011461047b565b6102816004803603604081101561027457600080fd5b5080359060200135610497565b604080519115158252519081900360200190f35b610281600480360360408110156102ab57600080fd5b50803590602001356104b7565b6101df6104d7565b61015a600480360360208110156102d657600080fd5b50356104dd565b61020e600480360360208110156102f357600080fd5b503561057e565b60095473ffffffffffffffffffffffffffffffffffffffff1681565b60016020818152600092835260409283902080548451600294821615610100026000190190911693909304601f81018390048302840183019094528383529192908301828280156103a85780601f1061037d576101008083540402835291602001916103a8565b820191906000526020600020905b81548152906001019060200180831161038b57829003601f168201915b505050505081565b60065473ffffffffffffffffffffffffffffffffffffffff1690565b60005481565b6005602052600090815260409020805460019091015460ff9091169082565b60045481565b60075473ffffffffffffffffffffffffffffffffffffffff1681565b60036020908152600091825260409182902080548351601f6002600019610100600186161502019093169290920491820184900484028101840190945280845290918301828280156103a85780601f1061037d576101008083540402835291602001916103a8565b60085473ffffffffffffffffffffffffffffffffffffffff1681565b6000918252600a6020908152604080842092845291905290205460ff1690565b600a60209081526000928352604080842090915290825290205460ff1681565b60025481565b60008181526003602090815260409182902080548351601f60026000196101006001861615020190931692909204918201849004840281018401909452808452606093928301828280156105725780601f1061054757610100808354040283529160200191610572565b820191906000526020600020905b81548152906001019060200180831161055557829003601f168201915b50505050509050919050565b6000806105896105c0565b5050506000908152600560209081526040918290208251808401909352805460ff1615158084526001909101549290910182905291565b60408051808201909152600080825260208201529056fea165627a7a7230582042a5d7f80294d85f7f437099fdad2ecb6e3d295c9e0f7fbde3b6cab97b6f496c0029",
  "source": "pragma solidity ^0.5.0;\n\nimport \"./features/ItemTags.sol\";\nimport \"./features/Delivery.sol\";\nimport \"./features/ReturnPolicies.sol\";\nimport \"../interfaces/marketplace/MarketplaceInterface.sol\";\n\ncontract Marketplace is ItemTags, Delivery, ReturnPolicies, MarketplaceInterface {\n\n    address private _paymentAddress;\n    address public CouponFeatureAddress;\n    address public ItemFeatureAddress;\n    address public CouponDistributionAddress;\n  \n\n    //EIN to Coupon UUID mapping\n    // EIN => (couponID => bool)\n    mapping(uint => mapping(uint => bool)) public userCoupons;\n\n/*\n    constructor(address paymentAddress, address _CouponFeatureAddress, address _ItemFeatureAddress) public { \n        _constructMarketplace(paymentAddress, _CouponFeatureAddress, _ItemFeatureAddress);\n    }\n*/\n    function _constructMarketplace(address paymentAddress, address _CouponFeatureAddress, address _ItemFeatureAddress/*, address _snowflakeAddress*/) internal {\n        //Constructing parent contracts\n        _constructItemTags();\n        _constructDelivery();\n        _constructReturnPolicies();\n\n        //Set contract-specific private/internal vars\n        _paymentAddress = paymentAddress;\n        CouponFeatureAddress = _CouponFeatureAddress;\n        ItemFeatureAddress = _ItemFeatureAddress;\n        \n    }\n\n\n    function paymentAddress() public view returns (address) {\n        return _paymentAddress;\n    }\n\n    function isUserCouponOwner(uint ein, uint couponID) public view returns (bool isValid) {\n        return userCoupons[ein][couponID];\n    }\n\n\n\n    function _giveUserCoupon(uint ein, uint couponID) internal returns (bool) {\n        userCoupons[ein][couponID] = true;\n        return true;\n    }\n     \n\n    //TODO: Add event here\n    function _setPaymentAddress(address addr) internal returns (bool) {\n        _paymentAddress = addr;\n        return true;\n    }\n\n    function _setCouponFeatureAddress(address _CouponFeatureAddress) internal returns (bool) {\n        CouponFeatureAddress = _CouponFeatureAddress;\n        return true;\n    }\n\n    function _setItemFeatureAddress(address _ItemFeatureAddress) internal returns (bool) {\n        ItemFeatureAddress = _ItemFeatureAddress;\n        return true;\n    }\n\n    function _setCouponDistributionAddress(address _CouponDistributionAddress) internal returns (bool) {\n        CouponDistributionAddress = _CouponDistributionAddress;\n        return true;\n    }\n\n\n    modifier onlyCouponDistribution() {\n        require(msg.sender == CouponDistributionAddress);\n        _;\n    }\n\n\n\n\n//EXTRA MARKETPLACE:\n\n\n    struct DeliveryDetails {\n        uint method;\n        uint handlingTime;\n        string trackingNumber;\n    }\n\n\n\n\n\n}\n",
  "sourcePath": "/home/luiserebii/github/HydroSnowflake-Marketplace-Coupons/contracts/marketplace/Marketplace.sol",
  "compiler": {
    "name": "solc",
    "version": "0.5.6+commit.b259423e.Emscripten.clang"
  },
  "schemaVersion": "3.0.6",
  "updatedAt": "2019-04-12T01:36:38.102Z",
  "devdoc": {
    "methods": {}
  },
  "userdoc": {
    "methods": {}
  }
}