{
  "contractName": "Number",
  "abi": [
    {
      "constant": true,
      "inputs": [],
      "name": "number",
      "outputs": [
        {
          "name": "",
          "type": "uint256"
        }
      ],
      "payable": false,
      "stateMutability": "view",
      "type": "function"
    }
  ],
  "bytecode": "0x6080604052348015600f57600080fd5b5060938061001e6000396000f3fe6080604052348015600f57600080fd5b50600436106044577c010000000000000000000000000000000000000000000000000000000060003504638381f58a81146049575b600080fd5b604f6061565b60408051918252519081900360200190f35b6000549056fea165627a7a72305820be2726567d0896d4baa72063ae5946da93038eec052a49322b4f0931ab8af6520029",
  "source": "pragma solidity ^0.5.0;\n\n/*============\n * Number.sol\n *============\n *\n * A simple contract extending the Number interface, a contract which extends this,\n * will gain a basic private instance variable \"_number\" and related methods\n *\n */\n\nimport \"./interfaces/NumberInterface.sol\";\n\ncontract Number is NumberInterface {\n\n  uint256 private _number;\n\n  function number() public view returns (uint256) {\n    return _number;\n  }\n \n  //Accessor function for _number var\n  function _setNumber(uint256 num) internal returns (bool) {\n    _number = num;\n  }\n}\n",
  "sourcePath": "/home/luiserebii/github/HydroSnowflake-Marketplace-Coupons/contracts/main-contracts/Number.sol",
  "compiler": {
    "name": "solc",
    "version": "0.5.7+commit.6da8b019.Emscripten.clang"
  },
  "schemaVersion": "3.0.6",
  "updatedAt": "2019-06-07T02:04:39.477Z",
  "devdoc": {
    "methods": {}
  },
  "userdoc": {
    "methods": {}
  }
}