{
  "contractName": "NumberBasic",
  "abi": [
    {
      "constant": true,
      "inputs": [],
      "name": "number",
      "outputs": [
        {
          "name": "",
          "type": "uint256"
        }
      ],
      "payable": false,
      "stateMutability": "view",
      "type": "function"
    },
    {
      "inputs": [
        {
          "name": "initNumber",
          "type": "uint256"
        }
      ],
      "payable": false,
      "stateMutability": "nonpayable",
      "type": "constructor"
    }
  ],
  "bytecode": "0x608060405234801561001057600080fd5b506040516020806100f48339810180604052602081101561003057600080fd5b50516100448164010000000061004b810204565b5050610053565b600090815590565b6093806100616000396000f3fe6080604052348015600f57600080fd5b50600436106044577c010000000000000000000000000000000000000000000000000000000060003504638381f58a81146049575b600080fd5b604f6061565b60408051918252519081900360200190f35b6000549056fea165627a7a7230582083db5bf8acadb7a3238e0b9065d39296f590c26e5c95d373390ed1ac1c9259200029",
  "source": "pragma solidity ^0.5.0;\n\n\n/*=================\n * NumberBasic.sol\n *=================\n *\n * A basic number contract which defines the number upon construction.\n *\n */\n\nimport \"./Number.sol\";\n\ncontract NumberBasic is Number {\n\n  constructor(uint256 initNumber) public {\n    _setNumber(initNumber);\n  }\n\n}\n",
  "sourcePath": "/home/luiserebii/github/HydroSnowflake-Marketplace-Coupons/contracts/main-contracts/NumberBasic.sol",
  "compiler": {
    "name": "solc",
    "version": "0.5.7+commit.6da8b019.Emscripten.clang"
  },
  "schemaVersion": "3.0.6",
  "updatedAt": "2019-06-07T02:04:39.477Z",
  "devdoc": {
    "methods": {}
  },
  "userdoc": {
    "methods": {}
  }
}