{
  "contractName": "OldClientRaindrop",
  "abi": [
    {
      "constant": true,
      "inputs": [],
      "name": "minimumHydroStakeUser",
      "outputs": [
        {
          "name": "",
          "type": "uint256"
        }
      ],
      "payable": false,
      "stateMutability": "view",
      "type": "function"
    },
    {
      "constant": false,
      "inputs": [],
      "name": "renounceOwnership",
      "outputs": [],
      "payable": false,
      "stateMutability": "nonpayable",
      "type": "function"
    },
    {
      "constant": true,
      "inputs": [],
      "name": "hydroTokenAddress",
      "outputs": [
        {
          "name": "",
          "type": "address"
        }
      ],
      "payable": false,
      "stateMutability": "view",
      "type": "function"
    },
    {
      "constant": true,
      "inputs": [],
      "name": "owner",
      "outputs": [
        {
          "name": "",
          "type": "address"
        }
      ],
      "payable": false,
      "stateMutability": "view",
      "type": "function"
    },
    {
      "constant": true,
      "inputs": [],
      "name": "isOwner",
      "outputs": [
        {
          "name": "",
          "type": "bool"
        }
      ],
      "payable": false,
      "stateMutability": "view",
      "type": "function"
    },
    {
      "constant": true,
      "inputs": [],
      "name": "minimumHydroStakeDelegatedUser",
      "outputs": [
        {
          "name": "",
          "type": "uint256"
        }
      ],
      "payable": false,
      "stateMutability": "view",
      "type": "function"
    },
    {
      "constant": false,
      "inputs": [
        {
          "name": "newOwner",
          "type": "address"
        }
      ],
      "name": "transferOwnership",
      "outputs": [],
      "payable": false,
      "stateMutability": "nonpayable",
      "type": "function"
    },
    {
      "anonymous": false,
      "inputs": [
        {
          "indexed": false,
          "name": "casedUserName",
          "type": "string"
        },
        {
          "indexed": false,
          "name": "userAddress",
          "type": "address"
        }
      ],
      "name": "UserSignUp",
      "type": "event"
    },
    {
      "anonymous": false,
      "inputs": [
        {
          "indexed": false,
          "name": "casedUserName",
          "type": "string"
        }
      ],
      "name": "UserDeleted",
      "type": "event"
    },
    {
      "anonymous": false,
      "inputs": [
        {
          "indexed": true,
          "name": "previousOwner",
          "type": "address"
        },
        {
          "indexed": true,
          "name": "newOwner",
          "type": "address"
        }
      ],
      "name": "OwnershipTransferred",
      "type": "event"
    },
    {
      "constant": false,
      "inputs": [
        {
          "name": "casedUserName",
          "type": "string"
        },
        {
          "name": "userAddress",
          "type": "address"
        },
        {
          "name": "v",
          "type": "uint8"
        },
        {
          "name": "r",
          "type": "bytes32"
        },
        {
          "name": "s",
          "type": "bytes32"
        }
      ],
      "name": "signUpDelegatedUser",
      "outputs": [],
      "payable": false,
      "stateMutability": "nonpayable",
      "type": "function"
    },
    {
      "constant": false,
      "inputs": [
        {
          "name": "casedUserName",
          "type": "string"
        }
      ],
      "name": "signUpUser",
      "outputs": [],
      "payable": false,
      "stateMutability": "nonpayable",
      "type": "function"
    },
    {
      "constant": false,
      "inputs": [],
      "name": "deleteUser",
      "outputs": [],
      "payable": false,
      "stateMutability": "nonpayable",
      "type": "function"
    },
    {
      "constant": false,
      "inputs": [
        {
          "name": "_hydroTokenAddress",
          "type": "address"
        }
      ],
      "name": "setHydroTokenAddress",
      "outputs": [],
      "payable": false,
      "stateMutability": "nonpayable",
      "type": "function"
    },
    {
      "constant": false,
      "inputs": [
        {
          "name": "newMinimumHydroStakeUser",
          "type": "uint256"
        },
        {
          "name": "newMinimumHydroStakeDelegatedUser",
          "type": "uint256"
        }
      ],
      "name": "setMinimumHydroStakes",
      "outputs": [],
      "payable": false,
      "stateMutability": "nonpayable",
      "type": "function"
    },
    {
      "constant": true,
      "inputs": [
        {
          "name": "userName",
          "type": "string"
        }
      ],
      "name": "userNameTaken",
      "outputs": [
        {
          "name": "taken",
          "type": "bool"
        }
      ],
      "payable": false,
      "stateMutability": "view",
      "type": "function"
    },
    {
      "constant": true,
      "inputs": [
        {
          "name": "userName",
          "type": "string"
        }
      ],
      "name": "getUserByName",
      "outputs": [
        {
          "name": "casedUserName",
          "type": "string"
        },
        {
          "name": "userAddress",
          "type": "address"
        }
      ],
      "payable": false,
      "stateMutability": "view",
      "type": "function"
    },
    {
      "constant": true,
      "inputs": [
        {
          "name": "_address",
          "type": "address"
        }
      ],
      "name": "getUserByAddress",
      "outputs": [
        {
          "name": "casedUserName",
          "type": "string"
        }
      ],
      "payable": false,
      "stateMutability": "view",
      "type": "function"
    },
    {
      "constant": true,
      "inputs": [
        {
          "name": "_address",
          "type": "address"
        },
        {
          "name": "messageHash",
          "type": "bytes32"
        },
        {
          "name": "v",
          "type": "uint8"
        },
        {
          "name": "r",
          "type": "bytes32"
        },
        {
          "name": "s",
          "type": "bytes32"
        }
      ],
      "name": "isSigned",
      "outputs": [
        {
          "name": "",
          "type": "bool"
        }
      ],
      "payable": false,
      "stateMutability": "pure",
      "type": "function"
    }
  ],
  "bytecode": "0x6080604081905260008054600160a060020a0319163317808255600160a060020a0316917f8be0079c531659141344cd1fd0a4f28419497f9722a3daafe3b4186f6b6457e0908290a3611a56806100576000396000f3fe6080604052600436106100e55763ffffffff7c0100000000000000000000000000000000000000000000000000000000600035041663026ff05e81146100ea5780632b45bcf9146101015780632e5df0fe1461012857806345004310146101f85780634bff5009146102ab57806369c212f6146103ef578063715018a61461049757806375d7e4bd146104ac57806385ba9a99146104dd5780638677ebe81461050d5780638da5cb5b1461056f5780638f32d59b14610584578063ba75d0de14610599578063bed7437f146105ae578063d35e656b146105e1578063f2fde38b14610694575b600080fd5b3480156100f657600080fd5b506100ff6106c7565b005b34801561010d57600080fd5b506101166108e0565b60408051918252519081900360200190f35b34801561013457600080fd5b506100ff600480360360a081101561014b57600080fd5b81019060208101813564010000000081111561016657600080fd5b82018360208201111561017857600080fd5b8035906020019184600183028401116401000000008311171561019a57600080fd5b91908080601f01602080910402602001604051908101604052809392919081815260200183838082843760009201919091525092955050600160a060020a0383351693505060ff6020830135169160408101359150606001356108e6565b34801561020457600080fd5b506100ff6004803603602081101561021b57600080fd5b81019060208101813564010000000081111561023657600080fd5b82018360208201111561024857600080fd5b8035906020019184600183028401116401000000008311171561026a57600080fd5b91908080601f016020809104026020016040519081016040528093929190818152602001838380828437600092019190915250929550610ab9945050505050565b3480156102b757600080fd5b5061035e600480360360208110156102ce57600080fd5b8101906020810181356401000000008111156102e957600080fd5b8201836020820111156102fb57600080fd5b8035906020019184600183028401116401000000008311171561031d57600080fd5b91908080601f016020809104026020016040519081016040528093929190818152602001838380828437600092019190915250929550610bb9945050505050565b604051808060200183600160a060020a0316600160a060020a03168152602001828103825284818151815260200191508051906020019080838360005b838110156103b357818101518382015260200161039b565b50505050905090810190601f1680156103e05780820380516001836020036101000a031916815260200191505b50935050505060405180910390f35b3480156103fb57600080fd5b506104226004803603602081101561041257600080fd5b5035600160a060020a0316610d50565b6040805160208082528351818301528351919283929083019185019080838360005b8381101561045c578181015183820152602001610444565b50505050905090810190601f1680156104895780820380516001836020036101000a031916815260200191505b509250505060405180910390f35b3480156104a357600080fd5b506100ff610e6c565b3480156104b857600080fd5b506104c1610ed6565b60408051600160a060020a039092168252519081900360200190f35b3480156104e957600080fd5b506100ff6004803603604081101561050057600080fd5b5080359060200135610ee5565b34801561051957600080fd5b5061055b600480360360a081101561053057600080fd5b50600160a060020a038135169060208101359060ff6040820135169060608101359060800135611056565b604080519115158252519081900360200190f35b34801561057b57600080fd5b506104c1611082565b34801561059057600080fd5b5061055b611092565b3480156105a557600080fd5b506101166110a3565b3480156105ba57600080fd5b506100ff600480360360208110156105d157600080fd5b5035600160a060020a03166110a9565b3480156105ed57600080fd5b5061055b6004803603602081101561060457600080fd5b81019060208101813564010000000081111561061f57600080fd5b82018360208201111561063157600080fd5b8035906020019184600183028401116401000000008311171561065357600080fd5b91908080601f0160208091040260200160405190810160405280939291908181526020018383808284376000920191909152509295506110eb945050505050565b3480156106a057600080fd5b506100ff600480360360208110156106b757600080fd5b5035600160a060020a0316611176565b336000908152600560205260409020546106e081611195565b151561075c576040805160e560020a62461bcd02815260206004820152602b60248201527f4e6f2075736572206173736f6369617465642077697468207468652073656e6460448201527f657220616464726573732e000000000000000000000000000000000000000000606482015290519081900360840190fd5b60008181526004602090815260409182902080548351601f60026000196101006001861615020190931692909204918201849004840281018401909452808452606093928301828280156107f15780601f106107c6576101008083540402835291602001916107f1565b820191906000526020600020905b8154815290600101906020018083116107d457829003601f168201915b505033600090815260056020908152604080832083905588835260049091528120949550925061082591508390508261193b565b50600101805473ffffffffffffffffffffffffffffffffffffffff1916905560408051602080825283518183015283517f28f7ad4961343bc792aec8e7886fc38c6847f9cd253ec14a633ff3bed8370883938593928392918301919085019080838360005b838110156108a257818101518382015260200161088a565b50505050905090810190601f1680156108cf5780820380516001836020036101000a031916815260200191505b509250505060405180910390a15050565b60025481565b600354600154604080517f70a0823100000000000000000000000000000000000000000000000000000000815233600482018190529151919392600160a060020a031691839183916370a0823191602480820192602092909190829003018186803b15801561095457600080fd5b505afa158015610968573d6000803e3d6000fd5b505050506040513d602081101561097e57600080fd5b505110156109d6576040805160e560020a62461bcd02815260206004820152601b60248201527f496e73756666696369656e7420485944524f2062616c616e63652e0000000000604482015290519081900360640190fd5b610a4f8760405160200180807f437265617465205261696e64726f70436c69656e7420487964726f204163636f81526020017f756e740000000000000000000000000000000000000000000000000000000000815250602301905060405160208183030381529060405280519060200120888888611056565b1515610aa5576040805160e560020a62461bcd02815260206004820152601260248201527f5065726d697373696f6e2064656e6965642e0000000000000000000000000000604482015290519081900360640190fd5b610aaf88886111b5565b5050505050505050565b600254600154604080517f70a0823100000000000000000000000000000000000000000000000000000000815233600482018190529151919392600160a060020a031691839183916370a0823191602480820192602092909190829003018186803b158015610b2757600080fd5b505afa158015610b3b573d6000803e3d6000fd5b505050506040513d6020811015610b5157600080fd5b50511015610ba9576040805160e560020a62461bcd02815260206004820152601b60248201527f496e73756666696369656e7420485944524f2062616c616e63652e0000000000604482015290519081900360640190fd5b610bb384336111b5565b50505050565b6060600080610bc7846114fd565b6040516020018082805190602001908083835b60208310610bf95780518252601f199092019160209182019101610bda565b6001836020036101000a038019825116818451168082178552505050505050905001915050604051602081830303815290604052805190602001209050610c3f81611195565b1515610c95576040805160e560020a62461bcd02815260206004820152601460248201527f5573657220646f6573206e6f742065786973742e000000000000000000000000604482015290519081900360640190fd5b60008181526004602090815260409182902060018082015482548551600261010094831615949094026000190190911692909204601f81018590048502830185019095528482529193600160a060020a039092169290918491830182828015610d3f5780601f10610d1457610100808354040283529160200191610d3f565b820191906000526020600020905b815481529060010190602001808311610d2257829003601f168201915b505050505091509250925050915091565b600160a060020a038116600090815260056020526040902054606090610d7581611195565b1515610dcb576040805160e560020a62461bcd02815260206004820152601460248201527f5573657220646f6573206e6f742065786973742e000000000000000000000000604482015290519081900360640190fd5b60008181526004602090815260409182902080548351601f600260001961010060018616150201909316929092049182018490048402810184019094528084529091830182828015610e5e5780601f10610e3357610100808354040283529160200191610e5e565b820191906000526020600020905b815481529060010190602001808311610e4157829003601f168201915b50505050509150505b919050565b610e74611092565b1515610e7f57600080fd5b60008054604051600160a060020a03909116907f8be0079c531659141344cd1fd0a4f28419497f9722a3daafe3b4186f6b6457e0908390a36000805473ffffffffffffffffffffffffffffffffffffffff19169055565b600154600160a060020a031681565b610eed611092565b1515610ef857600080fd5b600154600160a060020a0316692f0eadc3216237780000831115610f66576040805160e560020a62461bcd02815260206004820152601260248201527f5374616b6520697320746f6f20686967682e0000000000000000000000000000604482015290519081900360640190fd5b606481600160a060020a03166318160ddd6040518163ffffffff167c010000000000000000000000000000000000000000000000000000000002815260040160206040518083038186803b158015610fbd57600080fd5b505afa158015610fd1573d6000803e3d6000fd5b505050506040513d6020811015610fe757600080fd5b5051811515610ff257fe5b0482111561104a576040805160e560020a62461bcd02815260206004820152601260248201527f5374616b6520697320746f6f20686967682e0000000000000000000000000000604482015290519081900360640190fd5b50600291909155600355565b60006110658686868686611582565b806110785750611078868686868661160a565b9695505050505050565b600054600160a060020a03165b90565b600054600160a060020a0316331490565b60035481565b6110b1611092565b15156110bc57600080fd5b6001805473ffffffffffffffffffffffffffffffffffffffff1916600160a060020a0392909216919091179055565b6000806110f7836114fd565b6040516020018082805190602001908083835b602083106111295780518252601f19909201916020918201910161110a565b6001836020036101000a03801982511681845116808217855250505050505090500191505060405160208183030381529060405280519060200120905061116f81611195565b9392505050565b61117e611092565b151561118957600080fd5b6111928161172e565b50565b600090815260046020526040902060010154600160a060020a0316151590565b600160a060020a0381166000908152600560205260409020546111d790611195565b1561122c576040805160e560020a62461bcd02815260206004820152601b60248201527f4164647265737320616c726561647920726567697374657265642e0000000000604482015290519081900360640190fd5b8151601f11611285576040805160e560020a62461bcd02815260206004820152601260248201527f557365726e616d6520746f6f206c6f6e672e0000000000000000000000000000604482015290519081900360640190fd5b81516003106112de576040805160e560020a62461bcd02815260206004820152601360248201527f557365726e616d6520746f6f2073686f72742e00000000000000000000000000604482015290519081900360640190fd5b60006113016112fc6112f76112f2866117ab565b6117d0565b6117f6565b6114fd565b6040516020018082805190602001908083835b602083106113335780518252601f199092019160209182019101611314565b6001836020036101000a03801982511681845116808217855250505050505090500191505060405160208183030381529060405280519060200120905061137981611195565b156113ce576040805160e560020a62461bcd02815260206004820152600f60248201527f557365726e616d652074616b656e2e0000000000000000000000000000000000604482015290519081900360640190fd5b604080518082018252848152600160a060020a03841660208083019190915260008481526004825292909220815180519293919261140f928492019061197f565b50602091820151600191909101805473ffffffffffffffffffffffffffffffffffffffff1916600160a060020a039283161790558316600081815260058352604080822085905580518085019390935280835286519083015285517fbfba570579dd015aeb3054b92f73b1704ea3990bff6ef0ad798dcc17ddf12e51938793879390928392606084019290870191908190849084905b838110156114bd5781810151838201526020016114a5565b50505050905090810190601f1680156114ea5780820380516001836020036101000a031916815260200191505b50935050505060405180910390a1505050565b60608160005b815181101561157b57611535828281518110151561151d57fe5b90602001015160f860020a900460f860020a02611846565b828281518110151561154357fe5b9060200101907effffffffffffffffffffffffffffffffffffffffffffffffffffffffffffff1916908160001a905350600101611503565b5092915050565b600085600160a060020a031660018686868660405160008152602001604052604051808581526020018460ff1660ff1681526020018381526020018281526020019450505050506020604051602081039080840390855afa1580156115eb573d6000803e3d6000fd5b50505060206040510351600160a060020a031614905095945050505050565b604080518082018252601c8082527f19457468657265756d205369676e6564204d6573736167653a0a33320000000060208084019182529351600094859385938b939092019182918083835b602083106116755780518252601f199092019160209182019101611656565b51815160209384036101000a6000190180199092169116179052920193845250604080518085038152848301808352815191840191909120600090915281850180835281905260ff8c166060860152608085018b905260a085018a90529051909550600160a060020a038d16945060019360c08082019450601f19830192918290030190855afa15801561170d573d6000803e3d6000fd5b50505060206040510351600160a060020a0316149250505095945050505050565b600160a060020a038116151561174357600080fd5b60008054604051600160a060020a03808516939216917f8be0079c531659141344cd1fd0a4f28419497f9722a3daafe3b4186f6b6457e091a36000805473ffffffffffffffffffffffffffffffffffffffff1916600160a060020a0392909216919091179055565b6117b36119f9565b506040805180820190915281518152602082810190820152919050565b6117d86119f9565b50604080518082019091528151815260208083015190820152919050565b60608082600001516040519080825280601f01601f191660200182016040528015611828576020820181803883390190505b509050600060208201905061157b81856020015186600001516118fd565b60007f41000000000000000000000000000000000000000000000000000000000000007fff000000000000000000000000000000000000000000000000000000000000008316108015906118dc57507f5a000000000000000000000000000000000000000000000000000000000000007fff00000000000000000000000000000000000000000000000000000000000000831611155b156118f9578160f860020a900460200160f860020a029050610e67565b5090565b5b6020811061191d578151835260209283019290910190601f19016118fe565b905182516020929092036101000a6000190180199091169116179052565b50805460018160011615610100020316600290046000825580601f106119615750611192565b601f0160209004906000526020600020908101906111929190611a10565b828054600181600116156101000203166002900490600052602060002090601f016020900481019282601f106119c057805160ff19168380011785556119ed565b828001600101855582156119ed579182015b828111156119ed5782518255916020019190600101906119d2565b506118f9929150611a10565b604080518082019091526000808252602082015290565b61108f91905b808211156118f95760008155600101611a1656fea165627a7a72305820e1396e0c07e270f0fda862b4e26bdf93cf295f18b7885eb0ce757a3f73b1652b0029",
  "source": "pragma solidity ^0.5.0;\n\nimport \"../zeppelin/ownership/Ownable.sol\";\nimport \"../resolvers/ClientRaindrop/StringUtils.sol\";\nimport \"../interfaces/HydroInterface.sol\";\n\ncontract OldClientRaindrop is Ownable {\n    // attach the StringUtils library\n    using StringUtils for string;\n    using StringUtils for StringUtils.slice;\n    // Events for when a user signs up for Raindrop Client and when their account is deleted\n    event UserSignUp(string casedUserName, address userAddress);\n    event UserDeleted(string casedUserName);\n\n    // Variables allowing this contract to interact with the Hydro token\n    address public hydroTokenAddress;\n    uint public minimumHydroStakeUser;\n    uint public minimumHydroStakeDelegatedUser;\n\n    // User account template\n    struct User {\n        string casedUserName;\n        address userAddress;\n    }\n\n    // Mapping from hashed uncased names to users (primary User directory)\n    mapping (bytes32 => User) internal userDirectory;\n    // Mapping from addresses to hashed uncased names (secondary directory for account recovery based on address)\n    mapping (address => bytes32) internal addressDirectory;\n\n    // Requires an address to have a minimum number of Hydro\n    modifier requireStake(address _address, uint stake) {\n        HydroInterface hydro = HydroInterface(hydroTokenAddress);\n        require(hydro.balanceOf(_address) >= stake, \"Insufficient HYDRO balance.\");\n        _;\n    }\n\n    // Allows applications to sign up users on their behalf iff users signed their permission\n    function signUpDelegatedUser(string memory casedUserName, address userAddress, uint8 v, bytes32 r, bytes32 s)\n        public\n        requireStake(msg.sender, minimumHydroStakeDelegatedUser)\n    {\n        require(\n            isSigned(userAddress, keccak256(abi.encodePacked(\"Create RaindropClient Hydro Account\")), v, r, s),\n            \"Permission denied.\"\n        );\n        _userSignUp(casedUserName, userAddress);\n    }\n\n    // Allows users to sign up with their own address\n    function signUpUser(string memory casedUserName) public requireStake(msg.sender, minimumHydroStakeUser) {\n        return _userSignUp(casedUserName, msg.sender);\n    }\n\n    // Allows users to delete their accounts\n    function deleteUser() public {\n        bytes32 uncasedUserNameHash = addressDirectory[msg.sender];\n        require(initialized(uncasedUserNameHash), \"No user associated with the sender address.\");\n\n        string memory casedUserName = userDirectory[uncasedUserNameHash].casedUserName;\n\n        delete addressDirectory[msg.sender];\n        delete userDirectory[uncasedUserNameHash];\n\n        emit UserDeleted(casedUserName);\n    }\n\n    // Allows the Hydro API to link to the Hydro token\n    function setHydroTokenAddress(address _hydroTokenAddress) public onlyOwner {\n        hydroTokenAddress = _hydroTokenAddress;\n    }\n\n    // Allows the Hydro API to set minimum hydro balances required for sign ups\n    function setMinimumHydroStakes(uint newMinimumHydroStakeUser, uint newMinimumHydroStakeDelegatedUser)\n        public onlyOwner\n    {\n        HydroInterface hydro = HydroInterface(hydroTokenAddress);\n        // <= the airdrop amount\n        require(newMinimumHydroStakeUser <= (222222 * 10**18), \"Stake is too high.\");\n        // <= 1% of total supply\n        require(newMinimumHydroStakeDelegatedUser <= (hydro.totalSupply() / 100), \"Stake is too high.\");\n        minimumHydroStakeUser = newMinimumHydroStakeUser;\n        minimumHydroStakeDelegatedUser = newMinimumHydroStakeDelegatedUser;\n    }\n\n    // Returns a bool indicating whether a given userName has been claimed (either exactly or as any case-variant)\n    function userNameTaken(string memory userName) public view returns (bool taken) {\n        bytes32 uncasedUserNameHash = keccak256(abi.encodePacked(userName.lower()));\n        return initialized(uncasedUserNameHash);\n    }\n\n    // Returns user details (including cased username) by any cased/uncased user name that maps to a particular user\n    function getUserByName(string memory userName) public view returns (string memory casedUserName, address userAddress) {\n        bytes32 uncasedUserNameHash = keccak256(abi.encodePacked(userName.lower()));\n        require(initialized(uncasedUserNameHash), \"User does not exist.\");\n\n        return (userDirectory[uncasedUserNameHash].casedUserName, userDirectory[uncasedUserNameHash].userAddress);\n    }\n\n    // Returns user details by user address\n    function getUserByAddress(address _address) public view returns (string memory casedUserName) {\n        bytes32 uncasedUserNameHash = addressDirectory[_address];\n        require(initialized(uncasedUserNameHash), \"User does not exist.\");\n\n        return userDirectory[uncasedUserNameHash].casedUserName;\n    }\n\n    // Checks whether the provided (v, r, s) signature was created by the private key associated with _address\n    function isSigned(address _address, bytes32 messageHash, uint8 v, bytes32 r, bytes32 s) public pure returns (bool) {\n        return (_isSigned(_address, messageHash, v, r, s) || _isSignedPrefixed(_address, messageHash, v, r, s));\n    }\n\n    // Checks unprefixed signatures\n    function _isSigned(address _address, bytes32 messageHash, uint8 v, bytes32 r, bytes32 s)\n        internal\n        pure\n        returns (bool)\n    {\n        return ecrecover(messageHash, v, r, s) == _address;\n    }\n\n    // Checks prefixed signatures (e.g. those created with web3.eth.sign)\n    function _isSignedPrefixed(address _address, bytes32 messageHash, uint8 v, bytes32 r, bytes32 s)\n        internal\n        pure\n        returns (bool)\n    {\n        bytes memory prefix = \"\\x19Ethereum Signed Message:\\n32\";\n        bytes32 prefixedMessageHash = keccak256(abi.encodePacked(prefix, messageHash));\n\n        return ecrecover(prefixedMessageHash, v, r, s) == _address;\n    }\n\n    // Common internal logic for all user signups\n    function _userSignUp(string memory casedUserName, address userAddress) internal {\n        require(!initialized(addressDirectory[userAddress]), \"Address already registered.\");\n\n        require(bytes(casedUserName).length < 31, \"Username too long.\");\n        require(bytes(casedUserName).length > 3, \"Username too short.\");\n\n        bytes32 uncasedUserNameHash = keccak256(abi.encodePacked(casedUserName.toSlice().copy().toString().lower()));\n        require(!initialized(uncasedUserNameHash), \"Username taken.\");\n\n        userDirectory[uncasedUserNameHash] = User(casedUserName, userAddress);\n        addressDirectory[userAddress] = uncasedUserNameHash;\n\n        emit UserSignUp(casedUserName, userAddress);\n    }\n\n    function initialized(bytes32 uncasedUserNameHash) internal view returns (bool) {\n        return userDirectory[uncasedUserNameHash].userAddress != address(0); // a sufficient initialization check\n    }\n}\n",
  "sourcePath": "/home/luiserebii/hydro_bounty_unofficial/contracts/_testing/OldClientRaindrop.sol",
  "compiler": {
    "name": "solc",
    "version": "0.5.0+commit.1d4f565a.Emscripten.clang"
  },
  "schemaVersion": "3.0.0-beta.0",
  "updatedAt": "2019-03-11T23:50:45.657Z"
}