{
  "contractName": "Resolver",
  "abi": [
    {
      "constant": false,
      "inputs": [],
      "name": "renounceOwnership",
      "outputs": [],
      "payable": false,
      "stateMutability": "nonpayable",
      "type": "function"
    },
    {
      "constant": true,
      "inputs": [],
      "name": "callOnAddition",
      "outputs": [
        {
          "name": "",
          "type": "bool"
        }
      ],
      "payable": false,
      "stateMutability": "view",
      "type": "function"
    },
    {
      "constant": true,
      "inputs": [],
      "name": "snowflakeDescription",
      "outputs": [
        {
          "name": "",
          "type": "string"
        }
      ],
      "payable": false,
      "stateMutability": "view",
      "type": "function"
    },
    {
      "constant": true,
      "inputs": [],
      "name": "snowflakeName",
      "outputs": [
        {
          "name": "",
          "type": "string"
        }
      ],
      "payable": false,
      "stateMutability": "view",
      "type": "function"
    },
    {
      "constant": true,
      "inputs": [],
      "name": "owner",
      "outputs": [
        {
          "name": "",
          "type": "address"
        }
      ],
      "payable": false,
      "stateMutability": "view",
      "type": "function"
    },
    {
      "constant": true,
      "inputs": [],
      "name": "callOnRemoval",
      "outputs": [
        {
          "name": "",
          "type": "bool"
        }
      ],
      "payable": false,
      "stateMutability": "view",
      "type": "function"
    },
    {
      "constant": true,
      "inputs": [],
      "name": "isOwner",
      "outputs": [
        {
          "name": "",
          "type": "bool"
        }
      ],
      "payable": false,
      "stateMutability": "view",
      "type": "function"
    },
    {
      "constant": false,
      "inputs": [
        {
          "name": "newOwner",
          "type": "address"
        }
      ],
      "name": "transferOwnership",
      "outputs": [],
      "payable": false,
      "stateMutability": "nonpayable",
      "type": "function"
    },
    {
      "constant": true,
      "inputs": [],
      "name": "snowflakeAddress",
      "outputs": [
        {
          "name": "",
          "type": "address"
        }
      ],
      "payable": false,
      "stateMutability": "view",
      "type": "function"
    },
    {
      "inputs": [
        {
          "name": "snowflakeAddress",
          "type": "address"
        }
      ],
      "payable": false,
      "stateMutability": "nonpayable",
      "type": "constructor"
    },
    {
      "anonymous": false,
      "inputs": [
        {
          "indexed": true,
          "name": "previousOwner",
          "type": "address"
        },
        {
          "indexed": true,
          "name": "newOwner",
          "type": "address"
        }
      ],
      "name": "OwnershipTransferred",
      "type": "event"
    },
    {
      "constant": false,
      "inputs": [
        {
          "name": "snowflakeAddress",
          "type": "address"
        }
      ],
      "name": "setSnowflakeAddress",
      "outputs": [],
      "payable": false,
      "stateMutability": "nonpayable",
      "type": "function"
    },
    {
      "constant": false,
      "inputs": [
        {
          "name": "ein",
          "type": "uint256"
        },
        {
          "name": "allowance",
          "type": "uint256"
        },
        {
          "name": "",
          "type": "bytes"
        }
      ],
      "name": "onAddition",
      "outputs": [
        {
          "name": "",
          "type": "bool"
        }
      ],
      "payable": false,
      "stateMutability": "nonpayable",
      "type": "function"
    },
    {
      "constant": false,
      "inputs": [
        {
          "name": "",
          "type": "uint256"
        },
        {
          "name": "",
          "type": "bytes"
        }
      ],
      "name": "onRemoval",
      "outputs": [
        {
          "name": "",
          "type": "bool"
        }
      ],
      "payable": false,
      "stateMutability": "nonpayable",
      "type": "function"
    },
    {
      "constant": false,
      "inputs": [
        {
          "name": "einFrom",
          "type": "uint256"
        },
        {
          "name": "einTo",
          "type": "uint256"
        },
        {
          "name": "amount",
          "type": "uint256"
        }
      ],
      "name": "transferSnowflakeBalanceFromAllowAndCall",
      "outputs": [],
      "payable": false,
      "stateMutability": "nonpayable",
      "type": "function"
    },
    {
      "constant": false,
      "inputs": [
        {
          "name": "einTo",
          "type": "uint256"
        },
        {
          "name": "amount",
          "type": "uint256"
        }
      ],
      "name": "transferSnowflakeBalanceFrom",
      "outputs": [],
      "payable": false,
      "stateMutability": "nonpayable",
      "type": "function"
    },
    {
      "constant": false,
      "inputs": [
        {
          "name": "to",
          "type": "address"
        },
        {
          "name": "amount",
          "type": "uint256"
        }
      ],
      "name": "withdrawSnowflakeBalanceFrom",
      "outputs": [],
      "payable": false,
      "stateMutability": "nonpayable",
      "type": "function"
    },
    {
      "constant": false,
      "inputs": [
        {
          "name": "via",
          "type": "address"
        },
        {
          "name": "einTo",
          "type": "uint256"
        },
        {
          "name": "amount",
          "type": "uint256"
        }
      ],
      "name": "transferSnowflakeBalanceFromVia",
      "outputs": [],
      "payable": false,
      "stateMutability": "nonpayable",
      "type": "function"
    },
    {
      "constant": false,
      "inputs": [
        {
          "name": "via",
          "type": "address"
        },
        {
          "name": "to",
          "type": "address"
        },
        {
          "name": "amount",
          "type": "uint256"
        }
      ],
      "name": "withdrawSnowflakeBalanceFromVia",
      "outputs": [],
      "payable": false,
      "stateMutability": "nonpayable",
      "type": "function"
    },
    {
      "constant": false,
      "inputs": [
        {
          "name": "einTo",
          "type": "uint256"
        },
        {
          "name": "amount",
          "type": "uint256"
        }
      ],
      "name": "_transferHydroBalanceTo",
      "outputs": [],
      "payable": false,
      "stateMutability": "nonpayable",
      "type": "function"
    },
    {
      "constant": false,
      "inputs": [
        {
          "name": "to",
          "type": "address"
        },
        {
          "name": "amount",
          "type": "uint256"
        }
      ],
      "name": "_withdrawHydroBalanceTo",
      "outputs": [],
      "payable": false,
      "stateMutability": "nonpayable",
      "type": "function"
    },
    {
      "constant": false,
      "inputs": [
        {
          "name": "via",
          "type": "address"
        },
        {
          "name": "einTo",
          "type": "uint256"
        },
        {
          "name": "amount",
          "type": "uint256"
        }
      ],
      "name": "_transferHydroBalanceToVia",
      "outputs": [],
      "payable": false,
      "stateMutability": "nonpayable",
      "type": "function"
    },
    {
      "constant": false,
      "inputs": [
        {
          "name": "via",
          "type": "address"
        },
        {
          "name": "to",
          "type": "address"
        },
        {
          "name": "amount",
          "type": "uint256"
        }
      ],
      "name": "_withdrawHydroBalanceToVia",
      "outputs": [],
      "payable": false,
      "stateMutability": "nonpayable",
      "type": "function"
    }
  ],
  "bytecode": "0x60806040523480156200001157600080fd5b5060405160208062001acf833981018060405260208110156200003357600080fd5b5051604080518082018252600f81527f53616d706c65205265736f6c766572000000000000000000000000000000000060208281019190915282516060810190935260248084529192919062001aab9083013960008054600160a060020a031916331780825560405185926001928392600160a060020a039190911691907f8be0079c531659141344cd1fd0a4f28419497f9722a3daafe3b4186f6b6457e0908290a38451620000eb906001906020880190620002da565b50835162000101906002906020870190620002da565b5062000116836401000000006200018f810204565b6003805491151575010000000000000000000000000000000000000000000260a860020a60ff0219931515740100000000000000000000000000000000000000000260a060020a60ff02199093169290921792909216179055506200018891508290506401000000006200018f810204565b506200037c565b620001a264010000000062000289810204565b620001ac57600080fd5b620001c581640100000000620015f46200029b82021704565b60048054600160a060020a031916600160a060020a0383811691909117808355604080517fa759ee6f0000000000000000000000000000000000000000000000000000000081529051919092169263a759ee6f928082019260209290918290030181600087803b1580156200023957600080fd5b505af11580156200024e573d6000803e3d6000fd5b505050506040513d60208110156200026557600080fd5b505160058054600160a060020a031916600160a060020a0390921691909117905550565b600054600160a060020a031633145b90565b620002ae64010000000062000289810204565b620002b857600080fd5b60038054600160a060020a031916600160a060020a0392909216919091179055565b828054600181600116156101000203166002900490600052602060002090601f016020900481019282601f106200031d57805160ff19168380011785556200034d565b828001600101855582156200034d579182015b828111156200034d57825182559160200191906001019062000330565b506200035b9291506200035f565b5090565b6200029891905b808211156200035b576000815560010162000366565b61171f806200038c6000396000f3fe608060405234801561001057600080fd5b506004361061013b5760003560e060020a900480638f06492d116100bc578063c839bc0b11610080578063c839bc0b1461047d578063c979b05a146104b3578063d3a65823146104d9578063eab100ad1461050f578063f2fde38b1461053b578063f9f451b8146105615761013b565b80638f06492d146102e55780638f32d59b146102ed57806390bfaf40146102f55780639182621a146103a7578063afc3489b146104545761013b565b8063717902511161010357806371790251146101ee57806376acf1b61461020a57806378c9651b1461028757806388cdab94146102b95780638da5cb5b146102c15761013b565b806316ff45da146101405780632b2b4b9a146101655780633abdfb251461018857806352be5059146101ba578063715018a6146101e6575b600080fd5b6101636004803603604081101561015657600080fd5b5080359060200135610569565b005b6101636004803603604081101561017b57600080fd5b5080359060200135610588565b6101636004803603606081101561019e57600080fd5b50600160a060020a038135169060208101359060400135610676565b610163600480360360408110156101d057600080fd5b50600160a060020a038135169060200135610780565b61016361079b565b6101f6610803565b604080519115158252519081900360200190f35b610212610824565b6040805160208082528351818301528351919283929083019185019080838360005b8381101561024c578181015183820152602001610234565b50505050905090810190601f1680156102795780820380516001836020036101000a031916815260200191505b509250505060405180910390f35b6101636004803603606081101561029d57600080fd5b50600160a060020a0381351690602081013590604001356108af565b6102126108e0565b6102c961093a565b60408051600160a060020a039092168252519081900360200190f35b6101f6610949565b6101f661096b565b6101f66004803603606081101561030b57600080fd5b81359160208101359181019060608101604082013564010000000081111561033257600080fd5b82018360208201111561034457600080fd5b8035906020019184600183028401116401000000008311171561036657600080fd5b91908080601f01602080910402602001604051908101604052809392919081815260200183838082843760009201919091525092955061097c945050505050565b6101f6600480360360408110156103bd57600080fd5b813591908101906040810160208201356401000000008111156103df57600080fd5b8201836020820111156103f157600080fd5b8035906020019184600183028401116401000000008311171561041357600080fd5b91908080601f016020809104026020016040519081016040528093929190818152602001838380828437600092019190915250929550610aaa945050505050565b6101636004803603606081101561046a57600080fd5b5080359060208101359060400135610aff565b6101636004803603606081101561049357600080fd5b50600160a060020a03813581169160208101359091169060400135610c11565b610163600480360360208110156104c957600080fd5b5035600160a060020a0316610c3d565b610163600480360360608110156104ef57600080fd5b50600160a060020a03813581169160208101359091169060400135610d32565b6101636004803603604081101561052557600080fd5b50600160a060020a038135169060200135610e20565b6101636004803603602081101561055157600080fd5b5035600160a060020a0316610efa565b6102c9610f17565b61057161096b565b61057a57600080fd5b6105848282610f26565b5050565b600480546005546040805160e060020a6305c62c2f028152339481019490945251600160a060020a03928316936309164f9c93909216916305c62c2f916024808301926020929190829003018186803b1580156105e457600080fd5b505afa1580156105f8573d6000803e3d6000fd5b505050506040513d602081101561060e57600080fd5b50516040805160e060020a63ffffffff85160281526004810192909252602482018690526044820185905251606480830192600092919082900301818387803b15801561065a57600080fd5b505af115801561066e573d6000803e3d6000fd5b505050505050565b600480546005546040805160e060020a6305c62c2f028152339481019490945251600160a060020a0392831693639cd5421093909216916305c62c2f916024808301926020929190829003018186803b1580156106d257600080fd5b505afa1580156106e6573d6000803e3d6000fd5b505050506040513d60208110156106fc57600080fd5b50516040805160e060020a63ffffffff85160281526004810192909252600160a060020a0387166024830152604482018690526064820185905260a06084830152600060a48301819052905160e48084019382900301818387803b15801561076357600080fd5b505af1158015610777573d6000803e3d6000fd5b50505050505050565b61078861096b565b61079157600080fd5b6105848282611115565b6107a361096b565b6107ac57600080fd5b60008054604051600160a060020a03909116907f8be0079c531659141344cd1fd0a4f28419497f9722a3daafe3b4186f6b6457e0908390a36000805473ffffffffffffffffffffffffffffffffffffffff19169055565b60035474010000000000000000000000000000000000000000900460ff1681565b6002805460408051602060018416156101000260001901909316849004601f810184900484028201840190925281815292918301828280156108a75780601f1061087c576101008083540402835291602001916108a7565b820191906000526020600020905b81548152906001019060200180831161088a57829003601f168201915b505050505081565b6108b761096b565b6108c057600080fd5b6108db83838360405180602001604052806000815250611279565b505050565b60018054604080516020600284861615610100026000190190941693909304601f810184900484028201840190925281815292918301828280156108a75780601f1061087c576101008083540402835291602001916108a7565b600054600160a060020a031690565b6003547501000000000000000000000000000000000000000000900460ff1681565b600054600160a060020a0316331490565b600354600090600160a060020a031633146109cb5760405160e560020a62461bcd0281526004018080602001828103825260218152602001806116d36021913960400191505060405180910390fd5b671bc16d674ec80000831015610a155760405160e560020a62461bcd0281526004018080602001828103825260238152602001806116b06023913960400191505060405180910390fd5b60048054604080517fedda781500000000000000000000000000000000000000000000000000000000815292830187905230602484015260028604604484015251600160a060020a039091169163edda781591606480830192600092919082900301818387803b158015610a8857600080fd5b505af1158015610a9c573d6000803e3d6000fd5b506001979650505050505050565b600354600090600160a060020a03163314610af95760405160e560020a62461bcd0281526004018080602001828103825260218152602001806116d36021913960400191505060405180910390fd5b92915050565b600554604080517f53a9698a000000000000000000000000000000000000000000000000000000008152600481018690523360248201529051600160a060020a03909216916353a9698a91604480820192602092909190829003018186803b158015610b6a57600080fd5b505afa158015610b7e573d6000803e3d6000fd5b505050506040513d6020811015610b9457600080fd5b5051610b9f57600080fd5b60048054604080517f09164f9c000000000000000000000000000000000000000000000000000000008152928301869052602483018590526044830184905251600160a060020a03909116916309164f9c91606480830192600092919082900301818387803b15801561076357600080fd5b610c1961096b565b610c2257600080fd5b6108db838383604051806020016040528060008152506114fb565b610c4561096b565b610c4e57600080fd5b610c57816115f4565b6004805473ffffffffffffffffffffffffffffffffffffffff1916600160a060020a0383811691909117808355604080517fa759ee6f0000000000000000000000000000000000000000000000000000000081529051919092169263a759ee6f928082019260209290918290030181600087803b158015610cd757600080fd5b505af1158015610ceb573d6000803e3d6000fd5b505050506040513d6020811015610d0157600080fd5b50516005805473ffffffffffffffffffffffffffffffffffffffff1916600160a060020a0390921691909117905550565b600480546005546040805160e060020a6305c62c2f028152339481019490945251600160a060020a0392831693633e63dcc193909216916305c62c2f916024808301926020929190829003018186803b158015610d8e57600080fd5b505afa158015610da2573d6000803e3d6000fd5b505050506040513d6020811015610db857600080fd5b50516040805160e060020a63ffffffff85160281526004810192909252600160a060020a038088166024840152861660448301526064820185905260a06084830152600060a48301819052905160e48084019382900301818387803b15801561076357600080fd5b600480546005546040805160e060020a6305c62c2f028152339481019490945251600160a060020a039283169363edda781593909216916305c62c2f916024808301926020929190829003018186803b158015610e7c57600080fd5b505afa158015610e90573d6000803e3d6000fd5b505050506040513d6020811015610ea657600080fd5b50516040805160e060020a63ffffffff85160281526004810192909252600160a060020a03861660248301526044820185905251606480830192600092919082900301818387803b15801561065a57600080fd5b610f0261096b565b610f0b57600080fd5b610f1481611634565b50565b600354600160a060020a031681565b6003546040805160e060020a6375d7e4bd0281529051600092600160a060020a0316916375d7e4bd91600480830192602092919082900301818787803b158015610f6f57600080fd5b505af1158015610f83573d6000803e3d6000fd5b505050506040513d6020811015610f9957600080fd5b5051600354604080516020818101889052825180830382018152828401938490527fcae9ca5100000000000000000000000000000000000000000000000000000000909352600160a060020a039384166044830181815260648401899052606060848501908152855160a486015285519798509588169663cae9ca519692958a95909492939260c4909101919085019080838360005b8381101561104757818101518382015260200161102f565b50505050905090810190601f1680156110745780820380516001836020036101000a031916815260200191505b50945050505050602060405180830381600087803b15801561109557600080fd5b505af11580156110a9573d6000803e3d6000fd5b505050506040513d60208110156110bf57600080fd5b50516108db576040805160e560020a62461bcd02815260206004820152601c60248201527f556e7375636365737366756c20617070726f7665416e6443616c6c2e00000000604482015290519081900360640190fd5b6003546040805160e060020a6375d7e4bd0281529051600092600160a060020a0316916375d7e4bd91600480830192602092919082900301818787803b15801561115e57600080fd5b505af1158015611172573d6000803e3d6000fd5b505050506040513d602081101561118857600080fd5b5051604080517fa9059cbb000000000000000000000000000000000000000000000000000000008152600160a060020a0386811660048301526024820186905291519293509083169163a9059cbb916044808201926020929091908290030181600087803b1580156111f957600080fd5b505af115801561120d573d6000803e3d6000fd5b505050506040513d602081101561122357600080fd5b50516108db576040805160e560020a62461bcd02815260206004820152601660248201527f556e7375636365737366756c207472616e736665722e00000000000000000000604482015290519081900360640190fd5b6003546040805160e060020a6375d7e4bd0281529051600092600160a060020a0316916375d7e4bd91600480830192602092919082900301818787803b1580156112c257600080fd5b505af11580156112d6573d6000803e3d6000fd5b505050506040513d60208110156112ec57600080fd5b5051600354604080516001602082810182815230948401859052600160a060020a038c81166060860152608085018c905260a08086019081528a5160c08701528a51989950818a169863cae9ca5198909216968c9690948f948f948e949193919260e09092019185019080838360005b8381101561137457818101518382015260200161135c565b50505050905090810190601f1680156113a15780820380516001836020036101000a031916815260200191505b5096505050505050506040516020818303038152906040526040518463ffffffff1660e060020a0281526004018084600160a060020a0316600160a060020a0316815260200183815260200180602001828103825283818151815260200191508051906020019080838360005b8381101561142657818101518382015260200161140e565b50505050905090810190601f1680156114535780820380516001836020036101000a031916815260200191505b50945050505050602060405180830381600087803b15801561147457600080fd5b505af1158015611488573d6000803e3d6000fd5b505050506040513d602081101561149e57600080fd5b50516114f4576040805160e560020a62461bcd02815260206004820152601c60248201527f556e7375636365737366756c20617070726f7665416e6443616c6c2e00000000604482015290519081900360640190fd5b5050505050565b6003546040805160e060020a6375d7e4bd0281529051600092600160a060020a0316916375d7e4bd91600480830192602092919082900301818787803b15801561154457600080fd5b505af1158015611558573d6000803e3d6000fd5b505050506040513d602081101561156e57600080fd5b5051600354604080516000602080830182815230948401859052600160a060020a038c811660608601528b8116608086015260a08086019081528a5160c08701528a51989950818a169863cae9ca519892909216968c9690948f948f948e949193919260e0909201918501908083838c831561137457818101518382015260200161135c565b6115fc61096b565b61160557600080fd5b6003805473ffffffffffffffffffffffffffffffffffffffff1916600160a060020a0392909216919091179055565b600160a060020a03811661164757600080fd5b60008054604051600160a060020a03808516939216917f8be0079c531659141344cd1fd0a4f28419497f9722a3daafe3b4186f6b6457e091a36000805473ffffffffffffffffffffffffffffffffffffffff1916600160a060020a039290921691909117905556fe4d7573742073657420616e20616c6c6f77616e6365206f66203e3d3220485944524f2e446964206e6f74206f726967696e6174652066726f6d20536e6f77666c616b652ea165627a7a72305820a47d46998c11a31c9d3b2953dd4ad3167907c86d482326ac39a726fa37e7e26000295468697320697320612073616d706c6520536e6f77666c616b65207265736f6c7665722e",
  "source": "pragma solidity ^0.5.0;\n\nimport \"../SnowflakeResolver.sol\";\nimport \"../interfaces/IdentityRegistryInterface.sol\";\nimport \"../interfaces/SnowflakeInterface.sol\";\n\n\ncontract Resolver is SnowflakeResolver {\n    SnowflakeInterface private snowflake;\n    IdentityRegistryInterface private identityRegistry;\n\n    constructor (address snowflakeAddress)\n        SnowflakeResolver(\"Sample Resolver\", \"This is a sample Snowflake resolver.\", snowflakeAddress, true, true)\n        public\n    {\n        setSnowflakeAddress(snowflakeAddress);\n    }\n\n    // set the snowflake address, and hydro token + identity registry contract wrappers\n    function setSnowflakeAddress(address snowflakeAddress) public onlyOwner() {\n        super.setSnowflakeAddress(snowflakeAddress);\n        snowflake = SnowflakeInterface(snowflakeAddress);\n        identityRegistry = IdentityRegistryInterface(snowflake.identityRegistryAddress());\n    }\n\n    // implement signup function\n    function onAddition(uint ein, uint allowance, bytes memory) public senderIsSnowflake() returns (bool) {\n        require(allowance >= 2000000000000000000, \"Must set an allowance of >=2 HYDRO.\");\n        snowflake.withdrawSnowflakeBalanceFrom(ein, address(this), allowance / 2);\n        return true;\n    }\n\n    // implement removal function\n    function onRemoval(uint, bytes memory) public senderIsSnowflake() returns (bool) {}\n\n    // example function to test allowAndCall\n    function transferSnowflakeBalanceFromAllowAndCall(uint einFrom, uint einTo, uint amount) public {\n        require(identityRegistry.isProviderFor(einFrom, msg.sender));\n        snowflake.transferSnowflakeBalanceFrom(einFrom, einTo, amount);\n    }\n\n    // example functions to test *From token functions\n    function transferSnowflakeBalanceFrom(uint einTo, uint amount) public {\n        snowflake.transferSnowflakeBalanceFrom(identityRegistry.getEIN(msg.sender), einTo, amount);\n    }\n\n    function withdrawSnowflakeBalanceFrom(address to, uint amount) public {\n        snowflake.withdrawSnowflakeBalanceFrom(identityRegistry.getEIN(msg.sender), to, amount);\n    }\n\n    function transferSnowflakeBalanceFromVia(address via, uint einTo, uint amount) public {\n        snowflake.transferSnowflakeBalanceFromVia(identityRegistry.getEIN(msg.sender), via, einTo, amount, hex\"\");\n    }\n\n    function withdrawSnowflakeBalanceFromVia(address via, address to, uint amount) public {\n        snowflake.withdrawSnowflakeBalanceFromVia(identityRegistry.getEIN(msg.sender), via, to, amount, hex\"\");\n    }\n\n    // example functions to test *To token functions\n    function _transferHydroBalanceTo(uint einTo, uint amount) public onlyOwner {\n        transferHydroBalanceTo(einTo, amount);\n    }\n\n    function _withdrawHydroBalanceTo(address to, uint amount) public onlyOwner {\n        withdrawHydroBalanceTo(to, amount);\n    }\n\n    function _transferHydroBalanceToVia(address via, uint einTo, uint amount) public onlyOwner {\n        transferHydroBalanceToVia(via, einTo, amount, hex\"\");\n    }\n\n    function _withdrawHydroBalanceToVia(address via, address to, uint amount) public onlyOwner {\n        withdrawHydroBalanceToVia(via, to, amount, hex\"\");\n    }\n}\n",
  "sourcePath": "/home/luiserebii/github/HydroSnowflake-Marketplace-Coupons/contracts/samples/Resolver.sol",
  "compiler": {
    "name": "solc",
    "version": "0.5.7+commit.6da8b019.Emscripten.clang"
  },
  "schemaVersion": "3.0.6",
  "updatedAt": "2019-04-16T02:29:42.054Z",
  "devdoc": {
    "methods": {
      "isOwner()": {
        "return": "true if `msg.sender` is the owner of the contract."
      },
      "owner()": {
        "return": "the address of the owner."
      },
      "renounceOwnership()": {
        "details": "Allows the current owner to relinquish control of the contract."
      },
      "transferOwnership(address)": {
        "details": "Allows the current owner to transfer control of the contract to a newOwner.",
        "params": {
          "newOwner": "The address to transfer ownership to."
        }
      }
    }
  },
  "userdoc": {
    "methods": {
      "renounceOwnership()": {
        "notice": "Renouncing to ownership will leave the contract without an owner. It will not be possible to call the functions with the `onlyOwner` modifier anymore."
      }
    }
  }
}