{
  "contractName": "ReturnPolicies",
  "abi": [
    {
      "constant": true,
      "inputs": [
        {
          "name": "",
          "type": "uint256"
        }
      ],
      "name": "returnPolicies",
      "outputs": [
        {
          "name": "returnsAccepted",
          "type": "bool"
        },
        {
          "name": "timeLimit",
          "type": "uint256"
        }
      ],
      "payable": false,
      "stateMutability": "view",
      "type": "function"
    },
    {
      "constant": true,
      "inputs": [],
      "name": "nextReturnPoliciesID",
      "outputs": [
        {
          "name": "",
          "type": "uint256"
        }
      ],
      "payable": false,
      "stateMutability": "view",
      "type": "function"
    },
    {
      "constant": true,
      "inputs": [
        {
          "name": "id",
          "type": "uint256"
        }
      ],
      "name": "getReturnPolicy",
      "outputs": [
        {
          "name": "returnsAccepted",
          "type": "bool"
        },
        {
          "name": "timeLimit",
          "type": "uint256"
        }
      ],
      "payable": false,
      "stateMutability": "view",
      "type": "function"
    }
  ],
  "bytecode": "0x608060405234801561001057600080fd5b50610176806100206000396000f3fe608060405234801561001057600080fd5b506004361061005d577c01000000000000000000000000000000000000000000000000000000006000350463798f1be1811461006257806380168e811461009a578063fd4230e6146100b4575b600080fd5b61007f6004803603602081101561007857600080fd5b50356100d1565b60408051921515835260208301919091528051918290030190f35b6100a26100f0565b60408051918252519081900360200190f35b61007f600480360360208110156100ca57600080fd5b50356100f6565b6001602081905260009182526040909120805491015460ff9091169082565b60005481565b600080610101610133565b5050506000908152600160208181526040928390208351808501909452805460ff161515808552920154920182905291565b60408051808201909152600080825260208201529056fea165627a7a72305820dfa4481345344899489db68a2fbc57b367a28b91298cdf7308af336ee1558a340029",
  "source": "pragma solidity ^0.5.0;\n\n\ncontract ReturnPolicies {\n\n\n    //ID    \n    uint public nextReturnPoliciesID;\n\n    //Struct\n    mapping(uint => ReturnPolicy) public returnPolicies;\n\n/*    \n    constructor() public {\n        _constructReturnPolicies();\n    }\n*/\n    function _constructReturnPolicies() internal {\n        nextReturnPoliciesID = 1;\n    }\n\n\n    struct ReturnPolicy {\n        bool returnsAccepted;\n        uint timeLimit;\n    }\n\n\n    function getReturnPolicy(uint id) public view returns (bool returnsAccepted, uint timeLimit){\n\n        ReturnPolicy memory rp = returnPolicies[id];\n        return (rp.returnsAccepted, rp.timeLimit);\n    }\n\n\n/*\n==============================\nReturnPolicy add/update/delete\n==============================\n*/\n\n    function _addReturnPolicy(bool returnsAccepted, uint timeLimit) internal returns (bool) {\n        //Add to returnPolicies\n        returnPolicies[nextReturnPoliciesID] = ReturnPolicy(returnsAccepted, timeLimit);\n        //Advance return policy ID by one\n        nextReturnPoliciesID++;\n\n        return true;\n    }\n\n    function _updateReturnPolicy(uint id, bool returnsAccepted, uint timeLimit) internal returns (bool) {\n        //Update returnPolicies by ID\n        returnPolicies[id] = ReturnPolicy(returnsAccepted, timeLimit);\n        return true;\n    }\n\n    function _deleteReturnPolicy(uint id) internal returns (bool) {\n        //Delete Return Policy identified by ID\n        delete returnPolicies[id];\n        return true;\n    }\n\n\n}\n",
  "sourcePath": "/home/luiserebii/github/HydroSnowflake-Marketplace-Coupons/contracts/marketplace/features/ReturnPolicies.sol",
  "compiler": {
    "name": "solc",
    "version": "0.5.7+commit.6da8b019.Emscripten.clang"
  },
  "schemaVersion": "3.0.6",
  "updatedAt": "2019-04-16T02:29:41.853Z",
  "devdoc": {
    "methods": {}
  },
  "userdoc": {
    "methods": {}
  }
}