{
  "contractName": "SignatureVerifier",
  "abi": [
    {
      "constant": true,
      "inputs": [
        {
          "name": "_address",
          "type": "address"
        },
        {
          "name": "messageHash",
          "type": "bytes32"
        },
        {
          "name": "v",
          "type": "uint8"
        },
        {
          "name": "r",
          "type": "bytes32"
        },
        {
          "name": "s",
          "type": "bytes32"
        }
      ],
      "name": "isSigned",
      "outputs": [
        {
          "name": "",
          "type": "bool"
        }
      ],
      "payable": false,
      "stateMutability": "pure",
      "type": "function"
    }
  ],
  "bytecode": "0x608060405234801561001057600080fd5b50610269806100206000396000f3fe6080604052600436106100405763ffffffff7c01000000000000000000000000000000000000000000000000000000006000350416638677ebe88114610045575b600080fd5b34801561005157600080fd5b506100a0600480360360a081101561006857600080fd5b5073ffffffffffffffffffffffffffffffffffffffff8135169060208101359060ff60408201351690606081013590608001356100b4565b604080519115158252519081900360200190f35b60006100c386868686866100e0565b806100d657506100d68686868686610182565b9695505050505050565b60008573ffffffffffffffffffffffffffffffffffffffff1660018686868660405160008152602001604052604051808581526020018460ff1660ff1681526020018381526020018281526020019450505050506020604051602081039080840390855afa158015610156573d6000803e3d6000fd5b5050506020604051035173ffffffffffffffffffffffffffffffffffffffff1614905095945050505050565b604080518082018252601c8082527f19457468657265756d205369676e6564204d6573736167653a0a33320000000060208084019182529351600094610232938b9386938c9301918291908083835b602083106101f05780518252601f1990920191602091820191016101d1565b51815160209384036101000a600019018019909216911617905292019384525060408051808503815293820190528251920191909120915088905087876100e0565b97965050505050505056fea165627a7a7230582038ef2a8687dc82eaf4699bccec82cb01a03c8ed731b8bc1c9456f6df0c50adb50029",
  "source": "pragma solidity ^0.5.0;\n\n/// @title Provides helper functions to determine the validity of passed signatures.\n/// @author Noah Zinsmeister\n/// @dev Supports both prefixed and un-prefixed signatures.\ncontract SignatureVerifier {\n    /// @notice Determines whether the passed signature of `messageHash` was made by the private key of `_address`.\n    /// @param _address The address that may or may not have signed the passed messageHash.\n    /// @param messageHash The messageHash that may or may not have been signed.\n    /// @param v The v component of the signature.\n    /// @param r The r component of the signature.\n    /// @param s The s component of the signature.\n    /// @return true if the signature can be verified, false otherwise.\n    function isSigned(address _address, bytes32 messageHash, uint8 v, bytes32 r, bytes32 s) public pure returns (bool) {\n        return _isSigned(_address, messageHash, v, r, s) || _isSignedPrefixed(_address, messageHash, v, r, s);\n    }\n\n    /// @dev Checks unprefixed signatures.\n    function _isSigned(address _address, bytes32 messageHash, uint8 v, bytes32 r, bytes32 s)\n        internal pure returns (bool)\n    {\n        return ecrecover(messageHash, v, r, s) == _address;\n    }\n\n    /// @dev Checks prefixed signatures.\n    function _isSignedPrefixed(address _address, bytes32 messageHash, uint8 v, bytes32 r, bytes32 s)\n        internal pure returns (bool)\n    {\n        bytes memory prefix = \"\\x19Ethereum Signed Message:\\n32\";\n        return _isSigned(_address, keccak256(abi.encodePacked(prefix, messageHash)), v, r, s);\n    }\n}\n",
  "sourcePath": "/home/luiserebii/hydro_bounty_unofficial/contracts/_testing/SignatureVerifier.sol",
  "compiler": {
    "name": "solc",
    "version": "0.5.0+commit.1d4f565a.Emscripten.clang"
  },
  "schemaVersion": "3.0.0-beta.0",
  "updatedAt": "2019-03-11T23:50:45.664Z"
}