{
  "contractName": "SignatureVerifier",
  "abi": [
    {
      "constant": true,
      "inputs": [
        {
          "name": "_address",
          "type": "address"
        },
        {
          "name": "messageHash",
          "type": "bytes32"
        },
        {
          "name": "v",
          "type": "uint8"
        },
        {
          "name": "r",
          "type": "bytes32"
        },
        {
          "name": "s",
          "type": "bytes32"
        }
      ],
      "name": "isSigned",
      "outputs": [
        {
          "name": "",
          "type": "bool"
        }
      ],
      "payable": false,
      "stateMutability": "pure",
      "type": "function"
    }
  ],
  "bytecode": "0x608060405234801561001057600080fd5b50610269806100206000396000f3fe608060405234801561001057600080fd5b5060043610610047577c010000000000000000000000000000000000000000000000000000000060003504638677ebe8811461004c575b600080fd5b61009a600480360360a081101561006257600080fd5b5073ffffffffffffffffffffffffffffffffffffffff8135169060208101359060ff60408201351690606081013590608001356100ae565b604080519115158252519081900360200190f35b60006100bd86868686866100da565b806100d057506100d0868686868661017c565b9695505050505050565b60008573ffffffffffffffffffffffffffffffffffffffff1660018686868660405160008152602001604052604051808581526020018460ff1660ff1681526020018381526020018281526020019450505050506020604051602081039080840390855afa158015610150573d6000803e3d6000fd5b5050506020604051035173ffffffffffffffffffffffffffffffffffffffff1614905095945050505050565b600060606040518060400160405280601c81526020017f19457468657265756d205369676e6564204d6573736167653a0a33320000000081525090506102328782886040516020018083805190602001908083835b602083106101f05780518252601f1990920191602091820191016101d1565b51815160209384036101000a600019018019909216911617905292019384525060408051808503815293820190528251920191909120915088905087876100da565b97965050505050505056fea165627a7a72305820891e8909bc3f966cfed94ffe0287cfd23a09fa892665cdcaae2d7f98f801cc530029",
  "source": "pragma solidity ^0.5.0;\n\n/// @title Provides helper functions to determine the validity of passed signatures.\n/// @author Noah Zinsmeister\n/// @dev Supports both prefixed and un-prefixed signatures.\ncontract SignatureVerifier {\n    /// @notice Determines whether the passed signature of `messageHash` was made by the private key of `_address`.\n    /// @param _address The address that may or may not have signed the passed messageHash.\n    /// @param messageHash The messageHash that may or may not have been signed.\n    /// @param v The v component of the signature.\n    /// @param r The r component of the signature.\n    /// @param s The s component of the signature.\n    /// @return true if the signature can be verified, false otherwise.\n    function isSigned(address _address, bytes32 messageHash, uint8 v, bytes32 r, bytes32 s) public pure returns (bool) {\n        return _isSigned(_address, messageHash, v, r, s) || _isSignedPrefixed(_address, messageHash, v, r, s);\n    }\n\n    /// @dev Checks unprefixed signatures.\n    function _isSigned(address _address, bytes32 messageHash, uint8 v, bytes32 r, bytes32 s)\n        internal pure returns (bool)\n    {\n        return ecrecover(messageHash, v, r, s) == _address;\n    }\n\n    /// @dev Checks prefixed signatures.\n    function _isSignedPrefixed(address _address, bytes32 messageHash, uint8 v, bytes32 r, bytes32 s)\n        internal pure returns (bool)\n    {\n        bytes memory prefix = \"\\x19Ethereum Signed Message:\\n32\";\n        return _isSigned(_address, keccak256(abi.encodePacked(prefix, messageHash)), v, r, s);\n    }\n}\n",
  "sourcePath": "/home/luiserebii/github/HydroSnowflake-Marketplace-Coupons/contracts/_testing/SignatureVerifier.sol",
  "compiler": {
    "name": "solc",
    "version": "0.5.6+commit.b259423e.Emscripten.clang"
  },
  "schemaVersion": "3.0.6",
  "updatedAt": "2019-04-12T01:36:38.077Z",
  "devdoc": {
    "author": "Noah Zinsmeister",
    "details": "Supports both prefixed and un-prefixed signatures.",
    "methods": {
      "isSigned(address,bytes32,uint8,bytes32,bytes32)": {
        "params": {
          "_address": "The address that may or may not have signed the passed messageHash.",
          "messageHash": "The messageHash that may or may not have been signed.",
          "r": "The r component of the signature.",
          "s": "The s component of the signature.",
          "v": "The v component of the signature."
        },
        "return": "true if the signature can be verified, false otherwise."
      }
    },
    "title": "Provides helper functions to determine the validity of passed signatures."
  },
  "userdoc": {
    "methods": {
      "isSigned(address,bytes32,uint8,bytes32,bytes32)": {
        "notice": "Determines whether the passed signature of `messageHash` was made by the private key of `_address`."
      }
    }
  }
}