{
  "contractName": "Snowflake",
  "abi": [
    {
      "constant": true,
      "inputs": [
        {
          "name": "",
          "type": "uint256"
        }
      ],
      "name": "signatureNonce",
      "outputs": [
        {
          "name": "",
          "type": "uint256"
        }
      ],
      "payable": false,
      "stateMutability": "view",
      "type": "function",
      "signature": "0x12f1dbc8"
    },
    {
      "constant": true,
      "inputs": [],
      "name": "clientRaindropAddress",
      "outputs": [
        {
          "name": "",
          "type": "address"
        }
      ],
      "payable": false,
      "stateMutability": "view",
      "type": "function",
      "signature": "0x1dfc99c4"
    },
    {
      "constant": true,
      "inputs": [],
      "name": "signatureTimeout",
      "outputs": [
        {
          "name": "",
          "type": "uint256"
        }
      ],
      "payable": false,
      "stateMutability": "view",
      "type": "function",
      "signature": "0x5437b67c"
    },
    {
      "constant": false,
      "inputs": [],
      "name": "renounceOwnership",
      "outputs": [],
      "payable": false,
      "stateMutability": "nonpayable",
      "type": "function",
      "signature": "0x715018a6"
    },
    {
      "constant": true,
      "inputs": [],
      "name": "hydroTokenAddress",
      "outputs": [
        {
          "name": "",
          "type": "address"
        }
      ],
      "payable": false,
      "stateMutability": "view",
      "type": "function",
      "signature": "0x75d7e4bd"
    },
    {
      "constant": true,
      "inputs": [],
      "name": "owner",
      "outputs": [
        {
          "name": "",
          "type": "address"
        }
      ],
      "payable": false,
      "stateMutability": "view",
      "type": "function",
      "signature": "0x8da5cb5b"
    },
    {
      "constant": true,
      "inputs": [],
      "name": "isOwner",
      "outputs": [
        {
          "name": "",
          "type": "bool"
        }
      ],
      "payable": false,
      "stateMutability": "view",
      "type": "function",
      "signature": "0x8f32d59b"
    },
    {
      "constant": true,
      "inputs": [],
      "name": "identityRegistryAddress",
      "outputs": [
        {
          "name": "",
          "type": "address"
        }
      ],
      "payable": false,
      "stateMutability": "view",
      "type": "function",
      "signature": "0xa759ee6f"
    },
    {
      "constant": true,
      "inputs": [
        {
          "name": "",
          "type": "uint256"
        }
      ],
      "name": "deposits",
      "outputs": [
        {
          "name": "",
          "type": "uint256"
        }
      ],
      "payable": false,
      "stateMutability": "view",
      "type": "function",
      "signature": "0xb02c43d0"
    },
    {
      "constant": true,
      "inputs": [
        {
          "name": "",
          "type": "uint256"
        },
        {
          "name": "",
          "type": "address"
        }
      ],
      "name": "resolverAllowances",
      "outputs": [
        {
          "name": "",
          "type": "uint256"
        }
      ],
      "payable": false,
      "stateMutability": "view",
      "type": "function",
      "signature": "0xef11f9da"
    },
    {
      "constant": false,
      "inputs": [
        {
          "name": "newOwner",
          "type": "address"
        }
      ],
      "name": "transferOwnership",
      "outputs": [],
      "payable": false,
      "stateMutability": "nonpayable",
      "type": "function",
      "signature": "0xf2fde38b"
    },
    {
      "inputs": [
        {
          "name": "_identityRegistryAddress",
          "type": "address"
        },
        {
          "name": "_hydroTokenAddress",
          "type": "address"
        }
      ],
      "payable": false,
      "stateMutability": "nonpayable",
      "type": "constructor"
    },
    {
      "anonymous": false,
      "inputs": [
        {
          "indexed": true,
          "name": "ein",
          "type": "uint256"
        },
        {
          "indexed": false,
          "name": "newProviders",
          "type": "address[]"
        },
        {
          "indexed": false,
          "name": "oldProviders",
          "type": "address[]"
        },
        {
          "indexed": false,
          "name": "approvingAddress",
          "type": "address"
        }
      ],
      "name": "SnowflakeProvidersUpgraded",
      "type": "event",
      "signature": "0x9395986444296878f4ccc8a3e3a2d2d64a2988fb3cf2fd45fd7abe7449025626"
    },
    {
      "anonymous": false,
      "inputs": [
        {
          "indexed": true,
          "name": "ein",
          "type": "uint256"
        },
        {
          "indexed": true,
          "name": "resolver",
          "type": "address"
        },
        {
          "indexed": false,
          "name": "withdrawAllowance",
          "type": "uint256"
        }
      ],
      "name": "SnowflakeResolverAdded",
      "type": "event",
      "signature": "0xa5a2dcb81990508894586bccd9070af644f5b33c720292251377ad26fc26b880"
    },
    {
      "anonymous": false,
      "inputs": [
        {
          "indexed": true,
          "name": "ein",
          "type": "uint256"
        },
        {
          "indexed": true,
          "name": "resolver",
          "type": "address"
        },
        {
          "indexed": false,
          "name": "withdrawAllowance",
          "type": "uint256"
        }
      ],
      "name": "SnowflakeResolverAllowanceChanged",
      "type": "event",
      "signature": "0xfb55528a8074c988c79fef57f3a73aebf780773d5152d785bbaf700c9e3532d3"
    },
    {
      "anonymous": false,
      "inputs": [
        {
          "indexed": true,
          "name": "ein",
          "type": "uint256"
        },
        {
          "indexed": true,
          "name": "resolver",
          "type": "address"
        }
      ],
      "name": "SnowflakeResolverRemoved",
      "type": "event",
      "signature": "0xd1b5265e776cc74b7c19e1f79f0eb431189105741c07f3bb870f17ce3ba4aed8"
    },
    {
      "anonymous": false,
      "inputs": [
        {
          "indexed": true,
          "name": "from",
          "type": "address"
        },
        {
          "indexed": true,
          "name": "einTo",
          "type": "uint256"
        },
        {
          "indexed": false,
          "name": "amount",
          "type": "uint256"
        }
      ],
      "name": "SnowflakeDeposit",
      "type": "event",
      "signature": "0xc03bd73422f0f423555852c3018d2296bec6c3fb71372de56d3ce8f5984d6812"
    },
    {
      "anonymous": false,
      "inputs": [
        {
          "indexed": true,
          "name": "einFrom",
          "type": "uint256"
        },
        {
          "indexed": true,
          "name": "einTo",
          "type": "uint256"
        },
        {
          "indexed": false,
          "name": "amount",
          "type": "uint256"
        }
      ],
      "name": "SnowflakeTransfer",
      "type": "event",
      "signature": "0xfc1e758cdfd0000672c8f8e0557fdae32b207ab6040726e3e91a363ac1ea234a"
    },
    {
      "anonymous": false,
      "inputs": [
        {
          "indexed": true,
          "name": "einFrom",
          "type": "uint256"
        },
        {
          "indexed": true,
          "name": "to",
          "type": "address"
        },
        {
          "indexed": false,
          "name": "amount",
          "type": "uint256"
        }
      ],
      "name": "SnowflakeWithdraw",
      "type": "event",
      "signature": "0xaaa7de357803e36044e97c4f0d438a72b371380bff06b41e9b921b8f61cb489e"
    },
    {
      "anonymous": false,
      "inputs": [
        {
          "indexed": true,
          "name": "resolverFrom",
          "type": "address"
        }
      ],
      "name": "SnowflakeTransferFrom",
      "type": "event",
      "signature": "0x3bd0280dc67bfc5c83998b5eddebb84cb266dd5fea7c8552e43f1c55110e9667"
    },
    {
      "anonymous": false,
      "inputs": [
        {
          "indexed": true,
          "name": "resolverFrom",
          "type": "address"
        }
      ],
      "name": "SnowflakeWithdrawFrom",
      "type": "event",
      "signature": "0x8262975dcca6e765bc0c030d671a00379895d3f60ab5f0033ca4aa088074646b"
    },
    {
      "anonymous": false,
      "inputs": [
        {
          "indexed": true,
          "name": "resolverFrom",
          "type": "address"
        },
        {
          "indexed": true,
          "name": "einTo",
          "type": "uint256"
        }
      ],
      "name": "SnowflakeTransferFromVia",
      "type": "event",
      "signature": "0x1dd3c359182056ab5063bcdbab2346601270459beb53cabcbd39ca79f0503368"
    },
    {
      "anonymous": false,
      "inputs": [
        {
          "indexed": true,
          "name": "resolverFrom",
          "type": "address"
        },
        {
          "indexed": true,
          "name": "to",
          "type": "address"
        }
      ],
      "name": "SnowflakeWithdrawFromVia",
      "type": "event",
      "signature": "0x4bf145994459e88b08345bbe483ca295ac2305df746c75740dd9d837344a9acf"
    },
    {
      "anonymous": false,
      "inputs": [
        {
          "indexed": true,
          "name": "resolverFrom",
          "type": "address"
        },
        {
          "indexed": true,
          "name": "via",
          "type": "address"
        },
        {
          "indexed": true,
          "name": "einTo",
          "type": "uint256"
        },
        {
          "indexed": false,
          "name": "amount",
          "type": "uint256"
        }
      ],
      "name": "SnowflakeTransferToVia",
      "type": "event",
      "signature": "0xedb6770cb1ac0722d4ee53b473075a9d9d9ada0726d38bfc29d7cefb278a6b50"
    },
    {
      "anonymous": false,
      "inputs": [
        {
          "indexed": true,
          "name": "resolverFrom",
          "type": "address"
        },
        {
          "indexed": true,
          "name": "via",
          "type": "address"
        },
        {
          "indexed": true,
          "name": "to",
          "type": "address"
        },
        {
          "indexed": false,
          "name": "amount",
          "type": "uint256"
        }
      ],
      "name": "SnowflakeWithdrawToVia",
      "type": "event",
      "signature": "0x0c00f14cabae1f33bca7bd1a7510da7d1188463c014549b4817ece9db32ce67d"
    },
    {
      "anonymous": false,
      "inputs": [
        {
          "indexed": true,
          "name": "ein",
          "type": "uint256"
        },
        {
          "indexed": true,
          "name": "resolver",
          "type": "address"
        },
        {
          "indexed": false,
          "name": "currentAllowance",
          "type": "uint256"
        },
        {
          "indexed": false,
          "name": "requestedWithdraw",
          "type": "uint256"
        }
      ],
      "name": "SnowflakeInsufficientAllowance",
      "type": "event",
      "signature": "0xe8197a2184c184c738bfd08f3ee78a377cde69118a3d580480d00a9208d6bdf3"
    },
    {
      "anonymous": false,
      "inputs": [
        {
          "indexed": true,
          "name": "previousOwner",
          "type": "address"
        },
        {
          "indexed": true,
          "name": "newOwner",
          "type": "address"
        }
      ],
      "name": "OwnershipTransferred",
      "type": "event",
      "signature": "0x8be0079c531659141344cd1fd0a4f28419497f9722a3daafe3b4186f6b6457e0"
    },
    {
      "constant": false,
      "inputs": [
        {
          "name": "_identityRegistryAddress",
          "type": "address"
        },
        {
          "name": "_hydroTokenAddress",
          "type": "address"
        }
      ],
      "name": "setAddresses",
      "outputs": [],
      "payable": false,
      "stateMutability": "nonpayable",
      "type": "function",
      "signature": "0x90107afe"
    },
    {
      "constant": false,
      "inputs": [
        {
          "name": "_clientRaindropAddress",
          "type": "address"
        }
      ],
      "name": "setClientRaindropAddress",
      "outputs": [],
      "payable": false,
      "stateMutability": "nonpayable",
      "type": "function",
      "signature": "0x856b414e"
    },
    {
      "constant": false,
      "inputs": [
        {
          "name": "recoveryAddress",
          "type": "address"
        },
        {
          "name": "associatedAddress",
          "type": "address"
        },
        {
          "name": "providers",
          "type": "address[]"
        },
        {
          "name": "casedHydroId",
          "type": "string"
        },
        {
          "name": "v",
          "type": "uint8"
        },
        {
          "name": "r",
          "type": "bytes32"
        },
        {
          "name": "s",
          "type": "bytes32"
        },
        {
          "name": "timestamp",
          "type": "uint256"
        }
      ],
      "name": "createIdentityDelegated",
      "outputs": [
        {
          "name": "ein",
          "type": "uint256"
        }
      ],
      "payable": false,
      "stateMutability": "nonpayable",
      "type": "function",
      "signature": "0x5a967ea5"
    },
    {
      "constant": false,
      "inputs": [
        {
          "name": "approvingAddress",
          "type": "address"
        },
        {
          "name": "providers",
          "type": "address[]"
        },
        {
          "name": "v",
          "type": "uint8"
        },
        {
          "name": "r",
          "type": "bytes32"
        },
        {
          "name": "s",
          "type": "bytes32"
        },
        {
          "name": "timestamp",
          "type": "uint256"
        }
      ],
      "name": "addProvidersFor",
      "outputs": [],
      "payable": false,
      "stateMutability": "nonpayable",
      "type": "function",
      "signature": "0x49a79a50"
    },
    {
      "constant": false,
      "inputs": [
        {
          "name": "approvingAddress",
          "type": "address"
        },
        {
          "name": "providers",
          "type": "address[]"
        },
        {
          "name": "v",
          "type": "uint8"
        },
        {
          "name": "r",
          "type": "bytes32"
        },
        {
          "name": "s",
          "type": "bytes32"
        },
        {
          "name": "timestamp",
          "type": "uint256"
        }
      ],
      "name": "removeProvidersFor",
      "outputs": [],
      "payable": false,
      "stateMutability": "nonpayable",
      "type": "function",
      "signature": "0xfe89e396"
    },
    {
      "constant": false,
      "inputs": [
        {
          "name": "approvingAddress",
          "type": "address"
        },
        {
          "name": "newProviders",
          "type": "address[]"
        },
        {
          "name": "oldProviders",
          "type": "address[]"
        },
        {
          "name": "v",
          "type": "uint8[2]"
        },
        {
          "name": "r",
          "type": "bytes32[2]"
        },
        {
          "name": "s",
          "type": "bytes32[2]"
        },
        {
          "name": "timestamp",
          "type": "uint256[2]"
        }
      ],
      "name": "upgradeProvidersFor",
      "outputs": [],
      "payable": false,
      "stateMutability": "nonpayable",
      "type": "function",
      "signature": "0x659ab4c3"
    },
    {
      "constant": false,
      "inputs": [
        {
          "name": "resolver",
          "type": "address"
        },
        {
          "name": "isSnowflake",
          "type": "bool"
        },
        {
          "name": "withdrawAllowance",
          "type": "uint256"
        },
        {
          "name": "extraData",
          "type": "bytes"
        }
      ],
      "name": "addResolver",
      "outputs": [],
      "payable": false,
      "stateMutability": "nonpayable",
      "type": "function",
      "signature": "0xc94dbd33"
    },
    {
      "constant": false,
      "inputs": [
        {
          "name": "ein",
          "type": "uint256"
        },
        {
          "name": "resolver",
          "type": "address"
        },
        {
          "name": "isSnowflake",
          "type": "bool"
        },
        {
          "name": "withdrawAllowance",
          "type": "uint256"
        },
        {
          "name": "extraData",
          "type": "bytes"
        }
      ],
      "name": "addResolverAsProvider",
      "outputs": [],
      "payable": false,
      "stateMutability": "nonpayable",
      "type": "function",
      "signature": "0x87d62038"
    },
    {
      "constant": false,
      "inputs": [
        {
          "name": "approvingAddress",
          "type": "address"
        },
        {
          "name": "resolver",
          "type": "address"
        },
        {
          "name": "isSnowflake",
          "type": "bool"
        },
        {
          "name": "withdrawAllowance",
          "type": "uint256"
        },
        {
          "name": "extraData",
          "type": "bytes"
        },
        {
          "name": "v",
          "type": "uint8"
        },
        {
          "name": "r",
          "type": "bytes32"
        },
        {
          "name": "s",
          "type": "bytes32"
        },
        {
          "name": "timestamp",
          "type": "uint256"
        }
      ],
      "name": "addResolverFor",
      "outputs": [],
      "payable": false,
      "stateMutability": "nonpayable",
      "type": "function",
      "signature": "0x85b118aa"
    },
    {
      "constant": false,
      "inputs": [
        {
          "name": "approvingAddress",
          "type": "address"
        },
        {
          "name": "resolvers",
          "type": "address[]"
        },
        {
          "name": "withdrawAllowances",
          "type": "uint256[]"
        },
        {
          "name": "v",
          "type": "uint8"
        },
        {
          "name": "r",
          "type": "bytes32"
        },
        {
          "name": "s",
          "type": "bytes32"
        }
      ],
      "name": "changeResolverAllowancesDelegated",
      "outputs": [],
      "payable": false,
      "stateMutability": "nonpayable",
      "type": "function",
      "signature": "0xa3e9ec73"
    },
    {
      "constant": false,
      "inputs": [
        {
          "name": "resolvers",
          "type": "address[]"
        },
        {
          "name": "withdrawAllowances",
          "type": "uint256[]"
        }
      ],
      "name": "changeResolverAllowances",
      "outputs": [],
      "payable": false,
      "stateMutability": "nonpayable",
      "type": "function",
      "signature": "0x6be4d9b0"
    },
    {
      "constant": false,
      "inputs": [
        {
          "name": "approvingAddress",
          "type": "address"
        },
        {
          "name": "resolver",
          "type": "address"
        },
        {
          "name": "isSnowflake",
          "type": "bool"
        },
        {
          "name": "extraData",
          "type": "bytes"
        },
        {
          "name": "v",
          "type": "uint8"
        },
        {
          "name": "r",
          "type": "bytes32"
        },
        {
          "name": "s",
          "type": "bytes32"
        },
        {
          "name": "timestamp",
          "type": "uint256"
        }
      ],
      "name": "removeResolverFor",
      "outputs": [],
      "payable": false,
      "stateMutability": "nonpayable",
      "type": "function",
      "signature": "0xefd96fbf"
    },
    {
      "constant": false,
      "inputs": [
        {
          "name": "resolver",
          "type": "address"
        },
        {
          "name": "isSnowflake",
          "type": "bool"
        },
        {
          "name": "extraData",
          "type": "bytes"
        }
      ],
      "name": "removeResolver",
      "outputs": [],
      "payable": false,
      "stateMutability": "nonpayable",
      "type": "function",
      "signature": "0x9d10bb32"
    },
    {
      "constant": false,
      "inputs": [
        {
          "name": "approvingAddress",
          "type": "address"
        },
        {
          "name": "newRecoveryAddress",
          "type": "address"
        },
        {
          "name": "v",
          "type": "uint8"
        },
        {
          "name": "r",
          "type": "bytes32"
        },
        {
          "name": "s",
          "type": "bytes32"
        }
      ],
      "name": "triggerRecoveryAddressChangeFor",
      "outputs": [],
      "payable": false,
      "stateMutability": "nonpayable",
      "type": "function",
      "signature": "0x27a0b6d8"
    },
    {
      "constant": false,
      "inputs": [
        {
          "name": "sender",
          "type": "address"
        },
        {
          "name": "amount",
          "type": "uint256"
        },
        {
          "name": "_tokenAddress",
          "type": "address"
        },
        {
          "name": "_bytes",
          "type": "bytes"
        }
      ],
      "name": "receiveApproval",
      "outputs": [],
      "payable": false,
      "stateMutability": "nonpayable",
      "type": "function",
      "signature": "0x8f4ffcb1"
    },
    {
      "constant": false,
      "inputs": [
        {
          "name": "einTo",
          "type": "uint256"
        },
        {
          "name": "amount",
          "type": "uint256"
        }
      ],
      "name": "transferSnowflakeBalance",
      "outputs": [],
      "payable": false,
      "stateMutability": "nonpayable",
      "type": "function",
      "signature": "0x3b6da765"
    },
    {
      "constant": false,
      "inputs": [
        {
          "name": "to",
          "type": "address"
        },
        {
          "name": "amount",
          "type": "uint256"
        }
      ],
      "name": "withdrawSnowflakeBalance",
      "outputs": [],
      "payable": false,
      "stateMutability": "nonpayable",
      "type": "function",
      "signature": "0xbadcfbcf"
    },
    {
      "constant": false,
      "inputs": [
        {
          "name": "einFrom",
          "type": "uint256"
        },
        {
          "name": "einTo",
          "type": "uint256"
        },
        {
          "name": "amount",
          "type": "uint256"
        }
      ],
      "name": "transferSnowflakeBalanceFrom",
      "outputs": [],
      "payable": false,
      "stateMutability": "nonpayable",
      "type": "function",
      "signature": "0x09164f9c"
    },
    {
      "constant": false,
      "inputs": [
        {
          "name": "einFrom",
          "type": "uint256"
        },
        {
          "name": "to",
          "type": "address"
        },
        {
          "name": "amount",
          "type": "uint256"
        }
      ],
      "name": "withdrawSnowflakeBalanceFrom",
      "outputs": [],
      "payable": false,
      "stateMutability": "nonpayable",
      "type": "function",
      "signature": "0xedda7815"
    },
    {
      "constant": false,
      "inputs": [
        {
          "name": "einFrom",
          "type": "uint256"
        },
        {
          "name": "via",
          "type": "address"
        },
        {
          "name": "einTo",
          "type": "uint256"
        },
        {
          "name": "amount",
          "type": "uint256"
        },
        {
          "name": "_bytes",
          "type": "bytes"
        }
      ],
      "name": "transferSnowflakeBalanceFromVia",
      "outputs": [],
      "payable": false,
      "stateMutability": "nonpayable",
      "type": "function",
      "signature": "0x9cd54210"
    },
    {
      "constant": false,
      "inputs": [
        {
          "name": "einFrom",
          "type": "uint256"
        },
        {
          "name": "via",
          "type": "address"
        },
        {
          "name": "to",
          "type": "address"
        },
        {
          "name": "amount",
          "type": "uint256"
        },
        {
          "name": "_bytes",
          "type": "bytes"
        }
      ],
      "name": "withdrawSnowflakeBalanceFromVia",
      "outputs": [],
      "payable": false,
      "stateMutability": "nonpayable",
      "type": "function",
      "signature": "0x3e63dcc1"
    },
    {
      "constant": false,
      "inputs": [
        {
          "name": "destination",
          "type": "address"
        },
        {
          "name": "amount",
          "type": "uint256"
        },
        {
          "name": "data",
          "type": "bytes"
        },
        {
          "name": "approvingAddress",
          "type": "address"
        },
        {
          "name": "v",
          "type": "uint8"
        },
        {
          "name": "r",
          "type": "bytes32"
        },
        {
          "name": "s",
          "type": "bytes32"
        }
      ],
      "name": "allowAndCallDelegated",
      "outputs": [
        {
          "name": "returnData",
          "type": "bytes"
        }
      ],
      "payable": false,
      "stateMutability": "nonpayable",
      "type": "function",
      "signature": "0x13954647"
    },
    {
      "constant": false,
      "inputs": [
        {
          "name": "destination",
          "type": "address"
        },
        {
          "name": "amount",
          "type": "uint256"
        },
        {
          "name": "data",
          "type": "bytes"
        }
      ],
      "name": "allowAndCall",
      "outputs": [
        {
          "name": "returnData",
          "type": "bytes"
        }
      ],
      "payable": false,
      "stateMutability": "nonpayable",
      "type": "function",
      "signature": "0x9675932e"
    }
  ],
  "bytecode": "0x6080604052620151806009553480156200001857600080fd5b506040516040806200547f833981018060405260408110156200003a57600080fd5b50805160209091015160008054600160a060020a0319163317808255604051600160a060020a039190911691907f8be0079c531659141344cd1fd0a4f28419497f9722a3daafe3b4186f6b6457e0908290a3620000a18282640100000000620000a9810204565b505062000128565b620000bc64010000000062000117810204565b620000c657600080fd5b60038054600160a060020a0319908116600160a060020a0394851617918290556004805492851692821692909217909155600580548216928416929092179182905560068054929093169116179055565b600054600160a060020a0316331490565b61534780620001386000396000f3fe608060405234801561001057600080fd5b506004361061020a5760003560e060020a900480638da5cb5b1161011e578063a759ee6f116100b1578063edda781511610080578063edda7815146111c8578063ef11f9da146111fa578063efd96fbf14611226578063f2fde38b14611303578063fe89e396146113295761020a565b8063a759ee6f146110b3578063b02c43d0146110bb578063badcfbcf146110d8578063c94dbd33146111045761020a565b80639675932e116100ed5780639675932e14610d2f5780639cd5421014610dea5780639d10bb3214610eb1578063a3e9ec7314610f6e5761020a565b80638da5cb5b14610c185780638f32d59b14610c205780638f4ffcb114610c3c57806390107afe14610d015761020a565b80635437b67c116101a1578063715018a611610170578063715018a614610a3757806375d7e4bd14610a3f578063856b414e14610a4757806385b118aa14610a6d57806387d6203814610b4f5761020a565b80635437b67c146105d45780635a967ea5146105dc578063659ab4c3146107345780636be4d9b0146109105761020a565b806327a0b6d8116101dd57806327a0b6d8146103da5780633b6da7651461041f5780633e63dcc11461044257806349a79a501461050d5761020a565b806309164f9c1461020f57806312f1dbc81461023a57806313954647146102695780631dfc99c4146103b6575b600080fd5b6102386004803603606081101561022557600080fd5b50803590602081013590604001356113f0565b005b6102576004803603602081101561025057600080fd5b5035611436565b60408051918252519081900360200190f35b610341600480360360e081101561027f57600080fd5b600160a060020a03823516916020810135918101906060810160408201356401000000008111156102af57600080fd5b8201836020820111156102c157600080fd5b803590602001918460018302840111640100000000831117156102e357600080fd5b91908080601f01602080910402602001604051908101604052809392919081815260200183838082843760009201919091525092955050600160a060020a0383351693505060ff602083013516916040810135915060600135611448565b6040805160208082528351818301528351919283929083019185019080838360005b8381101561037b578181015183820152602001610363565b50505050905090810190601f1680156103a85780820380516001836020036101000a031916815260200191505b509250505060405180910390f35b6103be61150f565b60408051600160a060020a039092168252519081900360200190f35b610238600480360360a08110156103f057600080fd5b50600160a060020a03813581169160208101359091169060ff604082013516906060810135906080013561151e565b6102386004803603604081101561043557600080fd5b50803590602001356117c4565b610238600480360360a081101561045857600080fd5b813591600160a060020a03602082013581169260408301359091169160608101359181019060a08101608082013564010000000081111561049857600080fd5b8201836020820111156104aa57600080fd5b803590602001918460018302840111640100000000831117156104cc57600080fd5b91908080601f01602080910402602001604051908101604052809392919081815260200183838082843760009201919091525092955061184f945050505050565b610238600480360360c081101561052357600080fd5b600160a060020a03823516919081019060408101602082013564010000000081111561054e57600080fd5b82018360208201111561056057600080fd5b8035906020019184602083028401116401000000008311171561058257600080fd5b9190808060200260200160405190810160405280939291908181526020018383602002808284376000920191909152509295505060ff83351693505050602081013590604081013590606001356119ae565b610257611ce0565b61025760048036036101008110156105f357600080fd5b600160a060020a03823581169260208101359091169181019060608101604082013564010000000081111561062757600080fd5b82018360208201111561063957600080fd5b8035906020019184602083028401116401000000008311171561065b57600080fd5b91908080602002602001604051908101604052809392919081815260200183836020028082843760009201919091525092959493602081019350359150506401000000008111156106ab57600080fd5b8201836020820111156106bd57600080fd5b803590602001918460018302840111640100000000831117156106df57600080fd5b91908080601f0160208091040260200160405190810160405280939291908181526020018383808284376000920191909152509295505060ff8335169350505060208101359060408101359060600135611ce6565b610238600480360361016081101561074b57600080fd5b600160a060020a03823516919081019060408101602082013564010000000081111561077657600080fd5b82018360208201111561078857600080fd5b803590602001918460208302840111640100000000831117156107aa57600080fd5b91908080602002602001604051908101604052809392919081815260200183836020028082843760009201919091525092959493602081019350359150506401000000008111156107fa57600080fd5b82018360208201111561080c57600080fd5b8035906020019184602083028401116401000000008311171561082e57600080fd5b919080806020026020016040519081016040528093929190818152602001838360200280828437600092019190915250506040805180820182529396959481810194935091506002908390839080828437600092019190915250506040805180820182529295949381810193925090600290839083908082843760009201919091525050604080518082018252929594938181019392509060029083908390808284376000920191909152505060408051808201825292959493818101939250906002908390839080828437600092019190915250919450611fd49350505050565b6102386004803603604081101561092657600080fd5b81019060208101813564010000000081111561094157600080fd5b82018360208201111561095357600080fd5b8035906020019184602083028401116401000000008311171561097557600080fd5b91908080602002602001604051908101604052809392919081815260200183836020028082843760009201919091525092959493602081019350359150506401000000008111156109c557600080fd5b8201836020820111156109d757600080fd5b803590602001918460208302840111640100000000831117156109f957600080fd5b919080806020026020016040519081016040528093929190818152602001838360200280828437600092019190915250929550612178945050505050565b610238612202565b6103be61226a565b61023860048036036020811015610a5d57600080fd5b5035600160a060020a0316612279565b6102386004803603610120811015610a8457600080fd5b600160a060020a038235811692602081013590911691604082013515159160608101359181019060a081016080820135640100000000811115610ac657600080fd5b820183602082011115610ad857600080fd5b80359060200191846001830284011164010000000083111715610afa57600080fd5b91908080601f0160208091040260200160405190810160405280939291908181526020018383808284376000920191909152509295505060ff83351693505050602081013590604081013590606001356122c6565b610238600480360360a0811015610b6557600080fd5b813591600160a060020a0360208201351691604082013515159160608101359181019060a081016080820135640100000000811115610ba357600080fd5b820183602082011115610bb557600080fd5b80359060200191846001830284011164010000000083111715610bd757600080fd5b91908080601f016020809104026020016040519081016040528093929190818152602001838380828437600092019190915250929550612375945050505050565b6103be61245c565b610c2861246b565b604080519115158252519081900360200190f35b61023860048036036080811015610c5257600080fd5b600160a060020a038235811692602081013592604082013590921691810190608081016060820135640100000000811115610c8c57600080fd5b820183602082011115610c9e57600080fd5b80359060200191846001830284011164010000000083111715610cc057600080fd5b91908080601f01602080910402602001604051908101604052809392919081815260200183838082843760009201919091525092955061247c945050505050565b61023860048036036040811015610d1757600080fd5b50600160a060020a0381358116916020013516612c44565b61034160048036036060811015610d4557600080fd5b600160a060020a0382351691602081013591810190606081016040820135640100000000811115610d7557600080fd5b820183602082011115610d8757600080fd5b80359060200191846001830284011164010000000083111715610da957600080fd5b91908080601f016020809104026020016040519081016040528093929190818152602001838380828437600092019190915250929550612cb3945050505050565b610238600480360360a0811015610e0057600080fd5b813591600160a060020a036020820135169160408201359160608101359181019060a081016080820135640100000000811115610e3c57600080fd5b820183602082011115610e4e57600080fd5b80359060200191846001830284011164010000000083111715610e7057600080fd5b91908080601f016020809104026020016040519081016040528093929190818152602001838380828437600092019190915250929550612d44945050505050565b61023860048036036060811015610ec757600080fd5b600160a060020a03823516916020810135151591810190606081016040820135640100000000811115610ef957600080fd5b820183602082011115610f0b57600080fd5b80359060200191846001830284011164010000000083111715610f2d57600080fd5b91908080601f016020809104026020016040519081016040528093929190818152602001838380828437600092019190915250929550612e88945050505050565b610238600480360360c0811015610f8457600080fd5b600160a060020a038235169190810190604081016020820135640100000000811115610faf57600080fd5b820183602082011115610fc157600080fd5b80359060200191846020830284011164010000000083111715610fe357600080fd5b919080806020026020016040519081016040528093929190818152602001838360200280828437600092019190915250929594936020810193503591505064010000000081111561103357600080fd5b82018360208201111561104557600080fd5b8035906020019184602083028401116401000000008311171561106757600080fd5b9190808060200260200160405190810160405280939291908181526020018383602002808284376000920191909152509295505060ff8335169350505060208101359060400135612f0f565b6103be613183565b610257600480360360208110156110d157600080fd5b5035613192565b610238600480360360408110156110ee57600080fd5b50600160a060020a0381351690602001356131a4565b6102386004803603608081101561111a57600080fd5b600160a060020a038235169160208101351515916040820135919081019060808101606082013564010000000081111561115357600080fd5b82018360208201111561116557600080fd5b8035906020019184600183028401116401000000008311171561118757600080fd5b91908080601f01602080910402602001604051908101604052809392919081815260200183838082843760009201919091525092955061322a945050505050565b610238600480360360608110156111de57600080fd5b50803590600160a060020a0360208201351690604001356132b2565b6102576004803603604081101561121057600080fd5b5080359060200135600160a060020a03166132f7565b610238600480360361010081101561123d57600080fd5b600160a060020a03823581169260208101359091169160408201351515919081019060808101606082013564010000000081111561127a57600080fd5b82018360208201111561128c57600080fd5b803590602001918460018302840111640100000000831117156112ae57600080fd5b91908080601f0160208091040260200160405190810160405280939291908181526020018383808284376000920191909152509295505060ff8335169350505060208101359060408101359060600135613314565b6102386004803603602081101561131957600080fd5b5035600160a060020a031661340b565b610238600480360360c081101561133f57600080fd5b600160a060020a03823516919081019060408101602082013564010000000081111561136a57600080fd5b82018360208201111561137c57600080fd5b8035906020019184602083028401116401000000008311171561139e57600080fd5b9190808060200260200160405190810160405280939291908181526020018383602002808284376000920191909152509295505060ff8335169350505060208101359060408101359060600135613428565b6113fa838261370f565b6114058383836138dd565b5060405133907f3bd0280dc67bfc5c83998b5eddebb84cb266dd5fea7c8552e43f1c55110e966790600090a2505050565b600a6020526000908152604090205481565b600480546040805160e060020a6305c62c2f028152600160a060020a0388811694820194909452905160609360009316916305c62c2f916024808301926020929190829003018186803b15801561149e57600080fd5b505afa1580156114b2573d6000803e3d6000fd5b505050506040513d60208110156114c857600080fd5b50516000818152600a602052604090208054600181019091559091506114f587838c8c8c868c8c8c613abd565b611501828a8c8b613cfd565b9a9950505050505050505050565b600754600160a060020a031681565b600480546040805160e060020a6305c62c2f028152600160a060020a03898116948201949094529051600093909216916305c62c2f91602480820192602092909190829003018186803b15801561157457600080fd5b505afa158015611588573d6000803e3d6000fd5b505050506040513d602081101561159e57600080fd5b50516000818152600a60209081526040808320805460018101909155600454915160f860020a6019029381018481526021820186905230606060020a810260228401529697509195600160a060020a0390931694638677ebe8948d9490939192909189918e918a91603601602c61517e8239602c0184815260200183600160a060020a0316600160a060020a0316606060020a0281526014018281526020019650505050505050604051602081830303815290604052805190602001208888886040518663ffffffff1660e060020a0281526004018086600160a060020a0316600160a060020a031681526020018581526020018460ff1660ff1681526020018381526020018281526020019550505050505060206040518083038186803b1580156116c957600080fd5b505afa1580156116dd573d6000803e3d6000fd5b505050506040513d60208110156116f357600080fd5b5051611737576040805160e560020a62461bcd02815260206004820152601260248201526000805160206150c3833981519152604482015290519081900360640190fd5b60048054604080517f2501faa5000000000000000000000000000000000000000000000000000000008152928301859052600160a060020a0389811660248501529051911691632501faa591604480830192600092919082900301818387803b1580156117a357600080fd5b505af11580156117b7573d6000803e3d6000fd5b5050505050505050505050565b600480546040805160e060020a6305c62c2f02815233938101939093525161184a92600160a060020a03909216916305c62c2f916024808301926020929190829003018186803b15801561181757600080fd5b505afa15801561182b573d6000803e3d6000fd5b505050506040513d602081101561184157600080fd5b505183836138dd565b505050565b611859858361370f565b611864858584613f28565b600084905080600160a060020a0316633aaaa8a033888787876040518663ffffffff1660e060020a0281526004018086600160a060020a0316600160a060020a0316815260200185815260200184600160a060020a0316600160a060020a0316815260200183815260200180602001828103825283818151815260200191508051906020019080838360005b838110156119085781810151838201526020016118f0565b50505050905090810190601f1680156119355780820380516001836020036101000a031916815260200191505b509650505050505050600060405180830381600087803b15801561195857600080fd5b505af115801561196c573d6000803e3d6000fd5b5050604051600160a060020a03871692503391507f4bf145994459e88b08345bbe483ca295ac2305df746c75740dd9d837344a9acf90600090a3505050505050565b808042101580156119c25750600954810142105b611a04576040805160e560020a62461bcd02815260206004820152601760248201526000805160206151d7833981519152604482015290519081900360640190fd5b600480546040805160e060020a6305c62c2f028152600160a060020a038b8116948201949094529051600093909216916305c62c2f91602480820192602092909190829003018186803b158015611a5a57600080fd5b505afa158015611a6e573d6000803e3d6000fd5b505050506040513d6020811015611a8457600080fd5b505160045460405160f860020a6019026020820181815260006021840181905230606060020a81026022860152959650600160a060020a0390941694638677ebe8948e94909288918f918c9160360160396152b48239603901848152602001838051906020019060200280838360005b83811015611b0c578181015183820152602001611af4565b505050509050018281526020019650505050505050604051602081830303815290604052805190602001208989896040518663ffffffff1660e060020a0281526004018086600160a060020a0316600160a060020a031681526020018581526020018460ff1660ff1681526020018381526020018281526020019550505050505060206040518083038186803b158015611ba557600080fd5b505afa158015611bb9573d6000803e3d6000fd5b505050506040513d6020811015611bcf57600080fd5b5051611c13576040805160e560020a62461bcd02815260206004820152601260248201526000805160206150c3833981519152604482015290519081900360640190fd5b60048054604080517f960b11f5000000000000000000000000000000000000000000000000000000008152928301848152602484019182528a5160448501528a51600160a060020a039093169363960b11f59386938d939290916064909101906020808601910280838360005b83811015611c98578181015183820152602001611c80565b505050509050019350505050600060405180830381600087803b158015611cbe57600080fd5b505af1158015611cd2573d6000803e3d6000fd5b505050505050505050505050565b60095481565b600060608751600101604051908082528060200260200182016040528015611d18578160200160208202803883390190505b5090503081600081518110611d2957fe5b6020026020010190600160a060020a03169081600160a060020a03168152505060005b8851811015611d9857888181518110611d6157fe5b6020026020010151828260010181518110611d7857fe5b600160a060020a0390921660209283029190910190910152600101611d4c565b50600454604080516000808252602082019092529091600160a060020a0316906314fb5646908d908d9086908c8c8c8c6040518963ffffffff1660e060020a0281526004018089600160a060020a0316600160a060020a0316815260200188600160a060020a0316600160a060020a0316815260200180602001806020018760ff1660ff168152602001868152602001858152602001848152602001838103835289818151815260200191508051906020019060200280838360005b83811015611e6c578181015183820152602001611e54565b50505050905001838103825288818151815260200191508051906020019060200280838360005b83811015611eab578181015183820152602001611e93565b505050509050019a5050505050505050505050602060405180830381600087803b158015611ed857600080fd5b505af1158015611eec573d6000803e3d6000fd5b505050506040513d6020811015611f0257600080fd5b8101908080519060200190929190505050905061150181600760009054906101000a9004600160a060020a0316600160008e8d6040516020018083600160a060020a0316600160a060020a0316815260200180602001828103825283818151815260200191508051906020019080838360005b83811015611f8d578181015183820152602001611f75565b50505050905090810190601f168015611fba5780820380516001836020036101000a031916815260200191505b509350505050604051602081830303815290604052614125565b8351835183518351611fee938b938b9391929091906119ae565b61201887868660016020020151866001602002015186600160200201518660016020020151613428565b600480546040805160e060020a6305c62c2f028152600160a060020a038b8116948201949094529051600093909216916305c62c2f91602480820192602092909190829003018186803b15801561206e57600080fd5b505afa158015612082573d6000803e3d6000fd5b505050506040513d602081101561209857600080fd5b505160408051600160a060020a038b16918101919091526060808252895190820152885191925082917f9395986444296878f4ccc8a3e3a2d2d64a2988fb3cf2fd45fd7abe7449025626918a918a918d9181906020828101916080840191888101910280838360005b83811015612119578181015183820152602001612101565b50505050905001838103825285818151815260200191508051906020019060200280838360005b83811015612158578181015183820152602001612140565b505050509050019550505050505060405180910390a25050505050505050565b600480546040805160e060020a6305c62c2f0281523393810193909352516121fe92600160a060020a03909216916305c62c2f916024808301926020929190829003018186803b1580156121cb57600080fd5b505afa1580156121df573d6000803e3d6000fd5b505050506040513d60208110156121f557600080fd5b5051838361452f565b5050565b61220a61246b565b61221357600080fd5b60008054604051600160a060020a03909116907f8be0079c531659141344cd1fd0a4f28419497f9722a3daafe3b4186f6b6457e0908390a36000805473ffffffffffffffffffffffffffffffffffffffff19169055565b600554600160a060020a031681565b61228161246b565b61228a57600080fd5b6007805473ffffffffffffffffffffffffffffffffffffffff19908116600160a060020a03938416179182905560088054929093169116179055565b600480546040805160e060020a6305c62c2f028152600160a060020a038d8116948201949094529051600093909216916305c62c2f91602480820192602092909190829003018186803b15801561231c57600080fd5b505afa158015612330573d6000803e3d6000fd5b505050506040513d602081101561234657600080fd5b5051905061235c8a828b8b8b8b8b8b8b8b61474c565b612369818a8a8a8a614125565b50505050505050505050565b60048054604080517f53a9698a00000000000000000000000000000000000000000000000000000000815292830188905233602484015251600160a060020a03909116916353a9698a916044808301926020929190829003018186803b1580156123de57600080fd5b505afa1580156123f2573d6000803e3d6000fd5b505050506040513d602081101561240857600080fd5b50516124485760405160e560020a62461bcd0281526004018080602001828103825260338152602001806150086033913960400191505060405180910390fd5b6124558585858585614125565b5050505050565b600054600160a060020a031690565b600054600160a060020a0316331490565b33600160a060020a038316146124dc576040805160e560020a62461bcd02815260206004820152601160248201527f4d616c666f726d656420696e707574732e000000000000000000000000000000604482015290519081900360640190fd5b600554600160a060020a0383811691161461252b5760405160e560020a62461bcd02815260040180806020018281038252602d8152602001806151aa602d913960400191505060405180910390fd5b602081511161280a57600654604080517f23b872dd000000000000000000000000000000000000000000000000000000008152600160a060020a03878116600483015230602483015260448201879052915191909216916323b872dd9160648083019260209291908290030181600087803b1580156125a957600080fd5b505af11580156125bd573d6000803e3d6000fd5b505050506040513d60208110156125d357600080fd5b50516126135760405160e560020a62461bcd0281526004018080602001828103825260238152602001806152346023913960400191505060405180910390fd5b60006020825110156126a657600480546040805160e060020a6305c62c2f028152600160a060020a0389811694820194909452905192909116916305c62c2f91602480820192602092909190829003018186803b15801561267357600080fd5b505afa158015612687573d6000803e3d6000fd5b505050506040513d602081101561269d57600080fd5b5051905061278c565b8180602001905160208110156126bb57600080fd5b505160048054604080517f5b5aed3a00000000000000000000000000000000000000000000000000000000815292830184905251929350600160a060020a031691635b5aed3a91602480820192602092909190829003018186803b15801561272257600080fd5b505afa158015612736573d6000803e3d6000fd5b505050506040513d602081101561274c57600080fd5b505161278c5760405160e560020a62461bcd028152600401808060200182810382526021815260200180614fe76021913960400191505060405180910390fd5b6000818152600160205260409020546127ab908563ffffffff6149cc16565b60016000838152602001908152602001600020819055508085600160a060020a03167fc03bd73422f0f423555852c3018d2296bec6c3fb71372de56d3ce8f5984d6812866040518082815260200191505060405180910390a350612c3e565b60008060008060608580602001905160a081101561282757600080fd5b81516020830151604084015160608501516080860180519496939592949193928301929164010000000081111561285d57600080fd5b8201602081018481111561287057600080fd5b815164010000000081118282018710171561288a57600080fd5b505092919050505094509450945094509450600660009054906101000a9004600160a060020a0316600160a060020a03166323b872dd8a858b6040518463ffffffff1660e060020a0281526004018084600160a060020a0316600160a060020a0316815260200183600160a060020a0316600160a060020a031681526020018281526020019350505050602060405180830381600087803b15801561292e57600080fd5b505af1158015612942573d6000803e3d6000fd5b505050506040513d602081101561295857600080fd5b50516129985760405160e560020a62461bcd0281526004018080602001828103825260238152602001806152346023913960400191505060405180910390fd5b828515612add5780600160a060020a0316633c72e43986858c866040518563ffffffff1660e060020a0281526004018085600160a060020a0316600160a060020a0316815260200184815260200183815260200180602001828103825283818151815260200191508051906020019080838360005b83811015612a25578181015183820152602001612a0d565b50505050905090810190601f168015612a525780820380516001836020036101000a031916815260200191505b5095505050505050600060405180830381600087803b158015612a7457600080fd5b505af1158015612a88573d6000803e3d6000fd5b505050508284600160a060020a031686600160a060020a03167fedb6770cb1ac0722d4ee53b473075a9d9d9ada0726d38bfc29d7cefb278a6b508c6040518082815260200191505060405180910390a4612369565b600083905081600160a060020a031663e5a1309287838d876040518563ffffffff1660e060020a0281526004018085600160a060020a0316600160a060020a0316815260200184600160a060020a0316600160a060020a0316815260200183815260200180602001828103825283818151815260200191508051906020019080838360005b83811015612b7a578181015183820152602001612b62565b50505050905090810190601f168015612ba75780820380516001836020036101000a031916815260200191505b5095505050505050600060405180830381600087803b158015612bc957600080fd5b505af1158015612bdd573d6000803e3d6000fd5b5050505083600160a060020a031685600160a060020a031687600160a060020a03167f0c00f14cabae1f33bca7bd1a7510da7d1188463c014549b4817ece9db32ce67d8d6040518082815260200191505060405180910390a4505050505050505b50505050565b612c4c61246b565b612c5557600080fd5b6003805473ffffffffffffffffffffffffffffffffffffffff19908116600160a060020a0394851617918290556004805492851692821692909217909155600580548216928416929092179182905560068054929093169116179055565b600480546040805160e060020a6305c62c2f028152339381019390935251606092612d3c92600160a060020a0316916305c62c2f91602480820192602092909190829003018186803b158015612d0857600080fd5b505afa158015612d1c573d6000803e3d6000fd5b505050506040513d6020811015612d3257600080fd5b5051848685613cfd565b949350505050565b612d4e858361370f565b612d59858584613f28565b600084905080600160a060020a0316631c75edfe33888787876040518663ffffffff1660e060020a0281526004018086600160a060020a0316600160a060020a0316815260200185815260200184815260200183815260200180602001828103825283818151815260200191508051906020019080838360005b83811015612deb578181015183820152602001612dd3565b50505050905090810190601f168015612e185780820380516001836020036101000a031916815260200191505b509650505050505050600060405180830381600087803b158015612e3b57600080fd5b505af1158015612e4f573d6000803e3d6000fd5b50506040518692503391507f1dd3c359182056ab5063bcdbab2346601270459beb53cabcbd39ca79f050336890600090a3505050505050565b600480546040805160e060020a6305c62c2f02815233938101939093525161184a92600160a060020a03909216916305c62c2f916024808301926020929190829003018186803b158015612edb57600080fd5b505afa158015612eef573d6000803e3d6000fd5b505050506040513d6020811015612f0557600080fd5b50518484846149e5565b600480546040805160e060020a6305c62c2f028152600160a060020a038a8116948201949094529051600093909216916305c62c2f91602480820192602092909190829003018186803b158015612f6557600080fd5b505afa158015612f79573d6000803e3d6000fd5b505050506040513d6020811015612f8f57600080fd5b50516000818152600a60209081526040808320805460018101909155600454915160f860020a6019029381018481526021820186905230606060020a810260228401529697509195600160a060020a0390931694638677ebe8948e9490939192909189918f918f918b9190603601602f6152ed8239602f01858152602001848051906020019060200280838360005b8381101561303657818101518382015260200161301e565b50505050905001838051906020019060200280838360005b8381101561306657818101518382015260200161304e565b50505050905001828152602001975050505050505050604051602081830303815290604052805190602001208888886040518663ffffffff1660e060020a0281526004018086600160a060020a0316600160a060020a031681526020018581526020018460ff1660ff1681526020018381526020018281526020019550505050505060206040518083038186803b15801561310057600080fd5b505afa158015613114573d6000803e3d6000fd5b505050506040513d602081101561312a57600080fd5b505161316e576040805160e560020a62461bcd02815260206004820152601260248201526000805160206150c3833981519152604482015290519081900360640190fd5b61317982888861452f565b5050505050505050565b600354600160a060020a031681565b60016020526000908152604090205481565b600480546040805160e060020a6305c62c2f0281523393810193909352516121fe92600160a060020a03909216916305c62c2f916024808301926020929190829003018186803b1580156131f757600080fd5b505afa15801561320b573d6000803e3d6000fd5b505050506040513d602081101561322157600080fd5b50518383613f28565b600480546040805160e060020a6305c62c2f028152339381019390935251612c3e92600160a060020a03909216916305c62c2f916024808301926020929190829003018186803b15801561327d57600080fd5b505afa158015613291573d6000803e3d6000fd5b505050506040513d60208110156132a757600080fd5b505185858585614125565b6132bc838261370f565b6132c7838383613f28565b60405133907f8262975dcca6e765bc0c030d671a00379895d3f60ab5f0033ca4aa088074646b90600090a2505050565b600260209081526000928352604080842090915290825290205481565b808042101580156133285750600954810142105b61336a576040805160e560020a62461bcd02815260206004820152601760248201526000805160206151d7833981519152604482015290519081900360640190fd5b600480546040805160e060020a6305c62c2f028152600160a060020a038d8116948201949094529051600093909216916305c62c2f91602480820192602092909190829003018186803b1580156133c057600080fd5b505afa1580156133d4573d6000803e3d6000fd5b505050506040513d60208110156133ea57600080fd5b505190506133ff8a828b8b8b8b8b8b8b614dc1565b612369818a8a8a6149e5565b61341361246b565b61341c57600080fd5b61342581614f25565b50565b8080421015801561343c5750600954810142105b61347e576040805160e560020a62461bcd02815260206004820152601760248201526000805160206151d7833981519152604482015290519081900360640190fd5b600480546040805160e060020a6305c62c2f028152600160a060020a038b8116948201949094529051600093909216916305c62c2f91602480820192602092909190829003018186803b1580156134d457600080fd5b505afa1580156134e8573d6000803e3d6000fd5b505050506040513d60208110156134fe57600080fd5b505160045460405160f860020a6019026020820181815260006021840181905230606060020a81026022860152959650600160a060020a0390941694638677ebe8948e94909288918f918c91603601603d6151f78239603d01848152602001838051906020019060200280838360005b8381101561358657818101518382015260200161356e565b505050509050018281526020019650505050505050604051602081830303815290604052805190602001208989896040518663ffffffff1660e060020a0281526004018086600160a060020a0316600160a060020a031681526020018581526020018460ff1660ff1681526020018381526020018281526020019550505050505060206040518083038186803b15801561361f57600080fd5b505afa158015613633573d6000803e3d6000fd5b505050506040513d602081101561364957600080fd5b505161368d576040805160e560020a62461bcd02815260206004820152601260248201526000805160206150c3833981519152604482015290519081900360640190fd5b60048054604080517f06c93c36000000000000000000000000000000000000000000000000000000008152928301848152602484019182528a5160448501528a51600160a060020a03909316936306c93c369386938d939290916064909101906020808601910280838360008315611c98578181015183820152602001611c80565b600480546040805160e260020a63352c737302815292830185905233602484015251600160a060020a039091169163d4b1cdcc916044808301926020929190829003018186803b15801561376257600080fd5b505afa158015613776573d6000803e3d6000fd5b505050506040513d602081101561378c57600080fd5b50516137cc5760405160e560020a62461bcd02815260040180806020018281038252602e81526020018061503b602e913960400191505060405180910390fd5b60008281526002602090815260408083203384529091529020548111156138925760008281526002602090815260408083203380855290835292819020548151908152918201849052805185927fe8197a2184c184c738bfd08f3ee78a377cde69118a3d580480d00a9208d6bdf392908290030190a36040805160e560020a62461bcd02815260206004820152601660248201527f496e73756666696369656e7420416c6c6f77616e636500000000000000000000604482015290519081900360640190fd5b60008281526002602090815260408083203384529091529020546138bc908263ffffffff614fa016565b60009283526002602090815260408085203386529091529092209190915550565b60048054604080517f5b5aed3a0000000000000000000000000000000000000000000000000000000081529283018590525160009285926001928392600160a060020a0390921691635b5aed3a916024808301926020929190829003018186803b15801561394a57600080fd5b505afa15801561395e573d6000803e3d6000fd5b505050506040513d602081101561397457600080fd5b50511515146139cd576040805160e560020a62461bcd02815260206004820152601760248201527f5468652045494e20646f6573206e6f742065786973742e000000000000000000604482015290519081900360640190fd5b600086815260016020526040902054841115613a1d5760405160e560020a62461bcd0281526004018080602001828103825260368152602001806152576036913960400191505060405180910390fd5b600086815260016020526040902054613a3c908563ffffffff614fa016565b600087815260016020526040808220929092558681522054613a64908563ffffffff6149cc16565b600160008781526020019081526020016000208190555084867ffc1e758cdfd0000672c8f8e0557fdae32b207ab6040726e3e91a363ac1ea234a866040518082815260200191505060405180910390a350509392505050565b600460009054906101000a9004600160a060020a0316600160a060020a0316638677ebe88a601960f860020a02600060f860020a02308d8d8d8d8d6040516020018089600160f860020a031916600160f860020a031916815260010188600160f860020a031916600160f860020a031916815260010187600160a060020a0316600160a060020a0316606060020a028152601401807f4920617574686f72697a65207468697320616c6c6f7720616e642063616c6c2e81525060200186815260200185600160a060020a0316600160a060020a0316606060020a02815260140184815260200183805190602001908083835b60208310613bce5780518252601f199092019160209182019101613baf565b6001836020036101000a03801982511681845116808217855250505050505090500182815260200198505050505050505050604051602081830303815290604052805190602001208686866040518663ffffffff1660e060020a0281526004018086600160a060020a0316600160a060020a031681526020018581526020018460ff1660ff1681526020018381526020018281526020019550505050505060206040518083038186803b158015613c8457600080fd5b505afa158015613c98573d6000803e3d6000fd5b505050506040513d6020811015613cae57600080fd5b5051613cf2576040805160e560020a62461bcd02815260206004820152601260248201526000805160206150c3833981519152604482015290519081900360640190fd5b505050505050505050565b600480546040805160e260020a63352c7373028152928301879052600160a060020a0385811660248501529051606093919092169163d4b1cdcc91604480820192602092909190829003018186803b158015613d5857600080fd5b505afa158015613d6c573d6000803e3d6000fd5b505050506040513d6020811015613d8257600080fd5b5051613dc25760405160e560020a62461bcd028152600401808060200182810382526031815260200180614fb66031913960400191505060405180910390fd5b8315613e1f576000858152600260209081526040808320600160a060020a0387168452909152902054613dfb908563ffffffff6149cc16565b6000868152600260209081526040808320600160a060020a03881684529091529020555b6000606084600160a060020a0316846040518082805190602001908083835b60208310613e5d5780518252601f199092019160209182019101613e3e565b6001836020036101000a0380198251168184511680821785525050505050509050019150506000604051808303816000865af19150503d8060008114613ebf576040519150601f19603f3d011682016040523d82523d6000602084013e613ec4565b606091505b509150915081613f1e576040805160e560020a62461bcd02815260206004820152601860248201527f43616c6c20776173206e6f74207375636365737366756c2e0000000000000000604482015290519081900360640190fd5b9695505050505050565b600160a060020a038216301415613f735760405160e560020a62461bcd0281526004018080602001828103825260378152602001806150696037913960400191505060405180910390fd5b600083815260016020526040902054811115613fc35760405160e560020a62461bcd0281526004018080602001828103825260368152602001806152576036913960400191505060405180910390fd5b600083815260016020526040902054613fe2908263ffffffff614fa016565b60008481526001602090815260408083209390935560065483517fa9059cbb000000000000000000000000000000000000000000000000000000008152600160a060020a038781166004830152602482018790529451949091169363a9059cbb93604480840194938390030190829087803b15801561406057600080fd5b505af1158015614074573d6000803e3d6000fd5b505050506040513d602081101561408a57600080fd5b50516140e0576040805160e560020a62461bcd02815260206004820152601960248201527f5472616e736665722077617320756e7375636365737366756c00000000000000604482015290519081900360640190fd5b604080518281529051600160a060020a0384169185917faaa7de357803e36044e97c4f0d438a72b371380bff06b41e9b921b8f61cb489e9181900360200190a3505050565b600480546040805160e260020a63352c7373028152928301889052600160a060020a038781166024850152905191169163d4b1cdcc916044808301926020929190829003018186803b15801561417a57600080fd5b505afa15801561418e573d6000803e3d6000fd5b505050506040513d60208110156141a457600080fd5b5051156141e55760405160e560020a62461bcd0281526004018080602001828103825260278152602001806151576027913960400191505060405180910390fd5b60408051600180825281830190925260609160208083019080388339019050509050848160008151811061421557fe5b600160a060020a0392831660209182029290920181019190915260048054604080517f010887dc0000000000000000000000000000000000000000000000000000000081529283018b815260248401918252865160448501528651929095169463010887dc948c948894929392606490910191858101910280838360005b838110156142ab578181015183820152602001614293565b505050509050019350505050600060405180830381600087803b1580156142d157600080fd5b505af11580156142e5573d6000803e3d6000fd5b505050508315614527576000868152600260209081526040808320600160a060020a0389168085529083529281902086905580517f71790251000000000000000000000000000000000000000000000000000000008152905188939263717902519260048082019391829003018186803b15801561436257600080fd5b505afa158015614376573d6000803e3d6000fd5b505050506040513d602081101561438c57600080fd5b5051156144e5576040517f90bfaf400000000000000000000000000000000000000000000000000000000081526004810188815260248201869052606060448301908152855160648401528551600160a060020a038516936390bfaf40938c938a938a9360840190602085019080838360005b838110156144175781810151838201526020016143ff565b50505050905090810190601f1680156144445780820380516001836020036101000a031916815260200191505b50945050505050602060405180830381600087803b15801561446557600080fd5b505af1158015614479573d6000803e3d6000fd5b505050506040513d602081101561448f57600080fd5b50516144e5576040805160e560020a62461bcd02815260206004820152601060248201527f5369676e207570206661696c7572652e00000000000000000000000000000000604482015290519081900360640190fd5b604080518581529051600160a060020a0388169189917fa5a2dcb81990508894586bccd9070af644f5b33c720292251377ad26fc26b8809181900360200190a3505b505050505050565b8051825114614588576040805160e560020a62461bcd02815260206004820152601160248201527f4d616c666f726d656420696e707574732e000000000000000000000000000000604482015290519081900360640190fd5b60005b8251811015612c3e576004548351600160a060020a039091169063d4b1cdcc9086908690859081106145b957fe5b60200260200101516040518363ffffffff1660e060020a0281526004018083815260200182600160a060020a0316600160a060020a031681526020019250505060206040518083038186803b15801561461157600080fd5b505afa158015614625573d6000803e3d6000fd5b505050506040513d602081101561463b57600080fd5b505161467b5760405160e560020a62461bcd0281526004018080602001828103825260238152602001806150a06023913960400191505060405180910390fd5b81818151811061468757fe5b60200260200101516002600086815260200190815260200160002060008584815181106146b057fe5b6020026020010151600160a060020a0316600160a060020a03168152602001908152602001600020819055508281815181106146e857fe5b6020026020010151600160a060020a0316847ffb55528a8074c988c79fef57f3a73aebf780773d5152d785bbaf700c9e3532d384848151811061472757fe5b60200260200101516040518082815260200191505060405180910390a360010161458b565b808042101580156147605750600954810142105b6147a2576040805160e560020a62461bcd02815260206004820152601760248201526000805160206151d7833981519152604482015290519081900360640190fd5b600460009054906101000a9004600160a060020a0316600160a060020a0316638677ebe88c601960f860020a02600060f860020a02308f8f8f8f8f8c604051602001808a600160f860020a031916600160f860020a031916815260010189600160f860020a031916600160f860020a031916815260010188600160a060020a0316600160a060020a0316606060020a028152601401806151206037913960370187815260200186600160a060020a0316600160a060020a0316606060020a028152601401851515151560f860020a02815260010184815260200183805190602001908083835b602083106148a75780518252601f199092019160209182019101614888565b6001836020036101000a0380198251168184511680821785525050505050509050018281526020019950505050505050505050604051602081830303815290604052805190602001208888886040518663ffffffff1660e060020a0281526004018086600160a060020a0316600160a060020a031681526020018581526020018460ff1660ff1681526020018381526020018281526020019550505050505060206040518083038186803b15801561495e57600080fd5b505afa158015614972573d6000803e3d6000fd5b505050506040513d602081101561498857600080fd5b50516117b7576040805160e560020a62461bcd02815260206004820152601260248201526000805160206150c3833981519152604482015290519081900360640190fd5b6000828201838110156149de57600080fd5b9392505050565b600480546040805160e260020a63352c7373028152928301879052600160a060020a038681166024850152905191169163d4b1cdcc916044808301926020929190829003018186803b158015614a3a57600080fd5b505afa158015614a4e573d6000803e3d6000fd5b505050506040513d6020811015614a6457600080fd5b5051614aa45760405160e560020a62461bcd02815260040180806020018281038252602781526020018061528d6027913960400191505060405180910390fd5b6000848152600260209081526040808320600160a060020a03871684529091528120558115614cc157600083905080600160a060020a0316638f06492d6040518163ffffffff1660e060020a02815260040160206040518083038186803b158015614b0e57600080fd5b505afa158015614b22573d6000803e3d6000fd5b505050506040513d6020811015614b3857600080fd5b505115614c8957604080517f9182621a0000000000000000000000000000000000000000000000000000000081526004810187815260248201928352845160448301528451600160a060020a03851693639182621a938a93889390929160640190602085019080838360005b83811015614bbc578181015183820152602001614ba4565b50505050905090810190601f168015614be95780820380516001836020036101000a031916815260200191505b509350505050602060405180830381600087803b158015614c0957600080fd5b505af1158015614c1d573d6000803e3d6000fd5b505050506040513d6020811015614c3357600080fd5b5051614c89576040805160e560020a62461bcd02815260206004820152601060248201527f52656d6f76616c206661696c7572652e00000000000000000000000000000000604482015290519081900360640190fd5b604051600160a060020a0385169086907fd1b5265e776cc74b7c19e1f79f0eb431189105741c07f3bb870f17ce3ba4aed890600090a3505b604080516001808252818301909252606091602080830190803883390190505090508381600081518110614cf157fe5b600160a060020a0392831660209182029290920181019190915260048054604080517f5726f6600000000000000000000000000000000000000000000000000000000081529283018a8152602484019182528651604485015286519290951694635726f660948b948894929392606490910191858101910280838360005b83811015614d87578181015183820152602001614d6f565b505050509050019350505050600060405180830381600087803b158015614dad57600080fd5b505af1158015613cf2573d6000803e3d6000fd5b60045460405160f860020a6019026020820181815260006021840181905230606060020a81026022860152600160a060020a0390951694638677ebe8948f94938f918f918f918f918c91603601603d6150e38239603d8101879052606060020a600160a060020a03871602605d82015260f860020a851515026071820152835160729091019060208501908083835b60208310614e6f5780518252601f199092019160209182019101614e50565b6001836020036101000a03801982511681845116808217855250505050505090500182815260200198505050505050505050604051602081830303815290604052805190602001208787876040518663ffffffff1660e060020a0281526004018086600160a060020a0316600160a060020a031681526020018581526020018460ff1660ff1681526020018381526020018281526020019550505050505060206040518083038186803b158015613c8457600080fd5b600160a060020a038116614f3857600080fd5b60008054604051600160a060020a03808516939216917f8be0079c531659141344cd1fd0a4f28419497f9722a3daafe3b4186f6b6457e091a36000805473ffffffffffffffffffffffffffffffffffffffff1916600160a060020a0392909216919091179055565b600082821115614faf57600080fd5b5090039056fe44657374696e6174696f6e20686173206e6f74206265656e207365742062792066726f6d20746f6b656e686f6c6465722e54686520726563697069656e742045494e20646f6573206e6f742065786973742e546865206d73672e73656e646572206973206e6f7420612050726f766964657220666f7220746865207061737365642045494e5265736f6c76657220686173206e6f74206265656e207365742062792066726f6d20746f6b656e686f6c6465722e43616e6e6f74207472616e7366657220746f2074686520536e6f77666c616b6520736d61727420636f6e747261637420697473656c662e4964656e7469747920686173206e6f74207365742074686973207265736f6c7665722e5065726d697373696f6e2064656e6965642e00000000000000000000000000004920617574686f72697a652074686174207468657365205265736f6c766572732062652072656d6f7665642066726f6d206d79204964656e746974792e4920617574686f72697a6520746861742074686973207265736f6c76657220626520616464656420746f206d79204964656e746974792e4964656e746974792068617320616c7265616479207365742074686973207265736f6c7665722e4920617574686f72697a652074686973206368616e6765206f66205265636f7665727920416464726573732e53656e646572206973206e6f742074686520485944524f20746f6b656e20736d61727420636f6e74726163742e54696d657374616d70206973206e6f742076616c69642e0000000000000000004920617574686f72697a6520746861742074686573652050726f7669646572732062652072656d6f7665642066726f6d206d79204964656e746974792e556e61626c6520746f207472616e7366657220746f6b656e206f776e6572736869702e43616e6e6f74207769746864726177206d6f7265207468616e207468652063757272656e74206465706f7369742062616c616e63652e4964656e7469747920686173206e6f7420796574207365742074686973207265736f6c7665722e4920617574686f72697a6520746861742074686573652050726f76696465727320626520616464656420746f206d79204964656e746974792e4920617574686f72697a652074686973206368616e676520696e205265736f6c76657220616c6c6f77616e6365732ea165627a7a72305820d48569298f9e0a4ffcb2d284dfff7ad9bc7fdbb6bb18f0d713c65d18b3dd6d850029",
  "source": "pragma solidity ^0.5.0;\n\nimport \"./zeppelin/ownership/Ownable.sol\";\nimport \"./zeppelin/math/SafeMath.sol\";\n\nimport \"./interfaces/HydroInterface.sol\";\nimport \"./interfaces/SnowflakeResolverInterface.sol\";\nimport \"./interfaces/SnowflakeViaInterface.sol\";\nimport \"./interfaces/IdentityRegistryInterface.sol\";\nimport \"./interfaces/ClientRaindropInterface.sol\";\n\ncontract Snowflake is Ownable {\n    using SafeMath for uint;\n\n    // mapping of EIN to hydro token deposits\n    mapping (uint => uint) public deposits;\n    // mapping from EIN to resolver to allowance\n    mapping (uint => mapping (address => uint)) public resolverAllowances;\n\n    // SC variables\n    address public identityRegistryAddress;\n    IdentityRegistryInterface private identityRegistry;\n    address public hydroTokenAddress;\n    HydroInterface private hydroToken;\n    address public clientRaindropAddress;\n    ClientRaindropInterface private clientRaindrop;\n\n    // signature variables\n    uint public signatureTimeout = 1 days;\n    mapping (uint => uint) public signatureNonce;\n\n    constructor (address _identityRegistryAddress, address _hydroTokenAddress) public {\n        setAddresses(_identityRegistryAddress, _hydroTokenAddress);\n    }\n\n    // enforces that a particular EIN exists\n    modifier identityExists(uint ein, bool check) {\n        require(identityRegistry.identityExists(ein) == check, \"The EIN does not exist.\");\n        _;\n    }\n\n    // enforces signature timeouts\n    modifier ensureSignatureTimeValid(uint timestamp) {\n        require(\n            // solium-disable-next-line security/no-block-members\n            block.timestamp >= timestamp && block.timestamp < timestamp + signatureTimeout, \"Timestamp is not valid.\"\n        );\n        _;\n    }\n\n\n    // set the hydro token and identity registry addresses\n    function setAddresses(address _identityRegistryAddress, address _hydroTokenAddress) public onlyOwner {\n        identityRegistryAddress = _identityRegistryAddress;\n        identityRegistry = IdentityRegistryInterface(identityRegistryAddress);\n\n        hydroTokenAddress = _hydroTokenAddress;\n        hydroToken = HydroInterface(hydroTokenAddress);\n    }\n\n    function setClientRaindropAddress(address _clientRaindropAddress) public onlyOwner {\n        clientRaindropAddress = _clientRaindropAddress;\n        clientRaindrop = ClientRaindropInterface(clientRaindropAddress);\n    }\n\n    // wrap createIdentityDelegated and initialize the client raindrop resolver\n    function createIdentityDelegated(\n        address recoveryAddress, address associatedAddress, address[] memory providers, string memory casedHydroId,\n        uint8 v, bytes32 r, bytes32 s, uint timestamp\n    )\n        public returns (uint ein)\n    {\n        address[] memory _providers = new address[](providers.length + 1);\n        _providers[0] = address(this);\n        for (uint i; i < providers.length; i++) {\n            _providers[i + 1] = providers[i];\n        }\n\n        uint _ein = identityRegistry.createIdentityDelegated(\n            recoveryAddress, associatedAddress, _providers, new address[](0), v, r, s, timestamp\n        );\n\n        _addResolver(_ein, clientRaindropAddress, true, 0, abi.encode(associatedAddress, casedHydroId));\n\n        return _ein;\n    }\n\n    // permission addProvidersFor by signature\n    function addProvidersFor(\n        address approvingAddress, address[] memory providers, uint8 v, bytes32 r, bytes32 s, uint timestamp\n    )\n        public ensureSignatureTimeValid(timestamp)\n    {\n        uint ein = identityRegistry.getEIN(approvingAddress);\n        require(\n            identityRegistry.isSigned(\n                approvingAddress,\n                keccak256(\n                    abi.encodePacked(\n                        byte(0x19), byte(0), address(this),\n                        \"I authorize that these Providers be added to my Identity.\",\n                        ein, providers, timestamp\n                    )\n                ),\n                v, r, s\n            ),\n            \"Permission denied.\"\n        );\n\n        identityRegistry.addProvidersFor(ein, providers);\n    }\n\n    // permission removeProvidersFor by signature\n    function removeProvidersFor(\n        address approvingAddress, address[] memory providers, uint8 v, bytes32 r, bytes32 s, uint timestamp\n    )\n        public ensureSignatureTimeValid(timestamp)\n    {\n        uint ein = identityRegistry.getEIN(approvingAddress);\n        require(\n            identityRegistry.isSigned(\n                approvingAddress,\n                keccak256(\n                    abi.encodePacked(\n                        byte(0x19), byte(0), address(this),\n                        \"I authorize that these Providers be removed from my Identity.\",\n                        ein, providers, timestamp\n                    )\n                ),\n                v, r, s\n            ),\n            \"Permission denied.\"\n        );\n\n        identityRegistry.removeProvidersFor(ein, providers);\n    }\n\n    // permissioned addProvidersFor and removeProvidersFor by signature\n    function upgradeProvidersFor(\n        address approvingAddress, address[] memory newProviders, address[] memory oldProviders,\n        uint8[2] memory v, bytes32[2] memory r, bytes32[2] memory s, uint[2] memory timestamp\n    )\n        public\n    {\n        addProvidersFor(approvingAddress, newProviders, v[0], r[0], s[0], timestamp[0]);\n        removeProvidersFor(approvingAddress, oldProviders, v[1], r[1], s[1], timestamp[1]);\n        uint ein = identityRegistry.getEIN(approvingAddress);\n        emit SnowflakeProvidersUpgraded(ein, newProviders, oldProviders, approvingAddress);\n    }\n\n    // permission adding a resolver for identity of msg.sender\n    function addResolver(address resolver, bool isSnowflake, uint withdrawAllowance, bytes memory extraData) public {\n        _addResolver(identityRegistry.getEIN(msg.sender), resolver, isSnowflake, withdrawAllowance, extraData);\n    }\n\n    // permission adding a resolver for identity passed by a provider\n    function addResolverAsProvider(\n        uint ein, address resolver, bool isSnowflake, uint withdrawAllowance, bytes memory extraData\n    )\n        public\n    {\n        require(identityRegistry.isProviderFor(ein, msg.sender), \"The msg.sender is not a Provider for the passed EIN\");\n        _addResolver(ein, resolver, isSnowflake, withdrawAllowance, extraData);\n    }\n\n    // permission addResolversFor by signature\n    function addResolverFor(\n        address approvingAddress, address resolver, bool isSnowflake, uint withdrawAllowance, bytes memory extraData,\n        uint8 v, bytes32 r, bytes32 s, uint timestamp\n    )\n        public\n    {\n        uint ein = identityRegistry.getEIN(approvingAddress);\n\n        validateAddResolverForSignature(\n            approvingAddress, ein, resolver, isSnowflake, withdrawAllowance, extraData, v, r, s, timestamp\n        );\n\n        _addResolver(ein, resolver, isSnowflake, withdrawAllowance, extraData);\n    }\n\n    function validateAddResolverForSignature(\n        address approvingAddress, uint ein,\n        address resolver, bool isSnowflake, uint withdrawAllowance, bytes memory extraData,\n        uint8 v, bytes32 r, bytes32 s, uint timestamp\n    )\n        private view ensureSignatureTimeValid(timestamp)\n    {\n        require(\n            identityRegistry.isSigned(\n                approvingAddress,\n                keccak256(\n                    abi.encodePacked(\n                        byte(0x19), byte(0), address(this),\n                        \"I authorize that this resolver be added to my Identity.\",\n                        ein, resolver, isSnowflake, withdrawAllowance, extraData, timestamp\n                    )\n                ),\n                v, r, s\n            ),\n            \"Permission denied.\"\n        );\n    }\n\n    // common logic for adding resolvers\n    function _addResolver(uint ein, address resolver, bool isSnowflake, uint withdrawAllowance, bytes memory extraData)\n        private\n    {\n        require(!identityRegistry.isResolverFor(ein, resolver), \"Identity has already set this resolver.\");\n\n        address[] memory resolvers = new address[](1);\n        resolvers[0] = resolver;\n        identityRegistry.addResolversFor(ein, resolvers);\n\n        if (isSnowflake) {\n            resolverAllowances[ein][resolver] = withdrawAllowance;\n            SnowflakeResolverInterface snowflakeResolver = SnowflakeResolverInterface(resolver);\n            if (snowflakeResolver.callOnAddition())\n                require(snowflakeResolver.onAddition(ein, withdrawAllowance, extraData), \"Sign up failure.\");\n            emit SnowflakeResolverAdded(ein, resolver, withdrawAllowance);\n        }\n    }\n\n    // permission changing resolver allowances for identity of msg.sender\n    function changeResolverAllowances(address[] memory resolvers, uint[] memory withdrawAllowances) public {\n        changeResolverAllowances(identityRegistry.getEIN(msg.sender), resolvers, withdrawAllowances);\n    }\n\n    // change resolver allowances delegated\n    function changeResolverAllowancesDelegated(\n        address approvingAddress, address[] memory resolvers, uint[] memory withdrawAllowances,\n        uint8 v, bytes32 r, bytes32 s\n    )\n        public\n    {\n        uint ein = identityRegistry.getEIN(approvingAddress);\n\n        uint nonce = signatureNonce[ein]++;\n        require(\n            identityRegistry.isSigned(\n                approvingAddress,\n                keccak256(\n                    abi.encodePacked(\n                        byte(0x19), byte(0), address(this),\n                        \"I authorize this change in Resolver allowances.\",\n                        ein, resolvers, withdrawAllowances, nonce\n                    )\n                ),\n                v, r, s\n            ),\n            \"Permission denied.\"\n        );\n\n        changeResolverAllowances(ein, resolvers, withdrawAllowances);\n    }\n\n    // common logic to change resolver allowances\n    function changeResolverAllowances(uint ein, address[] memory resolvers, uint[] memory withdrawAllowances) private {\n        require(resolvers.length == withdrawAllowances.length, \"Malformed inputs.\");\n\n        for (uint i; i < resolvers.length; i++) {\n            require(identityRegistry.isResolverFor(ein, resolvers[i]), \"Identity has not set this resolver.\");\n            resolverAllowances[ein][resolvers[i]] = withdrawAllowances[i];\n            emit SnowflakeResolverAllowanceChanged(ein, resolvers[i], withdrawAllowances[i]);\n        }\n    }\n\n    // permission removing a resolver for identity of msg.sender\n    function removeResolver(address resolver, bool isSnowflake, bytes memory extraData) public {\n        removeResolver(identityRegistry.getEIN(msg.sender), resolver, isSnowflake, extraData);\n    }\n\n    // permission removeResolverFor by signature\n    function removeResolverFor(\n        address approvingAddress, address resolver, bool isSnowflake, bytes memory extraData,\n        uint8 v, bytes32 r, bytes32 s, uint timestamp\n    )\n        public ensureSignatureTimeValid(timestamp)\n    {\n        uint ein = identityRegistry.getEIN(approvingAddress);\n\n        validateRemoveResolverForSignature(approvingAddress, ein, resolver, isSnowflake, extraData, v, r, s, timestamp);\n\n        removeResolver(ein, resolver, isSnowflake, extraData);\n    }\n\n    function validateRemoveResolverForSignature(\n        address approvingAddress, uint ein, address resolver, bool isSnowflake, bytes memory extraData,\n        uint8 v, bytes32 r, bytes32 s, uint timestamp\n    )\n        private view\n    {\n        require(\n            identityRegistry.isSigned(\n                approvingAddress,\n                keccak256(\n                    abi.encodePacked(\n                        byte(0x19), byte(0), address(this),\n                        \"I authorize that these Resolvers be removed from my Identity.\",\n                        ein, resolver, isSnowflake, extraData, timestamp\n                    )\n                ),\n                v, r, s\n            ),\n            \"Permission denied.\"\n        );\n    }\n\n    // common logic to remove resolvers\n    function removeResolver(uint ein, address resolver, bool isSnowflake, bytes memory extraData) private {\n        require(identityRegistry.isResolverFor(ein, resolver), \"Identity has not yet set this resolver.\");\n    \n        delete resolverAllowances[ein][resolver];\n    \n        if (isSnowflake) {\n            SnowflakeResolverInterface snowflakeResolver = SnowflakeResolverInterface(resolver);\n            if (snowflakeResolver.callOnRemoval())\n                require(snowflakeResolver.onRemoval(ein, extraData), \"Removal failure.\");\n            emit SnowflakeResolverRemoved(ein, resolver);\n        }\n\n        address[] memory resolvers = new address[](1);\n        resolvers[0] = resolver;\n        identityRegistry.removeResolversFor(ein, resolvers);\n    }\n\n    function triggerRecoveryAddressChangeFor(\n        address approvingAddress, address newRecoveryAddress, uint8 v, bytes32 r, bytes32 s\n    )\n        public\n    {\n        uint ein = identityRegistry.getEIN(approvingAddress);\n        uint nonce = signatureNonce[ein]++;\n        require(\n            identityRegistry.isSigned(\n                approvingAddress,\n                keccak256(\n                    abi.encodePacked(\n                        byte(0x19), byte(0), address(this),\n                        \"I authorize this change of Recovery Address.\",\n                        ein, newRecoveryAddress, nonce\n                    )\n                ),\n                v, r, s\n            ),\n            \"Permission denied.\"\n        );\n\n        identityRegistry.triggerRecoveryAddressChangeFor(ein, newRecoveryAddress);\n    }\n\n    // allow contract to receive HYDRO tokens\n    function receiveApproval(address sender, uint amount, address _tokenAddress, bytes memory _bytes) public {\n        require(msg.sender == _tokenAddress, \"Malformed inputs.\");\n        require(_tokenAddress == hydroTokenAddress, \"Sender is not the HYDRO token smart contract.\");\n\n        // depositing to an EIN\n        if (_bytes.length <= 32) {\n            require(hydroToken.transferFrom(sender, address(this), amount), \"Unable to transfer token ownership.\");\n            uint recipient;\n            if (_bytes.length < 32) {\n                recipient = identityRegistry.getEIN(sender);\n            }\n            else {\n                recipient = abi.decode(_bytes, (uint));\n                require(identityRegistry.identityExists(recipient), \"The recipient EIN does not exist.\");\n            }\n            deposits[recipient] = deposits[recipient].add(amount);\n            emit SnowflakeDeposit(sender, recipient, amount);\n        }\n        // transferring to a via\n        else {\n            (\n                bool isTransfer, address resolver, address via, uint to, bytes memory snowflakeCallBytes\n            ) = abi.decode(_bytes, (bool, address, address, uint, bytes));\n            \n            require(hydroToken.transferFrom(sender, via, amount), \"Unable to transfer token ownership.\");\n\n            SnowflakeViaInterface viaContract = SnowflakeViaInterface(via);\n            if (isTransfer) {\n                viaContract.snowflakeCall(resolver, to, amount, snowflakeCallBytes);\n                emit SnowflakeTransferToVia(resolver, via, to, amount);\n            } else {\n                address payable payableTo = address(to);\n                viaContract.snowflakeCall(resolver, payableTo, amount, snowflakeCallBytes);\n                emit SnowflakeWithdrawToVia(resolver, via, address(to), amount);\n            }\n        }\n    }\n\n    // transfer snowflake balance from one snowflake holder to another\n    function transferSnowflakeBalance(uint einTo, uint amount) public {\n        _transfer(identityRegistry.getEIN(msg.sender), einTo, amount);\n    }\n\n    // withdraw Snowflake balance to an external address\n    function withdrawSnowflakeBalance(address to, uint amount) public {\n        _withdraw(identityRegistry.getEIN(msg.sender), to, amount);\n    }\n\n    // allows resolvers to transfer allowance amounts to other snowflakes (throws if unsuccessful)\n    function transferSnowflakeBalanceFrom(uint einFrom, uint einTo, uint amount) public {\n        handleAllowance(einFrom, amount);\n        _transfer(einFrom, einTo, amount);\n        emit SnowflakeTransferFrom(msg.sender);\n    }\n\n    // allows resolvers to withdraw allowance amounts to external addresses (throws if unsuccessful)\n    function withdrawSnowflakeBalanceFrom(uint einFrom, address to, uint amount) public {\n        handleAllowance(einFrom, amount);\n        _withdraw(einFrom, to, amount);\n        emit SnowflakeWithdrawFrom(msg.sender);\n    }\n\n    // allows resolvers to send withdrawal amounts to arbitrary smart contracts 'to' identities (throws if unsuccessful)\n    function transferSnowflakeBalanceFromVia(uint einFrom, address via, uint einTo, uint amount, bytes memory _bytes)\n        public\n    {\n        handleAllowance(einFrom, amount);\n        _withdraw(einFrom, via, amount);\n        SnowflakeViaInterface viaContract = SnowflakeViaInterface(via);\n        viaContract.snowflakeCall(msg.sender, einFrom, einTo, amount, _bytes);\n        emit SnowflakeTransferFromVia(msg.sender, einTo);\n    }\n\n    // allows resolvers to send withdrawal amounts 'to' addresses via arbitrary smart contracts\n    function withdrawSnowflakeBalanceFromVia(\n        uint einFrom, address via, address payable to, uint amount, bytes memory _bytes\n    )\n        public\n    {\n        handleAllowance(einFrom, amount);\n        _withdraw(einFrom, via, amount);\n        SnowflakeViaInterface viaContract = SnowflakeViaInterface(via);\n        viaContract.snowflakeCall(msg.sender, einFrom, to, amount, _bytes);\n        emit SnowflakeWithdrawFromVia(msg.sender, to);\n    }\n\n    function _transfer(uint einFrom, uint einTo, uint amount) private identityExists(einTo, true) returns (bool) {\n        require(deposits[einFrom] >= amount, \"Cannot withdraw more than the current deposit balance.\");\n        deposits[einFrom] = deposits[einFrom].sub(amount);\n        deposits[einTo] = deposits[einTo].add(amount);\n\n        emit SnowflakeTransfer(einFrom, einTo, amount);\n    }\n\n    function _withdraw(uint einFrom, address to, uint amount) internal {\n        require(to != address(this), \"Cannot transfer to the Snowflake smart contract itself.\");\n\n        require(deposits[einFrom] >= amount, \"Cannot withdraw more than the current deposit balance.\");\n        deposits[einFrom] = deposits[einFrom].sub(amount);\n        require(hydroToken.transfer(to, amount), \"Transfer was unsuccessful\");\n\n        emit SnowflakeWithdraw(einFrom, to, amount);\n    }\n\n    function handleAllowance(uint einFrom, uint amount) internal {\n        // check that resolver-related details are correct\n        require(identityRegistry.isResolverFor(einFrom, msg.sender), \"Resolver has not been set by from tokenholder.\");\n\n        if (resolverAllowances[einFrom][msg.sender] < amount) {\n            emit SnowflakeInsufficientAllowance(einFrom, msg.sender, resolverAllowances[einFrom][msg.sender], amount);\n            revert(\"Insufficient Allowance\");\n        }\n\n        resolverAllowances[einFrom][msg.sender] = resolverAllowances[einFrom][msg.sender].sub(amount);\n    }\n\n    // allowAndCall from msg.sender\n    function allowAndCall(address destination, uint amount, bytes memory data)\n        public returns (bytes memory returnData)\n    {\n        return allowAndCall(identityRegistry.getEIN(msg.sender), amount, destination, data);\n    }\n\n    // allowAndCall from approvingAddress with meta-transaction\n    function allowAndCallDelegated(\n        address destination, uint amount, bytes memory data, address approvingAddress, uint8 v, bytes32 r, bytes32 s\n    )\n        public returns (bytes memory returnData)\n    {\n        uint ein = identityRegistry.getEIN(approvingAddress);\n        uint nonce = signatureNonce[ein]++;\n        validateAllowAndCallDelegatedSignature(approvingAddress, ein, destination, amount, data, nonce, v, r, s);\n\n        return allowAndCall(ein, amount, destination, data);\n    }\n\n    function validateAllowAndCallDelegatedSignature(\n        address approvingAddress, uint ein, address destination, uint amount, bytes memory data, uint nonce,\n        uint8 v, bytes32 r, bytes32 s\n    )\n        private view\n    {\n        require(\n            identityRegistry.isSigned(\n                approvingAddress,\n                keccak256(\n                    abi.encodePacked(\n                        byte(0x19), byte(0), address(this),\n                        \"I authorize this allow and call.\", ein, destination, amount, data, nonce\n                    )\n                ),\n                v, r, s\n            ),\n            \"Permission denied.\"\n        );\n    }\n\n    // internal logic for allowAndCall\n    function allowAndCall(uint ein, uint amount, address destination, bytes memory data)\n        private returns (bytes memory returnData)\n    {\n        // check that resolver-related details are correct\n        require(identityRegistry.isResolverFor(ein, destination), \"Destination has not been set by from tokenholder.\");\n        if (amount != 0) {\n            resolverAllowances[ein][destination] = resolverAllowances[ein][destination].add(amount);\n        }\n\n        // solium-disable-next-line security/no-low-level-calls\n        (bool success, bytes memory _returnData) = destination.call(data);\n        require(success, \"Call was not successful.\");\n        return _returnData;\n    }\n\n    // events\n    event SnowflakeProvidersUpgraded(uint indexed ein, address[] newProviders, address[] oldProviders, address approvingAddress);\n\n    event SnowflakeResolverAdded(uint indexed ein, address indexed resolver, uint withdrawAllowance);\n    event SnowflakeResolverAllowanceChanged(uint indexed ein, address indexed resolver, uint withdrawAllowance);\n    event SnowflakeResolverRemoved(uint indexed ein, address indexed resolver);\n\n    event SnowflakeDeposit(address indexed from, uint indexed einTo, uint amount);\n    event SnowflakeTransfer(uint indexed einFrom, uint indexed einTo, uint amount);\n    event SnowflakeWithdraw(uint indexed einFrom, address indexed to, uint amount);\n\n    event SnowflakeTransferFrom(address indexed resolverFrom);\n    event SnowflakeWithdrawFrom(address indexed resolverFrom);\n    event SnowflakeTransferFromVia(address indexed resolverFrom, uint indexed einTo);\n    event SnowflakeWithdrawFromVia(address indexed resolverFrom, address indexed to);\n    event SnowflakeTransferToVia(address indexed resolverFrom, address indexed via, uint indexed einTo, uint amount);\n    event SnowflakeWithdrawToVia(address indexed resolverFrom, address indexed via, address indexed to, uint amount);\n\n    event SnowflakeInsufficientAllowance(\n        uint indexed ein, address indexed resolver, uint currentAllowance, uint requestedWithdraw\n    );\n}\n",
  "sourcePath": "/home/luiserebii/github/HydroSnowflake-Marketplace-Coupons/contracts/Snowflake.sol",
  "compiler": {
    "name": "solc",
    "version": "0.5.7+commit.6da8b019.Emscripten.clang"
  },
  "schemaVersion": "3.0.6",
  "updatedAt": "2019-04-16T02:44:05.160Z",
  "devdoc": {
    "methods": {
      "isOwner()": {
        "return": "true if `msg.sender` is the owner of the contract."
      },
      "owner()": {
        "return": "the address of the owner."
      },
      "renounceOwnership()": {
        "details": "Allows the current owner to relinquish control of the contract."
      },
      "transferOwnership(address)": {
        "details": "Allows the current owner to transfer control of the contract to a newOwner.",
        "params": {
          "newOwner": "The address to transfer ownership to."
        }
      }
    }
  },
  "userdoc": {
    "methods": {
      "renounceOwnership()": {
        "notice": "Renouncing to ownership will leave the contract without an owner. It will not be possible to call the functions with the `onlyOwner` modifier anymore."
      }
    }
  }
}