{
  "contractName": "Snowflake",
  "abi": [
    {
      "constant": true,
      "inputs": [
        {
          "name": "",
          "type": "uint256"
        }
      ],
      "name": "signatureNonce",
      "outputs": [
        {
          "name": "",
          "type": "uint256"
        }
      ],
      "payable": false,
      "stateMutability": "view",
      "type": "function"
    },
    {
      "constant": true,
      "inputs": [],
      "name": "clientRaindropAddress",
      "outputs": [
        {
          "name": "",
          "type": "address"
        }
      ],
      "payable": false,
      "stateMutability": "view",
      "type": "function"
    },
    {
      "constant": true,
      "inputs": [],
      "name": "signatureTimeout",
      "outputs": [
        {
          "name": "",
          "type": "uint256"
        }
      ],
      "payable": false,
      "stateMutability": "view",
      "type": "function"
    },
    {
      "constant": false,
      "inputs": [],
      "name": "renounceOwnership",
      "outputs": [],
      "payable": false,
      "stateMutability": "nonpayable",
      "type": "function"
    },
    {
      "constant": true,
      "inputs": [],
      "name": "hydroTokenAddress",
      "outputs": [
        {
          "name": "",
          "type": "address"
        }
      ],
      "payable": false,
      "stateMutability": "view",
      "type": "function"
    },
    {
      "constant": true,
      "inputs": [],
      "name": "owner",
      "outputs": [
        {
          "name": "",
          "type": "address"
        }
      ],
      "payable": false,
      "stateMutability": "view",
      "type": "function"
    },
    {
      "constant": true,
      "inputs": [],
      "name": "isOwner",
      "outputs": [
        {
          "name": "",
          "type": "bool"
        }
      ],
      "payable": false,
      "stateMutability": "view",
      "type": "function"
    },
    {
      "constant": true,
      "inputs": [],
      "name": "identityRegistryAddress",
      "outputs": [
        {
          "name": "",
          "type": "address"
        }
      ],
      "payable": false,
      "stateMutability": "view",
      "type": "function"
    },
    {
      "constant": true,
      "inputs": [
        {
          "name": "",
          "type": "uint256"
        }
      ],
      "name": "deposits",
      "outputs": [
        {
          "name": "",
          "type": "uint256"
        }
      ],
      "payable": false,
      "stateMutability": "view",
      "type": "function"
    },
    {
      "constant": true,
      "inputs": [
        {
          "name": "",
          "type": "uint256"
        },
        {
          "name": "",
          "type": "address"
        }
      ],
      "name": "resolverAllowances",
      "outputs": [
        {
          "name": "",
          "type": "uint256"
        }
      ],
      "payable": false,
      "stateMutability": "view",
      "type": "function"
    },
    {
      "constant": false,
      "inputs": [
        {
          "name": "newOwner",
          "type": "address"
        }
      ],
      "name": "transferOwnership",
      "outputs": [],
      "payable": false,
      "stateMutability": "nonpayable",
      "type": "function"
    },
    {
      "inputs": [
        {
          "name": "_identityRegistryAddress",
          "type": "address"
        },
        {
          "name": "_hydroTokenAddress",
          "type": "address"
        }
      ],
      "payable": false,
      "stateMutability": "nonpayable",
      "type": "constructor"
    },
    {
      "anonymous": false,
      "inputs": [
        {
          "indexed": true,
          "name": "ein",
          "type": "uint256"
        },
        {
          "indexed": false,
          "name": "newProviders",
          "type": "address[]"
        },
        {
          "indexed": false,
          "name": "oldProviders",
          "type": "address[]"
        },
        {
          "indexed": false,
          "name": "approvingAddress",
          "type": "address"
        }
      ],
      "name": "SnowflakeProvidersUpgraded",
      "type": "event"
    },
    {
      "anonymous": false,
      "inputs": [
        {
          "indexed": true,
          "name": "ein",
          "type": "uint256"
        },
        {
          "indexed": true,
          "name": "resolver",
          "type": "address"
        },
        {
          "indexed": false,
          "name": "withdrawAllowance",
          "type": "uint256"
        }
      ],
      "name": "SnowflakeResolverAdded",
      "type": "event"
    },
    {
      "anonymous": false,
      "inputs": [
        {
          "indexed": true,
          "name": "ein",
          "type": "uint256"
        },
        {
          "indexed": true,
          "name": "resolver",
          "type": "address"
        },
        {
          "indexed": false,
          "name": "withdrawAllowance",
          "type": "uint256"
        }
      ],
      "name": "SnowflakeResolverAllowanceChanged",
      "type": "event"
    },
    {
      "anonymous": false,
      "inputs": [
        {
          "indexed": true,
          "name": "ein",
          "type": "uint256"
        },
        {
          "indexed": true,
          "name": "resolver",
          "type": "address"
        }
      ],
      "name": "SnowflakeResolverRemoved",
      "type": "event"
    },
    {
      "anonymous": false,
      "inputs": [
        {
          "indexed": true,
          "name": "from",
          "type": "address"
        },
        {
          "indexed": true,
          "name": "einTo",
          "type": "uint256"
        },
        {
          "indexed": false,
          "name": "amount",
          "type": "uint256"
        }
      ],
      "name": "SnowflakeDeposit",
      "type": "event"
    },
    {
      "anonymous": false,
      "inputs": [
        {
          "indexed": true,
          "name": "einFrom",
          "type": "uint256"
        },
        {
          "indexed": true,
          "name": "einTo",
          "type": "uint256"
        },
        {
          "indexed": false,
          "name": "amount",
          "type": "uint256"
        }
      ],
      "name": "SnowflakeTransfer",
      "type": "event"
    },
    {
      "anonymous": false,
      "inputs": [
        {
          "indexed": true,
          "name": "einFrom",
          "type": "uint256"
        },
        {
          "indexed": true,
          "name": "to",
          "type": "address"
        },
        {
          "indexed": false,
          "name": "amount",
          "type": "uint256"
        }
      ],
      "name": "SnowflakeWithdraw",
      "type": "event"
    },
    {
      "anonymous": false,
      "inputs": [
        {
          "indexed": true,
          "name": "resolverFrom",
          "type": "address"
        }
      ],
      "name": "SnowflakeTransferFrom",
      "type": "event"
    },
    {
      "anonymous": false,
      "inputs": [
        {
          "indexed": true,
          "name": "resolverFrom",
          "type": "address"
        }
      ],
      "name": "SnowflakeWithdrawFrom",
      "type": "event"
    },
    {
      "anonymous": false,
      "inputs": [
        {
          "indexed": true,
          "name": "resolverFrom",
          "type": "address"
        },
        {
          "indexed": true,
          "name": "einTo",
          "type": "uint256"
        }
      ],
      "name": "SnowflakeTransferFromVia",
      "type": "event"
    },
    {
      "anonymous": false,
      "inputs": [
        {
          "indexed": true,
          "name": "resolverFrom",
          "type": "address"
        },
        {
          "indexed": true,
          "name": "to",
          "type": "address"
        }
      ],
      "name": "SnowflakeWithdrawFromVia",
      "type": "event"
    },
    {
      "anonymous": false,
      "inputs": [
        {
          "indexed": true,
          "name": "resolverFrom",
          "type": "address"
        },
        {
          "indexed": true,
          "name": "via",
          "type": "address"
        },
        {
          "indexed": true,
          "name": "einTo",
          "type": "uint256"
        },
        {
          "indexed": false,
          "name": "amount",
          "type": "uint256"
        }
      ],
      "name": "SnowflakeTransferToVia",
      "type": "event"
    },
    {
      "anonymous": false,
      "inputs": [
        {
          "indexed": true,
          "name": "resolverFrom",
          "type": "address"
        },
        {
          "indexed": true,
          "name": "via",
          "type": "address"
        },
        {
          "indexed": true,
          "name": "to",
          "type": "address"
        },
        {
          "indexed": false,
          "name": "amount",
          "type": "uint256"
        }
      ],
      "name": "SnowflakeWithdrawToVia",
      "type": "event"
    },
    {
      "anonymous": false,
      "inputs": [
        {
          "indexed": true,
          "name": "ein",
          "type": "uint256"
        },
        {
          "indexed": true,
          "name": "resolver",
          "type": "address"
        },
        {
          "indexed": false,
          "name": "currentAllowance",
          "type": "uint256"
        },
        {
          "indexed": false,
          "name": "requestedWithdraw",
          "type": "uint256"
        }
      ],
      "name": "SnowflakeInsufficientAllowance",
      "type": "event"
    },
    {
      "anonymous": false,
      "inputs": [
        {
          "indexed": true,
          "name": "previousOwner",
          "type": "address"
        },
        {
          "indexed": true,
          "name": "newOwner",
          "type": "address"
        }
      ],
      "name": "OwnershipTransferred",
      "type": "event"
    },
    {
      "constant": false,
      "inputs": [
        {
          "name": "_identityRegistryAddress",
          "type": "address"
        },
        {
          "name": "_hydroTokenAddress",
          "type": "address"
        }
      ],
      "name": "setAddresses",
      "outputs": [],
      "payable": false,
      "stateMutability": "nonpayable",
      "type": "function"
    },
    {
      "constant": false,
      "inputs": [
        {
          "name": "_clientRaindropAddress",
          "type": "address"
        }
      ],
      "name": "setClientRaindropAddress",
      "outputs": [],
      "payable": false,
      "stateMutability": "nonpayable",
      "type": "function"
    },
    {
      "constant": false,
      "inputs": [
        {
          "name": "recoveryAddress",
          "type": "address"
        },
        {
          "name": "associatedAddress",
          "type": "address"
        },
        {
          "name": "providers",
          "type": "address[]"
        },
        {
          "name": "casedHydroId",
          "type": "string"
        },
        {
          "name": "v",
          "type": "uint8"
        },
        {
          "name": "r",
          "type": "bytes32"
        },
        {
          "name": "s",
          "type": "bytes32"
        },
        {
          "name": "timestamp",
          "type": "uint256"
        }
      ],
      "name": "createIdentityDelegated",
      "outputs": [
        {
          "name": "ein",
          "type": "uint256"
        }
      ],
      "payable": false,
      "stateMutability": "nonpayable",
      "type": "function"
    },
    {
      "constant": false,
      "inputs": [
        {
          "name": "approvingAddress",
          "type": "address"
        },
        {
          "name": "providers",
          "type": "address[]"
        },
        {
          "name": "v",
          "type": "uint8"
        },
        {
          "name": "r",
          "type": "bytes32"
        },
        {
          "name": "s",
          "type": "bytes32"
        },
        {
          "name": "timestamp",
          "type": "uint256"
        }
      ],
      "name": "addProvidersFor",
      "outputs": [],
      "payable": false,
      "stateMutability": "nonpayable",
      "type": "function"
    },
    {
      "constant": false,
      "inputs": [
        {
          "name": "approvingAddress",
          "type": "address"
        },
        {
          "name": "providers",
          "type": "address[]"
        },
        {
          "name": "v",
          "type": "uint8"
        },
        {
          "name": "r",
          "type": "bytes32"
        },
        {
          "name": "s",
          "type": "bytes32"
        },
        {
          "name": "timestamp",
          "type": "uint256"
        }
      ],
      "name": "removeProvidersFor",
      "outputs": [],
      "payable": false,
      "stateMutability": "nonpayable",
      "type": "function"
    },
    {
      "constant": false,
      "inputs": [
        {
          "name": "approvingAddress",
          "type": "address"
        },
        {
          "name": "newProviders",
          "type": "address[]"
        },
        {
          "name": "oldProviders",
          "type": "address[]"
        },
        {
          "name": "v",
          "type": "uint8[2]"
        },
        {
          "name": "r",
          "type": "bytes32[2]"
        },
        {
          "name": "s",
          "type": "bytes32[2]"
        },
        {
          "name": "timestamp",
          "type": "uint256[2]"
        }
      ],
      "name": "upgradeProvidersFor",
      "outputs": [],
      "payable": false,
      "stateMutability": "nonpayable",
      "type": "function"
    },
    {
      "constant": false,
      "inputs": [
        {
          "name": "resolver",
          "type": "address"
        },
        {
          "name": "isSnowflake",
          "type": "bool"
        },
        {
          "name": "withdrawAllowance",
          "type": "uint256"
        },
        {
          "name": "extraData",
          "type": "bytes"
        }
      ],
      "name": "addResolver",
      "outputs": [],
      "payable": false,
      "stateMutability": "nonpayable",
      "type": "function"
    },
    {
      "constant": false,
      "inputs": [
        {
          "name": "ein",
          "type": "uint256"
        },
        {
          "name": "resolver",
          "type": "address"
        },
        {
          "name": "isSnowflake",
          "type": "bool"
        },
        {
          "name": "withdrawAllowance",
          "type": "uint256"
        },
        {
          "name": "extraData",
          "type": "bytes"
        }
      ],
      "name": "addResolverAsProvider",
      "outputs": [],
      "payable": false,
      "stateMutability": "nonpayable",
      "type": "function"
    },
    {
      "constant": false,
      "inputs": [
        {
          "name": "approvingAddress",
          "type": "address"
        },
        {
          "name": "resolver",
          "type": "address"
        },
        {
          "name": "isSnowflake",
          "type": "bool"
        },
        {
          "name": "withdrawAllowance",
          "type": "uint256"
        },
        {
          "name": "extraData",
          "type": "bytes"
        },
        {
          "name": "v",
          "type": "uint8"
        },
        {
          "name": "r",
          "type": "bytes32"
        },
        {
          "name": "s",
          "type": "bytes32"
        },
        {
          "name": "timestamp",
          "type": "uint256"
        }
      ],
      "name": "addResolverFor",
      "outputs": [],
      "payable": false,
      "stateMutability": "nonpayable",
      "type": "function"
    },
    {
      "constant": false,
      "inputs": [
        {
          "name": "approvingAddress",
          "type": "address"
        },
        {
          "name": "resolvers",
          "type": "address[]"
        },
        {
          "name": "withdrawAllowances",
          "type": "uint256[]"
        },
        {
          "name": "v",
          "type": "uint8"
        },
        {
          "name": "r",
          "type": "bytes32"
        },
        {
          "name": "s",
          "type": "bytes32"
        }
      ],
      "name": "changeResolverAllowancesDelegated",
      "outputs": [],
      "payable": false,
      "stateMutability": "nonpayable",
      "type": "function"
    },
    {
      "constant": false,
      "inputs": [
        {
          "name": "resolvers",
          "type": "address[]"
        },
        {
          "name": "withdrawAllowances",
          "type": "uint256[]"
        }
      ],
      "name": "changeResolverAllowances",
      "outputs": [],
      "payable": false,
      "stateMutability": "nonpayable",
      "type": "function"
    },
    {
      "constant": false,
      "inputs": [
        {
          "name": "approvingAddress",
          "type": "address"
        },
        {
          "name": "resolver",
          "type": "address"
        },
        {
          "name": "isSnowflake",
          "type": "bool"
        },
        {
          "name": "extraData",
          "type": "bytes"
        },
        {
          "name": "v",
          "type": "uint8"
        },
        {
          "name": "r",
          "type": "bytes32"
        },
        {
          "name": "s",
          "type": "bytes32"
        },
        {
          "name": "timestamp",
          "type": "uint256"
        }
      ],
      "name": "removeResolverFor",
      "outputs": [],
      "payable": false,
      "stateMutability": "nonpayable",
      "type": "function"
    },
    {
      "constant": false,
      "inputs": [
        {
          "name": "resolver",
          "type": "address"
        },
        {
          "name": "isSnowflake",
          "type": "bool"
        },
        {
          "name": "extraData",
          "type": "bytes"
        }
      ],
      "name": "removeResolver",
      "outputs": [],
      "payable": false,
      "stateMutability": "nonpayable",
      "type": "function"
    },
    {
      "constant": false,
      "inputs": [
        {
          "name": "approvingAddress",
          "type": "address"
        },
        {
          "name": "newRecoveryAddress",
          "type": "address"
        },
        {
          "name": "v",
          "type": "uint8"
        },
        {
          "name": "r",
          "type": "bytes32"
        },
        {
          "name": "s",
          "type": "bytes32"
        }
      ],
      "name": "triggerRecoveryAddressChangeFor",
      "outputs": [],
      "payable": false,
      "stateMutability": "nonpayable",
      "type": "function"
    },
    {
      "constant": false,
      "inputs": [
        {
          "name": "sender",
          "type": "address"
        },
        {
          "name": "amount",
          "type": "uint256"
        },
        {
          "name": "_tokenAddress",
          "type": "address"
        },
        {
          "name": "_bytes",
          "type": "bytes"
        }
      ],
      "name": "receiveApproval",
      "outputs": [],
      "payable": false,
      "stateMutability": "nonpayable",
      "type": "function"
    },
    {
      "constant": false,
      "inputs": [
        {
          "name": "einTo",
          "type": "uint256"
        },
        {
          "name": "amount",
          "type": "uint256"
        }
      ],
      "name": "transferSnowflakeBalance",
      "outputs": [],
      "payable": false,
      "stateMutability": "nonpayable",
      "type": "function"
    },
    {
      "constant": false,
      "inputs": [
        {
          "name": "to",
          "type": "address"
        },
        {
          "name": "amount",
          "type": "uint256"
        }
      ],
      "name": "withdrawSnowflakeBalance",
      "outputs": [],
      "payable": false,
      "stateMutability": "nonpayable",
      "type": "function"
    },
    {
      "constant": false,
      "inputs": [
        {
          "name": "einFrom",
          "type": "uint256"
        },
        {
          "name": "einTo",
          "type": "uint256"
        },
        {
          "name": "amount",
          "type": "uint256"
        }
      ],
      "name": "transferSnowflakeBalanceFrom",
      "outputs": [],
      "payable": false,
      "stateMutability": "nonpayable",
      "type": "function"
    },
    {
      "constant": false,
      "inputs": [
        {
          "name": "einFrom",
          "type": "uint256"
        },
        {
          "name": "to",
          "type": "address"
        },
        {
          "name": "amount",
          "type": "uint256"
        }
      ],
      "name": "withdrawSnowflakeBalanceFrom",
      "outputs": [],
      "payable": false,
      "stateMutability": "nonpayable",
      "type": "function"
    },
    {
      "constant": false,
      "inputs": [
        {
          "name": "einFrom",
          "type": "uint256"
        },
        {
          "name": "via",
          "type": "address"
        },
        {
          "name": "einTo",
          "type": "uint256"
        },
        {
          "name": "amount",
          "type": "uint256"
        },
        {
          "name": "_bytes",
          "type": "bytes"
        }
      ],
      "name": "transferSnowflakeBalanceFromVia",
      "outputs": [],
      "payable": false,
      "stateMutability": "nonpayable",
      "type": "function"
    },
    {
      "constant": false,
      "inputs": [
        {
          "name": "einFrom",
          "type": "uint256"
        },
        {
          "name": "via",
          "type": "address"
        },
        {
          "name": "to",
          "type": "address"
        },
        {
          "name": "amount",
          "type": "uint256"
        },
        {
          "name": "_bytes",
          "type": "bytes"
        }
      ],
      "name": "withdrawSnowflakeBalanceFromVia",
      "outputs": [],
      "payable": false,
      "stateMutability": "nonpayable",
      "type": "function"
    },
    {
      "constant": false,
      "inputs": [
        {
          "name": "destination",
          "type": "address"
        },
        {
          "name": "amount",
          "type": "uint256"
        },
        {
          "name": "data",
          "type": "bytes"
        },
        {
          "name": "approvingAddress",
          "type": "address"
        },
        {
          "name": "v",
          "type": "uint8"
        },
        {
          "name": "r",
          "type": "bytes32"
        },
        {
          "name": "s",
          "type": "bytes32"
        }
      ],
      "name": "allowAndCallDelegated",
      "outputs": [
        {
          "name": "returnData",
          "type": "bytes"
        }
      ],
      "payable": false,
      "stateMutability": "nonpayable",
      "type": "function"
    },
    {
      "constant": false,
      "inputs": [
        {
          "name": "destination",
          "type": "address"
        },
        {
          "name": "amount",
          "type": "uint256"
        },
        {
          "name": "data",
          "type": "bytes"
        }
      ],
      "name": "allowAndCall",
      "outputs": [
        {
          "name": "returnData",
          "type": "bytes"
        }
      ],
      "payable": false,
      "stateMutability": "nonpayable",
      "type": "function"
    }
  ],
  "bytecode": "0x6080604052620151806009553480156200001857600080fd5b50604051604080620058c3833981018060405260408110156200003a57600080fd5b50805160209091015160008054600160a060020a0319163317808255604051600160a060020a039190911691907f8be0079c531659141344cd1fd0a4f28419497f9722a3daafe3b4186f6b6457e0908290a3620000a18282640100000000620000a9810204565b50506200012a565b620000bc64010000000062000119810204565b1515620000c857600080fd5b60038054600160a060020a0319908116600160a060020a0394851617918290556004805492851692821692909217909155600580548216928416929092179182905560068054929093169116179055565b600054600160a060020a0316331490565b615789806200013a6000396000f3fe6080604052600436106101925763ffffffff60e060020a60003504166309164f9c811461019757806312f1dbc8146101cf578063139546471461020b5780631dfc99c41461036557806327a0b6d8146103965780633b6da765146103e85780633e63dcc11461041857806349a79a50146104f05780635437b67c146105c45780635a967ea5146105d9578063659ab4c31461073e5780636be4d9b014610927578063715018a614610a5b57806375d7e4bd14610a70578063856b414e14610a8557806385b118aa14610ab857806387d6203814610ba75780638da5cb5b14610c7d5780638f32d59b14610c925780638f4ffcb114610cbb57806390107afe14610d8d5780639675932e14610dc85780639cd5421014610e905780639d10bb3214610f64578063a3e9ec731461102e578063a759ee6f14611180578063b02c43d014611195578063badcfbcf146111bf578063c94dbd33146111f8578063edda7815146112c9578063ef11f9da14611308578063efd96fbf14611341578063f2fde38b1461142b578063fe89e3961461145e575b600080fd5b3480156101a357600080fd5b506101cd600480360360608110156101ba57600080fd5b5080359060208101359060400135611532565b005b3480156101db57600080fd5b506101f9600480360360208110156101f257600080fd5b5035611578565b60408051918252519081900360200190f35b34801561021757600080fd5b506102f0600480360360e081101561022e57600080fd5b600160a060020a038235169160208101359181019060608101604082013564010000000081111561025e57600080fd5b82018360208201111561027057600080fd5b8035906020019184600183028401116401000000008311171561029257600080fd5b91908080601f01602080910402602001604051908101604052809392919081815260200183838082843760009201919091525092955050600160a060020a0383351693505060ff60208301351691604081013591506060013561158a565b6040805160208082528351818301528351919283929083019185019080838360005b8381101561032a578181015183820152602001610312565b50505050905090810190601f1680156103575780820380516001836020036101000a031916815260200191505b509250505060405180910390f35b34801561037157600080fd5b5061037a611651565b60408051600160a060020a039092168252519081900360200190f35b3480156103a257600080fd5b506101cd600480360360a08110156103b957600080fd5b50600160a060020a03813581169160208101359091169060ff6040820135169060608101359060800135611660565b3480156103f457600080fd5b506101cd6004803603604081101561040b57600080fd5b5080359060200135611937565b34801561042457600080fd5b506101cd600480360360a081101561043b57600080fd5b813591600160a060020a03602082013581169260408301359091169160608101359181019060a08101608082013564010000000081111561047b57600080fd5b82018360208201111561048d57600080fd5b803590602001918460018302840111640100000000831117156104af57600080fd5b91908080601f0160208091040260200160405190810160405280939291908181526020018383808284376000920191909152509295506119c2945050505050565b3480156104fc57600080fd5b506101cd600480360360c081101561051357600080fd5b600160a060020a03823516919081019060408101602082013564010000000081111561053e57600080fd5b82018360208201111561055057600080fd5b8035906020019184602083028401116401000000008311171561057257600080fd5b9190808060200260200160405190810160405280939291908181526020018383602002808284376000920191909152509295505060ff8335169350505060208101359060408101359060600135611b21565b3480156105d057600080fd5b506101f9611ef1565b3480156105e557600080fd5b506101f960048036036101008110156105fd57600080fd5b600160a060020a03823581169260208101359091169181019060608101604082013564010000000081111561063157600080fd5b82018360208201111561064357600080fd5b8035906020019184602083028401116401000000008311171561066557600080fd5b91908080602002602001604051908101604052809392919081815260200183836020028082843760009201919091525092959493602081019350359150506401000000008111156106b557600080fd5b8201836020820111156106c757600080fd5b803590602001918460018302840111640100000000831117156106e957600080fd5b91908080601f0160208091040260200160405190810160405280939291908181526020018383808284376000920191909152509295505060ff8335169350505060208101359060408101359060600135611ef7565b34801561074a57600080fd5b506101cd600480360361016081101561076257600080fd5b600160a060020a03823516919081019060408101602082013564010000000081111561078d57600080fd5b82018360208201111561079f57600080fd5b803590602001918460208302840111640100000000831117156107c157600080fd5b919080806020026020016040519081016040528093929190818152602001838360200280828437600092019190915250929594936020810193503591505064010000000081111561081157600080fd5b82018360208201111561082357600080fd5b8035906020019184602083028401116401000000008311171561084557600080fd5b9190808060200260200160405190810160405280939291908181526020018383602002808284376000920191909152505060408051808201825293969594818101949350915060029083908390808284376000920191909152505060408051808201825292959493818101939250906002908390839080828437600092019190915250506040805180820182529295949381810193925090600290839083908082843760009201919091525050604080518082018252929594938181019392509060029083908390808284376000920191909152509194506121e39350505050565b34801561093357600080fd5b506101cd6004803603604081101561094a57600080fd5b81019060208101813564010000000081111561096557600080fd5b82018360208201111561097757600080fd5b8035906020019184602083028401116401000000008311171561099957600080fd5b91908080602002602001604051908101604052809392919081815260200183836020028082843760009201919091525092959493602081019350359150506401000000008111156109e957600080fd5b8201836020820111156109fb57600080fd5b80359060200191846020830284011164010000000083111715610a1d57600080fd5b919080806020026020016040519081016040528093929190818152602001838360200280828437600092019190915250929550612387945050505050565b348015610a6757600080fd5b506101cd612411565b348015610a7c57600080fd5b5061037a61247b565b348015610a9157600080fd5b506101cd60048036036020811015610aa857600080fd5b5035600160a060020a031661248a565b348015610ac457600080fd5b506101cd6004803603610120811015610adc57600080fd5b600160a060020a038235811692602081013590911691604082013515159160608101359181019060a081016080820135640100000000811115610b1e57600080fd5b820183602082011115610b3057600080fd5b80359060200191846001830284011164010000000083111715610b5257600080fd5b91908080601f0160208091040260200160405190810160405280939291908181526020018383808284376000920191909152509295505060ff83351693505050602081013590604081013590606001356124d9565b348015610bb357600080fd5b506101cd600480360360a0811015610bca57600080fd5b813591600160a060020a0360208201351691604082013515159160608101359181019060a081016080820135640100000000811115610c0857600080fd5b820183602082011115610c1a57600080fd5b80359060200191846001830284011164010000000083111715610c3c57600080fd5b91908080601f016020809104026020016040519081016040528093929190818152602001838380828437600092019190915250929550612588945050505050565b348015610c8957600080fd5b5061037a6126ad565b348015610c9e57600080fd5b50610ca76126bc565b604080519115158252519081900360200190f35b348015610cc757600080fd5b506101cd60048036036080811015610cde57600080fd5b600160a060020a038235811692602081013592604082013590921691810190608081016060820135640100000000811115610d1857600080fd5b820183602082011115610d2a57600080fd5b80359060200191846001830284011164010000000083111715610d4c57600080fd5b91908080601f0160208091040260200160405190810160405280939291908181526020018383808284376000920191909152509295506126cd945050505050565b348015610d9957600080fd5b506101cd60048036036040811015610db057600080fd5b50600160a060020a0381358116916020013516612f8b565b348015610dd457600080fd5b506102f060048036036060811015610deb57600080fd5b600160a060020a0382351691602081013591810190606081016040820135640100000000811115610e1b57600080fd5b820183602082011115610e2d57600080fd5b80359060200191846001830284011164010000000083111715610e4f57600080fd5b91908080601f016020809104026020016040519081016040528093929190818152602001838380828437600092019190915250929550612ffc945050505050565b348015610e9c57600080fd5b506101cd600480360360a0811015610eb357600080fd5b813591600160a060020a036020820135169160408201359160608101359181019060a081016080820135640100000000811115610eef57600080fd5b820183602082011115610f0157600080fd5b80359060200191846001830284011164010000000083111715610f2357600080fd5b91908080601f01602080910402602001604051908101604052809392919081815260200183838082843760009201919091525092955061308d945050505050565b348015610f7057600080fd5b506101cd60048036036060811015610f8757600080fd5b600160a060020a03823516916020810135151591810190606081016040820135640100000000811115610fb957600080fd5b820183602082011115610fcb57600080fd5b80359060200191846001830284011164010000000083111715610fed57600080fd5b91908080601f0160208091040260200160405190810160405280939291908181526020018383808284376000920191909152509295506131d1945050505050565b34801561103a57600080fd5b506101cd600480360360c081101561105157600080fd5b600160a060020a03823516919081019060408101602082013564010000000081111561107c57600080fd5b82018360208201111561108e57600080fd5b803590602001918460208302840111640100000000831117156110b057600080fd5b919080806020026020016040519081016040528093929190818152602001838360200280828437600092019190915250929594936020810193503591505064010000000081111561110057600080fd5b82018360208201111561111257600080fd5b8035906020019184602083028401116401000000008311171561113457600080fd5b9190808060200260200160405190810160405280939291908181526020018383602002808284376000920191909152509295505060ff8335169350505060208101359060400135613258565b34801561118c57600080fd5b5061037a613570565b3480156111a157600080fd5b506101f9600480360360208110156111b857600080fd5b503561357f565b3480156111cb57600080fd5b506101cd600480360360408110156111e257600080fd5b50600160a060020a038135169060200135613591565b34801561120457600080fd5b506101cd6004803603608081101561121b57600080fd5b600160a060020a038235169160208101351515916040820135919081019060808101606082013564010000000081111561125457600080fd5b82018360208201111561126657600080fd5b8035906020019184600183028401116401000000008311171561128857600080fd5b91908080601f016020809104026020016040519081016040528093929190818152602001838380828437600092019190915250929550613617945050505050565b3480156112d557600080fd5b506101cd600480360360608110156112ec57600080fd5b50803590600160a060020a03602082013516906040013561369f565b34801561131457600080fd5b506101f96004803603604081101561132b57600080fd5b5080359060200135600160a060020a03166136e4565b34801561134d57600080fd5b506101cd600480360361010081101561136557600080fd5b600160a060020a0382358116926020810135909116916040820135151591908101906080810160608201356401000000008111156113a257600080fd5b8201836020820111156113b457600080fd5b803590602001918460018302840111640100000000831117156113d657600080fd5b91908080601f0160208091040260200160405190810160405280939291908181526020018383808284376000920191909152509295505060ff8335169350505060208101359060408101359060600135613701565b34801561143757600080fd5b506101cd6004803603602081101561144e57600080fd5b5035600160a060020a03166137fa565b34801561146a57600080fd5b506101cd600480360360c081101561148157600080fd5b600160a060020a0382351691908101906040810160208201356401000000008111156114ac57600080fd5b8201836020820111156114be57600080fd5b803590602001918460208302840111640100000000831117156114e057600080fd5b9190808060200260200160405190810160405280939291908181526020018383602002808284376000920191909152509295505060ff8335169350505060208101359060408101359060600135613819565b61153c8382613ba0565b611547838383613dac565b5060405133907f3bd0280dc67bfc5c83998b5eddebb84cb266dd5fea7c8552e43f1c55110e966790600090a2505050565b600a6020526000908152604090205481565b600480546040805160e060020a6305c62c2f028152600160a060020a0388811694820194909452905160609360009316916305c62c2f916024808301926020929190829003018186803b1580156115e057600080fd5b505afa1580156115f4573d6000803e3d6000fd5b505050506040513d602081101561160a57600080fd5b50516000818152600a6020526040902080546001810190915590915061163787838c8c8c868c8c8c613fc8565b611643828a8c8b61420a565b9a9950505050505050505050565b600754600160a060020a031681565b600480546040805160e060020a6305c62c2f028152600160a060020a03898116948201949094529051600093909216916305c62c2f91602480820192602092909190829003018186803b1580156116b657600080fd5b505afa1580156116ca573d6000803e3d6000fd5b505050506040513d60208110156116e057600080fd5b50516000818152600a6020908152604080832080546001810190915560045482517f1900000000000000000000000000000000000000000000000000000000000000818601526021810195909552606060020a30810260228701527f4920617574686f72697a652074686973206368616e6765206f66205265636f7660368701527f65727920416464726573732e0000000000000000000000000000000000000000605687015260628601879052600160a060020a038c8116909102608287015260968087018490528451808803909101815260b687018086528151918701919091207f8677ebe8000000000000000000000000000000000000000000000000000000009091528d821660ba88015260da87015260ff8b1660fa87015261011a86018a905261013a860189905292519596509094911692638677ebe89261015a808301939192829003018186803b15801561183a57600080fd5b505afa15801561184e573d6000803e3d6000fd5b505050506040513d602081101561186457600080fd5b505115156118aa576040805160e560020a62461bcd028152602060048201526012602482015260008051602061571e833981519152604482015290519081900360640190fd5b60048054604080517f2501faa5000000000000000000000000000000000000000000000000000000008152928301859052600160a060020a0389811660248501529051911691632501faa591604480830192600092919082900301818387803b15801561191657600080fd5b505af115801561192a573d6000803e3d6000fd5b5050505050505050505050565b600480546040805160e060020a6305c62c2f0281523393810193909352516119bd92600160a060020a03909216916305c62c2f916024808301926020929190829003018186803b15801561198a57600080fd5b505afa15801561199e573d6000803e3d6000fd5b505050506040513d60208110156119b457600080fd5b50518383613dac565b505050565b6119cc8583613ba0565b6119d7858584614475565b600084905080600160a060020a0316633aaaa8a033888787876040518663ffffffff1660e060020a0281526004018086600160a060020a0316600160a060020a0316815260200185815260200184600160a060020a0316600160a060020a0316815260200183815260200180602001828103825283818151815260200191508051906020019080838360005b83811015611a7b578181015183820152602001611a63565b50505050905090810190601f168015611aa85780820380516001836020036101000a031916815260200191505b509650505050505050600060405180830381600087803b158015611acb57600080fd5b505af1158015611adf573d6000803e3d6000fd5b5050604051600160a060020a03871692503391507f4bf145994459e88b08345bbe483ca295ac2305df746c75740dd9d837344a9acf90600090a3505050505050565b80804210158015611b355750600954810142105b1515611b79576040805160e560020a62461bcd028152602060048201526017602482015260008051602061573e833981519152604482015290519081900360640190fd5b600480546040805160e060020a6305c62c2f028152600160a060020a038b8116948201949094529051600093909216916305c62c2f91602480820192602092909190829003018186803b158015611bcf57600080fd5b505afa158015611be3573d6000803e3d6000fd5b505050506040513d6020811015611bf957600080fd5b81019080805190602001909291905050509050600460009054906101000a9004600160a060020a0316600160a060020a0316638677ebe889601960f860020a02600060f860020a0230868d8a6040516020018087600160f860020a031916600160f860020a031916815260010186600160f860020a031916600160f860020a031916815260010185600160a060020a0316600160a060020a0316606060020a028152601401807f4920617574686f72697a6520746861742074686573652050726f76696465727381526020017f20626520616464656420746f206d79204964656e746974792e00000000000000815250603901848152602001838051906020019060200280838360005b83811015611d1b578181015183820152602001611d03565b505050509050018281526020019650505050505050604051602081830303815290604052805190602001208989896040518663ffffffff1660e060020a0281526004018086600160a060020a0316600160a060020a031681526020018581526020018460ff1660ff1681526020018381526020018281526020019550505050505060206040518083038186803b158015611db457600080fd5b505afa158015611dc8573d6000803e3d6000fd5b505050506040513d6020811015611dde57600080fd5b50511515611e24576040805160e560020a62461bcd028152602060048201526012602482015260008051602061571e833981519152604482015290519081900360640190fd5b60048054604080517f960b11f5000000000000000000000000000000000000000000000000000000008152928301848152602484019182528a5160448501528a51600160a060020a039093169363960b11f59386938d939290916064909101906020808601910280838360005b83811015611ea9578181015183820152602001611e91565b505050509050019350505050600060405180830381600087803b158015611ecf57600080fd5b505af1158015611ee3573d6000803e3d6000fd5b505050505050505050505050565b60095481565b600060608751600101604051908082528060200260200182016040528015611f29578160200160208202803883390190505b50905030816000815181101515611f3c57fe5b600160a060020a0390921660209283029091019091015260005b8851811015611fa7578881815181101515611f6d57fe5b906020019060200201518282600101815181101515611f8857fe5b600160a060020a03909216602092830290910190910152600101611f56565b50600454604080516000808252602082019092529091600160a060020a0316906314fb5646908d908d9086908c8c8c8c6040518963ffffffff1660e060020a0281526004018089600160a060020a0316600160a060020a0316815260200188600160a060020a0316600160a060020a0316815260200180602001806020018760ff1660ff168152602001868152602001858152602001848152602001838103835289818151815260200191508051906020019060200280838360005b8381101561207b578181015183820152602001612063565b50505050905001838103825288818151815260200191508051906020019060200280838360005b838110156120ba5781810151838201526020016120a2565b505050509050019a5050505050505050505050602060405180830381600087803b1580156120e757600080fd5b505af11580156120fb573d6000803e3d6000fd5b505050506040513d602081101561211157600080fd5b8101908080519060200190929190505050905061164381600760009054906101000a9004600160a060020a0316600160008e8d6040516020018083600160a060020a0316600160a060020a0316815260200180602001828103825283818151815260200191508051906020019080838360005b8381101561219c578181015183820152602001612184565b50505050905090810190601f1680156121c95780820380516001836020036101000a031916815260200191505b5093505050506040516020818303038152906040526146ec565b83518351835183516121fd938b938b939192909190611b21565b61222787868660016020020151866001602002015186600160200201518660016020020151613819565b600480546040805160e060020a6305c62c2f028152600160a060020a038b8116948201949094529051600093909216916305c62c2f91602480820192602092909190829003018186803b15801561227d57600080fd5b505afa158015612291573d6000803e3d6000fd5b505050506040513d60208110156122a757600080fd5b505160408051600160a060020a038b16918101919091526060808252895190820152885191925082917f9395986444296878f4ccc8a3e3a2d2d64a2988fb3cf2fd45fd7abe7449025626918a918a918d9181906020828101916080840191888101910280838360005b83811015612328578181015183820152602001612310565b50505050905001838103825285818151815260200191508051906020019060200280838360005b8381101561236757818101518382015260200161234f565b505050509050019550505050505060405180910390a25050505050505050565b600480546040805160e060020a6305c62c2f02815233938101939093525161240d92600160a060020a03909216916305c62c2f916024808301926020929190829003018186803b1580156123da57600080fd5b505afa1580156123ee573d6000803e3d6000fd5b505050506040513d602081101561240457600080fd5b50518383614b35565b5050565b6124196126bc565b151561242457600080fd5b60008054604051600160a060020a03909116907f8be0079c531659141344cd1fd0a4f28419497f9722a3daafe3b4186f6b6457e0908390a36000805473ffffffffffffffffffffffffffffffffffffffff19169055565b600554600160a060020a031681565b6124926126bc565b151561249d57600080fd5b6007805473ffffffffffffffffffffffffffffffffffffffff19908116600160a060020a03938416179182905560088054929093169116179055565b600480546040805160e060020a6305c62c2f028152600160a060020a038d8116948201949094529051600093909216916305c62c2f91602480820192602092909190829003018186803b15801561252f57600080fd5b505afa158015612543573d6000803e3d6000fd5b505050506040513d602081101561255957600080fd5b5051905061256f8a828b8b8b8b8b8b8b8b614d97565b61257c818a8a8a8a6146ec565b50505050505050505050565b60048054604080517f53a9698a00000000000000000000000000000000000000000000000000000000815292830188905233602484015251600160a060020a03909116916353a9698a916044808301926020929190829003018186803b1580156125f157600080fd5b505afa158015612605573d6000803e3d6000fd5b505050506040513d602081101561261b57600080fd5b50511515612699576040805160e560020a62461bcd02815260206004820152603360248201527f546865206d73672e73656e646572206973206e6f7420612050726f766964657260448201527f20666f7220746865207061737365642045494e00000000000000000000000000606482015290519081900360840190fd5b6126a685858585856146ec565b5050505050565b600054600160a060020a031690565b600054600160a060020a0316331490565b33600160a060020a0383161461272d576040805160e560020a62461bcd02815260206004820152601160248201527f4d616c666f726d656420696e707574732e000000000000000000000000000000604482015290519081900360640190fd5b600554600160a060020a038381169116146127b8576040805160e560020a62461bcd02815260206004820152602d60248201527f53656e646572206973206e6f742074686520485944524f20746f6b656e20736d60448201527f61727420636f6e74726163742e00000000000000000000000000000000000000606482015290519081900360840190fd5b8051602010612b1357600654604080517f23b872dd000000000000000000000000000000000000000000000000000000008152600160a060020a03878116600483015230602483015260448201879052915191909216916323b872dd9160648083019260209291908290030181600087803b15801561283657600080fd5b505af115801561284a573d6000803e3d6000fd5b505050506040513d602081101561286057600080fd5b505115156128de576040805160e560020a62461bcd02815260206004820152602360248201527f556e61626c6520746f207472616e7366657220746f6b656e206f776e6572736860448201527f69702e0000000000000000000000000000000000000000000000000000000000606482015290519081900360840190fd5b600060208251101561297157600480546040805160e060020a6305c62c2f028152600160a060020a0389811694820194909452905192909116916305c62c2f91602480820192602092909190829003018186803b15801561293e57600080fd5b505afa158015612952573d6000803e3d6000fd5b505050506040513d602081101561296857600080fd5b50519050612a95565b81806020019051602081101561298657600080fd5b505160048054604080517f5b5aed3a00000000000000000000000000000000000000000000000000000000815292830184905251929350600160a060020a031691635b5aed3a91602480820192602092909190829003018186803b1580156129ed57600080fd5b505afa158015612a01573d6000803e3d6000fd5b505050506040513d6020811015612a1757600080fd5b50511515612a95576040805160e560020a62461bcd02815260206004820152602160248201527f54686520726563697069656e742045494e20646f6573206e6f7420657869737460448201527f2e00000000000000000000000000000000000000000000000000000000000000606482015290519081900360840190fd5b600081815260016020526040902054612ab4908563ffffffff61505e16565b60016000838152602001908152602001600020819055508085600160a060020a03167fc03bd73422f0f423555852c3018d2296bec6c3fb71372de56d3ce8f5984d6812866040518082815260200191505060405180910390a350612f85565b60008060008060608580602001905160a0811015612b3057600080fd5b815160208301516040840151606085015160808601805194969395929491939283019291640100000000811115612b6657600080fd5b82016020810184811115612b7957600080fd5b8151640100000000811182820187101715612b9357600080fd5b505092919050505094509450945094509450600660009054906101000a9004600160a060020a0316600160a060020a03166323b872dd8a858b6040518463ffffffff1660e060020a0281526004018084600160a060020a0316600160a060020a0316815260200183600160a060020a0316600160a060020a031681526020018281526020019350505050602060405180830381600087803b158015612c3757600080fd5b505af1158015612c4b573d6000803e3d6000fd5b505050506040513d6020811015612c6157600080fd5b50511515612cdf576040805160e560020a62461bcd02815260206004820152602360248201527f556e61626c6520746f207472616e7366657220746f6b656e206f776e6572736860448201527f69702e0000000000000000000000000000000000000000000000000000000000606482015290519081900360840190fd5b828515612e245780600160a060020a0316633c72e43986858c866040518563ffffffff1660e060020a0281526004018085600160a060020a0316600160a060020a0316815260200184815260200183815260200180602001828103825283818151815260200191508051906020019080838360005b83811015612d6c578181015183820152602001612d54565b50505050905090810190601f168015612d995780820380516001836020036101000a031916815260200191505b5095505050505050600060405180830381600087803b158015612dbb57600080fd5b505af1158015612dcf573d6000803e3d6000fd5b505050508284600160a060020a031686600160a060020a03167fedb6770cb1ac0722d4ee53b473075a9d9d9ada0726d38bfc29d7cefb278a6b508c6040518082815260200191505060405180910390a461257c565b600083905081600160a060020a031663e5a1309287838d876040518563ffffffff1660e060020a0281526004018085600160a060020a0316600160a060020a0316815260200184600160a060020a0316600160a060020a0316815260200183815260200180602001828103825283818151815260200191508051906020019080838360005b83811015612ec1578181015183820152602001612ea9565b50505050905090810190601f168015612eee5780820380516001836020036101000a031916815260200191505b5095505050505050600060405180830381600087803b158015612f1057600080fd5b505af1158015612f24573d6000803e3d6000fd5b5050505083600160a060020a031685600160a060020a031687600160a060020a03167f0c00f14cabae1f33bca7bd1a7510da7d1188463c014549b4817ece9db32ce67d8d6040518082815260200191505060405180910390a4505050505050505b50505050565b612f936126bc565b1515612f9e57600080fd5b6003805473ffffffffffffffffffffffffffffffffffffffff19908116600160a060020a0394851617918290556004805492851692821692909217909155600580548216928416929092179182905560068054929093169116179055565b600480546040805160e060020a6305c62c2f02815233938101939093525160609261308592600160a060020a0316916305c62c2f91602480820192602092909190829003018186803b15801561305157600080fd5b505afa158015613065573d6000803e3d6000fd5b505050506040513d602081101561307b57600080fd5b505184868561420a565b949350505050565b6130978583613ba0565b6130a2858584614475565b600084905080600160a060020a0316631c75edfe33888787876040518663ffffffff1660e060020a0281526004018086600160a060020a0316600160a060020a0316815260200185815260200184815260200183815260200180602001828103825283818151815260200191508051906020019080838360005b8381101561313457818101518382015260200161311c565b50505050905090810190601f1680156131615780820380516001836020036101000a031916815260200191505b509650505050505050600060405180830381600087803b15801561318457600080fd5b505af1158015613198573d6000803e3d6000fd5b50506040518692503391507f1dd3c359182056ab5063bcdbab2346601270459beb53cabcbd39ca79f050336890600090a3505050505050565b600480546040805160e060020a6305c62c2f0281523393810193909352516119bd92600160a060020a03909216916305c62c2f916024808301926020929190829003018186803b15801561322457600080fd5b505afa158015613238573d6000803e3d6000fd5b505050506040513d602081101561324e57600080fd5b5051848484615077565b600480546040805160e060020a6305c62c2f028152600160a060020a038a8116948201949094529051600093909216916305c62c2f91602480820192602092909190829003018186803b1580156132ae57600080fd5b505afa1580156132c2573d6000803e3d6000fd5b505050506040513d60208110156132d857600080fd5b810190808051906020019092919050505090506000600a60008381526020019081526020016000206000815480929190600101919050559050600460009054906101000a9004600160a060020a0316600160a060020a0316638677ebe889601960f860020a02600060f860020a0230878d8d896040516020018088600160f860020a031916600160f860020a031916815260010187600160f860020a031916600160f860020a031916815260010186600160a060020a0316600160a060020a0316606060020a028152601401807f4920617574686f72697a652074686973206368616e676520696e205265736f6c81526020017f76657220616c6c6f77616e6365732e0000000000000000000000000000000000815250602f01858152602001848051906020019060200280838360005b83811015613421578181015183820152602001613409565b50505050905001838051906020019060200280838360005b83811015613451578181015183820152602001613439565b50505050905001828152602001975050505050505050604051602081830303815290604052805190602001208888886040518663ffffffff1660e060020a0281526004018086600160a060020a0316600160a060020a031681526020018581526020018460ff1660ff1681526020018381526020018281526020019550505050505060206040518083038186803b1580156134eb57600080fd5b505afa1580156134ff573d6000803e3d6000fd5b505050506040513d602081101561351557600080fd5b5051151561355b576040805160e560020a62461bcd028152602060048201526012602482015260008051602061571e833981519152604482015290519081900360640190fd5b613566828888614b35565b5050505050505050565b600354600160a060020a031681565b60016020526000908152604090205481565b600480546040805160e060020a6305c62c2f02815233938101939093525161240d92600160a060020a03909216916305c62c2f916024808301926020929190829003018186803b1580156135e457600080fd5b505afa1580156135f8573d6000803e3d6000fd5b505050506040513d602081101561360e57600080fd5b50518383614475565b600480546040805160e060020a6305c62c2f028152339381019390935251612f8592600160a060020a03909216916305c62c2f916024808301926020929190829003018186803b15801561366a57600080fd5b505afa15801561367e573d6000803e3d6000fd5b505050506040513d602081101561369457600080fd5b5051858585856146ec565b6136a98382613ba0565b6136b4838383614475565b60405133907f8262975dcca6e765bc0c030d671a00379895d3f60ab5f0033ca4aa088074646b90600090a2505050565b600260209081526000928352604080842090915290825290205481565b808042101580156137155750600954810142105b1515613759576040805160e560020a62461bcd028152602060048201526017602482015260008051602061573e833981519152604482015290519081900360640190fd5b600480546040805160e060020a6305c62c2f028152600160a060020a038d8116948201949094529051600093909216916305c62c2f91602480820192602092909190829003018186803b1580156137af57600080fd5b505afa1580156137c3573d6000803e3d6000fd5b505050506040513d60208110156137d957600080fd5b505190506137ee8a828b8b8b8b8b8b8b615494565b61257c818a8a8a615077565b6138026126bc565b151561380d57600080fd5b6138168161568b565b50565b8080421015801561382d5750600954810142105b1515613871576040805160e560020a62461bcd028152602060048201526017602482015260008051602061573e833981519152604482015290519081900360640190fd5b600480546040805160e060020a6305c62c2f028152600160a060020a038b8116948201949094529051600093909216916305c62c2f91602480820192602092909190829003018186803b1580156138c757600080fd5b505afa1580156138db573d6000803e3d6000fd5b505050506040513d60208110156138f157600080fd5b81019080805190602001909291905050509050600460009054906101000a9004600160a060020a0316600160a060020a0316638677ebe889601960f860020a02600060f860020a0230868d8a6040516020018087600160f860020a031916600160f860020a031916815260010186600160f860020a031916600160f860020a031916815260010185600160a060020a0316600160a060020a0316606060020a028152601401807f4920617574686f72697a6520746861742074686573652050726f76696465727381526020017f2062652072656d6f7665642066726f6d206d79204964656e746974792e000000815250603d01848152602001838051906020019060200280838360005b83811015613a135781810151838201526020016139fb565b505050509050018281526020019650505050505050604051602081830303815290604052805190602001208989896040518663ffffffff1660e060020a0281526004018086600160a060020a0316600160a060020a031681526020018581526020018460ff1660ff1681526020018381526020018281526020019550505050505060206040518083038186803b158015613aac57600080fd5b505afa158015613ac0573d6000803e3d6000fd5b505050506040513d6020811015613ad657600080fd5b50511515613b1c576040805160e560020a62461bcd028152602060048201526012602482015260008051602061571e833981519152604482015290519081900360640190fd5b60048054604080517f06c93c36000000000000000000000000000000000000000000000000000000008152928301848152602484019182528a5160448501528a51600160a060020a03909316936306c93c369386938d9392909160649091019060208086019102808383600083811015611ea9578181015183820152602001611e91565b600480546040805160e260020a63352c737302815292830185905233602484015251600160a060020a039091169163d4b1cdcc916044808301926020929190829003018186803b158015613bf357600080fd5b505afa158015613c07573d6000803e3d6000fd5b505050506040513d6020811015613c1d57600080fd5b50511515613c9b576040805160e560020a62461bcd02815260206004820152602e60248201527f5265736f6c76657220686173206e6f74206265656e207365742062792066726f60448201527f6d20746f6b656e686f6c6465722e000000000000000000000000000000000000606482015290519081900360840190fd5b6000828152600260209081526040808320338452909152902054811115613d615760008281526002602090815260408083203380855290835292819020548151908152918201849052805185927fe8197a2184c184c738bfd08f3ee78a377cde69118a3d580480d00a9208d6bdf392908290030190a36040805160e560020a62461bcd02815260206004820152601660248201527f496e73756666696369656e7420416c6c6f77616e636500000000000000000000604482015290519081900360640190fd5b6000828152600260209081526040808320338452909152902054613d8b908263ffffffff61570816565b60009283526002602090815260408085203386529091529092209190915550565b60048054604080517f5b5aed3a0000000000000000000000000000000000000000000000000000000081529283018590525160009285926001928392600160a060020a0390921691635b5aed3a916024808301926020929190829003018186803b158015613e1957600080fd5b505afa158015613e2d573d6000803e3d6000fd5b505050506040513d6020811015613e4357600080fd5b5051151514613e9c576040805160e560020a62461bcd02815260206004820152601760248201527f5468652045494e20646f6573206e6f742065786973742e000000000000000000604482015290519081900360640190fd5b600086815260016020526040902054841115613f28576040805160e560020a62461bcd02815260206004820152603660248201527f43616e6e6f74207769746864726177206d6f7265207468616e2074686520637560448201527f7272656e74206465706f7369742062616c616e63652e00000000000000000000606482015290519081900360840190fd5b600086815260016020526040902054613f47908563ffffffff61570816565b600087815260016020526040808220929092558681522054613f6f908563ffffffff61505e16565b600160008781526020019081526020016000208190555084867ffc1e758cdfd0000672c8f8e0557fdae32b207ab6040726e3e91a363ac1ea234a866040518082815260200191505060405180910390a350509392505050565b600460009054906101000a9004600160a060020a0316600160a060020a0316638677ebe88a601960f860020a02600060f860020a02308d8d8d8d8d6040516020018089600160f860020a031916600160f860020a031916815260010188600160f860020a031916600160f860020a031916815260010187600160a060020a0316600160a060020a0316606060020a028152601401807f4920617574686f72697a65207468697320616c6c6f7720616e642063616c6c2e81525060200186815260200185600160a060020a0316600160a060020a0316606060020a02815260140184815260200183805190602001908083835b602083106140d95780518252601f1990920191602091820191016140ba565b6001836020036101000a03801982511681845116808217855250505050505090500182815260200198505050505050505050604051602081830303815290604052805190602001208686866040518663ffffffff1660e060020a0281526004018086600160a060020a0316600160a060020a031681526020018581526020018460ff1660ff1681526020018381526020018281526020019550505050505060206040518083038186803b15801561418f57600080fd5b505afa1580156141a3573d6000803e3d6000fd5b505050506040513d60208110156141b957600080fd5b505115156141ff576040805160e560020a62461bcd028152602060048201526012602482015260008051602061571e833981519152604482015290519081900360640190fd5b505050505050505050565b600480546040805160e260020a63352c7373028152928301879052600160a060020a0385811660248501529051606093919092169163d4b1cdcc91604480820192602092909190829003018186803b15801561426557600080fd5b505afa158015614279573d6000803e3d6000fd5b505050506040513d602081101561428f57600080fd5b5051151561430d576040805160e560020a62461bcd02815260206004820152603160248201527f44657374696e6174696f6e20686173206e6f74206265656e207365742062792060448201527f66726f6d20746f6b656e686f6c6465722e000000000000000000000000000000606482015290519081900360840190fd5b831561436a576000858152600260209081526040808320600160a060020a0387168452909152902054614346908563ffffffff61505e16565b6000868152600260209081526040808320600160a060020a03881684529091529020555b6000606084600160a060020a0316846040518082805190602001908083835b602083106143a85780518252601f199092019160209182019101614389565b6001836020036101000a0380198251168184511680821785525050505050509050019150506000604051808303816000865af19150503d806000811461440a576040519150601f19603f3d011682016040523d82523d6000602084013e61440f565b606091505b509150915081151561446b576040805160e560020a62461bcd02815260206004820152601860248201527f43616c6c20776173206e6f74207375636365737366756c2e0000000000000000604482015290519081900360640190fd5b9695505050505050565b600160a060020a0382163014156144fc576040805160e560020a62461bcd02815260206004820152603760248201527f43616e6e6f74207472616e7366657220746f2074686520536e6f77666c616b6560448201527f20736d61727420636f6e747261637420697473656c662e000000000000000000606482015290519081900360840190fd5b600083815260016020526040902054811115614588576040805160e560020a62461bcd02815260206004820152603660248201527f43616e6e6f74207769746864726177206d6f7265207468616e2074686520637560448201527f7272656e74206465706f7369742062616c616e63652e00000000000000000000606482015290519081900360840190fd5b6000838152600160205260409020546145a7908263ffffffff61570816565b60008481526001602090815260408083209390935560065483517fa9059cbb000000000000000000000000000000000000000000000000000000008152600160a060020a038781166004830152602482018790529451949091169363a9059cbb93604480840194938390030190829087803b15801561462557600080fd5b505af1158015614639573d6000803e3d6000fd5b505050506040513d602081101561464f57600080fd5b505115156146a7576040805160e560020a62461bcd02815260206004820152601960248201527f5472616e736665722077617320756e7375636365737366756c00000000000000604482015290519081900360640190fd5b604080518281529051600160a060020a0384169185917faaa7de357803e36044e97c4f0d438a72b371380bff06b41e9b921b8f61cb489e9181900360200190a3505050565b600480546040805160e260020a63352c7373028152928301889052600160a060020a038781166024850152905191169163d4b1cdcc916044808301926020929190829003018186803b15801561474157600080fd5b505afa158015614755573d6000803e3d6000fd5b505050506040513d602081101561476b57600080fd5b5051156147e8576040805160e560020a62461bcd02815260206004820152602760248201527f4964656e746974792068617320616c726561647920736574207468697320726560448201527f736f6c7665722e00000000000000000000000000000000000000000000000000606482015290519081900360840190fd5b604080516001808252818301909252606091602080830190803883390190505090508481600081518110151561481a57fe5b600160a060020a03928316602091820290920181019190915260048054604080517f010887dc0000000000000000000000000000000000000000000000000000000081529283018b815260248401918252865160448501528651929095169463010887dc948c948894929392606490910191858101910280838360005b838110156148af578181015183820152602001614897565b505050509050019350505050600060405180830381600087803b1580156148d557600080fd5b505af11580156148e9573d6000803e3d6000fd5b505050508315614b2d576000868152600260209081526040808320600160a060020a0389168085529083529281902086905580517f71790251000000000000000000000000000000000000000000000000000000008152905188939263717902519260048082019391829003018186803b15801561496657600080fd5b505afa15801561497a573d6000803e3d6000fd5b505050506040513d602081101561499057600080fd5b505115614aeb576040517f90bfaf400000000000000000000000000000000000000000000000000000000081526004810188815260248201869052606060448301908152855160648401528551600160a060020a038516936390bfaf40938c938a938a9360840190602085019080838360005b83811015614a1b578181015183820152602001614a03565b50505050905090810190601f168015614a485780820380516001836020036101000a031916815260200191505b50945050505050602060405180830381600087803b158015614a6957600080fd5b505af1158015614a7d573d6000803e3d6000fd5b505050506040513d6020811015614a9357600080fd5b50511515614aeb576040805160e560020a62461bcd02815260206004820152601060248201527f5369676e207570206661696c7572652e00000000000000000000000000000000604482015290519081900360640190fd5b604080518581529051600160a060020a0388169189917fa5a2dcb81990508894586bccd9070af644f5b33c720292251377ad26fc26b8809181900360200190a3505b505050505050565b8051825114614b8e576040805160e560020a62461bcd02815260206004820152601160248201527f4d616c666f726d656420696e707574732e000000000000000000000000000000604482015290519081900360640190fd5b60005b8251811015612f85576004548351600160a060020a039091169063d4b1cdcc908690869085908110614bbf57fe5b906020019060200201516040518363ffffffff1660e060020a0281526004018083815260200182600160a060020a0316600160a060020a031681526020019250505060206040518083038186803b158015614c1957600080fd5b505afa158015614c2d573d6000803e3d6000fd5b505050506040513d6020811015614c4357600080fd5b50511515614cc1576040805160e560020a62461bcd02815260206004820152602360248201527f4964656e7469747920686173206e6f74207365742074686973207265736f6c7660448201527f65722e0000000000000000000000000000000000000000000000000000000000606482015290519081900360840190fd5b8181815181101515614ccf57fe5b906020019060200201516002600086815260200190815260200160002060008584815181101515614cfc57fe5b6020908102909101810151600160a060020a03168252810191909152604001600020558251839082908110614d2d57fe5b90602001906020020151600160a060020a0316847ffb55528a8074c988c79fef57f3a73aebf780773d5152d785bbaf700c9e3532d38484815181101515614d7057fe5b906020019060200201516040518082815260200191505060405180910390a3600101614b91565b80804210158015614dab5750600954810142105b1515614def576040805160e560020a62461bcd028152602060048201526017602482015260008051602061573e833981519152604482015290519081900360640190fd5b600460009054906101000a9004600160a060020a0316600160a060020a0316638677ebe88c601960f860020a02600060f860020a02308f8f8f8f8f8c604051602001808a600160f860020a031916600160f860020a031916815260010189600160f860020a031916600160f860020a031916815260010188600160a060020a0316600160a060020a0316606060020a028152601401807f4920617574686f72697a6520746861742074686973207265736f6c766572206281526020017f6520616464656420746f206d79204964656e746974792e00000000000000000081525060370187815260200186600160a060020a0316600160a060020a0316606060020a028152601401851515151560f860020a02815260010184815260200183805190602001908083835b60208310614f375780518252601f199092019160209182019101614f18565b6001836020036101000a0380198251168184511680821785525050505050509050018281526020019950505050505050505050604051602081830303815290604052805190602001208888886040518663ffffffff1660e060020a0281526004018086600160a060020a0316600160a060020a031681526020018581526020018460ff1660ff1681526020018381526020018281526020019550505050505060206040518083038186803b158015614fee57600080fd5b505afa158015615002573d6000803e3d6000fd5b505050506040513d602081101561501857600080fd5b5051151561192a576040805160e560020a62461bcd028152602060048201526012602482015260008051602061571e833981519152604482015290519081900360640190fd5b60008282018381101561507057600080fd5b9392505050565b600480546040805160e260020a63352c7373028152928301879052600160a060020a038681166024850152905191169163d4b1cdcc916044808301926020929190829003018186803b1580156150cc57600080fd5b505afa1580156150e0573d6000803e3d6000fd5b505050506040513d60208110156150f657600080fd5b50511515615174576040805160e560020a62461bcd02815260206004820152602760248201527f4964656e7469747920686173206e6f742079657420736574207468697320726560448201527f736f6c7665722e00000000000000000000000000000000000000000000000000606482015290519081900360840190fd5b6000848152600260209081526040808320600160a060020a0387168452909152812055811561539357600083905080600160a060020a0316638f06492d6040518163ffffffff1660e060020a02815260040160206040518083038186803b1580156151de57600080fd5b505afa1580156151f2573d6000803e3d6000fd5b505050506040513d602081101561520857600080fd5b50511561535b57604080517f9182621a0000000000000000000000000000000000000000000000000000000081526004810187815260248201928352845160448301528451600160a060020a03851693639182621a938a93889390929160640190602085019080838360005b8381101561528c578181015183820152602001615274565b50505050905090810190601f1680156152b95780820380516001836020036101000a031916815260200191505b509350505050602060405180830381600087803b1580156152d957600080fd5b505af11580156152ed573d6000803e3d6000fd5b505050506040513d602081101561530357600080fd5b5051151561535b576040805160e560020a62461bcd02815260206004820152601060248201527f52656d6f76616c206661696c7572652e00000000000000000000000000000000604482015290519081900360640190fd5b604051600160a060020a0385169086907fd1b5265e776cc74b7c19e1f79f0eb431189105741c07f3bb870f17ce3ba4aed890600090a3505b60408051600180825281830190925260609160208083019080388339019050509050838160008151811015156153c557fe5b600160a060020a03928316602091820290920181019190915260048054604080517f5726f6600000000000000000000000000000000000000000000000000000000081529283018a8152602484019182528651604485015286519290951694635726f660948b948894929392606490910191858101910280838360005b8381101561545a578181015183820152602001615442565b505050509050019350505050600060405180830381600087803b15801561548057600080fd5b505af11580156141ff573d6000803e3d6000fd5b600460009054906101000a9004600160a060020a0316600160a060020a0316638677ebe88a601960f860020a02600060f860020a02308d8d8d8d8a6040516020018089600160f860020a031916600160f860020a031916815260010188600160f860020a031916600160f860020a031916815260010187600160a060020a0316600160a060020a0316606060020a028152601401807f4920617574686f72697a652074686174207468657365205265736f6c7665727381526020017f2062652072656d6f7665642066726f6d206d79204964656e746974792e000000815250603d0186815260200185600160a060020a0316600160a060020a0316606060020a028152601401841515151560f860020a02815260010183805190602001908083835b602083106155d55780518252601f1990920191602091820191016155b6565b6001836020036101000a03801982511681845116808217855250505050505090500182815260200198505050505050505050604051602081830303815290604052805190602001208787876040518663ffffffff1660e060020a0281526004018086600160a060020a0316600160a060020a031681526020018581526020018460ff1660ff1681526020018381526020018281526020019550505050505060206040518083038186803b15801561418f57600080fd5b600160a060020a03811615156156a057600080fd5b60008054604051600160a060020a03808516939216917f8be0079c531659141344cd1fd0a4f28419497f9722a3daafe3b4186f6b6457e091a36000805473ffffffffffffffffffffffffffffffffffffffff1916600160a060020a0392909216919091179055565b60008282111561571757600080fd5b5090039056fe5065726d697373696f6e2064656e6965642e000000000000000000000000000054696d657374616d70206973206e6f742076616c69642e000000000000000000a165627a7a72305820c8eb24d221ce17a69d8c8af08ed519c74f1bf259c7cbe9be9f87c1f093d5b8b60029",
  "source": "pragma solidity ^0.5.0;\n\nimport \"./zeppelin/ownership/Ownable.sol\";\nimport \"./zeppelin/math/SafeMath.sol\";\n\nimport \"./interfaces/HydroInterface.sol\";\nimport \"./interfaces/SnowflakeResolverInterface.sol\";\nimport \"./interfaces/SnowflakeViaInterface.sol\";\nimport \"./interfaces/IdentityRegistryInterface.sol\";\nimport \"./interfaces/ClientRaindropInterface.sol\";\n\ncontract Snowflake is Ownable {\n    using SafeMath for uint;\n\n    // mapping of EIN to hydro token deposits\n    mapping (uint => uint) public deposits;\n    // mapping from EIN to resolver to allowance\n    mapping (uint => mapping (address => uint)) public resolverAllowances;\n\n    // SC variables\n    address public identityRegistryAddress;\n    IdentityRegistryInterface private identityRegistry;\n    address public hydroTokenAddress;\n    HydroInterface private hydroToken;\n    address public clientRaindropAddress;\n    ClientRaindropInterface private clientRaindrop;\n\n    // signature variables\n    uint public signatureTimeout = 1 days;\n    mapping (uint => uint) public signatureNonce;\n\n    constructor (address _identityRegistryAddress, address _hydroTokenAddress) public {\n        setAddresses(_identityRegistryAddress, _hydroTokenAddress);\n    }\n\n    // enforces that a particular EIN exists\n    modifier identityExists(uint ein, bool check) {\n        require(identityRegistry.identityExists(ein) == check, \"The EIN does not exist.\");\n        _;\n    }\n\n    // enforces signature timeouts\n    modifier ensureSignatureTimeValid(uint timestamp) {\n        require(\n            // solium-disable-next-line security/no-block-members\n            block.timestamp >= timestamp && block.timestamp < timestamp + signatureTimeout, \"Timestamp is not valid.\"\n        );\n        _;\n    }\n\n\n    // set the hydro token and identity registry addresses\n    function setAddresses(address _identityRegistryAddress, address _hydroTokenAddress) public onlyOwner {\n        identityRegistryAddress = _identityRegistryAddress;\n        identityRegistry = IdentityRegistryInterface(identityRegistryAddress);\n\n        hydroTokenAddress = _hydroTokenAddress;\n        hydroToken = HydroInterface(hydroTokenAddress);\n    }\n\n    function setClientRaindropAddress(address _clientRaindropAddress) public onlyOwner {\n        clientRaindropAddress = _clientRaindropAddress;\n        clientRaindrop = ClientRaindropInterface(clientRaindropAddress);\n    }\n\n    // wrap createIdentityDelegated and initialize the client raindrop resolver\n    function createIdentityDelegated(\n        address recoveryAddress, address associatedAddress, address[] memory providers, string memory casedHydroId,\n        uint8 v, bytes32 r, bytes32 s, uint timestamp\n    )\n        public returns (uint ein)\n    {\n        address[] memory _providers = new address[](providers.length + 1);\n        _providers[0] = address(this);\n        for (uint i; i < providers.length; i++) {\n            _providers[i + 1] = providers[i];\n        }\n\n        uint _ein = identityRegistry.createIdentityDelegated(\n            recoveryAddress, associatedAddress, _providers, new address[](0), v, r, s, timestamp\n        );\n\n        _addResolver(_ein, clientRaindropAddress, true, 0, abi.encode(associatedAddress, casedHydroId));\n\n        return _ein;\n    }\n\n    // permission addProvidersFor by signature\n    function addProvidersFor(\n        address approvingAddress, address[] memory providers, uint8 v, bytes32 r, bytes32 s, uint timestamp\n    )\n        public ensureSignatureTimeValid(timestamp)\n    {\n        uint ein = identityRegistry.getEIN(approvingAddress);\n        require(\n            identityRegistry.isSigned(\n                approvingAddress,\n                keccak256(\n                    abi.encodePacked(\n                        byte(0x19), byte(0), address(this),\n                        \"I authorize that these Providers be added to my Identity.\",\n                        ein, providers, timestamp\n                    )\n                ),\n                v, r, s\n            ),\n            \"Permission denied.\"\n        );\n\n        identityRegistry.addProvidersFor(ein, providers);\n    }\n\n    // permission removeProvidersFor by signature\n    function removeProvidersFor(\n        address approvingAddress, address[] memory providers, uint8 v, bytes32 r, bytes32 s, uint timestamp\n    )\n        public ensureSignatureTimeValid(timestamp)\n    {\n        uint ein = identityRegistry.getEIN(approvingAddress);\n        require(\n            identityRegistry.isSigned(\n                approvingAddress,\n                keccak256(\n                    abi.encodePacked(\n                        byte(0x19), byte(0), address(this),\n                        \"I authorize that these Providers be removed from my Identity.\",\n                        ein, providers, timestamp\n                    )\n                ),\n                v, r, s\n            ),\n            \"Permission denied.\"\n        );\n\n        identityRegistry.removeProvidersFor(ein, providers);\n    }\n\n    // permissioned addProvidersFor and removeProvidersFor by signature\n    function upgradeProvidersFor(\n        address approvingAddress, address[] memory newProviders, address[] memory oldProviders,\n        uint8[2] memory v, bytes32[2] memory r, bytes32[2] memory s, uint[2] memory timestamp\n    )\n        public\n    {\n        addProvidersFor(approvingAddress, newProviders, v[0], r[0], s[0], timestamp[0]);\n        removeProvidersFor(approvingAddress, oldProviders, v[1], r[1], s[1], timestamp[1]);\n        uint ein = identityRegistry.getEIN(approvingAddress);\n        emit SnowflakeProvidersUpgraded(ein, newProviders, oldProviders, approvingAddress);\n    }\n\n    // permission adding a resolver for identity of msg.sender\n    function addResolver(address resolver, bool isSnowflake, uint withdrawAllowance, bytes memory extraData) public {\n        _addResolver(identityRegistry.getEIN(msg.sender), resolver, isSnowflake, withdrawAllowance, extraData);\n    }\n\n    // permission adding a resolver for identity passed by a provider\n    function addResolverAsProvider(\n        uint ein, address resolver, bool isSnowflake, uint withdrawAllowance, bytes memory extraData\n    )\n        public\n    {\n        require(identityRegistry.isProviderFor(ein, msg.sender), \"The msg.sender is not a Provider for the passed EIN\");\n        _addResolver(ein, resolver, isSnowflake, withdrawAllowance, extraData);\n    }\n\n    // permission addResolversFor by signature\n    function addResolverFor(\n        address approvingAddress, address resolver, bool isSnowflake, uint withdrawAllowance, bytes memory extraData,\n        uint8 v, bytes32 r, bytes32 s, uint timestamp\n    )\n        public\n    {\n        uint ein = identityRegistry.getEIN(approvingAddress);\n\n        validateAddResolverForSignature(\n            approvingAddress, ein, resolver, isSnowflake, withdrawAllowance, extraData, v, r, s, timestamp\n        );\n\n        _addResolver(ein, resolver, isSnowflake, withdrawAllowance, extraData);\n    }\n\n    function validateAddResolverForSignature(\n        address approvingAddress, uint ein,\n        address resolver, bool isSnowflake, uint withdrawAllowance, bytes memory extraData,\n        uint8 v, bytes32 r, bytes32 s, uint timestamp\n    )\n        private view ensureSignatureTimeValid(timestamp)\n    {\n        require(\n            identityRegistry.isSigned(\n                approvingAddress,\n                keccak256(\n                    abi.encodePacked(\n                        byte(0x19), byte(0), address(this),\n                        \"I authorize that this resolver be added to my Identity.\",\n                        ein, resolver, isSnowflake, withdrawAllowance, extraData, timestamp\n                    )\n                ),\n                v, r, s\n            ),\n            \"Permission denied.\"\n        );\n    }\n\n    // common logic for adding resolvers\n    function _addResolver(uint ein, address resolver, bool isSnowflake, uint withdrawAllowance, bytes memory extraData)\n        private\n    {\n        require(!identityRegistry.isResolverFor(ein, resolver), \"Identity has already set this resolver.\");\n\n        address[] memory resolvers = new address[](1);\n        resolvers[0] = resolver;\n        identityRegistry.addResolversFor(ein, resolvers);\n\n        if (isSnowflake) {\n            resolverAllowances[ein][resolver] = withdrawAllowance;\n            SnowflakeResolverInterface snowflakeResolver = SnowflakeResolverInterface(resolver);\n            if (snowflakeResolver.callOnAddition())\n                require(snowflakeResolver.onAddition(ein, withdrawAllowance, extraData), \"Sign up failure.\");\n            emit SnowflakeResolverAdded(ein, resolver, withdrawAllowance);\n        }\n    }\n\n    // permission changing resolver allowances for identity of msg.sender\n    function changeResolverAllowances(address[] memory resolvers, uint[] memory withdrawAllowances) public {\n        changeResolverAllowances(identityRegistry.getEIN(msg.sender), resolvers, withdrawAllowances);\n    }\n\n    // change resolver allowances delegated\n    function changeResolverAllowancesDelegated(\n        address approvingAddress, address[] memory resolvers, uint[] memory withdrawAllowances,\n        uint8 v, bytes32 r, bytes32 s\n    )\n        public\n    {\n        uint ein = identityRegistry.getEIN(approvingAddress);\n\n        uint nonce = signatureNonce[ein]++;\n        require(\n            identityRegistry.isSigned(\n                approvingAddress,\n                keccak256(\n                    abi.encodePacked(\n                        byte(0x19), byte(0), address(this),\n                        \"I authorize this change in Resolver allowances.\",\n                        ein, resolvers, withdrawAllowances, nonce\n                    )\n                ),\n                v, r, s\n            ),\n            \"Permission denied.\"\n        );\n\n        changeResolverAllowances(ein, resolvers, withdrawAllowances);\n    }\n\n    // common logic to change resolver allowances\n    function changeResolverAllowances(uint ein, address[] memory resolvers, uint[] memory withdrawAllowances) private {\n        require(resolvers.length == withdrawAllowances.length, \"Malformed inputs.\");\n\n        for (uint i; i < resolvers.length; i++) {\n            require(identityRegistry.isResolverFor(ein, resolvers[i]), \"Identity has not set this resolver.\");\n            resolverAllowances[ein][resolvers[i]] = withdrawAllowances[i];\n            emit SnowflakeResolverAllowanceChanged(ein, resolvers[i], withdrawAllowances[i]);\n        }\n    }\n\n    // permission removing a resolver for identity of msg.sender\n    function removeResolver(address resolver, bool isSnowflake, bytes memory extraData) public {\n        removeResolver(identityRegistry.getEIN(msg.sender), resolver, isSnowflake, extraData);\n    }\n\n    // permission removeResolverFor by signature\n    function removeResolverFor(\n        address approvingAddress, address resolver, bool isSnowflake, bytes memory extraData,\n        uint8 v, bytes32 r, bytes32 s, uint timestamp\n    )\n        public ensureSignatureTimeValid(timestamp)\n    {\n        uint ein = identityRegistry.getEIN(approvingAddress);\n\n        validateRemoveResolverForSignature(approvingAddress, ein, resolver, isSnowflake, extraData, v, r, s, timestamp);\n\n        removeResolver(ein, resolver, isSnowflake, extraData);\n    }\n\n    function validateRemoveResolverForSignature(\n        address approvingAddress, uint ein, address resolver, bool isSnowflake, bytes memory extraData,\n        uint8 v, bytes32 r, bytes32 s, uint timestamp\n    )\n        private view\n    {\n        require(\n            identityRegistry.isSigned(\n                approvingAddress,\n                keccak256(\n                    abi.encodePacked(\n                        byte(0x19), byte(0), address(this),\n                        \"I authorize that these Resolvers be removed from my Identity.\",\n                        ein, resolver, isSnowflake, extraData, timestamp\n                    )\n                ),\n                v, r, s\n            ),\n            \"Permission denied.\"\n        );\n    }\n\n    // common logic to remove resolvers\n    function removeResolver(uint ein, address resolver, bool isSnowflake, bytes memory extraData) private {\n        require(identityRegistry.isResolverFor(ein, resolver), \"Identity has not yet set this resolver.\");\n    \n        delete resolverAllowances[ein][resolver];\n    \n        if (isSnowflake) {\n            SnowflakeResolverInterface snowflakeResolver = SnowflakeResolverInterface(resolver);\n            if (snowflakeResolver.callOnRemoval())\n                require(snowflakeResolver.onRemoval(ein, extraData), \"Removal failure.\");\n            emit SnowflakeResolverRemoved(ein, resolver);\n        }\n\n        address[] memory resolvers = new address[](1);\n        resolvers[0] = resolver;\n        identityRegistry.removeResolversFor(ein, resolvers);\n    }\n\n    function triggerRecoveryAddressChangeFor(\n        address approvingAddress, address newRecoveryAddress, uint8 v, bytes32 r, bytes32 s\n    )\n        public\n    {\n        uint ein = identityRegistry.getEIN(approvingAddress);\n        uint nonce = signatureNonce[ein]++;\n        require(\n            identityRegistry.isSigned(\n                approvingAddress,\n                keccak256(\n                    abi.encodePacked(\n                        byte(0x19), byte(0), address(this),\n                        \"I authorize this change of Recovery Address.\",\n                        ein, newRecoveryAddress, nonce\n                    )\n                ),\n                v, r, s\n            ),\n            \"Permission denied.\"\n        );\n\n        identityRegistry.triggerRecoveryAddressChangeFor(ein, newRecoveryAddress);\n    }\n\n    // allow contract to receive HYDRO tokens\n    function receiveApproval(address sender, uint amount, address _tokenAddress, bytes memory _bytes) public {\n        require(msg.sender == _tokenAddress, \"Malformed inputs.\");\n        require(_tokenAddress == hydroTokenAddress, \"Sender is not the HYDRO token smart contract.\");\n\n        // depositing to an EIN\n        if (_bytes.length <= 32) {\n            require(hydroToken.transferFrom(sender, address(this), amount), \"Unable to transfer token ownership.\");\n            uint recipient;\n            if (_bytes.length < 32) {\n                recipient = identityRegistry.getEIN(sender);\n            }\n            else {\n                recipient = abi.decode(_bytes, (uint));\n                require(identityRegistry.identityExists(recipient), \"The recipient EIN does not exist.\");\n            }\n            deposits[recipient] = deposits[recipient].add(amount);\n            emit SnowflakeDeposit(sender, recipient, amount);\n        }\n        // transferring to a via\n        else {\n            (\n                bool isTransfer, address resolver, address via, uint to, bytes memory snowflakeCallBytes\n            ) = abi.decode(_bytes, (bool, address, address, uint, bytes));\n            \n            require(hydroToken.transferFrom(sender, via, amount), \"Unable to transfer token ownership.\");\n\n            SnowflakeViaInterface viaContract = SnowflakeViaInterface(via);\n            if (isTransfer) {\n                viaContract.snowflakeCall(resolver, to, amount, snowflakeCallBytes);\n                emit SnowflakeTransferToVia(resolver, via, to, amount);\n            } else {\n                address payable payableTo = address(to);\n                viaContract.snowflakeCall(resolver, payableTo, amount, snowflakeCallBytes);\n                emit SnowflakeWithdrawToVia(resolver, via, address(to), amount);\n            }\n        }\n    }\n\n    // transfer snowflake balance from one snowflake holder to another\n    function transferSnowflakeBalance(uint einTo, uint amount) public {\n        _transfer(identityRegistry.getEIN(msg.sender), einTo, amount);\n    }\n\n    // withdraw Snowflake balance to an external address\n    function withdrawSnowflakeBalance(address to, uint amount) public {\n        _withdraw(identityRegistry.getEIN(msg.sender), to, amount);\n    }\n\n    // allows resolvers to transfer allowance amounts to other snowflakes (throws if unsuccessful)\n    function transferSnowflakeBalanceFrom(uint einFrom, uint einTo, uint amount) public {\n        handleAllowance(einFrom, amount);\n        _transfer(einFrom, einTo, amount);\n        emit SnowflakeTransferFrom(msg.sender);\n    }\n\n    // allows resolvers to withdraw allowance amounts to external addresses (throws if unsuccessful)\n    function withdrawSnowflakeBalanceFrom(uint einFrom, address to, uint amount) public {\n        handleAllowance(einFrom, amount);\n        _withdraw(einFrom, to, amount);\n        emit SnowflakeWithdrawFrom(msg.sender);\n    }\n\n    // allows resolvers to send withdrawal amounts to arbitrary smart contracts 'to' identities (throws if unsuccessful)\n    function transferSnowflakeBalanceFromVia(uint einFrom, address via, uint einTo, uint amount, bytes memory _bytes)\n        public\n    {\n        handleAllowance(einFrom, amount);\n        _withdraw(einFrom, via, amount);\n        SnowflakeViaInterface viaContract = SnowflakeViaInterface(via);\n        viaContract.snowflakeCall(msg.sender, einFrom, einTo, amount, _bytes);\n        emit SnowflakeTransferFromVia(msg.sender, einTo);\n    }\n\n    // allows resolvers to send withdrawal amounts 'to' addresses via arbitrary smart contracts\n    function withdrawSnowflakeBalanceFromVia(\n        uint einFrom, address via, address payable to, uint amount, bytes memory _bytes\n    )\n        public\n    {\n        handleAllowance(einFrom, amount);\n        _withdraw(einFrom, via, amount);\n        SnowflakeViaInterface viaContract = SnowflakeViaInterface(via);\n        viaContract.snowflakeCall(msg.sender, einFrom, to, amount, _bytes);\n        emit SnowflakeWithdrawFromVia(msg.sender, to);\n    }\n\n    function _transfer(uint einFrom, uint einTo, uint amount) private identityExists(einTo, true) returns (bool) {\n        require(deposits[einFrom] >= amount, \"Cannot withdraw more than the current deposit balance.\");\n        deposits[einFrom] = deposits[einFrom].sub(amount);\n        deposits[einTo] = deposits[einTo].add(amount);\n\n        emit SnowflakeTransfer(einFrom, einTo, amount);\n    }\n\n    function _withdraw(uint einFrom, address to, uint amount) internal {\n        require(to != address(this), \"Cannot transfer to the Snowflake smart contract itself.\");\n\n        require(deposits[einFrom] >= amount, \"Cannot withdraw more than the current deposit balance.\");\n        deposits[einFrom] = deposits[einFrom].sub(amount);\n        require(hydroToken.transfer(to, amount), \"Transfer was unsuccessful\");\n\n        emit SnowflakeWithdraw(einFrom, to, amount);\n    }\n\n    function handleAllowance(uint einFrom, uint amount) internal {\n        // check that resolver-related details are correct\n        require(identityRegistry.isResolverFor(einFrom, msg.sender), \"Resolver has not been set by from tokenholder.\");\n\n        if (resolverAllowances[einFrom][msg.sender] < amount) {\n            emit SnowflakeInsufficientAllowance(einFrom, msg.sender, resolverAllowances[einFrom][msg.sender], amount);\n            revert(\"Insufficient Allowance\");\n        }\n\n        resolverAllowances[einFrom][msg.sender] = resolverAllowances[einFrom][msg.sender].sub(amount);\n    }\n\n    // allowAndCall from msg.sender\n    function allowAndCall(address destination, uint amount, bytes memory data)\n        public returns (bytes memory returnData)\n    {\n        return allowAndCall(identityRegistry.getEIN(msg.sender), amount, destination, data);\n    }\n\n    // allowAndCall from approvingAddress with meta-transaction\n    function allowAndCallDelegated(\n        address destination, uint amount, bytes memory data, address approvingAddress, uint8 v, bytes32 r, bytes32 s\n    )\n        public returns (bytes memory returnData)\n    {\n        uint ein = identityRegistry.getEIN(approvingAddress);\n        uint nonce = signatureNonce[ein]++;\n        validateAllowAndCallDelegatedSignature(approvingAddress, ein, destination, amount, data, nonce, v, r, s);\n\n        return allowAndCall(ein, amount, destination, data);\n    }\n\n    function validateAllowAndCallDelegatedSignature(\n        address approvingAddress, uint ein, address destination, uint amount, bytes memory data, uint nonce,\n        uint8 v, bytes32 r, bytes32 s\n    )\n        private view\n    {\n        require(\n            identityRegistry.isSigned(\n                approvingAddress,\n                keccak256(\n                    abi.encodePacked(\n                        byte(0x19), byte(0), address(this),\n                        \"I authorize this allow and call.\", ein, destination, amount, data, nonce\n                    )\n                ),\n                v, r, s\n            ),\n            \"Permission denied.\"\n        );\n    }\n\n    // internal logic for allowAndCall\n    function allowAndCall(uint ein, uint amount, address destination, bytes memory data)\n        private returns (bytes memory returnData)\n    {\n        // check that resolver-related details are correct\n        require(identityRegistry.isResolverFor(ein, destination), \"Destination has not been set by from tokenholder.\");\n        if (amount != 0) {\n            resolverAllowances[ein][destination] = resolverAllowances[ein][destination].add(amount);\n        }\n\n        // solium-disable-next-line security/no-low-level-calls\n        (bool success, bytes memory _returnData) = destination.call(data);\n        require(success, \"Call was not successful.\");\n        return _returnData;\n    }\n\n    // events\n    event SnowflakeProvidersUpgraded(uint indexed ein, address[] newProviders, address[] oldProviders, address approvingAddress);\n\n    event SnowflakeResolverAdded(uint indexed ein, address indexed resolver, uint withdrawAllowance);\n    event SnowflakeResolverAllowanceChanged(uint indexed ein, address indexed resolver, uint withdrawAllowance);\n    event SnowflakeResolverRemoved(uint indexed ein, address indexed resolver);\n\n    event SnowflakeDeposit(address indexed from, uint indexed einTo, uint amount);\n    event SnowflakeTransfer(uint indexed einFrom, uint indexed einTo, uint amount);\n    event SnowflakeWithdraw(uint indexed einFrom, address indexed to, uint amount);\n\n    event SnowflakeTransferFrom(address indexed resolverFrom);\n    event SnowflakeWithdrawFrom(address indexed resolverFrom);\n    event SnowflakeTransferFromVia(address indexed resolverFrom, uint indexed einTo);\n    event SnowflakeWithdrawFromVia(address indexed resolverFrom, address indexed to);\n    event SnowflakeTransferToVia(address indexed resolverFrom, address indexed via, uint indexed einTo, uint amount);\n    event SnowflakeWithdrawToVia(address indexed resolverFrom, address indexed via, address indexed to, uint amount);\n\n    event SnowflakeInsufficientAllowance(\n        uint indexed ein, address indexed resolver, uint currentAllowance, uint requestedWithdraw\n    );\n}\n",
  "sourcePath": "/home/luiserebii/hydro_bounty_unofficial/contracts/Snowflake.sol",
  "compiler": {
    "name": "solc",
    "version": "0.5.0+commit.1d4f565a.Emscripten.clang"
  },
  "schemaVersion": "3.0.0-beta.0",
  "updatedAt": "2019-03-11T23:50:45.634Z"
}