{
  "contractName": "SnowflakeReader",
  "abi": [
    {
      "constant": true,
      "inputs": [],
      "name": "snowflakeAddress",
      "outputs": [
        {
          "name": "",
          "type": "address"
        }
      ],
      "payable": false,
      "stateMutability": "view",
      "type": "function"
    }
  ],
  "bytecode": "0x608060405234801561001057600080fd5b5060c08061001f6000396000f3fe6080604052348015600f57600080fd5b50600436106044577c01000000000000000000000000000000000000000000000000000000006000350463f9f451b881146049575b600080fd5b604f6078565b6040805173ffffffffffffffffffffffffffffffffffffffff9092168252519081900360200190f35b60005473ffffffffffffffffffffffffffffffffffffffff168156fea165627a7a72305820b2343b64d0935017a3de5867504e068afcdd6b1651e127280b1d9ccade99187f0029",
  "source": "pragma solidity ^0.5.0;\n\nimport \"../interfaces/SnowflakeInterface.sol\";\nimport \"../interfaces/IdentityRegistryInterface.sol\";\n\n/**\n* @title SnowflakeReader\n* @dev Intended to provide a simple thing for contracts to extend and do things such as read EINs. For now, this is its only function, but this is needed for design purposes, IMO\n*\n*/\ncontract SnowflakeReader {\n    address public snowflakeAddress;\n\n/*    constructor(address _snowflakeAddress) public {\n        _constructSnowflakeReader(_snowflakeAddress);\n    }\n*/\n    //Function to avoid double-constructor in inheriting, sort of a work-around\n    function _constructSnowflakeReader(address _snowflakeAddress) internal {\n        snowflakeAddress = _snowflakeAddress;\n    }\n\n    function getEIN(address einAddress) internal returns (uint256 ein) {\n        //Grab an instance of IdentityRegistry to work with as defined in Snowflake\n        SnowflakeInterface si = SnowflakeInterface(snowflakeAddress);\n        address iAdd = si.identityRegistryAddress();\n\n        IdentityRegistryInterface identityRegistry = IdentityRegistryInterface(iAdd);\n        //Ensure the address exists within the registry\n        require(identityRegistry.hasIdentity(einAddress), \"Address non-existent in IdentityRegistry\");\n\n        return identityRegistry.getEIN(einAddress);\n    }\n\n\n}\n\n",
  "sourcePath": "/home/luiserebii/github/HydroSnowflake-Marketplace-Coupons/contracts/snowflake_custom/SnowflakeReader.sol",
  "compiler": {
    "name": "solc",
    "version": "0.5.6+commit.b259423e.Emscripten.clang"
  },
  "schemaVersion": "3.0.6",
  "updatedAt": "2019-04-12T01:36:38.043Z",
  "devdoc": {
    "details": "Intended to provide a simple thing for contracts to extend and do things such as read EINs. For now, this is its only function, but this is needed for design purposes, IMO",
    "methods": {},
    "title": "SnowflakeReader"
  },
  "userdoc": {
    "methods": {}
  }
}