{
  "contractName": "SnowflakeEINMarketplace",
  "abi": [
    {
      "constant": true,
      "inputs": [],
      "name": "CouponDistributionAddress",
      "outputs": [
        {
          "name": "",
          "type": "address"
        }
      ],
      "payable": false,
      "stateMutability": "view",
      "type": "function"
    },
    {
      "constant": true,
      "inputs": [],
      "name": "ownerEIN",
      "outputs": [
        {
          "name": "",
          "type": "uint256"
        }
      ],
      "payable": false,
      "stateMutability": "view",
      "type": "function"
    },
    {
      "constant": true,
      "inputs": [
        {
          "name": "",
          "type": "uint256"
        }
      ],
      "name": "itemTags",
      "outputs": [
        {
          "name": "",
          "type": "string"
        }
      ],
      "payable": false,
      "stateMutability": "view",
      "type": "function"
    },
    {
      "constant": false,
      "inputs": [],
      "name": "isEINOwner",
      "outputs": [
        {
          "name": "",
          "type": "bool"
        }
      ],
      "payable": false,
      "stateMutability": "nonpayable",
      "type": "function"
    },
    {
      "constant": true,
      "inputs": [],
      "name": "paymentAddress",
      "outputs": [
        {
          "name": "",
          "type": "address"
        }
      ],
      "payable": false,
      "stateMutability": "view",
      "type": "function"
    },
    {
      "constant": true,
      "inputs": [],
      "name": "nextItemTagsID",
      "outputs": [
        {
          "name": "",
          "type": "uint256"
        }
      ],
      "payable": false,
      "stateMutability": "view",
      "type": "function"
    },
    {
      "constant": false,
      "inputs": [],
      "name": "renounceOwnership",
      "outputs": [],
      "payable": false,
      "stateMutability": "nonpayable",
      "type": "function"
    },
    {
      "constant": true,
      "inputs": [
        {
          "name": "",
          "type": "uint256"
        }
      ],
      "name": "returnPolicies",
      "outputs": [
        {
          "name": "returnsAccepted",
          "type": "bool"
        },
        {
          "name": "timeLimit",
          "type": "uint256"
        }
      ],
      "payable": false,
      "stateMutability": "view",
      "type": "function"
    },
    {
      "constant": true,
      "inputs": [],
      "name": "nextReturnPoliciesID",
      "outputs": [
        {
          "name": "",
          "type": "uint256"
        }
      ],
      "payable": false,
      "stateMutability": "view",
      "type": "function"
    },
    {
      "constant": true,
      "inputs": [],
      "name": "CouponFeatureAddress",
      "outputs": [
        {
          "name": "",
          "type": "address"
        }
      ],
      "payable": false,
      "stateMutability": "view",
      "type": "function"
    },
    {
      "constant": true,
      "inputs": [
        {
          "name": "",
          "type": "uint256"
        }
      ],
      "name": "deliveryMethods",
      "outputs": [
        {
          "name": "",
          "type": "string"
        }
      ],
      "payable": false,
      "stateMutability": "view",
      "type": "function"
    },
    {
      "constant": true,
      "inputs": [],
      "name": "ItemFeatureAddress",
      "outputs": [
        {
          "name": "",
          "type": "address"
        }
      ],
      "payable": false,
      "stateMutability": "view",
      "type": "function"
    },
    {
      "constant": false,
      "inputs": [
        {
          "name": "newOwner",
          "type": "uint256"
        }
      ],
      "name": "transferOwnership",
      "outputs": [],
      "payable": false,
      "stateMutability": "nonpayable",
      "type": "function"
    },
    {
      "constant": true,
      "inputs": [
        {
          "name": "ein",
          "type": "uint256"
        },
        {
          "name": "couponID",
          "type": "uint256"
        }
      ],
      "name": "isUserCouponOwner",
      "outputs": [
        {
          "name": "isValid",
          "type": "bool"
        }
      ],
      "payable": false,
      "stateMutability": "view",
      "type": "function"
    },
    {
      "constant": true,
      "inputs": [
        {
          "name": "",
          "type": "uint256"
        },
        {
          "name": "",
          "type": "uint256"
        }
      ],
      "name": "userCoupons",
      "outputs": [
        {
          "name": "",
          "type": "bool"
        }
      ],
      "payable": false,
      "stateMutability": "view",
      "type": "function"
    },
    {
      "constant": true,
      "inputs": [],
      "name": "nextDeliveryMethodsID",
      "outputs": [
        {
          "name": "",
          "type": "uint256"
        }
      ],
      "payable": false,
      "stateMutability": "view",
      "type": "function"
    },
    {
      "constant": true,
      "inputs": [
        {
          "name": "id",
          "type": "uint256"
        }
      ],
      "name": "getDeliveryMethod",
      "outputs": [
        {
          "name": "method",
          "type": "string"
        }
      ],
      "payable": false,
      "stateMutability": "view",
      "type": "function"
    },
    {
      "constant": true,
      "inputs": [],
      "name": "snowflakeAddress",
      "outputs": [
        {
          "name": "",
          "type": "address"
        }
      ],
      "payable": false,
      "stateMutability": "view",
      "type": "function"
    },
    {
      "constant": true,
      "inputs": [
        {
          "name": "id",
          "type": "uint256"
        }
      ],
      "name": "getReturnPolicy",
      "outputs": [
        {
          "name": "returnsAccepted",
          "type": "bool"
        },
        {
          "name": "timeLimit",
          "type": "uint256"
        }
      ],
      "payable": false,
      "stateMutability": "view",
      "type": "function"
    },
    {
      "anonymous": false,
      "inputs": [
        {
          "indexed": true,
          "name": "previousOwner",
          "type": "uint256"
        },
        {
          "indexed": true,
          "name": "newOwner",
          "type": "uint256"
        }
      ],
      "name": "OwnershipTransferred",
      "type": "event"
    },
    {
      "constant": false,
      "inputs": [
        {
          "name": "paymentAddress",
          "type": "address"
        }
      ],
      "name": "setPaymentAddress",
      "outputs": [
        {
          "name": "",
          "type": "bool"
        }
      ],
      "payable": false,
      "stateMutability": "nonpayable",
      "type": "function"
    },
    {
      "constant": false,
      "inputs": [
        {
          "name": "id",
          "type": "uint256"
        }
      ],
      "name": "distributeCoupon",
      "outputs": [
        {
          "name": "",
          "type": "bool"
        }
      ],
      "payable": false,
      "stateMutability": "nonpayable",
      "type": "function"
    },
    {
      "constant": false,
      "inputs": [
        {
          "name": "ein",
          "type": "uint256"
        },
        {
          "name": "couponID",
          "type": "uint256"
        }
      ],
      "name": "giveUserCoupon",
      "outputs": [
        {
          "name": "",
          "type": "bool"
        }
      ],
      "payable": false,
      "stateMutability": "nonpayable",
      "type": "function"
    },
    {
      "constant": false,
      "inputs": [
        {
          "name": "_CouponFeatureAddress",
          "type": "address"
        }
      ],
      "name": "setCouponFeatureAddress",
      "outputs": [
        {
          "name": "",
          "type": "bool"
        }
      ],
      "payable": false,
      "stateMutability": "nonpayable",
      "type": "function"
    },
    {
      "constant": false,
      "inputs": [
        {
          "name": "_ItemFeatureAddress",
          "type": "address"
        }
      ],
      "name": "setItemFeatureAddress",
      "outputs": [
        {
          "name": "",
          "type": "bool"
        }
      ],
      "payable": false,
      "stateMutability": "nonpayable",
      "type": "function"
    },
    {
      "constant": false,
      "inputs": [
        {
          "name": "_CouponDistributionAddress",
          "type": "address"
        }
      ],
      "name": "setCouponDistributionAddress",
      "outputs": [
        {
          "name": "",
          "type": "bool"
        }
      ],
      "payable": false,
      "stateMutability": "nonpayable",
      "type": "function"
    },
    {
      "constant": false,
      "inputs": [
        {
          "name": "deliveryMethod",
          "type": "string"
        }
      ],
      "name": "addDeliveryMethod",
      "outputs": [
        {
          "name": "",
          "type": "bool"
        }
      ],
      "payable": false,
      "stateMutability": "nonpayable",
      "type": "function"
    },
    {
      "constant": false,
      "inputs": [
        {
          "name": "id",
          "type": "uint256"
        },
        {
          "name": "deliveryMethod",
          "type": "string"
        }
      ],
      "name": "updateDeliveryMethod",
      "outputs": [
        {
          "name": "",
          "type": "bool"
        }
      ],
      "payable": false,
      "stateMutability": "nonpayable",
      "type": "function"
    },
    {
      "constant": false,
      "inputs": [
        {
          "name": "id",
          "type": "uint256"
        }
      ],
      "name": "deleteDeliveryMethod",
      "outputs": [
        {
          "name": "",
          "type": "bool"
        }
      ],
      "payable": false,
      "stateMutability": "nonpayable",
      "type": "function"
    },
    {
      "constant": false,
      "inputs": [
        {
          "name": "itemTag",
          "type": "string"
        }
      ],
      "name": "addItemTag",
      "outputs": [
        {
          "name": "",
          "type": "bool"
        }
      ],
      "payable": false,
      "stateMutability": "nonpayable",
      "type": "function"
    },
    {
      "constant": false,
      "inputs": [
        {
          "name": "id",
          "type": "uint256"
        },
        {
          "name": "itemTag",
          "type": "string"
        }
      ],
      "name": "updateItemTag",
      "outputs": [
        {
          "name": "",
          "type": "bool"
        }
      ],
      "payable": false,
      "stateMutability": "nonpayable",
      "type": "function"
    },
    {
      "constant": false,
      "inputs": [
        {
          "name": "id",
          "type": "uint256"
        }
      ],
      "name": "deleteItemTag",
      "outputs": [
        {
          "name": "",
          "type": "bool"
        }
      ],
      "payable": false,
      "stateMutability": "nonpayable",
      "type": "function"
    },
    {
      "constant": false,
      "inputs": [
        {
          "name": "returnsAccepted",
          "type": "bool"
        },
        {
          "name": "timeLimit",
          "type": "uint256"
        }
      ],
      "name": "addReturnPolicy",
      "outputs": [
        {
          "name": "",
          "type": "bool"
        }
      ],
      "payable": false,
      "stateMutability": "nonpayable",
      "type": "function"
    },
    {
      "constant": false,
      "inputs": [
        {
          "name": "id",
          "type": "uint256"
        },
        {
          "name": "returnsAccepted",
          "type": "bool"
        },
        {
          "name": "timeLimit",
          "type": "uint256"
        }
      ],
      "name": "updateReturnPolicy",
      "outputs": [
        {
          "name": "",
          "type": "bool"
        }
      ],
      "payable": false,
      "stateMutability": "nonpayable",
      "type": "function"
    },
    {
      "constant": false,
      "inputs": [
        {
          "name": "id",
          "type": "uint256"
        }
      ],
      "name": "deleteReturnPolicy",
      "outputs": [
        {
          "name": "",
          "type": "bool"
        }
      ],
      "payable": false,
      "stateMutability": "nonpayable",
      "type": "function"
    }
  ],
  "bytecode": "0x608060405234801561001057600080fd5b506114a5806100206000396000f3fe608060405234801561001057600080fd5b5060043610610223576000357c010000000000000000000000000000000000000000000000000000000090048063874e0a1d11610137578063d23e8489116100ca578063f0acf6aa11610099578063f0acf6aa146107eb578063f10b560714610808578063f658ae041461082b578063f9f451b814610848578063fd4230e61461085057610223565b8063d23e848914610780578063d58f19c31461079d578063e0182908146107c0578063e4aab400146107e357610223565b8063b26cc3e511610106578063b26cc3e514610671578063b465eccb14610697578063b54a9c55146106b4578063d137484c1461075a57610223565b8063874e0a1d146105895780638900011b146105a65780639c5f4156146105c35780639fc94c2f146105cb57610223565b80635fd5e4d0116101ba578063737b35ec11610189578063737b35ec146104fe5780637604c50014610524578063798f1be11461054157806380168e811461057957806380b212991461058157610223565b80635fd5e4d0146104dc578063633423be146104e457806367316447146104ec578063715018a6146104f457610223565b8063424fe96a116101f6578063424fe96a146103d45780634f22b756146103f95780635e1e10041461048b5780635fc31cf1146104b157610223565b8063031d5f8c1461022857806327fe91ad146102e9578063341f6e90146103965780633e938fb7146103ba575b600080fd5b6102d56004803603604081101561023e57600080fd5b8135919081019060408101602082013564010000000081111561026057600080fd5b82018360208201111561027257600080fd5b8035906020019184600183028401116401000000008311171561029457600080fd5b91908080601f01602080910402602001604051908101604052809392919081815260200183838082843760009201919091525092955061086d945050505050565b604080519115158252519081900360200190f35b6102d5600480360360408110156102ff57600080fd5b8135919081019060408101602082013564010000000081111561032157600080fd5b82018360208201111561033357600080fd5b8035906020019184600183028401116401000000008311171561035557600080fd5b91908080601f016020809104026020016040519081016040528093929190818152602001838380828437600092019190915250929550610891945050505050565b61039e6108ae565b60408051600160a060020a039092168252519081900360200190f35b6103c26108bd565b60408051918252519081900360200190f35b6102d5600480360360408110156103ea57600080fd5b508035151590602001356108c4565b6104166004803603602081101561040f57600080fd5b50356108e1565b6040805160208082528351818301528351919283929083019185019080838360005b83811015610450578181015183820152602001610438565b50505050905090810190601f16801561047d5780820380516001836020036101000a031916815260200191505b509250505060405180910390f35b6102d5600480360360208110156104a157600080fd5b5035600160a060020a031661097b565b6102d5600480360360608110156104c757600080fd5b5080359060208101351515906040013561099d565b6102d56109c3565b61039e6109d2565b6103c26109e1565b6104fc6109e7565b005b6102d56004803603602081101561051457600080fd5b5035600160a060020a0316610a2e565b6102d56004803603602081101561053a57600080fd5b5035610a4a565b61055e6004803603602081101561055757600080fd5b5035610b8f565b60408051921515835260208301919091528051918290030190f35b6103c2610bae565b61039e610bb4565b6102d56004803603602081101561059f57600080fd5b5035610bc3565b610416600480360360208110156105bc57600080fd5b5035610bdf565b61039e610c47565b6102d5600480360360208110156105e157600080fd5b8101906020810181356401000000008111156105fc57600080fd5b82018360208201111561060e57600080fd5b8035906020019184600183028401116401000000008311171561063057600080fd5b91908080601f016020809104026020016040519081016040528093929190818152602001838380828437600092019190915250929550610c56945050505050565b6102d56004803603602081101561068757600080fd5b5035600160a060020a0316610c72565b6102d5600480360360208110156106ad57600080fd5b5035610c8e565b6102d5600480360360208110156106ca57600080fd5b8101906020810181356401000000008111156106e557600080fd5b8201836020820111156106f757600080fd5b8035906020019184600183028401116401000000008311171561071957600080fd5b91908080601f016020809104026020016040519081016040528093929190818152602001838380828437600092019190915250929550610caa945050505050565b6102d56004803603602081101561077057600080fd5b5035600160a060020a0316610cc6565b6104fc6004803603602081101561079657600080fd5b5035610ce2565b6102d5600480360360408110156107b357600080fd5b5080359060200135610cff565b6102d5600480360360408110156107d657600080fd5b5080359060200135610d1f565b6103c2610d3f565b6104166004803603602081101561080157600080fd5b5035610d45565b6102d56004803603604081101561081e57600080fd5b5080359060200135610de6565b6102d56004803603602081101561084157600080fd5b5035610e0a565b61039e610e26565b61055e6004803603602081101561086657600080fd5b5035610e35565b60006108776109c3565b61088057600080fd5b61088a8383610e77565b9392505050565b600061089b6109c3565b6108a457600080fd5b61088a8383610e9f565b600954600160a060020a031681565b600b545b90565b60006108ce6109c3565b6108d757600080fd5b61088a8383610ebd565b60016020818152600092835260409283902080548451600294821615610100026000190190911693909304601f81018390048302840183019094528383529192908301828280156109735780601f1061094857610100808354040283529160200191610973565b820191906000526020600020905b81548152906001019060200180831161095657829003601f168201915b505050505081565b60006109856109c3565b61098e57600080fd5b61099782610f03565b92915050565b60006109a76109c3565b6109b057600080fd5b6109bb848484610f34565b949350505050565b60006109cd610f6f565b905090565b600654600160a060020a031690565b60005481565b6109ef6109c3565b6109f857600080fd5b600b54604051600091907f41545563b5478d4a04f861e33b36e455316904e9fe15096d35d14a5f9885212a908390a36000600b55565b6000610a386109c3565b610a4157600080fd5b61099782610f88565b6000610a546109c3565b610a5d57600080fd5b600754604080517fe4a956e9000000000000000000000000000000000000000000000000000000008152600481018590529051600160a060020a0390921691600091839163e4a956e991602480820192602092909190829003018186803b158015610ac757600080fd5b505afa158015610adb573d6000803e3d6000fd5b505050506040513d6020811015610af157600080fd5b5051604080517f7604c5000000000000000000000000000000000000000000000000000000000081526004810187905290519192508291600160a060020a03831691637604c5009160248083019260209291908290030181600087803b158015610b5a57600080fd5b505af1158015610b6e573d6000803e3d6000fd5b505050506040513d6020811015610b8457600080fd5b509395945050505050565b6005602052600090815260409020805460019091015460ff9091169082565b60045481565b600754600160a060020a031681565b6000610bcd6109c3565b610bd657600080fd5b61099782610fb9565b60036020908152600091825260409182902080548351601f6002600019610100600186161502019093169290920491820184900484028101840190945280845290918301828280156109735780601f1061094857610100808354040283529160200191610973565b600854600160a060020a031681565b6000610c606109c3565b610c6957600080fd5b61099782610fdb565b6000610c7c6109c3565b610c8557600080fd5b6109978261100f565b6000610c986109c3565b610ca157600080fd5b61099782611040565b6000610cb46109c3565b610cbd57600080fd5b61099782611060565b6000610cd06109c3565b610cd957600080fd5b61099782611092565b610cea6109c3565b610cf357600080fd5b610cfc816110c3565b50565b6000918252600a6020908152604080842092845291905290205460ff1690565b600a60209081526000928352604080842090915290825290205460ff1681565b60025481565b60008181526003602090815260409182902080548351601f6002600019610100600186161502019093169290920491820184900484028101840190945280845260609392830182828015610dda5780601f10610daf57610100808354040283529160200191610dda565b820191906000526020600020905b815481529060010190602001808311610dbd57829003601f168201915b50505050509050919050565b600954600090600160a060020a03163314610e0057600080fd5b61088a8383611101565b6000610e146109c3565b610e1d57600080fd5b6109978261112b565b600c54600160a060020a031681565b600080610e40611362565b5050506000908152600560209081526040918290208251808401909352805460ff1615158084526001909101549290910182905291565b600082815260016020908152604082208351610e9592850190611379565b5060019392505050565b600082815260036020908152604082208351610e9592850190611379565b6040805180820182529215158352602080840192835260048054600090815260059092529190209251835460ff1916901515178355905160019283015580548201905590565b60068054600160a060020a03831673ffffffffffffffffffffffffffffffffffffffff199091161790556001919050565b604080518082018252921515835260208084019283526000948552600590529092209051815460ff1916901515178155905160019182015590565b6000610f796108bd565b610f8233611143565b14905090565b60088054600160a060020a03831673ffffffffffffffffffffffffffffffffffffffff199091161790556001919050565b6000908152600560205260408120805460ff1916815560019081019190915590565b600254600090815260036020908152604082208351610ffc92850190611379565b5050600280546001908101909155919050565b60098054600160a060020a03831673ffffffffffffffffffffffffffffffffffffffff199091161790556001919050565b600081815260036020526040812061105890826113f7565b506001919050565b6000805481526001602090815260408220835161107f92850190611379565b5050600080546001908101909155919050565b60078054600160a060020a03831673ffffffffffffffffffffffffffffffffffffffff199091161790556001919050565b806110cd57600080fd5b600b546040518291907f41545563b5478d4a04f861e33b36e455316904e9fe15096d35d14a5f9885212a90600090a3600b55565b6000918252600a602090815260408084209284529190529020805460ff1916600190811790915590565b600081815260016020526040812061105890826113f7565b600c54604080517fa759ee6f0000000000000000000000000000000000000000000000000000000081529051600092600160a060020a0316918391839163a759ee6f91600480830192602092919082900301818787803b1580156111a657600080fd5b505af11580156111ba573d6000803e3d6000fd5b505050506040513d60208110156111d057600080fd5b5051604080517f237f1a21000000000000000000000000000000000000000000000000000000008152600160a060020a038781166004830152915192935083929183169163237f1a2191602480820192602092909190829003018186803b15801561123a57600080fd5b505afa15801561124e573d6000803e3d6000fd5b505050506040513d602081101561126457600080fd5b50516112bb576040517f08c379a00000000000000000000000000000000000000000000000000000000081526004018080602001828103825260288152602001806114526028913960400191505060405180910390fd5b80600160a060020a03166305c62c2f866040518263ffffffff167c01000000000000000000000000000000000000000000000000000000000281526004018082600160a060020a0316600160a060020a0316815260200191505060206040518083038186803b15801561132d57600080fd5b505afa158015611341573d6000803e3d6000fd5b505050506040513d602081101561135757600080fd5b505195945050505050565b604080518082019091526000808252602082015290565b828054600181600116156101000203166002900490600052602060002090601f016020900481019282601f106113ba57805160ff19168380011785556113e7565b828001600101855582156113e7579182015b828111156113e75782518255916020019190600101906113cc565b506113f3929150611437565b5090565b50805460018160011615610100020316600290046000825580601f1061141d5750610cfc565b601f016020900490600052602060002090810190610cfc91905b6108c191905b808211156113f3576000815560010161143d56fe41646472657373206e6f6e2d6578697374656e7420696e204964656e746974795265676973747279a165627a7a723058204d18a868632c7a9a79b0e33598388d82d6941945ef15854d9a8d1074b5ff16070029",
  "source": "pragma solidity ^0.5.0;\n\nimport \"../ein/util/SnowflakeEINOwnable.sol\";\nimport \"./Marketplace.sol\";\nimport \"../interfaces/marketplace/SnowflakeEINMarketplaceInterface.sol\";\nimport \"../interfaces/marketplace/CouponInterface.sol\";\nimport \"../interfaces/marketplace/features/coupon_distribution/CouponDistributionInterface.sol\";\n\ncontract SnowflakeEINMarketplace is Marketplace, SnowflakeEINOwnable, SnowflakeEINMarketplaceInterface {\n\n/*\n    constructor(address paymentAddress, address _CouponFeatureAddress, address _ItemFeatureAddress, address _snowflakeAddress) public {\n        _constructSnowflakeEINMarketplace(paymentAddress, _CouponFeatureAddress, _ItemFeatureAddress, _snowflakeAddress);\n    \n    }    \n*/\n    function _constructSnowflakeEINMarketplace(address paymentAddress, address _CouponFeatureAddress, address _ItemFeatureAddress, address _snowflakeAddress) internal {\n        _constructMarketplace(paymentAddress, _CouponFeatureAddress, _ItemFeatureAddress/*,_snowflakeAddress*/);\n        _constructSnowflakeEINOwnable(_snowflakeAddress);\n    }\n\n    function setPaymentAddress(address paymentAddress) public onlyEINOwner returns (bool) {\n        return _setPaymentAddress(paymentAddress);\n    }\n\n\n    function distributeCoupon(uint id) public onlyEINOwner returns (bool) {\n        //We only need to read from the Coupons, so CouponsInterface is appropriate here\n        CouponInterface coupons = CouponInterface(CouponFeatureAddress);\n        //Grab our distribution address, as defined within the coupon, and access it\n        address distributionAddress = coupons.getCouponDistributionAddress(id);\n        CouponDistributionInterface couponDistribution = CouponDistributionInterface(distributionAddress);\n        //Call the distribute coupon function it has with our coupon ID, and let it execute!\n        couponDistribution.distributeCoupon(id); \n    }\n\n    //Here, we expose the functionality of _giveUserCoupon() and force a CouponDistribution contract to be the only one to actually use this function and give a user a coupon\n    function giveUserCoupon(uint ein, uint couponID) public onlyCouponDistribution returns (bool) {\n        return _giveUserCoupon(ein, couponID);\n    }\n\n\n    //Exposing functions to work with onlyEINOwner to set CouponFeatureAddress\n    function setCouponFeatureAddress(address _CouponFeatureAddress) public onlyEINOwner returns (bool) {\n        return _setCouponFeatureAddress(_CouponFeatureAddress);\n    }\n\n    function setItemFeatureAddress(address _ItemFeatureAddress) public onlyEINOwner returns (bool) {\n        return _setItemFeatureAddress(_ItemFeatureAddress);\n    }\n\n    function setCouponDistributionAddress(address _CouponDistributionAddress) public onlyEINOwner returns (bool) {\n        return _setCouponDistributionAddress(_CouponDistributionAddress);\n    }\n\n\n\n/*\n==================================\nDeliveryMethods add/update/delete\n==================================\n*/\n\n    function addDeliveryMethod(string memory deliveryMethod) public onlyEINOwner returns (bool) {\n        return _addDeliveryMethod(deliveryMethod);\n    }\n\n    function updateDeliveryMethod(uint id, string memory deliveryMethod) public onlyEINOwner returns (bool) {\n        return _updateDeliveryMethod(id, deliveryMethod);\n    }\n\n    function deleteDeliveryMethod(uint id) public onlyEINOwner returns (bool) {\n        return _deleteDeliveryMethod(id);\n    }\n\n\n/*\n==============================\nItemTags add/update/delete\n==============================\n*/\n\n    function addItemTag(string memory itemTag) public onlyEINOwner returns (bool) {\n        return _addItemTag(itemTag);\n    }\n\n    function updateItemTag(uint id, string memory itemTag) public onlyEINOwner returns (bool) {\n        return _updateItemTag(id, itemTag);\n    }\n\n    function deleteItemTag(uint id) public onlyEINOwner returns (bool) {\n        return _deleteItemTag(id);\n    }\n\n/*\n==============================\nReturnPolicy add/update/delete\n==============================\n*/\n\n    function addReturnPolicy(bool returnsAccepted, uint timeLimit) public onlyEINOwner returns (bool) {\n        return _addReturnPolicy(returnsAccepted, timeLimit);\n    }\n\n    function updateReturnPolicy(uint id, bool returnsAccepted, uint timeLimit) public onlyEINOwner returns (bool) {\n        return _updateReturnPolicy(id, returnsAccepted, timeLimit);\n    }\n\n    function deleteReturnPolicy(uint id) public onlyEINOwner returns (bool) {\n        return _deleteReturnPolicy(id);\n    }\n\n\n\n/* ====================================================\n\n       END OF ADD/UPDATE/DELETE FUNCTIONS\n\n   ====================================================\n*/\n\n\n\n\n\n\n\n\n\n\n\n\n\n\n\n\n}\n",
  "sourcePath": "/home/luiserebii/hydrosnowflake_marketplace_coupons/contracts/marketplace/SnowflakeEINMarketplace.sol",
  "compiler": {
    "name": "solc",
    "version": "0.5.6+commit.b259423e.Emscripten.clang"
  },
  "schemaVersion": "3.0.6",
  "updatedAt": "2019-04-11T00:38:35.862Z",
  "devdoc": {
    "methods": {
      "isEINOwner()": {
        "return": "true if address resolves to owner of the contract."
      },
      "ownerEIN()": {
        "return": "the EIN of the owner."
      },
      "renounceOwnership()": {
        "details": "Allows the current owner to relinquish control of the contract."
      },
      "transferOwnership(uint256)": {
        "details": "Allows the current owner to transfer control of the contract to a newOwner.",
        "params": {
          "newOwner": "The address to transfer ownership to."
        }
      }
    }
  },
  "userdoc": {
    "methods": {
      "renounceOwnership()": {
        "notice": "Renouncing to ownership will leave the contract without an owner. It will not be possible to call the functions with the `onlyOwner` modifier anymore."
      }
    }
  }
}