{
  "contractName": "SnowflakeERC721Mintable",
  "abi": [
    {
      "constant": true,
      "inputs": [
        {
          "name": "interfaceId",
          "type": "bytes4"
        }
      ],
      "name": "supportsInterface",
      "outputs": [
        {
          "name": "",
          "type": "bool"
        }
      ],
      "payable": false,
      "stateMutability": "view",
      "type": "function"
    },
    {
      "constant": true,
      "inputs": [
        {
          "name": "tokenId",
          "type": "uint256"
        }
      ],
      "name": "getApproved",
      "outputs": [
        {
          "name": "",
          "type": "uint256"
        }
      ],
      "payable": false,
      "stateMutability": "view",
      "type": "function"
    },
    {
      "constant": false,
      "inputs": [
        {
          "name": "to",
          "type": "uint256"
        },
        {
          "name": "approved",
          "type": "bool"
        }
      ],
      "name": "setApprovalForAll",
      "outputs": [],
      "payable": false,
      "stateMutability": "nonpayable",
      "type": "function"
    },
    {
      "constant": false,
      "inputs": [
        {
          "name": "from",
          "type": "uint256"
        },
        {
          "name": "to",
          "type": "uint256"
        },
        {
          "name": "tokenId",
          "type": "uint256"
        }
      ],
      "name": "transferFrom",
      "outputs": [],
      "payable": false,
      "stateMutability": "nonpayable",
      "type": "function"
    },
    {
      "constant": false,
      "inputs": [
        {
          "name": "to",
          "type": "uint256"
        },
        {
          "name": "tokenId",
          "type": "uint256"
        }
      ],
      "name": "approve",
      "outputs": [],
      "payable": false,
      "stateMutability": "nonpayable",
      "type": "function"
    },
    {
      "constant": true,
      "inputs": [
        {
          "name": "tokenId",
          "type": "uint256"
        }
      ],
      "name": "ownerOf",
      "outputs": [
        {
          "name": "",
          "type": "uint256"
        }
      ],
      "payable": false,
      "stateMutability": "view",
      "type": "function"
    },
    {
      "constant": false,
      "inputs": [
        {
          "name": "from",
          "type": "uint256"
        },
        {
          "name": "to",
          "type": "uint256"
        },
        {
          "name": "tokenId",
          "type": "uint256"
        },
        {
          "name": "_data",
          "type": "bytes"
        }
      ],
      "name": "safeTransferFrom",
      "outputs": [],
      "payable": false,
      "stateMutability": "nonpayable",
      "type": "function"
    },
    {
      "constant": false,
      "inputs": [],
      "name": "renounceSnowflakeMinter",
      "outputs": [],
      "payable": false,
      "stateMutability": "nonpayable",
      "type": "function"
    },
    {
      "constant": true,
      "inputs": [
        {
          "name": "owner",
          "type": "uint256"
        },
        {
          "name": "operator",
          "type": "uint256"
        }
      ],
      "name": "isApprovedForAll",
      "outputs": [
        {
          "name": "",
          "type": "bool"
        }
      ],
      "payable": false,
      "stateMutability": "view",
      "type": "function"
    },
    {
      "constant": true,
      "inputs": [
        {
          "name": "account",
          "type": "uint256"
        }
      ],
      "name": "isSnowflakeMinter",
      "outputs": [
        {
          "name": "",
          "type": "bool"
        }
      ],
      "payable": false,
      "stateMutability": "view",
      "type": "function"
    },
    {
      "constant": true,
      "inputs": [
        {
          "name": "owner",
          "type": "uint256"
        }
      ],
      "name": "balanceOf",
      "outputs": [
        {
          "name": "",
          "type": "uint256"
        }
      ],
      "payable": false,
      "stateMutability": "view",
      "type": "function"
    },
    {
      "constant": false,
      "inputs": [
        {
          "name": "account",
          "type": "uint256"
        }
      ],
      "name": "addSnowflakeMinter",
      "outputs": [],
      "payable": false,
      "stateMutability": "nonpayable",
      "type": "function"
    },
    {
      "constant": false,
      "inputs": [
        {
          "name": "from",
          "type": "uint256"
        },
        {
          "name": "to",
          "type": "uint256"
        },
        {
          "name": "tokenId",
          "type": "uint256"
        }
      ],
      "name": "safeTransferFrom",
      "outputs": [],
      "payable": false,
      "stateMutability": "nonpayable",
      "type": "function"
    },
    {
      "constant": true,
      "inputs": [],
      "name": "snowflakeAddress",
      "outputs": [
        {
          "name": "",
          "type": "address"
        }
      ],
      "payable": false,
      "stateMutability": "view",
      "type": "function"
    },
    {
      "anonymous": false,
      "inputs": [
        {
          "indexed": true,
          "name": "account",
          "type": "uint256"
        }
      ],
      "name": "SnowflakeMinterAdded",
      "type": "event"
    },
    {
      "anonymous": false,
      "inputs": [
        {
          "indexed": true,
          "name": "account",
          "type": "uint256"
        }
      ],
      "name": "SnowflakeMinterRemoved",
      "type": "event"
    },
    {
      "anonymous": false,
      "inputs": [
        {
          "indexed": true,
          "name": "einFrom",
          "type": "uint256"
        },
        {
          "indexed": true,
          "name": "einTo",
          "type": "uint256"
        },
        {
          "indexed": true,
          "name": "tokenId",
          "type": "uint256"
        }
      ],
      "name": "Transfer",
      "type": "event"
    },
    {
      "anonymous": false,
      "inputs": [
        {
          "indexed": true,
          "name": "einOwner",
          "type": "uint256"
        },
        {
          "indexed": true,
          "name": "einApproved",
          "type": "uint256"
        },
        {
          "indexed": true,
          "name": "tokenId",
          "type": "uint256"
        }
      ],
      "name": "Approval",
      "type": "event"
    },
    {
      "anonymous": false,
      "inputs": [
        {
          "indexed": true,
          "name": "einOwner",
          "type": "uint256"
        },
        {
          "indexed": true,
          "name": "einOperator",
          "type": "uint256"
        },
        {
          "indexed": false,
          "name": "approved",
          "type": "bool"
        }
      ],
      "name": "ApprovalForAll",
      "type": "event"
    },
    {
      "constant": false,
      "inputs": [
        {
          "name": "to",
          "type": "uint256"
        },
        {
          "name": "tokenId",
          "type": "uint256"
        }
      ],
      "name": "mint",
      "outputs": [
        {
          "name": "",
          "type": "bool"
        }
      ],
      "payable": false,
      "stateMutability": "nonpayable",
      "type": "function"
    }
  ],
  "bytecode": "0x60806040526100367f01ffc9a70000000000000000000000000000000000000000000000000000000064010000000061003b810204565b6100a7565b7fffffffff00000000000000000000000000000000000000000000000000000000808216141561006a57600080fd5b7fffffffff00000000000000000000000000000000000000000000000000000000166000908152602081905260409020805460ff19166001179055565b610cd3806100b66000396000f3fe608060405234801561001057600080fd5b50600436106100f95760003560e060020a9004806368d1e6411161009b5780639cc7f7081161006a5780639cc7f70814610331578063a4453ffb1461034e578063f46704621461036b578063f9f451b814610394576100f9565b806368d1e64114610230578063895c3e94146102e95780638d9188d5146102f15780639690f6d114610314576100f9565b80631b2ef1ca116100d75780631b2ef1ca146101a4578063310ed7f0146101c75780635d35a3d9146101f05780636352211e14610213576100f9565b806301ffc9a7146100fe578063081812fc1461014e57806316b49a431461017d575b600080fd5b61013a6004803603602081101561011457600080fd5b50357bffffffffffffffffffffffffffffffffffffffffffffffffffffffff19166103b8565b604080519115158252519081900360200190f35b61016b6004803603602081101561016457600080fd5b50356103ec565b60408051918252519081900360200190f35b6101a26004803603604081101561019357600080fd5b50803590602001351515610413565b005b61013a600480360360408110156101ba57600080fd5b508035906020013561048f565b6101a2600480360360608110156101dd57600080fd5b50803590602081013590604001356104be565b6101a26004803603604081101561020657600080fd5b50803590602001356104e9565b61016b6004803603602081101561022957600080fd5b503561056e565b6101a26004803603608081101561024657600080fd5b8135916020810135916040820135919081019060808101606082013564010000000081111561027457600080fd5b82018360208201111561028657600080fd5b803590602001918460018302840111640100000000831117156102a857600080fd5b91908080601f01602080910402602001604051908101604052809392919081815260200183838082843760009201919091525092955061058d945050505050565b6101a26105b3565b61013a6004803603604081101561030757600080fd5b50803590602001356105c6565b61013a6004803603602081101561032a57600080fd5b50356105e6565b61016b6004803603602081101561034757600080fd5b50356105f9565b6101a26004803603602081101561036457600080fd5b503561061c565b6101a26004803603606081101561038157600080fd5b508035906020810135906040013561063d565b61039c610658565b60408051600160a060020a039092168252519081900360200190f35b7bffffffffffffffffffffffffffffffffffffffffffffffffffffffff191660009081526020819052604090205460ff1690565b60006103f782610667565b61040057600080fd5b5060009081526003602052604090205490565b600061041e3361067b565b90508083141561042d57600080fd5b6000818152600560209081526040808320868452825291829020805460ff191685151590811790915582519081529151859284927fe08356808518f185b1eebe6f778106965c2df3a69af4d7139fa9451067146eb792918290030190a3505050565b60006104a261049d3361067b565b6105e6565b6104ab57600080fd5b6104b58383610881565b50600192915050565b6104d06104ca3361067b565b826108f9565b6104d957600080fd5b6104e4838383610934565b505050565b60006104f48261056e565b905060006105013361067b565b90508184141561051057600080fd5b81811480610523575061052382826105c6565b61052c57600080fd5b600083815260036020526040808220869055518491869185917f08aaf4f7dd1adfa5bfe7067dea5b4ebd7e119d43257438a9189f37d7044eb09a91a450505050565b6000818152600260205260408120548061058757600080fd5b92915050565b6105988484846104be565b6105a4848484846109ca565b6105ad57600080fd5b50505050565b6105c46105bf3361067b565b610b10565b565b600091825260056020908152604080842092845291905290205460ff1690565b600061058760068363ffffffff610b4f16565b60008161060557600080fd5b600082815260046020526040902061058790610b72565b61062861049d3361067b565b61063157600080fd5b61063a81610b76565b50565b6104e48383836040518060200160405280600081525061058d565b600154600160a060020a031681565b600090815260026020526040902054151590565b600154604080517fa759ee6f0000000000000000000000000000000000000000000000000000000081529051600092600160a060020a0316918391839163a759ee6f91600480830192602092919082900301818787803b1580156106de57600080fd5b505af11580156106f2573d6000803e3d6000fd5b505050506040513d602081101561070857600080fd5b5051604080517f237f1a21000000000000000000000000000000000000000000000000000000008152600160a060020a038781166004830152915192935083929183169163237f1a2191602480820192602092909190829003018186803b15801561077257600080fd5b505afa158015610786573d6000803e3d6000fd5b505050506040513d602081101561079c57600080fd5b50516107f3576040517f08c379a0000000000000000000000000000000000000000000000000000000008152600401808060200182810382526028815260200180610c806028913960400191505060405180910390fd5b80600160a060020a03166305c62c2f866040518263ffffffff1660e060020a0281526004018082600160a060020a0316600160a060020a0316815260200191505060206040518083038186803b15801561084c57600080fd5b505afa158015610860573d6000803e3d6000fd5b505050506040513d602081101561087657600080fd5b505195945050505050565b8161088b57600080fd5b61089481610667565b1561089e57600080fd5b6000818152600260209081526040808320859055848352600490915290206108c590610bb5565b808260007faf6151f5085accf2d57e1e7bf7601d3b3982e0de7e9a90f032f8554de9c104f660405160405180910390a45050565b6000806109058361056e565b90508084148061091c57508361091a846103ec565b145b8061092c575061092c81856105c6565b949350505050565b8261093e8261056e565b1461094857600080fd5b8161095257600080fd5b61095b81610bbe565b600083815260046020526040902061097290610be3565b600082815260046020526040902061098990610bb5565b600081815260026020526040808220849055518291849186917faf6151f5085accf2d57e1e7bf7601d3b3982e0de7e9a90f032f8554de9c104f691a4505050565b60008084600160a060020a031663494114c26109e53361067b565b8887876040518563ffffffff1660e060020a0281526004018085815260200184815260200183815260200180602001828103825283818151815260200191508051906020019080838360005b83811015610a49578181015183820152602001610a31565b50505050905090810190601f168015610a765780820380516001836020036101000a031916815260200191505b5095505050505050602060405180830381600087803b158015610a9857600080fd5b505af1158015610aac573d6000803e3d6000fd5b505050506040513d6020811015610ac257600080fd5b50517bffffffffffffffffffffffffffffffffffffffffffffffffffffffff19167f494114c20000000000000000000000000000000000000000000000000000000014915050949350505050565b610b2160068263ffffffff610bfa16565b60405181907f34803f71b3ce19f83d2efe8fd85a68795e6ca17a2139def6f374f7cec617366c90600090a250565b600081610b5b57600080fd5b506000908152602091909152604090205460ff1690565b5490565b610b8760068263ffffffff610c3016565b60405181907fc96fabf52983c486b9ee7f26fa97994b2199bd98cf74f02ef6aa1e1d87cbb48290600090a250565b80546001019055565b6000818152600360205260409020541561063a57600090815260036020526040812055565b8054610bf690600163ffffffff610c6a16565b9055565b80610c0457600080fd5b610c0e8282610b4f565b610c1757600080fd5b600090815260209190915260409020805460ff19169055565b80610c3a57600080fd5b610c448282610b4f565b15610c4e57600080fd5b600090815260209190915260409020805460ff19166001179055565b600082821115610c7957600080fd5b5090039056fe41646472657373206e6f6e2d6578697374656e7420696e204964656e746974795265676973747279a165627a7a723058209a2d48320636fcad825fd4af77f9768abac844c502862362684dc602bbba12d50029",
  "source": "pragma solidity ^0.5.2;\n\nimport \"./SnowflakeERC721.sol\";\nimport \"../../access/roles/SnowflakeMinterRole.sol\";\n\n/**\n * @title SnowflakeERC721Mintable\n * @dev Snowflake ERC721 minting logic\n */\ncontract SnowflakeERC721Mintable is SnowflakeERC721, SnowflakeMinterRole {\n\n/*    constructor (address _snowflakeAddress) public {\n        _constructSnowflakeERC721Mintable(_snowflakeAddress);\n    }\n*/\n    function _constructSnowflakeERC721Mintable(address _snowflakeAddress) internal {\n        _constructSnowflakeERC721(_snowflakeAddress);\n        _constructSnowflakeMinterRole(_snowflakeAddress);\n    }\n\n    /**\n     * @dev Function to mint tokens\n     * @param to The EIN that will receive the minted tokens.\n     * @param tokenId The token id to mint.\n     * @return A boolean that indicates if the operation was successful.\n     */\n    function mint(uint256 to, uint256 tokenId) public onlySnowflakeMinter returns (bool) {\n        _mint(to, tokenId);\n        return true;\n    }\n}\n",
  "sourcePath": "/home/luiserebii/github/HydroSnowflake-Marketplace-Coupons/contracts/ein/token/ERC721/SnowflakeERC721Mintable.sol",
  "compiler": {
    "name": "solc",
    "version": "0.5.6+commit.b259423e.Emscripten.clang"
  },
  "schemaVersion": "3.0.6",
  "updatedAt": "2019-04-12T01:36:38.055Z",
  "devdoc": {
    "details": "Snowflake ERC721 minting logic",
    "methods": {
      "approve(uint256,uint256)": {
        "details": "Approves another EIN to transfer the given token ID The zero EIN indicates there is no approved EIN. There can only be one approved EIN per token at a given time. Can only be called by the token owner or an approved operator.",
        "params": {
          "to": "uint256 to be approved for the given token ID",
          "tokenId": "uint256 ID of the token to be approved"
        }
      },
      "balanceOf(uint256)": {
        "details": "Gets the balance of the specified address",
        "params": {
          "owner": "uint256 to query the balance of"
        },
        "return": "uint256 representing the amount owned by the passed address"
      },
      "getApproved(uint256)": {
        "details": "Gets the approved EIN for a token ID, or zero if no EIN set Reverts if the token ID does not exist.",
        "params": {
          "tokenId": "uint256 ID of the token to query the approval of"
        },
        "return": "EIN currently approved for the given token ID"
      },
      "isApprovedForAll(uint256,uint256)": {
        "details": "Tells whether an operator is approved by a given owner",
        "params": {
          "operator": "operator EIN which you want to query the approval of",
          "owner": "owner EIN which you want to query the approval of"
        },
        "return": "bool whether the given operator is approved by the given owner"
      },
      "mint(uint256,uint256)": {
        "details": "Function to mint tokens",
        "params": {
          "to": "The EIN that will receive the minted tokens.",
          "tokenId": "The token id to mint."
        },
        "return": "A boolean that indicates if the operation was successful."
      },
      "ownerOf(uint256)": {
        "details": "Gets the owner of the specified token ID",
        "params": {
          "tokenId": "uint256 ID of the token to query the owner of"
        },
        "return": "uint256 currently marked as the owner of the given token ID"
      },
      "safeTransferFrom(uint256,uint256,uint256)": {
        "details": "Safely transfers the ownership of a given token ID to another EIN If the target EIN is a contract, it must implement `onERC721Received`, which is called upon a safe transfer, and return the magic value `bytes4(keccak256(\"onERC721Received(address,address,uint256,bytes)\"))`; otherwise, the transfer is reverted. Requires the msg.sender to be the owner, approved, or operator",
        "params": {
          "from": "uint256 current owner of the token",
          "to": "uint256 to receive the ownership of the given token ID",
          "tokenId": "uint256 ID of the token to be transferred"
        }
      },
      "safeTransferFrom(uint256,uint256,uint256,bytes)": {
        "details": "Safely transfers the ownership of a given token ID to another EIN If the target EIN is a contract, it must implement `onERC721Received`, which is called upon a safe transfer, and return the magic value `bytes4(keccak256(\"onERC721Received(address,address,uint256,bytes)\"))`; otherwise, the transfer is reverted. Requires the msg.sender to be the owner, approved, or operator",
        "params": {
          "_data": "bytes data to send along with a safe transfer check",
          "from": "current owner of the token",
          "to": "uint256 to receive the ownership of the given token ID",
          "tokenId": "uint256 ID of the token to be transferred"
        }
      },
      "setApprovalForAll(uint256,bool)": {
        "details": "Sets or unsets the approval of a given operator An operator is allowed to transfer all tokens of the sender on their behalf",
        "params": {
          "approved": "representing the status of the approval to be set",
          "to": "operator EIN to set the approval"
        }
      },
      "supportsInterface(bytes4)": {
        "details": "implement supportsInterface(bytes4) using a lookup table"
      },
      "transferFrom(uint256,uint256,uint256)": {
        "details": "Transfers the ownership of a given token ID to another address Usage of this method is discouraged, use `safeTransferFrom` whenever possible Requires the msg.sender to be the owner, approved, or operator",
        "params": {
          "from": "current owner of the token",
          "to": "address to receive the ownership of the given token ID",
          "tokenId": "uint256 ID of the token to be transferred"
        }
      }
    },
    "title": "SnowflakeERC721Mintable"
  },
  "userdoc": {
    "methods": {}
  }
}