{
  "contractName": "SnowflakeERC721",
  "abi": [
    {
      "constant": true,
      "inputs": [
        {
          "name": "interfaceId",
          "type": "bytes4"
        }
      ],
      "name": "supportsInterface",
      "outputs": [
        {
          "name": "",
          "type": "bool"
        }
      ],
      "payable": false,
      "stateMutability": "view",
      "type": "function"
    },
    {
      "constant": true,
      "inputs": [],
      "name": "snowflakeAddress",
      "outputs": [
        {
          "name": "",
          "type": "address"
        }
      ],
      "payable": false,
      "stateMutability": "view",
      "type": "function"
    },
    {
      "anonymous": false,
      "inputs": [
        {
          "indexed": true,
          "name": "einFrom",
          "type": "uint256"
        },
        {
          "indexed": true,
          "name": "einTo",
          "type": "uint256"
        },
        {
          "indexed": true,
          "name": "tokenId",
          "type": "uint256"
        }
      ],
      "name": "Transfer",
      "type": "event"
    },
    {
      "anonymous": false,
      "inputs": [
        {
          "indexed": true,
          "name": "einOwner",
          "type": "uint256"
        },
        {
          "indexed": true,
          "name": "einApproved",
          "type": "uint256"
        },
        {
          "indexed": true,
          "name": "tokenId",
          "type": "uint256"
        }
      ],
      "name": "Approval",
      "type": "event"
    },
    {
      "anonymous": false,
      "inputs": [
        {
          "indexed": true,
          "name": "einOwner",
          "type": "uint256"
        },
        {
          "indexed": true,
          "name": "einOperator",
          "type": "uint256"
        },
        {
          "indexed": false,
          "name": "approved",
          "type": "bool"
        }
      ],
      "name": "ApprovalForAll",
      "type": "event"
    },
    {
      "constant": true,
      "inputs": [
        {
          "name": "owner",
          "type": "uint256"
        }
      ],
      "name": "balanceOf",
      "outputs": [
        {
          "name": "",
          "type": "uint256"
        }
      ],
      "payable": false,
      "stateMutability": "view",
      "type": "function"
    },
    {
      "constant": true,
      "inputs": [
        {
          "name": "tokenId",
          "type": "uint256"
        }
      ],
      "name": "ownerOf",
      "outputs": [
        {
          "name": "",
          "type": "uint256"
        }
      ],
      "payable": false,
      "stateMutability": "view",
      "type": "function"
    },
    {
      "constant": false,
      "inputs": [
        {
          "name": "to",
          "type": "uint256"
        },
        {
          "name": "tokenId",
          "type": "uint256"
        }
      ],
      "name": "approve",
      "outputs": [],
      "payable": false,
      "stateMutability": "nonpayable",
      "type": "function"
    },
    {
      "constant": true,
      "inputs": [
        {
          "name": "tokenId",
          "type": "uint256"
        }
      ],
      "name": "getApproved",
      "outputs": [
        {
          "name": "",
          "type": "uint256"
        }
      ],
      "payable": false,
      "stateMutability": "view",
      "type": "function"
    },
    {
      "constant": false,
      "inputs": [
        {
          "name": "to",
          "type": "uint256"
        },
        {
          "name": "approved",
          "type": "bool"
        }
      ],
      "name": "setApprovalForAll",
      "outputs": [],
      "payable": false,
      "stateMutability": "nonpayable",
      "type": "function"
    },
    {
      "constant": true,
      "inputs": [
        {
          "name": "owner",
          "type": "uint256"
        },
        {
          "name": "operator",
          "type": "uint256"
        }
      ],
      "name": "isApprovedForAll",
      "outputs": [
        {
          "name": "",
          "type": "bool"
        }
      ],
      "payable": false,
      "stateMutability": "view",
      "type": "function"
    },
    {
      "constant": false,
      "inputs": [
        {
          "name": "from",
          "type": "uint256"
        },
        {
          "name": "to",
          "type": "uint256"
        },
        {
          "name": "tokenId",
          "type": "uint256"
        }
      ],
      "name": "transferFrom",
      "outputs": [],
      "payable": false,
      "stateMutability": "nonpayable",
      "type": "function"
    },
    {
      "constant": false,
      "inputs": [
        {
          "name": "from",
          "type": "uint256"
        },
        {
          "name": "to",
          "type": "uint256"
        },
        {
          "name": "tokenId",
          "type": "uint256"
        },
        {
          "name": "_data",
          "type": "bytes"
        }
      ],
      "name": "safeTransferFrom",
      "outputs": [],
      "payable": false,
      "stateMutability": "nonpayable",
      "type": "function"
    },
    {
      "constant": false,
      "inputs": [
        {
          "name": "from",
          "type": "uint256"
        },
        {
          "name": "to",
          "type": "uint256"
        },
        {
          "name": "tokenId",
          "type": "uint256"
        }
      ],
      "name": "safeTransferFrom",
      "outputs": [],
      "payable": false,
      "stateMutability": "nonpayable",
      "type": "function"
    }
  ],
  "bytecode": "0x60806040526100367f01ffc9a70000000000000000000000000000000000000000000000000000000064010000000061003b810204565b6100a7565b7fffffffff00000000000000000000000000000000000000000000000000000000808216141561006a57600080fd5b7fffffffff00000000000000000000000000000000000000000000000000000000166000908152602081905260409020805460ff19166001179055565b610a25806100b66000396000f3fe608060405234801561001057600080fd5b50600436106100ad5760003560e060020a900480636352211e116100755780636352211e146101a457806368d1e641146101c15780638d9188d51461027a5780639cc7f7081461029d578063f4670462146102ba578063f9f451b8146102e3576100ad565b806301ffc9a7146100b2578063081812fc1461010257806316b49a4314610131578063310ed7f0146101585780635d35a3d914610181575b600080fd5b6100ee600480360360208110156100c857600080fd5b50357bffffffffffffffffffffffffffffffffffffffffffffffffffffffff1916610307565b604080519115158252519081900360200190f35b61011f6004803603602081101561011857600080fd5b503561033b565b60408051918252519081900360200190f35b6101566004803603604081101561014757600080fd5b50803590602001351515610362565b005b6101566004803603606081101561016e57600080fd5b50803590602081013590604001356103de565b6101566004803603604081101561019757600080fd5b5080359060200135610409565b61011f600480360360208110156101ba57600080fd5b503561048e565b610156600480360360808110156101d757600080fd5b8135916020810135916040820135919081019060808101606082013564010000000081111561020557600080fd5b82018360208201111561021757600080fd5b8035906020019184600183028401116401000000008311171561023957600080fd5b91908080601f0160208091040260200160405190810160405280939291908181526020018383808284376000920191909152509295506104ad945050505050565b6100ee6004803603604081101561029057600080fd5b50803590602001356104d3565b61011f600480360360208110156102b357600080fd5b50356104f3565b610156600480360360608110156102d057600080fd5b5080359060208101359060400135610516565b6102eb610531565b60408051600160a060020a039092168252519081900360200190f35b7bffffffffffffffffffffffffffffffffffffffffffffffffffffffff191660009081526020819052604090205460ff1690565b600061034682610540565b61034f57600080fd5b5060009081526003602052604090205490565b600061036d33610554565b90508083141561037c57600080fd5b6000818152600560209081526040808320868452825291829020805460ff191685151590811790915582519081529151859284927fe08356808518f185b1eebe6f778106965c2df3a69af4d7139fa9451067146eb792918290030190a3505050565b6103f06103ea33610554565b8261075a565b6103f957600080fd5b610404838383610795565b505050565b60006104148261048e565b9050600061042133610554565b90508184141561043057600080fd5b81811480610443575061044382826104d3565b61044c57600080fd5b600083815260036020526040808220869055518491869185917f08aaf4f7dd1adfa5bfe7067dea5b4ebd7e119d43257438a9189f37d7044eb09a91a450505050565b600081815260026020526040812054806104a757600080fd5b92915050565b6104b88484846103de565b6104c48484848461082b565b6104cd57600080fd5b50505050565b600091825260056020908152604080842092845291905290205460ff1690565b6000816104ff57600080fd5b60008281526004602052604090206104a790610971565b610404838383604051806020016040528060008152506104ad565b600154600160a060020a031681565b600090815260026020526040902054151590565b600154604080517fa759ee6f0000000000000000000000000000000000000000000000000000000081529051600092600160a060020a0316918391839163a759ee6f91600480830192602092919082900301818787803b1580156105b757600080fd5b505af11580156105cb573d6000803e3d6000fd5b505050506040513d60208110156105e157600080fd5b5051604080517f237f1a21000000000000000000000000000000000000000000000000000000008152600160a060020a038781166004830152915192935083929183169163237f1a2191602480820192602092909190829003018186803b15801561064b57600080fd5b505afa15801561065f573d6000803e3d6000fd5b505050506040513d602081101561067557600080fd5b50516106cc576040517f08c379a00000000000000000000000000000000000000000000000000000000081526004018080602001828103825260288152602001806109d26028913960400191505060405180910390fd5b80600160a060020a03166305c62c2f866040518263ffffffff1660e060020a0281526004018082600160a060020a0316600160a060020a0316815260200191505060206040518083038186803b15801561072557600080fd5b505afa158015610739573d6000803e3d6000fd5b505050506040513d602081101561074f57600080fd5b505195945050505050565b6000806107668361048e565b90508084148061077d57508361077b8461033b565b145b8061078d575061078d81856104d3565b949350505050565b8261079f8261048e565b146107a957600080fd5b816107b357600080fd5b6107bc81610975565b60008381526004602052604090206107d39061099c565b60008281526004602052604090206107ea906109b3565b600081815260026020526040808220849055518291849186917faf6151f5085accf2d57e1e7bf7601d3b3982e0de7e9a90f032f8554de9c104f691a4505050565b60008084600160a060020a031663494114c261084633610554565b8887876040518563ffffffff1660e060020a0281526004018085815260200184815260200183815260200180602001828103825283818151815260200191508051906020019080838360005b838110156108aa578181015183820152602001610892565b50505050905090810190601f1680156108d75780820380516001836020036101000a031916815260200191505b5095505050505050602060405180830381600087803b1580156108f957600080fd5b505af115801561090d573d6000803e3d6000fd5b505050506040513d602081101561092357600080fd5b50517bffffffffffffffffffffffffffffffffffffffffffffffffffffffff19167f494114c20000000000000000000000000000000000000000000000000000000014915050949350505050565b5490565b60008181526003602052604090205415610999576000818152600360205260408120555b50565b80546109af90600163ffffffff6109bc16565b9055565b80546001019055565b6000828211156109cb57600080fd5b5090039056fe41646472657373206e6f6e2d6578697374656e7420696e204964656e746974795265676973747279a165627a7a72305820353170f14315c5926677be31464ddd30cd994d3b23f6265a849b092195d0b2ed0029",
  "source": "pragma solidity ^0.5.2;\n\nimport \"./SnowflakeERC721Interface.sol\";\nimport \"./SnowflakeERC721ReceiverInterface.sol\";\nimport \"../../../zeppelin/math/SafeMath.sol\";\nimport \"../../../zeppelin/drafts/Counters.sol\";\nimport \"../../../zeppelin/introspection/ERC165.sol\";\nimport \"../../../snowflake_custom/SnowflakeReader.sol\";\n\n/**\n * @title Snowflake ERC721 Non-Fungible Token Standard basic implementation\n * @dev see https://eips.ethereum.org/EIPS/eip-721\n */\ncontract SnowflakeERC721 is ERC165, SnowflakeERC721Interface, SnowflakeReader {\n    using SafeMath for uint256;\n    using Counters for Counters.Counter;\n\n    // Equals to `bytes4(keccak256(\"onERC721Received(address,address,uint256,bytes)\"))`\n    // which can be also obtained as `IERC721Receiver(0).onERC721Received.selector`\n\n    //*EDITED TO*: onERC721Received(uint256,uint256,uint256,bytes) \n\n    bytes4 private constant _ERC721_RECEIVED = 0x494114c2;\n\n    // Mapping from token ID to owner\n    mapping (uint256 => uint256) private _tokenOwner;\n\n    // Mapping from token ID to approved address\n    mapping (uint256 => uint256) private _tokenApprovals;\n\n    // Mapping from owner to number of owned token\n    mapping (uint256 => Counters.Counter) private _ownedTokensCount;\n\n    // Mapping from owner to operator approvals\n    mapping (uint256 => mapping (uint256 => bool)) private _operatorApprovals;\n\n    bytes4 private constant _INTERFACE_ID_ERC721 = 0x4872420e;\n    //This *NEW* value calculated under this logic: https://gist.github.com/Luiserebii/28c0e9c6bf2a8257868e1a1bcc030c4d\n    /*NOTE: ALL OF THIS IS INVALIDATED DUE TO CHANGES:\n     * 0x80ac58cd ===\n     *     bytes4(keccak256('balanceOf(address)')) ^\n     *     bytes4(keccak256('ownerOf(uint256)')) ^\n     *     bytes4(keccak256('approve(address,uint256)')) ^\n     *     bytes4(keccak256('getApproved(uint256)')) ^\n     *     bytes4(keccak256('setApprovalForAll(address,bool)')) ^\n     *     bytes4(keccak256('isApprovedForAll(address,address)')) ^\n     *     bytes4(keccak256('transferFrom(address,address,uint256)')) ^\n     *     bytes4(keccak256('safeTransferFrom(address,address,uint256)')) ^\n     *     bytes4(keccak256('safeTransferFrom(address,address,uint256,bytes)'))\n     *  =========================================== END OF EVAL\n     */\n/*\n    constructor (address _snowflakeAddress) public {\n        _constructSnowflakeERC721(_snowflakeAddress);\n    }\n*/\n    function _constructSnowflakeERC721(address _snowflakeAddress) internal {\n        _constructSnowflakeReader(_snowflakeAddress);\n\n         // register the supported interfaces to conform to ERC721 via ERC165\n        _registerInterface(_INTERFACE_ID_ERC721);       \n    }\n\n    /**\n     * @dev Gets the balance of the specified address\n     * @param owner uint256 to query the balance of\n     * @return uint256 representing the amount owned by the passed address\n     */\n    function balanceOf(uint256 owner) public view returns (uint256) {\n        require(owner != 0);\n        return _ownedTokensCount[owner].current();\n    }\n\n    /**\n     * @dev Gets the owner of the specified token ID\n     * @param tokenId uint256 ID of the token to query the owner of\n     * @return uint256 currently marked as the owner of the given token ID\n     */\n    function ownerOf(uint256 tokenId) public view returns (uint256) {\n        uint256 owner = _tokenOwner[tokenId];\n        require(owner != 0);\n        return owner;\n    }\n\n    /**\n     * @dev Approves another EIN to transfer the given token ID\n     * The zero EIN indicates there is no approved EIN.\n     * There can only be one approved EIN per token at a given time.\n     * Can only be called by the token owner or an approved operator.\n     * @param to uint256 to be approved for the given token ID\n     * @param tokenId uint256 ID of the token to be approved\n     */\n    function approve(uint256 to, uint256 tokenId) public {\n        uint256 owner = ownerOf(tokenId);\n        uint256 sender = getEIN(msg.sender);\n        require(to != owner);\n        require(sender == owner || isApprovedForAll(owner, sender));\n\n        _tokenApprovals[tokenId] = to;\n        emit Approval(owner, to, tokenId);\n    }\n\n    /**\n     * @dev Gets the approved EIN for a token ID, or zero if no EIN set\n     * Reverts if the token ID does not exist.\n     * @param tokenId uint256 ID of the token to query the approval of\n     * @return EIN currently approved for the given token ID\n     */\n    function getApproved(uint256 tokenId) public view returns (uint256) {\n        require(_exists(tokenId));\n        return _tokenApprovals[tokenId];\n    }\n\n    /**\n     * @dev Sets or unsets the approval of a given operator\n     * An operator is allowed to transfer all tokens of the sender on their behalf\n     * @param to operator EIN to set the approval\n     * @param approved representing the status of the approval to be set\n     */\n    function setApprovalForAll(uint256 to, bool approved) public {\n        uint256 sender = getEIN(msg.sender);\n        require(to != sender);\n        _operatorApprovals[sender][to] = approved;\n        emit ApprovalForAll(sender, to, approved);\n    }\n\n    /**\n     * @dev Tells whether an operator is approved by a given owner\n     * @param owner owner EIN which you want to query the approval of\n     * @param operator operator EIN which you want to query the approval of\n     * @return bool whether the given operator is approved by the given owner\n     */\n    function isApprovedForAll(uint256 owner, uint256 operator) public view returns (bool) {\n        return _operatorApprovals[owner][operator];\n    }\n\n    /**\n     * @dev Transfers the ownership of a given token ID to another address\n     * Usage of this method is discouraged, use `safeTransferFrom` whenever possible\n     * Requires the msg.sender to be the owner, approved, or operator\n     * @param from current owner of the token\n     * @param to address to receive the ownership of the given token ID\n     * @param tokenId uint256 ID of the token to be transferred\n     */\n    function transferFrom(uint256 from, uint256 to, uint256 tokenId) public {\n        require(_isApprovedOrOwner(getEIN(msg.sender), tokenId));\n\n        _transferFrom(from, to, tokenId);\n    }\n\n    /**\n     * @dev Safely transfers the ownership of a given token ID to another EIN\n     * If the target EIN is a contract, it must implement `onERC721Received`,\n     * which is called upon a safe transfer, and return the magic value\n     * `bytes4(keccak256(\"onERC721Received(address,address,uint256,bytes)\"))`; otherwise,\n     * the transfer is reverted.\n     * Requires the msg.sender to be the owner, approved, or operator\n     * @param from uint256 current owner of the token\n     * @param to uint256 to receive the ownership of the given token ID\n     * @param tokenId uint256 ID of the token to be transferred\n     */\n    function safeTransferFrom(uint256 from, uint256 to, uint256 tokenId) public {\n        safeTransferFrom(from, to, tokenId, \"\");\n    }\n\n    /**\n     * @dev Safely transfers the ownership of a given token ID to another EIN\n     * If the target EIN is a contract, it must implement `onERC721Received`,\n     * which is called upon a safe transfer, and return the magic value\n     * `bytes4(keccak256(\"onERC721Received(address,address,uint256,bytes)\"))`; otherwise,\n     * the transfer is reverted.\n     * Requires the msg.sender to be the owner, approved, or operator\n     * @param from current owner of the token\n     * @param to uint256 to receive the ownership of the given token ID\n     * @param tokenId uint256 ID of the token to be transferred\n     * @param _data bytes data to send along with a safe transfer check\n     */\n    function safeTransferFrom(uint256 from, uint256 to, uint256 tokenId, bytes memory _data) public {\n        transferFrom(from, to, tokenId);\n        require(_checkOnERC721Received(from, to, tokenId, _data));\n    }\n\n    /**\n     * @dev Returns whether the specified token exists\n     * @param tokenId uint256 ID of the token to query the existence of\n     * @return bool whether the token exists\n     */\n    function _exists(uint256 tokenId) internal view returns (bool) {\n        uint256 owner = _tokenOwner[tokenId];\n        return owner != 0;\n    }\n\n    /**\n     * @dev Returns whether the given spender can transfer a given token ID\n     * @param spender uint256 of the spender to query\n     * @param tokenId uint256 ID of the token to be transferred\n     * @return bool whether the msg.sender is approved for the given token ID,\n     * is an operator of the owner, or is the owner of the token\n     */\n    function _isApprovedOrOwner(uint256 spender, uint256 tokenId) internal view returns (bool) {\n        uint256 owner = ownerOf(tokenId);\n        return (spender == owner || getApproved(tokenId) == spender || isApprovedForAll(owner, spender));\n    }\n\n    /**\n     * @dev Internal function to mint a new token\n     * Reverts if the given token ID already exists\n     * @param to The address that will own the minted token\n     * @param tokenId uint256 ID of the token to be minted\n     */\n    function _mint(uint256 to, uint256 tokenId) internal {\n        require(to != 0);\n        require(!_exists(tokenId));\n\n        _tokenOwner[tokenId] = to;\n        _ownedTokensCount[to].increment();\n\n        emit Transfer(0, to, tokenId);\n    }\n\n    /**\n     * @dev Internal function to burn a specific token\n     * Reverts if the token does not exist\n     * Deprecated, use _burn(uint256) instead.\n     * @param owner owner of the token to burn\n     * @param tokenId uint256 ID of the token being burned\n     */\n    function _burn(uint256 owner, uint256 tokenId) internal {\n        require(ownerOf(tokenId) == owner);\n\n        _clearApproval(tokenId);\n\n        _ownedTokensCount[owner].decrement();\n        _tokenOwner[tokenId] = 0;\n\n        emit Transfer(owner, 0, tokenId);\n    }\n\n    /**\n     * @dev Internal function to burn a specific token\n     * Reverts if the token does not exist\n     * @param tokenId uint256 ID of the token being burned\n     */\n    function _burn(uint256 tokenId) internal {\n        _burn(ownerOf(tokenId), tokenId);\n    }\n\n    /**\n     * @dev Internal function to transfer ownership of a given token ID to another address.\n     * As opposed to transferFrom, this imposes no restrictions on msg.sender.\n     * @param from current owner of the token\n     * @param to uint256 to receive the ownership of the given token ID\n     * @param tokenId uint256 ID of the token to be transferred\n     */\n    function _transferFrom(uint256 from, uint256 to, uint256 tokenId) internal {\n        require(ownerOf(tokenId) == from);\n        require(to != 0);\n\n        _clearApproval(tokenId);\n\n        _ownedTokensCount[from].decrement();\n        _ownedTokensCount[to].increment();\n\n        _tokenOwner[tokenId] = to;\n\n        emit Transfer(from, to, tokenId);\n    }\n\n    /**\n     * @dev Internal function to invoke `onERC721Received` on a target EIN\n     * The call is not executed if the target address is not a contract\n     * @param from uint256 representing the previous owner of the given token ID\n     * @param to target uint256 that will receive the tokens\n     * @param tokenId uint256 ID of the token to be transferred\n     * @param _data bytes optional data to send along with the call\n     * @return bool whether the call correctly returned the expected magic value\n     */\n    function _checkOnERC721Received(uint256 from, uint256 to, uint256 tokenId, bytes memory _data)\n        internal returns (bool)\n    {\n/*        if (!to.isContract()) {\n            return true;\n        }\n*/\n        bytes4 retval = SnowflakeERC721ReceiverInterface(to).onERC721Received(getEIN(msg.sender), from, tokenId, _data);\n        return (retval == _ERC721_RECEIVED);\n    }\n\n    /**\n     * @dev Private function to clear current approval of a given token ID\n     * @param tokenId uint256 ID of the token to be transferred\n     */\n    function _clearApproval(uint256 tokenId) private {\n        if (_tokenApprovals[tokenId] != 0) {\n            _tokenApprovals[tokenId] = 0;\n        }\n    }\n}\n",
  "sourcePath": "/home/luiserebii/hydrosnowflake_marketplace_coupons/contracts/ein/token/ERC721/SnowflakeERC721.sol",
  "compiler": {
    "name": "solc",
    "version": "0.5.6+commit.b259423e.Emscripten.clang"
  },
  "schemaVersion": "3.0.6",
  "updatedAt": "2019-04-11T00:38:35.852Z",
  "devdoc": {
    "details": "see https://eips.ethereum.org/EIPS/eip-721",
    "methods": {
      "approve(uint256,uint256)": {
        "details": "Approves another EIN to transfer the given token ID The zero EIN indicates there is no approved EIN. There can only be one approved EIN per token at a given time. Can only be called by the token owner or an approved operator.",
        "params": {
          "to": "uint256 to be approved for the given token ID",
          "tokenId": "uint256 ID of the token to be approved"
        }
      },
      "balanceOf(uint256)": {
        "details": "Gets the balance of the specified address",
        "params": {
          "owner": "uint256 to query the balance of"
        },
        "return": "uint256 representing the amount owned by the passed address"
      },
      "getApproved(uint256)": {
        "details": "Gets the approved EIN for a token ID, or zero if no EIN set Reverts if the token ID does not exist.",
        "params": {
          "tokenId": "uint256 ID of the token to query the approval of"
        },
        "return": "EIN currently approved for the given token ID"
      },
      "isApprovedForAll(uint256,uint256)": {
        "details": "Tells whether an operator is approved by a given owner",
        "params": {
          "operator": "operator EIN which you want to query the approval of",
          "owner": "owner EIN which you want to query the approval of"
        },
        "return": "bool whether the given operator is approved by the given owner"
      },
      "ownerOf(uint256)": {
        "details": "Gets the owner of the specified token ID",
        "params": {
          "tokenId": "uint256 ID of the token to query the owner of"
        },
        "return": "uint256 currently marked as the owner of the given token ID"
      },
      "safeTransferFrom(uint256,uint256,uint256)": {
        "details": "Safely transfers the ownership of a given token ID to another EIN If the target EIN is a contract, it must implement `onERC721Received`, which is called upon a safe transfer, and return the magic value `bytes4(keccak256(\"onERC721Received(address,address,uint256,bytes)\"))`; otherwise, the transfer is reverted. Requires the msg.sender to be the owner, approved, or operator",
        "params": {
          "from": "uint256 current owner of the token",
          "to": "uint256 to receive the ownership of the given token ID",
          "tokenId": "uint256 ID of the token to be transferred"
        }
      },
      "safeTransferFrom(uint256,uint256,uint256,bytes)": {
        "details": "Safely transfers the ownership of a given token ID to another EIN If the target EIN is a contract, it must implement `onERC721Received`, which is called upon a safe transfer, and return the magic value `bytes4(keccak256(\"onERC721Received(address,address,uint256,bytes)\"))`; otherwise, the transfer is reverted. Requires the msg.sender to be the owner, approved, or operator",
        "params": {
          "_data": "bytes data to send along with a safe transfer check",
          "from": "current owner of the token",
          "to": "uint256 to receive the ownership of the given token ID",
          "tokenId": "uint256 ID of the token to be transferred"
        }
      },
      "setApprovalForAll(uint256,bool)": {
        "details": "Sets or unsets the approval of a given operator An operator is allowed to transfer all tokens of the sender on their behalf",
        "params": {
          "approved": "representing the status of the approval to be set",
          "to": "operator EIN to set the approval"
        }
      },
      "supportsInterface(bytes4)": {
        "details": "implement supportsInterface(bytes4) using a lookup table"
      },
      "transferFrom(uint256,uint256,uint256)": {
        "details": "Transfers the ownership of a given token ID to another address Usage of this method is discouraged, use `safeTransferFrom` whenever possible Requires the msg.sender to be the owner, approved, or operator",
        "params": {
          "from": "current owner of the token",
          "to": "address to receive the ownership of the given token ID",
          "tokenId": "uint256 ID of the token to be transferred"
        }
      }
    },
    "title": "Snowflake ERC721 Non-Fungible Token Standard basic implementation"
  },
  "userdoc": {
    "methods": {}
  }
}