{
  "contractName": "SnowflakeMinterRole",
  "abi": [
    {
      "constant": true,
      "inputs": [],
      "name": "snowflakeAddress",
      "outputs": [
        {
          "name": "",
          "type": "address"
        }
      ],
      "payable": false,
      "stateMutability": "view",
      "type": "function"
    },
    {
      "anonymous": false,
      "inputs": [
        {
          "indexed": true,
          "name": "account",
          "type": "uint256"
        }
      ],
      "name": "SnowflakeMinterAdded",
      "type": "event"
    },
    {
      "anonymous": false,
      "inputs": [
        {
          "indexed": true,
          "name": "account",
          "type": "uint256"
        }
      ],
      "name": "SnowflakeMinterRemoved",
      "type": "event"
    },
    {
      "constant": true,
      "inputs": [
        {
          "name": "account",
          "type": "uint256"
        }
      ],
      "name": "isSnowflakeMinter",
      "outputs": [
        {
          "name": "",
          "type": "bool"
        }
      ],
      "payable": false,
      "stateMutability": "view",
      "type": "function"
    },
    {
      "constant": false,
      "inputs": [
        {
          "name": "account",
          "type": "uint256"
        }
      ],
      "name": "addSnowflakeMinter",
      "outputs": [],
      "payable": false,
      "stateMutability": "nonpayable",
      "type": "function"
    },
    {
      "constant": false,
      "inputs": [],
      "name": "renounceSnowflakeMinter",
      "outputs": [],
      "payable": false,
      "stateMutability": "nonpayable",
      "type": "function"
    }
  ],
  "bytecode": "0x608060405234801561001057600080fd5b506104cf806100206000396000f3fe608060405234801561001057600080fd5b5060043610610068577c01000000000000000000000000000000000000000000000000000000006000350463895c3e94811461006d5780639690f6d114610077578063a4453ffb146100a8578063f9f451b8146100c5575b600080fd5b6100756100e9565b005b6100946004803603602081101561008d57600080fd5b50356100fc565b604080519115158252519081900360200190f35b610075600480360360208110156100be57600080fd5b5035610115565b6100cd61013b565b60408051600160a060020a039092168252519081900360200190f35b6100fa6100f53361014a565b61036a565b565b600061010f60018363ffffffff6103a916565b92915050565b6101266101213361014a565b6100fc565b61012f57600080fd5b610138816103cc565b50565b600054600160a060020a031681565b60008054604080517fa759ee6f0000000000000000000000000000000000000000000000000000000081529051600160a060020a03909216918391839163a759ee6f9160048082019260209290919082900301818787803b1580156101ae57600080fd5b505af11580156101c2573d6000803e3d6000fd5b505050506040513d60208110156101d857600080fd5b5051604080517f237f1a21000000000000000000000000000000000000000000000000000000008152600160a060020a038781166004830152915192935083929183169163237f1a2191602480820192602092909190829003018186803b15801561024257600080fd5b505afa158015610256573d6000803e3d6000fd5b505050506040513d602081101561026c57600080fd5b50516102c3576040517f08c379a000000000000000000000000000000000000000000000000000000000815260040180806020018281038252602881526020018061047c6028913960400191505060405180910390fd5b80600160a060020a03166305c62c2f866040518263ffffffff167c01000000000000000000000000000000000000000000000000000000000281526004018082600160a060020a0316600160a060020a0316815260200191505060206040518083038186803b15801561033557600080fd5b505afa158015610349573d6000803e3d6000fd5b505050506040513d602081101561035f57600080fd5b505195945050505050565b61037b60018263ffffffff61040b16565b60405181907f34803f71b3ce19f83d2efe8fd85a68795e6ca17a2139def6f374f7cec617366c90600090a250565b6000816103b557600080fd5b506000908152602091909152604090205460ff1690565b6103dd60018263ffffffff61044116565b60405181907fc96fabf52983c486b9ee7f26fa97994b2199bd98cf74f02ef6aa1e1d87cbb48290600090a250565b8061041557600080fd5b61041f82826103a9565b61042857600080fd5b600090815260209190915260409020805460ff19169055565b8061044b57600080fd5b61045582826103a9565b1561045f57600080fd5b600090815260209190915260409020805460ff1916600117905556fe41646472657373206e6f6e2d6578697374656e7420696e204964656e746974795265676973747279a165627a7a72305820ca5717e4137b9261dbaf04a206c41af3cdf40d9d5a3153a4f669a9e349ae0a5e0029",
  "source": "pragma solidity ^0.5.2;\n\nimport \"../EINRoles.sol\";\nimport \"../../../snowflake_custom/SnowflakeReader.sol\";\n\n\n/*\n * =========================\n * NOTE ABOUT THIS CONTRACT: This is a more of a \"SnowflakeMinterRole\" contract\n * =========================\n */\n\ncontract SnowflakeMinterRole is SnowflakeReader {\n    using EINRoles for EINRoles.EINRole;\n\n    event SnowflakeMinterAdded(uint256 indexed account);\n    event SnowflakeMinterRemoved(uint256 indexed account);\n\n    EINRoles.EINRole private _einMinters;\n\n    //TODO: Merge in msg.sender idea somehow in a good way; Identity Registry link, perhaps?\n/*\n    constructor (address _snowflakeAddress) public {\n        _constructSnowflakeMinterRole(_snowflakeAddress);\n    }\n*/\n    function _constructSnowflakeMinterRole(address _snowflakeAddress) internal {\n        _constructSnowflakeReader(_snowflakeAddress);\n        _addSnowflakeMinter(getEIN(msg.sender));\n    }\n\n    modifier onlySnowflakeMinter() {\n        require(isSnowflakeMinter(getEIN(msg.sender)));\n        _;\n    }\n\n    function isSnowflakeMinter(uint256 account) public view returns (bool) {\n        return _einMinters.has(account);\n    }\n\n    function addSnowflakeMinter(uint256 account) public onlySnowflakeMinter {\n        _addSnowflakeMinter(account);\n    }\n\n    function renounceSnowflakeMinter() public {\n        _removeSnowflakeMinter(getEIN(msg.sender));\n    }\n\n    function _addSnowflakeMinter(uint256 account) internal {\n        _einMinters.add(account);\n        emit SnowflakeMinterAdded(account);\n    }\n\n    function _removeSnowflakeMinter(uint256 account) internal {\n        _einMinters.remove(account);\n        emit SnowflakeMinterRemoved(account);\n    }\n}\n",
  "sourcePath": "/home/luiserebii/hydrosnowflake_marketplace_coupons/contracts/ein/access/roles/SnowflakeMinterRole.sol",
  "compiler": {
    "name": "solc",
    "version": "0.5.6+commit.b259423e.Emscripten.clang"
  },
  "schemaVersion": "3.0.6",
  "updatedAt": "2019-04-11T00:38:35.852Z",
  "devdoc": {
    "methods": {}
  },
  "userdoc": {
    "methods": {}
  }
}