{
  "contractName": "SnowflakeEINOwnable",
  "abi": [
    {
      "constant": true,
      "inputs": [],
      "name": "ownerEIN",
      "outputs": [
        {
          "name": "",
          "type": "uint256"
        }
      ],
      "payable": false,
      "stateMutability": "view",
      "type": "function"
    },
    {
      "constant": false,
      "inputs": [],
      "name": "renounceOwnership",
      "outputs": [],
      "payable": false,
      "stateMutability": "nonpayable",
      "type": "function"
    },
    {
      "constant": false,
      "inputs": [
        {
          "name": "newOwner",
          "type": "uint256"
        }
      ],
      "name": "transferOwnership",
      "outputs": [],
      "payable": false,
      "stateMutability": "nonpayable",
      "type": "function"
    },
    {
      "constant": true,
      "inputs": [],
      "name": "snowflakeAddress",
      "outputs": [
        {
          "name": "",
          "type": "address"
        }
      ],
      "payable": false,
      "stateMutability": "view",
      "type": "function"
    },
    {
      "anonymous": false,
      "inputs": [
        {
          "indexed": true,
          "name": "previousOwner",
          "type": "uint256"
        },
        {
          "indexed": true,
          "name": "newOwner",
          "type": "uint256"
        }
      ],
      "name": "OwnershipTransferred",
      "type": "event"
    },
    {
      "constant": false,
      "inputs": [],
      "name": "isEINOwner",
      "outputs": [
        {
          "name": "",
          "type": "bool"
        }
      ],
      "payable": false,
      "stateMutability": "nonpayable",
      "type": "function"
    }
  ],
  "bytecode": "0x608060405234801561001057600080fd5b50610444806100206000396000f3fe608060405234801561001057600080fd5b5060043610610073577c010000000000000000000000000000000000000000000000000000000060003504633e938fb781146100785780635fd5e4d014610092578063715018a6146100ae578063d23e8489146100b8578063f9f451b8146100d5575b600080fd5b6100806100f9565b60408051918252519081900360200190f35b61009a6100ff565b604080519115158252519081900360200190f35b6100b661010e565b005b6100b6600480360360208110156100ce57600080fd5b5035610151565b6100dd61016e565b60408051600160a060020a039092168252519081900360200190f35b60005490565b600061010961017d565b905090565b6101166100ff565b61011f57600080fd5b600080546040517f41545563b5478d4a04f861e33b36e455316904e9fe15096d35d14a5f9885212a908390a360008055565b6101596100ff565b61016257600080fd5b61016b81610196565b50565b600154600160a060020a031681565b60006101876100f9565b610190336101d1565b14905090565b806101a057600080fd5b6000805460405183927f41545563b5478d4a04f861e33b36e455316904e9fe15096d35d14a5f9885212a91a3600055565b600154604080517fa759ee6f0000000000000000000000000000000000000000000000000000000081529051600092600160a060020a0316918391839163a759ee6f91600480830192602092919082900301818787803b15801561023457600080fd5b505af1158015610248573d6000803e3d6000fd5b505050506040513d602081101561025e57600080fd5b5051604080517f237f1a21000000000000000000000000000000000000000000000000000000008152600160a060020a038781166004830152915192935083929183169163237f1a2191602480820192602092909190829003018186803b1580156102c857600080fd5b505afa1580156102dc573d6000803e3d6000fd5b505050506040513d60208110156102f257600080fd5b5051610349576040517f08c379a00000000000000000000000000000000000000000000000000000000081526004018080602001828103825260288152602001806103f16028913960400191505060405180910390fd5b80600160a060020a03166305c62c2f866040518263ffffffff167c01000000000000000000000000000000000000000000000000000000000281526004018082600160a060020a0316600160a060020a0316815260200191505060206040518083038186803b1580156103bb57600080fd5b505afa1580156103cf573d6000803e3d6000fd5b505050506040513d60208110156103e557600080fd5b50519594505050505056fe41646472657373206e6f6e2d6578697374656e7420696e204964656e746974795265676973747279a165627a7a7230582038aed8915b8df691387eb39d6b4cac6cc86dc58b05c7620a2d4513dde7a3fc100029",
  "source": "pragma solidity ^0.5.0;\n\nimport \"./EINOwnable.sol\";\nimport \"../../snowflake_custom/SnowflakeReader.sol\";\n\n/**\n* @title SnowflakeEINOwnable\n* @dev The SnowflakeEINOwnable contract has an owner EIN, and provides basic authorization control\n* functions, this simplifies the implementation of \"user permissions\".\n*\n* This extends the EINOwnable contract and provides the EIN authentication used through Snowflake (uses the abstraction Snowflake provides; the minor disadvantage is that this is indirectly connected to the IdentityRegistry, but could arugably be good design)\n*/\ncontract SnowflakeEINOwnable is EINOwnable, SnowflakeReader {\n\n    /**\n    * @dev The SnowflakeEINOwnable constructor sets the original `owner` of the contract to the sender\n    * account.\n    */\n/*    constructor(address _snowflakeAddress) public {\n        _constructSnowflakeEINOwnable(_snowflakeAddress);\n    }\n*/\n    function _constructSnowflakeEINOwnable(address _snowflakeAddress) internal {\n       _constructSnowflakeReader(_snowflakeAddress);       \n       _constructEINOwnable(constructorEINOwnable(msg.sender));\n    }\n\n    /**\n    * @return true if address resolves to owner of the contract.\n    */\n    function isEINOwner() public returns(bool){\n        return _isEINOwner();\n    }\n\n    function _isEINOwner() internal returns(bool) {\n        return getEIN(msg.sender) == ownerEIN();\n    }\n\n\n    /*==========================================================================\n     * Function reserved for modifying parent constructor input for EINOwnable\n     *==========================================================================\n     */\n\n    function constructorEINOwnable(address sender) private returns (uint256 ein) {\n        return getEIN(sender);\n    }\n\n}\n",
  "sourcePath": "/home/luiserebii/github/HydroSnowflake-Marketplace-Coupons/contracts/ein/util/SnowflakeEINOwnable.sol",
  "compiler": {
    "name": "solc",
    "version": "0.5.6+commit.b259423e.Emscripten.clang"
  },
  "schemaVersion": "3.0.6",
  "updatedAt": "2019-04-12T01:36:38.045Z",
  "devdoc": {
    "details": "The SnowflakeEINOwnable contract has an owner EIN, and provides basic authorization control functions, this simplifies the implementation of \"user permissions\". * This extends the EINOwnable contract and provides the EIN authentication used through Snowflake (uses the abstraction Snowflake provides; the minor disadvantage is that this is indirectly connected to the IdentityRegistry, but could arugably be good design)",
    "methods": {
      "isEINOwner()": {
        "return": "true if address resolves to owner of the contract."
      },
      "ownerEIN()": {
        "return": "the EIN of the owner."
      },
      "renounceOwnership()": {
        "details": "Allows the current owner to relinquish control of the contract."
      },
      "transferOwnership(uint256)": {
        "details": "Allows the current owner to transfer control of the contract to a newOwner.",
        "params": {
          "newOwner": "The address to transfer ownership to."
        }
      }
    },
    "title": "SnowflakeEINOwnable"
  },
  "userdoc": {
    "methods": {
      "renounceOwnership()": {
        "notice": "Renouncing to ownership will leave the contract without an owner. It will not be possible to call the functions with the `onlyOwner` modifier anymore."
      }
    }
  }
}