{
  "contractName": "Status",
  "abi": [
    {
      "constant": false,
      "inputs": [],
      "name": "renounceOwnership",
      "outputs": [],
      "payable": false,
      "stateMutability": "nonpayable",
      "type": "function"
    },
    {
      "constant": true,
      "inputs": [],
      "name": "callOnAddition",
      "outputs": [
        {
          "name": "",
          "type": "bool"
        }
      ],
      "payable": false,
      "stateMutability": "view",
      "type": "function"
    },
    {
      "constant": true,
      "inputs": [],
      "name": "snowflakeDescription",
      "outputs": [
        {
          "name": "",
          "type": "string"
        }
      ],
      "payable": false,
      "stateMutability": "view",
      "type": "function"
    },
    {
      "constant": true,
      "inputs": [],
      "name": "snowflakeName",
      "outputs": [
        {
          "name": "",
          "type": "string"
        }
      ],
      "payable": false,
      "stateMutability": "view",
      "type": "function"
    },
    {
      "constant": true,
      "inputs": [],
      "name": "owner",
      "outputs": [
        {
          "name": "",
          "type": "address"
        }
      ],
      "payable": false,
      "stateMutability": "view",
      "type": "function"
    },
    {
      "constant": true,
      "inputs": [],
      "name": "callOnRemoval",
      "outputs": [
        {
          "name": "",
          "type": "bool"
        }
      ],
      "payable": false,
      "stateMutability": "view",
      "type": "function"
    },
    {
      "constant": true,
      "inputs": [],
      "name": "isOwner",
      "outputs": [
        {
          "name": "",
          "type": "bool"
        }
      ],
      "payable": false,
      "stateMutability": "view",
      "type": "function"
    },
    {
      "constant": false,
      "inputs": [
        {
          "name": "_snowflakeAddress",
          "type": "address"
        }
      ],
      "name": "setSnowflakeAddress",
      "outputs": [],
      "payable": false,
      "stateMutability": "nonpayable",
      "type": "function"
    },
    {
      "constant": false,
      "inputs": [
        {
          "name": "newOwner",
          "type": "address"
        }
      ],
      "name": "transferOwnership",
      "outputs": [],
      "payable": false,
      "stateMutability": "nonpayable",
      "type": "function"
    },
    {
      "constant": true,
      "inputs": [],
      "name": "snowflakeAddress",
      "outputs": [
        {
          "name": "",
          "type": "address"
        }
      ],
      "payable": false,
      "stateMutability": "view",
      "type": "function"
    },
    {
      "inputs": [
        {
          "name": "snowflakeAddress",
          "type": "address"
        }
      ],
      "payable": false,
      "stateMutability": "nonpayable",
      "type": "constructor"
    },
    {
      "anonymous": false,
      "inputs": [
        {
          "indexed": false,
          "name": "ein",
          "type": "uint256"
        }
      ],
      "name": "StatusSignUp",
      "type": "event"
    },
    {
      "anonymous": false,
      "inputs": [
        {
          "indexed": false,
          "name": "ein",
          "type": "uint256"
        },
        {
          "indexed": false,
          "name": "status",
          "type": "string"
        }
      ],
      "name": "StatusUpdated",
      "type": "event"
    },
    {
      "anonymous": false,
      "inputs": [
        {
          "indexed": true,
          "name": "previousOwner",
          "type": "address"
        },
        {
          "indexed": true,
          "name": "newOwner",
          "type": "address"
        }
      ],
      "name": "OwnershipTransferred",
      "type": "event"
    },
    {
      "constant": false,
      "inputs": [
        {
          "name": "ein",
          "type": "uint256"
        },
        {
          "name": "",
          "type": "uint256"
        },
        {
          "name": "",
          "type": "bytes"
        }
      ],
      "name": "onAddition",
      "outputs": [
        {
          "name": "",
          "type": "bool"
        }
      ],
      "payable": false,
      "stateMutability": "nonpayable",
      "type": "function"
    },
    {
      "constant": false,
      "inputs": [
        {
          "name": "",
          "type": "uint256"
        },
        {
          "name": "",
          "type": "bytes"
        }
      ],
      "name": "onRemoval",
      "outputs": [
        {
          "name": "",
          "type": "bool"
        }
      ],
      "payable": false,
      "stateMutability": "nonpayable",
      "type": "function"
    },
    {
      "constant": true,
      "inputs": [
        {
          "name": "ein",
          "type": "uint256"
        }
      ],
      "name": "getStatus",
      "outputs": [
        {
          "name": "",
          "type": "string"
        }
      ],
      "payable": false,
      "stateMutability": "view",
      "type": "function"
    },
    {
      "constant": false,
      "inputs": [
        {
          "name": "status",
          "type": "string"
        }
      ],
      "name": "setStatus",
      "outputs": [],
      "payable": false,
      "stateMutability": "nonpayable",
      "type": "function"
    },
    {
      "constant": false,
      "inputs": [
        {
          "name": "to",
          "type": "address"
        }
      ],
      "name": "withdrawFees",
      "outputs": [],
      "payable": false,
      "stateMutability": "nonpayable",
      "type": "function"
    }
  ],
  "bytecode": "0x670de0b6b3a764000060055560c0604052601460808190527f4d792066697273742073746174757320f09f988e00000000000000000000000060a09081526200004c916006919062000232565b503480156200005a57600080fd5b5060405160208062001464833981018060405260208110156200007c57600080fd5b5051604080518082018252600681527f537461747573000000000000000000000000000000000000000000000000000060208281019190915282518084018452601081527f53657420796f7572207374617475732e000000000000000000000000000000009181019190915260008054600160a060020a0319163317808255935192939192859260019291600160a060020a03919091169082907f8be0079c531659141344cd1fd0a4f28419497f9722a3daafe3b4186f6b6457e0908290a384516200015090600190602088019062000232565b5083516200016690600290602087019062000232565b506200017b83640100000000620001df810204565b6003805491151575010000000000000000000000000000000000000000000260a860020a60ff0219931515740100000000000000000000000000000000000000000260a060020a60ff0219909316929092179290921617905550620002d492505050565b620001f264010000000062000220810204565b1515620001fe57600080fd5b60038054600160a060020a031916600160a060020a0392909216919091179055565b600054600160a060020a031633145b90565b828054600181600116156101000203166002900490600052602060002090601f016020900481019282601f106200027557805160ff1916838001178555620002a5565b82800160010185558215620002a5579182015b82811115620002a557825182559160200191906001019062000288565b50620002b3929150620002b7565b5090565b6200022f91905b80821115620002b35760008155600101620002be565b61118080620002e46000396000f3fe6080604052600436106100da5763ffffffff7c0100000000000000000000000000000000000000000000000000000000600035041663164e68de81146100df5780635c622a0e14610114578063715018a6146101b357806371790251146101c857806376acf1b6146101f15780637d2211d61461020657806388cdab94146102b95780638da5cb5b146102ce5780638f06492d146102ff5780638f32d59b1461031457806390bfaf40146103295780639182621a146103e8578063c979b05a146104a2578063f2fde38b146104d5578063f9f451b814610508575b600080fd5b3480156100eb57600080fd5b506101126004803603602081101561010257600080fd5b5035600160a060020a031661051d565b005b34801561012057600080fd5b5061013e6004803603602081101561013757600080fd5b503561065f565b6040805160208082528351818301528351919283929083019185019080838360005b83811015610178578181015183820152602001610160565b50505050905090810190601f1680156101a55780820380516001836020036101000a031916815260200191505b509250505060405180910390f35b3480156101bf57600080fd5b50610112610700565b3480156101d457600080fd5b506101dd61076a565b604080519115158252519081900360200190f35b3480156101fd57600080fd5b5061013e61078b565b34801561021257600080fd5b506101126004803603602081101561022957600080fd5b81019060208101813564010000000081111561024457600080fd5b82018360208201111561025657600080fd5b8035906020019184600183028401116401000000008311171561027857600080fd5b91908080601f016020809104026020016040519081016040528093929190818152602001838380828437600092019190915250929550610816945050505050565b3480156102c557600080fd5b5061013e610b10565b3480156102da57600080fd5b506102e3610b6a565b60408051600160a060020a039092168252519081900360200190f35b34801561030b57600080fd5b506101dd610b7a565b34801561032057600080fd5b506101dd610b9c565b34801561033557600080fd5b506101dd6004803603606081101561034c57600080fd5b81359160208101359181019060608101604082013564010000000081111561037357600080fd5b82018360208201111561038557600080fd5b803590602001918460018302840111640100000000831117156103a757600080fd5b91908080601f016020809104026020016040519081016040528093929190818152602001838380828437600092019190915250929550610bad945050505050565b3480156103f457600080fd5b506101dd6004803603604081101561040b57600080fd5b8135919081019060408101602082013564010000000081111561042d57600080fd5b82018360208201111561043f57600080fd5b8035906020019184600183028401116401000000008311171561046157600080fd5b91908080601f016020809104026020016040519081016040528093929190818152602001838380828437600092019190915250929550610d4d945050505050565b3480156104ae57600080fd5b50610112600480360360208110156104c557600080fd5b5035600160a060020a0316610dde565b3480156104e157600080fd5b50610112600480360360208110156104f857600080fd5b5035600160a060020a0316610e20565b34801561051457600080fd5b506102e3610e3f565b610525610b9c565b151561053057600080fd5b600354604080517f75d7e4bd0000000000000000000000000000000000000000000000000000000081529051600160a060020a039092169160009183916375d7e4bd9160048082019260209290919082900301818787803b15801561059457600080fd5b505af11580156105a8573d6000803e3d6000fd5b505050506040513d60208110156105be57600080fd5b5051604080517f70a08231000000000000000000000000000000000000000000000000000000008152306004820152905191925061065a918591600160a060020a038516916370a0823191602480820192602092909190829003018186803b15801561062957600080fd5b505afa15801561063d573d6000803e3d6000fd5b505050506040513d602081101561065357600080fd5b5051610e4e565b505050565b60008181526004602090815260409182902080548351601f60026000196101006001861615020190931692909204918201849004840281018401909452808452606093928301828280156106f45780601f106106c9576101008083540402835291602001916106f4565b820191906000526020600020905b8154815290600101906020018083116106d757829003601f168201915b50505050509050919050565b610708610b9c565b151561071357600080fd5b60008054604051600160a060020a03909116907f8be0079c531659141344cd1fd0a4f28419497f9722a3daafe3b4186f6b6457e0908390a36000805473ffffffffffffffffffffffffffffffffffffffff19169055565b60035474010000000000000000000000000000000000000000900460ff1681565b6002805460408051602060018416156101000260001901909316849004601f8101849004840282018401909252818152929183018282801561080e5780601f106107e35761010080835404028352916020019161080e565b820191906000526020600020905b8154815290600101906020018083116107f157829003601f168201915b505050505081565b600354604080517fa759ee6f0000000000000000000000000000000000000000000000000000000081529051600160a060020a0390921691600091839163a759ee6f9160048082019260209290919082900301818787803b15801561087a57600080fd5b505af115801561088e573d6000803e3d6000fd5b505050506040513d60208110156108a457600080fd5b5051604080517f05c62c2f0000000000000000000000000000000000000000000000000000000081523360048201529051919250600091600160a060020a038416916305c62c2f916024808301926020929190829003018186803b15801561090b57600080fd5b505afa15801561091f573d6000803e3d6000fd5b505050506040513d602081101561093557600080fd5b5051604080517fd4b1cdcc000000000000000000000000000000000000000000000000000000008152600481018390523060248201529051919250600160a060020a0384169163d4b1cdcc91604480820192602092909190829003018186803b1580156109a157600080fd5b505afa1580156109b5573d6000803e3d6000fd5b505050506040513d60208110156109cb57600080fd5b50511515610a49576040805160e560020a62461bcd02815260206004820152602260248201527f5468652045494e20686173206e6f74207365742074686973207265736f6c766560448201527f722e000000000000000000000000000000000000000000000000000000000000606482015290519081900360840190fd5b60008181526004602090815260409091208551610a6892870190611047565b507fdc280875b120650ffe3edf5f724f07fd086361a32c2a387fe34b495f5679e77d81856040518083815260200180602001828103825283818151815260200191508051906020019080838360005b83811015610acf578181015183820152602001610ab7565b50505050905090810190601f168015610afc5780820380516001836020036101000a031916815260200191505b50935050505060405180910390a150505050565b60018054604080516020600284861615610100026000190190941693909304601f8101849004840282018401909252818152929183018282801561080e5780601f106107e35761010080835404028352916020019161080e565b600054600160a060020a03165b90565b6003547501000000000000000000000000000000000000000000900460ff1681565b600054600160a060020a0316331490565b600354600090600160a060020a03163314610c38576040805160e560020a62461bcd02815260206004820152602160248201527f446964206e6f74206f726967696e6174652066726f6d20536e6f77666c616b6560448201527f2e00000000000000000000000000000000000000000000000000000000000000606482015290519081900360840190fd5b600354600160a060020a03168063edda781586610c53610b6a565b6005546040518463ffffffff167c01000000000000000000000000000000000000000000000000000000000281526004018084815260200183600160a060020a0316600160a060020a031681526020018281526020019350505050600060405180830381600087803b158015610cc857600080fd5b505af1158015610cdc573d6000803e3d6000fd5b505050600086815260046020526040902060068054610d0e9350600260001961010060018416150201909116046110c5565b506040805186815290517fc252650b912104c77e420095a00de9a62cf950c897f73a39629aee5df63f97759181900360200190a1506001949350505050565b600354600090600160a060020a03163314610dd8576040805160e560020a62461bcd02815260206004820152602160248201527f446964206e6f74206f726967696e6174652066726f6d20536e6f77666c616b6560448201527f2e00000000000000000000000000000000000000000000000000000000000000606482015290519081900360840190fd5b92915050565b610de6610b9c565b1515610df157600080fd5b6003805473ffffffffffffffffffffffffffffffffffffffff1916600160a060020a0392909216919091179055565b610e28610b9c565b1515610e3357600080fd5b610e3c81610fca565b50565b600354600160a060020a031681565b600354604080517f75d7e4bd0000000000000000000000000000000000000000000000000000000081529051600092600160a060020a0316916375d7e4bd91600480830192602092919082900301818787803b158015610ead57600080fd5b505af1158015610ec1573d6000803e3d6000fd5b505050506040513d6020811015610ed757600080fd5b5051604080517fa9059cbb000000000000000000000000000000000000000000000000000000008152600160a060020a0386811660048301526024820186905291519293509083169163a9059cbb916044808201926020929091908290030181600087803b158015610f4857600080fd5b505af1158015610f5c573d6000803e3d6000fd5b505050506040513d6020811015610f7257600080fd5b5051151561065a576040805160e560020a62461bcd02815260206004820152601660248201527f556e7375636365737366756c207472616e736665722e00000000000000000000604482015290519081900360640190fd5b600160a060020a0381161515610fdf57600080fd5b60008054604051600160a060020a03808516939216917f8be0079c531659141344cd1fd0a4f28419497f9722a3daafe3b4186f6b6457e091a36000805473ffffffffffffffffffffffffffffffffffffffff1916600160a060020a0392909216919091179055565b828054600181600116156101000203166002900490600052602060002090601f016020900481019282601f1061108857805160ff19168380011785556110b5565b828001600101855582156110b5579182015b828111156110b557825182559160200191906001019061109a565b506110c192915061113a565b5090565b828054600181600116156101000203166002900490600052602060002090601f016020900481019282601f106110fe57805485556110b5565b828001600101855582156110b557600052602060002091601f016020900482015b828111156110b557825482559160010191906001019061111f565b610b7791905b808211156110c1576000815560010161114056fea165627a7a72305820b8a8990f0d4c38309a5106197a96d528571a296887935dfd6b37e3fc9251f55b0029",
  "source": "pragma solidity ^0.5.0;\n\nimport \"../SnowflakeResolver.sol\";\nimport \"../interfaces/IdentityRegistryInterface.sol\";\nimport \"../interfaces/HydroInterface.sol\";\nimport \"../interfaces/SnowflakeInterface.sol\";\n\ncontract Status is SnowflakeResolver {\n    mapping (uint => string) private statuses;\n\n    uint signUpFee = 1000000000000000000;\n    string firstStatus = \"My first status 😎\";\n\n    constructor (address snowflakeAddress)\n        SnowflakeResolver(\"Status\", \"Set your status.\", snowflakeAddress, true, false) public\n    {}\n\n    // implement signup function\n    function onAddition(uint ein, uint, bytes memory) public senderIsSnowflake() returns (bool) {\n        SnowflakeInterface snowflake = SnowflakeInterface(snowflakeAddress);\n        snowflake.withdrawSnowflakeBalanceFrom(ein, owner(), signUpFee);\n\n        statuses[ein] = firstStatus;\n\n        emit StatusSignUp(ein);\n\n        return true;\n    }\n\n    function onRemoval(uint, bytes memory) public senderIsSnowflake() returns (bool) {}\n\n    function getStatus(uint ein) public view returns (string memory) {\n        return statuses[ein];\n    }\n\n    function setStatus(string memory status) public {\n        SnowflakeInterface snowflake = SnowflakeInterface(snowflakeAddress);\n        IdentityRegistryInterface identityRegistry = IdentityRegistryInterface(snowflake.identityRegistryAddress());\n\n        uint ein = identityRegistry.getEIN(msg.sender);\n        require(identityRegistry.isResolverFor(ein, address(this)), \"The EIN has not set this resolver.\");\n\n        statuses[ein] = status;\n\n        emit StatusUpdated(ein, status);\n    }\n\n    function withdrawFees(address to) public onlyOwner() {\n        SnowflakeInterface snowflake = SnowflakeInterface(snowflakeAddress);\n        HydroInterface hydro = HydroInterface(snowflake.hydroTokenAddress());\n        withdrawHydroBalanceTo(to, hydro.balanceOf(address(this)));\n    }\n\n    event StatusSignUp(uint ein);\n    event StatusUpdated(uint ein, string status);\n}\n",
  "sourcePath": "/home/luiserebii/hydro_bounty_unofficial/contracts/resolvers/Status.sol",
  "compiler": {
    "name": "solc",
    "version": "0.5.0+commit.1d4f565a.Emscripten.clang"
  },
  "schemaVersion": "3.0.0-beta.0",
  "updatedAt": "2019-03-11T23:50:45.679Z"
}