{
  "contractName": "Via",
  "abi": [
    {
      "constant": true,
      "inputs": [
        {
          "name": "",
          "type": "uint256"
        }
      ],
      "name": "balances",
      "outputs": [
        {
          "name": "",
          "type": "uint256"
        }
      ],
      "payable": false,
      "stateMutability": "view",
      "type": "function"
    },
    {
      "constant": false,
      "inputs": [],
      "name": "renounceOwnership",
      "outputs": [],
      "payable": false,
      "stateMutability": "nonpayable",
      "type": "function"
    },
    {
      "constant": true,
      "inputs": [],
      "name": "owner",
      "outputs": [
        {
          "name": "",
          "type": "address"
        }
      ],
      "payable": false,
      "stateMutability": "view",
      "type": "function"
    },
    {
      "constant": true,
      "inputs": [],
      "name": "isOwner",
      "outputs": [
        {
          "name": "",
          "type": "bool"
        }
      ],
      "payable": false,
      "stateMutability": "view",
      "type": "function"
    },
    {
      "constant": false,
      "inputs": [
        {
          "name": "newOwner",
          "type": "address"
        }
      ],
      "name": "transferOwnership",
      "outputs": [],
      "payable": false,
      "stateMutability": "nonpayable",
      "type": "function"
    },
    {
      "constant": true,
      "inputs": [],
      "name": "snowflakeAddress",
      "outputs": [
        {
          "name": "",
          "type": "address"
        }
      ],
      "payable": false,
      "stateMutability": "view",
      "type": "function"
    },
    {
      "inputs": [
        {
          "name": "_snowflakeAddress",
          "type": "address"
        }
      ],
      "payable": false,
      "stateMutability": "nonpayable",
      "type": "constructor"
    },
    {
      "anonymous": false,
      "inputs": [
        {
          "indexed": true,
          "name": "previousOwner",
          "type": "address"
        },
        {
          "indexed": true,
          "name": "newOwner",
          "type": "address"
        }
      ],
      "name": "OwnershipTransferred",
      "type": "event"
    },
    {
      "constant": false,
      "inputs": [
        {
          "name": "_snowflakeAddress",
          "type": "address"
        }
      ],
      "name": "setSnowflakeAddress",
      "outputs": [],
      "payable": false,
      "stateMutability": "nonpayable",
      "type": "function"
    },
    {
      "constant": false,
      "inputs": [],
      "name": "fund",
      "outputs": [],
      "payable": true,
      "stateMutability": "payable",
      "type": "function"
    },
    {
      "constant": true,
      "inputs": [
        {
          "name": "amount",
          "type": "uint256"
        }
      ],
      "name": "convertHydroToEth",
      "outputs": [
        {
          "name": "",
          "type": "uint256"
        }
      ],
      "payable": false,
      "stateMutability": "view",
      "type": "function"
    },
    {
      "constant": false,
      "inputs": [
        {
          "name": "",
          "type": "address"
        },
        {
          "name": "",
          "type": "uint256"
        },
        {
          "name": "einTo",
          "type": "uint256"
        },
        {
          "name": "amount",
          "type": "uint256"
        },
        {
          "name": "",
          "type": "bytes"
        }
      ],
      "name": "snowflakeCall",
      "outputs": [],
      "payable": false,
      "stateMutability": "nonpayable",
      "type": "function"
    },
    {
      "constant": false,
      "inputs": [
        {
          "name": "",
          "type": "address"
        },
        {
          "name": "",
          "type": "uint256"
        },
        {
          "name": "to",
          "type": "address"
        },
        {
          "name": "amount",
          "type": "uint256"
        },
        {
          "name": "",
          "type": "bytes"
        }
      ],
      "name": "snowflakeCall",
      "outputs": [],
      "payable": false,
      "stateMutability": "nonpayable",
      "type": "function"
    },
    {
      "constant": false,
      "inputs": [
        {
          "name": "",
          "type": "address"
        },
        {
          "name": "einTo",
          "type": "uint256"
        },
        {
          "name": "amount",
          "type": "uint256"
        },
        {
          "name": "",
          "type": "bytes"
        }
      ],
      "name": "snowflakeCall",
      "outputs": [],
      "payable": false,
      "stateMutability": "nonpayable",
      "type": "function"
    },
    {
      "constant": false,
      "inputs": [
        {
          "name": "",
          "type": "address"
        },
        {
          "name": "to",
          "type": "address"
        },
        {
          "name": "amount",
          "type": "uint256"
        },
        {
          "name": "",
          "type": "bytes"
        }
      ],
      "name": "snowflakeCall",
      "outputs": [],
      "payable": false,
      "stateMutability": "nonpayable",
      "type": "function"
    },
    {
      "constant": false,
      "inputs": [
        {
          "name": "to",
          "type": "address"
        }
      ],
      "name": "withdrawTo",
      "outputs": [],
      "payable": false,
      "stateMutability": "nonpayable",
      "type": "function"
    },
    {
      "constant": false,
      "inputs": [
        {
          "name": "to",
          "type": "address"
        }
      ],
      "name": "withdrawHydroTo",
      "outputs": [],
      "payable": false,
      "stateMutability": "nonpayable",
      "type": "function"
    }
  ],
  "bytecode": "0x6080604052600a6005553480156200001657600080fd5b5060405160208062000fc9833981018060405260208110156200003857600080fd5b505160008054600160a060020a03191633178082556040518392600160a060020a039290921691907f8be0079c531659141344cd1fd0a4f28419497f9722a3daafe3b4186f6b6457e0908290a36200009981640100000000620000b5810204565b50620000ae81640100000000620000b5810204565b5062000203565b620000c8640100000000620001b3810204565b620000d257600080fd5b620000eb8164010000000062000cae620001c482021704565b60028054600160a060020a031916600160a060020a038381169190911791829055604080517f75d7e4bd000000000000000000000000000000000000000000000000000000008152905192909116916375d7e4bd916004808201926020929091908290030181600087803b1580156200016357600080fd5b505af115801562000178573d6000803e3d6000fd5b505050506040513d60208110156200018f57600080fd5b505160038054600160a060020a031916600160a060020a0390921691909117905550565b600054600160a060020a0316331490565b620001d7640100000000620001b3810204565b620001e157600080fd5b60018054600160a060020a031916600160a060020a0392909216919091179055565b610db680620002136000396000f3fe608060405260043610610105576000357c01000000000000000000000000000000000000000000000000000000009004806372b0d90c116100a7578063c979b05a11610076578063c979b05a146104cb578063e5a13092146104fe578063f2fde38b146105d1578063f9f451b81461060457610105565b806372b0d90c146104365780638da5cb5b146104695780638f32d59b1461049a578063b60d4288146104c357610105565b80633aaaa8a0116100e35780633aaaa8a01461024f5780633c72e439146103285780634903b0d1146103f7578063715018a61461042157610105565b8063101df4ff1461010a57806317451a51146101465780631c75edfe1461017b575b600080fd5b34801561011657600080fd5b506101346004803603602081101561012d57600080fd5b5035610619565b60408051918252519081900360200190f35b34801561015257600080fd5b506101796004803603602081101561016957600080fd5b5035600160a060020a031661062d565b005b34801561018757600080fd5b50610179600480360360a081101561019e57600080fd5b600160a060020a038235169160208101359160408201359160608101359181019060a0810160808201356401000000008111156101da57600080fd5b8201836020820111156101ec57600080fd5b8035906020019184600183028401116401000000008311171561020e57600080fd5b91908080601f0160208091040260200160405190810160405280939291908181526020018383808284376000920191909152509295506107c0945050505050565b34801561025b57600080fd5b50610179600480360360a081101561027257600080fd5b600160a060020a0382358116926020810135926040820135909216916060820135919081019060a0810160808201356401000000008111156102b357600080fd5b8201836020820111156102c557600080fd5b803590602001918460018302840111640100000000831117156102e757600080fd5b91908080601f01602080910402602001604051908101604052809392919081815260200183838082843760009201919091525092955061081d945050505050565b34801561033457600080fd5b506101796004803603608081101561034b57600080fd5b600160a060020a03823516916020810135916040820135919081019060808101606082013564010000000081111561038257600080fd5b82018360208201111561039457600080fd5b803590602001918460018302840111640100000000831117156103b657600080fd5b91908080601f016020809104026020016040519081016040528093929190818152602001838380828437600092019190915250929550610873945050505050565b34801561040357600080fd5b506101346004803603602081101561041a57600080fd5b50356108cf565b34801561042d57600080fd5b506101796108e1565b34801561044257600080fd5b506101796004803603602081101561045957600080fd5b5035600160a060020a0316610949565b34801561047557600080fd5b5061047e610ab3565b60408051600160a060020a039092168252519081900360200190f35b3480156104a657600080fd5b506104af610ac2565b604080519115158252519081900360200190f35b610179610ad3565b3480156104d757600080fd5b50610179600480360360208110156104ee57600080fd5b5035600160a060020a0316610ad5565b34801561050a57600080fd5b506101796004803603608081101561052157600080fd5b600160a060020a0382358116926020810135909116916040820135919081019060808101606082013564010000000081111561055c57600080fd5b82018360208201111561056e57600080fd5b8035906020019184600183028401116401000000008311171561059057600080fd5b91908080601f016020809104026020016040519081016040528093929190818152602001838380828437600092019190915250929550610bce945050505050565b3480156105dd57600080fd5b50610179600480360360208110156105f457600080fd5b5035600160a060020a0316610c24565b34801561061057600080fd5b5061047e610c3e565b6000600554828161062657fe5b0492915050565b610635610ac2565b61063e57600080fd5b600354604080517f70a082310000000000000000000000000000000000000000000000000000000081523060048201529051600160a060020a039092169163a9059cbb91849184916370a08231916024808301926020929190829003018186803b1580156106ab57600080fd5b505afa1580156106bf573d6000803e3d6000fd5b505050506040513d60208110156106d557600080fd5b5051604080517c010000000000000000000000000000000000000000000000000000000063ffffffff8616028152600160a060020a03909316600484015260248301919091525160448083019260209291908290030181600087803b15801561073d57600080fd5b505af1158015610751573d6000803e3d6000fd5b505050506040513d602081101561076757600080fd5b50516107bd576040805160e560020a62461bcd02815260206004820152601960248201527f5472616e736665722077617320756e7375636365737366756c00000000000000604482015290519081900360640190fd5b50565b600154600160a060020a0316331461080c5760405160e560020a62461bcd028152600401808060200182810382526021815260200180610d6a6021913960400191505060405180910390fd5b6108168383610c4d565b5050505050565b600154600160a060020a031633146108695760405160e560020a62461bcd028152600401808060200182810382526021815260200180610d6a6021913960400191505060405180910390fd5b6108168383610c70565b600154600160a060020a031633146108bf5760405160e560020a62461bcd028152600401808060200182810382526021815260200180610d6a6021913960400191505060405180910390fd5b6108c98383610c4d565b50505050565b60046020526000908152604090205481565b6108e9610ac2565b6108f257600080fd5b60008054604051600160a060020a03909116907f8be0079c531659141344cd1fd0a4f28419497f9722a3daafe3b4186f6b6457e0908390a36000805473ffffffffffffffffffffffffffffffffffffffff19169055565b600254604080517fa759ee6f0000000000000000000000000000000000000000000000000000000081529051600092600160a060020a03169163a759ee6f91600480830192602092919082900301818787803b1580156109a857600080fd5b505af11580156109bc573d6000803e3d6000fd5b505050506040513d60208110156109d257600080fd5b5051604080517f05c62c2f000000000000000000000000000000000000000000000000000000008152336004828101919091529151929350600160a060020a03808616936108fc93926000928716916305c62c2f91602480820192602092909190829003018186803b158015610a4757600080fd5b505afa158015610a5b573d6000803e3d6000fd5b505050506040513d6020811015610a7157600080fd5b5051815260208101919091526040908101600090812054915182159093029290818181858888f19350505050158015610aae573d6000803e3d6000fd5b505050565b600054600160a060020a031690565b600054600160a060020a0316331490565b565b610add610ac2565b610ae657600080fd5b610aef81610cae565b6002805473ffffffffffffffffffffffffffffffffffffffff1916600160a060020a038381169190911791829055604080517f75d7e4bd000000000000000000000000000000000000000000000000000000008152905192909116916375d7e4bd916004808201926020929091908290030181600087803b158015610b7357600080fd5b505af1158015610b87573d6000803e3d6000fd5b505050506040513d6020811015610b9d57600080fd5b50516003805473ffffffffffffffffffffffffffffffffffffffff1916600160a060020a0390921691909117905550565b600154600160a060020a03163314610c1a5760405160e560020a62461bcd028152600401808060200182810382526021815260200180610d6a6021913960400191505060405180910390fd5b6108c98383610c70565b610c2c610ac2565b610c3557600080fd5b6107bd81610cee565b600154600160a060020a031681565b610c5681610619565b600092835260046020526040909220805490920190915550565b81600160a060020a03166108fc610c8683610619565b6040518115909202916000818181858888f19350505050158015610aae573d6000803e3d6000fd5b610cb6610ac2565b610cbf57600080fd5b6001805473ffffffffffffffffffffffffffffffffffffffff1916600160a060020a0392909216919091179055565b600160a060020a038116610d0157600080fd5b60008054604051600160a060020a03808516939216917f8be0079c531659141344cd1fd0a4f28419497f9722a3daafe3b4186f6b6457e091a36000805473ffffffffffffffffffffffffffffffffffffffff1916600160a060020a039290921691909117905556fe446964206e6f74206f726967696e6174652066726f6d20536e6f77666c616b652ea165627a7a72305820cbd78a84f595f0d5dd51d19754623253214395ea0331fa546bd72b1b22ac3dd40029",
  "source": "pragma solidity ^0.5.0;\n\nimport \"../SnowflakeVia.sol\";\nimport \"../interfaces/IdentityRegistryInterface.sol\";\nimport \"../interfaces/HydroInterface.sol\";\nimport \"../interfaces/SnowflakeInterface.sol\";\n\ncontract Via is SnowflakeVia {\n    SnowflakeInterface private snowflake;\n    HydroInterface private hydroToken;\n\n    constructor (address _snowflakeAddress) SnowflakeVia(_snowflakeAddress) public {\n        setSnowflakeAddress(_snowflakeAddress);\n    }\n\n    function setSnowflakeAddress(address _snowflakeAddress) public onlyOwner() {\n        super.setSnowflakeAddress(_snowflakeAddress);\n\n        snowflake = SnowflakeInterface(_snowflakeAddress);\n        hydroToken = HydroInterface(snowflake.hydroTokenAddress());\n    }\n\n    // this contract is responsible for funding itself with ETH, and must be entrusted to do so\n    function fund() public payable {}\n\n    // EIN -> ETH balances\n    mapping (uint => uint) public balances;\n\n    // a dummy exchange rate between HYDRO and ETH s.t. 10 HYDRO := 1 ETH for testing purposes\n    uint exchangeRate = 10;\n    function convertHydroToEth(uint amount) public view returns (uint) {\n        return amount / exchangeRate; // POTENTIALLY UNSAFE - always use SafeMath when not testing\n    }\n\n    // end recipient is an EIN, credit their (ETH) balance\n    function snowflakeCall(address, uint, uint einTo, uint amount, bytes memory) public senderIsSnowflake() {\n        creditEIN(einTo, amount);\n    }\n\n    function snowflakeCall(address, uint einTo, uint amount, bytes memory) public senderIsSnowflake() {\n        creditEIN(einTo, amount);\n    }\n\n    function creditEIN(uint einTo, uint amount) private {\n        balances[einTo] += convertHydroToEth(amount);\n    }\n\n    // end recipient is an address, send them ETH\n    function snowflakeCall(address, uint, address payable to, uint amount, bytes memory) public senderIsSnowflake() {\n        creditAddress(to, amount);\n    }\n\n    function snowflakeCall(address, address payable to, uint amount, bytes memory) public senderIsSnowflake() {\n        creditAddress(to, amount);\n    }\n\n    function creditAddress(address payable to, uint amount) private {\n        to.transfer(convertHydroToEth(amount));\n    }\n\n    // allows hydroIds with balances to withdraw their accumulated eth balance to an address\n    function withdrawTo(address payable to) public {\n        IdentityRegistryInterface identityRegistry = IdentityRegistryInterface(snowflake.identityRegistryAddress());\n        to.transfer(balances[identityRegistry.getEIN(msg.sender)]);\n    }\n\n    // allows the owner to withdraw the contract's accumulated hydro balance to an address\n    function withdrawHydroTo(address to) public onlyOwner() {\n        require(hydroToken.transfer(to, hydroToken.balanceOf(address(this))), \"Transfer was unsuccessful\");\n    }\n}\n",
  "sourcePath": "/home/luiserebii/github/HydroSnowflake-Marketplace-Coupons/contracts/samples/Via.sol",
  "compiler": {
    "name": "solc",
    "version": "0.5.6+commit.b259423e.Emscripten.clang"
  },
  "schemaVersion": "3.0.6",
  "updatedAt": "2019-04-12T01:36:38.132Z",
  "devdoc": {
    "methods": {
      "isOwner()": {
        "return": "true if `msg.sender` is the owner of the contract."
      },
      "owner()": {
        "return": "the address of the owner."
      },
      "renounceOwnership()": {
        "details": "Allows the current owner to relinquish control of the contract."
      },
      "transferOwnership(address)": {
        "details": "Allows the current owner to transfer control of the contract to a newOwner.",
        "params": {
          "newOwner": "The address to transfer ownership to."
        }
      }
    }
  },
  "userdoc": {
    "methods": {
      "renounceOwnership()": {
        "notice": "Renouncing to ownership will leave the contract without an owner. It will not be possible to call the functions with the `onlyOwner` modifier anymore."
      }
    }
  }
}