{
  "contractName": "Via",
  "abi": [
    {
      "constant": true,
      "inputs": [
        {
          "name": "",
          "type": "uint256"
        }
      ],
      "name": "balances",
      "outputs": [
        {
          "name": "",
          "type": "uint256"
        }
      ],
      "payable": false,
      "stateMutability": "view",
      "type": "function"
    },
    {
      "constant": false,
      "inputs": [],
      "name": "renounceOwnership",
      "outputs": [],
      "payable": false,
      "stateMutability": "nonpayable",
      "type": "function"
    },
    {
      "constant": true,
      "inputs": [],
      "name": "owner",
      "outputs": [
        {
          "name": "",
          "type": "address"
        }
      ],
      "payable": false,
      "stateMutability": "view",
      "type": "function"
    },
    {
      "constant": true,
      "inputs": [],
      "name": "isOwner",
      "outputs": [
        {
          "name": "",
          "type": "bool"
        }
      ],
      "payable": false,
      "stateMutability": "view",
      "type": "function"
    },
    {
      "constant": false,
      "inputs": [
        {
          "name": "newOwner",
          "type": "address"
        }
      ],
      "name": "transferOwnership",
      "outputs": [],
      "payable": false,
      "stateMutability": "nonpayable",
      "type": "function"
    },
    {
      "constant": true,
      "inputs": [],
      "name": "snowflakeAddress",
      "outputs": [
        {
          "name": "",
          "type": "address"
        }
      ],
      "payable": false,
      "stateMutability": "view",
      "type": "function"
    },
    {
      "inputs": [
        {
          "name": "_snowflakeAddress",
          "type": "address"
        }
      ],
      "payable": false,
      "stateMutability": "nonpayable",
      "type": "constructor"
    },
    {
      "anonymous": false,
      "inputs": [
        {
          "indexed": true,
          "name": "previousOwner",
          "type": "address"
        },
        {
          "indexed": true,
          "name": "newOwner",
          "type": "address"
        }
      ],
      "name": "OwnershipTransferred",
      "type": "event"
    },
    {
      "constant": false,
      "inputs": [
        {
          "name": "_snowflakeAddress",
          "type": "address"
        }
      ],
      "name": "setSnowflakeAddress",
      "outputs": [],
      "payable": false,
      "stateMutability": "nonpayable",
      "type": "function"
    },
    {
      "constant": false,
      "inputs": [],
      "name": "fund",
      "outputs": [],
      "payable": true,
      "stateMutability": "payable",
      "type": "function"
    },
    {
      "constant": true,
      "inputs": [
        {
          "name": "amount",
          "type": "uint256"
        }
      ],
      "name": "convertHydroToEth",
      "outputs": [
        {
          "name": "",
          "type": "uint256"
        }
      ],
      "payable": false,
      "stateMutability": "view",
      "type": "function"
    },
    {
      "constant": false,
      "inputs": [
        {
          "name": "",
          "type": "address"
        },
        {
          "name": "",
          "type": "uint256"
        },
        {
          "name": "einTo",
          "type": "uint256"
        },
        {
          "name": "amount",
          "type": "uint256"
        },
        {
          "name": "",
          "type": "bytes"
        }
      ],
      "name": "snowflakeCall",
      "outputs": [],
      "payable": false,
      "stateMutability": "nonpayable",
      "type": "function"
    },
    {
      "constant": false,
      "inputs": [
        {
          "name": "",
          "type": "address"
        },
        {
          "name": "",
          "type": "uint256"
        },
        {
          "name": "to",
          "type": "address"
        },
        {
          "name": "amount",
          "type": "uint256"
        },
        {
          "name": "",
          "type": "bytes"
        }
      ],
      "name": "snowflakeCall",
      "outputs": [],
      "payable": false,
      "stateMutability": "nonpayable",
      "type": "function"
    },
    {
      "constant": false,
      "inputs": [
        {
          "name": "",
          "type": "address"
        },
        {
          "name": "einTo",
          "type": "uint256"
        },
        {
          "name": "amount",
          "type": "uint256"
        },
        {
          "name": "",
          "type": "bytes"
        }
      ],
      "name": "snowflakeCall",
      "outputs": [],
      "payable": false,
      "stateMutability": "nonpayable",
      "type": "function"
    },
    {
      "constant": false,
      "inputs": [
        {
          "name": "",
          "type": "address"
        },
        {
          "name": "to",
          "type": "address"
        },
        {
          "name": "amount",
          "type": "uint256"
        },
        {
          "name": "",
          "type": "bytes"
        }
      ],
      "name": "snowflakeCall",
      "outputs": [],
      "payable": false,
      "stateMutability": "nonpayable",
      "type": "function"
    },
    {
      "constant": false,
      "inputs": [
        {
          "name": "to",
          "type": "address"
        }
      ],
      "name": "withdrawTo",
      "outputs": [],
      "payable": false,
      "stateMutability": "nonpayable",
      "type": "function"
    },
    {
      "constant": false,
      "inputs": [
        {
          "name": "to",
          "type": "address"
        }
      ],
      "name": "withdrawHydroTo",
      "outputs": [],
      "payable": false,
      "stateMutability": "nonpayable",
      "type": "function"
    }
  ],
  "bytecode": "0x6080604052600a6005553480156200001657600080fd5b5060405160208062000ff5833981018060405260208110156200003857600080fd5b505160008054600160a060020a03191633178082556040518392600160a060020a039290921691907f8be0079c531659141344cd1fd0a4f28419497f9722a3daafe3b4186f6b6457e0908290a36200009981640100000000620000b5810204565b50620000ae81640100000000620000b5810204565b5062000207565b620000c8640100000000620001b5810204565b1515620000d457600080fd5b620000ed8164010000000062000cd3620001c682021704565b60028054600160a060020a031916600160a060020a038381169190911791829055604080517f75d7e4bd000000000000000000000000000000000000000000000000000000008152905192909116916375d7e4bd916004808201926020929091908290030181600087803b1580156200016557600080fd5b505af11580156200017a573d6000803e3d6000fd5b505050506040513d60208110156200019157600080fd5b505160038054600160a060020a031916600160a060020a0390921691909117905550565b600054600160a060020a0316331490565b620001d9640100000000620001b5810204565b1515620001e557600080fd5b60018054600160a060020a031916600160a060020a0392909216919091179055565b610dde80620002176000396000f3fe6080604052600436106100da5763ffffffff7c0100000000000000000000000000000000000000000000000000000000600035041663101df4ff81146100df57806317451a511461011b5780631c75edfe146101505780633aaaa8a0146102245780633c72e439146102fd5780634903b0d1146103cc578063715018a6146103f657806372b0d90c1461040b5780638da5cb5b1461043e5780638f32d59b1461046f578063b60d428814610498578063c979b05a146104a0578063e5a13092146104d3578063f2fde38b146105a6578063f9f451b8146105d9575b600080fd5b3480156100eb57600080fd5b506101096004803603602081101561010257600080fd5b50356105ee565b60408051918252519081900360200190f35b34801561012757600080fd5b5061014e6004803603602081101561013e57600080fd5b5035600160a060020a0316610604565b005b34801561015c57600080fd5b5061014e600480360360a081101561017357600080fd5b600160a060020a038235169160208101359160408201359160608101359181019060a0810160808201356401000000008111156101af57600080fd5b8201836020820111156101c157600080fd5b803590602001918460018302840111640100000000831117156101e357600080fd5b91908080601f01602080910402602001604051908101604052809392919081815260200183838082843760009201919091525092955061079b945050505050565b34801561023057600080fd5b5061014e600480360360a081101561024757600080fd5b600160a060020a0382358116926020810135926040820135909216916060820135919081019060a08101608082013564010000000081111561028857600080fd5b82018360208201111561029a57600080fd5b803590602001918460018302840111640100000000831117156102bc57600080fd5b91908080601f016020809104026020016040519081016040528093929190818152602001838380828437600092019190915250929550610809945050505050565b34801561030957600080fd5b5061014e6004803603608081101561032057600080fd5b600160a060020a03823516916020810135916040820135919081019060808101606082013564010000000081111561035757600080fd5b82018360208201111561036957600080fd5b8035906020019184600183028401116401000000008311171561038b57600080fd5b91908080601f016020809104026020016040519081016040528093929190818152602001838380828437600092019190915250929550610870945050505050565b3480156103d857600080fd5b50610109600480360360208110156103ef57600080fd5b50356108dd565b34801561040257600080fd5b5061014e6108ef565b34801561041757600080fd5b5061014e6004803603602081101561042e57600080fd5b5035600160a060020a0316610959565b34801561044a57600080fd5b50610453610ac3565b60408051600160a060020a039092168252519081900360200190f35b34801561047b57600080fd5b50610484610ad2565b604080519115158252519081900360200190f35b61014e610ae3565b3480156104ac57600080fd5b5061014e600480360360208110156104c357600080fd5b5035600160a060020a0316610ae5565b3480156104df57600080fd5b5061014e600480360360808110156104f657600080fd5b600160a060020a0382358116926020810135909116916040820135919081019060808101606082013564010000000081111561053157600080fd5b82018360208201111561054357600080fd5b8035906020019184600183028401116401000000008311171561056557600080fd5b91908080601f016020809104026020016040519081016040528093929190818152602001838380828437600092019190915250929550610be0945050505050565b3480156105b257600080fd5b5061014e600480360360208110156105c957600080fd5b5035600160a060020a0316610c47565b3480156105e557600080fd5b50610453610c63565b6000600554828115156105fd57fe5b0492915050565b61060c610ad2565b151561061757600080fd5b600354604080517f70a082310000000000000000000000000000000000000000000000000000000081523060048201529051600160a060020a039092169163a9059cbb91849184916370a08231916024808301926020929190829003018186803b15801561068457600080fd5b505afa158015610698573d6000803e3d6000fd5b505050506040513d60208110156106ae57600080fd5b5051604080517c010000000000000000000000000000000000000000000000000000000063ffffffff8616028152600160a060020a03909316600484015260248301919091525160448083019260209291908290030181600087803b15801561071657600080fd5b505af115801561072a573d6000803e3d6000fd5b505050506040513d602081101561074057600080fd5b50511515610798576040805160e560020a62461bcd02815260206004820152601960248201527f5472616e736665722077617320756e7375636365737366756c00000000000000604482015290519081900360640190fd5b50565b600154600160a060020a031633146107f8576040805160e560020a62461bcd0281526020600482015260216024820152600080516020610d93833981519152604482015260f960020a601702606482015290519081900360840190fd5b6108028383610c72565b5050505050565b600154600160a060020a03163314610866576040805160e560020a62461bcd0281526020600482015260216024820152600080516020610d93833981519152604482015260f960020a601702606482015290519081900360840190fd5b6108028383610c95565b600154600160a060020a031633146108cd576040805160e560020a62461bcd0281526020600482015260216024820152600080516020610d93833981519152604482015260f960020a601702606482015290519081900360840190fd5b6108d78383610c72565b50505050565b60046020526000908152604090205481565b6108f7610ad2565b151561090257600080fd5b60008054604051600160a060020a03909116907f8be0079c531659141344cd1fd0a4f28419497f9722a3daafe3b4186f6b6457e0908390a36000805473ffffffffffffffffffffffffffffffffffffffff19169055565b600254604080517fa759ee6f0000000000000000000000000000000000000000000000000000000081529051600092600160a060020a03169163a759ee6f91600480830192602092919082900301818787803b1580156109b857600080fd5b505af11580156109cc573d6000803e3d6000fd5b505050506040513d60208110156109e257600080fd5b5051604080517f05c62c2f000000000000000000000000000000000000000000000000000000008152336004828101919091529151929350600160a060020a03808616936108fc93926000928716916305c62c2f91602480820192602092909190829003018186803b158015610a5757600080fd5b505afa158015610a6b573d6000803e3d6000fd5b505050506040513d6020811015610a8157600080fd5b5051815260208101919091526040908101600090812054915182159093029290818181858888f19350505050158015610abe573d6000803e3d6000fd5b505050565b600054600160a060020a031690565b600054600160a060020a0316331490565b565b610aed610ad2565b1515610af857600080fd5b610b0181610cd3565b6002805473ffffffffffffffffffffffffffffffffffffffff1916600160a060020a038381169190911791829055604080517f75d7e4bd000000000000000000000000000000000000000000000000000000008152905192909116916375d7e4bd916004808201926020929091908290030181600087803b158015610b8557600080fd5b505af1158015610b99573d6000803e3d6000fd5b505050506040513d6020811015610baf57600080fd5b50516003805473ffffffffffffffffffffffffffffffffffffffff1916600160a060020a0390921691909117905550565b600154600160a060020a03163314610c3d576040805160e560020a62461bcd0281526020600482015260216024820152600080516020610d93833981519152604482015260f960020a601702606482015290519081900360840190fd5b6108d78383610c95565b610c4f610ad2565b1515610c5a57600080fd5b61079881610d15565b600154600160a060020a031681565b610c7b816105ee565b600092835260046020526040909220805490920190915550565b81600160a060020a03166108fc610cab836105ee565b6040518115909202916000818181858888f19350505050158015610abe573d6000803e3d6000fd5b610cdb610ad2565b1515610ce657600080fd5b6001805473ffffffffffffffffffffffffffffffffffffffff1916600160a060020a0392909216919091179055565b600160a060020a0381161515610d2a57600080fd5b60008054604051600160a060020a03808516939216917f8be0079c531659141344cd1fd0a4f28419497f9722a3daafe3b4186f6b6457e091a36000805473ffffffffffffffffffffffffffffffffffffffff1916600160a060020a039290921691909117905556fe446964206e6f74206f726967696e6174652066726f6d20536e6f77666c616b65a165627a7a72305820c8ca6d25158237d8af0f43558bc2a75ac7eabb39cac35b0228bcd62dd51dc3ae0029",
  "source": "pragma solidity ^0.5.0;\n\nimport \"../SnowflakeVia.sol\";\nimport \"../interfaces/IdentityRegistryInterface.sol\";\nimport \"../interfaces/HydroInterface.sol\";\nimport \"../interfaces/SnowflakeInterface.sol\";\n\ncontract Via is SnowflakeVia {\n    SnowflakeInterface private snowflake;\n    HydroInterface private hydroToken;\n\n    constructor (address _snowflakeAddress) SnowflakeVia(_snowflakeAddress) public {\n        setSnowflakeAddress(_snowflakeAddress);\n    }\n\n    function setSnowflakeAddress(address _snowflakeAddress) public onlyOwner() {\n        super.setSnowflakeAddress(_snowflakeAddress);\n\n        snowflake = SnowflakeInterface(_snowflakeAddress);\n        hydroToken = HydroInterface(snowflake.hydroTokenAddress());\n    }\n\n    // this contract is responsible for funding itself with ETH, and must be entrusted to do so\n    function fund() public payable {}\n\n    // EIN -> ETH balances\n    mapping (uint => uint) public balances;\n\n    // a dummy exchange rate between HYDRO and ETH s.t. 10 HYDRO := 1 ETH for testing purposes\n    uint exchangeRate = 10;\n    function convertHydroToEth(uint amount) public view returns (uint) {\n        return amount / exchangeRate; // POTENTIALLY UNSAFE - always use SafeMath when not testing\n    }\n\n    // end recipient is an EIN, credit their (ETH) balance\n    function snowflakeCall(address, uint, uint einTo, uint amount, bytes memory) public senderIsSnowflake() {\n        creditEIN(einTo, amount);\n    }\n\n    function snowflakeCall(address, uint einTo, uint amount, bytes memory) public senderIsSnowflake() {\n        creditEIN(einTo, amount);\n    }\n\n    function creditEIN(uint einTo, uint amount) private {\n        balances[einTo] += convertHydroToEth(amount);\n    }\n\n    // end recipient is an address, send them ETH\n    function snowflakeCall(address, uint, address payable to, uint amount, bytes memory) public senderIsSnowflake() {\n        creditAddress(to, amount);\n    }\n\n    function snowflakeCall(address, address payable to, uint amount, bytes memory) public senderIsSnowflake() {\n        creditAddress(to, amount);\n    }\n\n    function creditAddress(address payable to, uint amount) private {\n        to.transfer(convertHydroToEth(amount));\n    }\n\n    // allows hydroIds with balances to withdraw their accumulated eth balance to an address\n    function withdrawTo(address payable to) public {\n        IdentityRegistryInterface identityRegistry = IdentityRegistryInterface(snowflake.identityRegistryAddress());\n        to.transfer(balances[identityRegistry.getEIN(msg.sender)]);\n    }\n\n    // allows the owner to withdraw the contract's accumulated hydro balance to an address\n    function withdrawHydroTo(address to) public onlyOwner() {\n        require(hydroToken.transfer(to, hydroToken.balanceOf(address(this))), \"Transfer was unsuccessful\");\n    }\n}\n",
  "sourcePath": "/home/luiserebii/hydro_bounty_unofficial/contracts/samples/Via.sol",
  "compiler": {
    "name": "solc",
    "version": "0.5.0+commit.1d4f565a.Emscripten.clang"
  },
  "schemaVersion": "3.0.0-beta.0",
  "updatedAt": "2019-03-11T23:50:45.682Z"
}